{
	"contracts/test.sol": {
		"dsa": {
			"abi": [
				{
					"inputs": [],
					"stateMutability": "nonpayable",
					"type": "constructor"
				},
				{
					"inputs": [],
					"name": "addLiquidityETH",
					"outputs": [
						{
							"internalType": "uint256",
							"name": "",
							"type": "uint256"
						}
					],
					"stateMutability": "view",
					"type": "function"
				},
				{
					"inputs": [],
					"name": "callF",
					"outputs": [
						{
							"internalType": "uint256",
							"name": "",
							"type": "uint256"
						}
					],
					"stateMutability": "nonpayable",
					"type": "function"
				},
				{
					"stateMutability": "payable",
					"type": "receive"
				}
			],
			"devdoc": {
				"kind": "dev",
				"methods": {},
				"version": 1
			},
			"evm": {
				"assembly": "    /* \"contracts/test.sol\":109:452  contract dsa {... */\n  mstore(0x40, 0x80)\n    /* \"contracts/test.sol\":130:153  constructor() public {} */\n  callvalue\n  dup1\n  iszero\n  tag_1\n  jumpi\n  0x00\n  dup1\n  revert\ntag_1:\n  pop\n    /* \"contracts/test.sol\":109:452  contract dsa {... */\n  dataSize(sub_0)\n  dup1\n  dataOffset(sub_0)\n  0x00\n  codecopy\n  0x00\n  return\nstop\n\nsub_0: assembly {\n        /* \"contracts/test.sol\":109:452  contract dsa {... */\n      mstore(0x40, 0x80)\n      jumpi(tag_1, lt(calldatasize, 0x04))\n      shr(0xe0, calldataload(0x00))\n      dup1\n      0xed995307\n      eq\n      tag_3\n      jumpi\n      dup1\n      0xfc75ac47\n      eq\n      tag_4\n      jumpi\n      jump(tag_2)\n    tag_1:\n      jumpi(tag_2, calldatasize)\n      stop\n    tag_2:\n      0x00\n      dup1\n      revert\n        /* \"contracts/test.sol\":302:448  function addLiquidityETH() public view returns (uint)  {... */\n    tag_3:\n      callvalue\n      dup1\n      iszero\n      tag_7\n      jumpi\n      0x00\n      dup1\n      revert\n    tag_7:\n      pop\n      tag_8\n      tag_9\n      jump\t// in\n    tag_8:\n      0x40\n      dup1\n      mload\n      swap2\n      dup3\n      mstore\n      mload\n      swap1\n      dup2\n      swap1\n      sub\n      0x20\n      add\n      swap1\n      return\n        /* \"contracts/test.sol\":192:296  function callF() public  returns (uint) {... */\n    tag_4:\n      callvalue\n      dup1\n      iszero\n      tag_10\n      jumpi\n      0x00\n      dup1\n      revert\n    tag_10:\n      pop\n      tag_8\n      tag_12\n      jump\t// in\n        /* \"contracts/test.sol\":302:448  function addLiquidityETH() public view returns (uint)  {... */\n    tag_9:\n        /* \"contracts/test.sol\":350:354  uint */\n      0x00\n        /* \"contracts/test.sol\":365:375  msg.sender */\n      caller\n        /* \"contracts/test.sol\":387:391  this */\n      address\n        /* \"contracts/test.sol\":365:392  msg.sender == address(this) */\n      eq\n        /* \"contracts/test.sol\":362:442  if(msg.sender == address(this) ){... */\n      iszero\n      tag_14\n      jumpi\n      pop\n        /* \"contracts/test.sol\":409:410  5 */\n      0x05\n        /* \"contracts/test.sol\":402:410  return 5 */\n      jump(tag_15)\n        /* \"contracts/test.sol\":362:442  if(msg.sender == address(this) ){... */\n    tag_14:\n      pop\n        /* \"contracts/test.sol\":436:437  3 */\n      0x03\n        /* \"contracts/test.sol\":362:442  if(msg.sender == address(this) ){... */\n    tag_15:\n        /* \"contracts/test.sol\":302:448  function addLiquidityETH() public view returns (uint)  {... */\n      swap1\n      jump\t// out\n        /* \"contracts/test.sol\":192:296  function callF() public  returns (uint) {... */\n    tag_12:\n        /* \"contracts/test.sol\":226:230  uint */\n      0x00\n        /* \"contracts/test.sol\":239:250  uint result */\n      dup1\n        /* \"contracts/test.sol\":253:270  addLiquidityETH() */\n      tag_17\n        /* \"contracts/test.sol\":253:268  addLiquidityETH */\n      tag_9\n        /* \"contracts/test.sol\":253:270  addLiquidityETH() */\n      jump\t// in\n    tag_17:\n        /* \"contracts/test.sol\":239:270  uint result = addLiquidityETH() */\n      swap2\n      pop\n      pop\n        /* \"contracts/test.sol\":192:296  function callF() public  returns (uint) {... */\n      swap1\n      jump\t// out\n\n    auxdata: 0xa2646970667358221220568e8e275eed3d46e0d298d4f573c74d1481d604ba70a3397962d9038ebd42d264736f6c634300060c0033\n}\n",
				"bytecode": {
					"linkReferences": {},
					"object": "608060405234801561001057600080fd5b5060c68061001f6000396000f3fe60806040526004361060295760003560e01c8063ed995307146034578063fc75ac4714605857602f565b36602f57005b600080fd5b348015603f57600080fd5b506046606a565b60408051918252519081900360200190f35b348015606357600080fd5b5060466081565b600033301415607a57506005607e565b5060035b90565b600080608a606a565b9150509056fea2646970667358221220568e8e275eed3d46e0d298d4f573c74d1481d604ba70a3397962d9038ebd42d264736f6c634300060c0033",
					"opcodes": "PUSH1 0x80 PUSH1 0x40 MSTORE CALLVALUE DUP1 ISZERO PUSH2 0x10 JUMPI PUSH1 0x0 DUP1 REVERT JUMPDEST POP PUSH1 0xC6 DUP1 PUSH2 0x1F PUSH1 0x0 CODECOPY PUSH1 0x0 RETURN INVALID PUSH1 0x80 PUSH1 0x40 MSTORE PUSH1 0x4 CALLDATASIZE LT PUSH1 0x29 JUMPI PUSH1 0x0 CALLDATALOAD PUSH1 0xE0 SHR DUP1 PUSH4 0xED995307 EQ PUSH1 0x34 JUMPI DUP1 PUSH4 0xFC75AC47 EQ PUSH1 0x58 JUMPI PUSH1 0x2F JUMP JUMPDEST CALLDATASIZE PUSH1 0x2F JUMPI STOP JUMPDEST PUSH1 0x0 DUP1 REVERT JUMPDEST CALLVALUE DUP1 ISZERO PUSH1 0x3F JUMPI PUSH1 0x0 DUP1 REVERT JUMPDEST POP PUSH1 0x46 PUSH1 0x6A JUMP JUMPDEST PUSH1 0x40 DUP1 MLOAD SWAP2 DUP3 MSTORE MLOAD SWAP1 DUP2 SWAP1 SUB PUSH1 0x20 ADD SWAP1 RETURN JUMPDEST CALLVALUE DUP1 ISZERO PUSH1 0x63 JUMPI PUSH1 0x0 DUP1 REVERT JUMPDEST POP PUSH1 0x46 PUSH1 0x81 JUMP JUMPDEST PUSH1 0x0 CALLER ADDRESS EQ ISZERO PUSH1 0x7A JUMPI POP PUSH1 0x5 PUSH1 0x7E JUMP JUMPDEST POP PUSH1 0x3 JUMPDEST SWAP1 JUMP JUMPDEST PUSH1 0x0 DUP1 PUSH1 0x8A PUSH1 0x6A JUMP JUMPDEST SWAP2 POP POP SWAP1 JUMP INVALID LOG2 PUSH5 0x6970667358 0x22 SLT KECCAK256 JUMP DUP15 DUP15 0x27 0x5E 0xED RETURNDATASIZE CHAINID 0xE0 0xD2 SWAP9 0xD4 CREATE2 PUSH20 0xC74D1481D604BA70A3397962D9038EBD42D26473 PUSH16 0x6C634300060C00330000000000000000 "
				},
				"gasEstimates": {
					"creation": {
						"codeDepositCost": "39600",
						"executionCost": "93",
						"totalCost": "39693"
					},
					"external": {
						"addLiquidityETH()": "216",
						"callF()": "278"
					}
				},
				"methodIdentifiers": {
					"addLiquidityETH()": "ed995307",
					"callF()": "fc75ac47"
				}
			},
			"storageLayout": {
				"storage": [],
				"types": null
			},
			"userdoc": {
				"kind": "user",
				"methods": {},
				"version": 1
			}
		}
	}
}