{
	"contracts/Mooniswap.sol": {
		"Mooniswap": {
			"abi": [
				{
					"inputs": [
						{
							"internalType": "contract IERC20[]",
							"name": "assets",
							"type": "address[]"
						},
						{
							"internalType": "string",
							"name": "name",
							"type": "string"
						},
						{
							"internalType": "string",
							"name": "symbol",
							"type": "string"
						}
					],
					"stateMutability": "nonpayable",
					"type": "constructor"
				},
				{
					"anonymous": false,
					"inputs": [
						{
							"indexed": true,
							"internalType": "address",
							"name": "owner",
							"type": "address"
						},
						{
							"indexed": true,
							"internalType": "address",
							"name": "spender",
							"type": "address"
						},
						{
							"indexed": false,
							"internalType": "uint256",
							"name": "value",
							"type": "uint256"
						}
					],
					"name": "Approval",
					"type": "event"
				},
				{
					"anonymous": false,
					"inputs": [
						{
							"indexed": true,
							"internalType": "address",
							"name": "account",
							"type": "address"
						},
						{
							"indexed": false,
							"internalType": "uint256",
							"name": "amount",
							"type": "uint256"
						}
					],
					"name": "Deposited",
					"type": "event"
				},
				{
					"anonymous": false,
					"inputs": [
						{
							"indexed": true,
							"internalType": "address",
							"name": "previousOwner",
							"type": "address"
						},
						{
							"indexed": true,
							"internalType": "address",
							"name": "newOwner",
							"type": "address"
						}
					],
					"name": "OwnershipTransferred",
					"type": "event"
				},
				{
					"anonymous": false,
					"inputs": [
						{
							"indexed": true,
							"internalType": "address",
							"name": "account",
							"type": "address"
						},
						{
							"indexed": true,
							"internalType": "address",
							"name": "src",
							"type": "address"
						},
						{
							"indexed": true,
							"internalType": "address",
							"name": "dst",
							"type": "address"
						},
						{
							"indexed": false,
							"internalType": "uint256",
							"name": "amount",
							"type": "uint256"
						},
						{
							"indexed": false,
							"internalType": "uint256",
							"name": "result",
							"type": "uint256"
						},
						{
							"indexed": false,
							"internalType": "uint256",
							"name": "srcBalance",
							"type": "uint256"
						},
						{
							"indexed": false,
							"internalType": "uint256",
							"name": "dstBalance",
							"type": "uint256"
						},
						{
							"indexed": false,
							"internalType": "uint256",
							"name": "totalSupply",
							"type": "uint256"
						},
						{
							"indexed": false,
							"internalType": "address",
							"name": "referral",
							"type": "address"
						}
					],
					"name": "Swapped",
					"type": "event"
				},
				{
					"anonymous": false,
					"inputs": [
						{
							"indexed": true,
							"internalType": "address",
							"name": "from",
							"type": "address"
						},
						{
							"indexed": true,
							"internalType": "address",
							"name": "to",
							"type": "address"
						},
						{
							"indexed": false,
							"internalType": "uint256",
							"name": "value",
							"type": "uint256"
						}
					],
					"name": "Transfer",
					"type": "event"
				},
				{
					"anonymous": false,
					"inputs": [
						{
							"indexed": true,
							"internalType": "address",
							"name": "account",
							"type": "address"
						},
						{
							"indexed": false,
							"internalType": "uint256",
							"name": "amount",
							"type": "uint256"
						}
					],
					"name": "Withdrawn",
					"type": "event"
				},
				{
					"inputs": [],
					"name": "BASE_SUPPLY",
					"outputs": [
						{
							"internalType": "uint256",
							"name": "",
							"type": "uint256"
						}
					],
					"stateMutability": "view",
					"type": "function"
				},
				{
					"inputs": [],
					"name": "FEE_DENOMINATOR",
					"outputs": [
						{
							"internalType": "uint256",
							"name": "",
							"type": "uint256"
						}
					],
					"stateMutability": "view",
					"type": "function"
				},
				{
					"inputs": [],
					"name": "REFERRAL_SHARE",
					"outputs": [
						{
							"internalType": "uint256",
							"name": "",
							"type": "uint256"
						}
					],
					"stateMutability": "view",
					"type": "function"
				},
				{
					"inputs": [
						{
							"internalType": "address",
							"name": "owner",
							"type": "address"
						},
						{
							"internalType": "address",
							"name": "spender",
							"type": "address"
						}
					],
					"name": "allowance",
					"outputs": [
						{
							"internalType": "uint256",
							"name": "",
							"type": "uint256"
						}
					],
					"stateMutability": "view",
					"type": "function"
				},
				{
					"inputs": [
						{
							"internalType": "address",
							"name": "spender",
							"type": "address"
						},
						{
							"internalType": "uint256",
							"name": "amount",
							"type": "uint256"
						}
					],
					"name": "approve",
					"outputs": [
						{
							"internalType": "bool",
							"name": "",
							"type": "bool"
						}
					],
					"stateMutability": "nonpayable",
					"type": "function"
				},
				{
					"inputs": [
						{
							"internalType": "address",
							"name": "account",
							"type": "address"
						}
					],
					"name": "balanceOf",
					"outputs": [
						{
							"internalType": "uint256",
							"name": "",
							"type": "uint256"
						}
					],
					"stateMutability": "view",
					"type": "function"
				},
				{
					"inputs": [],
					"name": "decayPeriod",
					"outputs": [
						{
							"internalType": "uint256",
							"name": "",
							"type": "uint256"
						}
					],
					"stateMutability": "pure",
					"type": "function"
				},
				{
					"inputs": [],
					"name": "decimals",
					"outputs": [
						{
							"internalType": "uint8",
							"name": "",
							"type": "uint8"
						}
					],
					"stateMutability": "view",
					"type": "function"
				},
				{
					"inputs": [
						{
							"internalType": "address",
							"name": "spender",
							"type": "address"
						},
						{
							"internalType": "uint256",
							"name": "subtractedValue",
							"type": "uint256"
						}
					],
					"name": "decreaseAllowance",
					"outputs": [
						{
							"internalType": "bool",
							"name": "",
							"type": "bool"
						}
					],
					"stateMutability": "nonpayable",
					"type": "function"
				},
				{
					"inputs": [
						{
							"internalType": "uint256[]",
							"name": "amounts",
							"type": "uint256[]"
						},
						{
							"internalType": "uint256[]",
							"name": "minAmounts",
							"type": "uint256[]"
						}
					],
					"name": "deposit",
					"outputs": [
						{
							"internalType": "uint256",
							"name": "fairSupply",
							"type": "uint256"
						}
					],
					"stateMutability": "payable",
					"type": "function"
				},
				{
					"inputs": [],
					"name": "factory",
					"outputs": [
						{
							"internalType": "contract IFactory",
							"name": "",
							"type": "address"
						}
					],
					"stateMutability": "view",
					"type": "function"
				},
				{
					"inputs": [],
					"name": "fee",
					"outputs": [
						{
							"internalType": "uint256",
							"name": "",
							"type": "uint256"
						}
					],
					"stateMutability": "view",
					"type": "function"
				},
				{
					"inputs": [
						{
							"internalType": "contract IERC20",
							"name": "token",
							"type": "address"
						}
					],
					"name": "getBalanceForAddition",
					"outputs": [
						{
							"internalType": "uint256",
							"name": "",
							"type": "uint256"
						}
					],
					"stateMutability": "view",
					"type": "function"
				},
				{
					"inputs": [
						{
							"internalType": "contract IERC20",
							"name": "token",
							"type": "address"
						}
					],
					"name": "getBalanceForRemoval",
					"outputs": [
						{
							"internalType": "uint256",
							"name": "",
							"type": "uint256"
						}
					],
					"stateMutability": "view",
					"type": "function"
				},
				{
					"inputs": [
						{
							"internalType": "contract IERC20",
							"name": "src",
							"type": "address"
						},
						{
							"internalType": "contract IERC20",
							"name": "dst",
							"type": "address"
						},
						{
							"internalType": "uint256",
							"name": "amount",
							"type": "uint256"
						}
					],
					"name": "getReturn",
					"outputs": [
						{
							"internalType": "uint256",
							"name": "",
							"type": "uint256"
						}
					],
					"stateMutability": "view",
					"type": "function"
				},
				{
					"inputs": [],
					"name": "getTokens",
					"outputs": [
						{
							"internalType": "contract IERC20[]",
							"name": "",
							"type": "address[]"
						}
					],
					"stateMutability": "view",
					"type": "function"
				},
				{
					"inputs": [
						{
							"internalType": "address",
							"name": "spender",
							"type": "address"
						},
						{
							"internalType": "uint256",
							"name": "addedValue",
							"type": "uint256"
						}
					],
					"name": "increaseAllowance",
					"outputs": [
						{
							"internalType": "bool",
							"name": "",
							"type": "bool"
						}
					],
					"stateMutability": "nonpayable",
					"type": "function"
				},
				{
					"inputs": [
						{
							"internalType": "contract IERC20",
							"name": "",
							"type": "address"
						}
					],
					"name": "isToken",
					"outputs": [
						{
							"internalType": "bool",
							"name": "",
							"type": "bool"
						}
					],
					"stateMutability": "view",
					"type": "function"
				},
				{
					"inputs": [],
					"name": "name",
					"outputs": [
						{
							"internalType": "string",
							"name": "",
							"type": "string"
						}
					],
					"stateMutability": "view",
					"type": "function"
				},
				{
					"inputs": [],
					"name": "owner",
					"outputs": [
						{
							"internalType": "address",
							"name": "",
							"type": "address"
						}
					],
					"stateMutability": "view",
					"type": "function"
				},
				{
					"inputs": [],
					"name": "renounceOwnership",
					"outputs": [],
					"stateMutability": "nonpayable",
					"type": "function"
				},
				{
					"inputs": [
						{
							"internalType": "contract IERC20",
							"name": "token",
							"type": "address"
						},
						{
							"internalType": "uint256",
							"name": "amount",
							"type": "uint256"
						}
					],
					"name": "rescueFunds",
					"outputs": [],
					"stateMutability": "nonpayable",
					"type": "function"
				},
				{
					"inputs": [
						{
							"internalType": "contract IERC20",
							"name": "src",
							"type": "address"
						},
						{
							"internalType": "contract IERC20",
							"name": "dst",
							"type": "address"
						},
						{
							"internalType": "uint256",
							"name": "amount",
							"type": "uint256"
						},
						{
							"internalType": "uint256",
							"name": "minReturn",
							"type": "uint256"
						},
						{
							"internalType": "address",
							"name": "referral",
							"type": "address"
						}
					],
					"name": "swap",
					"outputs": [
						{
							"internalType": "uint256",
							"name": "result",
							"type": "uint256"
						}
					],
					"stateMutability": "payable",
					"type": "function"
				},
				{
					"inputs": [],
					"name": "symbol",
					"outputs": [
						{
							"internalType": "string",
							"name": "",
							"type": "string"
						}
					],
					"stateMutability": "view",
					"type": "function"
				},
				{
					"inputs": [
						{
							"internalType": "uint256",
							"name": "",
							"type": "uint256"
						}
					],
					"name": "tokens",
					"outputs": [
						{
							"internalType": "contract IERC20",
							"name": "",
							"type": "address"
						}
					],
					"stateMutability": "view",
					"type": "function"
				},
				{
					"inputs": [],
					"name": "totalSupply",
					"outputs": [
						{
							"internalType": "uint256",
							"name": "",
							"type": "uint256"
						}
					],
					"stateMutability": "view",
					"type": "function"
				},
				{
					"inputs": [
						{
							"internalType": "address",
							"name": "recipient",
							"type": "address"
						},
						{
							"internalType": "uint256",
							"name": "amount",
							"type": "uint256"
						}
					],
					"name": "transfer",
					"outputs": [
						{
							"internalType": "bool",
							"name": "",
							"type": "bool"
						}
					],
					"stateMutability": "nonpayable",
					"type": "function"
				},
				{
					"inputs": [
						{
							"internalType": "address",
							"name": "sender",
							"type": "address"
						},
						{
							"internalType": "address",
							"name": "recipient",
							"type": "address"
						},
						{
							"internalType": "uint256",
							"name": "amount",
							"type": "uint256"
						}
					],
					"name": "transferFrom",
					"outputs": [
						{
							"internalType": "bool",
							"name": "",
							"type": "bool"
						}
					],
					"stateMutability": "nonpayable",
					"type": "function"
				},
				{
					"inputs": [
						{
							"internalType": "address",
							"name": "newOwner",
							"type": "address"
						}
					],
					"name": "transferOwnership",
					"outputs": [],
					"stateMutability": "nonpayable",
					"type": "function"
				},
				{
					"inputs": [
						{
							"internalType": "contract IERC20",
							"name": "",
							"type": "address"
						}
					],
					"name": "virtualBalancesForAddition",
					"outputs": [
						{
							"internalType": "uint216",
							"name": "balance",
							"type": "uint216"
						},
						{
							"internalType": "uint40",
							"name": "time",
							"type": "uint40"
						}
					],
					"stateMutability": "view",
					"type": "function"
				},
				{
					"inputs": [
						{
							"internalType": "contract IERC20",
							"name": "",
							"type": "address"
						}
					],
					"name": "virtualBalancesForRemoval",
					"outputs": [
						{
							"internalType": "uint216",
							"name": "balance",
							"type": "uint216"
						},
						{
							"internalType": "uint40",
							"name": "time",
							"type": "uint40"
						}
					],
					"stateMutability": "view",
					"type": "function"
				},
				{
					"inputs": [
						{
							"internalType": "contract IERC20",
							"name": "",
							"type": "address"
						}
					],
					"name": "volumes",
					"outputs": [
						{
							"internalType": "uint128",
							"name": "confirmed",
							"type": "uint128"
						},
						{
							"internalType": "uint128",
							"name": "result",
							"type": "uint128"
						}
					],
					"stateMutability": "view",
					"type": "function"
				},
				{
					"inputs": [
						{
							"internalType": "uint256",
							"name": "amount",
							"type": "uint256"
						},
						{
							"internalType": "uint256[]",
							"name": "minReturns",
							"type": "uint256[]"
						}
					],
					"name": "withdraw",
					"outputs": [],
					"stateMutability": "nonpayable",
					"type": "function"
				}
			],
			"devdoc": {
				"kind": "dev",
				"methods": {
					"allowance(address,address)": {
						"details": "See {IERC20-allowance}."
					},
					"approve(address,uint256)": {
						"details": "See {IERC20-approve}. Requirements: - `spender` cannot be the zero address."
					},
					"balanceOf(address)": {
						"details": "See {IERC20-balanceOf}."
					},
					"decimals()": {
						"details": "Returns the number of decimals used to get its user representation. For example, if `decimals` equals `2`, a balance of `505` tokens should be displayed to a user as `5,05` (`505 / 10 ** 2`). Tokens usually opt for a value of 18, imitating the relationship between Ether and Wei. This is the value {ERC20} uses, unless {_setupDecimals} is called. NOTE: This information is only used for _display_ purposes: it in no way affects any of the arithmetic of the contract, including {IERC20-balanceOf} and {IERC20-transfer}."
					},
					"decreaseAllowance(address,uint256)": {
						"details": "Atomically decreases the allowance granted to `spender` by the caller. This is an alternative to {approve} that can be used as a mitigation for problems described in {IERC20-approve}. Emits an {Approval} event indicating the updated allowance. Requirements: - `spender` cannot be the zero address. - `spender` must have allowance for the caller of at least `subtractedValue`."
					},
					"increaseAllowance(address,uint256)": {
						"details": "Atomically increases the allowance granted to `spender` by the caller. This is an alternative to {approve} that can be used as a mitigation for problems described in {IERC20-approve}. Emits an {Approval} event indicating the updated allowance. Requirements: - `spender` cannot be the zero address."
					},
					"name()": {
						"details": "Returns the name of the token."
					},
					"owner()": {
						"details": "Returns the address of the current owner."
					},
					"renounceOwnership()": {
						"details": "Leaves the contract without owner. It will not be possible to call `onlyOwner` functions anymore. Can only be called by the current owner. NOTE: Renouncing ownership will leave the contract without an owner, thereby removing any functionality that is only available to the owner."
					},
					"symbol()": {
						"details": "Returns the symbol of the token, usually a shorter version of the name."
					},
					"totalSupply()": {
						"details": "See {IERC20-totalSupply}."
					},
					"transfer(address,uint256)": {
						"details": "See {IERC20-transfer}. Requirements: - `recipient` cannot be the zero address. - the caller must have a balance of at least `amount`."
					},
					"transferFrom(address,address,uint256)": {
						"details": "See {IERC20-transferFrom}. Emits an {Approval} event indicating the updated allowance. This is not required by the EIP. See the note at the beginning of {ERC20}; Requirements: - `sender` and `recipient` cannot be the zero address. - `sender` must have a balance of at least `amount`. - the caller must have allowance for ``sender``'s tokens of at least `amount`."
					},
					"transferOwnership(address)": {
						"details": "Transfers ownership of the contract to a new account (`newOwner`). Can only be called by the current owner."
					}
				},
				"version": 1
			},
			"evm": {
				"assembly": "    /* \"contracts/Mooniswap.sol\":1561:11398  contract Mooniswap is ERC20, ReentrancyGuard, Ownable {... */\n  mstore(0x40, 0x80)\n    /* \"contracts/Mooniswap.sol\":2886:3452  constructor(IERC20[] memory assets, string memory name, string memory symbol) public ERC20(name, symbol) {... */\n  callvalue\n  dup1\n  iszero\n  tag_1\n  jumpi\n  0x00\n  dup1\n  revert\ntag_1:\n  pop\n  mload(0x40)\n  sub(codesize, bytecodeSize)\n  dup1\n  bytecodeSize\n  dup4\n  codecopy\n  dup2\n  dup2\n  add\n  0x40\n  mstore\n  0x60\n  dup2\n  lt\n  iszero\n  tag_2\n  jumpi\n  0x00\n  dup1\n  revert\ntag_2:\n  dup2\n  add\n  swap1\n  dup1\n  dup1\n  mload\n  mload(0x40)\n  swap4\n  swap3\n  swap2\n  swap1\n  dup5\n  0x0100000000\n  dup3\n  gt\n  iszero\n  tag_3\n  jumpi\n  0x00\n  dup1\n  revert\ntag_3:\n  swap1\n  dup4\n  add\n  swap1\n  0x20\n  dup3\n  add\n  dup6\n  dup2\n  gt\n  iszero\n  tag_4\n  jumpi\n  0x00\n  dup1\n  revert\ntag_4:\n  dup3\n  mload\n  dup7\n  0x20\n  dup3\n  mul\n  dup4\n  add\n  gt\n  0x0100000000\n  dup3\n  gt\n  or\n  iszero\n  tag_5\n  jumpi\n  0x00\n  dup1\n  revert\ntag_5:\n  dup3\n  mstore\n  pop\n  dup2\n  mload\n  0x20\n  swap2\n  dup3\n  add\n  swap3\n  dup3\n  add\n  swap2\n  mul\n  dup1\n  dup4\n  dup4\n  0x00\ntag_6:\n  dup4\n  dup2\n  lt\n  iszero\n  tag_8\n  jumpi\n  dup2\n  dup2\n  add\n  mload\n  dup4\n  dup3\n  add\n  mstore\n  0x20\n  add\n  jump(tag_6)\ntag_8:\n  pop\n  pop\n  pop\n  pop\n  swap1\n  pop\n  add\n  0x40\n  mstore\n  0x20\n  add\n  dup1\n  mload\n  mload(0x40)\n  swap4\n  swap3\n  swap2\n  swap1\n  dup5\n  0x0100000000\n  dup3\n  gt\n  iszero\n  tag_9\n  jumpi\n  0x00\n  dup1\n  revert\ntag_9:\n  swap1\n  dup4\n  add\n  swap1\n  0x20\n  dup3\n  add\n  dup6\n  dup2\n  gt\n  iszero\n  tag_10\n  jumpi\n  0x00\n  dup1\n  revert\ntag_10:\n  dup3\n  mload\n  0x0100000000\n  dup2\n  gt\n  dup3\n  dup3\n  add\n  dup9\n  lt\n  or\n  iszero\n  tag_11\n  jumpi\n  0x00\n  dup1\n  revert\ntag_11:\n  dup3\n  mstore\n  pop\n  dup2\n  mload\n  0x20\n  swap2\n  dup3\n  add\n  swap3\n  swap1\n  swap2\n  add\n  swap1\n  dup1\n  dup4\n  dup4\n  0x00\ntag_12:\n  dup4\n  dup2\n  lt\n  iszero\n  tag_14\n  jumpi\n  dup2\n  dup2\n  add\n  mload\n  dup4\n  dup3\n  add\n  mstore\n  0x20\n  add\n  jump(tag_12)\ntag_14:\n  pop\n  pop\n  pop\n  pop\n  swap1\n  pop\n  swap1\n  dup2\n  add\n  swap1\n  0x1f\n  and\n  dup1\n  iszero\n  tag_15\n  jumpi\n  dup1\n  dup3\n  sub\n  dup1\n  mload\n  0x01\n  dup4\n  0x20\n  sub\n  0x0100\n  exp\n  sub\n  not\n  and\n  dup2\n  mstore\n  0x20\n  add\n  swap2\n  pop\ntag_15:\n  pop\n  0x40\n  mstore\n  0x20\n  add\n  dup1\n  mload\n  mload(0x40)\n  swap4\n  swap3\n  swap2\n  swap1\n  dup5\n  0x0100000000\n  dup3\n  gt\n  iszero\n  tag_16\n  jumpi\n  0x00\n  dup1\n  revert\ntag_16:\n  swap1\n  dup4\n  add\n  swap1\n  0x20\n  dup3\n  add\n  dup6\n  dup2\n  gt\n  iszero\n  tag_17\n  jumpi\n  0x00\n  dup1\n  revert\ntag_17:\n  dup3\n  mload\n  0x0100000000\n  dup2\n  gt\n  dup3\n  dup3\n  add\n  dup9\n  lt\n  or\n  iszero\n  tag_18\n  jumpi\n  0x00\n  dup1\n  revert\ntag_18:\n  dup3\n  mstore\n  pop\n  dup2\n  mload\n  0x20\n  swap2\n  dup3\n  add\n  swap3\n  swap1\n  swap2\n  add\n  swap1\n  dup1\n  dup4\n  dup4\n  0x00\ntag_19:\n  dup4\n  dup2\n  lt\n  iszero\n  tag_21\n  jumpi\n  dup2\n  dup2\n  add\n  mload\n  dup4\n  dup3\n  add\n  mstore\n  0x20\n  add\n  jump(tag_19)\ntag_21:\n  pop\n  pop\n  pop\n  pop\n  swap1\n  pop\n  swap1\n  dup2\n  add\n  swap1\n  0x1f\n  and\n  dup1\n  iszero\n  tag_22\n  jumpi\n  dup1\n  dup3\n  sub\n  dup1\n  mload\n  0x01\n  dup4\n  0x20\n  sub\n  0x0100\n  exp\n  sub\n  not\n  and\n  dup2\n  mstore\n  0x20\n  add\n  swap2\n  pop\ntag_22:\n  pop\n  0x40\n  mstore\n  pop\n  pop\n    /* \"@openzeppelin/contracts/token/ERC20/ERC20.sol\":2085:2097  _name = name */\n  dup3\n  mload\n    /* \"contracts/Mooniswap.sol\":2977:2981  name */\n  dup4\n  swap2\n  pop\n    /* \"contracts/Mooniswap.sol\":2983:2989  symbol */\n  dup3\n  swap1\n    /* \"@openzeppelin/contracts/token/ERC20/ERC20.sol\":2085:2097  _name = name */\n  tag_28\n  swap1\n    /* \"@openzeppelin/contracts/token/ERC20/ERC20.sol\":2085:2090  _name */\n  0x03\n  swap1\n    /* \"@openzeppelin/contracts/token/ERC20/ERC20.sol\":2085:2097  _name = name */\n  0x20\n  dup6\n  add\n  swap1\n  tag_29\n  jump\t// in\ntag_28:\n  pop\n    /* \"@openzeppelin/contracts/token/ERC20/ERC20.sol\":2107:2123  _symbol = symbol */\n  dup1\n  mload\n  tag_30\n  swap1\n    /* \"@openzeppelin/contracts/token/ERC20/ERC20.sol\":2107:2114  _symbol */\n  0x04\n  swap1\n    /* \"@openzeppelin/contracts/token/ERC20/ERC20.sol\":2107:2123  _symbol = symbol */\n  0x20\n  dup5\n  add\n  swap1\n  tag_29\n  jump\t// in\ntag_30:\n  pop\n  pop\n    /* \"@openzeppelin/contracts/token/ERC20/ERC20.sol\":2133:2142  _decimals */\n  0x05\n    /* \"@openzeppelin/contracts/token/ERC20/ERC20.sol\":2133:2147  _decimals = 18 */\n  dup1\n  sload\n  not(0xff)\n  and\n    /* \"@openzeppelin/contracts/token/ERC20/ERC20.sol\":2145:2147  18 */\n  0x12\n    /* \"@openzeppelin/contracts/token/ERC20/ERC20.sol\":2133:2147  _decimals = 18 */\n  or\n  swap1\n  sstore\n  pop\n  0x01\n    /* \"@openzeppelin/contracts/utils/ReentrancyGuard.sol\":1743:1750  _status */\n  0x06\n    /* \"@openzeppelin/contracts/utils/ReentrancyGuard.sol\":1743:1765  _status = _NOT_ENTERED */\n  sstore\n    /* \"@openzeppelin/contracts/token/ERC20/ERC20.sol\":2133:2142  _decimals */\n  0x00\n    /* \"@openzeppelin/contracts/access/Ownable.sol\":885:897  _msgSender() */\n  tag_33\n    /* \"@openzeppelin/contracts/access/Ownable.sol\":885:895  _msgSender */\n  tag_34\n    /* \"@openzeppelin/contracts/access/Ownable.sol\":885:897  _msgSender() */\n  jump\t// in\ntag_33:\n    /* \"@openzeppelin/contracts/access/Ownable.sol\":907:913  _owner */\n  0x07\n    /* \"@openzeppelin/contracts/access/Ownable.sol\":907:925  _owner = msgSender */\n  dup1\n  sload\n  not(sub(shl(0xa0, 0x01), 0x01))\n  and\n  sub(shl(0xa0, 0x01), 0x01)\n  dup4\n  and\n  swap1\n  dup2\n  or\n  swap1\n  swap2\n  sstore\n    /* \"@openzeppelin/contracts/access/Ownable.sol\":940:983  OwnershipTransferred(address(0), msgSender) */\n  mload(0x40)\n    /* \"@openzeppelin/contracts/access/Ownable.sol\":907:925  _owner = msgSender */\n  swap2\n  swap3\n  pop\n  swap1\n  0x00\n  swap1\n    /* \"@openzeppelin/contracts/access/Ownable.sol\":940:983  OwnershipTransferred(address(0), msgSender) */\n  0x8be0079c531659141344cd1fd0a4f28419497f9722a3daafe3b4186f6b6457e0\n  swap1\n  dup3\n  swap1\n  log3\n    /* \"@openzeppelin/contracts/access/Ownable.sol\":831:990  constructor () internal {... */\n  pop\n    /* \"contracts/Mooniswap.sol\":3030:3031  0 */\n  0x00\n    /* \"contracts/Mooniswap.sol\":3015:3019  name */\n  dup3\n    /* \"contracts/Mooniswap.sol\":3009:3027  bytes(name).length */\n  mload\n    /* \"contracts/Mooniswap.sol\":3009:3031  bytes(name).length > 0 */\n  gt\n    /* \"contracts/Mooniswap.sol\":3001:3060  require(bytes(name).length > 0, \"Mooniswap: name is empty\") */\n  tag_36\n  jumpi\n  0x40\n  dup1\n  mload\n  shl(0xe5, 0x461bcd)\n  dup2\n  mstore\n  0x20\n  0x04\n  dup3\n  add\n  mstore\n  0x18\n  0x24\n  dup3\n  add\n  mstore\n  0x4d6f6f6e69737761703a206e616d6520697320656d7074790000000000000000\n  0x44\n  dup3\n  add\n  mstore\n  swap1\n  mload\n  swap1\n  dup2\n  swap1\n  sub\n  0x64\n  add\n  swap1\n  revert\ntag_36:\n    /* \"contracts/Mooniswap.sol\":3101:3102  0 */\n  0x00\n    /* \"contracts/Mooniswap.sol\":3084:3090  symbol */\n  dup2\n    /* \"contracts/Mooniswap.sol\":3078:3098  bytes(symbol).length */\n  mload\n    /* \"contracts/Mooniswap.sol\":3078:3102  bytes(symbol).length > 0 */\n  gt\n    /* \"contracts/Mooniswap.sol\":3070:3133  require(bytes(symbol).length > 0, \"Mooniswap: symbol is empty\") */\n  tag_37\n  jumpi\n  0x40\n  dup1\n  mload\n  shl(0xe5, 0x461bcd)\n  dup2\n  mstore\n  0x20\n  0x04\n  dup3\n  add\n  mstore\n  0x1a\n  0x24\n  dup3\n  add\n  mstore\n  0x4d6f6f6e69737761703a2073796d626f6c20697320656d707479000000000000\n  0x44\n  dup3\n  add\n  mstore\n  swap1\n  mload\n  swap1\n  dup2\n  swap1\n  sub\n  0x64\n  add\n  swap1\n  revert\ntag_37:\n    /* \"contracts/Mooniswap.sol\":3151:3157  assets */\n  dup3\n    /* \"contracts/Mooniswap.sol\":3151:3164  assets.length */\n  mload\n    /* \"contracts/Mooniswap.sol\":3168:3169  2 */\n  0x02\n    /* \"contracts/Mooniswap.sol\":3151:3169  assets.length == 2 */\n  eq\n    /* \"contracts/Mooniswap.sol\":3143:3206  require(assets.length == 2, \"Mooniswap: only 2 tokens allowed\") */\n  tag_38\n  jumpi\n  0x40\n  dup1\n  mload\n  shl(0xe5, 0x461bcd)\n  dup2\n  mstore\n  0x20\n  0x04\n  dup3\n  add\n  dup2\n  swap1\n  mstore\n  0x24\n  dup3\n  add\n  mstore\n  0x4d6f6f6e69737761703a206f6e6c79203220746f6b656e7320616c6c6f776564\n  0x44\n  dup3\n  add\n  mstore\n  swap1\n  mload\n  swap1\n  dup2\n  swap1\n  sub\n  0x64\n  add\n  swap1\n  revert\ntag_38:\n    /* \"contracts/Mooniswap.sol\":3217:3224  factory */\n  0x08\n    /* \"contracts/Mooniswap.sol\":3217:3247  factory = IFactory(msg.sender) */\n  dup1\n  sload\n  not(sub(shl(0xa0, 0x01), 0x01))\n  and\n    /* \"contracts/Mooniswap.sol\":3236:3246  msg.sender */\n  caller\n    /* \"contracts/Mooniswap.sol\":3217:3247  factory = IFactory(msg.sender) */\n  or\n  swap1\n  sstore\n    /* \"contracts/Mooniswap.sol\":3257:3272  tokens = assets */\n  dup3\n  mload\n  tag_39\n  swap1\n    /* \"contracts/Mooniswap.sol\":3257:3263  tokens */\n  0x09\n  swap1\n    /* \"contracts/Mooniswap.sol\":3257:3272  tokens = assets */\n  0x20\n  dup7\n  add\n  swap1\n  tag_40\n  jump\t// in\ntag_39:\n  pop\n    /* \"contracts/Mooniswap.sol\":3287:3293  uint i */\n  0x00\n    /* \"contracts/Mooniswap.sol\":3282:3446  for (uint i = 0; i < assets.length; i++) {... */\ntag_41:\n    /* \"contracts/Mooniswap.sol\":3303:3309  assets */\n  dup4\n    /* \"contracts/Mooniswap.sol\":3303:3316  assets.length */\n  mload\n    /* \"contracts/Mooniswap.sol\":3299:3300  i */\n  dup2\n    /* \"contracts/Mooniswap.sol\":3299:3316  i < assets.length */\n  lt\n    /* \"contracts/Mooniswap.sol\":3282:3446  for (uint i = 0; i < assets.length; i++) {... */\n  iszero\n  tag_42\n  jumpi\n    /* \"contracts/Mooniswap.sol\":3346:3353  isToken */\n  0x0a\n    /* \"contracts/Mooniswap.sol\":3346:3364  isToken[assets[i]] */\n  0x00\n    /* \"contracts/Mooniswap.sol\":3354:3360  assets */\n  dup6\n    /* \"contracts/Mooniswap.sol\":3361:3362  i */\n  dup4\n    /* \"contracts/Mooniswap.sol\":3354:3363  assets[i] */\n  dup2\n  mload\n  dup2\n  lt\n  tag_44\n  jumpi\n  invalid\ntag_44:\n  0x20\n  swap1\n  dup2\n  mul\n  swap2\n  swap1\n  swap2\n  add\n  dup2\n  add\n  mload\n  sub(shl(0xa0, 0x01), 0x01)\n    /* \"contracts/Mooniswap.sol\":3346:3364  isToken[assets[i]] */\n  and\n  dup3\n  mstore\n  dup2\n  add\n  swap2\n  swap1\n  swap2\n  mstore\n  0x40\n  add\n  0x00\n  keccak256\n  sload\n  0xff\n  and\n    /* \"contracts/Mooniswap.sol\":3345:3364  !isToken[assets[i]] */\n  iszero\n    /* \"contracts/Mooniswap.sol\":3337:3396  require(!isToken[assets[i]], \"Mooniswap: duplicate tokens\") */\n  tag_45\n  jumpi\n  0x40\n  dup1\n  mload\n  shl(0xe5, 0x461bcd)\n  dup2\n  mstore\n  0x20\n  0x04\n  dup3\n  add\n  mstore\n  0x1b\n  0x24\n  dup3\n  add\n  mstore\n  0x4d6f6f6e69737761703a206475706c696361746520746f6b656e730000000000\n  0x44\n  dup3\n  add\n  mstore\n  swap1\n  mload\n  swap1\n  dup2\n  swap1\n  sub\n  0x64\n  add\n  swap1\n  revert\ntag_45:\n    /* \"contracts/Mooniswap.sol\":3431:3435  true */\n  0x01\n    /* \"contracts/Mooniswap.sol\":3410:3417  isToken */\n  0x0a\n    /* \"contracts/Mooniswap.sol\":3410:3428  isToken[assets[i]] */\n  0x00\n    /* \"contracts/Mooniswap.sol\":3418:3424  assets */\n  dup7\n    /* \"contracts/Mooniswap.sol\":3425:3426  i */\n  dup5\n    /* \"contracts/Mooniswap.sol\":3418:3427  assets[i] */\n  dup2\n  mload\n  dup2\n  lt\n  tag_46\n  jumpi\n  invalid\ntag_46:\n  0x20\n  swap1\n  dup2\n  mul\n  swap2\n  swap1\n  swap2\n  add\n  dup2\n  add\n  mload\n  sub(shl(0xa0, 0x01), 0x01)\n    /* \"contracts/Mooniswap.sol\":3410:3428  isToken[assets[i]] */\n  and\n  dup3\n  mstore\n  dup2\n  add\n  swap2\n  swap1\n  swap2\n  mstore\n  0x40\n  add\n  0x00\n  keccak256\n    /* \"contracts/Mooniswap.sol\":3410:3435  isToken[assets[i]] = true */\n  dup1\n  sload\n  not(0xff)\n  and\n  swap2\n  iszero\n  iszero\n  swap2\n  swap1\n  swap2\n  or\n  swap1\n  sstore\n  0x01\n    /* \"contracts/Mooniswap.sol\":3318:3321  i++ */\n  add\n    /* \"contracts/Mooniswap.sol\":3282:3446  for (uint i = 0; i < assets.length; i++) {... */\n  jump(tag_41)\ntag_42:\n  pop\n    /* \"contracts/Mooniswap.sol\":2886:3452  constructor(IERC20[] memory assets, string memory name, string memory symbol) public ERC20(name, symbol) {... */\n  pop\n  pop\n  pop\n    /* \"contracts/Mooniswap.sol\":1561:11398  contract Mooniswap is ERC20, ReentrancyGuard, Ownable {... */\n  jump(tag_47)\n    /* \"@openzeppelin/contracts/GSN/Context.sol\":590:694  function _msgSender() internal view virtual returns (address payable) {... */\ntag_34:\n    /* \"@openzeppelin/contracts/GSN/Context.sol\":677:687  msg.sender */\n  caller\n    /* \"@openzeppelin/contracts/GSN/Context.sol\":590:694  function _msgSender() internal view virtual returns (address payable) {... */\n  swap1\n  jump\t// out\n    /* \"contracts/Mooniswap.sol\":1561:11398  contract Mooniswap is ERC20, ReentrancyGuard, Ownable {... */\ntag_29:\n  dup3\n  dup1\n  sload\n  0x01\n  dup2\n  0x01\n  and\n  iszero\n  0x0100\n  mul\n  sub\n  and\n  0x02\n  swap1\n  div\n  swap1\n  0x00\n  mstore\n  keccak256(0x00, 0x20)\n  swap1\n  0x1f\n  add\n  0x20\n  swap1\n  div\n  dup2\n  add\n  swap3\n  dup3\n  0x1f\n  lt\n  tag_50\n  jumpi\n  dup1\n  mload\n  not(0xff)\n  and\n  dup4\n  dup1\n  add\n  or\n  dup6\n  sstore\n  jump(tag_52)\ntag_50:\n  dup3\n  dup1\n  add\n  0x01\n  add\n  dup6\n  sstore\n  dup3\n  iszero\n  tag_52\n  jumpi\n  swap2\n  dup3\n  add\ntag_51:\n  dup3\n  dup2\n  gt\n  iszero\n  tag_52\n  jumpi\n  dup3\n  mload\n  dup3\n  sstore\n  swap2\n  0x20\n  add\n  swap2\n  swap1\n  0x01\n  add\n  swap1\n  jump(tag_51)\ntag_52:\n  pop\n  tag_53\n  swap3\n  swap2\n  pop\n  tag_54\n  jump\t// in\ntag_53:\n  pop\n  swap1\n  jump\t// out\ntag_40:\n  dup3\n  dup1\n  sload\n  dup3\n  dup3\n  sstore\n  swap1\n  0x00\n  mstore\n  keccak256(0x00, 0x20)\n  swap1\n  dup2\n  add\n  swap3\n  dup3\n  iszero\n  tag_57\n  jumpi\n  swap2\n  0x20\n  mul\n  dup3\n  add\ntag_56:\n  dup3\n  dup2\n  gt\n  iszero\n  tag_57\n  jumpi\n  dup3\n  mload\n  dup3\n  sload\n  not(sub(shl(0xa0, 0x01), 0x01))\n  and\n  sub(shl(0xa0, 0x01), 0x01)\n  swap1\n  swap2\n  and\n  or\n  dup3\n  sstore\n  0x20\n  swap1\n  swap3\n  add\n  swap2\n  0x01\n  swap1\n  swap2\n  add\n  swap1\n  jump(tag_56)\ntag_57:\n  pop\n  tag_53\n  swap3\n  swap2\n  pop\n  tag_59\n  jump\t// in\ntag_54:\ntag_60:\n  dup1\n  dup3\n  gt\n  iszero\n  tag_53\n  jumpi\n  0x00\n  dup2\n  sstore\n  0x01\n  add\n  jump(tag_60)\ntag_59:\ntag_62:\n  dup1\n  dup3\n  gt\n  iszero\n  tag_53\n  jumpi\n  dup1\n  sload\n  not(sub(shl(0xa0, 0x01), 0x01))\n  and\n  dup2\n  sstore\n  0x01\n  add\n  jump(tag_62)\ntag_47:\n  dataSize(sub_0)\n  dup1\n  dataOffset(sub_0)\n  0x00\n  codecopy\n  0x00\n  return\nstop\n\nsub_0: assembly {\n        /* \"contracts/Mooniswap.sol\":1561:11398  contract Mooniswap is ERC20, ReentrancyGuard, Ownable {... */\n      mstore(0x40, 0x80)\n      jumpi(tag_1, lt(calldatasize, 0x04))\n      shr(0xe0, calldataload(0x00))\n      dup1\n      0x8da5cb5b\n      gt\n      tag_35\n      jumpi\n      dup1\n      0xc45a0155\n      gt\n      tag_36\n      jumpi\n      dup1\n      0xdd62ed3e\n      gt\n      tag_37\n      jumpi\n      dup1\n      0xdd62ed3e\n      eq\n      tag_30\n      jumpi\n      dup1\n      0xddca3f43\n      eq\n      tag_31\n      jumpi\n      dup1\n      0xe7ff42c9\n      eq\n      tag_32\n      jumpi\n      dup1\n      0xf223885a\n      eq\n      tag_33\n      jumpi\n      dup1\n      0xf2fde38b\n      eq\n      tag_34\n      jumpi\n      jump(tag_1)\n    tag_37:\n      dup1\n      0xc45a0155\n      eq\n      tag_26\n      jumpi\n      dup1\n      0xd5bcb9b5\n      eq\n      tag_27\n      jumpi\n      dup1\n      0xd73792a9\n      eq\n      tag_28\n      jumpi\n      dup1\n      0xd7d3aab5\n      eq\n      tag_29\n      jumpi\n      jump(tag_1)\n    tag_36:\n      dup1\n      0xaa6ca808\n      gt\n      tag_38\n      jumpi\n      dup1\n      0xaa6ca808\n      eq\n      tag_22\n      jumpi\n      dup1\n      0xb1ec4c40\n      eq\n      tag_23\n      jumpi\n      dup1\n      0xb21b5a21\n      eq\n      tag_24\n      jumpi\n      dup1\n      0xbaf13a0a\n      eq\n      tag_25\n      jumpi\n      jump(tag_1)\n    tag_38:\n      dup1\n      0x8da5cb5b\n      eq\n      tag_18\n      jumpi\n      dup1\n      0x95d89b41\n      eq\n      tag_19\n      jumpi\n      dup1\n      0xa457c2d7\n      eq\n      tag_20\n      jumpi\n      dup1\n      0xa9059cbb\n      eq\n      tag_21\n      jumpi\n      jump(tag_1)\n    tag_35:\n      dup1\n      0x48d67e1b\n      gt\n      tag_39\n      jumpi\n      dup1\n      0x6edc2c09\n      gt\n      tag_40\n      jumpi\n      dup1\n      0x6edc2c09\n      eq\n      tag_14\n      jumpi\n      dup1\n      0x70a08231\n      eq\n      tag_15\n      jumpi\n      dup1\n      0x715018a6\n      eq\n      tag_16\n      jumpi\n      dup1\n      0x78e3214f\n      eq\n      tag_17\n      jumpi\n      jump(tag_1)\n    tag_40:\n      dup1\n      0x48d67e1b\n      eq\n      tag_10\n      jumpi\n      dup1\n      0x4f64b2be\n      eq\n      tag_11\n      jumpi\n      dup1\n      0x5915d806\n      eq\n      tag_12\n      jumpi\n      dup1\n      0x5ed9156d\n      eq\n      tag_13\n      jumpi\n      jump(tag_1)\n    tag_39:\n      dup1\n      0x1e1401f8\n      gt\n      tag_41\n      jumpi\n      dup1\n      0x1e1401f8\n      eq\n      tag_6\n      jumpi\n      dup1\n      0x23b872dd\n      eq\n      tag_7\n      jumpi\n      dup1\n      0x313ce567\n      eq\n      tag_8\n      jumpi\n      dup1\n      0x39509351\n      eq\n      tag_9\n      jumpi\n      jump(tag_1)\n    tag_41:\n      dup1\n      0x06fdde03\n      eq\n      tag_2\n      jumpi\n      dup1\n      0x095ea7b3\n      eq\n      tag_3\n      jumpi\n      dup1\n      0x18160ddd\n      eq\n      tag_4\n      jumpi\n      dup1\n      0x19f37361\n      eq\n      tag_5\n      jumpi\n    tag_1:\n      0x00\n      dup1\n      revert\n        /* \"@openzeppelin/contracts/token/ERC20/ERC20.sol\":2219:2300  function name() public view returns (string memory) {... */\n    tag_2:\n      callvalue\n      dup1\n      iszero\n      tag_42\n      jumpi\n      0x00\n      dup1\n      revert\n    tag_42:\n      pop\n      tag_43\n      tag_44\n      jump\t// in\n    tag_43:\n      0x40\n      dup1\n      mload\n      0x20\n      dup1\n      dup3\n      mstore\n      dup4\n      mload\n      dup2\n      dup4\n      add\n      mstore\n      dup4\n      mload\n      swap2\n      swap3\n      dup4\n      swap3\n      swap1\n      dup4\n      add\n      swap2\n      dup6\n      add\n      swap1\n      dup1\n      dup4\n      dup4\n      0x00\n    tag_45:\n      dup4\n      dup2\n      lt\n      iszero\n      tag_47\n      jumpi\n      dup2\n      dup2\n      add\n      mload\n      dup4\n      dup3\n      add\n      mstore\n      0x20\n      add\n      jump(tag_45)\n    tag_47:\n      pop\n      pop\n      pop\n      pop\n      swap1\n      pop\n      swap1\n      dup2\n      add\n      swap1\n      0x1f\n      and\n      dup1\n      iszero\n      tag_48\n      jumpi\n      dup1\n      dup3\n      sub\n      dup1\n      mload\n      0x01\n      dup4\n      0x20\n      sub\n      0x0100\n      exp\n      sub\n      not\n      and\n      dup2\n      mstore\n      0x20\n      add\n      swap2\n      pop\n    tag_48:\n      pop\n      swap3\n      pop\n      pop\n      pop\n      mload(0x40)\n      dup1\n      swap2\n      sub\n      swap1\n      return\n        /* \"@openzeppelin/contracts/token/ERC20/ERC20.sol\":4255:4421  function approve(address spender, uint256 amount) public virtual override returns (bool) {... */\n    tag_3:\n      callvalue\n      dup1\n      iszero\n      tag_49\n      jumpi\n      0x00\n      dup1\n      revert\n    tag_49:\n      pop\n      tag_50\n      0x04\n      dup1\n      calldatasize\n      sub\n      0x40\n      dup2\n      lt\n      iszero\n      tag_51\n      jumpi\n      0x00\n      dup1\n      revert\n    tag_51:\n      pop\n      sub(shl(0xa0, 0x01), 0x01)\n      dup2\n      calldataload\n      and\n      swap1\n      0x20\n      add\n      calldataload\n      tag_52\n      jump\t// in\n    tag_50:\n      0x40\n      dup1\n      mload\n      swap2\n      iszero\n      iszero\n      dup3\n      mstore\n      mload\n      swap1\n      dup2\n      swap1\n      sub\n      0x20\n      add\n      swap1\n      return\n        /* \"@openzeppelin/contracts/token/ERC20/ERC20.sol\":3262:3360  function totalSupply() public view override returns (uint256) {... */\n    tag_4:\n      callvalue\n      dup1\n      iszero\n      tag_53\n      jumpi\n      0x00\n      dup1\n      revert\n    tag_53:\n      pop\n      tag_54\n      tag_55\n      jump\t// in\n    tag_54:\n      0x40\n      dup1\n      mload\n      swap2\n      dup3\n      mstore\n      mload\n      swap1\n      dup2\n      swap1\n      sub\n      0x20\n      add\n      swap1\n      return\n        /* \"contracts/Mooniswap.sol\":2635:2673  mapping(IERC20 => bool) public isToken */\n    tag_5:\n      callvalue\n      dup1\n      iszero\n      tag_56\n      jumpi\n      0x00\n      dup1\n      revert\n    tag_56:\n      pop\n      tag_50\n      0x04\n      dup1\n      calldatasize\n      sub\n      0x20\n      dup2\n      lt\n      iszero\n      tag_58\n      jumpi\n      0x00\n      dup1\n      revert\n    tag_58:\n      pop\n      calldataload\n      sub(shl(0xa0, 0x01), 0x01)\n      and\n      tag_59\n      jump\t// in\n        /* \"contracts/Mooniswap.sol\":4218:4415  function getReturn(IERC20 src, IERC20 dst, uint256 amount) external view returns(uint256) {... */\n    tag_6:\n      callvalue\n      dup1\n      iszero\n      tag_60\n      jumpi\n      0x00\n      dup1\n      revert\n    tag_60:\n      pop\n      tag_54\n      0x04\n      dup1\n      calldatasize\n      sub\n      0x60\n      dup2\n      lt\n      iszero\n      tag_62\n      jumpi\n      0x00\n      dup1\n      revert\n    tag_62:\n      pop\n      sub(shl(0xa0, 0x01), 0x01)\n      dup2\n      calldataload\n      dup2\n      and\n      swap2\n      0x20\n      dup2\n      add\n      calldataload\n      swap1\n      swap2\n      and\n      swap1\n      0x40\n      add\n      calldataload\n      tag_63\n      jump\t// in\n        /* \"@openzeppelin/contracts/token/ERC20/ERC20.sol\":4881:5198  function transferFrom(address sender, address recipient, uint256 amount) public virtual override returns (bool) {... */\n    tag_7:\n      callvalue\n      dup1\n      iszero\n      tag_64\n      jumpi\n      0x00\n      dup1\n      revert\n    tag_64:\n      pop\n      tag_50\n      0x04\n      dup1\n      calldatasize\n      sub\n      0x60\n      dup2\n      lt\n      iszero\n      tag_66\n      jumpi\n      0x00\n      dup1\n      revert\n    tag_66:\n      pop\n      sub(shl(0xa0, 0x01), 0x01)\n      dup2\n      calldataload\n      dup2\n      and\n      swap2\n      0x20\n      dup2\n      add\n      calldataload\n      swap1\n      swap2\n      and\n      swap1\n      0x40\n      add\n      calldataload\n      tag_67\n      jump\t// in\n        /* \"@openzeppelin/contracts/token/ERC20/ERC20.sol\":3121:3202  function decimals() public view returns (uint8) {... */\n    tag_8:\n      callvalue\n      dup1\n      iszero\n      tag_68\n      jumpi\n      0x00\n      dup1\n      revert\n    tag_68:\n      pop\n      tag_69\n      tag_70\n      jump\t// in\n    tag_69:\n      0x40\n      dup1\n      mload\n      0xff\n      swap1\n      swap3\n      and\n      dup3\n      mstore\n      mload\n      swap1\n      dup2\n      swap1\n      sub\n      0x20\n      add\n      swap1\n      return\n        /* \"@openzeppelin/contracts/token/ERC20/ERC20.sol\":5593:5808  function increaseAllowance(address spender, uint256 addedValue) public virtual returns (bool) {... */\n    tag_9:\n      callvalue\n      dup1\n      iszero\n      tag_71\n      jumpi\n      0x00\n      dup1\n      revert\n    tag_71:\n      pop\n      tag_50\n      0x04\n      dup1\n      calldatasize\n      sub\n      0x40\n      dup2\n      lt\n      iszero\n      tag_73\n      jumpi\n      0x00\n      dup1\n      revert\n    tag_73:\n      pop\n      sub(shl(0xa0, 0x01), 0x01)\n      dup2\n      calldataload\n      and\n      swap1\n      0x20\n      add\n      calldataload\n      tag_74\n      jump\t// in\n        /* \"contracts/Mooniswap.sol\":3641:3746  function decayPeriod() external pure returns(uint256) {... */\n    tag_10:\n      callvalue\n      dup1\n      iszero\n      tag_75\n      jumpi\n      0x00\n      dup1\n      revert\n    tag_75:\n      pop\n      tag_54\n      tag_77\n      jump\t// in\n        /* \"contracts/Mooniswap.sol\":2607:2629  IERC20[] public tokens */\n    tag_11:\n      callvalue\n      dup1\n      iszero\n      tag_78\n      jumpi\n      0x00\n      dup1\n      revert\n    tag_78:\n      pop\n      tag_79\n      0x04\n      dup1\n      calldatasize\n      sub\n      0x20\n      dup2\n      lt\n      iszero\n      tag_80\n      jumpi\n      0x00\n      dup1\n      revert\n    tag_80:\n      pop\n      calldataload\n      tag_81\n      jump\t// in\n    tag_79:\n      0x40\n      dup1\n      mload\n      sub(shl(0xa0, 0x01), 0x01)\n      swap1\n      swap3\n      and\n      dup3\n      mstore\n      mload\n      swap1\n      dup2\n      swap1\n      sub\n      0x20\n      add\n      swap1\n      return\n        /* \"contracts/Mooniswap.sol\":7016:7833  function withdraw(uint256 amount, uint256[] memory minReturns) external nonReentrant {... */\n    tag_12:\n      callvalue\n      dup1\n      iszero\n      tag_82\n      jumpi\n      0x00\n      dup1\n      revert\n    tag_82:\n      pop\n      tag_83\n      0x04\n      dup1\n      calldatasize\n      sub\n      0x40\n      dup2\n      lt\n      iszero\n      tag_84\n      jumpi\n      0x00\n      dup1\n      revert\n    tag_84:\n      dup2\n      calldataload\n      swap2\n      swap1\n      dup2\n      add\n      swap1\n      0x40\n      dup2\n      add\n      0x20\n      dup3\n      add\n      calldataload\n      0x0100000000\n      dup2\n      gt\n      iszero\n      tag_85\n      jumpi\n      0x00\n      dup1\n      revert\n    tag_85:\n      dup3\n      add\n      dup4\n      0x20\n      dup3\n      add\n      gt\n      iszero\n      tag_86\n      jumpi\n      0x00\n      dup1\n      revert\n    tag_86:\n      dup1\n      calldataload\n      swap1\n      0x20\n      add\n      swap2\n      dup5\n      0x20\n      dup4\n      mul\n      dup5\n      add\n      gt\n      0x0100000000\n      dup4\n      gt\n      or\n      iszero\n      tag_87\n      jumpi\n      0x00\n      dup1\n      revert\n    tag_87:\n      swap2\n      swap1\n      dup1\n      dup1\n      0x20\n      mul\n      0x20\n      add\n      mload(0x40)\n      swap1\n      dup2\n      add\n      0x40\n      mstore\n      dup1\n      swap4\n      swap3\n      swap2\n      swap1\n      dup2\n      dup2\n      mstore\n      0x20\n      add\n      dup4\n      dup4\n      0x20\n      mul\n      dup1\n      dup3\n      dup5\n      calldatacopy\n      0x00\n      swap3\n      add\n      swap2\n      swap1\n      swap2\n      mstore\n      pop\n      swap3\n      swap6\n      pop\n      tag_88\n      swap5\n      pop\n      pop\n      pop\n      pop\n      pop\n      jump\t// in\n    tag_83:\n      stop\n        /* \"contracts/Mooniswap.sol\":2808:2879  mapping(IERC20 => VirtualBalance.Data) public virtualBalancesForRemoval */\n    tag_13:\n      callvalue\n      dup1\n      iszero\n      tag_89\n      jumpi\n      0x00\n      dup1\n      revert\n    tag_89:\n      pop\n      tag_90\n      0x04\n      dup1\n      calldatasize\n      sub\n      0x20\n      dup2\n      lt\n      iszero\n      tag_91\n      jumpi\n      0x00\n      dup1\n      revert\n    tag_91:\n      pop\n      calldataload\n      sub(shl(0xa0, 0x01), 0x01)\n      and\n      tag_92\n      jump\t// in\n    tag_90:\n      0x40\n      dup1\n      mload\n      sub(shl(0xd8, 0x01), 0x01)\n      swap1\n      swap4\n      and\n      dup4\n      mstore\n      0xffffffffff\n      swap1\n      swap2\n      and\n      0x20\n      dup4\n      add\n      mstore\n      dup1\n      mload\n      swap2\n      dup3\n      swap1\n      sub\n      add\n      swap1\n      return\n        /* \"contracts/Mooniswap.sol\":2730:2802  mapping(IERC20 => VirtualBalance.Data) public virtualBalancesForAddition */\n    tag_14:\n      callvalue\n      dup1\n      iszero\n      tag_93\n      jumpi\n      0x00\n      dup1\n      revert\n    tag_93:\n      pop\n      tag_90\n      0x04\n      dup1\n      calldatasize\n      sub\n      0x20\n      dup2\n      lt\n      iszero\n      tag_95\n      jumpi\n      0x00\n      dup1\n      revert\n    tag_95:\n      pop\n      calldataload\n      sub(shl(0xa0, 0x01), 0x01)\n      and\n      tag_96\n      jump\t// in\n        /* \"@openzeppelin/contracts/token/ERC20/ERC20.sol\":3418:3535  function balanceOf(address account) public view override returns (uint256) {... */\n    tag_15:\n      callvalue\n      dup1\n      iszero\n      tag_97\n      jumpi\n      0x00\n      dup1\n      revert\n    tag_97:\n      pop\n      tag_54\n      0x04\n      dup1\n      calldatasize\n      sub\n      0x20\n      dup2\n      lt\n      iszero\n      tag_99\n      jumpi\n      0x00\n      dup1\n      revert\n    tag_99:\n      pop\n      calldataload\n      sub(shl(0xa0, 0x01), 0x01)\n      and\n      tag_100\n      jump\t// in\n        /* \"@openzeppelin/contracts/access/Ownable.sol\":1689:1834  function renounceOwnership() public virtual onlyOwner {... */\n    tag_16:\n      callvalue\n      dup1\n      iszero\n      tag_101\n      jumpi\n      0x00\n      dup1\n      revert\n    tag_101:\n      pop\n      tag_83\n      tag_103\n      jump\t// in\n        /* \"contracts/Mooniswap.sol\":10418:11003  function rescueFunds(IERC20 token, uint256 amount) external nonReentrant onlyOwner {... */\n    tag_17:\n      callvalue\n      dup1\n      iszero\n      tag_104\n      jumpi\n      0x00\n      dup1\n      revert\n    tag_104:\n      pop\n      tag_83\n      0x04\n      dup1\n      calldatasize\n      sub\n      0x40\n      dup2\n      lt\n      iszero\n      tag_106\n      jumpi\n      0x00\n      dup1\n      revert\n    tag_106:\n      pop\n      sub(shl(0xa0, 0x01), 0x01)\n      dup2\n      calldataload\n      and\n      swap1\n      0x20\n      add\n      calldataload\n      tag_107\n      jump\t// in\n        /* \"@openzeppelin/contracts/access/Ownable.sol\":1066:1143  function owner() public view returns (address) {... */\n    tag_18:\n      callvalue\n      dup1\n      iszero\n      tag_108\n      jumpi\n      0x00\n      dup1\n      revert\n    tag_108:\n      pop\n      tag_79\n      tag_110\n      jump\t// in\n        /* \"@openzeppelin/contracts/token/ERC20/ERC20.sol\":2413:2498  function symbol() public view returns (string memory) {... */\n    tag_19:\n      callvalue\n      dup1\n      iszero\n      tag_111\n      jumpi\n      0x00\n      dup1\n      revert\n    tag_111:\n      pop\n      tag_43\n      tag_113\n      jump\t// in\n        /* \"@openzeppelin/contracts/token/ERC20/ERC20.sol\":6295:6561  function decreaseAllowance(address spender, uint256 subtractedValue) public virtual returns (bool) {... */\n    tag_20:\n      callvalue\n      dup1\n      iszero\n      tag_118\n      jumpi\n      0x00\n      dup1\n      revert\n    tag_118:\n      pop\n      tag_50\n      0x04\n      dup1\n      calldatasize\n      sub\n      0x40\n      dup2\n      lt\n      iszero\n      tag_120\n      jumpi\n      0x00\n      dup1\n      revert\n    tag_120:\n      pop\n      sub(shl(0xa0, 0x01), 0x01)\n      dup2\n      calldataload\n      and\n      swap1\n      0x20\n      add\n      calldataload\n      tag_121\n      jump\t// in\n        /* \"@openzeppelin/contracts/token/ERC20/ERC20.sol\":3738:3910  function transfer(address recipient, uint256 amount) public virtual override returns (bool) {... */\n    tag_21:\n      callvalue\n      dup1\n      iszero\n      tag_122\n      jumpi\n      0x00\n      dup1\n      revert\n    tag_122:\n      pop\n      tag_50\n      0x04\n      dup1\n      calldatasize\n      sub\n      0x40\n      dup2\n      lt\n      iszero\n      tag_124\n      jumpi\n      0x00\n      dup1\n      revert\n    tag_124:\n      pop\n      sub(shl(0xa0, 0x01), 0x01)\n      dup2\n      calldataload\n      and\n      swap1\n      0x20\n      add\n      calldataload\n      tag_125\n      jump\t// in\n        /* \"contracts/Mooniswap.sol\":3545:3635  function getTokens() external view returns(IERC20[] memory) {... */\n    tag_22:\n      callvalue\n      dup1\n      iszero\n      tag_126\n      jumpi\n      0x00\n      dup1\n      revert\n    tag_126:\n      pop\n      tag_127\n      tag_128\n      jump\t// in\n    tag_127:\n      0x40\n      dup1\n      mload\n      0x20\n      dup1\n      dup3\n      mstore\n      dup4\n      mload\n      dup2\n      dup4\n      add\n      mstore\n      dup4\n      mload\n      swap2\n      swap3\n      dup4\n      swap3\n      swap1\n      dup4\n      add\n      swap2\n      dup6\n      dup2\n      add\n      swap2\n      mul\n      dup1\n      dup4\n      dup4\n      0x00\n    tag_129:\n      dup4\n      dup2\n      lt\n      iszero\n      tag_131\n      jumpi\n      dup2\n      dup2\n      add\n      mload\n      dup4\n      dup3\n      add\n      mstore\n      0x20\n      add\n      jump(tag_129)\n    tag_131:\n      pop\n      pop\n      pop\n      pop\n      swap1\n      pop\n      add\n      swap3\n      pop\n      pop\n      pop\n      mload(0x40)\n      dup1\n      swap2\n      sub\n      swap1\n      return\n        /* \"contracts/Mooniswap.sol\":2679:2724  mapping(IERC20 => SwapVolumes) public volumes */\n    tag_23:\n      callvalue\n      dup1\n      iszero\n      tag_132\n      jumpi\n      0x00\n      dup1\n      revert\n    tag_132:\n      pop\n      tag_133\n      0x04\n      dup1\n      calldatasize\n      sub\n      0x20\n      dup2\n      lt\n      iszero\n      tag_134\n      jumpi\n      0x00\n      dup1\n      revert\n    tag_134:\n      pop\n      calldataload\n      sub(shl(0xa0, 0x01), 0x01)\n      and\n      tag_135\n      jump\t// in\n    tag_133:\n      mload(0x40)\n      dup1\n      dup4\n      sub(shl(0x80, 0x01), 0x01)\n      and\n      dup2\n      mstore\n      0x20\n      add\n      dup3\n      sub(shl(0x80, 0x01), 0x01)\n      and\n      dup2\n      mstore\n      0x20\n      add\n      swap3\n      pop\n      pop\n      pop\n      mload(0x40)\n      dup1\n      swap2\n      sub\n      swap1\n      return\n        /* \"contracts/Mooniswap.sol\":2363:2406  uint256 public constant REFERRAL_SHARE = 20 */\n    tag_24:\n      callvalue\n      dup1\n      iszero\n      tag_136\n      jumpi\n      0x00\n      dup1\n      revert\n    tag_136:\n      pop\n      tag_54\n      tag_138\n      jump\t// in\n        /* \"contracts/Mooniswap.sol\":2443:2485  uint256 public constant BASE_SUPPLY = 1000 */\n    tag_25:\n      callvalue\n      dup1\n      iszero\n      tag_139\n      jumpi\n      0x00\n      dup1\n      revert\n    tag_139:\n      pop\n      tag_54\n      tag_141\n      jump\t// in\n        /* \"contracts/Mooniswap.sol\":2578:2601  IFactory public factory */\n    tag_26:\n      callvalue\n      dup1\n      iszero\n      tag_142\n      jumpi\n      0x00\n      dup1\n      revert\n    tag_142:\n      pop\n      tag_79\n      tag_144\n      jump\t// in\n        /* \"contracts/Mooniswap.sol\":7839:10412  function swap(IERC20 src, IERC20 dst, uint256 amount, uint256 minReturn, address referral) external payable nonReentrant returns(uint256 result) {... */\n    tag_27:\n      tag_54\n      0x04\n      dup1\n      calldatasize\n      sub\n      0xa0\n      dup2\n      lt\n      iszero\n      tag_146\n      jumpi\n      0x00\n      dup1\n      revert\n    tag_146:\n      pop\n      sub(shl(0xa0, 0x01), 0x01)\n      dup2\n      calldataload\n      dup2\n      and\n      swap2\n      0x20\n      dup2\n      add\n      calldataload\n      dup3\n      and\n      swap2\n      0x40\n      dup3\n      add\n      calldataload\n      swap2\n      0x60\n      dup2\n      add\n      calldataload\n      swap2\n      0x80\n      swap1\n      swap2\n      add\n      calldataload\n      and\n      tag_147\n      jump\t// in\n        /* \"contracts/Mooniswap.sol\":2525:2571  uint256 public constant FEE_DENOMINATOR = 1e18 */\n    tag_28:\n      callvalue\n      dup1\n      iszero\n      tag_148\n      jumpi\n      0x00\n      dup1\n      revert\n    tag_148:\n      pop\n      tag_54\n      tag_150\n      jump\t// in\n        /* \"contracts/Mooniswap.sol\":3752:3980  function getBalanceForAddition(IERC20 token) public view returns(uint256) {... */\n    tag_29:\n      callvalue\n      dup1\n      iszero\n      tag_151\n      jumpi\n      0x00\n      dup1\n      revert\n    tag_151:\n      pop\n      tag_54\n      0x04\n      dup1\n      calldatasize\n      sub\n      0x20\n      dup2\n      lt\n      iszero\n      tag_153\n      jumpi\n      0x00\n      dup1\n      revert\n    tag_153:\n      pop\n      calldataload\n      sub(shl(0xa0, 0x01), 0x01)\n      and\n      tag_154\n      jump\t// in\n        /* \"@openzeppelin/contracts/token/ERC20/ERC20.sol\":3968:4117  function allowance(address owner, address spender) public view virtual override returns (uint256) {... */\n    tag_30:\n      callvalue\n      dup1\n      iszero\n      tag_155\n      jumpi\n      0x00\n      dup1\n      revert\n    tag_155:\n      pop\n      tag_54\n      0x04\n      dup1\n      calldatasize\n      sub\n      0x40\n      dup2\n      lt\n      iszero\n      tag_157\n      jumpi\n      0x00\n      dup1\n      revert\n    tag_157:\n      pop\n      sub(shl(0xa0, 0x01), 0x01)\n      dup2\n      calldataload\n      dup2\n      and\n      swap2\n      0x20\n      add\n      calldataload\n      and\n      tag_158\n      jump\t// in\n        /* \"contracts/Mooniswap.sol\":3458:3539  function fee() public view returns(uint256) {... */\n    tag_31:\n      callvalue\n      dup1\n      iszero\n      tag_159\n      jumpi\n      0x00\n      dup1\n      revert\n    tag_159:\n      pop\n      tag_54\n      tag_161\n      jump\t// in\n        /* \"contracts/Mooniswap.sol\":3986:4212  function getBalanceForRemoval(IERC20 token) public view returns(uint256) {... */\n    tag_32:\n      callvalue\n      dup1\n      iszero\n      tag_162\n      jumpi\n      0x00\n      dup1\n      revert\n    tag_162:\n      pop\n      tag_54\n      0x04\n      dup1\n      calldatasize\n      sub\n      0x20\n      dup2\n      lt\n      iszero\n      tag_164\n      jumpi\n      0x00\n      dup1\n      revert\n    tag_164:\n      pop\n      calldataload\n      sub(shl(0xa0, 0x01), 0x01)\n      and\n      tag_165\n      jump\t// in\n        /* \"contracts/Mooniswap.sol\":4421:7010  function deposit(uint256[] calldata amounts, uint256[] calldata minAmounts) external payable nonReentrant returns(uint256 fairSupply) {... */\n    tag_33:\n      tag_54\n      0x04\n      dup1\n      calldatasize\n      sub\n      0x40\n      dup2\n      lt\n      iszero\n      tag_167\n      jumpi\n      0x00\n      dup1\n      revert\n    tag_167:\n      dup2\n      add\n      swap1\n      0x20\n      dup2\n      add\n      dup2\n      calldataload\n      0x0100000000\n      dup2\n      gt\n      iszero\n      tag_168\n      jumpi\n      0x00\n      dup1\n      revert\n    tag_168:\n      dup3\n      add\n      dup4\n      0x20\n      dup3\n      add\n      gt\n      iszero\n      tag_169\n      jumpi\n      0x00\n      dup1\n      revert\n    tag_169:\n      dup1\n      calldataload\n      swap1\n      0x20\n      add\n      swap2\n      dup5\n      0x20\n      dup4\n      mul\n      dup5\n      add\n      gt\n      0x0100000000\n      dup4\n      gt\n      or\n      iszero\n      tag_170\n      jumpi\n      0x00\n      dup1\n      revert\n    tag_170:\n      swap2\n      swap4\n      swap1\n      swap3\n      swap1\n      swap2\n      0x20\n      dup2\n      add\n      swap1\n      calldataload\n      0x0100000000\n      dup2\n      gt\n      iszero\n      tag_171\n      jumpi\n      0x00\n      dup1\n      revert\n    tag_171:\n      dup3\n      add\n      dup4\n      0x20\n      dup3\n      add\n      gt\n      iszero\n      tag_172\n      jumpi\n      0x00\n      dup1\n      revert\n    tag_172:\n      dup1\n      calldataload\n      swap1\n      0x20\n      add\n      swap2\n      dup5\n      0x20\n      dup4\n      mul\n      dup5\n      add\n      gt\n      0x0100000000\n      dup4\n      gt\n      or\n      iszero\n      tag_173\n      jumpi\n      0x00\n      dup1\n      revert\n    tag_173:\n      pop\n      swap1\n      swap3\n      pop\n      swap1\n      pop\n      tag_174\n      jump\t// in\n        /* \"@openzeppelin/contracts/access/Ownable.sol\":1983:2223  function transferOwnership(address newOwner) public virtual onlyOwner {... */\n    tag_34:\n      callvalue\n      dup1\n      iszero\n      tag_175\n      jumpi\n      0x00\n      dup1\n      revert\n    tag_175:\n      pop\n      tag_83\n      0x04\n      dup1\n      calldatasize\n      sub\n      0x20\n      dup2\n      lt\n      iszero\n      tag_177\n      jumpi\n      0x00\n      dup1\n      revert\n    tag_177:\n      pop\n      calldataload\n      sub(shl(0xa0, 0x01), 0x01)\n      and\n      tag_178\n      jump\t// in\n        /* \"@openzeppelin/contracts/token/ERC20/ERC20.sol\":2219:2300  function name() public view returns (string memory) {... */\n    tag_44:\n        /* \"@openzeppelin/contracts/token/ERC20/ERC20.sol\":2288:2293  _name */\n      0x03\n        /* \"@openzeppelin/contracts/token/ERC20/ERC20.sol\":2281:2293  return _name */\n      dup1\n      sload\n      0x40\n      dup1\n      mload\n      0x20\n      0x1f\n      0x02\n      not(0x00)\n      0x0100\n      0x01\n      dup9\n      and\n      iszero\n      mul\n      add\n      swap1\n      swap6\n      and\n      swap5\n      swap1\n      swap5\n      div\n      swap4\n      dup5\n      add\n      dup2\n      swap1\n      div\n      dup2\n      mul\n      dup3\n      add\n      dup2\n      add\n      swap1\n      swap3\n      mstore\n      dup3\n      dup2\n      mstore\n        /* \"@openzeppelin/contracts/token/ERC20/ERC20.sol\":2256:2269  string memory */\n      0x60\n      swap4\n        /* \"@openzeppelin/contracts/token/ERC20/ERC20.sol\":2281:2293  return _name */\n      swap1\n      swap3\n        /* \"@openzeppelin/contracts/token/ERC20/ERC20.sol\":2288:2293  _name */\n      swap1\n      swap2\n        /* \"@openzeppelin/contracts/token/ERC20/ERC20.sol\":2281:2293  return _name */\n      dup4\n      add\n        /* \"@openzeppelin/contracts/token/ERC20/ERC20.sol\":2288:2293  _name */\n      dup3\n        /* \"@openzeppelin/contracts/token/ERC20/ERC20.sol\":2281:2293  return _name */\n      dup3\n      dup1\n      iszero\n      tag_180\n      jumpi\n      dup1\n      0x1f\n      lt\n      tag_181\n      jumpi\n      0x0100\n      dup1\n      dup4\n      sload\n      div\n      mul\n      dup4\n      mstore\n      swap2\n      0x20\n      add\n      swap2\n      jump(tag_180)\n    tag_181:\n      dup3\n      add\n      swap2\n      swap1\n      0x00\n      mstore\n      keccak256(0x00, 0x20)\n      swap1\n    tag_182:\n      dup2\n      sload\n      dup2\n      mstore\n      swap1\n      0x01\n      add\n      swap1\n      0x20\n      add\n      dup1\n      dup4\n      gt\n      tag_182\n      jumpi\n      dup3\n      swap1\n      sub\n      0x1f\n      and\n      dup3\n      add\n      swap2\n    tag_180:\n      pop\n      pop\n      pop\n      pop\n      pop\n      swap1\n      pop\n        /* \"@openzeppelin/contracts/token/ERC20/ERC20.sol\":2219:2300  function name() public view returns (string memory) {... */\n      swap1\n      jump\t// out\n        /* \"@openzeppelin/contracts/token/ERC20/ERC20.sol\":4255:4421  function approve(address spender, uint256 amount) public virtual override returns (bool) {... */\n    tag_52:\n        /* \"@openzeppelin/contracts/token/ERC20/ERC20.sol\":4338:4342  bool */\n      0x00\n        /* \"@openzeppelin/contracts/token/ERC20/ERC20.sol\":4354:4393  _approve(_msgSender(), spender, amount) */\n      tag_184\n        /* \"@openzeppelin/contracts/token/ERC20/ERC20.sol\":4363:4375  _msgSender() */\n      tag_185\n        /* \"@openzeppelin/contracts/token/ERC20/ERC20.sol\":4363:4373  _msgSender */\n      tag_186\n        /* \"@openzeppelin/contracts/token/ERC20/ERC20.sol\":4363:4375  _msgSender() */\n      jump\t// in\n    tag_185:\n        /* \"@openzeppelin/contracts/token/ERC20/ERC20.sol\":4377:4384  spender */\n      dup5\n        /* \"@openzeppelin/contracts/token/ERC20/ERC20.sol\":4386:4392  amount */\n      dup5\n        /* \"@openzeppelin/contracts/token/ERC20/ERC20.sol\":4354:4362  _approve */\n      tag_187\n        /* \"@openzeppelin/contracts/token/ERC20/ERC20.sol\":4354:4393  _approve(_msgSender(), spender, amount) */\n      jump\t// in\n    tag_184:\n      pop\n        /* \"@openzeppelin/contracts/token/ERC20/ERC20.sol\":4410:4414  true */\n      0x01\n        /* \"@openzeppelin/contracts/token/ERC20/ERC20.sol\":4255:4421  function approve(address spender, uint256 amount) public virtual override returns (bool) {... */\n    tag_183:\n      swap3\n      swap2\n      pop\n      pop\n      jump\t// out\n        /* \"@openzeppelin/contracts/token/ERC20/ERC20.sol\":3262:3360  function totalSupply() public view override returns (uint256) {... */\n    tag_55:\n        /* \"@openzeppelin/contracts/token/ERC20/ERC20.sol\":3341:3353  _totalSupply */\n      sload(0x02)\n        /* \"@openzeppelin/contracts/token/ERC20/ERC20.sol\":3262:3360  function totalSupply() public view override returns (uint256) {... */\n      swap1\n      jump\t// out\n        /* \"contracts/Mooniswap.sol\":2635:2673  mapping(IERC20 => bool) public isToken */\n    tag_59:\n      mstore(0x20, 0x0a)\n      0x00\n      swap1\n      dup2\n      mstore\n      0x40\n      swap1\n      keccak256\n      sload\n      0xff\n      and\n      dup2\n      jump\t// out\n        /* \"contracts/Mooniswap.sol\":4218:4415  function getReturn(IERC20 src, IERC20 dst, uint256 amount) external view returns(uint256) {... */\n    tag_63:\n        /* \"contracts/Mooniswap.sol\":4299:4306  uint256 */\n      0x00\n        /* \"contracts/Mooniswap.sol\":4325:4408  _getReturn(src, dst, amount, getBalanceForAddition(src), getBalanceForRemoval(dst)) */\n      tag_190\n        /* \"contracts/Mooniswap.sol\":4336:4339  src */\n      dup5\n        /* \"contracts/Mooniswap.sol\":4341:4344  dst */\n      dup5\n        /* \"contracts/Mooniswap.sol\":4346:4352  amount */\n      dup5\n        /* \"contracts/Mooniswap.sol\":4354:4380  getBalanceForAddition(src) */\n      tag_191\n        /* \"contracts/Mooniswap.sol\":4376:4379  src */\n      dup9\n        /* \"contracts/Mooniswap.sol\":4354:4375  getBalanceForAddition */\n      tag_154\n        /* \"contracts/Mooniswap.sol\":4354:4380  getBalanceForAddition(src) */\n      jump\t// in\n    tag_191:\n        /* \"contracts/Mooniswap.sol\":4382:4407  getBalanceForRemoval(dst) */\n      tag_192\n        /* \"contracts/Mooniswap.sol\":4403:4406  dst */\n      dup9\n        /* \"contracts/Mooniswap.sol\":4382:4402  getBalanceForRemoval */\n      tag_165\n        /* \"contracts/Mooniswap.sol\":4382:4407  getBalanceForRemoval(dst) */\n      jump\t// in\n    tag_192:\n        /* \"contracts/Mooniswap.sol\":4325:4335  _getReturn */\n      tag_193\n        /* \"contracts/Mooniswap.sol\":4325:4408  _getReturn(src, dst, amount, getBalanceForAddition(src), getBalanceForRemoval(dst)) */\n      jump\t// in\n    tag_190:\n        /* \"contracts/Mooniswap.sol\":4318:4408  return _getReturn(src, dst, amount, getBalanceForAddition(src), getBalanceForRemoval(dst)) */\n      swap5\n        /* \"contracts/Mooniswap.sol\":4218:4415  function getReturn(IERC20 src, IERC20 dst, uint256 amount) external view returns(uint256) {... */\n      swap4\n      pop\n      pop\n      pop\n      pop\n      jump\t// out\n        /* \"@openzeppelin/contracts/token/ERC20/ERC20.sol\":4881:5198  function transferFrom(address sender, address recipient, uint256 amount) public virtual override returns (bool) {... */\n    tag_67:\n        /* \"@openzeppelin/contracts/token/ERC20/ERC20.sol\":4987:4991  bool */\n      0x00\n        /* \"@openzeppelin/contracts/token/ERC20/ERC20.sol\":5003:5039  _transfer(sender, recipient, amount) */\n      tag_195\n        /* \"@openzeppelin/contracts/token/ERC20/ERC20.sol\":5013:5019  sender */\n      dup5\n        /* \"@openzeppelin/contracts/token/ERC20/ERC20.sol\":5021:5030  recipient */\n      dup5\n        /* \"@openzeppelin/contracts/token/ERC20/ERC20.sol\":5032:5038  amount */\n      dup5\n        /* \"@openzeppelin/contracts/token/ERC20/ERC20.sol\":5003:5012  _transfer */\n      tag_196\n        /* \"@openzeppelin/contracts/token/ERC20/ERC20.sol\":5003:5039  _transfer(sender, recipient, amount) */\n      jump\t// in\n    tag_195:\n        /* \"@openzeppelin/contracts/token/ERC20/ERC20.sol\":5049:5170  _approve(sender, _msgSender(), _allowances[sender][_msgSender()].sub(amount, \"ERC20: transfer amount exceeds allowance\")) */\n      tag_197\n        /* \"@openzeppelin/contracts/token/ERC20/ERC20.sol\":5058:5064  sender */\n      dup5\n        /* \"@openzeppelin/contracts/token/ERC20/ERC20.sol\":5066:5078  _msgSender() */\n      tag_198\n        /* \"@openzeppelin/contracts/token/ERC20/ERC20.sol\":5066:5076  _msgSender */\n      tag_186\n        /* \"@openzeppelin/contracts/token/ERC20/ERC20.sol\":5066:5078  _msgSender() */\n      jump\t// in\n    tag_198:\n        /* \"@openzeppelin/contracts/token/ERC20/ERC20.sol\":5080:5169  _allowances[sender][_msgSender()].sub(amount, \"ERC20: transfer amount exceeds allowance\") */\n      tag_199\n        /* \"@openzeppelin/contracts/token/ERC20/ERC20.sol\":5118:5124  amount */\n      dup6\n        /* \"@openzeppelin/contracts/token/ERC20/ERC20.sol\":5080:5169  _allowances[sender][_msgSender()].sub(amount, \"ERC20: transfer amount exceeds allowance\") */\n      mload(0x40)\n      dup1\n      0x60\n      add\n      0x40\n      mstore\n      dup1\n      0x28\n      dup2\n      mstore\n      0x20\n      add\n      data_974d1b4421da69cc60b481194f0dad36a5bb4e23da810da7a7fb30cdba178330\n      0x28\n      swap2\n      codecopy\n      sub(shl(0xa0, 0x01), 0x01)\n        /* \"@openzeppelin/contracts/token/ERC20/ERC20.sol\":5080:5099  _allowances[sender] */\n      dup11\n      and\n      0x00\n      swap1\n      dup2\n      mstore\n        /* \"@openzeppelin/contracts/token/ERC20/ERC20.sol\":5080:5091  _allowances */\n      0x01\n        /* \"@openzeppelin/contracts/token/ERC20/ERC20.sol\":5080:5099  _allowances[sender] */\n      0x20\n      mstore\n      0x40\n      dup2\n      keccak256\n      swap1\n        /* \"@openzeppelin/contracts/token/ERC20/ERC20.sol\":5100:5112  _msgSender() */\n      tag_200\n        /* \"@openzeppelin/contracts/token/ERC20/ERC20.sol\":5100:5110  _msgSender */\n      tag_186\n        /* \"@openzeppelin/contracts/token/ERC20/ERC20.sol\":5100:5112  _msgSender() */\n      jump\t// in\n    tag_200:\n      sub(shl(0xa0, 0x01), 0x01)\n        /* \"@openzeppelin/contracts/token/ERC20/ERC20.sol\":5080:5113  _allowances[sender][_msgSender()] */\n      and\n      dup2\n      mstore\n      0x20\n      dup2\n      add\n      swap2\n      swap1\n      swap2\n      mstore\n      0x40\n      add\n      0x00\n      keccak256\n      sload\n      swap2\n        /* \"@openzeppelin/contracts/token/ERC20/ERC20.sol\":5080:5169  _allowances[sender][_msgSender()].sub(amount, \"ERC20: transfer amount exceeds allowance\") */\n      swap1\n        /* \"@openzeppelin/contracts/token/ERC20/ERC20.sol\":5080:5117  _allowances[sender][_msgSender()].sub */\n      tag_201\n        /* \"@openzeppelin/contracts/token/ERC20/ERC20.sol\":5080:5169  _allowances[sender][_msgSender()].sub(amount, \"ERC20: transfer amount exceeds allowance\") */\n      jump\t// in\n    tag_199:\n        /* \"@openzeppelin/contracts/token/ERC20/ERC20.sol\":5049:5057  _approve */\n      tag_187\n        /* \"@openzeppelin/contracts/token/ERC20/ERC20.sol\":5049:5170  _approve(sender, _msgSender(), _allowances[sender][_msgSender()].sub(amount, \"ERC20: transfer amount exceeds allowance\")) */\n      jump\t// in\n    tag_197:\n      pop\n        /* \"@openzeppelin/contracts/token/ERC20/ERC20.sol\":5187:5191  true */\n      0x01\n        /* \"@openzeppelin/contracts/token/ERC20/ERC20.sol\":4881:5198  function transferFrom(address sender, address recipient, uint256 amount) public virtual override returns (bool) {... */\n      swap4\n      swap3\n      pop\n      pop\n      pop\n      jump\t// out\n        /* \"@openzeppelin/contracts/token/ERC20/ERC20.sol\":3121:3202  function decimals() public view returns (uint8) {... */\n    tag_70:\n        /* \"@openzeppelin/contracts/token/ERC20/ERC20.sol\":3186:3195  _decimals */\n      and(0xff, sload(0x05))\n        /* \"@openzeppelin/contracts/token/ERC20/ERC20.sol\":3121:3202  function decimals() public view returns (uint8) {... */\n      swap1\n      jump\t// out\n        /* \"@openzeppelin/contracts/token/ERC20/ERC20.sol\":5593:5808  function increaseAllowance(address spender, uint256 addedValue) public virtual returns (bool) {... */\n    tag_74:\n        /* \"@openzeppelin/contracts/token/ERC20/ERC20.sol\":5681:5685  bool */\n      0x00\n        /* \"@openzeppelin/contracts/token/ERC20/ERC20.sol\":5697:5780  _approve(_msgSender(), spender, _allowances[_msgSender()][spender].add(addedValue)) */\n      tag_184\n        /* \"@openzeppelin/contracts/token/ERC20/ERC20.sol\":5706:5718  _msgSender() */\n      tag_205\n        /* \"@openzeppelin/contracts/token/ERC20/ERC20.sol\":5706:5716  _msgSender */\n      tag_186\n        /* \"@openzeppelin/contracts/token/ERC20/ERC20.sol\":5706:5718  _msgSender() */\n      jump\t// in\n    tag_205:\n        /* \"@openzeppelin/contracts/token/ERC20/ERC20.sol\":5720:5727  spender */\n      dup5\n        /* \"@openzeppelin/contracts/token/ERC20/ERC20.sol\":5729:5779  _allowances[_msgSender()][spender].add(addedValue) */\n      tag_199\n        /* \"@openzeppelin/contracts/token/ERC20/ERC20.sol\":5768:5778  addedValue */\n      dup6\n        /* \"@openzeppelin/contracts/token/ERC20/ERC20.sol\":5729:5740  _allowances */\n      0x01\n        /* \"@openzeppelin/contracts/token/ERC20/ERC20.sol\":5729:5754  _allowances[_msgSender()] */\n      0x00\n        /* \"@openzeppelin/contracts/token/ERC20/ERC20.sol\":5741:5753  _msgSender() */\n      tag_207\n        /* \"@openzeppelin/contracts/token/ERC20/ERC20.sol\":5741:5751  _msgSender */\n      tag_186\n        /* \"@openzeppelin/contracts/token/ERC20/ERC20.sol\":5741:5753  _msgSender() */\n      jump\t// in\n    tag_207:\n      sub(shl(0xa0, 0x01), 0x01)\n        /* \"@openzeppelin/contracts/token/ERC20/ERC20.sol\":5729:5754  _allowances[_msgSender()] */\n      swap1\n      dup2\n      and\n      dup3\n      mstore\n      0x20\n      dup1\n      dup4\n      add\n      swap4\n      swap1\n      swap4\n      mstore\n      0x40\n      swap2\n      dup3\n      add\n      0x00\n      swap1\n      dup2\n      keccak256\n        /* \"@openzeppelin/contracts/token/ERC20/ERC20.sol\":5729:5763  _allowances[_msgSender()][spender] */\n      swap2\n      dup13\n      and\n      dup2\n      mstore\n      swap3\n      mstore\n      swap1\n      keccak256\n      sload\n      swap1\n        /* \"@openzeppelin/contracts/token/ERC20/ERC20.sol\":5729:5767  _allowances[_msgSender()][spender].add */\n      tag_208\n        /* \"@openzeppelin/contracts/token/ERC20/ERC20.sol\":5729:5779  _allowances[_msgSender()][spender].add(addedValue) */\n      jump\t// in\n        /* \"contracts/Mooniswap.sol\":3641:3746  function decayPeriod() external pure returns(uint256) {... */\n    tag_77:\n        /* \"contracts/Mooniswap.sol\":643:652  5 minutes */\n      0x012c\n        /* \"contracts/Mooniswap.sol\":3641:3746  function decayPeriod() external pure returns(uint256) {... */\n      swap1\n      jump\t// out\n        /* \"contracts/Mooniswap.sol\":2607:2629  IERC20[] public tokens */\n    tag_81:\n      0x09\n      dup2\n      dup2\n      sload\n      dup2\n      lt\n      tag_210\n      jumpi\n      invalid\n    tag_210:\n      0x00\n      swap2\n      dup3\n      mstore\n      0x20\n      swap1\n      swap2\n      keccak256\n      add\n      sload\n      sub(shl(0xa0, 0x01), 0x01)\n      and\n      swap1\n      pop\n      dup2\n      jump\t// out\n        /* \"contracts/Mooniswap.sol\":7016:7833  function withdraw(uint256 amount, uint256[] memory minReturns) external nonReentrant {... */\n    tag_88:\n        /* \"@openzeppelin/contracts/utils/ReentrancyGuard.sol\":1671:1672  2 */\n      0x02\n        /* \"@openzeppelin/contracts/utils/ReentrancyGuard.sol\":2260:2267  _status */\n      sload(0x06)\n        /* \"@openzeppelin/contracts/utils/ReentrancyGuard.sol\":2260:2279  _status != _ENTERED */\n      eq\n      iszero\n        /* \"@openzeppelin/contracts/utils/ReentrancyGuard.sol\":2252:2315  require(_status != _ENTERED, \"ReentrancyGuard: reentrant call\") */\n      tag_213\n      jumpi\n      0x40\n      dup1\n      mload\n      shl(0xe5, 0x461bcd)\n      dup2\n      mstore\n      0x20\n      0x04\n      dup3\n      add\n      mstore\n      0x1f\n      0x24\n      dup3\n      add\n      mstore\n      0x00\n      dup1\n      mload\n      0x20\n      data_0d74825aecb0211bbe1f02ccfb998d9e49771bedb2c6414e20fd8978a2e0f54c\n      dup4\n      codecopy\n      dup2\n      mload\n      swap2\n      mstore\n      0x44\n      dup3\n      add\n      mstore\n      swap1\n      mload\n      swap1\n      dup2\n      swap1\n      sub\n      0x64\n      add\n      swap1\n      revert\n    tag_213:\n        /* \"@openzeppelin/contracts/utils/ReentrancyGuard.sol\":1671:1672  2 */\n      0x02\n        /* \"@openzeppelin/contracts/utils/ReentrancyGuard.sol\":2390:2397  _status */\n      0x06\n        /* \"@openzeppelin/contracts/utils/ReentrancyGuard.sol\":2390:2408  _status = _ENTERED */\n      sstore\n        /* \"contracts/Mooniswap.sol\":7111:7130  uint256 totalSupply */\n      0x00\n        /* \"contracts/Mooniswap.sol\":7133:7146  totalSupply() */\n      tag_215\n        /* \"contracts/Mooniswap.sol\":7133:7144  totalSupply */\n      tag_55\n        /* \"contracts/Mooniswap.sol\":7133:7146  totalSupply() */\n      jump\t// in\n    tag_215:\n        /* \"contracts/Mooniswap.sol\":7111:7146  uint256 totalSupply = totalSupply() */\n      swap1\n      pop\n        /* \"contracts/Mooniswap.sol\":7156:7181  _burn(msg.sender, amount) */\n      tag_216\n        /* \"contracts/Mooniswap.sol\":7162:7172  msg.sender */\n      caller\n        /* \"contracts/Mooniswap.sol\":7174:7180  amount */\n      dup5\n        /* \"contracts/Mooniswap.sol\":7156:7161  _burn */\n      tag_217\n        /* \"contracts/Mooniswap.sol\":7156:7181  _burn(msg.sender, amount) */\n      jump\t// in\n    tag_216:\n        /* \"contracts/Mooniswap.sol\":7197:7203  uint i */\n      0x00\n        /* \"contracts/Mooniswap.sol\":7192:7782  for (uint i = 0; i < tokens.length; i++) {... */\n    tag_218:\n        /* \"contracts/Mooniswap.sol\":7213:7219  tokens */\n      0x09\n        /* \"contracts/Mooniswap.sol\":7213:7226  tokens.length */\n      sload\n        /* \"contracts/Mooniswap.sol\":7209:7226  i < tokens.length */\n      dup2\n      lt\n        /* \"contracts/Mooniswap.sol\":7192:7782  for (uint i = 0; i < tokens.length; i++) {... */\n      iszero\n      tag_219\n      jumpi\n        /* \"contracts/Mooniswap.sol\":7247:7259  IERC20 token */\n      0x00\n        /* \"contracts/Mooniswap.sol\":7262:7268  tokens */\n      0x09\n        /* \"contracts/Mooniswap.sol\":7269:7270  i */\n      dup3\n        /* \"contracts/Mooniswap.sol\":7262:7271  tokens[i] */\n      dup2\n      sload\n      dup2\n      lt\n      tag_221\n      jumpi\n      invalid\n    tag_221:\n      0x00\n      swap2\n      dup3\n      mstore\n      0x20\n      dup3\n      keccak256\n      add\n      sload\n      sub(shl(0xa0, 0x01), 0x01)\n      and\n      swap2\n      pop\n        /* \"contracts/Mooniswap.sol\":7307:7340  token.uniBalanceOf(address(this)) */\n      tag_223\n        /* \"contracts/Mooniswap.sol\":7262:7271  tokens[i] */\n      dup3\n        /* \"contracts/Mooniswap.sol\":7334:7338  this */\n      address\n        /* \"contracts/Mooniswap.sol\":7307:7325  token.uniBalanceOf */\n      tag_224\n        /* \"contracts/Mooniswap.sol\":7307:7340  token.uniBalanceOf(address(this)) */\n      jump\t// in\n    tag_223:\n        /* \"contracts/Mooniswap.sol\":7286:7340  uint256 preBalance = token.uniBalanceOf(address(this)) */\n      swap1\n      pop\n        /* \"contracts/Mooniswap.sol\":7354:7367  uint256 value */\n      0x00\n        /* \"contracts/Mooniswap.sol\":7370:7409  preBalance.mul(amount).div(totalSupply) */\n      tag_225\n        /* \"contracts/Mooniswap.sol\":7397:7408  totalSupply */\n      dup6\n        /* \"contracts/Mooniswap.sol\":7370:7392  preBalance.mul(amount) */\n      tag_226\n        /* \"contracts/Mooniswap.sol\":7286:7340  uint256 preBalance = token.uniBalanceOf(address(this)) */\n      dup5\n        /* \"contracts/Mooniswap.sol\":7385:7391  amount */\n      dup11\n        /* \"contracts/Mooniswap.sol\":7370:7384  preBalance.mul */\n      tag_227\n        /* \"contracts/Mooniswap.sol\":7370:7392  preBalance.mul(amount) */\n      jump\t// in\n    tag_226:\n        /* \"contracts/Mooniswap.sol\":7370:7396  preBalance.mul(amount).div */\n      swap1\n      tag_228\n        /* \"contracts/Mooniswap.sol\":7370:7409  preBalance.mul(amount).div(totalSupply) */\n      jump\t// in\n    tag_225:\n        /* \"contracts/Mooniswap.sol\":7354:7409  uint256 value = preBalance.mul(amount).div(totalSupply) */\n      swap1\n      pop\n        /* \"contracts/Mooniswap.sol\":7423:7459  token.uniTransfer(msg.sender, value) */\n      tag_229\n      sub(shl(0xa0, 0x01), 0x01)\n        /* \"contracts/Mooniswap.sol\":7423:7440  token.uniTransfer */\n      dup5\n      and\n        /* \"contracts/Mooniswap.sol\":7441:7451  msg.sender */\n      caller\n        /* \"contracts/Mooniswap.sol\":7354:7409  uint256 value = preBalance.mul(amount).div(totalSupply) */\n      dup4\n        /* \"contracts/Mooniswap.sol\":7423:7440  token.uniTransfer */\n      tag_230\n        /* \"contracts/Mooniswap.sol\":7423:7459  token.uniTransfer(msg.sender, value) */\n      jump\t// in\n    tag_229:\n        /* \"contracts/Mooniswap.sol\":7486:7496  minReturns */\n      dup6\n        /* \"contracts/Mooniswap.sol\":7486:7503  minReturns.length */\n      mload\n        /* \"contracts/Mooniswap.sol\":7481:7482  i */\n      dup5\n        /* \"contracts/Mooniswap.sol\":7481:7503  i >= minReturns.length */\n      lt\n      iszero\n        /* \"contracts/Mooniswap.sol\":7481:7529  i >= minReturns.length || value >= minReturns[i] */\n      dup1\n      tag_231\n      jumpi\n      pop\n        /* \"contracts/Mooniswap.sol\":7516:7526  minReturns */\n      dup6\n        /* \"contracts/Mooniswap.sol\":7527:7528  i */\n      dup5\n        /* \"contracts/Mooniswap.sol\":7516:7529  minReturns[i] */\n      dup2\n      mload\n      dup2\n      lt\n      tag_232\n      jumpi\n      invalid\n    tag_232:\n      0x20\n      mul\n      0x20\n      add\n      add\n      mload\n        /* \"contracts/Mooniswap.sol\":7507:7512  value */\n      dup2\n        /* \"contracts/Mooniswap.sol\":7507:7529  value >= minReturns[i] */\n      lt\n      iszero\n        /* \"contracts/Mooniswap.sol\":7481:7529  i >= minReturns.length || value >= minReturns[i] */\n    tag_231:\n        /* \"contracts/Mooniswap.sol\":7473:7565  require(i >= minReturns.length || value >= minReturns[i], \"Mooniswap: result is not enough\") */\n      tag_233\n      jumpi\n      0x40\n      dup1\n      mload\n      shl(0xe5, 0x461bcd)\n      dup2\n      mstore\n      0x20\n      0x04\n      dup3\n      add\n      mstore\n      0x1f\n      0x24\n      dup3\n      add\n      mstore\n      0x4d6f6f6e69737761703a20726573756c74206973206e6f7420656e6f75676800\n      0x44\n      dup3\n      add\n      mstore\n      swap1\n      mload\n      swap1\n      dup2\n      swap1\n      sub\n      0x64\n      add\n      swap1\n      revert\n    tag_233:\n        /* \"contracts/Mooniswap.sol\":7580:7669  virtualBalancesForAddition[token].scale(preBalance, totalSupply.sub(amount), totalSupply) */\n      tag_234\n        /* \"contracts/Mooniswap.sol\":7620:7630  preBalance */\n      dup3\n        /* \"contracts/Mooniswap.sol\":7632:7655  totalSupply.sub(amount) */\n      tag_235\n        /* \"contracts/Mooniswap.sol\":7632:7643  totalSupply */\n      dup8\n        /* \"contracts/Mooniswap.sol\":7648:7654  amount */\n      dup11\n        /* \"contracts/Mooniswap.sol\":7632:7647  totalSupply.sub */\n      tag_236\n        /* \"contracts/Mooniswap.sol\":7632:7655  totalSupply.sub(amount) */\n      jump\t// in\n    tag_235:\n      sub(shl(0xa0, 0x01), 0x01)\n        /* \"contracts/Mooniswap.sol\":7580:7613  virtualBalancesForAddition[token] */\n      dup7\n      and\n      0x00\n      swap1\n      dup2\n      mstore\n        /* \"contracts/Mooniswap.sol\":7580:7606  virtualBalancesForAddition */\n      0x0c\n        /* \"contracts/Mooniswap.sol\":7580:7613  virtualBalancesForAddition[token] */\n      0x20\n      mstore\n      0x40\n      swap1\n      keccak256\n      swap2\n        /* \"contracts/Mooniswap.sol\":7580:7669  virtualBalancesForAddition[token].scale(preBalance, totalSupply.sub(amount), totalSupply) */\n      swap1\n        /* \"contracts/Mooniswap.sol\":7657:7668  totalSupply */\n      dup9\n        /* \"contracts/Mooniswap.sol\":7580:7619  virtualBalancesForAddition[token].scale */\n      tag_237\n        /* \"contracts/Mooniswap.sol\":7580:7669  virtualBalancesForAddition[token].scale(preBalance, totalSupply.sub(amount), totalSupply) */\n      jump\t// in\n    tag_234:\n        /* \"contracts/Mooniswap.sol\":7683:7771  virtualBalancesForRemoval[token].scale(preBalance, totalSupply.sub(amount), totalSupply) */\n      tag_238\n        /* \"contracts/Mooniswap.sol\":7722:7732  preBalance */\n      dup3\n        /* \"contracts/Mooniswap.sol\":7734:7757  totalSupply.sub(amount) */\n      tag_239\n        /* \"contracts/Mooniswap.sol\":7734:7745  totalSupply */\n      dup8\n        /* \"contracts/Mooniswap.sol\":7750:7756  amount */\n      dup11\n        /* \"contracts/Mooniswap.sol\":7734:7749  totalSupply.sub */\n      tag_236\n        /* \"contracts/Mooniswap.sol\":7734:7757  totalSupply.sub(amount) */\n      jump\t// in\n    tag_239:\n      sub(shl(0xa0, 0x01), 0x01)\n        /* \"contracts/Mooniswap.sol\":7683:7715  virtualBalancesForRemoval[token] */\n      dup7\n      and\n      0x00\n      swap1\n      dup2\n      mstore\n        /* \"contracts/Mooniswap.sol\":7683:7708  virtualBalancesForRemoval */\n      0x0d\n        /* \"contracts/Mooniswap.sol\":7683:7715  virtualBalancesForRemoval[token] */\n      0x20\n      mstore\n      0x40\n      swap1\n      keccak256\n      swap2\n        /* \"contracts/Mooniswap.sol\":7683:7771  virtualBalancesForRemoval[token].scale(preBalance, totalSupply.sub(amount), totalSupply) */\n      swap1\n        /* \"contracts/Mooniswap.sol\":7759:7770  totalSupply */\n      dup9\n        /* \"contracts/Mooniswap.sol\":7683:7721  virtualBalancesForRemoval[token].scale */\n      tag_237\n        /* \"contracts/Mooniswap.sol\":7683:7771  virtualBalancesForRemoval[token].scale(preBalance, totalSupply.sub(amount), totalSupply) */\n      jump\t// in\n    tag_238:\n      pop\n      pop\n      pop\n        /* \"contracts/Mooniswap.sol\":7228:7231  i++ */\n      0x01\n      add\n        /* \"contracts/Mooniswap.sol\":7192:7782  for (uint i = 0; i < tokens.length; i++) {... */\n      jump(tag_218)\n    tag_219:\n      pop\n        /* \"contracts/Mooniswap.sol\":7797:7826  Withdrawn(msg.sender, amount) */\n      0x40\n      dup1\n      mload\n      dup5\n      dup2\n      mstore\n      swap1\n      mload\n        /* \"contracts/Mooniswap.sol\":7807:7817  msg.sender */\n      caller\n      swap2\n        /* \"contracts/Mooniswap.sol\":7797:7826  Withdrawn(msg.sender, amount) */\n      0x7084f5476618d8e60b11ef0d7d3f06914655adb8793e28ff7f018d4c76d505d5\n      swap2\n      swap1\n      dup2\n      swap1\n      sub\n      0x20\n      add\n      swap1\n      log2\n      pop\n      pop\n        /* \"@openzeppelin/contracts/utils/ReentrancyGuard.sol\":1628:1629  1 */\n      0x01\n        /* \"@openzeppelin/contracts/utils/ReentrancyGuard.sol\":2563:2570  _status */\n      0x06\n        /* \"@openzeppelin/contracts/utils/ReentrancyGuard.sol\":2563:2585  _status = _NOT_ENTERED */\n      sstore\n      pop\n        /* \"contracts/Mooniswap.sol\":7016:7833  function withdraw(uint256 amount, uint256[] memory minReturns) external nonReentrant {... */\n      jump\t// out\n        /* \"contracts/Mooniswap.sol\":2808:2879  mapping(IERC20 => VirtualBalance.Data) public virtualBalancesForRemoval */\n    tag_92:\n      mstore(0x20, 0x0d)\n      0x00\n      swap1\n      dup2\n      mstore\n      0x40\n      swap1\n      keccak256\n      sload\n      sub(shl(0xd8, 0x01), 0x01)\n      dup2\n      and\n      swap1\n      shl(0xd8, 0x01)\n      swap1\n      div\n      0xffffffffff\n      and\n      dup3\n      jump\t// out\n        /* \"contracts/Mooniswap.sol\":2730:2802  mapping(IERC20 => VirtualBalance.Data) public virtualBalancesForAddition */\n    tag_96:\n      mstore(0x20, 0x0c)\n      0x00\n      swap1\n      dup2\n      mstore\n      0x40\n      swap1\n      keccak256\n      sload\n      sub(shl(0xd8, 0x01), 0x01)\n      dup2\n      and\n      swap1\n      shl(0xd8, 0x01)\n      swap1\n      div\n      0xffffffffff\n      and\n      dup3\n      jump\t// out\n        /* \"@openzeppelin/contracts/token/ERC20/ERC20.sol\":3418:3535  function balanceOf(address account) public view override returns (uint256) {... */\n    tag_100:\n      sub(shl(0xa0, 0x01), 0x01)\n        /* \"@openzeppelin/contracts/token/ERC20/ERC20.sol\":3510:3528  _balances[account] */\n      dup2\n      and\n        /* \"@openzeppelin/contracts/token/ERC20/ERC20.sol\":3484:3491  uint256 */\n      0x00\n        /* \"@openzeppelin/contracts/token/ERC20/ERC20.sol\":3510:3528  _balances[account] */\n      swap1\n      dup2\n      mstore\n      0x20\n      dup2\n      swap1\n      mstore\n      0x40\n      swap1\n      keccak256\n      sload\n        /* \"@openzeppelin/contracts/token/ERC20/ERC20.sol\":3418:3535  function balanceOf(address account) public view override returns (uint256) {... */\n    tag_240:\n      swap2\n      swap1\n      pop\n      jump\t// out\n        /* \"@openzeppelin/contracts/access/Ownable.sol\":1689:1834  function renounceOwnership() public virtual onlyOwner {... */\n    tag_103:\n        /* \"@openzeppelin/contracts/access/Ownable.sol\":1280:1292  _msgSender() */\n      tag_242\n        /* \"@openzeppelin/contracts/access/Ownable.sol\":1280:1290  _msgSender */\n      tag_186\n        /* \"@openzeppelin/contracts/access/Ownable.sol\":1280:1292  _msgSender() */\n      jump\t// in\n    tag_242:\n        /* \"@openzeppelin/contracts/access/Ownable.sol\":1270:1276  _owner */\n      sload(0x07)\n      sub(shl(0xa0, 0x01), 0x01)\n      swap1\n      dup2\n      and\n        /* \"@openzeppelin/contracts/access/Ownable.sol\":1270:1292  _owner == _msgSender() */\n      swap2\n      and\n      eq\n        /* \"@openzeppelin/contracts/access/Ownable.sol\":1262:1329  require(_owner == _msgSender(), \"Ownable: caller is not the owner\") */\n      tag_243\n      jumpi\n      0x40\n      dup1\n      mload\n      shl(0xe5, 0x461bcd)\n      dup2\n      mstore\n      0x20\n      0x04\n      dup3\n      add\n      dup2\n      swap1\n      mstore\n      0x24\n      dup3\n      add\n      mstore\n      0x4f776e61626c653a2063616c6c6572206973206e6f7420746865206f776e6572\n      0x44\n      dup3\n      add\n      mstore\n      swap1\n      mload\n      swap1\n      dup2\n      swap1\n      sub\n      0x64\n      add\n      swap1\n      revert\n    tag_243:\n        /* \"@openzeppelin/contracts/access/Ownable.sol\":1779:1785  _owner */\n      sload(0x07)\n        /* \"@openzeppelin/contracts/access/Ownable.sol\":1758:1798  OwnershipTransferred(_owner, address(0)) */\n      mload(0x40)\n        /* \"@openzeppelin/contracts/access/Ownable.sol\":1795:1796  0 */\n      0x00\n      swap2\n      sub(shl(0xa0, 0x01), 0x01)\n        /* \"@openzeppelin/contracts/access/Ownable.sol\":1779:1785  _owner */\n      and\n      swap1\n        /* \"@openzeppelin/contracts/access/Ownable.sol\":1758:1798  OwnershipTransferred(_owner, address(0)) */\n      0x8be0079c531659141344cd1fd0a4f28419497f9722a3daafe3b4186f6b6457e0\n      swap1\n        /* \"@openzeppelin/contracts/access/Ownable.sol\":1795:1796  0 */\n      dup4\n      swap1\n        /* \"@openzeppelin/contracts/access/Ownable.sol\":1758:1798  OwnershipTransferred(_owner, address(0)) */\n      log3\n        /* \"@openzeppelin/contracts/access/Ownable.sol\":1808:1814  _owner */\n      0x07\n        /* \"@openzeppelin/contracts/access/Ownable.sol\":1808:1827  _owner = address(0) */\n      dup1\n      sload\n      not(sub(shl(0xa0, 0x01), 0x01))\n      and\n      swap1\n      sstore\n        /* \"@openzeppelin/contracts/access/Ownable.sol\":1689:1834  function renounceOwnership() public virtual onlyOwner {... */\n      jump\t// out\n        /* \"contracts/Mooniswap.sol\":10418:11003  function rescueFunds(IERC20 token, uint256 amount) external nonReentrant onlyOwner {... */\n    tag_107:\n        /* \"@openzeppelin/contracts/utils/ReentrancyGuard.sol\":1671:1672  2 */\n      0x02\n        /* \"@openzeppelin/contracts/utils/ReentrancyGuard.sol\":2260:2267  _status */\n      sload(0x06)\n        /* \"@openzeppelin/contracts/utils/ReentrancyGuard.sol\":2260:2279  _status != _ENTERED */\n      eq\n      iszero\n        /* \"@openzeppelin/contracts/utils/ReentrancyGuard.sol\":2252:2315  require(_status != _ENTERED, \"ReentrancyGuard: reentrant call\") */\n      tag_246\n      jumpi\n      0x40\n      dup1\n      mload\n      shl(0xe5, 0x461bcd)\n      dup2\n      mstore\n      0x20\n      0x04\n      dup3\n      add\n      mstore\n      0x1f\n      0x24\n      dup3\n      add\n      mstore\n      0x00\n      dup1\n      mload\n      0x20\n      data_0d74825aecb0211bbe1f02ccfb998d9e49771bedb2c6414e20fd8978a2e0f54c\n      dup4\n      codecopy\n      dup2\n      mload\n      swap2\n      mstore\n      0x44\n      dup3\n      add\n      mstore\n      swap1\n      mload\n      swap1\n      dup2\n      swap1\n      sub\n      0x64\n      add\n      swap1\n      revert\n    tag_246:\n        /* \"@openzeppelin/contracts/utils/ReentrancyGuard.sol\":1671:1672  2 */\n      0x02\n        /* \"@openzeppelin/contracts/utils/ReentrancyGuard.sol\":2390:2397  _status */\n      0x06\n        /* \"@openzeppelin/contracts/utils/ReentrancyGuard.sol\":2390:2408  _status = _ENTERED */\n      sstore\n        /* \"@openzeppelin/contracts/access/Ownable.sol\":1280:1292  _msgSender() */\n      tag_248\n        /* \"@openzeppelin/contracts/access/Ownable.sol\":1280:1290  _msgSender */\n      tag_186\n        /* \"@openzeppelin/contracts/access/Ownable.sol\":1280:1292  _msgSender() */\n      jump\t// in\n    tag_248:\n        /* \"@openzeppelin/contracts/access/Ownable.sol\":1270:1276  _owner */\n      sload(0x07)\n      sub(shl(0xa0, 0x01), 0x01)\n      swap1\n      dup2\n      and\n        /* \"@openzeppelin/contracts/access/Ownable.sol\":1270:1292  _owner == _msgSender() */\n      swap2\n      and\n      eq\n        /* \"@openzeppelin/contracts/access/Ownable.sol\":1262:1329  require(_owner == _msgSender(), \"Ownable: caller is not the owner\") */\n      tag_249\n      jumpi\n      0x40\n      dup1\n      mload\n      shl(0xe5, 0x461bcd)\n      dup2\n      mstore\n      0x20\n      0x04\n      dup3\n      add\n      dup2\n      swap1\n      mstore\n      0x24\n      dup3\n      add\n      mstore\n      0x4f776e61626c653a2063616c6c6572206973206e6f7420746865206f776e6572\n      0x44\n      dup3\n      add\n      mstore\n      swap1\n      mload\n      swap1\n      dup2\n      swap1\n      sub\n      0x64\n      add\n      swap1\n      revert\n    tag_249:\n        /* \"contracts/Mooniswap.sol\":10553:10559  tokens */\n      0x09\n        /* \"contracts/Mooniswap.sol\":10553:10566  tokens.length */\n      sload\n        /* \"contracts/Mooniswap.sol\":10511:10536  uint256[] memory balances */\n      0x60\n      swap1\n        /* \"contracts/Mooniswap.sol\":10539:10567  new uint256[](tokens.length) */\n      0xffffffffffffffff\n      dup2\n      gt\n      dup1\n      iszero\n      tag_251\n      jumpi\n      0x00\n      dup1\n      revert\n    tag_251:\n      pop\n      mload(0x40)\n      swap1\n      dup1\n      dup3\n      mstore\n      dup1\n      0x20\n      mul\n      0x20\n      add\n      dup3\n      add\n      0x40\n      mstore\n      dup1\n      iszero\n      tag_252\n      jumpi\n      dup2\n      0x20\n      add\n      0x20\n      dup3\n      mul\n      dup1\n      calldatasize\n      dup4\n      calldatacopy\n      add\n      swap1\n      pop\n    tag_252:\n      pop\n        /* \"contracts/Mooniswap.sol\":10511:10567  uint256[] memory balances = new uint256[](tokens.length) */\n      swap1\n      pop\n        /* \"contracts/Mooniswap.sol\":10582:10588  uint i */\n      0x00\n        /* \"contracts/Mooniswap.sol\":10577:10696  for (uint i = 0; i < balances.length; i++) {... */\n    tag_253:\n        /* \"contracts/Mooniswap.sol\":10598:10606  balances */\n      dup2\n        /* \"contracts/Mooniswap.sol\":10598:10613  balances.length */\n      mload\n        /* \"contracts/Mooniswap.sol\":10594:10595  i */\n      dup2\n        /* \"contracts/Mooniswap.sol\":10594:10613  i < balances.length */\n      lt\n        /* \"contracts/Mooniswap.sol\":10577:10696  for (uint i = 0; i < balances.length; i++) {... */\n      iszero\n      tag_254\n      jumpi\n        /* \"contracts/Mooniswap.sol\":10648:10685  tokens[i].uniBalanceOf(address(this)) */\n      tag_256\n        /* \"contracts/Mooniswap.sol\":10679:10683  this */\n      address\n        /* \"contracts/Mooniswap.sol\":10648:10654  tokens */\n      0x09\n        /* \"contracts/Mooniswap.sol\":10655:10656  i */\n      dup4\n        /* \"contracts/Mooniswap.sol\":10648:10657  tokens[i] */\n      dup2\n      sload\n      dup2\n      lt\n      tag_257\n      jumpi\n      invalid\n    tag_257:\n      0x00\n      swap2\n      dup3\n      mstore\n      0x20\n      swap1\n      swap2\n      keccak256\n      add\n      sload\n      sub(shl(0xa0, 0x01), 0x01)\n      and\n      swap1\n        /* \"contracts/Mooniswap.sol\":10648:10670  tokens[i].uniBalanceOf */\n      tag_224\n        /* \"contracts/Mooniswap.sol\":10648:10685  tokens[i].uniBalanceOf(address(this)) */\n      jump\t// in\n    tag_256:\n        /* \"contracts/Mooniswap.sol\":10634:10642  balances */\n      dup3\n        /* \"contracts/Mooniswap.sol\":10643:10644  i */\n      dup3\n        /* \"contracts/Mooniswap.sol\":10634:10645  balances[i] */\n      dup2\n      mload\n      dup2\n      lt\n      tag_259\n      jumpi\n      invalid\n    tag_259:\n      0x20\n      swap1\n      dup2\n      mul\n      swap2\n      swap1\n      swap2\n      add\n      add\n        /* \"contracts/Mooniswap.sol\":10634:10685  balances[i] = tokens[i].uniBalanceOf(address(this)) */\n      mstore\n        /* \"contracts/Mooniswap.sol\":10615:10618  i++ */\n      0x01\n      add\n        /* \"contracts/Mooniswap.sol\":10577:10696  for (uint i = 0; i < balances.length; i++) {... */\n      jump(tag_253)\n    tag_254:\n      pop\n        /* \"contracts/Mooniswap.sol\":10706:10743  token.uniTransfer(msg.sender, amount) */\n      tag_260\n      sub(shl(0xa0, 0x01), 0x01)\n        /* \"contracts/Mooniswap.sol\":10706:10723  token.uniTransfer */\n      dup5\n      and\n        /* \"contracts/Mooniswap.sol\":10724:10734  msg.sender */\n      caller\n        /* \"contracts/Mooniswap.sol\":10736:10742  amount */\n      dup5\n        /* \"contracts/Mooniswap.sol\":10706:10723  token.uniTransfer */\n      tag_230\n        /* \"contracts/Mooniswap.sol\":10706:10743  token.uniTransfer(msg.sender, amount) */\n      jump\t// in\n    tag_260:\n        /* \"contracts/Mooniswap.sol\":10759:10765  uint i */\n      0x00\n        /* \"contracts/Mooniswap.sol\":10754:10911  for (uint i = 0; i < balances.length; i++) {... */\n    tag_261:\n        /* \"contracts/Mooniswap.sol\":10775:10783  balances */\n      dup2\n        /* \"contracts/Mooniswap.sol\":10775:10790  balances.length */\n      mload\n        /* \"contracts/Mooniswap.sol\":10771:10772  i */\n      dup2\n        /* \"contracts/Mooniswap.sol\":10771:10790  i < balances.length */\n      lt\n        /* \"contracts/Mooniswap.sol\":10754:10911  for (uint i = 0; i < balances.length; i++) {... */\n      iszero\n      tag_262\n      jumpi\n        /* \"contracts/Mooniswap.sol\":10860:10868  balances */\n      dup2\n        /* \"contracts/Mooniswap.sol\":10869:10870  i */\n      dup2\n        /* \"contracts/Mooniswap.sol\":10860:10871  balances[i] */\n      dup2\n      mload\n      dup2\n      lt\n      tag_264\n      jumpi\n      invalid\n    tag_264:\n      0x20\n      mul\n      0x20\n      add\n      add\n      mload\n        /* \"contracts/Mooniswap.sol\":10819:10856  tokens[i].uniBalanceOf(address(this)) */\n      tag_265\n        /* \"contracts/Mooniswap.sol\":10850:10854  this */\n      address\n        /* \"contracts/Mooniswap.sol\":10819:10825  tokens */\n      0x09\n        /* \"contracts/Mooniswap.sol\":10826:10827  i */\n      dup5\n        /* \"contracts/Mooniswap.sol\":10819:10828  tokens[i] */\n      dup2\n      sload\n      dup2\n      lt\n      tag_257\n      jumpi\n      invalid\n        /* \"contracts/Mooniswap.sol\":10819:10856  tokens[i].uniBalanceOf(address(this)) */\n    tag_265:\n        /* \"contracts/Mooniswap.sol\":10819:10871  tokens[i].uniBalanceOf(address(this)) >= balances[i] */\n      lt\n      iszero\n        /* \"contracts/Mooniswap.sol\":10811:10900  require(tokens[i].uniBalanceOf(address(this)) >= balances[i], \"Mooniswap: access denied\") */\n      tag_268\n      jumpi\n      0x40\n      dup1\n      mload\n      shl(0xe5, 0x461bcd)\n      dup2\n      mstore\n      0x20\n      0x04\n      dup3\n      add\n      mstore\n      0x18\n      0x24\n      dup3\n      add\n      mstore\n      shl(0x42, 0x135bdbdb9a5cddd85c0e881858d8d95cdcc819195b9a5959)\n      0x44\n      dup3\n      add\n      mstore\n      swap1\n      mload\n      swap1\n      dup2\n      swap1\n      sub\n      0x64\n      add\n      swap1\n      revert\n    tag_268:\n        /* \"contracts/Mooniswap.sol\":10792:10795  i++ */\n      0x01\n      add\n        /* \"contracts/Mooniswap.sol\":10754:10911  for (uint i = 0; i < balances.length; i++) {... */\n      jump(tag_261)\n    tag_262:\n      pop\n        /* \"contracts/Mooniswap.sol\":2481:2485  1000 */\n      0x03e8\n        /* \"contracts/Mooniswap.sol\":10928:10952  balanceOf(address(this)) */\n      tag_269\n        /* \"contracts/Mooniswap.sol\":10946:10950  this */\n      address\n        /* \"contracts/Mooniswap.sol\":10928:10937  balanceOf */\n      tag_100\n        /* \"contracts/Mooniswap.sol\":10928:10952  balanceOf(address(this)) */\n      jump\t// in\n    tag_269:\n        /* \"contracts/Mooniswap.sol\":10928:10967  balanceOf(address(this)) >= BASE_SUPPLY */\n      lt\n      iszero\n        /* \"contracts/Mooniswap.sol\":10920:10996  require(balanceOf(address(this)) >= BASE_SUPPLY, \"Mooniswap: access denied\") */\n      tag_270\n      jumpi\n      0x40\n      dup1\n      mload\n      shl(0xe5, 0x461bcd)\n      dup2\n      mstore\n      0x20\n      0x04\n      dup3\n      add\n      mstore\n      0x18\n      0x24\n      dup3\n      add\n      mstore\n      shl(0x42, 0x135bdbdb9a5cddd85c0e881858d8d95cdcc819195b9a5959)\n      0x44\n      dup3\n      add\n      mstore\n      swap1\n      mload\n      swap1\n      dup2\n      swap1\n      sub\n      0x64\n      add\n      swap1\n      revert\n    tag_270:\n      pop\n      pop\n        /* \"@openzeppelin/contracts/utils/ReentrancyGuard.sol\":1628:1629  1 */\n      0x01\n        /* \"@openzeppelin/contracts/utils/ReentrancyGuard.sol\":2563:2570  _status */\n      0x06\n        /* \"@openzeppelin/contracts/utils/ReentrancyGuard.sol\":2563:2585  _status = _NOT_ENTERED */\n      sstore\n      pop\n        /* \"contracts/Mooniswap.sol\":10418:11003  function rescueFunds(IERC20 token, uint256 amount) external nonReentrant onlyOwner {... */\n      jump\t// out\n        /* \"@openzeppelin/contracts/access/Ownable.sol\":1066:1143  function owner() public view returns (address) {... */\n    tag_110:\n        /* \"@openzeppelin/contracts/access/Ownable.sol\":1130:1136  _owner */\n      and(sub(shl(0xa0, 0x01), 0x01), sload(0x07))\n        /* \"@openzeppelin/contracts/access/Ownable.sol\":1066:1143  function owner() public view returns (address) {... */\n      swap1\n      jump\t// out\n        /* \"@openzeppelin/contracts/token/ERC20/ERC20.sol\":2413:2498  function symbol() public view returns (string memory) {... */\n    tag_113:\n        /* \"@openzeppelin/contracts/token/ERC20/ERC20.sol\":2484:2491  _symbol */\n      0x04\n        /* \"@openzeppelin/contracts/token/ERC20/ERC20.sol\":2477:2491  return _symbol */\n      dup1\n      sload\n      0x40\n      dup1\n      mload\n      0x20\n      0x1f\n      0x02\n      not(0x00)\n      0x0100\n      0x01\n      dup9\n      and\n      iszero\n      mul\n      add\n      swap1\n      swap6\n      and\n      swap5\n      swap1\n      swap5\n      div\n      swap4\n      dup5\n      add\n      dup2\n      swap1\n      div\n      dup2\n      mul\n      dup3\n      add\n      dup2\n      add\n      swap1\n      swap3\n      mstore\n      dup3\n      dup2\n      mstore\n        /* \"@openzeppelin/contracts/token/ERC20/ERC20.sol\":2452:2465  string memory */\n      0x60\n      swap4\n        /* \"@openzeppelin/contracts/token/ERC20/ERC20.sol\":2477:2491  return _symbol */\n      swap1\n      swap3\n        /* \"@openzeppelin/contracts/token/ERC20/ERC20.sol\":2484:2491  _symbol */\n      swap1\n      swap2\n        /* \"@openzeppelin/contracts/token/ERC20/ERC20.sol\":2477:2491  return _symbol */\n      dup4\n      add\n        /* \"@openzeppelin/contracts/token/ERC20/ERC20.sol\":2484:2491  _symbol */\n      dup3\n        /* \"@openzeppelin/contracts/token/ERC20/ERC20.sol\":2477:2491  return _symbol */\n      dup3\n      dup1\n      iszero\n      tag_180\n      jumpi\n      dup1\n      0x1f\n      lt\n      tag_181\n      jumpi\n      0x0100\n      dup1\n      dup4\n      sload\n      div\n      mul\n      dup4\n      mstore\n      swap2\n      0x20\n      add\n      swap2\n      jump(tag_180)\n        /* \"@openzeppelin/contracts/token/ERC20/ERC20.sol\":6295:6561  function decreaseAllowance(address spender, uint256 subtractedValue) public virtual returns (bool) {... */\n    tag_121:\n        /* \"@openzeppelin/contracts/token/ERC20/ERC20.sol\":6388:6392  bool */\n      0x00\n        /* \"@openzeppelin/contracts/token/ERC20/ERC20.sol\":6404:6533  _approve(_msgSender(), spender, _allowances[_msgSender()][spender].sub(subtractedValue, \"ERC20: decreased allowance below zero\")) */\n      tag_184\n        /* \"@openzeppelin/contracts/token/ERC20/ERC20.sol\":6413:6425  _msgSender() */\n      tag_278\n        /* \"@openzeppelin/contracts/token/ERC20/ERC20.sol\":6413:6423  _msgSender */\n      tag_186\n        /* \"@openzeppelin/contracts/token/ERC20/ERC20.sol\":6413:6425  _msgSender() */\n      jump\t// in\n    tag_278:\n        /* \"@openzeppelin/contracts/token/ERC20/ERC20.sol\":6427:6434  spender */\n      dup5\n        /* \"@openzeppelin/contracts/token/ERC20/ERC20.sol\":6436:6532  _allowances[_msgSender()][spender].sub(subtractedValue, \"ERC20: decreased allowance below zero\") */\n      tag_199\n        /* \"@openzeppelin/contracts/token/ERC20/ERC20.sol\":6475:6490  subtractedValue */\n      dup6\n        /* \"@openzeppelin/contracts/token/ERC20/ERC20.sol\":6436:6532  _allowances[_msgSender()][spender].sub(subtractedValue, \"ERC20: decreased allowance below zero\") */\n      mload(0x40)\n      dup1\n      0x60\n      add\n      0x40\n      mstore\n      dup1\n      0x25\n      dup2\n      mstore\n      0x20\n      add\n      data_f8b476f7d28209d77d4a4ac1fe36b9f8259aa1bb6bddfa6e89de7e51615cf8a8\n      0x25\n      swap2\n      codecopy\n        /* \"@openzeppelin/contracts/token/ERC20/ERC20.sol\":6436:6447  _allowances */\n      0x01\n        /* \"@openzeppelin/contracts/token/ERC20/ERC20.sol\":6436:6461  _allowances[_msgSender()] */\n      0x00\n        /* \"@openzeppelin/contracts/token/ERC20/ERC20.sol\":6448:6460  _msgSender() */\n      tag_280\n        /* \"@openzeppelin/contracts/token/ERC20/ERC20.sol\":6448:6458  _msgSender */\n      tag_186\n        /* \"@openzeppelin/contracts/token/ERC20/ERC20.sol\":6448:6460  _msgSender() */\n      jump\t// in\n    tag_280:\n      sub(shl(0xa0, 0x01), 0x01)\n        /* \"@openzeppelin/contracts/token/ERC20/ERC20.sol\":6436:6461  _allowances[_msgSender()] */\n      swap1\n      dup2\n      and\n      dup3\n      mstore\n      0x20\n      dup1\n      dup4\n      add\n      swap4\n      swap1\n      swap4\n      mstore\n      0x40\n      swap2\n      dup3\n      add\n      0x00\n      swap1\n      dup2\n      keccak256\n        /* \"@openzeppelin/contracts/token/ERC20/ERC20.sol\":6436:6470  _allowances[_msgSender()][spender] */\n      swap2\n      dup14\n      and\n      dup2\n      mstore\n      swap3\n      mstore\n      swap1\n      keccak256\n      sload\n      swap2\n        /* \"@openzeppelin/contracts/token/ERC20/ERC20.sol\":6436:6532  _allowances[_msgSender()][spender].sub(subtractedValue, \"ERC20: decreased allowance below zero\") */\n      swap1\n        /* \"@openzeppelin/contracts/token/ERC20/ERC20.sol\":6436:6474  _allowances[_msgSender()][spender].sub */\n      tag_201\n        /* \"@openzeppelin/contracts/token/ERC20/ERC20.sol\":6436:6532  _allowances[_msgSender()][spender].sub(subtractedValue, \"ERC20: decreased allowance below zero\") */\n      jump\t// in\n        /* \"@openzeppelin/contracts/token/ERC20/ERC20.sol\":3738:3910  function transfer(address recipient, uint256 amount) public virtual override returns (bool) {... */\n    tag_125:\n        /* \"@openzeppelin/contracts/token/ERC20/ERC20.sol\":3824:3828  bool */\n      0x00\n        /* \"@openzeppelin/contracts/token/ERC20/ERC20.sol\":3840:3882  _transfer(_msgSender(), recipient, amount) */\n      tag_184\n        /* \"@openzeppelin/contracts/token/ERC20/ERC20.sol\":3850:3862  _msgSender() */\n      tag_283\n        /* \"@openzeppelin/contracts/token/ERC20/ERC20.sol\":3850:3860  _msgSender */\n      tag_186\n        /* \"@openzeppelin/contracts/token/ERC20/ERC20.sol\":3850:3862  _msgSender() */\n      jump\t// in\n    tag_283:\n        /* \"@openzeppelin/contracts/token/ERC20/ERC20.sol\":3864:3873  recipient */\n      dup5\n        /* \"@openzeppelin/contracts/token/ERC20/ERC20.sol\":3875:3881  amount */\n      dup5\n        /* \"@openzeppelin/contracts/token/ERC20/ERC20.sol\":3840:3849  _transfer */\n      tag_196\n        /* \"@openzeppelin/contracts/token/ERC20/ERC20.sol\":3840:3882  _transfer(_msgSender(), recipient, amount) */\n      jump\t// in\n        /* \"contracts/Mooniswap.sol\":3545:3635  function getTokens() external view returns(IERC20[] memory) {... */\n    tag_128:\n        /* \"contracts/Mooniswap.sol\":3588:3603  IERC20[] memory */\n      0x60\n        /* \"contracts/Mooniswap.sol\":3622:3628  tokens */\n      0x09\n        /* \"contracts/Mooniswap.sol\":3615:3628  return tokens */\n      dup1\n      sload\n      dup1\n      0x20\n      mul\n      0x20\n      add\n      mload(0x40)\n      swap1\n      dup2\n      add\n      0x40\n      mstore\n      dup1\n      swap3\n      swap2\n      swap1\n      dup2\n      dup2\n      mstore\n      0x20\n      add\n      dup3\n      dup1\n      sload\n      dup1\n      iszero\n      tag_180\n      jumpi\n      0x20\n      mul\n      dup3\n      add\n      swap2\n      swap1\n      0x00\n      mstore\n      keccak256(0x00, 0x20)\n      swap1\n    tag_286:\n      dup2\n      sload\n      sub(shl(0xa0, 0x01), 0x01)\n      and\n      dup2\n      mstore\n      0x01\n      swap1\n      swap2\n      add\n      swap1\n      0x20\n      add\n      dup1\n      dup4\n      gt\n      tag_286\n      jumpi\n      pop\n      pop\n      pop\n      pop\n      pop\n      swap1\n      pop\n        /* \"contracts/Mooniswap.sol\":3545:3635  function getTokens() external view returns(IERC20[] memory) {... */\n      swap1\n      jump\t// out\n        /* \"contracts/Mooniswap.sol\":2679:2724  mapping(IERC20 => SwapVolumes) public volumes */\n    tag_135:\n      mstore(0x20, 0x0b)\n      0x00\n      swap1\n      dup2\n      mstore\n      0x40\n      swap1\n      keccak256\n      sload\n      sub(shl(0x80, 0x01), 0x01)\n      dup1\n      dup3\n      and\n      swap2\n      shl(0x80, 0x01)\n      swap1\n      div\n      and\n      dup3\n      jump\t// out\n        /* \"contracts/Mooniswap.sol\":2363:2406  uint256 public constant REFERRAL_SHARE = 20 */\n    tag_138:\n        /* \"contracts/Mooniswap.sol\":2404:2406  20 */\n      0x14\n        /* \"contracts/Mooniswap.sol\":2363:2406  uint256 public constant REFERRAL_SHARE = 20 */\n      dup2\n      jump\t// out\n        /* \"contracts/Mooniswap.sol\":2443:2485  uint256 public constant BASE_SUPPLY = 1000 */\n    tag_141:\n        /* \"contracts/Mooniswap.sol\":2481:2485  1000 */\n      0x03e8\n        /* \"contracts/Mooniswap.sol\":2443:2485  uint256 public constant BASE_SUPPLY = 1000 */\n      dup2\n      jump\t// out\n        /* \"contracts/Mooniswap.sol\":2578:2601  IFactory public factory */\n    tag_144:\n      and(sub(shl(0xa0, 0x01), 0x01), sload(0x08))\n      dup2\n      jump\t// out\n        /* \"contracts/Mooniswap.sol\":7839:10412  function swap(IERC20 src, IERC20 dst, uint256 amount, uint256 minReturn, address referral) external payable nonReentrant returns(uint256 result) {... */\n    tag_147:\n        /* \"contracts/Mooniswap.sol\":7968:7982  uint256 result */\n      0x00\n        /* \"@openzeppelin/contracts/utils/ReentrancyGuard.sol\":1671:1672  2 */\n      0x02\n        /* \"@openzeppelin/contracts/utils/ReentrancyGuard.sol\":2260:2267  _status */\n      sload(0x06)\n        /* \"@openzeppelin/contracts/utils/ReentrancyGuard.sol\":2260:2279  _status != _ENTERED */\n      eq\n      iszero\n        /* \"@openzeppelin/contracts/utils/ReentrancyGuard.sol\":2252:2315  require(_status != _ENTERED, \"ReentrancyGuard: reentrant call\") */\n      tag_288\n      jumpi\n      0x40\n      dup1\n      mload\n      shl(0xe5, 0x461bcd)\n      dup2\n      mstore\n      0x20\n      0x04\n      dup3\n      add\n      mstore\n      0x1f\n      0x24\n      dup3\n      add\n      mstore\n      0x00\n      dup1\n      mload\n      0x20\n      data_0d74825aecb0211bbe1f02ccfb998d9e49771bedb2c6414e20fd8978a2e0f54c\n      dup4\n      codecopy\n      dup2\n      mload\n      swap2\n      mstore\n      0x44\n      dup3\n      add\n      mstore\n      swap1\n      mload\n      swap1\n      dup2\n      swap1\n      sub\n      0x64\n      add\n      swap1\n      revert\n    tag_288:\n        /* \"@openzeppelin/contracts/utils/ReentrancyGuard.sol\":1671:1672  2 */\n      0x02\n        /* \"@openzeppelin/contracts/utils/ReentrancyGuard.sol\":2390:2397  _status */\n      0x06\n        /* \"@openzeppelin/contracts/utils/ReentrancyGuard.sol\":2390:2408  _status = _ENTERED */\n      sstore\n        /* \"contracts/Mooniswap.sol\":8016:8027  src.isETH() */\n      tag_290\n      sub(shl(0xa0, 0x01), 0x01)\n        /* \"contracts/Mooniswap.sol\":8016:8025  src.isETH */\n      dup8\n      and\n      tag_291\n        /* \"contracts/Mooniswap.sol\":8016:8027  src.isETH() */\n      jump\t// in\n    tag_290:\n        /* \"contracts/Mooniswap.sol\":8016:8040  src.isETH() ? amount : 0 */\n      tag_292\n      jumpi\n        /* \"contracts/Mooniswap.sol\":8039:8040  0 */\n      0x00\n        /* \"contracts/Mooniswap.sol\":8016:8040  src.isETH() ? amount : 0 */\n      jump(tag_293)\n    tag_292:\n        /* \"contracts/Mooniswap.sol\":8030:8036  amount */\n      dup4\n        /* \"contracts/Mooniswap.sol\":8016:8040  src.isETH() ? amount : 0 */\n    tag_293:\n        /* \"contracts/Mooniswap.sol\":8002:8011  msg.value */\n      callvalue\n        /* \"contracts/Mooniswap.sol\":8002:8041  msg.value == (src.isETH() ? amount : 0) */\n      eq\n        /* \"contracts/Mooniswap.sol\":7994:8074  require(msg.value == (src.isETH() ? amount : 0), \"Mooniswap: wrong value usage\") */\n      tag_294\n      jumpi\n      0x40\n      dup1\n      mload\n      shl(0xe5, 0x461bcd)\n      dup2\n      mstore\n      0x20\n      0x04\n      dup3\n      add\n      mstore\n      0x1c\n      0x24\n      dup3\n      add\n      mstore\n      0x4d6f6f6e69737761703a2077726f6e672076616c756520757361676500000000\n      0x44\n      dup3\n      add\n      mstore\n      swap1\n      mload\n      swap1\n      dup2\n      swap1\n      sub\n      0x64\n      add\n      swap1\n      revert\n    tag_294:\n        /* \"contracts/Mooniswap.sol\":8085:8109  Balances memory balances */\n      tag_295\n      tag_296\n      jump\t// in\n    tag_295:\n        /* \"contracts/Mooniswap.sol\":8112:8265  Balances({... */\n      mload(0x40)\n      dup1\n      0x40\n      add\n      0x40\n      mstore\n      dup1\n        /* \"contracts/Mooniswap.sol\":8140:8204  src.uniBalanceOf(address(this)).sub(src.isETH() ? msg.value : 0) */\n      tag_297\n        /* \"contracts/Mooniswap.sol\":8176:8187  src.isETH() */\n      tag_298\n        /* \"contracts/Mooniswap.sol\":8176:8179  src */\n      dup11\n      sub(shl(0xa0, 0x01), 0x01)\n        /* \"contracts/Mooniswap.sol\":8176:8185  src.isETH */\n      and\n      tag_291\n        /* \"contracts/Mooniswap.sol\":8176:8187  src.isETH() */\n      jump\t// in\n    tag_298:\n        /* \"contracts/Mooniswap.sol\":8176:8203  src.isETH() ? msg.value : 0 */\n      tag_299\n      jumpi\n        /* \"contracts/Mooniswap.sol\":8202:8203  0 */\n      0x00\n        /* \"contracts/Mooniswap.sol\":8176:8203  src.isETH() ? msg.value : 0 */\n      jump(tag_300)\n    tag_299:\n        /* \"contracts/Mooniswap.sol\":8190:8199  msg.value */\n      callvalue\n        /* \"contracts/Mooniswap.sol\":8176:8203  src.isETH() ? msg.value : 0 */\n    tag_300:\n        /* \"contracts/Mooniswap.sol\":8140:8171  src.uniBalanceOf(address(this)) */\n      tag_301\n      sub(shl(0xa0, 0x01), 0x01)\n        /* \"contracts/Mooniswap.sol\":8140:8156  src.uniBalanceOf */\n      dup13\n      and\n        /* \"contracts/Mooniswap.sol\":8165:8169  this */\n      address\n        /* \"contracts/Mooniswap.sol\":8140:8156  src.uniBalanceOf */\n      tag_224\n        /* \"contracts/Mooniswap.sol\":8140:8171  src.uniBalanceOf(address(this)) */\n      jump\t// in\n    tag_301:\n        /* \"contracts/Mooniswap.sol\":8140:8175  src.uniBalanceOf(address(this)).sub */\n      swap1\n      tag_236\n        /* \"contracts/Mooniswap.sol\":8140:8204  src.uniBalanceOf(address(this)).sub(src.isETH() ? msg.value : 0) */\n      jump\t// in\n    tag_297:\n        /* \"contracts/Mooniswap.sol\":8112:8265  Balances({... */\n      dup2\n      mstore\n      0x20\n      add\n        /* \"contracts/Mooniswap.sol\":8223:8254  dst.uniBalanceOf(address(this)) */\n      tag_302\n      sub(shl(0xa0, 0x01), 0x01)\n        /* \"contracts/Mooniswap.sol\":8223:8239  dst.uniBalanceOf */\n      dup10\n      and\n        /* \"contracts/Mooniswap.sol\":8248:8252  this */\n      address\n        /* \"contracts/Mooniswap.sol\":8223:8239  dst.uniBalanceOf */\n      tag_224\n        /* \"contracts/Mooniswap.sol\":8223:8254  dst.uniBalanceOf(address(this)) */\n      jump\t// in\n    tag_302:\n        /* \"contracts/Mooniswap.sol\":8112:8265  Balances({... */\n      swap1\n      mstore\n        /* \"contracts/Mooniswap.sol\":8442:8454  balances.src */\n      dup1\n      mload\n      sub(shl(0xa0, 0x01), 0x01)\n        /* \"contracts/Mooniswap.sol\":8402:8433  virtualBalancesForAddition[src] */\n      dup10\n      and\n        /* \"contracts/Mooniswap.sol\":8364:8390  uint256 srcAdditionBalance */\n      0x00\n        /* \"contracts/Mooniswap.sol\":8402:8433  virtualBalancesForAddition[src] */\n      swap1\n      dup2\n      mstore\n        /* \"contracts/Mooniswap.sol\":8402:8428  virtualBalancesForAddition */\n      0x0c\n        /* \"contracts/Mooniswap.sol\":8402:8433  virtualBalancesForAddition[src] */\n      0x20\n      swap1\n      dup2\n      mstore\n      0x40\n      dup1\n      dup4\n      keccak256\n        /* \"contracts/Mooniswap.sol\":8402:8441  virtualBalancesForAddition[src].current */\n      dup2\n      mload\n      dup1\n      dup4\n      add\n      swap1\n      swap3\n      mstore\n      sload\n      sub(shl(0xd8, 0x01), 0x01)\n      dup2\n      and\n      dup3\n      mstore\n      shl(0xd8, 0x01)\n      swap1\n      div\n      0xffffffffff\n      and\n      swap2\n      dup2\n      add\n      swap2\n      swap1\n      swap2\n      mstore\n        /* \"contracts/Mooniswap.sol\":8442:8454  balances.src */\n      swap3\n      swap4\n      pop\n        /* \"contracts/Mooniswap.sol\":8364:8390  uint256 srcAdditionBalance */\n      swap2\n        /* \"contracts/Mooniswap.sol\":8393:8470  Math.max(virtualBalancesForAddition[src].current(balances.src), balances.src) */\n      tag_303\n      swap2\n        /* \"contracts/Mooniswap.sol\":8402:8455  virtualBalancesForAddition[src].current(balances.src) */\n      tag_304\n      swap2\n        /* \"contracts/Mooniswap.sol\":8402:8441  virtualBalancesForAddition[src].current */\n      swap1\n      tag_305\n        /* \"contracts/Mooniswap.sol\":8402:8455  virtualBalancesForAddition[src].current(balances.src) */\n      jump\t// in\n    tag_304:\n        /* \"contracts/Mooniswap.sol\":8457:8469  balances.src */\n      dup4\n      mload\n        /* \"contracts/Mooniswap.sol\":8393:8401  Math.max */\n      tag_306\n        /* \"contracts/Mooniswap.sol\":8393:8470  Math.max(virtualBalancesForAddition[src].current(balances.src), balances.src) */\n      jump\t// in\n    tag_303:\n        /* \"contracts/Mooniswap.sol\":8556:8568  balances.dst */\n      0x20\n      dup4\n      dup2\n      add\n      mload\n      sub(shl(0xa0, 0x01), 0x01)\n        /* \"contracts/Mooniswap.sol\":8517:8547  virtualBalancesForRemoval[dst] */\n      dup11\n      and\n        /* \"contracts/Mooniswap.sol\":8480:8505  uint256 dstRemovalBalance */\n      0x00\n        /* \"contracts/Mooniswap.sol\":8517:8547  virtualBalancesForRemoval[dst] */\n      swap1\n      dup2\n      mstore\n        /* \"contracts/Mooniswap.sol\":8517:8542  virtualBalancesForRemoval */\n      0x0d\n        /* \"contracts/Mooniswap.sol\":8517:8547  virtualBalancesForRemoval[dst] */\n      dup4\n      mstore\n      0x40\n      dup1\n      dup3\n      keccak256\n        /* \"contracts/Mooniswap.sol\":8517:8555  virtualBalancesForRemoval[dst].current */\n      dup2\n      mload\n      dup1\n      dup4\n      add\n      swap1\n      swap3\n      mstore\n      sload\n      sub(shl(0xd8, 0x01), 0x01)\n      dup2\n      and\n      dup3\n      mstore\n      shl(0xd8, 0x01)\n      swap1\n      div\n      0xffffffffff\n      and\n      swap4\n      dup2\n      add\n      swap4\n      swap1\n      swap4\n      mstore\n        /* \"contracts/Mooniswap.sol\":8364:8470  uint256 srcAdditionBalance = Math.max(virtualBalancesForAddition[src].current(balances.src), balances.src) */\n      swap3\n      swap4\n      pop\n        /* \"contracts/Mooniswap.sol\":8508:8584  Math.min(virtualBalancesForRemoval[dst].current(balances.dst), balances.dst) */\n      tag_307\n      swap2\n        /* \"contracts/Mooniswap.sol\":8517:8569  virtualBalancesForRemoval[dst].current(balances.dst) */\n      tag_308\n      swap2\n        /* \"contracts/Mooniswap.sol\":8517:8555  virtualBalancesForRemoval[dst].current */\n      tag_305\n        /* \"contracts/Mooniswap.sol\":8517:8569  virtualBalancesForRemoval[dst].current(balances.dst) */\n      jump\t// in\n    tag_308:\n        /* \"contracts/Mooniswap.sol\":8571:8579  balances */\n      dup5\n        /* \"contracts/Mooniswap.sol\":8571:8583  balances.dst */\n      0x20\n      add\n      mload\n        /* \"contracts/Mooniswap.sol\":8508:8516  Math.min */\n      tag_309\n        /* \"contracts/Mooniswap.sol\":8508:8584  Math.min(virtualBalancesForRemoval[dst].current(balances.dst), balances.dst) */\n      jump\t// in\n    tag_307:\n        /* \"contracts/Mooniswap.sol\":8480:8584  uint256 dstRemovalBalance = Math.min(virtualBalancesForRemoval[dst].current(balances.dst), balances.dst) */\n      swap1\n      pop\n        /* \"contracts/Mooniswap.sol\":8595:8634  src.uniTransferFromSenderToThis(amount) */\n      tag_310\n      sub(shl(0xa0, 0x01), 0x01)\n        /* \"contracts/Mooniswap.sol\":8595:8626  src.uniTransferFromSenderToThis */\n      dup11\n      and\n        /* \"contracts/Mooniswap.sol\":8627:8633  amount */\n      dup9\n        /* \"contracts/Mooniswap.sol\":8595:8626  src.uniTransferFromSenderToThis */\n      tag_311\n        /* \"contracts/Mooniswap.sol\":8595:8634  src.uniTransferFromSenderToThis(amount) */\n      jump\t// in\n    tag_310:\n        /* \"contracts/Mooniswap.sol\":8700:8712  balances.src */\n      dup3\n      mload\n        /* \"contracts/Mooniswap.sol\":8644:8661  uint256 confirmed */\n      0x00\n      swap1\n        /* \"contracts/Mooniswap.sol\":8664:8713  src.uniBalanceOf(address(this)).sub(balances.src) */\n      tag_312\n      swap1\n        /* \"contracts/Mooniswap.sol\":8664:8695  src.uniBalanceOf(address(this)) */\n      tag_301\n      sub(shl(0xa0, 0x01), 0x01)\n        /* \"contracts/Mooniswap.sol\":8664:8680  src.uniBalanceOf */\n      dup14\n      and\n        /* \"contracts/Mooniswap.sol\":8689:8693  this */\n      address\n        /* \"contracts/Mooniswap.sol\":8664:8680  src.uniBalanceOf */\n      tag_224\n        /* \"contracts/Mooniswap.sol\":8664:8695  src.uniBalanceOf(address(this)) */\n      jump\t// in\n        /* \"contracts/Mooniswap.sol\":8664:8713  src.uniBalanceOf(address(this)).sub(balances.src) */\n    tag_312:\n        /* \"contracts/Mooniswap.sol\":8644:8713  uint256 confirmed = src.uniBalanceOf(address(this)).sub(balances.src) */\n      swap1\n      pop\n        /* \"contracts/Mooniswap.sol\":8732:8802  _getReturn(src, dst, confirmed, srcAdditionBalance, dstRemovalBalance) */\n      tag_314\n        /* \"contracts/Mooniswap.sol\":8743:8746  src */\n      dup11\n        /* \"contracts/Mooniswap.sol\":8748:8751  dst */\n      dup11\n        /* \"contracts/Mooniswap.sol\":8753:8762  confirmed */\n      dup4\n        /* \"contracts/Mooniswap.sol\":8764:8782  srcAdditionBalance */\n      dup7\n        /* \"contracts/Mooniswap.sol\":8784:8801  dstRemovalBalance */\n      dup7\n        /* \"contracts/Mooniswap.sol\":8732:8742  _getReturn */\n      tag_193\n        /* \"contracts/Mooniswap.sol\":8732:8802  _getReturn(src, dst, confirmed, srcAdditionBalance, dstRemovalBalance) */\n      jump\t// in\n    tag_314:\n        /* \"contracts/Mooniswap.sol\":8723:8802  result = _getReturn(src, dst, confirmed, srcAdditionBalance, dstRemovalBalance) */\n      swap5\n      pop\n        /* \"contracts/Mooniswap.sol\":8829:8830  0 */\n      0x00\n        /* \"contracts/Mooniswap.sol\":8820:8826  result */\n      dup6\n        /* \"contracts/Mooniswap.sol\":8820:8830  result > 0 */\n      gt\n        /* \"contracts/Mooniswap.sol\":8820:8853  result > 0 && result >= minReturn */\n      dup1\n      iszero\n      tag_315\n      jumpi\n      pop\n        /* \"contracts/Mooniswap.sol\":8844:8853  minReturn */\n      dup7\n        /* \"contracts/Mooniswap.sol\":8834:8840  result */\n      dup6\n        /* \"contracts/Mooniswap.sol\":8834:8853  result >= minReturn */\n      lt\n      iszero\n        /* \"contracts/Mooniswap.sol\":8820:8853  result > 0 && result >= minReturn */\n    tag_315:\n        /* \"contracts/Mooniswap.sol\":8812:8889  require(result > 0 && result >= minReturn, \"Mooniswap: return is not enough\") */\n      tag_316\n      jumpi\n      0x40\n      dup1\n      mload\n      shl(0xe5, 0x461bcd)\n      dup2\n      mstore\n      0x20\n      0x04\n      dup3\n      add\n      mstore\n      0x1f\n      0x24\n      dup3\n      add\n      mstore\n      0x4d6f6f6e69737761703a2072657475726e206973206e6f7420656e6f75676800\n      0x44\n      dup3\n      add\n      mstore\n      swap1\n      mload\n      swap1\n      dup2\n      swap1\n      sub\n      0x64\n      add\n      swap1\n      revert\n    tag_316:\n        /* \"contracts/Mooniswap.sol\":8899:8934  dst.uniTransfer(msg.sender, result) */\n      tag_317\n      sub(shl(0xa0, 0x01), 0x01)\n        /* \"contracts/Mooniswap.sol\":8899:8914  dst.uniTransfer */\n      dup11\n      and\n        /* \"contracts/Mooniswap.sol\":8915:8925  msg.sender */\n      caller\n        /* \"contracts/Mooniswap.sol\":8927:8933  result */\n      dup8\n        /* \"contracts/Mooniswap.sol\":8899:8914  dst.uniTransfer */\n      tag_230\n        /* \"contracts/Mooniswap.sol\":8899:8934  dst.uniTransfer(msg.sender, result) */\n      jump\t// in\n    tag_317:\n        /* \"contracts/Mooniswap.sol\":9053:9065  balances.src */\n      dup4\n      mload\n        /* \"contracts/Mooniswap.sol\":9031:9065  srcAdditionBalance != balances.src */\n      dup4\n      eq\n        /* \"contracts/Mooniswap.sol\":9027:9162  if (srcAdditionBalance != balances.src) {... */\n      tag_319\n      jumpi\n        /* \"contracts/Mooniswap.sol\":9081:9151  virtualBalancesForAddition[src].set(srcAdditionBalance.add(confirmed)) */\n      tag_319\n        /* \"contracts/Mooniswap.sol\":9117:9150  srcAdditionBalance.add(confirmed) */\n      tag_320\n        /* \"contracts/Mooniswap.sol\":9117:9135  srcAdditionBalance */\n      dup5\n        /* \"contracts/Mooniswap.sol\":9140:9149  confirmed */\n      dup4\n        /* \"contracts/Mooniswap.sol\":9117:9139  srcAdditionBalance.add */\n      tag_208\n        /* \"contracts/Mooniswap.sol\":9117:9150  srcAdditionBalance.add(confirmed) */\n      jump\t// in\n    tag_320:\n      sub(shl(0xa0, 0x01), 0x01)\n        /* \"contracts/Mooniswap.sol\":9081:9112  virtualBalancesForAddition[src] */\n      dup13\n      and\n      0x00\n      swap1\n      dup2\n      mstore\n        /* \"contracts/Mooniswap.sol\":9081:9107  virtualBalancesForAddition */\n      0x0c\n        /* \"contracts/Mooniswap.sol\":9081:9112  virtualBalancesForAddition[src] */\n      0x20\n      mstore\n      0x40\n      swap1\n      keccak256\n      swap1\n        /* \"contracts/Mooniswap.sol\":9081:9116  virtualBalancesForAddition[src].set */\n      tag_321\n        /* \"contracts/Mooniswap.sol\":9081:9151  virtualBalancesForAddition[src].set(srcAdditionBalance.add(confirmed)) */\n      jump\t// in\n    tag_319:\n        /* \"contracts/Mooniswap.sol\":9196:9204  balances */\n      dup4\n        /* \"contracts/Mooniswap.sol\":9196:9208  balances.dst */\n      0x20\n      add\n      mload\n        /* \"contracts/Mooniswap.sol\":9175:9192  dstRemovalBalance */\n      dup3\n        /* \"contracts/Mooniswap.sol\":9175:9208  dstRemovalBalance != balances.dst */\n      eq\n        /* \"contracts/Mooniswap.sol\":9171:9300  if (dstRemovalBalance != balances.dst) {... */\n      tag_323\n      jumpi\n        /* \"contracts/Mooniswap.sol\":9224:9289  virtualBalancesForRemoval[dst].set(dstRemovalBalance.sub(result)) */\n      tag_323\n        /* \"contracts/Mooniswap.sol\":9259:9288  dstRemovalBalance.sub(result) */\n      tag_324\n        /* \"contracts/Mooniswap.sol\":9259:9276  dstRemovalBalance */\n      dup4\n        /* \"contracts/Mooniswap.sol\":9281:9287  result */\n      dup8\n        /* \"contracts/Mooniswap.sol\":9259:9280  dstRemovalBalance.sub */\n      tag_236\n        /* \"contracts/Mooniswap.sol\":9259:9288  dstRemovalBalance.sub(result) */\n      jump\t// in\n    tag_324:\n      sub(shl(0xa0, 0x01), 0x01)\n        /* \"contracts/Mooniswap.sol\":9224:9254  virtualBalancesForRemoval[dst] */\n      dup12\n      and\n      0x00\n      swap1\n      dup2\n      mstore\n        /* \"contracts/Mooniswap.sol\":9224:9249  virtualBalancesForRemoval */\n      0x0d\n        /* \"contracts/Mooniswap.sol\":9224:9254  virtualBalancesForRemoval[dst] */\n      0x20\n      mstore\n      0x40\n      swap1\n      keccak256\n      swap1\n        /* \"contracts/Mooniswap.sol\":9224:9258  virtualBalancesForRemoval[dst].set */\n      tag_321\n        /* \"contracts/Mooniswap.sol\":9224:9289  virtualBalancesForRemoval[dst].set(dstRemovalBalance.sub(result)) */\n      jump\t// in\n    tag_323:\n        /* \"contracts/Mooniswap.sol\":9409:9421  balances.src */\n      dup4\n      mload\n      sub(shl(0xa0, 0x01), 0x01)\n        /* \"contracts/Mooniswap.sol\":9371:9401  virtualBalancesForRemoval[src] */\n      dup12\n      and\n        /* \"contracts/Mooniswap.sol\":9409:9421  balances.src */\n      0x00\n        /* \"contracts/Mooniswap.sol\":9371:9401  virtualBalancesForRemoval[src] */\n      swap1\n      dup2\n      mstore\n        /* \"contracts/Mooniswap.sol\":9371:9396  virtualBalancesForRemoval */\n      0x0d\n        /* \"contracts/Mooniswap.sol\":9371:9401  virtualBalancesForRemoval[src] */\n      0x20\n      mstore\n      0x40\n      swap1\n      keccak256\n        /* \"contracts/Mooniswap.sol\":9371:9422  virtualBalancesForRemoval[src].update(balances.src) */\n      tag_325\n      swap2\n        /* \"contracts/Mooniswap.sol\":9371:9408  virtualBalancesForRemoval[src].update */\n      tag_326\n        /* \"contracts/Mooniswap.sol\":9371:9422  virtualBalancesForRemoval[src].update(balances.src) */\n      jump\t// in\n    tag_325:\n        /* \"contracts/Mooniswap.sol\":9471:9483  balances.dst */\n      0x20\n      dup1\n      dup6\n      add\n      mload\n      sub(shl(0xa0, 0x01), 0x01)\n        /* \"contracts/Mooniswap.sol\":9432:9463  virtualBalancesForAddition[dst] */\n      dup12\n      and\n      0x00\n      swap1\n      dup2\n      mstore\n        /* \"contracts/Mooniswap.sol\":9432:9458  virtualBalancesForAddition */\n      0x0c\n        /* \"contracts/Mooniswap.sol\":9432:9463  virtualBalancesForAddition[dst] */\n      swap1\n      swap3\n      mstore\n      0x40\n      swap1\n      swap2\n      keccak256\n        /* \"contracts/Mooniswap.sol\":9432:9484  virtualBalancesForAddition[dst].update(balances.dst) */\n      tag_327\n      swap2\n        /* \"contracts/Mooniswap.sol\":9432:9470  virtualBalancesForAddition[dst].update */\n      tag_326\n        /* \"contracts/Mooniswap.sol\":9432:9484  virtualBalancesForAddition[dst].update(balances.dst) */\n      jump\t// in\n    tag_327:\n      sub(shl(0xa0, 0x01), 0x01)\n        /* \"contracts/Mooniswap.sol\":9499:9521  referral != address(0) */\n      dup7\n      and\n      iszero\n        /* \"contracts/Mooniswap.sol\":9495:10126  if (referral != address(0)) {... */\n      tag_328\n      jumpi\n        /* \"contracts/Mooniswap.sol\":9658:9670  balances.src */\n      dup4\n      mload\n        /* \"contracts/Mooniswap.sol\":9570:9574  1e36 */\n      0xc097ce7bc90715b34b9f1000000000\n      swap1\n        /* \"contracts/Mooniswap.sol\":9606:9671  invariantRatio.mul(balances.src.add(confirmed)).div(balances.src) */\n      tag_329\n      swap1\n        /* \"contracts/Mooniswap.sol\":9606:9653  invariantRatio.mul(balances.src.add(confirmed)) */\n      tag_226\n        /* \"contracts/Mooniswap.sol\":9625:9652  balances.src.add(confirmed) */\n      tag_331\n        /* \"contracts/Mooniswap.sol\":9658:9670  balances.src */\n      dup3\n        /* \"contracts/Mooniswap.sol\":9642:9651  confirmed */\n      dup7\n        /* \"contracts/Mooniswap.sol\":9625:9641  balances.src.add */\n      tag_208\n        /* \"contracts/Mooniswap.sol\":9625:9652  balances.src.add(confirmed) */\n      jump\t// in\n    tag_331:\n        /* \"contracts/Mooniswap.sol\":9606:9620  invariantRatio */\n      dup5\n      swap1\n        /* \"contracts/Mooniswap.sol\":9606:9624  invariantRatio.mul */\n      tag_227\n        /* \"contracts/Mooniswap.sol\":9606:9653  invariantRatio.mul(balances.src.add(confirmed)) */\n      jump\t// in\n        /* \"contracts/Mooniswap.sol\":9606:9671  invariantRatio.mul(balances.src.add(confirmed)).div(balances.src) */\n    tag_329:\n        /* \"contracts/Mooniswap.sol\":9751:9763  balances.dst */\n      0x20\n      dup7\n      add\n      mload\n        /* \"contracts/Mooniswap.sol\":9589:9671  invariantRatio = invariantRatio.mul(balances.src.add(confirmed)).div(balances.src) */\n      swap1\n      swap2\n      pop\n        /* \"contracts/Mooniswap.sol\":9702:9764  invariantRatio.mul(balances.dst.sub(result)).div(balances.dst) */\n      tag_332\n      swap1\n        /* \"contracts/Mooniswap.sol\":9702:9746  invariantRatio.mul(balances.dst.sub(result)) */\n      tag_226\n        /* \"contracts/Mooniswap.sol\":9721:9745  balances.dst.sub(result) */\n      tag_331\n        /* \"contracts/Mooniswap.sol\":9751:9763  balances.dst */\n      dup3\n        /* \"contracts/Mooniswap.sol\":9738:9744  result */\n      dup11\n        /* \"contracts/Mooniswap.sol\":9721:9737  balances.dst.sub */\n      tag_236\n        /* \"contracts/Mooniswap.sol\":9721:9745  balances.dst.sub(result) */\n      jump\t// in\n        /* \"contracts/Mooniswap.sol\":9702:9764  invariantRatio.mul(balances.dst.sub(result)).div(balances.dst) */\n    tag_332:\n        /* \"contracts/Mooniswap.sol\":9685:9764  invariantRatio = invariantRatio.mul(balances.dst.sub(result)).div(balances.dst) */\n      swap1\n      pop\n        /* \"contracts/Mooniswap.sol\":9799:9803  1e36 */\n      0xc097ce7bc90715b34b9f1000000000\n        /* \"contracts/Mooniswap.sol\":9782:9796  invariantRatio */\n      dup2\n        /* \"contracts/Mooniswap.sol\":9782:9803  invariantRatio > 1e36 */\n      gt\n        /* \"contracts/Mooniswap.sol\":9778:10116  if (invariantRatio > 1e36) {... */\n      iszero\n      tag_335\n      jumpi\n        /* \"contracts/Mooniswap.sol\":9886:9907  uint256 referralShare */\n      0x00\n        /* \"contracts/Mooniswap.sol\":9910:9990  invariantRatio.sqrt().sub(1e18).mul(totalSupply()).div(1e18).div(REFERRAL_SHARE) */\n      tag_336\n        /* \"contracts/Mooniswap.sol\":2404:2406  20 */\n      0x14\n        /* \"contracts/Mooniswap.sol\":9910:9970  invariantRatio.sqrt().sub(1e18).mul(totalSupply()).div(1e18) */\n      tag_226\n        /* \"contracts/Mooniswap.sol\":9965:9969  1e18 */\n      0x0de0b6b3a7640000\n        /* \"contracts/Mooniswap.sol\":9910:9960  invariantRatio.sqrt().sub(1e18).mul(totalSupply()) */\n      tag_226\n        /* \"contracts/Mooniswap.sol\":9946:9959  totalSupply() */\n      tag_339\n        /* \"contracts/Mooniswap.sol\":9946:9957  totalSupply */\n      tag_55\n        /* \"contracts/Mooniswap.sol\":9946:9959  totalSupply() */\n      jump\t// in\n    tag_339:\n        /* \"contracts/Mooniswap.sol\":9910:9941  invariantRatio.sqrt().sub(1e18) */\n      tag_340\n        /* \"contracts/Mooniswap.sol\":9936:9940  1e18 */\n      0x0de0b6b3a7640000\n        /* \"contracts/Mooniswap.sol\":9910:9931  invariantRatio.sqrt() */\n      tag_301\n        /* \"contracts/Mooniswap.sol\":9910:9924  invariantRatio */\n      dup11\n        /* \"contracts/Mooniswap.sol\":9910:9929  invariantRatio.sqrt */\n      tag_342\n        /* \"contracts/Mooniswap.sol\":9910:9931  invariantRatio.sqrt() */\n      jump\t// in\n        /* \"contracts/Mooniswap.sol\":9910:9941  invariantRatio.sqrt().sub(1e18) */\n    tag_340:\n        /* \"contracts/Mooniswap.sol\":9910:9945  invariantRatio.sqrt().sub(1e18).mul */\n      swap1\n      tag_227\n        /* \"contracts/Mooniswap.sol\":9910:9960  invariantRatio.sqrt().sub(1e18).mul(totalSupply()) */\n      jump\t// in\n        /* \"contracts/Mooniswap.sol\":9910:9990  invariantRatio.sqrt().sub(1e18).mul(totalSupply()).div(1e18).div(REFERRAL_SHARE) */\n    tag_336:\n        /* \"contracts/Mooniswap.sol\":9886:9990  uint256 referralShare = invariantRatio.sqrt().sub(1e18).mul(totalSupply()).div(1e18).div(REFERRAL_SHARE) */\n      swap1\n      pop\n        /* \"contracts/Mooniswap.sol\":10012:10029  referralShare > 0 */\n      dup1\n      iszero\n        /* \"contracts/Mooniswap.sol\":10008:10102  if (referralShare > 0) {... */\n      tag_344\n      jumpi\n        /* \"contracts/Mooniswap.sol\":10053:10083  _mint(referral, referralShare) */\n      tag_344\n        /* \"contracts/Mooniswap.sol\":10059:10067  referral */\n      dup9\n        /* \"contracts/Mooniswap.sol\":10069:10082  referralShare */\n      dup3\n        /* \"contracts/Mooniswap.sol\":10053:10058  _mint */\n      tag_345\n        /* \"contracts/Mooniswap.sol\":10053:10083  _mint(referral, referralShare) */\n      jump\t// in\n    tag_344:\n        /* \"contracts/Mooniswap.sol\":9778:10116  if (invariantRatio > 1e36) {... */\n      pop\n    tag_335:\n        /* \"contracts/Mooniswap.sol\":9495:10126  if (referral != address(0)) {... */\n      pop\n    tag_328:\n        /* \"contracts/Mooniswap.sol\":10183:10186  dst */\n      dup9\n      sub(shl(0xa0, 0x01), 0x01)\n        /* \"contracts/Mooniswap.sol\":10141:10260  Swapped(msg.sender, address(src), address(dst), confirmed, result, balances.src, balances.dst, totalSupply(), referral) */\n      and\n        /* \"contracts/Mooniswap.sol\":10169:10172  src */\n      dup11\n      sub(shl(0xa0, 0x01), 0x01)\n        /* \"contracts/Mooniswap.sol\":10141:10260  Swapped(msg.sender, address(src), address(dst), confirmed, result, balances.src, balances.dst, totalSupply(), referral) */\n      and\n        /* \"contracts/Mooniswap.sol\":10149:10159  msg.sender */\n      caller\n      sub(shl(0xa0, 0x01), 0x01)\n        /* \"contracts/Mooniswap.sol\":10141:10260  Swapped(msg.sender, address(src), address(dst), confirmed, result, balances.src, balances.dst, totalSupply(), referral) */\n      and\n      0x86c49b5d8577da08444947f1427d23ef191cfabf2c0788f93324d79e926a9302\n        /* \"contracts/Mooniswap.sol\":10189:10198  confirmed */\n      dup5\n        /* \"contracts/Mooniswap.sol\":10200:10206  result */\n      dup10\n        /* \"contracts/Mooniswap.sol\":10208:10216  balances */\n      dup10\n        /* \"contracts/Mooniswap.sol\":10208:10220  balances.src */\n      0x00\n      add\n      mload\n        /* \"contracts/Mooniswap.sol\":10222:10230  balances */\n      dup11\n        /* \"contracts/Mooniswap.sol\":10222:10234  balances.dst */\n      0x20\n      add\n      mload\n        /* \"contracts/Mooniswap.sol\":10236:10249  totalSupply() */\n      tag_346\n        /* \"contracts/Mooniswap.sol\":10236:10247  totalSupply */\n      tag_55\n        /* \"contracts/Mooniswap.sol\":10236:10249  totalSupply() */\n      jump\t// in\n    tag_346:\n        /* \"contracts/Mooniswap.sol\":10141:10260  Swapped(msg.sender, address(src), address(dst), confirmed, result, balances.src, balances.dst, totalSupply(), referral) */\n      0x40\n      dup1\n      mload\n      swap6\n      dup7\n      mstore\n      0x20\n      dup7\n      add\n      swap5\n      swap1\n      swap5\n      mstore\n      dup5\n      dup5\n      add\n      swap3\n      swap1\n      swap3\n      mstore\n      0x60\n      dup5\n      add\n      mstore\n      0x80\n      dup4\n      add\n      mstore\n      sub(shl(0xa0, 0x01), 0x01)\n      dup13\n      and\n      0xa0\n      dup4\n      add\n      mstore\n      mload\n      swap1\n      dup2\n      swap1\n      sub\n      0xc0\n      add\n      swap1\n      log4\n      sub(shl(0xa0, 0x01), 0x01)\n        /* \"contracts/Mooniswap.sol\":10313:10325  volumes[src] */\n      swap1\n      swap10\n      and\n      0x00\n      swap1\n      dup2\n      mstore\n        /* \"contracts/Mooniswap.sol\":10313:10320  volumes */\n      0x0b\n        /* \"contracts/Mooniswap.sol\":10313:10325  volumes[src] */\n      0x20\n      mstore\n      0x40\n      swap1\n      keccak256\n        /* \"contracts/Mooniswap.sol\":10313:10357  volumes[src].confirmed += uint128(confirmed) */\n      dup1\n      sload\n      shl(0x80, 0x01)\n      sub(shl(0x80, 0x01), 0x01)\n      dup1\n      dup4\n      and\n      swap1\n      swap13\n      add\n      dup13\n      and\n      not(0xffffffffffffffffffffffffffffffff)\n      swap1\n      swap3\n      and\n      swap2\n      swap1\n      swap2\n      or\n        /* \"contracts/Mooniswap.sol\":10367:10405  volumes[src].result += uint128(result) */\n      dup2\n      dup2\n      div\n      dup13\n      and\n      dup8\n      add\n      dup13\n      and\n      swap1\n      swap2\n      mul\n      swap11\n      and\n      swap10\n      swap1\n      swap10\n      or\n      swap1\n      swap9\n      sstore\n      pop\n      pop\n        /* \"contracts/Mooniswap.sol\":10313:10357  volumes[src].confirmed += uint128(confirmed) */\n      0x01\n        /* \"@openzeppelin/contracts/utils/ReentrancyGuard.sol\":2563:2570  _status */\n      0x06\n        /* \"@openzeppelin/contracts/utils/ReentrancyGuard.sol\":2563:2585  _status = _NOT_ENTERED */\n      sstore\n        /* \"contracts/Mooniswap.sol\":10398:10404  result */\n      swap6\n        /* \"contracts/Mooniswap.sol\":7839:10412  function swap(IERC20 src, IERC20 dst, uint256 amount, uint256 minReturn, address referral) external payable nonReentrant returns(uint256 result) {... */\n      swap5\n      pop\n      pop\n      pop\n      pop\n      pop\n      jump\t// out\n        /* \"contracts/Mooniswap.sol\":2525:2571  uint256 public constant FEE_DENOMINATOR = 1e18 */\n    tag_150:\n        /* \"contracts/Mooniswap.sol\":2567:2571  1e18 */\n      0x0de0b6b3a7640000\n        /* \"contracts/Mooniswap.sol\":2525:2571  uint256 public constant FEE_DENOMINATOR = 1e18 */\n      dup2\n      jump\t// out\n        /* \"contracts/Mooniswap.sol\":3752:3980  function getBalanceForAddition(IERC20 token) public view returns(uint256) {... */\n    tag_154:\n        /* \"contracts/Mooniswap.sol\":3817:3824  uint256 */\n      0x00\n      dup1\n        /* \"contracts/Mooniswap.sol\":3854:3887  token.uniBalanceOf(address(this)) */\n      tag_348\n      sub(shl(0xa0, 0x01), 0x01)\n        /* \"contracts/Mooniswap.sol\":3854:3872  token.uniBalanceOf */\n      dup5\n      and\n        /* \"contracts/Mooniswap.sol\":3881:3885  this */\n      address\n        /* \"contracts/Mooniswap.sol\":3854:3872  token.uniBalanceOf */\n      tag_224\n        /* \"contracts/Mooniswap.sol\":3854:3887  token.uniBalanceOf(address(this)) */\n      jump\t// in\n    tag_348:\n      sub(shl(0xa0, 0x01), 0x01)\n        /* \"contracts/Mooniswap.sol\":3913:3946  virtualBalancesForAddition[token] */\n      dup5\n      and\n      0x00\n      swap1\n      dup2\n      mstore\n        /* \"contracts/Mooniswap.sol\":3913:3939  virtualBalancesForAddition */\n      0x0c\n        /* \"contracts/Mooniswap.sol\":3913:3946  virtualBalancesForAddition[token] */\n      0x20\n      swap1\n      dup2\n      mstore\n      0x40\n      swap2\n      dup3\n      swap1\n      keccak256\n        /* \"contracts/Mooniswap.sol\":3913:3954  virtualBalancesForAddition[token].current */\n      dup3\n      mload\n      dup1\n      dup5\n      add\n      swap1\n      swap4\n      mstore\n      sload\n      sub(shl(0xd8, 0x01), 0x01)\n      dup2\n      and\n      dup4\n      mstore\n      shl(0xd8, 0x01)\n      swap1\n      div\n      0xffffffffff\n      and\n      swap1\n      dup3\n      add\n      mstore\n        /* \"contracts/Mooniswap.sol\":3836:3887  uint256 balance = token.uniBalanceOf(address(this)) */\n      swap1\n      swap2\n      pop\n        /* \"contracts/Mooniswap.sol\":3904:3973  Math.max(virtualBalancesForAddition[token].current(balance), balance) */\n      tag_349\n      swap1\n        /* \"contracts/Mooniswap.sol\":3913:3963  virtualBalancesForAddition[token].current(balance) */\n      tag_350\n      swap1\n        /* \"contracts/Mooniswap.sol\":3836:3887  uint256 balance = token.uniBalanceOf(address(this)) */\n      dup4\n        /* \"contracts/Mooniswap.sol\":3913:3954  virtualBalancesForAddition[token].current */\n      tag_305\n        /* \"contracts/Mooniswap.sol\":3913:3963  virtualBalancesForAddition[token].current(balance) */\n      jump\t// in\n    tag_350:\n        /* \"contracts/Mooniswap.sol\":3965:3972  balance */\n      dup3\n        /* \"contracts/Mooniswap.sol\":3904:3912  Math.max */\n      tag_306\n        /* \"contracts/Mooniswap.sol\":3904:3973  Math.max(virtualBalancesForAddition[token].current(balance), balance) */\n      jump\t// in\n    tag_349:\n        /* \"contracts/Mooniswap.sol\":3897:3973  return Math.max(virtualBalancesForAddition[token].current(balance), balance) */\n      swap4\n        /* \"contracts/Mooniswap.sol\":3752:3980  function getBalanceForAddition(IERC20 token) public view returns(uint256) {... */\n      swap3\n      pop\n      pop\n      pop\n      jump\t// out\n        /* \"@openzeppelin/contracts/token/ERC20/ERC20.sol\":3968:4117  function allowance(address owner, address spender) public view virtual override returns (uint256) {... */\n    tag_158:\n      sub(shl(0xa0, 0x01), 0x01)\n        /* \"@openzeppelin/contracts/token/ERC20/ERC20.sol\":4083:4101  _allowances[owner] */\n      swap2\n      dup3\n      and\n        /* \"@openzeppelin/contracts/token/ERC20/ERC20.sol\":4057:4064  uint256 */\n      0x00\n        /* \"@openzeppelin/contracts/token/ERC20/ERC20.sol\":4083:4101  _allowances[owner] */\n      swap1\n      dup2\n      mstore\n        /* \"@openzeppelin/contracts/token/ERC20/ERC20.sol\":4083:4094  _allowances */\n      0x01\n        /* \"@openzeppelin/contracts/token/ERC20/ERC20.sol\":4083:4101  _allowances[owner] */\n      0x20\n      swap1\n      dup2\n      mstore\n      0x40\n      dup1\n      dup4\n      keccak256\n        /* \"@openzeppelin/contracts/token/ERC20/ERC20.sol\":4083:4110  _allowances[owner][spender] */\n      swap4\n      swap1\n      swap5\n      and\n      dup3\n      mstore\n      swap2\n      swap1\n      swap2\n      mstore\n      keccak256\n      sload\n      swap1\n        /* \"@openzeppelin/contracts/token/ERC20/ERC20.sol\":3968:4117  function allowance(address owner, address spender) public view virtual override returns (uint256) {... */\n      jump\t// out\n        /* \"contracts/Mooniswap.sol\":3458:3539  function fee() public view returns(uint256) {... */\n    tag_161:\n        /* \"contracts/Mooniswap.sol\":3519:3526  factory */\n      sload(0x08)\n        /* \"contracts/Mooniswap.sol\":3519:3532  factory.fee() */\n      0x40\n      dup1\n      mload\n      shl(0xe0, 0xddca3f43)\n      dup2\n      mstore\n      swap1\n      mload\n        /* \"contracts/Mooniswap.sol\":3493:3500  uint256 */\n      0x00\n      swap3\n      sub(shl(0xa0, 0x01), 0x01)\n        /* \"contracts/Mooniswap.sol\":3519:3526  factory */\n      and\n      swap2\n        /* \"contracts/Mooniswap.sol\":3519:3530  factory.fee */\n      0xddca3f43\n      swap2\n        /* \"contracts/Mooniswap.sol\":3519:3532  factory.fee() */\n      0x04\n      dup1\n      dup4\n      add\n      swap3\n      0x20\n      swap3\n      swap2\n      swap1\n      dup3\n      swap1\n      sub\n      add\n      dup2\n        /* \"contracts/Mooniswap.sol\":3519:3526  factory */\n      dup7\n        /* \"contracts/Mooniswap.sol\":3519:3532  factory.fee() */\n      dup1\n      extcodesize\n      iszero\n      dup1\n      iszero\n      tag_353\n      jumpi\n      0x00\n      dup1\n      revert\n    tag_353:\n      pop\n      gas\n      staticcall\n      iszero\n      dup1\n      iszero\n      tag_355\n      jumpi\n      returndatasize\n      0x00\n      dup1\n      returndatacopy\n      revert(0x00, returndatasize)\n    tag_355:\n      pop\n      pop\n      pop\n      pop\n      mload(0x40)\n      returndatasize\n      0x20\n      dup2\n      lt\n      iszero\n      tag_356\n      jumpi\n      0x00\n      dup1\n      revert\n    tag_356:\n      pop\n      mload\n      swap1\n      pop\n        /* \"contracts/Mooniswap.sol\":3458:3539  function fee() public view returns(uint256) {... */\n      swap1\n      jump\t// out\n        /* \"contracts/Mooniswap.sol\":3986:4212  function getBalanceForRemoval(IERC20 token) public view returns(uint256) {... */\n    tag_165:\n        /* \"contracts/Mooniswap.sol\":4050:4057  uint256 */\n      0x00\n      dup1\n        /* \"contracts/Mooniswap.sol\":4087:4120  token.uniBalanceOf(address(this)) */\n      tag_358\n      sub(shl(0xa0, 0x01), 0x01)\n        /* \"contracts/Mooniswap.sol\":4087:4105  token.uniBalanceOf */\n      dup5\n      and\n        /* \"contracts/Mooniswap.sol\":4114:4118  this */\n      address\n        /* \"contracts/Mooniswap.sol\":4087:4105  token.uniBalanceOf */\n      tag_224\n        /* \"contracts/Mooniswap.sol\":4087:4120  token.uniBalanceOf(address(this)) */\n      jump\t// in\n    tag_358:\n      sub(shl(0xa0, 0x01), 0x01)\n        /* \"contracts/Mooniswap.sol\":4146:4178  virtualBalancesForRemoval[token] */\n      dup5\n      and\n      0x00\n      swap1\n      dup2\n      mstore\n        /* \"contracts/Mooniswap.sol\":4146:4171  virtualBalancesForRemoval */\n      0x0d\n        /* \"contracts/Mooniswap.sol\":4146:4178  virtualBalancesForRemoval[token] */\n      0x20\n      swap1\n      dup2\n      mstore\n      0x40\n      swap2\n      dup3\n      swap1\n      keccak256\n        /* \"contracts/Mooniswap.sol\":4146:4186  virtualBalancesForRemoval[token].current */\n      dup3\n      mload\n      dup1\n      dup5\n      add\n      swap1\n      swap4\n      mstore\n      sload\n      sub(shl(0xd8, 0x01), 0x01)\n      dup2\n      and\n      dup4\n      mstore\n      shl(0xd8, 0x01)\n      swap1\n      div\n      0xffffffffff\n      and\n      swap1\n      dup3\n      add\n      mstore\n        /* \"contracts/Mooniswap.sol\":4069:4120  uint256 balance = token.uniBalanceOf(address(this)) */\n      swap1\n      swap2\n      pop\n        /* \"contracts/Mooniswap.sol\":4137:4205  Math.min(virtualBalancesForRemoval[token].current(balance), balance) */\n      tag_349\n      swap1\n        /* \"contracts/Mooniswap.sol\":4146:4195  virtualBalancesForRemoval[token].current(balance) */\n      tag_360\n      swap1\n        /* \"contracts/Mooniswap.sol\":4069:4120  uint256 balance = token.uniBalanceOf(address(this)) */\n      dup4\n        /* \"contracts/Mooniswap.sol\":4146:4186  virtualBalancesForRemoval[token].current */\n      tag_305\n        /* \"contracts/Mooniswap.sol\":4146:4195  virtualBalancesForRemoval[token].current(balance) */\n      jump\t// in\n    tag_360:\n        /* \"contracts/Mooniswap.sol\":4197:4204  balance */\n      dup3\n        /* \"contracts/Mooniswap.sol\":4137:4145  Math.min */\n      tag_309\n        /* \"contracts/Mooniswap.sol\":4137:4205  Math.min(virtualBalancesForRemoval[token].current(balance), balance) */\n      jump\t// in\n        /* \"contracts/Mooniswap.sol\":4421:7010  function deposit(uint256[] calldata amounts, uint256[] calldata minAmounts) external payable nonReentrant returns(uint256 fairSupply) {... */\n    tag_174:\n        /* \"contracts/Mooniswap.sol\":4535:4553  uint256 fairSupply */\n      0x00\n        /* \"@openzeppelin/contracts/utils/ReentrancyGuard.sol\":1671:1672  2 */\n      0x02\n        /* \"@openzeppelin/contracts/utils/ReentrancyGuard.sol\":2260:2267  _status */\n      sload(0x06)\n        /* \"@openzeppelin/contracts/utils/ReentrancyGuard.sol\":2260:2279  _status != _ENTERED */\n      eq\n      iszero\n        /* \"@openzeppelin/contracts/utils/ReentrancyGuard.sol\":2252:2315  require(_status != _ENTERED, \"ReentrancyGuard: reentrant call\") */\n      tag_362\n      jumpi\n      0x40\n      dup1\n      mload\n      shl(0xe5, 0x461bcd)\n      dup2\n      mstore\n      0x20\n      0x04\n      dup3\n      add\n      mstore\n      0x1f\n      0x24\n      dup3\n      add\n      mstore\n      0x00\n      dup1\n      mload\n      0x20\n      data_0d74825aecb0211bbe1f02ccfb998d9e49771bedb2c6414e20fd8978a2e0f54c\n      dup4\n      codecopy\n      dup2\n      mload\n      swap2\n      mstore\n      0x44\n      dup3\n      add\n      mstore\n      swap1\n      mload\n      swap1\n      dup2\n      swap1\n      sub\n      0x64\n      add\n      swap1\n      revert\n    tag_362:\n        /* \"@openzeppelin/contracts/utils/ReentrancyGuard.sol\":1671:1672  2 */\n      0x02\n        /* \"@openzeppelin/contracts/utils/ReentrancyGuard.sol\":2390:2397  _status */\n      0x06\n        /* \"@openzeppelin/contracts/utils/ReentrancyGuard.sol\":2390:2408  _status = _ENTERED */\n      sstore\n        /* \"contracts/Mooniswap.sol\":4591:4597  tokens */\n      0x09\n        /* \"contracts/Mooniswap.sol\":4565:4597  IERC20[] memory _tokens = tokens */\n      dup1\n      sload\n      0x40\n      dup1\n      mload\n      0x20\n      dup1\n      dup5\n      mul\n      dup3\n      add\n      dup2\n      add\n      swap1\n      swap3\n      mstore\n      dup3\n      dup2\n      mstore\n        /* \"contracts/Mooniswap.sol\":4565:4588  IERC20[] memory _tokens */\n      0x60\n      swap4\n        /* \"contracts/Mooniswap.sol\":4565:4597  IERC20[] memory _tokens = tokens */\n      swap1\n      swap3\n        /* \"contracts/Mooniswap.sol\":4591:4597  tokens */\n      swap1\n      swap2\n        /* \"contracts/Mooniswap.sol\":4565:4597  IERC20[] memory _tokens = tokens */\n      dup4\n      add\n        /* \"contracts/Mooniswap.sol\":4591:4597  tokens */\n      dup3\n        /* \"contracts/Mooniswap.sol\":4565:4597  IERC20[] memory _tokens = tokens */\n      dup3\n      dup1\n      iszero\n      tag_364\n      jumpi\n      0x20\n      mul\n      dup3\n      add\n      swap2\n      swap1\n      0x00\n      mstore\n      keccak256(0x00, 0x20)\n      swap1\n    tag_365:\n      dup2\n      sload\n      sub(shl(0xa0, 0x01), 0x01)\n      and\n      dup2\n      mstore\n      0x01\n      swap1\n      swap2\n      add\n      swap1\n      0x20\n      add\n      dup1\n      dup4\n      gt\n      tag_365\n      jumpi\n    tag_364:\n      pop\n      pop\n      pop\n      pop\n      pop\n      swap1\n      pop\n        /* \"contracts/Mooniswap.sol\":4633:4640  _tokens */\n      dup1\n        /* \"contracts/Mooniswap.sol\":4633:4647  _tokens.length */\n      mload\n        /* \"contracts/Mooniswap.sol\":4615:4622  amounts */\n      dup7\n      dup7\n        /* \"contracts/Mooniswap.sol\":4615:4629  amounts.length */\n      swap1\n      pop\n        /* \"contracts/Mooniswap.sol\":4615:4647  amounts.length == _tokens.length */\n      eq\n        /* \"contracts/Mooniswap.sol\":4607:4683  require(amounts.length == _tokens.length, \"Mooniswap: wrong amounts length\") */\n      tag_366\n      jumpi\n      0x40\n      dup1\n      mload\n      shl(0xe5, 0x461bcd)\n      dup2\n      mstore\n      0x20\n      0x04\n      dup3\n      add\n      mstore\n      0x1f\n      0x24\n      dup3\n      add\n      mstore\n      0x4d6f6f6e69737761703a2077726f6e6720616d6f756e7473206c656e67746800\n      0x44\n      dup3\n      add\n      mstore\n      swap1\n      mload\n      swap1\n      dup2\n      swap1\n      sub\n      0x64\n      add\n      swap1\n      revert\n    tag_366:\n        /* \"contracts/Mooniswap.sol\":4715:4733  _tokens[0].isETH() */\n      tag_367\n        /* \"contracts/Mooniswap.sol\":4715:4722  _tokens */\n      dup2\n        /* \"contracts/Mooniswap.sol\":4723:4724  0 */\n      0x00\n        /* \"contracts/Mooniswap.sol\":4715:4725  _tokens[0] */\n      dup2\n      mload\n      dup2\n      lt\n      tag_368\n      jumpi\n      invalid\n    tag_368:\n      0x20\n      mul\n      0x20\n      add\n      add\n      mload\n      sub(shl(0xa0, 0x01), 0x01)\n        /* \"contracts/Mooniswap.sol\":4715:4731  _tokens[0].isETH */\n      and\n      tag_291\n        /* \"contracts/Mooniswap.sol\":4715:4733  _tokens[0].isETH() */\n      jump\t// in\n    tag_367:\n        /* \"contracts/Mooniswap.sol\":4715:4786  _tokens[0].isETH() ? amounts[0] : (_tokens[1].isETH() ? amounts[1] : 0) */\n      tag_369\n      jumpi\n        /* \"contracts/Mooniswap.sol\":4750:4768  _tokens[1].isETH() */\n      tag_370\n        /* \"contracts/Mooniswap.sol\":4750:4757  _tokens */\n      dup2\n        /* \"contracts/Mooniswap.sol\":4758:4759  1 */\n      0x01\n        /* \"contracts/Mooniswap.sol\":4750:4760  _tokens[1] */\n      dup2\n      mload\n      dup2\n      lt\n      tag_368\n      jumpi\n      invalid\n        /* \"contracts/Mooniswap.sol\":4750:4768  _tokens[1].isETH() */\n    tag_370:\n        /* \"contracts/Mooniswap.sol\":4750:4785  _tokens[1].isETH() ? amounts[1] : 0 */\n      tag_372\n      jumpi\n        /* \"contracts/Mooniswap.sol\":4784:4785  0 */\n      0x00\n        /* \"contracts/Mooniswap.sol\":4750:4785  _tokens[1].isETH() ? amounts[1] : 0 */\n      jump(tag_373)\n    tag_372:\n        /* \"contracts/Mooniswap.sol\":4771:4778  amounts */\n      dup6\n      dup6\n        /* \"contracts/Mooniswap.sol\":4779:4780  1 */\n      0x01\n        /* \"contracts/Mooniswap.sol\":4771:4781  amounts[1] */\n      dup2\n      dup2\n      lt\n      tag_374\n      jumpi\n      invalid\n    tag_374:\n      swap1\n      pop\n      0x20\n      mul\n      add\n      calldataload\n        /* \"contracts/Mooniswap.sol\":4750:4785  _tokens[1].isETH() ? amounts[1] : 0 */\n    tag_373:\n        /* \"contracts/Mooniswap.sol\":4715:4786  _tokens[0].isETH() ? amounts[0] : (_tokens[1].isETH() ? amounts[1] : 0) */\n      jump(tag_375)\n    tag_369:\n        /* \"contracts/Mooniswap.sol\":4736:4743  amounts */\n      dup6\n      dup6\n        /* \"contracts/Mooniswap.sol\":4744:4745  0 */\n      0x00\n        /* \"contracts/Mooniswap.sol\":4736:4746  amounts[0] */\n      dup2\n      dup2\n      lt\n      tag_376\n      jumpi\n      invalid\n    tag_376:\n      swap1\n      pop\n      0x20\n      mul\n      add\n      calldataload\n        /* \"contracts/Mooniswap.sol\":4715:4786  _tokens[0].isETH() ? amounts[0] : (_tokens[1].isETH() ? amounts[1] : 0) */\n    tag_375:\n        /* \"contracts/Mooniswap.sol\":4701:4710  msg.value */\n      callvalue\n        /* \"contracts/Mooniswap.sol\":4701:4787  msg.value == (_tokens[0].isETH() ? amounts[0] : (_tokens[1].isETH() ? amounts[1] : 0)) */\n      eq\n        /* \"contracts/Mooniswap.sol\":4693:4820  require(msg.value == (_tokens[0].isETH() ? amounts[0] : (_tokens[1].isETH() ? amounts[1] : 0)), \"Mooniswap: wrong value usage\") */\n      tag_377\n      jumpi\n      0x40\n      dup1\n      mload\n      shl(0xe5, 0x461bcd)\n      dup2\n      mstore\n      0x20\n      0x04\n      dup3\n      add\n      mstore\n      0x1c\n      0x24\n      dup3\n      add\n      mstore\n      0x4d6f6f6e69737761703a2077726f6e672076616c756520757361676500000000\n      0x44\n      dup3\n      add\n      mstore\n      swap1\n      mload\n      swap1\n      dup2\n      swap1\n      sub\n      0x64\n      add\n      swap1\n      revert\n    tag_377:\n        /* \"contracts/Mooniswap.sol\":4831:4860  uint256[] memory realBalances */\n      0x60\n        /* \"contracts/Mooniswap.sol\":4877:4884  amounts */\n      dup6\n        /* \"contracts/Mooniswap.sol\":4863:4892  new uint256[](amounts.length) */\n      0xffffffffffffffff\n      dup2\n      gt\n      dup1\n      iszero\n      tag_378\n      jumpi\n      0x00\n      dup1\n      revert\n    tag_378:\n      pop\n      mload(0x40)\n      swap1\n      dup1\n      dup3\n      mstore\n      dup1\n      0x20\n      mul\n      0x20\n      add\n      dup3\n      add\n      0x40\n      mstore\n      dup1\n      iszero\n      tag_379\n      jumpi\n      dup2\n      0x20\n      add\n      0x20\n      dup3\n      mul\n      dup1\n      calldatasize\n      dup4\n      calldatacopy\n      add\n      swap1\n      pop\n    tag_379:\n      pop\n        /* \"contracts/Mooniswap.sol\":4831:4892  uint256[] memory realBalances = new uint256[](amounts.length) */\n      swap1\n      pop\n        /* \"contracts/Mooniswap.sol\":4907:4913  uint i */\n      0x00\n        /* \"contracts/Mooniswap.sol\":4902:5070  for (uint i = 0; i < realBalances.length; i++) {... */\n    tag_380:\n        /* \"contracts/Mooniswap.sol\":4923:4935  realBalances */\n      dup2\n        /* \"contracts/Mooniswap.sol\":4923:4942  realBalances.length */\n      mload\n        /* \"contracts/Mooniswap.sol\":4919:4920  i */\n      dup2\n        /* \"contracts/Mooniswap.sol\":4919:4942  i < realBalances.length */\n      lt\n        /* \"contracts/Mooniswap.sol\":4902:5070  for (uint i = 0; i < realBalances.length; i++) {... */\n      iszero\n      tag_381\n      jumpi\n        /* \"contracts/Mooniswap.sol\":4981:5059  _tokens[i].uniBalanceOf(address(this)).sub(_tokens[i].isETH() ? msg.value : 0) */\n      tag_383\n        /* \"contracts/Mooniswap.sol\":5024:5042  _tokens[i].isETH() */\n      tag_384\n        /* \"contracts/Mooniswap.sol\":5024:5031  _tokens */\n      dup5\n        /* \"contracts/Mooniswap.sol\":5032:5033  i */\n      dup4\n        /* \"contracts/Mooniswap.sol\":5024:5034  _tokens[i] */\n      dup2\n      mload\n      dup2\n      lt\n      tag_368\n      jumpi\n      invalid\n        /* \"contracts/Mooniswap.sol\":5024:5042  _tokens[i].isETH() */\n    tag_384:\n        /* \"contracts/Mooniswap.sol\":5024:5058  _tokens[i].isETH() ? msg.value : 0 */\n      tag_386\n      jumpi\n        /* \"contracts/Mooniswap.sol\":5057:5058  0 */\n      0x00\n        /* \"contracts/Mooniswap.sol\":5024:5058  _tokens[i].isETH() ? msg.value : 0 */\n      jump(tag_387)\n    tag_386:\n        /* \"contracts/Mooniswap.sol\":5045:5054  msg.value */\n      callvalue\n        /* \"contracts/Mooniswap.sol\":5024:5058  _tokens[i].isETH() ? msg.value : 0 */\n    tag_387:\n        /* \"contracts/Mooniswap.sol\":4981:5019  _tokens[i].uniBalanceOf(address(this)) */\n      tag_301\n        /* \"contracts/Mooniswap.sol\":5013:5017  this */\n      address\n        /* \"contracts/Mooniswap.sol\":4981:4988  _tokens */\n      dup7\n        /* \"contracts/Mooniswap.sol\":4989:4990  i */\n      dup6\n        /* \"contracts/Mooniswap.sol\":4981:4991  _tokens[i] */\n      dup2\n      mload\n      dup2\n      lt\n      tag_389\n      jumpi\n      invalid\n    tag_389:\n      0x20\n      mul\n      0x20\n      add\n      add\n      mload\n      sub(shl(0xa0, 0x01), 0x01)\n        /* \"contracts/Mooniswap.sol\":4981:5004  _tokens[i].uniBalanceOf */\n      and\n      tag_224\n      swap1\n        /* \"contracts/Mooniswap.sol\":4981:5019  _tokens[i].uniBalanceOf(address(this)) */\n      swap2\n      swap1\n      0xffffffff\n      and\n      jump\t// in\n        /* \"contracts/Mooniswap.sol\":4981:5059  _tokens[i].uniBalanceOf(address(this)).sub(_tokens[i].isETH() ? msg.value : 0) */\n    tag_383:\n        /* \"contracts/Mooniswap.sol\":4963:4975  realBalances */\n      dup3\n        /* \"contracts/Mooniswap.sol\":4976:4977  i */\n      dup3\n        /* \"contracts/Mooniswap.sol\":4963:4978  realBalances[i] */\n      dup2\n      mload\n      dup2\n      lt\n      tag_390\n      jumpi\n      invalid\n    tag_390:\n      0x20\n      swap1\n      dup2\n      mul\n      swap2\n      swap1\n      swap2\n      add\n      add\n        /* \"contracts/Mooniswap.sol\":4963:5059  realBalances[i] = _tokens[i].uniBalanceOf(address(this)).sub(_tokens[i].isETH() ? msg.value : 0) */\n      mstore\n        /* \"contracts/Mooniswap.sol\":4944:4947  i++ */\n      0x01\n      add\n        /* \"contracts/Mooniswap.sol\":4902:5070  for (uint i = 0; i < realBalances.length; i++) {... */\n      jump(tag_380)\n    tag_381:\n      pop\n        /* \"contracts/Mooniswap.sol\":5080:5099  uint256 totalSupply */\n      0x00\n        /* \"contracts/Mooniswap.sol\":5102:5115  totalSupply() */\n      tag_391\n        /* \"contracts/Mooniswap.sol\":5102:5113  totalSupply */\n      tag_55\n        /* \"contracts/Mooniswap.sol\":5102:5115  totalSupply() */\n      jump\t// in\n    tag_391:\n        /* \"contracts/Mooniswap.sol\":5080:5115  uint256 totalSupply = totalSupply() */\n      swap1\n      pop\n        /* \"contracts/Mooniswap.sol\":5129:5145  totalSupply == 0 */\n      dup1\n        /* \"contracts/Mooniswap.sol\":5125:5773  if (totalSupply == 0) {... */\n      tag_392\n      jumpi\n        /* \"contracts/Mooniswap.sol\":5174:5193  BASE_SUPPLY.mul(99) */\n      tag_393\n        /* \"contracts/Mooniswap.sol\":2481:2485  1000 */\n      0x03e8\n        /* \"contracts/Mooniswap.sol\":5190:5192  99 */\n      0x63\n        /* \"contracts/Mooniswap.sol\":5174:5189  BASE_SUPPLY.mul */\n      tag_227\n        /* \"contracts/Mooniswap.sol\":5174:5193  BASE_SUPPLY.mul(99) */\n      jump\t// in\n    tag_393:\n        /* \"contracts/Mooniswap.sol\":5161:5193  fairSupply = BASE_SUPPLY.mul(99) */\n      swap4\n      pop\n        /* \"contracts/Mooniswap.sol\":5207:5240  _mint(address(this), BASE_SUPPLY) */\n      tag_394\n        /* \"contracts/Mooniswap.sol\":5221:5225  this */\n      address\n        /* \"contracts/Mooniswap.sol\":2481:2485  1000 */\n      0x03e8\n        /* \"contracts/Mooniswap.sol\":5207:5212  _mint */\n      tag_345\n        /* \"contracts/Mooniswap.sol\":5207:5240  _mint(address(this), BASE_SUPPLY) */\n      jump\t// in\n    tag_394:\n        /* \"contracts/Mooniswap.sol\":5369:5375  uint i */\n      0x00\n        /* \"contracts/Mooniswap.sol\":5364:5484  for (uint i = 0; i < amounts.length; i++) {... */\n    tag_395:\n        /* \"contracts/Mooniswap.sol\":5381:5399  i < amounts.length */\n      dup8\n      dup2\n      lt\n        /* \"contracts/Mooniswap.sol\":5364:5484  for (uint i = 0; i < amounts.length; i++) {... */\n      iszero\n      tag_396\n      jumpi\n        /* \"contracts/Mooniswap.sol\":5437:5469  Math.max(fairSupply, amounts[i]) */\n      tag_398\n        /* \"contracts/Mooniswap.sol\":5446:5456  fairSupply */\n      dup6\n        /* \"contracts/Mooniswap.sol\":5458:5465  amounts */\n      dup11\n      dup11\n        /* \"contracts/Mooniswap.sol\":5466:5467  i */\n      dup5\n        /* \"contracts/Mooniswap.sol\":5458:5468  amounts[i] */\n      dup2\n      dup2\n      lt\n      tag_399\n      jumpi\n      invalid\n    tag_399:\n      swap1\n      pop\n      0x20\n      mul\n      add\n      calldataload\n        /* \"contracts/Mooniswap.sol\":5437:5445  Math.max */\n      tag_306\n        /* \"contracts/Mooniswap.sol\":5437:5469  Math.max(fairSupply, amounts[i]) */\n      jump\t// in\n    tag_398:\n        /* \"contracts/Mooniswap.sol\":5424:5469  fairSupply = Math.max(fairSupply, amounts[i]) */\n      swap5\n      pop\n        /* \"contracts/Mooniswap.sol\":5401:5404  i++ */\n      0x01\n      add\n        /* \"contracts/Mooniswap.sol\":5364:5484  for (uint i = 0; i < amounts.length; i++) {... */\n      jump(tag_395)\n    tag_396:\n      pop\n        /* \"contracts/Mooniswap.sol\":5125:5773  if (totalSupply == 0) {... */\n      jump(tag_400)\n    tag_392:\n      not(0x00)\n        /* \"contracts/Mooniswap.sol\":5561:5591  fairSupply = type(uint256).max */\n      swap4\n      pop\n        /* \"contracts/Mooniswap.sol\":5610:5616  uint i */\n      0x00\n        /* \"contracts/Mooniswap.sol\":5605:5763  for (uint i = 0; i < amounts.length; i++) {... */\n    tag_401:\n        /* \"contracts/Mooniswap.sol\":5622:5640  i < amounts.length */\n      dup8\n      dup2\n      lt\n        /* \"contracts/Mooniswap.sol\":5605:5763  for (uint i = 0; i < amounts.length; i++) {... */\n      iszero\n      tag_402\n      jumpi\n        /* \"contracts/Mooniswap.sol\":5678:5748  Math.min(fairSupply, totalSupply.mul(amounts[i]).div(realBalances[i])) */\n      tag_404\n        /* \"contracts/Mooniswap.sol\":5687:5697  fairSupply */\n      dup6\n        /* \"contracts/Mooniswap.sol\":5699:5747  totalSupply.mul(amounts[i]).div(realBalances[i]) */\n      tag_405\n        /* \"contracts/Mooniswap.sol\":5731:5743  realBalances */\n      dup6\n        /* \"contracts/Mooniswap.sol\":5744:5745  i */\n      dup5\n        /* \"contracts/Mooniswap.sol\":5731:5746  realBalances[i] */\n      dup2\n      mload\n      dup2\n      lt\n      tag_406\n      jumpi\n      invalid\n    tag_406:\n      0x20\n      mul\n      0x20\n      add\n      add\n      mload\n        /* \"contracts/Mooniswap.sol\":5699:5726  totalSupply.mul(amounts[i]) */\n      tag_226\n        /* \"contracts/Mooniswap.sol\":5715:5722  amounts */\n      dup14\n      dup14\n        /* \"contracts/Mooniswap.sol\":5723:5724  i */\n      dup8\n        /* \"contracts/Mooniswap.sol\":5715:5725  amounts[i] */\n      dup2\n      dup2\n      lt\n      tag_408\n      jumpi\n      invalid\n    tag_408:\n      swap1\n      pop\n      0x20\n      mul\n      add\n      calldataload\n        /* \"contracts/Mooniswap.sol\":5699:5710  totalSupply */\n      dup8\n        /* \"contracts/Mooniswap.sol\":5699:5714  totalSupply.mul */\n      tag_227\n      swap1\n        /* \"contracts/Mooniswap.sol\":5699:5726  totalSupply.mul(amounts[i]) */\n      swap2\n      swap1\n      0xffffffff\n      and\n      jump\t// in\n        /* \"contracts/Mooniswap.sol\":5699:5747  totalSupply.mul(amounts[i]).div(realBalances[i]) */\n    tag_405:\n        /* \"contracts/Mooniswap.sol\":5678:5686  Math.min */\n      tag_309\n        /* \"contracts/Mooniswap.sol\":5678:5748  Math.min(fairSupply, totalSupply.mul(amounts[i]).div(realBalances[i])) */\n      jump\t// in\n    tag_404:\n        /* \"contracts/Mooniswap.sol\":5665:5748  fairSupply = Math.min(fairSupply, totalSupply.mul(amounts[i]).div(realBalances[i])) */\n      swap5\n      pop\n        /* \"contracts/Mooniswap.sol\":5642:5645  i++ */\n      0x01\n      add\n        /* \"contracts/Mooniswap.sol\":5605:5763  for (uint i = 0; i < amounts.length; i++) {... */\n      jump(tag_401)\n    tag_402:\n      pop\n        /* \"contracts/Mooniswap.sol\":5125:5773  if (totalSupply == 0) {... */\n    tag_400:\n        /* \"contracts/Mooniswap.sol\":5810:5820  fairSupply */\n      dup4\n        /* \"contracts/Mooniswap.sol\":5783:5807  uint256 fairSupplyCached */\n      0x00\n        /* \"contracts/Mooniswap.sol\":5830:6494  for (uint i = 0; i < amounts.length; i++) {... */\n    tag_409:\n        /* \"contracts/Mooniswap.sol\":5847:5865  i < amounts.length */\n      dup9\n      dup2\n      lt\n        /* \"contracts/Mooniswap.sol\":5830:6494  for (uint i = 0; i < amounts.length; i++) {... */\n      iszero\n      tag_410\n      jumpi\n        /* \"contracts/Mooniswap.sol\":5907:5908  0 */\n      0x00\n        /* \"contracts/Mooniswap.sol\":5894:5901  amounts */\n      dup11\n      dup11\n        /* \"contracts/Mooniswap.sol\":5902:5903  i */\n      dup4\n        /* \"contracts/Mooniswap.sol\":5894:5904  amounts[i] */\n      dup2\n      dup2\n      lt\n      tag_412\n      jumpi\n      invalid\n    tag_412:\n      swap1\n      pop\n      0x20\n      mul\n      add\n      calldataload\n        /* \"contracts/Mooniswap.sol\":5894:5908  amounts[i] > 0 */\n      gt\n        /* \"contracts/Mooniswap.sol\":5886:5938  require(amounts[i] > 0, \"Mooniswap: amount is zero\") */\n      tag_413\n      jumpi\n      0x40\n      dup1\n      mload\n      shl(0xe5, 0x461bcd)\n      dup2\n      mstore\n      0x20\n      0x04\n      dup3\n      add\n      mstore\n      0x19\n      0x24\n      dup3\n      add\n      mstore\n      0x4d6f6f6e69737761703a20616d6f756e74206973207a65726f00000000000000\n      0x44\n      dup3\n      add\n      mstore\n      swap1\n      mload\n      swap1\n      dup2\n      swap1\n      sub\n      0x64\n      add\n      swap1\n      revert\n    tag_413:\n        /* \"contracts/Mooniswap.sol\":5952:5966  uint256 amount */\n      0x00\n        /* \"contracts/Mooniswap.sol\":5970:5986  totalSupply == 0 */\n      dup4\n      iszero\n        /* \"contracts/Mooniswap.sol\":5969:6094  (totalSupply == 0) ? amounts[i] :... */\n      tag_414\n      jumpi\n        /* \"contracts/Mooniswap.sol\":6019:6094  realBalances[i].mul(fairSupplyCached).add(totalSupply - 1).div(totalSupply) */\n      tag_415\n        /* \"contracts/Mooniswap.sol\":6082:6093  totalSupply */\n      dup5\n        /* \"contracts/Mooniswap.sol\":6019:6077  realBalances[i].mul(fairSupplyCached).add(totalSupply - 1) */\n      tag_226\n        /* \"contracts/Mooniswap.sol\":6075:6076  1 */\n      0x01\n        /* \"contracts/Mooniswap.sol\":6061:6072  totalSupply */\n      dup8\n        /* \"contracts/Mooniswap.sol\":6061:6076  totalSupply - 1 */\n      sub\n        /* \"contracts/Mooniswap.sol\":6019:6056  realBalances[i].mul(fairSupplyCached) */\n      tag_417\n        /* \"contracts/Mooniswap.sol\":6039:6055  fairSupplyCached */\n      dup8\n        /* \"contracts/Mooniswap.sol\":6019:6031  realBalances */\n      dup11\n        /* \"contracts/Mooniswap.sol\":6032:6033  i */\n      dup9\n        /* \"contracts/Mooniswap.sol\":6019:6034  realBalances[i] */\n      dup2\n      mload\n      dup2\n      lt\n      tag_418\n      jumpi\n      invalid\n    tag_418:\n      0x20\n      mul\n      0x20\n      add\n      add\n      mload\n        /* \"contracts/Mooniswap.sol\":6019:6038  realBalances[i].mul */\n      tag_227\n      swap1\n        /* \"contracts/Mooniswap.sol\":6019:6056  realBalances[i].mul(fairSupplyCached) */\n      swap2\n      swap1\n      0xffffffff\n      and\n      jump\t// in\n    tag_417:\n        /* \"contracts/Mooniswap.sol\":6019:6060  realBalances[i].mul(fairSupplyCached).add */\n      swap1\n      tag_208\n        /* \"contracts/Mooniswap.sol\":6019:6077  realBalances[i].mul(fairSupplyCached).add(totalSupply - 1) */\n      jump\t// in\n        /* \"contracts/Mooniswap.sol\":6019:6094  realBalances[i].mul(fairSupplyCached).add(totalSupply - 1).div(totalSupply) */\n    tag_415:\n        /* \"contracts/Mooniswap.sol\":5969:6094  (totalSupply == 0) ? amounts[i] :... */\n      jump(tag_419)\n    tag_414:\n        /* \"contracts/Mooniswap.sol\":5990:5997  amounts */\n      dup11\n      dup11\n        /* \"contracts/Mooniswap.sol\":5998:5999  i */\n      dup4\n        /* \"contracts/Mooniswap.sol\":5990:6000  amounts[i] */\n      dup2\n      dup2\n      lt\n      tag_420\n      jumpi\n      invalid\n    tag_420:\n      swap1\n      pop\n      0x20\n      mul\n      add\n      calldataload\n        /* \"contracts/Mooniswap.sol\":5969:6094  (totalSupply == 0) ? amounts[i] :... */\n    tag_419:\n        /* \"contracts/Mooniswap.sol\":5952:6094  uint256 amount = (totalSupply == 0) ? amounts[i] :... */\n      swap1\n      pop\n        /* \"contracts/Mooniswap.sol\":6126:6136  minAmounts */\n      dup9\n      dup9\n        /* \"contracts/Mooniswap.sol\":6137:6138  i */\n      dup4\n        /* \"contracts/Mooniswap.sol\":6126:6139  minAmounts[i] */\n      dup2\n      dup2\n      lt\n      tag_421\n      jumpi\n      invalid\n    tag_421:\n      swap1\n      pop\n      0x20\n      mul\n      add\n      calldataload\n        /* \"contracts/Mooniswap.sol\":6116:6122  amount */\n      dup2\n        /* \"contracts/Mooniswap.sol\":6116:6139  amount >= minAmounts[i] */\n      lt\n      iszero\n        /* \"contracts/Mooniswap.sol\":6108:6176  require(amount >= minAmounts[i], \"Mooniswap: minAmount not reached\") */\n      tag_422\n      jumpi\n      0x40\n      dup1\n      mload\n      shl(0xe5, 0x461bcd)\n      dup2\n      mstore\n      0x20\n      0x04\n      dup3\n      add\n      dup2\n      swap1\n      mstore\n      0x24\n      dup3\n      add\n      mstore\n      0x4d6f6f6e69737761703a206d696e416d6f756e74206e6f742072656163686564\n      0x44\n      dup3\n      add\n      mstore\n      swap1\n      mload\n      swap1\n      dup2\n      swap1\n      sub\n      0x64\n      add\n      swap1\n      revert\n    tag_422:\n        /* \"contracts/Mooniswap.sol\":6191:6237  _tokens[i].uniTransferFromSenderToThis(amount) */\n      tag_423\n        /* \"contracts/Mooniswap.sol\":6230:6236  amount */\n      dup2\n        /* \"contracts/Mooniswap.sol\":6191:6198  _tokens */\n      dup8\n        /* \"contracts/Mooniswap.sol\":6199:6200  i */\n      dup5\n        /* \"contracts/Mooniswap.sol\":6191:6201  _tokens[i] */\n      dup2\n      mload\n      dup2\n      lt\n      tag_424\n      jumpi\n      invalid\n    tag_424:\n      0x20\n      mul\n      0x20\n      add\n      add\n      mload\n      sub(shl(0xa0, 0x01), 0x01)\n        /* \"contracts/Mooniswap.sol\":6191:6229  _tokens[i].uniTransferFromSenderToThis */\n      and\n      tag_311\n      swap1\n        /* \"contracts/Mooniswap.sol\":6191:6237  _tokens[i].uniTransferFromSenderToThis(amount) */\n      swap2\n      swap1\n      0xffffffff\n      and\n      jump\t// in\n    tag_423:\n        /* \"contracts/Mooniswap.sol\":6255:6270  totalSupply > 0 */\n      dup4\n      iszero\n        /* \"contracts/Mooniswap.sol\":6251:6484  if (totalSupply > 0) {... */\n      tag_425\n      jumpi\n        /* \"contracts/Mooniswap.sol\":6290:6307  uint256 confirmed */\n      0x00\n        /* \"contracts/Mooniswap.sol\":6310:6369  _tokens[i].uniBalanceOf(address(this)).sub(realBalances[i]) */\n      tag_426\n        /* \"contracts/Mooniswap.sol\":6353:6365  realBalances */\n      dup7\n        /* \"contracts/Mooniswap.sol\":6366:6367  i */\n      dup5\n        /* \"contracts/Mooniswap.sol\":6353:6368  realBalances[i] */\n      dup2\n      mload\n      dup2\n      lt\n      tag_427\n      jumpi\n      invalid\n    tag_427:\n      0x20\n      mul\n      0x20\n      add\n      add\n      mload\n        /* \"contracts/Mooniswap.sol\":6310:6348  _tokens[i].uniBalanceOf(address(this)) */\n      tag_301\n        /* \"contracts/Mooniswap.sol\":6342:6346  this */\n      address\n        /* \"contracts/Mooniswap.sol\":6310:6317  _tokens */\n      dup11\n        /* \"contracts/Mooniswap.sol\":6318:6319  i */\n      dup8\n        /* \"contracts/Mooniswap.sol\":6310:6320  _tokens[i] */\n      dup2\n      mload\n      dup2\n      lt\n      tag_389\n      jumpi\n      invalid\n        /* \"contracts/Mooniswap.sol\":6310:6369  _tokens[i].uniBalanceOf(address(this)).sub(realBalances[i]) */\n    tag_426:\n        /* \"contracts/Mooniswap.sol\":6290:6369  uint256 confirmed = _tokens[i].uniBalanceOf(address(this)).sub(realBalances[i]) */\n      swap1\n      pop\n        /* \"contracts/Mooniswap.sol\":6400:6469  Math.min(fairSupply, totalSupply.mul(confirmed).div(realBalances[i])) */\n      tag_430\n        /* \"contracts/Mooniswap.sol\":6409:6419  fairSupply */\n      dup9\n        /* \"contracts/Mooniswap.sol\":6421:6468  totalSupply.mul(confirmed).div(realBalances[i]) */\n      tag_405\n        /* \"contracts/Mooniswap.sol\":6452:6464  realBalances */\n      dup9\n        /* \"contracts/Mooniswap.sol\":6465:6466  i */\n      dup7\n        /* \"contracts/Mooniswap.sol\":6452:6467  realBalances[i] */\n      dup2\n      mload\n      dup2\n      lt\n      tag_432\n      jumpi\n      invalid\n    tag_432:\n      0x20\n      mul\n      0x20\n      add\n      add\n      mload\n        /* \"contracts/Mooniswap.sol\":6421:6447  totalSupply.mul(confirmed) */\n      tag_226\n        /* \"contracts/Mooniswap.sol\":6437:6446  confirmed */\n      dup6\n        /* \"contracts/Mooniswap.sol\":6421:6432  totalSupply */\n      dup11\n        /* \"contracts/Mooniswap.sol\":6421:6436  totalSupply.mul */\n      tag_227\n      swap1\n        /* \"contracts/Mooniswap.sol\":6421:6447  totalSupply.mul(confirmed) */\n      swap2\n      swap1\n      0xffffffff\n      and\n      jump\t// in\n        /* \"contracts/Mooniswap.sol\":6400:6469  Math.min(fairSupply, totalSupply.mul(confirmed).div(realBalances[i])) */\n    tag_430:\n        /* \"contracts/Mooniswap.sol\":6387:6469  fairSupply = Math.min(fairSupply, totalSupply.mul(confirmed).div(realBalances[i])) */\n      swap8\n      pop\n        /* \"contracts/Mooniswap.sol\":6251:6484  if (totalSupply > 0) {... */\n      pop\n    tag_425:\n      pop\n        /* \"contracts/Mooniswap.sol\":5867:5870  i++ */\n      0x01\n      add\n        /* \"contracts/Mooniswap.sol\":5830:6494  for (uint i = 0; i < amounts.length; i++) {... */\n      jump(tag_409)\n    tag_410:\n      pop\n        /* \"contracts/Mooniswap.sol\":6508:6523  totalSupply > 0 */\n      dup2\n      iszero\n        /* \"contracts/Mooniswap.sol\":6504:6847  if (totalSupply > 0) {... */\n      tag_434\n      jumpi\n        /* \"contracts/Mooniswap.sol\":6544:6550  uint i */\n      0x00\n        /* \"contracts/Mooniswap.sol\":6539:6837  for (uint i = 0; i < amounts.length; i++) {... */\n    tag_435:\n        /* \"contracts/Mooniswap.sol\":6556:6574  i < amounts.length */\n      dup9\n      dup2\n      lt\n        /* \"contracts/Mooniswap.sol\":6539:6837  for (uint i = 0; i < amounts.length; i++) {... */\n      iszero\n      tag_436\n      jumpi\n        /* \"contracts/Mooniswap.sol\":6599:6701  virtualBalancesForRemoval[_tokens[i]].scale(realBalances[i], totalSupply.add(fairSupply), totalSupply) */\n      tag_438\n        /* \"contracts/Mooniswap.sol\":6643:6655  realBalances */\n      dup5\n        /* \"contracts/Mooniswap.sol\":6656:6657  i */\n      dup3\n        /* \"contracts/Mooniswap.sol\":6643:6658  realBalances[i] */\n      dup2\n      mload\n      dup2\n      lt\n      tag_439\n      jumpi\n      invalid\n    tag_439:\n      0x20\n      mul\n      0x20\n      add\n      add\n      mload\n        /* \"contracts/Mooniswap.sol\":6660:6687  totalSupply.add(fairSupply) */\n      tag_440\n        /* \"contracts/Mooniswap.sol\":6676:6686  fairSupply */\n      dup9\n        /* \"contracts/Mooniswap.sol\":6660:6671  totalSupply */\n      dup7\n        /* \"contracts/Mooniswap.sol\":6660:6675  totalSupply.add */\n      tag_208\n      swap1\n        /* \"contracts/Mooniswap.sol\":6660:6687  totalSupply.add(fairSupply) */\n      swap2\n      swap1\n      0xffffffff\n      and\n      jump\t// in\n    tag_440:\n        /* \"contracts/Mooniswap.sol\":6689:6700  totalSupply */\n      dup6\n        /* \"contracts/Mooniswap.sol\":6599:6624  virtualBalancesForRemoval */\n      0x0d\n        /* \"contracts/Mooniswap.sol\":6599:6636  virtualBalancesForRemoval[_tokens[i]] */\n      0x00\n        /* \"contracts/Mooniswap.sol\":6625:6632  _tokens */\n      dup11\n        /* \"contracts/Mooniswap.sol\":6633:6634  i */\n      dup8\n        /* \"contracts/Mooniswap.sol\":6625:6635  _tokens[i] */\n      dup2\n      mload\n      dup2\n      lt\n      tag_441\n      jumpi\n      invalid\n    tag_441:\n      0x20\n      mul\n      0x20\n      add\n      add\n      mload\n      sub(shl(0xa0, 0x01), 0x01)\n        /* \"contracts/Mooniswap.sol\":6599:6636  virtualBalancesForRemoval[_tokens[i]] */\n      and\n      sub(shl(0xa0, 0x01), 0x01)\n      and\n      dup2\n      mstore\n      0x20\n      add\n      swap1\n      dup2\n      mstore\n      0x20\n      add\n      0x00\n      keccak256\n        /* \"contracts/Mooniswap.sol\":6599:6642  virtualBalancesForRemoval[_tokens[i]].scale */\n      tag_237\n      swap1\n        /* \"contracts/Mooniswap.sol\":6599:6701  virtualBalancesForRemoval[_tokens[i]].scale(realBalances[i], totalSupply.add(fairSupply), totalSupply) */\n      swap4\n      swap3\n      swap2\n      swap1\n      0xffffffff\n      and\n      jump\t// in\n    tag_438:\n        /* \"contracts/Mooniswap.sol\":6719:6822  virtualBalancesForAddition[_tokens[i]].scale(realBalances[i], totalSupply.add(fairSupply), totalSupply) */\n      tag_442\n        /* \"contracts/Mooniswap.sol\":6764:6776  realBalances */\n      dup5\n        /* \"contracts/Mooniswap.sol\":6777:6778  i */\n      dup3\n        /* \"contracts/Mooniswap.sol\":6764:6779  realBalances[i] */\n      dup2\n      mload\n      dup2\n      lt\n      tag_443\n      jumpi\n      invalid\n    tag_443:\n      0x20\n      mul\n      0x20\n      add\n      add\n      mload\n        /* \"contracts/Mooniswap.sol\":6781:6808  totalSupply.add(fairSupply) */\n      tag_444\n        /* \"contracts/Mooniswap.sol\":6797:6807  fairSupply */\n      dup9\n        /* \"contracts/Mooniswap.sol\":6781:6792  totalSupply */\n      dup7\n        /* \"contracts/Mooniswap.sol\":6781:6796  totalSupply.add */\n      tag_208\n      swap1\n        /* \"contracts/Mooniswap.sol\":6781:6808  totalSupply.add(fairSupply) */\n      swap2\n      swap1\n      0xffffffff\n      and\n      jump\t// in\n    tag_444:\n        /* \"contracts/Mooniswap.sol\":6810:6821  totalSupply */\n      dup6\n        /* \"contracts/Mooniswap.sol\":6719:6745  virtualBalancesForAddition */\n      0x0c\n        /* \"contracts/Mooniswap.sol\":6719:6757  virtualBalancesForAddition[_tokens[i]] */\n      0x00\n        /* \"contracts/Mooniswap.sol\":6746:6753  _tokens */\n      dup11\n        /* \"contracts/Mooniswap.sol\":6754:6755  i */\n      dup8\n        /* \"contracts/Mooniswap.sol\":6746:6756  _tokens[i] */\n      dup2\n      mload\n      dup2\n      lt\n      tag_441\n      jumpi\n      invalid\n        /* \"contracts/Mooniswap.sol\":6719:6822  virtualBalancesForAddition[_tokens[i]].scale(realBalances[i], totalSupply.add(fairSupply), totalSupply) */\n    tag_442:\n        /* \"contracts/Mooniswap.sol\":6576:6579  i++ */\n      0x01\n      add\n        /* \"contracts/Mooniswap.sol\":6539:6837  for (uint i = 0; i < amounts.length; i++) {... */\n      jump(tag_435)\n    tag_436:\n      pop\n        /* \"contracts/Mooniswap.sol\":6504:6847  if (totalSupply > 0) {... */\n    tag_434:\n        /* \"contracts/Mooniswap.sol\":6878:6879  0 */\n      0x00\n        /* \"contracts/Mooniswap.sol\":6865:6875  fairSupply */\n      dup6\n        /* \"contracts/Mooniswap.sol\":6865:6879  fairSupply > 0 */\n      gt\n        /* \"contracts/Mooniswap.sol\":6857:6915  require(fairSupply > 0, \"Mooniswap: result is not enough\") */\n      tag_446\n      jumpi\n      0x40\n      dup1\n      mload\n      shl(0xe5, 0x461bcd)\n      dup2\n      mstore\n      0x20\n      0x04\n      dup3\n      add\n      mstore\n      0x1f\n      0x24\n      dup3\n      add\n      mstore\n      0x4d6f6f6e69737761703a20726573756c74206973206e6f7420656e6f75676800\n      0x44\n      dup3\n      add\n      mstore\n      swap1\n      mload\n      swap1\n      dup2\n      swap1\n      sub\n      0x64\n      add\n      swap1\n      revert\n    tag_446:\n        /* \"contracts/Mooniswap.sol\":6925:6954  _mint(msg.sender, fairSupply) */\n      tag_447\n        /* \"contracts/Mooniswap.sol\":6931:6941  msg.sender */\n      caller\n        /* \"contracts/Mooniswap.sol\":6943:6953  fairSupply */\n      dup7\n        /* \"contracts/Mooniswap.sol\":6925:6930  _mint */\n      tag_345\n        /* \"contracts/Mooniswap.sol\":6925:6954  _mint(msg.sender, fairSupply) */\n      jump\t// in\n    tag_447:\n        /* \"contracts/Mooniswap.sol\":6970:7003  Deposited(msg.sender, fairSupply) */\n      0x40\n      dup1\n      mload\n      dup7\n      dup2\n      mstore\n      swap1\n      mload\n        /* \"contracts/Mooniswap.sol\":6980:6990  msg.sender */\n      caller\n      swap2\n        /* \"contracts/Mooniswap.sol\":6970:7003  Deposited(msg.sender, fairSupply) */\n      0x2da466a7b24304f47e87fa2e1e5a81b9831ce54fec19055ce277ca2f39ba42c4\n      swap2\n      swap1\n      dup2\n      swap1\n      sub\n      0x20\n      add\n      swap1\n      log2\n      pop\n      pop\n        /* \"@openzeppelin/contracts/utils/ReentrancyGuard.sol\":1628:1629  1 */\n      0x01\n        /* \"@openzeppelin/contracts/utils/ReentrancyGuard.sol\":2563:2570  _status */\n      0x06\n        /* \"@openzeppelin/contracts/utils/ReentrancyGuard.sol\":2563:2585  _status = _NOT_ENTERED */\n      sstore\n      pop\n        /* \"contracts/Mooniswap.sol\":4421:7010  function deposit(uint256[] calldata amounts, uint256[] calldata minAmounts) external payable nonReentrant returns(uint256 fairSupply) {... */\n      swap1\n      swap6\n      swap5\n      pop\n      pop\n      pop\n      pop\n      pop\n      jump\t// out\n        /* \"@openzeppelin/contracts/access/Ownable.sol\":1983:2223  function transferOwnership(address newOwner) public virtual onlyOwner {... */\n    tag_178:\n        /* \"@openzeppelin/contracts/access/Ownable.sol\":1280:1292  _msgSender() */\n      tag_449\n        /* \"@openzeppelin/contracts/access/Ownable.sol\":1280:1290  _msgSender */\n      tag_186\n        /* \"@openzeppelin/contracts/access/Ownable.sol\":1280:1292  _msgSender() */\n      jump\t// in\n    tag_449:\n        /* \"@openzeppelin/contracts/access/Ownable.sol\":1270:1276  _owner */\n      sload(0x07)\n      sub(shl(0xa0, 0x01), 0x01)\n      swap1\n      dup2\n      and\n        /* \"@openzeppelin/contracts/access/Ownable.sol\":1270:1292  _owner == _msgSender() */\n      swap2\n      and\n      eq\n        /* \"@openzeppelin/contracts/access/Ownable.sol\":1262:1329  require(_owner == _msgSender(), \"Ownable: caller is not the owner\") */\n      tag_450\n      jumpi\n      0x40\n      dup1\n      mload\n      shl(0xe5, 0x461bcd)\n      dup2\n      mstore\n      0x20\n      0x04\n      dup3\n      add\n      dup2\n      swap1\n      mstore\n      0x24\n      dup3\n      add\n      mstore\n      0x4f776e61626c653a2063616c6c6572206973206e6f7420746865206f776e6572\n      0x44\n      dup3\n      add\n      mstore\n      swap1\n      mload\n      swap1\n      dup2\n      swap1\n      sub\n      0x64\n      add\n      swap1\n      revert\n    tag_450:\n      sub(shl(0xa0, 0x01), 0x01)\n        /* \"@openzeppelin/contracts/access/Ownable.sol\":2071:2093  newOwner != address(0) */\n      dup2\n      and\n        /* \"@openzeppelin/contracts/access/Ownable.sol\":2063:2136  require(newOwner != address(0), \"Ownable: new owner is the zero address\") */\n      tag_452\n      jumpi\n      mload(0x40)\n      shl(0xe5, 0x461bcd)\n      dup2\n      mstore\n      0x04\n      add\n      dup1\n      dup1\n      0x20\n      add\n      dup3\n      dup2\n      sub\n      dup3\n      mstore\n      0x26\n      dup2\n      mstore\n      0x20\n      add\n      dup1\n      data_245f15ff17f551913a7a18385165551503906a406f905ac1c2437281a7cd0cfe\n      0x26\n      swap2\n      codecopy\n      0x40\n      add\n      swap2\n      pop\n      pop\n      mload(0x40)\n      dup1\n      swap2\n      sub\n      swap1\n      revert\n    tag_452:\n        /* \"@openzeppelin/contracts/access/Ownable.sol\":2172:2178  _owner */\n      sload(0x07)\n        /* \"@openzeppelin/contracts/access/Ownable.sol\":2151:2189  OwnershipTransferred(_owner, newOwner) */\n      mload(0x40)\n      sub(shl(0xa0, 0x01), 0x01)\n      dup1\n      dup5\n      and\n      swap3\n        /* \"@openzeppelin/contracts/access/Ownable.sol\":2172:2178  _owner */\n      and\n      swap1\n        /* \"@openzeppelin/contracts/access/Ownable.sol\":2151:2189  OwnershipTransferred(_owner, newOwner) */\n      0x8be0079c531659141344cd1fd0a4f28419497f9722a3daafe3b4186f6b6457e0\n      swap1\n        /* \"@openzeppelin/contracts/access/Ownable.sol\":2172:2178  _owner */\n      0x00\n      swap1\n        /* \"@openzeppelin/contracts/access/Ownable.sol\":2151:2189  OwnershipTransferred(_owner, newOwner) */\n      log3\n        /* \"@openzeppelin/contracts/access/Ownable.sol\":2199:2205  _owner */\n      0x07\n        /* \"@openzeppelin/contracts/access/Ownable.sol\":2199:2216  _owner = newOwner */\n      dup1\n      sload\n      not(sub(shl(0xa0, 0x01), 0x01))\n      and\n      sub(shl(0xa0, 0x01), 0x01)\n      swap3\n      swap1\n      swap3\n      and\n      swap2\n      swap1\n      swap2\n      or\n      swap1\n      sstore\n        /* \"@openzeppelin/contracts/access/Ownable.sol\":1983:2223  function transferOwnership(address newOwner) public virtual onlyOwner {... */\n      jump\t// out\n        /* \"@openzeppelin/contracts/GSN/Context.sol\":590:694  function _msgSender() internal view virtual returns (address payable) {... */\n    tag_186:\n        /* \"@openzeppelin/contracts/GSN/Context.sol\":677:687  msg.sender */\n      caller\n        /* \"@openzeppelin/contracts/GSN/Context.sol\":590:694  function _msgSender() internal view virtual returns (address payable) {... */\n      swap1\n      jump\t// out\n        /* \"@openzeppelin/contracts/token/ERC20/ERC20.sol\":9359:9699  function _approve(address owner, address spender, uint256 amount) internal virtual {... */\n    tag_187:\n      sub(shl(0xa0, 0x01), 0x01)\n        /* \"@openzeppelin/contracts/token/ERC20/ERC20.sol\":9460:9479  owner != address(0) */\n      dup4\n      and\n        /* \"@openzeppelin/contracts/token/ERC20/ERC20.sol\":9452:9520  require(owner != address(0), \"ERC20: approve from the zero address\") */\n      tag_455\n      jumpi\n      mload(0x40)\n      shl(0xe5, 0x461bcd)\n      dup2\n      mstore\n      0x04\n      add\n      dup1\n      dup1\n      0x20\n      add\n      dup3\n      dup2\n      sub\n      dup3\n      mstore\n      0x24\n      dup2\n      mstore\n      0x20\n      add\n      dup1\n      data_c953f4879035ed60e766b34720f656aab5c697b141d924c283124ecedb91c208\n      0x24\n      swap2\n      codecopy\n      0x40\n      add\n      swap2\n      pop\n      pop\n      mload(0x40)\n      dup1\n      swap2\n      sub\n      swap1\n      revert\n    tag_455:\n      sub(shl(0xa0, 0x01), 0x01)\n        /* \"@openzeppelin/contracts/token/ERC20/ERC20.sol\":9538:9559  spender != address(0) */\n      dup3\n      and\n        /* \"@openzeppelin/contracts/token/ERC20/ERC20.sol\":9530:9598  require(spender != address(0), \"ERC20: approve to the zero address\") */\n      tag_456\n      jumpi\n      mload(0x40)\n      shl(0xe5, 0x461bcd)\n      dup2\n      mstore\n      0x04\n      add\n      dup1\n      dup1\n      0x20\n      add\n      dup3\n      dup2\n      sub\n      dup3\n      mstore\n      0x22\n      dup2\n      mstore\n      0x20\n      add\n      dup1\n      data_24883cc5fe64ace9d0df1893501ecb93c77180f0ff69cca79affb3c316dc8029\n      0x22\n      swap2\n      codecopy\n      0x40\n      add\n      swap2\n      pop\n      pop\n      mload(0x40)\n      dup1\n      swap2\n      sub\n      swap1\n      revert\n    tag_456:\n      sub(shl(0xa0, 0x01), 0x01)\n        /* \"@openzeppelin/contracts/token/ERC20/ERC20.sol\":9609:9627  _allowances[owner] */\n      dup1\n      dup5\n      and\n      0x00\n      dup2\n      dup2\n      mstore\n        /* \"@openzeppelin/contracts/token/ERC20/ERC20.sol\":9609:9620  _allowances */\n      0x01\n        /* \"@openzeppelin/contracts/token/ERC20/ERC20.sol\":9609:9627  _allowances[owner] */\n      0x20\n      swap1\n      dup2\n      mstore\n      0x40\n      dup1\n      dup4\n      keccak256\n        /* \"@openzeppelin/contracts/token/ERC20/ERC20.sol\":9609:9636  _allowances[owner][spender] */\n      swap5\n      dup8\n      and\n      dup1\n      dup5\n      mstore\n      swap5\n      dup3\n      mstore\n      swap2\n      dup3\n      swap1\n      keccak256\n        /* \"@openzeppelin/contracts/token/ERC20/ERC20.sol\":9609:9645  _allowances[owner][spender] = amount */\n      dup6\n      swap1\n      sstore\n        /* \"@openzeppelin/contracts/token/ERC20/ERC20.sol\":9660:9692  Approval(owner, spender, amount) */\n      dup2\n      mload\n      dup6\n      dup2\n      mstore\n      swap2\n      mload\n      0x8c5be1e5ebec7d5bd14f71427d1e84f3dd0314c0f7b2291e5b200ac8c7c3b925\n      swap3\n      dup2\n      swap1\n      sub\n      swap1\n      swap2\n      add\n      swap1\n      log3\n        /* \"@openzeppelin/contracts/token/ERC20/ERC20.sol\":9359:9699  function _approve(address owner, address spender, uint256 amount) internal virtual {... */\n      pop\n      pop\n      pop\n      jump\t// out\n        /* \"contracts/Mooniswap.sol\":11009:11396  function _getReturn(IERC20 src, IERC20 dst, uint256 amount, uint256 srcBalance, uint256 dstBalance) internal view returns(uint256) {... */\n    tag_193:\n      sub(shl(0xa0, 0x01), 0x01)\n        /* \"contracts/Mooniswap.sol\":11154:11166  isToken[src] */\n      dup6\n      and\n        /* \"contracts/Mooniswap.sol\":11131:11138  uint256 */\n      0x00\n        /* \"contracts/Mooniswap.sol\":11154:11166  isToken[src] */\n      swap1\n      dup2\n      mstore\n        /* \"contracts/Mooniswap.sol\":11154:11161  isToken */\n      0x0a\n        /* \"contracts/Mooniswap.sol\":11154:11166  isToken[src] */\n      0x20\n      mstore\n      0x40\n      dup2\n      keccak256\n      sload\n      0xff\n      and\n        /* \"contracts/Mooniswap.sol\":11154:11182  isToken[src] && isToken[dst] */\n      dup1\n      iszero\n      tag_458\n      jumpi\n      pop\n      sub(shl(0xa0, 0x01), 0x01)\n        /* \"contracts/Mooniswap.sol\":11170:11182  isToken[dst] */\n      dup6\n      and\n      0x00\n      swap1\n      dup2\n      mstore\n        /* \"contracts/Mooniswap.sol\":11170:11177  isToken */\n      0x0a\n        /* \"contracts/Mooniswap.sol\":11170:11182  isToken[dst] */\n      0x20\n      mstore\n      0x40\n      swap1\n      keccak256\n      sload\n      0xff\n      and\n        /* \"contracts/Mooniswap.sol\":11154:11182  isToken[src] && isToken[dst] */\n    tag_458:\n        /* \"contracts/Mooniswap.sol\":11154:11196  isToken[src] && isToken[dst] && src != dst */\n      dup1\n      iszero\n      tag_459\n      jumpi\n      pop\n        /* \"contracts/Mooniswap.sol\":11193:11196  dst */\n      dup5\n      sub(shl(0xa0, 0x01), 0x01)\n        /* \"contracts/Mooniswap.sol\":11186:11196  src != dst */\n      and\n        /* \"contracts/Mooniswap.sol\":11186:11189  src */\n      dup7\n      sub(shl(0xa0, 0x01), 0x01)\n        /* \"contracts/Mooniswap.sol\":11186:11196  src != dst */\n      and\n      eq\n      iszero\n        /* \"contracts/Mooniswap.sol\":11154:11196  isToken[src] && isToken[dst] && src != dst */\n    tag_459:\n        /* \"contracts/Mooniswap.sol\":11154:11210  isToken[src] && isToken[dst] && src != dst && amount > 0 */\n      dup1\n      iszero\n      tag_460\n      jumpi\n      pop\n        /* \"contracts/Mooniswap.sol\":11209:11210  0 */\n      0x00\n        /* \"contracts/Mooniswap.sol\":11200:11206  amount */\n      dup5\n        /* \"contracts/Mooniswap.sol\":11200:11210  amount > 0 */\n      gt\n        /* \"contracts/Mooniswap.sol\":11154:11210  isToken[src] && isToken[dst] && src != dst && amount > 0 */\n    tag_460:\n        /* \"contracts/Mooniswap.sol\":11150:11390  if (isToken[src] && isToken[dst] && src != dst && amount > 0) {... */\n      iszero\n      tag_461\n      jumpi\n        /* \"contracts/Mooniswap.sol\":11226:11245  uint256 taxedAmount */\n      0x00\n        /* \"contracts/Mooniswap.sol\":11248:11298  amount.sub(amount.mul(fee()).div(FEE_DENOMINATOR)) */\n      tag_462\n        /* \"contracts/Mooniswap.sol\":11259:11297  amount.mul(fee()).div(FEE_DENOMINATOR) */\n      tag_463\n        /* \"contracts/Mooniswap.sol\":2567:2571  1e18 */\n      0x0de0b6b3a7640000\n        /* \"contracts/Mooniswap.sol\":11259:11276  amount.mul(fee()) */\n      tag_226\n        /* \"contracts/Mooniswap.sol\":11270:11275  fee() */\n      tag_465\n        /* \"contracts/Mooniswap.sol\":11270:11273  fee */\n      tag_161\n        /* \"contracts/Mooniswap.sol\":11270:11275  fee() */\n      jump\t// in\n    tag_465:\n        /* \"contracts/Mooniswap.sol\":11259:11265  amount */\n      dup10\n      swap1\n        /* \"contracts/Mooniswap.sol\":11259:11269  amount.mul */\n      tag_227\n        /* \"contracts/Mooniswap.sol\":11259:11276  amount.mul(fee()) */\n      jump\t// in\n        /* \"contracts/Mooniswap.sol\":11259:11297  amount.mul(fee()).div(FEE_DENOMINATOR) */\n    tag_463:\n        /* \"contracts/Mooniswap.sol\":11248:11254  amount */\n      dup7\n      swap1\n        /* \"contracts/Mooniswap.sol\":11248:11258  amount.sub */\n      tag_236\n        /* \"contracts/Mooniswap.sol\":11248:11298  amount.sub(amount.mul(fee()).div(FEE_DENOMINATOR)) */\n      jump\t// in\n    tag_462:\n        /* \"contracts/Mooniswap.sol\":11226:11298  uint256 taxedAmount = amount.sub(amount.mul(fee()).div(FEE_DENOMINATOR)) */\n      swap1\n      pop\n        /* \"contracts/Mooniswap.sol\":11319:11379  taxedAmount.mul(dstBalance).div(srcBalance.add(taxedAmount)) */\n      tag_466\n        /* \"contracts/Mooniswap.sol\":11351:11378  srcBalance.add(taxedAmount) */\n      tag_467\n        /* \"contracts/Mooniswap.sol\":11351:11361  srcBalance */\n      dup6\n        /* \"contracts/Mooniswap.sol\":11226:11298  uint256 taxedAmount = amount.sub(amount.mul(fee()).div(FEE_DENOMINATOR)) */\n      dup4\n        /* \"contracts/Mooniswap.sol\":11351:11365  srcBalance.add */\n      tag_208\n        /* \"contracts/Mooniswap.sol\":11351:11378  srcBalance.add(taxedAmount) */\n      jump\t// in\n    tag_467:\n        /* \"contracts/Mooniswap.sol\":11319:11346  taxedAmount.mul(dstBalance) */\n      tag_226\n        /* \"contracts/Mooniswap.sol\":11319:11330  taxedAmount */\n      dup4\n        /* \"contracts/Mooniswap.sol\":11335:11345  dstBalance */\n      dup7\n        /* \"contracts/Mooniswap.sol\":11319:11334  taxedAmount.mul */\n      tag_227\n        /* \"contracts/Mooniswap.sol\":11319:11346  taxedAmount.mul(dstBalance) */\n      jump\t// in\n        /* \"contracts/Mooniswap.sol\":11319:11379  taxedAmount.mul(dstBalance).div(srcBalance.add(taxedAmount)) */\n    tag_466:\n        /* \"contracts/Mooniswap.sol\":11312:11379  return taxedAmount.mul(dstBalance).div(srcBalance.add(taxedAmount)) */\n      swap2\n      pop\n      pop\n        /* \"contracts/Mooniswap.sol\":11150:11390  if (isToken[src] && isToken[dst] && src != dst && amount > 0) {... */\n    tag_461:\n        /* \"contracts/Mooniswap.sol\":11009:11396  function _getReturn(IERC20 src, IERC20 dst, uint256 amount, uint256 srcBalance, uint256 dstBalance) internal view returns(uint256) {... */\n      swap6\n      swap5\n      pop\n      pop\n      pop\n      pop\n      pop\n      jump\t// out\n        /* \"@openzeppelin/contracts/token/ERC20/ERC20.sol\":7035:7565  function _transfer(address sender, address recipient, uint256 amount) internal virtual {... */\n    tag_196:\n      sub(shl(0xa0, 0x01), 0x01)\n        /* \"@openzeppelin/contracts/token/ERC20/ERC20.sol\":7140:7160  sender != address(0) */\n      dup4\n      and\n        /* \"@openzeppelin/contracts/token/ERC20/ERC20.sol\":7132:7202  require(sender != address(0), \"ERC20: transfer from the zero address\") */\n      tag_470\n      jumpi\n      mload(0x40)\n      shl(0xe5, 0x461bcd)\n      dup2\n      mstore\n      0x04\n      add\n      dup1\n      dup1\n      0x20\n      add\n      dup3\n      dup2\n      sub\n      dup3\n      mstore\n      0x25\n      dup2\n      mstore\n      0x20\n      add\n      dup1\n      data_baecc556b46f4ed0f2b4cb599d60785ac8563dd2dc0a5bf12edea1c39e5e1fea\n      0x25\n      swap2\n      codecopy\n      0x40\n      add\n      swap2\n      pop\n      pop\n      mload(0x40)\n      dup1\n      swap2\n      sub\n      swap1\n      revert\n    tag_470:\n      sub(shl(0xa0, 0x01), 0x01)\n        /* \"@openzeppelin/contracts/token/ERC20/ERC20.sol\":7220:7243  recipient != address(0) */\n      dup3\n      and\n        /* \"@openzeppelin/contracts/token/ERC20/ERC20.sol\":7212:7283  require(recipient != address(0), \"ERC20: transfer to the zero address\") */\n      tag_471\n      jumpi\n      mload(0x40)\n      shl(0xe5, 0x461bcd)\n      dup2\n      mstore\n      0x04\n      add\n      dup1\n      dup1\n      0x20\n      add\n      dup3\n      dup2\n      sub\n      dup3\n      mstore\n      0x23\n      dup2\n      mstore\n      0x20\n      add\n      dup1\n      data_0557e210f7a69a685100a7e4e3d0a7024c546085cee28910fd17d0b081d9516f\n      0x23\n      swap2\n      codecopy\n      0x40\n      add\n      swap2\n      pop\n      pop\n      mload(0x40)\n      dup1\n      swap2\n      sub\n      swap1\n      revert\n    tag_471:\n        /* \"@openzeppelin/contracts/token/ERC20/ERC20.sol\":7294:7341  _beforeTokenTransfer(sender, recipient, amount) */\n      tag_472\n        /* \"@openzeppelin/contracts/token/ERC20/ERC20.sol\":7315:7321  sender */\n      dup4\n        /* \"@openzeppelin/contracts/token/ERC20/ERC20.sol\":7323:7332  recipient */\n      dup4\n        /* \"@openzeppelin/contracts/token/ERC20/ERC20.sol\":7334:7340  amount */\n      dup4\n        /* \"@openzeppelin/contracts/token/ERC20/ERC20.sol\":7294:7314  _beforeTokenTransfer */\n      tag_511\n        /* \"@openzeppelin/contracts/token/ERC20/ERC20.sol\":7294:7341  _beforeTokenTransfer(sender, recipient, amount) */\n      jump\t// in\n    tag_472:\n        /* \"@openzeppelin/contracts/token/ERC20/ERC20.sol\":7372:7443  _balances[sender].sub(amount, \"ERC20: transfer amount exceeds balance\") */\n      tag_474\n        /* \"@openzeppelin/contracts/token/ERC20/ERC20.sol\":7394:7400  amount */\n      dup2\n        /* \"@openzeppelin/contracts/token/ERC20/ERC20.sol\":7372:7443  _balances[sender].sub(amount, \"ERC20: transfer amount exceeds balance\") */\n      mload(0x40)\n      dup1\n      0x60\n      add\n      0x40\n      mstore\n      dup1\n      0x26\n      dup2\n      mstore\n      0x20\n      add\n      data_4107e8a8b9e94bf8ff83080ddec1c0bffe897ebc2241b89d44f66b3d274088b6\n      0x26\n      swap2\n      codecopy\n      sub(shl(0xa0, 0x01), 0x01)\n        /* \"@openzeppelin/contracts/token/ERC20/ERC20.sol\":7372:7389  _balances[sender] */\n      dup7\n      and\n        /* \"@openzeppelin/contracts/token/ERC20/ERC20.sol\":7372:7381  _balances */\n      0x00\n        /* \"@openzeppelin/contracts/token/ERC20/ERC20.sol\":7372:7389  _balances[sender] */\n      swap1\n      dup2\n      mstore\n      0x20\n      dup2\n      swap1\n      mstore\n      0x40\n      swap1\n      keccak256\n      sload\n      swap2\n        /* \"@openzeppelin/contracts/token/ERC20/ERC20.sol\":7372:7443  _balances[sender].sub(amount, \"ERC20: transfer amount exceeds balance\") */\n      swap1\n        /* \"@openzeppelin/contracts/token/ERC20/ERC20.sol\":7372:7393  _balances[sender].sub */\n      tag_201\n        /* \"@openzeppelin/contracts/token/ERC20/ERC20.sol\":7372:7443  _balances[sender].sub(amount, \"ERC20: transfer amount exceeds balance\") */\n      jump\t// in\n    tag_474:\n      sub(shl(0xa0, 0x01), 0x01)\n        /* \"@openzeppelin/contracts/token/ERC20/ERC20.sol\":7352:7369  _balances[sender] */\n      dup1\n      dup6\n      and\n        /* \"@openzeppelin/contracts/token/ERC20/ERC20.sol\":7352:7361  _balances */\n      0x00\n        /* \"@openzeppelin/contracts/token/ERC20/ERC20.sol\":7352:7369  _balances[sender] */\n      swap1\n      dup2\n      mstore\n      0x20\n      dup2\n      swap1\n      mstore\n      0x40\n      dup1\n      dup3\n      keccak256\n        /* \"@openzeppelin/contracts/token/ERC20/ERC20.sol\":7352:7443  _balances[sender] = _balances[sender].sub(amount, \"ERC20: transfer amount exceeds balance\") */\n      swap4\n      swap1\n      swap4\n      sstore\n        /* \"@openzeppelin/contracts/token/ERC20/ERC20.sol\":7476:7496  _balances[recipient] */\n      swap1\n      dup5\n      and\n      dup2\n      mstore\n      keccak256\n      sload\n        /* \"@openzeppelin/contracts/token/ERC20/ERC20.sol\":7476:7508  _balances[recipient].add(amount) */\n      tag_475\n      swap1\n        /* \"@openzeppelin/contracts/token/ERC20/ERC20.sol\":7501:7507  amount */\n      dup3\n        /* \"@openzeppelin/contracts/token/ERC20/ERC20.sol\":7476:7500  _balances[recipient].add */\n      tag_208\n        /* \"@openzeppelin/contracts/token/ERC20/ERC20.sol\":7476:7508  _balances[recipient].add(amount) */\n      jump\t// in\n    tag_475:\n      sub(shl(0xa0, 0x01), 0x01)\n        /* \"@openzeppelin/contracts/token/ERC20/ERC20.sol\":7453:7473  _balances[recipient] */\n      dup1\n      dup5\n      and\n        /* \"@openzeppelin/contracts/token/ERC20/ERC20.sol\":7453:7462  _balances */\n      0x00\n        /* \"@openzeppelin/contracts/token/ERC20/ERC20.sol\":7453:7473  _balances[recipient] */\n      dup2\n      dup2\n      mstore\n      0x20\n      dup2\n      dup2\n      mstore\n      0x40\n      swap2\n      dup3\n      swap1\n      keccak256\n        /* \"@openzeppelin/contracts/token/ERC20/ERC20.sol\":7453:7508  _balances[recipient] = _balances[recipient].add(amount) */\n      swap5\n      swap1\n      swap5\n      sstore\n        /* \"@openzeppelin/contracts/token/ERC20/ERC20.sol\":7523:7558  Transfer(sender, recipient, amount) */\n      dup1\n      mload\n      dup6\n      dup2\n      mstore\n      swap1\n      mload\n        /* \"@openzeppelin/contracts/token/ERC20/ERC20.sol\":7453:7473  _balances[recipient] */\n      swap2\n      swap4\n        /* \"@openzeppelin/contracts/token/ERC20/ERC20.sol\":7523:7558  Transfer(sender, recipient, amount) */\n      swap3\n      dup8\n      and\n      swap3\n      0xddf252ad1be2c89b69c2b068fc378daa952ba7f163c4a11628f55a4df523b3ef\n      swap3\n      swap2\n      dup3\n      swap1\n      sub\n      add\n      swap1\n      log3\n        /* \"@openzeppelin/contracts/token/ERC20/ERC20.sol\":7035:7565  function _transfer(address sender, address recipient, uint256 amount) internal virtual {... */\n      pop\n      pop\n      pop\n      jump\t// out\n        /* \"@openzeppelin/contracts/math/SafeMath.sol\":1746:1933  function sub(uint256 a, uint256 b, string memory errorMessage) internal pure returns (uint256) {... */\n    tag_201:\n        /* \"@openzeppelin/contracts/math/SafeMath.sol\":1832:1839  uint256 */\n      0x00\n        /* \"@openzeppelin/contracts/math/SafeMath.sol\":1867:1879  errorMessage */\n      dup2\n        /* \"@openzeppelin/contracts/math/SafeMath.sol\":1859:1865  b <= a */\n      dup5\n      dup5\n      gt\n      iszero\n        /* \"@openzeppelin/contracts/math/SafeMath.sol\":1851:1880  require(b <= a, errorMessage) */\n      tag_477\n      jumpi\n      mload(0x40)\n      shl(0xe5, 0x461bcd)\n      dup2\n      mstore\n      0x04\n      add\n      dup1\n      dup1\n      0x20\n      add\n      dup3\n      dup2\n      sub\n      dup3\n      mstore\n      dup4\n      dup2\n      dup2\n      mload\n      dup2\n      mstore\n      0x20\n      add\n      swap2\n      pop\n      dup1\n      mload\n      swap1\n      0x20\n      add\n      swap1\n      dup1\n      dup4\n      dup4\n      0x00\n    tag_478:\n      dup4\n      dup2\n      lt\n      iszero\n      tag_480\n      jumpi\n      dup2\n      dup2\n      add\n      mload\n      dup4\n      dup3\n      add\n      mstore\n      0x20\n      add\n      jump(tag_478)\n    tag_480:\n      pop\n      pop\n      pop\n      pop\n      swap1\n      pop\n      swap1\n      dup2\n      add\n      swap1\n      0x1f\n      and\n      dup1\n      iszero\n      tag_481\n      jumpi\n      dup1\n      dup3\n      sub\n      dup1\n      mload\n      0x01\n      dup4\n      0x20\n      sub\n      0x0100\n      exp\n      sub\n      not\n      and\n      dup2\n      mstore\n      0x20\n      add\n      swap2\n      pop\n    tag_481:\n      pop\n      swap3\n      pop\n      pop\n      pop\n      mload(0x40)\n      dup1\n      swap2\n      sub\n      swap1\n      revert\n    tag_477:\n      pop\n      pop\n      pop\n        /* \"@openzeppelin/contracts/math/SafeMath.sol\":1902:1907  a - b */\n      swap1\n      sub\n      swap1\n        /* \"@openzeppelin/contracts/math/SafeMath.sol\":1746:1933  function sub(uint256 a, uint256 b, string memory errorMessage) internal pure returns (uint256) {... */\n      jump\t// out\n        /* \"@openzeppelin/contracts/math/SafeMath.sol\":874:1050  function add(uint256 a, uint256 b) internal pure returns (uint256) {... */\n    tag_208:\n        /* \"@openzeppelin/contracts/math/SafeMath.sol\":932:939  uint256 */\n      0x00\n        /* \"@openzeppelin/contracts/math/SafeMath.sol\":963:968  a + b */\n      dup3\n      dup3\n      add\n        /* \"@openzeppelin/contracts/math/SafeMath.sol\":986:992  c >= a */\n      dup4\n      dup2\n      lt\n      iszero\n        /* \"@openzeppelin/contracts/math/SafeMath.sol\":978:1024  require(c >= a, \"SafeMath: addition overflow\") */\n      tag_349\n      jumpi\n      0x40\n      dup1\n      mload\n      shl(0xe5, 0x461bcd)\n      dup2\n      mstore\n      0x20\n      0x04\n      dup3\n      add\n      mstore\n      0x1b\n      0x24\n      dup3\n      add\n      mstore\n      0x536166654d6174683a206164646974696f6e206f766572666c6f770000000000\n      0x44\n      dup3\n      add\n      mstore\n      swap1\n      mload\n      swap1\n      dup2\n      swap1\n      sub\n      0x64\n      add\n      swap1\n      revert\n        /* \"@openzeppelin/contracts/token/ERC20/ERC20.sol\":8524:8934  function _burn(address account, uint256 amount) internal virtual {... */\n    tag_217:\n      sub(shl(0xa0, 0x01), 0x01)\n        /* \"@openzeppelin/contracts/token/ERC20/ERC20.sol\":8607:8628  account != address(0) */\n      dup3\n      and\n        /* \"@openzeppelin/contracts/token/ERC20/ERC20.sol\":8599:8666  require(account != address(0), \"ERC20: burn from the zero address\") */\n      tag_485\n      jumpi\n      mload(0x40)\n      shl(0xe5, 0x461bcd)\n      dup2\n      mstore\n      0x04\n      add\n      dup1\n      dup1\n      0x20\n      add\n      dup3\n      dup2\n      sub\n      dup3\n      mstore\n      0x21\n      dup2\n      mstore\n      0x20\n      add\n      dup1\n      data_b16788493b576042bb52c50ed56189e0b250db113c7bfb1c3897d25cf9632d7f\n      0x21\n      swap2\n      codecopy\n      0x40\n      add\n      swap2\n      pop\n      pop\n      mload(0x40)\n      dup1\n      swap2\n      sub\n      swap1\n      revert\n    tag_485:\n        /* \"@openzeppelin/contracts/token/ERC20/ERC20.sol\":8677:8726  _beforeTokenTransfer(account, address(0), amount) */\n      tag_486\n        /* \"@openzeppelin/contracts/token/ERC20/ERC20.sol\":8698:8705  account */\n      dup3\n        /* \"@openzeppelin/contracts/token/ERC20/ERC20.sol\":8715:8716  0 */\n      0x00\n        /* \"@openzeppelin/contracts/token/ERC20/ERC20.sol\":8719:8725  amount */\n      dup4\n        /* \"@openzeppelin/contracts/token/ERC20/ERC20.sol\":8677:8697  _beforeTokenTransfer */\n      tag_511\n        /* \"@openzeppelin/contracts/token/ERC20/ERC20.sol\":8677:8726  _beforeTokenTransfer(account, address(0), amount) */\n      jump\t// in\n    tag_486:\n        /* \"@openzeppelin/contracts/token/ERC20/ERC20.sol\":8758:8826  _balances[account].sub(amount, \"ERC20: burn amount exceeds balance\") */\n      tag_487\n        /* \"@openzeppelin/contracts/token/ERC20/ERC20.sol\":8781:8787  amount */\n      dup2\n        /* \"@openzeppelin/contracts/token/ERC20/ERC20.sol\":8758:8826  _balances[account].sub(amount, \"ERC20: burn amount exceeds balance\") */\n      mload(0x40)\n      dup1\n      0x60\n      add\n      0x40\n      mstore\n      dup1\n      0x22\n      dup2\n      mstore\n      0x20\n      add\n      data_149b126e7125232b4200af45303d04fba8b74653b1a295a6a561a528c33fefdd\n      0x22\n      swap2\n      codecopy\n      sub(shl(0xa0, 0x01), 0x01)\n        /* \"@openzeppelin/contracts/token/ERC20/ERC20.sol\":8758:8776  _balances[account] */\n      dup6\n      and\n        /* \"@openzeppelin/contracts/token/ERC20/ERC20.sol\":8758:8767  _balances */\n      0x00\n        /* \"@openzeppelin/contracts/token/ERC20/ERC20.sol\":8758:8776  _balances[account] */\n      swap1\n      dup2\n      mstore\n      0x20\n      dup2\n      swap1\n      mstore\n      0x40\n      swap1\n      keccak256\n      sload\n      swap2\n        /* \"@openzeppelin/contracts/token/ERC20/ERC20.sol\":8758:8826  _balances[account].sub(amount, \"ERC20: burn amount exceeds balance\") */\n      swap1\n        /* \"@openzeppelin/contracts/token/ERC20/ERC20.sol\":8758:8780  _balances[account].sub */\n      tag_201\n        /* \"@openzeppelin/contracts/token/ERC20/ERC20.sol\":8758:8826  _balances[account].sub(amount, \"ERC20: burn amount exceeds balance\") */\n      jump\t// in\n    tag_487:\n      sub(shl(0xa0, 0x01), 0x01)\n        /* \"@openzeppelin/contracts/token/ERC20/ERC20.sol\":8737:8755  _balances[account] */\n      dup4\n      and\n        /* \"@openzeppelin/contracts/token/ERC20/ERC20.sol\":8737:8746  _balances */\n      0x00\n        /* \"@openzeppelin/contracts/token/ERC20/ERC20.sol\":8737:8755  _balances[account] */\n      swap1\n      dup2\n      mstore\n      0x20\n      dup2\n      swap1\n      mstore\n      0x40\n      swap1\n      keccak256\n        /* \"@openzeppelin/contracts/token/ERC20/ERC20.sol\":8737:8826  _balances[account] = _balances[account].sub(amount, \"ERC20: burn amount exceeds balance\") */\n      sstore\n        /* \"@openzeppelin/contracts/token/ERC20/ERC20.sol\":8851:8863  _totalSupply */\n      sload(0x02)\n        /* \"@openzeppelin/contracts/token/ERC20/ERC20.sol\":8851:8875  _totalSupply.sub(amount) */\n      tag_488\n      swap1\n        /* \"@openzeppelin/contracts/token/ERC20/ERC20.sol\":8868:8874  amount */\n      dup3\n        /* \"@openzeppelin/contracts/token/ERC20/ERC20.sol\":8851:8867  _totalSupply.sub */\n      tag_236\n        /* \"@openzeppelin/contracts/token/ERC20/ERC20.sol\":8851:8875  _totalSupply.sub(amount) */\n      jump\t// in\n    tag_488:\n        /* \"@openzeppelin/contracts/token/ERC20/ERC20.sol\":8836:8848  _totalSupply */\n      0x02\n        /* \"@openzeppelin/contracts/token/ERC20/ERC20.sol\":8836:8875  _totalSupply = _totalSupply.sub(amount) */\n      sstore\n        /* \"@openzeppelin/contracts/token/ERC20/ERC20.sol\":8890:8927  Transfer(account, address(0), amount) */\n      0x40\n      dup1\n      mload\n      dup3\n      dup2\n      mstore\n      swap1\n      mload\n        /* \"@openzeppelin/contracts/token/ERC20/ERC20.sol\":8916:8917  0 */\n      0x00\n      swap2\n      sub(shl(0xa0, 0x01), 0x01)\n        /* \"@openzeppelin/contracts/token/ERC20/ERC20.sol\":8890:8927  Transfer(account, address(0), amount) */\n      dup6\n      and\n      swap2\n      0xddf252ad1be2c89b69c2b068fc378daa952ba7f163c4a11628f55a4df523b3ef\n      swap2\n      dup2\n      swap1\n      sub\n      0x20\n      add\n      swap1\n      log3\n        /* \"@openzeppelin/contracts/token/ERC20/ERC20.sol\":8524:8934  function _burn(address account, uint256 amount) internal virtual {... */\n      pop\n      pop\n      jump\t// out\n        /* \"contracts/libraries/UniERC20.sol\":434:662  function uniBalanceOf(IERC20 token, address account) internal view returns (uint256) {... */\n    tag_224:\n        /* \"contracts/libraries/UniERC20.sol\":510:517  uint256 */\n      0x00\n        /* \"contracts/libraries/UniERC20.sol\":533:545  isETH(token) */\n      tag_490\n        /* \"contracts/libraries/UniERC20.sol\":539:544  token */\n      dup4\n        /* \"contracts/libraries/UniERC20.sol\":533:538  isETH */\n      tag_291\n        /* \"contracts/libraries/UniERC20.sol\":533:545  isETH(token) */\n      jump\t// in\n    tag_490:\n        /* \"contracts/libraries/UniERC20.sol\":529:656  if (isETH(token)) {... */\n      iszero\n      tag_491\n      jumpi\n      pop\n      sub(shl(0xa0, 0x01), 0x01)\n        /* \"contracts/libraries/UniERC20.sol\":568:583  account.balance */\n      dup2\n      and\n      balance\n        /* \"contracts/libraries/UniERC20.sol\":561:583  return account.balance */\n      jump(tag_183)\n        /* \"contracts/libraries/UniERC20.sol\":529:656  if (isETH(token)) {... */\n    tag_491:\n        /* \"contracts/libraries/UniERC20.sol\":621:626  token */\n      dup3\n      sub(shl(0xa0, 0x01), 0x01)\n        /* \"contracts/libraries/UniERC20.sol\":621:636  token.balanceOf */\n      and\n      0x70a08231\n        /* \"contracts/libraries/UniERC20.sol\":637:644  account */\n      dup4\n        /* \"contracts/libraries/UniERC20.sol\":621:645  token.balanceOf(account) */\n      mload(0x40)\n      dup3\n      0xffffffff\n      and\n      0xe0\n      shl\n      dup2\n      mstore\n      0x04\n      add\n      dup1\n      dup3\n      sub(shl(0xa0, 0x01), 0x01)\n      and\n      dup2\n      mstore\n      0x20\n      add\n      swap2\n      pop\n      pop\n      0x20\n      mload(0x40)\n      dup1\n      dup4\n      sub\n      dup2\n      dup7\n      dup1\n      extcodesize\n      iszero\n      dup1\n      iszero\n      tag_493\n      jumpi\n      0x00\n      dup1\n      revert\n    tag_493:\n      pop\n      gas\n      staticcall\n      iszero\n      dup1\n      iszero\n      tag_495\n      jumpi\n      returndatasize\n      0x00\n      dup1\n      returndatacopy\n      revert(0x00, returndatasize)\n    tag_495:\n      pop\n      pop\n      pop\n      pop\n      mload(0x40)\n      returndatasize\n      0x20\n      dup2\n      lt\n      iszero\n      tag_496\n      jumpi\n      0x00\n      dup1\n      revert\n    tag_496:\n      pop\n      mload\n      swap1\n      pop\n        /* \"contracts/libraries/UniERC20.sol\":614:645  return token.balanceOf(account) */\n      jump(tag_183)\n        /* \"@openzeppelin/contracts/math/SafeMath.sol\":2180:2639  function mul(uint256 a, uint256 b) internal pure returns (uint256) {... */\n    tag_227:\n        /* \"@openzeppelin/contracts/math/SafeMath.sol\":2238:2245  uint256 */\n      0x00\n        /* \"@openzeppelin/contracts/math/SafeMath.sol\":2479:2485  a == 0 */\n      dup3\n        /* \"@openzeppelin/contracts/math/SafeMath.sol\":2475:2520  if (a == 0) {... */\n      tag_498\n      jumpi\n      pop\n        /* \"@openzeppelin/contracts/math/SafeMath.sol\":2508:2509  0 */\n      0x00\n        /* \"@openzeppelin/contracts/math/SafeMath.sol\":2501:2509  return 0 */\n      jump(tag_183)\n        /* \"@openzeppelin/contracts/math/SafeMath.sol\":2475:2520  if (a == 0) {... */\n    tag_498:\n        /* \"@openzeppelin/contracts/math/SafeMath.sol\":2542:2547  a * b */\n      dup3\n      dup3\n      mul\n        /* \"@openzeppelin/contracts/math/SafeMath.sol\":2546:2547  b */\n      dup3\n        /* \"@openzeppelin/contracts/math/SafeMath.sol\":2542:2543  a */\n      dup5\n        /* \"@openzeppelin/contracts/math/SafeMath.sol\":2542:2547  a * b */\n      dup3\n        /* \"@openzeppelin/contracts/math/SafeMath.sol\":2542:2543  a */\n      dup2\n        /* \"@openzeppelin/contracts/math/SafeMath.sol\":2565:2570  c / a */\n      tag_499\n      jumpi\n      invalid\n    tag_499:\n      div\n        /* \"@openzeppelin/contracts/math/SafeMath.sol\":2565:2575  c / a == b */\n      eq\n        /* \"@openzeppelin/contracts/math/SafeMath.sol\":2557:2613  require(c / a == b, \"SafeMath: multiplication overflow\") */\n      tag_349\n      jumpi\n      mload(0x40)\n      shl(0xe5, 0x461bcd)\n      dup2\n      mstore\n      0x04\n      add\n      dup1\n      dup1\n      0x20\n      add\n      dup3\n      dup2\n      sub\n      dup3\n      mstore\n      0x21\n      dup2\n      mstore\n      0x20\n      add\n      dup1\n      data_9113bb53c2876a3805b2c9242029423fc540a728243ce887ab24c82cf119fba3\n      0x21\n      swap2\n      codecopy\n      0x40\n      add\n      swap2\n      pop\n      pop\n      mload(0x40)\n      dup1\n      swap2\n      sub\n      swap1\n      revert\n        /* \"@openzeppelin/contracts/math/SafeMath.sol\":3101:3231  function div(uint256 a, uint256 b) internal pure returns (uint256) {... */\n    tag_228:\n        /* \"@openzeppelin/contracts/math/SafeMath.sol\":3159:3166  uint256 */\n      0x00\n        /* \"@openzeppelin/contracts/math/SafeMath.sol\":3185:3224  div(a, b, \"SafeMath: division by zero\") */\n      tag_349\n        /* \"@openzeppelin/contracts/math/SafeMath.sol\":3189:3190  a */\n      dup4\n        /* \"@openzeppelin/contracts/math/SafeMath.sol\":3192:3193  b */\n      dup4\n        /* \"@openzeppelin/contracts/math/SafeMath.sol\":3185:3224  div(a, b, \"SafeMath: division by zero\") */\n      mload(0x40)\n      dup1\n      0x40\n      add\n      0x40\n      mstore\n      dup1\n      0x1a\n      dup2\n      mstore\n      0x20\n      add\n      0x536166654d6174683a206469766973696f6e206279207a65726f000000000000\n      dup2\n      mstore\n      pop\n        /* \"@openzeppelin/contracts/math/SafeMath.sol\":3185:3188  div */\n      tag_503\n        /* \"@openzeppelin/contracts/math/SafeMath.sol\":3185:3224  div(a, b, \"SafeMath: division by zero\") */\n      jump\t// in\n        /* \"contracts/libraries/UniERC20.sol\":668:943  function uniTransfer(IERC20 token, address payable to, uint256 amount) internal {... */\n    tag_230:\n        /* \"contracts/libraries/UniERC20.sol\":762:772  amount > 0 */\n      dup1\n      iszero\n        /* \"contracts/libraries/UniERC20.sol\":758:937  if (amount > 0) {... */\n      tag_511\n      jumpi\n        /* \"contracts/libraries/UniERC20.sol\":792:804  isETH(token) */\n      tag_506\n        /* \"contracts/libraries/UniERC20.sol\":798:803  token */\n      dup4\n        /* \"contracts/libraries/UniERC20.sol\":792:797  isETH */\n      tag_291\n        /* \"contracts/libraries/UniERC20.sol\":792:804  isETH(token) */\n      jump\t// in\n    tag_506:\n        /* \"contracts/libraries/UniERC20.sol\":788:927  if (isETH(token)) {... */\n      iszero\n      tag_507\n      jumpi\n        /* \"contracts/libraries/UniERC20.sol\":824:843  to.transfer(amount) */\n      mload(0x40)\n      sub(shl(0xa0, 0x01), 0x01)\n        /* \"contracts/libraries/UniERC20.sol\":824:835  to.transfer */\n      dup4\n      and\n      swap1\n        /* \"contracts/libraries/UniERC20.sol\":824:843  to.transfer(amount) */\n      dup3\n      iszero\n      0x08fc\n      mul\n      swap1\n        /* \"contracts/libraries/UniERC20.sol\":836:842  amount */\n      dup4\n      swap1\n        /* \"contracts/libraries/UniERC20.sol\":824:843  to.transfer(amount) */\n      0x00\n      dup2\n      dup2\n      dup2\n        /* \"contracts/libraries/UniERC20.sol\":836:842  amount */\n      dup6\n        /* \"contracts/libraries/UniERC20.sol\":824:835  to.transfer */\n      dup9\n        /* \"contracts/libraries/UniERC20.sol\":824:843  to.transfer(amount) */\n      dup9\n      call\n      swap4\n      pop\n      pop\n      pop\n      pop\n      iszero\n      dup1\n      iszero\n      tag_509\n      jumpi\n      returndatasize\n      0x00\n      dup1\n      returndatacopy\n      revert(0x00, returndatasize)\n    tag_509:\n      pop\n        /* \"contracts/libraries/UniERC20.sol\":788:927  if (isETH(token)) {... */\n      jump(tag_511)\n    tag_507:\n        /* \"contracts/libraries/UniERC20.sol\":882:912  token.safeTransfer(to, amount) */\n      tag_511\n      sub(shl(0xa0, 0x01), 0x01)\n        /* \"contracts/libraries/UniERC20.sol\":882:900  token.safeTransfer */\n      dup5\n      and\n        /* \"contracts/libraries/UniERC20.sol\":901:903  to */\n      dup4\n        /* \"contracts/libraries/UniERC20.sol\":905:911  amount */\n      dup4\n        /* \"contracts/libraries/UniERC20.sol\":882:900  token.safeTransfer */\n      tag_512\n        /* \"contracts/libraries/UniERC20.sol\":882:912  token.safeTransfer(to, amount) */\n      jump\t// in\n    tag_511:\n        /* \"contracts/libraries/UniERC20.sol\":668:943  function uniTransfer(IERC20 token, address payable to, uint256 amount) internal {... */\n      pop\n      pop\n      pop\n      jump\t// out\n        /* \"@openzeppelin/contracts/math/SafeMath.sol\":1321:1455  function sub(uint256 a, uint256 b) internal pure returns (uint256) {... */\n    tag_236:\n        /* \"@openzeppelin/contracts/math/SafeMath.sol\":1379:1386  uint256 */\n      0x00\n        /* \"@openzeppelin/contracts/math/SafeMath.sol\":1405:1448  sub(a, b, \"SafeMath: subtraction overflow\") */\n      tag_349\n        /* \"@openzeppelin/contracts/math/SafeMath.sol\":1409:1410  a */\n      dup4\n        /* \"@openzeppelin/contracts/math/SafeMath.sol\":1412:1413  b */\n      dup4\n        /* \"@openzeppelin/contracts/math/SafeMath.sol\":1405:1448  sub(a, b, \"SafeMath: subtraction overflow\") */\n      mload(0x40)\n      dup1\n      0x40\n      add\n      0x40\n      mstore\n      dup1\n      0x1e\n      dup2\n      mstore\n      0x20\n      add\n      0x536166654d6174683a207375627472616374696f6e206f766572666c6f770000\n      dup2\n      mstore\n      pop\n        /* \"@openzeppelin/contracts/math/SafeMath.sol\":1405:1408  sub */\n      tag_201\n        /* \"@openzeppelin/contracts/math/SafeMath.sol\":1405:1448  sub(a, b, \"SafeMath: subtraction overflow\") */\n      jump\t// in\n        /* \"contracts/Mooniswap.sol\":971:1170  function scale(VirtualBalance.Data storage self, uint256 realBalance, uint256 num, uint256 denom) internal {... */\n    tag_237:\n        /* \"contracts/Mooniswap.sol\":1088:1163  set(self, current(self, realBalance).mul(num).add(denom.sub(1)).div(denom)) */\n      tag_516\n        /* \"contracts/Mooniswap.sol\":1092:1096  self */\n      dup5\n        /* \"contracts/Mooniswap.sol\":1098:1162  current(self, realBalance).mul(num).add(denom.sub(1)).div(denom) */\n      tag_517\n        /* \"contracts/Mooniswap.sol\":1156:1161  denom */\n      dup4\n        /* \"contracts/Mooniswap.sol\":1098:1151  current(self, realBalance).mul(num).add(denom.sub(1)) */\n      tag_226\n        /* \"contracts/Mooniswap.sol\":1138:1150  denom.sub(1) */\n      tag_519\n        /* \"contracts/Mooniswap.sol\":1156:1161  denom */\n      dup3\n        /* \"contracts/Mooniswap.sol\":1148:1149  1 */\n      0x01\n        /* \"contracts/Mooniswap.sol\":1138:1147  denom.sub */\n      tag_236\n        /* \"contracts/Mooniswap.sol\":1138:1150  denom.sub(1) */\n      jump\t// in\n    tag_519:\n        /* \"contracts/Mooniswap.sol\":1098:1124  current(self, realBalance) */\n      0x40\n      dup1\n      mload\n      dup1\n      dup3\n      add\n      swap1\n      swap2\n      mstore\n      dup11\n      sload\n      sub(shl(0xd8, 0x01), 0x01)\n      dup2\n      and\n      dup3\n      mstore\n      shl(0xd8, 0x01)\n      swap1\n      div\n      0xffffffffff\n      and\n      0x20\n      dup3\n      add\n      mstore\n        /* \"contracts/Mooniswap.sol\":1098:1133  current(self, realBalance).mul(num) */\n      tag_417\n      swap1\n        /* \"contracts/Mooniswap.sol\":1129:1132  num */\n      dup10\n      swap1\n        /* \"contracts/Mooniswap.sol\":1098:1124  current(self, realBalance) */\n      tag_340\n      swap1\n        /* \"contracts/Mooniswap.sol\":1112:1123  realBalance */\n      dup13\n        /* \"contracts/Mooniswap.sol\":1098:1105  current */\n      tag_305\n        /* \"contracts/Mooniswap.sol\":1098:1124  current(self, realBalance) */\n      jump\t// in\n        /* \"contracts/Mooniswap.sol\":1098:1162  current(self, realBalance).mul(num).add(denom.sub(1)).div(denom) */\n    tag_517:\n        /* \"contracts/Mooniswap.sol\":1088:1091  set */\n      tag_321\n        /* \"contracts/Mooniswap.sol\":1088:1163  set(self, current(self, realBalance).mul(num).add(denom.sub(1)).div(denom)) */\n      jump\t// in\n    tag_516:\n        /* \"contracts/Mooniswap.sol\":971:1170  function scale(VirtualBalance.Data storage self, uint256 realBalance, uint256 num, uint256 denom) internal {... */\n      pop\n      pop\n      pop\n      pop\n      jump\t// out\n        /* \"contracts/libraries/UniERC20.sol\":317:428  function isETH(IERC20 token) internal pure returns(bool) {... */\n    tag_291:\n      sub(shl(0xa0, 0x01), 0x01)\n        /* \"contracts/libraries/UniERC20.sol\":392:420  address(token) == address(0) */\n      and\n      iszero\n      swap1\n        /* \"contracts/libraries/UniERC20.sol\":317:428  function isETH(IERC20 token) internal pure returns(bool) {... */\n      jump\t// out\n        /* \"contracts/Mooniswap.sol\":1176:1556  function current(VirtualBalance.Data memory self, uint256 realBalance) internal view returns(uint256) {... */\n    tag_305:\n        /* \"contracts/Mooniswap.sol\":1269:1276  uint256 */\n      0x00\n        /* \"contracts/Mooniswap.sol\":1288:1306  uint256 timePassed */\n      dup1\n        /* \"contracts/Mooniswap.sol\":1309:1363  Math.min(DECAY_PERIOD, block.timestamp.sub(self.time)) */\n      tag_524\n        /* \"contracts/Mooniswap.sol\":643:652  5 minutes */\n      0x012c\n        /* \"contracts/Mooniswap.sol\":1332:1362  block.timestamp.sub(self.time) */\n      tag_405\n        /* \"contracts/Mooniswap.sol\":1352:1356  self */\n      dup7\n        /* \"contracts/Mooniswap.sol\":1352:1361  self.time */\n      0x20\n      add\n      mload\n        /* \"contracts/Mooniswap.sol\":1332:1362  block.timestamp.sub(self.time) */\n      0xffffffffff\n      and\n        /* \"contracts/Mooniswap.sol\":1332:1347  block.timestamp */\n      timestamp\n        /* \"contracts/Mooniswap.sol\":1332:1351  block.timestamp.sub */\n      tag_236\n      swap1\n        /* \"contracts/Mooniswap.sol\":1332:1362  block.timestamp.sub(self.time) */\n      swap2\n      swap1\n      0xffffffff\n      and\n      jump\t// in\n        /* \"contracts/Mooniswap.sol\":1309:1363  Math.min(DECAY_PERIOD, block.timestamp.sub(self.time)) */\n    tag_524:\n        /* \"contracts/Mooniswap.sol\":1288:1363  uint256 timePassed = Math.min(DECAY_PERIOD, block.timestamp.sub(self.time)) */\n      swap1\n      pop\n        /* \"contracts/Mooniswap.sol\":1373:1391  uint256 timeRemain */\n      0x00\n        /* \"contracts/Mooniswap.sol\":1394:1422  DECAY_PERIOD.sub(timePassed) */\n      tag_526\n        /* \"contracts/Mooniswap.sol\":643:652  5 minutes */\n      0x012c\n        /* \"contracts/Mooniswap.sol\":1288:1363  uint256 timePassed = Math.min(DECAY_PERIOD, block.timestamp.sub(self.time)) */\n      dup4\n        /* \"contracts/Mooniswap.sol\":1394:1410  DECAY_PERIOD.sub */\n      tag_236\n        /* \"contracts/Mooniswap.sol\":1394:1422  DECAY_PERIOD.sub(timePassed) */\n      jump\t// in\n    tag_526:\n        /* \"contracts/Mooniswap.sol\":1373:1422  uint256 timeRemain = DECAY_PERIOD.sub(timePassed) */\n      swap1\n      pop\n        /* \"contracts/Mooniswap.sol\":1439:1549  uint256(self.balance).mul(timeRemain).add(... */\n      tag_461\n        /* \"contracts/Mooniswap.sol\":643:652  5 minutes */\n      0x012c\n        /* \"contracts/Mooniswap.sol\":1439:1531  uint256(self.balance).mul(timeRemain).add(... */\n      tag_226\n        /* \"contracts/Mooniswap.sol\":1494:1521  realBalance.mul(timePassed) */\n      tag_529\n        /* \"contracts/Mooniswap.sol\":1494:1505  realBalance */\n      dup8\n        /* \"contracts/Mooniswap.sol\":1510:1520  timePassed */\n      dup7\n        /* \"contracts/Mooniswap.sol\":1494:1509  realBalance.mul */\n      tag_227\n        /* \"contracts/Mooniswap.sol\":1494:1521  realBalance.mul(timePassed) */\n      jump\t// in\n    tag_529:\n        /* \"contracts/Mooniswap.sol\":1447:1459  self.balance */\n      dup9\n      mload\n        /* \"contracts/Mooniswap.sol\":1439:1476  uint256(self.balance).mul(timeRemain) */\n      tag_417\n      swap1\n      sub(shl(0xd8, 0x01), 0x01)\n        /* \"contracts/Mooniswap.sol\":1439:1460  uint256(self.balance) */\n      and\n        /* \"contracts/Mooniswap.sol\":1465:1475  timeRemain */\n      dup7\n        /* \"contracts/Mooniswap.sol\":1439:1464  uint256(self.balance).mul */\n      tag_227\n        /* \"contracts/Mooniswap.sol\":1439:1476  uint256(self.balance).mul(timeRemain) */\n      jump\t// in\n        /* \"@openzeppelin/contracts/math/Math.sol\":215:320  function max(uint256 a, uint256 b) internal pure returns (uint256) {... */\n    tag_306:\n        /* \"@openzeppelin/contracts/math/Math.sol\":273:280  uint256 */\n      0x00\n        /* \"@openzeppelin/contracts/math/Math.sol\":304:305  b */\n      dup2\n        /* \"@openzeppelin/contracts/math/Math.sol\":299:300  a */\n      dup4\n        /* \"@openzeppelin/contracts/math/Math.sol\":299:305  a >= b */\n      lt\n      iszero\n        /* \"@openzeppelin/contracts/math/Math.sol\":299:313  a >= b ? a : b */\n      tag_532\n      jumpi\n        /* \"@openzeppelin/contracts/math/Math.sol\":312:313  b */\n      dup2\n        /* \"@openzeppelin/contracts/math/Math.sol\":299:313  a >= b ? a : b */\n      jump(tag_349)\n    tag_532:\n      pop\n        /* \"@openzeppelin/contracts/math/Math.sol\":308:309  a */\n      swap1\n      swap2\n        /* \"@openzeppelin/contracts/math/Math.sol\":215:320  function max(uint256 a, uint256 b) internal pure returns (uint256) {... */\n      swap1\n      pop\n      jump\t// out\n        /* \"@openzeppelin/contracts/math/Math.sol\":391:495  function min(uint256 a, uint256 b) internal pure returns (uint256) {... */\n    tag_309:\n        /* \"@openzeppelin/contracts/math/Math.sol\":449:456  uint256 */\n      0x00\n        /* \"@openzeppelin/contracts/math/Math.sol\":479:480  b */\n      dup2\n        /* \"@openzeppelin/contracts/math/Math.sol\":475:476  a */\n      dup4\n        /* \"@openzeppelin/contracts/math/Math.sol\":475:480  a < b */\n      lt\n        /* \"@openzeppelin/contracts/math/Math.sol\":475:488  a < b ? a : b */\n      tag_532\n      jumpi\n        /* \"@openzeppelin/contracts/math/Math.sol\":487:488  b */\n      dup2\n        /* \"@openzeppelin/contracts/math/Math.sol\":475:488  a < b ? a : b */\n      jump(tag_349)\n        /* \"contracts/libraries/UniERC20.sol\":949:1459  function uniTransferFromSenderToThis(IERC20 token, uint256 amount) internal {... */\n    tag_311:\n        /* \"contracts/libraries/UniERC20.sol\":1039:1049  amount > 0 */\n      dup1\n      iszero\n        /* \"contracts/libraries/UniERC20.sol\":1035:1453  if (amount > 0) {... */\n      tag_547\n      jumpi\n        /* \"contracts/libraries/UniERC20.sol\":1069:1081  isETH(token) */\n      tag_539\n        /* \"contracts/libraries/UniERC20.sol\":1075:1080  token */\n      dup3\n        /* \"contracts/libraries/UniERC20.sol\":1069:1074  isETH */\n      tag_291\n        /* \"contracts/libraries/UniERC20.sol\":1069:1081  isETH(token) */\n      jump\t// in\n    tag_539:\n        /* \"contracts/libraries/UniERC20.sol\":1065:1443  if (isETH(token)) {... */\n      iszero\n      tag_540\n      jumpi\n        /* \"contracts/libraries/UniERC20.sol\":1122:1128  amount */\n      dup1\n        /* \"contracts/libraries/UniERC20.sol\":1109:1118  msg.value */\n      callvalue\n        /* \"contracts/libraries/UniERC20.sol\":1109:1128  msg.value >= amount */\n      lt\n      iszero\n        /* \"contracts/libraries/UniERC20.sol\":1101:1159  require(msg.value >= amount, \"UniERC20: not enough value\") */\n      tag_541\n      jumpi\n      0x40\n      dup1\n      mload\n      shl(0xe5, 0x461bcd)\n      dup2\n      mstore\n      0x20\n      0x04\n      dup3\n      add\n      mstore\n      0x1a\n      0x24\n      dup3\n      add\n      mstore\n      0x556e6945524332303a206e6f7420656e6f7567682076616c7565000000000000\n      0x44\n      dup3\n      add\n      mstore\n      swap1\n      mload\n      swap1\n      dup2\n      swap1\n      sub\n      0x64\n      add\n      swap1\n      revert\n    tag_541:\n        /* \"contracts/libraries/UniERC20.sol\":1193:1199  amount */\n      dup1\n        /* \"contracts/libraries/UniERC20.sol\":1181:1190  msg.value */\n      callvalue\n        /* \"contracts/libraries/UniERC20.sol\":1181:1199  msg.value > amount */\n      gt\n        /* \"contracts/libraries/UniERC20.sol\":1177:1333  if (msg.value > amount) {... */\n      iszero\n      tag_542\n      jumpi\n        /* \"contracts/libraries/UniERC20.sol\":1272:1282  msg.sender */\n      caller\n        /* \"contracts/libraries/UniERC20.sol\":1272:1314  msg.sender.transfer(msg.value.sub(amount)) */\n      0x08fc\n        /* \"contracts/libraries/UniERC20.sol\":1292:1313  msg.value.sub(amount) */\n      tag_543\n        /* \"contracts/libraries/UniERC20.sol\":1292:1301  msg.value */\n      callvalue\n        /* \"contracts/libraries/UniERC20.sol\":1306:1312  amount */\n      dup5\n        /* \"contracts/libraries/UniERC20.sol\":1292:1305  msg.value.sub */\n      tag_236\n        /* \"contracts/libraries/UniERC20.sol\":1292:1313  msg.value.sub(amount) */\n      jump\t// in\n    tag_543:\n        /* \"contracts/libraries/UniERC20.sol\":1272:1314  msg.sender.transfer(msg.value.sub(amount)) */\n      mload(0x40)\n      dup2\n      iszero\n      swap1\n      swap3\n      mul\n      swap2\n      0x00\n      dup2\n      dup2\n      dup2\n      dup6\n      dup9\n      dup9\n      call\n      swap4\n      pop\n      pop\n      pop\n      pop\n      iszero\n      dup1\n      iszero\n      tag_545\n      jumpi\n      returndatasize\n      0x00\n      dup1\n      returndatacopy\n      revert(0x00, returndatasize)\n    tag_545:\n      pop\n        /* \"contracts/libraries/UniERC20.sol\":1177:1333  if (msg.value > amount) {... */\n    tag_542:\n        /* \"contracts/libraries/UniERC20.sol\":1065:1443  if (isETH(token)) {... */\n      jump(tag_547)\n    tag_540:\n        /* \"contracts/libraries/UniERC20.sol\":1371:1428  token.safeTransferFrom(msg.sender, address(this), amount) */\n      tag_547\n      sub(shl(0xa0, 0x01), 0x01)\n        /* \"contracts/libraries/UniERC20.sol\":1371:1393  token.safeTransferFrom */\n      dup4\n      and\n        /* \"contracts/libraries/UniERC20.sol\":1394:1404  msg.sender */\n      caller\n        /* \"contracts/libraries/UniERC20.sol\":1414:1418  this */\n      address\n        /* \"contracts/libraries/UniERC20.sol\":1421:1427  amount */\n      dup5\n        /* \"contracts/libraries/UniERC20.sol\":1371:1393  token.safeTransferFrom */\n      tag_548\n        /* \"contracts/libraries/UniERC20.sol\":1371:1428  token.safeTransferFrom(msg.sender, address(this), amount) */\n      jump\t// in\n    tag_547:\n        /* \"contracts/libraries/UniERC20.sol\":949:1459  function uniTransferFromSenderToThis(IERC20 token, uint256 amount) internal {... */\n      pop\n      pop\n      jump\t// out\n        /* \"contracts/Mooniswap.sol\":659:825  function set(VirtualBalance.Data storage self, uint256 balance) internal {... */\n    tag_321:\n        /* \"contracts/Mooniswap.sol\":742:773  self.balance = uint216(balance) */\n      dup2\n      sload\n      not(sub(shl(0xd8, 0x01), 0x01))\n      and\n      sub(shl(0xd8, 0x01), 0x01)\n      swap2\n      dup3\n      and\n      or\n        /* \"contracts/Mooniswap.sol\":783:818  self.time = uint40(block.timestamp) */\n      and\n      shl(0xd8, 0x01)\n        /* \"contracts/Mooniswap.sol\":802:817  block.timestamp */\n      timestamp\n        /* \"contracts/Mooniswap.sol\":783:818  self.time = uint40(block.timestamp) */\n      0xffffffffff\n      and\n      mul\n      or\n      swap1\n      sstore\n        /* \"contracts/Mooniswap.sol\":659:825  function set(VirtualBalance.Data storage self, uint256 balance) internal {... */\n      jump\t// out\n        /* \"contracts/Mooniswap.sol\":831:965  function update(VirtualBalance.Data storage self, uint256 realBalance) internal {... */\n    tag_326:\n        /* \"contracts/Mooniswap.sol\":931:957  current(self, realBalance) */\n      0x40\n      dup1\n      mload\n      dup1\n      dup3\n      add\n      swap1\n      swap2\n      mstore\n      dup3\n      sload\n      sub(shl(0xd8, 0x01), 0x01)\n      dup2\n      and\n      dup3\n      mstore\n      shl(0xd8, 0x01)\n      swap1\n      div\n      0xffffffffff\n      and\n      0x20\n      dup3\n      add\n      mstore\n        /* \"contracts/Mooniswap.sol\":921:958  set(self, current(self, realBalance)) */\n      tag_547\n      swap1\n        /* \"contracts/Mooniswap.sol\":931:957  current(self, realBalance) */\n      dup4\n      swap1\n      tag_517\n      swap1\n        /* \"contracts/Mooniswap.sol\":945:956  realBalance */\n      dup5\n        /* \"contracts/Mooniswap.sol\":931:938  current */\n      tag_305\n        /* \"contracts/Mooniswap.sol\":931:957  current(self, realBalance) */\n      jump\t// in\n        /* \"contracts/libraries/Sqrt.sol\":187:558  function sqrt(uint256 y) internal pure returns (uint256) {... */\n    tag_342:\n        /* \"contracts/libraries/Sqrt.sol\":235:242  uint256 */\n      0x00\n        /* \"contracts/libraries/Sqrt.sol\":262:263  3 */\n      0x03\n        /* \"contracts/libraries/Sqrt.sol\":258:259  y */\n      dup3\n        /* \"contracts/libraries/Sqrt.sol\":258:263  y > 3 */\n      gt\n        /* \"contracts/libraries/Sqrt.sol\":254:552  if (y > 3) {... */\n      iszero\n      tag_554\n      jumpi\n        /* \"contracts/libraries/Sqrt.sol\":291:292  y */\n      dup2\n        /* \"contracts/libraries/Sqrt.sol\":326:327  1 */\n      0x01\n        /* \"contracts/libraries/Sqrt.sol\":322:323  2 */\n      0x02\n        /* \"contracts/libraries/Sqrt.sol\":318:323  y / 2 */\n      dup3\n      div\n        /* \"contracts/libraries/Sqrt.sol\":318:327  y / 2 + 1 */\n      add\n        /* \"contracts/libraries/Sqrt.sol\":341:430  while (x < z) {... */\n    tag_556:\n        /* \"contracts/libraries/Sqrt.sol\":352:353  z */\n      dup2\n        /* \"contracts/libraries/Sqrt.sol\":348:349  x */\n      dup2\n        /* \"contracts/libraries/Sqrt.sol\":348:353  x < z */\n      lt\n        /* \"contracts/libraries/Sqrt.sol\":341:430  while (x < z) {... */\n      iszero\n      tag_557\n      jumpi\n        /* \"contracts/libraries/Sqrt.sol\":377:378  x */\n      dup1\n        /* \"contracts/libraries/Sqrt.sol\":373:378  z = x */\n      swap2\n      pop\n        /* \"contracts/libraries/Sqrt.sol\":414:415  2 */\n      0x02\n        /* \"contracts/libraries/Sqrt.sol\":409:410  x */\n      dup2\n        /* \"contracts/libraries/Sqrt.sol\":405:406  x */\n      dup3\n        /* \"contracts/libraries/Sqrt.sol\":401:402  y */\n      dup7\n        /* \"contracts/libraries/Sqrt.sol\":401:406  y / x */\n      dup2\n      tag_558\n      jumpi\n      invalid\n    tag_558:\n      div\n        /* \"contracts/libraries/Sqrt.sol\":401:410  y / x + x */\n      add\n        /* \"contracts/libraries/Sqrt.sol\":400:415  (y / x + x) / 2 */\n      dup2\n      tag_559\n      jumpi\n      invalid\n    tag_559:\n      div\n        /* \"contracts/libraries/Sqrt.sol\":396:415  x = (y / x + x) / 2 */\n      swap1\n      pop\n        /* \"contracts/libraries/Sqrt.sol\":341:430  while (x < z) {... */\n      jump(tag_556)\n    tag_557:\n      pop\n        /* \"contracts/libraries/Sqrt.sol\":450:451  z */\n      swap1\n      pop\n        /* \"contracts/libraries/Sqrt.sol\":443:451  return z */\n      jump(tag_240)\n        /* \"contracts/libraries/Sqrt.sol\":254:552  if (y > 3) {... */\n    tag_554:\n        /* \"contracts/libraries/Sqrt.sol\":472:478  y != 0 */\n      dup2\n      iszero\n        /* \"contracts/libraries/Sqrt.sol\":468:552  if (y != 0) {... */\n      tag_561\n      jumpi\n      pop\n        /* \"contracts/libraries/Sqrt.sol\":501:502  1 */\n      0x01\n        /* \"contracts/libraries/Sqrt.sol\":494:502  return 1 */\n      jump(tag_240)\n        /* \"contracts/libraries/Sqrt.sol\":468:552  if (y != 0) {... */\n    tag_561:\n      pop\n        /* \"contracts/libraries/Sqrt.sol\":540:541  0 */\n      0x00\n        /* \"contracts/libraries/Sqrt.sol\":533:541  return 0 */\n      jump(tag_240)\n        /* \"@openzeppelin/contracts/token/ERC20/ERC20.sol\":7835:8205  function _mint(address account, uint256 amount) internal virtual {... */\n    tag_345:\n      sub(shl(0xa0, 0x01), 0x01)\n        /* \"@openzeppelin/contracts/token/ERC20/ERC20.sol\":7918:7939  account != address(0) */\n      dup3\n      and\n        /* \"@openzeppelin/contracts/token/ERC20/ERC20.sol\":7910:7975  require(account != address(0), \"ERC20: mint to the zero address\") */\n      tag_564\n      jumpi\n      0x40\n      dup1\n      mload\n      shl(0xe5, 0x461bcd)\n      dup2\n      mstore\n      0x20\n      0x04\n      dup3\n      add\n      mstore\n      0x1f\n      0x24\n      dup3\n      add\n      mstore\n      0x45524332303a206d696e7420746f20746865207a65726f206164647265737300\n      0x44\n      dup3\n      add\n      mstore\n      swap1\n      mload\n      swap1\n      dup2\n      swap1\n      sub\n      0x64\n      add\n      swap1\n      revert\n    tag_564:\n        /* \"@openzeppelin/contracts/token/ERC20/ERC20.sol\":7986:8035  _beforeTokenTransfer(address(0), account, amount) */\n      tag_565\n        /* \"@openzeppelin/contracts/token/ERC20/ERC20.sol\":8015:8016  0 */\n      0x00\n        /* \"@openzeppelin/contracts/token/ERC20/ERC20.sol\":8019:8026  account */\n      dup4\n        /* \"@openzeppelin/contracts/token/ERC20/ERC20.sol\":8028:8034  amount */\n      dup4\n        /* \"@openzeppelin/contracts/token/ERC20/ERC20.sol\":7986:8006  _beforeTokenTransfer */\n      tag_511\n        /* \"@openzeppelin/contracts/token/ERC20/ERC20.sol\":7986:8035  _beforeTokenTransfer(address(0), account, amount) */\n      jump\t// in\n    tag_565:\n        /* \"@openzeppelin/contracts/token/ERC20/ERC20.sol\":8061:8073  _totalSupply */\n      sload(0x02)\n        /* \"@openzeppelin/contracts/token/ERC20/ERC20.sol\":8061:8085  _totalSupply.add(amount) */\n      tag_566\n      swap1\n        /* \"@openzeppelin/contracts/token/ERC20/ERC20.sol\":8078:8084  amount */\n      dup3\n        /* \"@openzeppelin/contracts/token/ERC20/ERC20.sol\":8061:8077  _totalSupply.add */\n      tag_208\n        /* \"@openzeppelin/contracts/token/ERC20/ERC20.sol\":8061:8085  _totalSupply.add(amount) */\n      jump\t// in\n    tag_566:\n        /* \"@openzeppelin/contracts/token/ERC20/ERC20.sol\":8046:8058  _totalSupply */\n      0x02\n        /* \"@openzeppelin/contracts/token/ERC20/ERC20.sol\":8046:8085  _totalSupply = _totalSupply.add(amount) */\n      sstore\n      sub(shl(0xa0, 0x01), 0x01)\n        /* \"@openzeppelin/contracts/token/ERC20/ERC20.sol\":8116:8134  _balances[account] */\n      dup3\n      and\n        /* \"@openzeppelin/contracts/token/ERC20/ERC20.sol\":8116:8125  _balances */\n      0x00\n        /* \"@openzeppelin/contracts/token/ERC20/ERC20.sol\":8116:8134  _balances[account] */\n      swap1\n      dup2\n      mstore\n      0x20\n      dup2\n      swap1\n      mstore\n      0x40\n      swap1\n      keccak256\n      sload\n        /* \"@openzeppelin/contracts/token/ERC20/ERC20.sol\":8116:8146  _balances[account].add(amount) */\n      tag_567\n      swap1\n        /* \"@openzeppelin/contracts/token/ERC20/ERC20.sol\":8139:8145  amount */\n      dup3\n        /* \"@openzeppelin/contracts/token/ERC20/ERC20.sol\":8116:8138  _balances[account].add */\n      tag_208\n        /* \"@openzeppelin/contracts/token/ERC20/ERC20.sol\":8116:8146  _balances[account].add(amount) */\n      jump\t// in\n    tag_567:\n      sub(shl(0xa0, 0x01), 0x01)\n        /* \"@openzeppelin/contracts/token/ERC20/ERC20.sol\":8095:8113  _balances[account] */\n      dup4\n      and\n        /* \"@openzeppelin/contracts/token/ERC20/ERC20.sol\":8095:8104  _balances */\n      0x00\n        /* \"@openzeppelin/contracts/token/ERC20/ERC20.sol\":8095:8113  _balances[account] */\n      dup2\n      dup2\n      mstore\n      0x20\n      dup2\n      dup2\n      mstore\n      0x40\n      dup1\n      dup4\n      keccak256\n        /* \"@openzeppelin/contracts/token/ERC20/ERC20.sol\":8095:8146  _balances[account] = _balances[account].add(amount) */\n      swap5\n      swap1\n      swap5\n      sstore\n        /* \"@openzeppelin/contracts/token/ERC20/ERC20.sol\":8161:8198  Transfer(address(0), account, amount) */\n      dup4\n      mload\n      dup6\n      dup2\n      mstore\n      swap4\n      mload\n        /* \"@openzeppelin/contracts/token/ERC20/ERC20.sol\":8095:8113  _balances[account] */\n      swap3\n      swap4\n        /* \"@openzeppelin/contracts/token/ERC20/ERC20.sol\":8095:8104  _balances */\n      swap2\n      swap3\n        /* \"@openzeppelin/contracts/token/ERC20/ERC20.sol\":8161:8198  Transfer(address(0), account, amount) */\n      0xddf252ad1be2c89b69c2b068fc378daa952ba7f163c4a11628f55a4df523b3ef\n      swap3\n      dup2\n      swap1\n      sub\n      swap1\n      swap2\n      add\n      swap1\n      log3\n        /* \"@openzeppelin/contracts/token/ERC20/ERC20.sol\":7835:8205  function _mint(address account, uint256 amount) internal virtual {... */\n      pop\n      pop\n      jump\t// out\n        /* \"@openzeppelin/contracts/math/SafeMath.sol\":3713:3985  function div(uint256 a, uint256 b, string memory errorMessage) internal pure returns (uint256) {... */\n    tag_503:\n        /* \"@openzeppelin/contracts/math/SafeMath.sol\":3799:3806  uint256 */\n      0x00\n        /* \"@openzeppelin/contracts/math/SafeMath.sol\":3833:3845  errorMessage */\n      dup2\n        /* \"@openzeppelin/contracts/math/SafeMath.sol\":3826:3831  b > 0 */\n      dup4\n        /* \"@openzeppelin/contracts/math/SafeMath.sol\":3818:3846  require(b > 0, errorMessage) */\n      tag_570\n      jumpi\n      mload(0x40)\n      shl(0xe5, 0x461bcd)\n      dup2\n      mstore\n      0x20\n      0x04\n      dup3\n      add\n      dup2\n      dup2\n      mstore\n      dup4\n      mload\n      0x24\n      dup5\n      add\n      mstore\n      dup4\n      mload\n      swap1\n      swap3\n      dup4\n      swap3\n      0x44\n      swap1\n      swap2\n      add\n      swap2\n      swap1\n      dup6\n      add\n      swap1\n      dup1\n      dup4\n      dup4\n      0x00\n      dup4\n      iszero\n      tag_480\n      jumpi\n      dup2\n      dup2\n      add\n      mload\n      dup4\n      dup3\n      add\n      mstore\n      0x20\n      add\n      jump(tag_478)\n    tag_570:\n      pop\n        /* \"@openzeppelin/contracts/math/SafeMath.sol\":3856:3865  uint256 c */\n      0x00\n        /* \"@openzeppelin/contracts/math/SafeMath.sol\":3872:3873  b */\n      dup4\n        /* \"@openzeppelin/contracts/math/SafeMath.sol\":3868:3869  a */\n      dup6\n        /* \"@openzeppelin/contracts/math/SafeMath.sol\":3868:3873  a / b */\n      dup2\n      tag_575\n      jumpi\n      invalid\n    tag_575:\n      div\n      swap6\n        /* \"@openzeppelin/contracts/math/SafeMath.sol\":3713:3985  function div(uint256 a, uint256 b, string memory errorMessage) internal pure returns (uint256) {... */\n      swap5\n      pop\n      pop\n      pop\n      pop\n      pop\n      jump\t// out\n        /* \"@openzeppelin/contracts/token/ERC20/SafeERC20.sol\":696:871  function safeTransfer(IERC20 token, address to, uint256 value) internal {... */\n    tag_512:\n        /* \"@openzeppelin/contracts/token/ERC20/SafeERC20.sol\":805:863  abi.encodeWithSelector(token.transfer.selector, to, value) */\n      0x40\n      dup1\n      mload\n      sub(shl(0xa0, 0x01), 0x01)\n      dup5\n      and\n      0x24\n      dup3\n      add\n      mstore\n      0x44\n      dup1\n      dup3\n      add\n      dup5\n      swap1\n      mstore\n      dup3\n      mload\n      dup1\n      dup4\n      sub\n      swap1\n      swap2\n      add\n      dup2\n      mstore\n      0x64\n      swap1\n      swap2\n      add\n      swap1\n      swap2\n      mstore\n      0x20\n      dup2\n      add\n      dup1\n      mload\n      sub(shl(0xe0, 0x01), 0x01)\n      and\n      shl(0xe0, 0xa9059cbb)\n      or\n      swap1\n      mstore\n        /* \"@openzeppelin/contracts/token/ERC20/SafeERC20.sol\":778:864  _callOptionalReturn(token, abi.encodeWithSelector(token.transfer.selector, to, value)) */\n      tag_511\n      swap1\n        /* \"@openzeppelin/contracts/token/ERC20/SafeERC20.sol\":798:803  token */\n      dup5\n      swap1\n        /* \"@openzeppelin/contracts/token/ERC20/SafeERC20.sol\":778:797  _callOptionalReturn */\n      tag_578\n        /* \"@openzeppelin/contracts/token/ERC20/SafeERC20.sol\":778:864  _callOptionalReturn(token, abi.encodeWithSelector(token.transfer.selector, to, value)) */\n      jump\t// in\n        /* \"@openzeppelin/contracts/token/ERC20/SafeERC20.sol\":877:1080  function safeTransferFrom(IERC20 token, address from, address to, uint256 value) internal {... */\n    tag_548:\n        /* \"@openzeppelin/contracts/token/ERC20/SafeERC20.sol\":1004:1072  abi.encodeWithSelector(token.transferFrom.selector, from, to, value) */\n      0x40\n      dup1\n      mload\n      sub(shl(0xa0, 0x01), 0x01)\n      dup1\n      dup7\n      and\n      0x24\n      dup4\n      add\n      mstore\n      dup5\n      and\n      0x44\n      dup3\n      add\n      mstore\n      0x64\n      dup1\n      dup3\n      add\n      dup5\n      swap1\n      mstore\n      dup3\n      mload\n      dup1\n      dup4\n      sub\n      swap1\n      swap2\n      add\n      dup2\n      mstore\n      0x84\n      swap1\n      swap2\n      add\n      swap1\n      swap2\n      mstore\n      0x20\n      dup2\n      add\n      dup1\n      mload\n      sub(shl(0xe0, 0x01), 0x01)\n      and\n      shl(0xe0, 0x23b872dd)\n      or\n      swap1\n      mstore\n        /* \"@openzeppelin/contracts/token/ERC20/SafeERC20.sol\":977:1073  _callOptionalReturn(token, abi.encodeWithSelector(token.transferFrom.selector, from, to, value)) */\n      tag_516\n      swap1\n        /* \"@openzeppelin/contracts/token/ERC20/SafeERC20.sol\":997:1002  token */\n      dup6\n      swap1\n        /* \"@openzeppelin/contracts/token/ERC20/SafeERC20.sol\":2959:3710  function _callOptionalReturn(IERC20 token, bytes memory data) private {... */\n    tag_578:\n        /* \"@openzeppelin/contracts/token/ERC20/SafeERC20.sol\":3378:3401  bytes memory returndata */\n      0x60\n        /* \"@openzeppelin/contracts/token/ERC20/SafeERC20.sol\":3404:3473  address(token).functionCall(data, \"SafeERC20: low-level call failed\") */\n      tag_582\n        /* \"@openzeppelin/contracts/token/ERC20/SafeERC20.sol\":3432:3436  data */\n      dup3\n        /* \"@openzeppelin/contracts/token/ERC20/SafeERC20.sol\":3404:3473  address(token).functionCall(data, \"SafeERC20: low-level call failed\") */\n      mload(0x40)\n      dup1\n      0x40\n      add\n      0x40\n      mstore\n      dup1\n      0x20\n      dup2\n      mstore\n      0x20\n      add\n      0x5361666545524332303a206c6f772d6c6576656c2063616c6c206661696c6564\n      dup2\n      mstore\n      pop\n        /* \"@openzeppelin/contracts/token/ERC20/SafeERC20.sol\":3412:3417  token */\n      dup6\n      sub(shl(0xa0, 0x01), 0x01)\n        /* \"@openzeppelin/contracts/token/ERC20/SafeERC20.sol\":3404:3431  address(token).functionCall */\n      and\n      tag_583\n      swap1\n        /* \"@openzeppelin/contracts/token/ERC20/SafeERC20.sol\":3404:3473  address(token).functionCall(data, \"SafeERC20: low-level call failed\") */\n      swap3\n      swap2\n      swap1\n      0xffffffff\n      and\n      jump\t// in\n    tag_582:\n        /* \"@openzeppelin/contracts/token/ERC20/SafeERC20.sol\":3487:3504  returndata.length */\n      dup1\n      mload\n        /* \"@openzeppelin/contracts/token/ERC20/SafeERC20.sol\":3378:3473  bytes memory returndata = address(token).functionCall(data, \"SafeERC20: low-level call failed\") */\n      swap1\n      swap2\n      pop\n        /* \"@openzeppelin/contracts/token/ERC20/SafeERC20.sol\":3487:3508  returndata.length > 0 */\n      iszero\n        /* \"@openzeppelin/contracts/token/ERC20/SafeERC20.sol\":3483:3704  if (returndata.length > 0) { // Return data is optional... */\n      tag_511\n      jumpi\n        /* \"@openzeppelin/contracts/token/ERC20/SafeERC20.sol\":3627:3637  returndata */\n      dup1\n        /* \"@openzeppelin/contracts/token/ERC20/SafeERC20.sol\":3616:3646  abi.decode(returndata, (bool)) */\n      dup1\n      0x20\n      add\n      swap1\n      mload\n      0x20\n      dup2\n      lt\n      iszero\n      tag_585\n      jumpi\n      0x00\n      dup1\n      revert\n    tag_585:\n      pop\n      mload\n        /* \"@openzeppelin/contracts/token/ERC20/SafeERC20.sol\":3608:3693  require(abi.decode(returndata, (bool)), \"SafeERC20: ERC20 operation did not succeed\") */\n      tag_511\n      jumpi\n      mload(0x40)\n      shl(0xe5, 0x461bcd)\n      dup2\n      mstore\n      0x04\n      add\n      dup1\n      dup1\n      0x20\n      add\n      dup3\n      dup2\n      sub\n      dup3\n      mstore\n      0x2a\n      dup2\n      mstore\n      0x20\n      add\n      dup1\n      data_e11ad79d1e4a7f2e5f376964cb99e8e8f7904e3fc16a109f7a7ecb9aa7956dcd\n      0x2a\n      swap2\n      codecopy\n      0x40\n      add\n      swap2\n      pop\n      pop\n      mload(0x40)\n      dup1\n      swap2\n      sub\n      swap1\n      revert\n        /* \"@openzeppelin/contracts/utils/Address.sol\":3770:3964  function functionCall(address target, bytes memory data, string memory errorMessage) internal returns (bytes memory) {... */\n    tag_583:\n        /* \"@openzeppelin/contracts/utils/Address.sol\":3873:3885  bytes memory */\n      0x60\n        /* \"@openzeppelin/contracts/utils/Address.sol\":3904:3957  _functionCallWithValue(target, data, 0, errorMessage) */\n      tag_190\n        /* \"@openzeppelin/contracts/utils/Address.sol\":3927:3933  target */\n      dup5\n        /* \"@openzeppelin/contracts/utils/Address.sol\":3935:3939  data */\n      dup5\n        /* \"@openzeppelin/contracts/utils/Address.sol\":3941:3942  0 */\n      0x00\n        /* \"@openzeppelin/contracts/utils/Address.sol\":3944:3956  errorMessage */\n      dup6\n        /* \"@openzeppelin/contracts/utils/Address.sol\":5247:5259  bytes memory */\n      0x60\n        /* \"@openzeppelin/contracts/utils/Address.sol\":5279:5297  isContract(target) */\n      tag_591\n        /* \"@openzeppelin/contracts/utils/Address.sol\":5290:5296  target */\n      dup6\n        /* \"@openzeppelin/contracts/utils/Address.sol\":5279:5289  isContract */\n      tag_592\n        /* \"@openzeppelin/contracts/utils/Address.sol\":5279:5297  isContract(target) */\n      jump\t// in\n    tag_591:\n        /* \"@openzeppelin/contracts/utils/Address.sol\":5271:5331  require(isContract(target), \"Address: call to non-contract\") */\n      tag_593\n      jumpi\n      0x40\n      dup1\n      mload\n      shl(0xe5, 0x461bcd)\n      dup2\n      mstore\n      0x20\n      0x04\n      dup3\n      add\n      mstore\n      0x1d\n      0x24\n      dup3\n      add\n      mstore\n      0x416464726573733a2063616c6c20746f206e6f6e2d636f6e7472616374000000\n      0x44\n      dup3\n      add\n      mstore\n      swap1\n      mload\n      swap1\n      dup2\n      swap1\n      sub\n      0x64\n      add\n      swap1\n      revert\n    tag_593:\n        /* \"@openzeppelin/contracts/utils/Address.sol\":5402:5414  bool success */\n      0x00\n        /* \"@openzeppelin/contracts/utils/Address.sol\":5416:5439  bytes memory returndata */\n      0x60\n        /* \"@openzeppelin/contracts/utils/Address.sol\":5443:5449  target */\n      dup7\n      sub(shl(0xa0, 0x01), 0x01)\n        /* \"@openzeppelin/contracts/utils/Address.sol\":5443:5454  target.call */\n      and\n        /* \"@openzeppelin/contracts/utils/Address.sol\":5463:5471  weiValue */\n      dup6\n        /* \"@openzeppelin/contracts/utils/Address.sol\":5474:5478  data */\n      dup8\n        /* \"@openzeppelin/contracts/utils/Address.sol\":5443:5479  target.call{ value: weiValue }(data) */\n      mload(0x40)\n      dup1\n      dup3\n      dup1\n      mload\n      swap1\n      0x20\n      add\n      swap1\n      dup1\n      dup4\n      dup4\n    tag_594:\n      0x20\n      dup4\n      lt\n      tag_596\n      jumpi\n      dup1\n      mload\n      dup3\n      mstore\n      not(0x1f)\n      swap1\n      swap3\n      add\n      swap2\n      0x20\n      swap2\n      dup3\n      add\n      swap2\n      add\n      jump(tag_594)\n    tag_596:\n      0x01\n      dup4\n      0x20\n      sub\n      0x0100\n      exp\n      sub\n      dup1\n      not\n      dup3\n      mload\n      and\n      dup2\n      dup5\n      mload\n      and\n      dup1\n      dup3\n      or\n      dup6\n      mstore\n      pop\n      pop\n      pop\n      pop\n      pop\n      pop\n      swap1\n      pop\n      add\n      swap2\n      pop\n      pop\n      0x00\n      mload(0x40)\n      dup1\n      dup4\n      sub\n      dup2\n      dup6\n      dup8\n      gas\n      call\n      swap3\n      pop\n      pop\n      pop\n      returndatasize\n      dup1\n      0x00\n      dup2\n      eq\n      tag_599\n      jumpi\n      mload(0x40)\n      swap2\n      pop\n      and(add(returndatasize, 0x3f), not(0x1f))\n      dup3\n      add\n      0x40\n      mstore\n      returndatasize\n      dup3\n      mstore\n      returndatasize\n      0x00\n      0x20\n      dup5\n      add\n      returndatacopy\n      jump(tag_598)\n    tag_599:\n      0x60\n      swap2\n      pop\n    tag_598:\n      pop\n        /* \"@openzeppelin/contracts/utils/Address.sol\":5401:5479  (bool success, bytes memory returndata) = target.call{ value: weiValue }(data) */\n      swap2\n      pop\n      swap2\n      pop\n        /* \"@openzeppelin/contracts/utils/Address.sol\":5493:5500  success */\n      dup2\n        /* \"@openzeppelin/contracts/utils/Address.sol\":5489:6069  if (success) {... */\n      iszero\n      tag_600\n      jumpi\n        /* \"@openzeppelin/contracts/utils/Address.sol\":5523:5533  returndata */\n      swap2\n      pop\n        /* \"@openzeppelin/contracts/utils/Address.sol\":5516:5533  return returndata */\n      tag_190\n      swap1\n      pop\n      jump\n        /* \"@openzeppelin/contracts/utils/Address.sol\":5489:6069  if (success) {... */\n    tag_600:\n        /* \"@openzeppelin/contracts/utils/Address.sol\":5634:5651  returndata.length */\n      dup1\n      mload\n        /* \"@openzeppelin/contracts/utils/Address.sol\":5634:5655  returndata.length > 0 */\n      iszero\n        /* \"@openzeppelin/contracts/utils/Address.sol\":5630:6059  if (returndata.length > 0) {... */\n      tag_602\n      jumpi\n        /* \"@openzeppelin/contracts/utils/Address.sol\":5892:5902  returndata */\n      dup1\n        /* \"@openzeppelin/contracts/utils/Address.sol\":5886:5903  mload(returndata) */\n      mload\n        /* \"@openzeppelin/contracts/utils/Address.sol\":5952:5967  returndata_size */\n      dup1\n        /* \"@openzeppelin/contracts/utils/Address.sol\":5939:5949  returndata */\n      dup3\n        /* \"@openzeppelin/contracts/utils/Address.sol\":5935:5937  32 */\n      0x20\n        /* \"@openzeppelin/contracts/utils/Address.sol\":5931:5950  add(32, returndata) */\n      add\n        /* \"@openzeppelin/contracts/utils/Address.sol\":5924:5968  revert(add(32, returndata), returndata_size) */\n      revert\n        /* \"@openzeppelin/contracts/utils/Address.sol\":5841:5986  {... */\n    tag_602:\n        /* \"@openzeppelin/contracts/utils/Address.sol\":6024:6044  revert(errorMessage) */\n      mload(0x40)\n      shl(0xe5, 0x461bcd)\n      dup2\n      mstore\n      0x20\n      0x04\n      dup3\n      add\n      dup2\n      dup2\n      mstore\n      dup7\n      mload\n      0x24\n      dup5\n      add\n      mstore\n      dup7\n      mload\n        /* \"@openzeppelin/contracts/utils/Address.sol\":6031:6043  errorMessage */\n      dup8\n      swap4\n        /* \"@openzeppelin/contracts/utils/Address.sol\":6024:6044  revert(errorMessage) */\n      swap2\n      swap3\n      dup4\n      swap3\n      0x44\n      add\n      swap2\n      swap1\n      dup6\n      add\n      swap1\n      dup1\n      dup4\n      dup4\n      0x00\n      dup4\n      iszero\n      tag_480\n      jumpi\n      dup2\n      dup2\n      add\n      mload\n      dup4\n      dup3\n      add\n      mstore\n      0x20\n      add\n      jump(tag_478)\n        /* \"@openzeppelin/contracts/utils/Address.sol\":718:1328  function isContract(address account) internal view returns (bool) {... */\n    tag_592:\n        /* \"@openzeppelin/contracts/utils/Address.sol\":778:782  bool */\n      0x00\n        /* \"@openzeppelin/contracts/utils/Address.sol\":1239:1259  extcodehash(account) */\n      dup2\n      extcodehash\n        /* \"@openzeppelin/contracts/utils/Address.sol\":1084:1150  0xc5d2460186f7233c927e7db2dcc703c0e500b653ca82273b7bfad8045d85a470 */\n      0xc5d2460186f7233c927e7db2dcc703c0e500b653ca82273b7bfad8045d85a470\n        /* \"@openzeppelin/contracts/utils/Address.sol\":1278:1301  codehash != accountHash */\n      dup2\n      dup2\n      eq\n      dup1\n      iszero\n      swap1\n        /* \"@openzeppelin/contracts/utils/Address.sol\":1278:1320  codehash != accountHash && codehash != 0x0 */\n      tag_190\n      jumpi\n      pop\n      pop\n        /* \"@openzeppelin/contracts/utils/Address.sol\":1305:1320  codehash != 0x0 */\n      iszero\n      iszero\n      swap3\n        /* \"@openzeppelin/contracts/utils/Address.sol\":1270:1321  return (codehash != accountHash && codehash != 0x0) */\n      swap2\n      pop\n      pop\n        /* \"@openzeppelin/contracts/utils/Address.sol\":718:1328  function isContract(address account) internal view returns (bool) {... */\n      jump\t// out\n    tag_296:\n      mload(0x40)\n      dup1\n      0x40\n      add\n      0x40\n      mstore\n      dup1\n      0x00\n      dup2\n      mstore\n      0x20\n      add\n      0x00\n      dup2\n      mstore\n      pop\n      swap1\n      jump\t// out\n    stop\n    data_0557e210f7a69a685100a7e4e3d0a7024c546085cee28910fd17d0b081d9516f 45524332303a207472616e7366657220746f20746865207a65726f2061646472657373\n    data_0d74825aecb0211bbe1f02ccfb998d9e49771bedb2c6414e20fd8978a2e0f54c 5265656e7472616e637947756172643a207265656e7472616e742063616c6c00\n    data_149b126e7125232b4200af45303d04fba8b74653b1a295a6a561a528c33fefdd 45524332303a206275726e20616d6f756e7420657863656564732062616c616e6365\n    data_245f15ff17f551913a7a18385165551503906a406f905ac1c2437281a7cd0cfe 4f776e61626c653a206e6577206f776e657220697320746865207a65726f2061646472657373\n    data_24883cc5fe64ace9d0df1893501ecb93c77180f0ff69cca79affb3c316dc8029 45524332303a20617070726f766520746f20746865207a65726f2061646472657373\n    data_4107e8a8b9e94bf8ff83080ddec1c0bffe897ebc2241b89d44f66b3d274088b6 45524332303a207472616e7366657220616d6f756e7420657863656564732062616c616e6365\n    data_9113bb53c2876a3805b2c9242029423fc540a728243ce887ab24c82cf119fba3 536166654d6174683a206d756c7469706c69636174696f6e206f766572666c6f77\n    data_974d1b4421da69cc60b481194f0dad36a5bb4e23da810da7a7fb30cdba178330 45524332303a207472616e7366657220616d6f756e74206578636565647320616c6c6f77616e6365\n    data_b16788493b576042bb52c50ed56189e0b250db113c7bfb1c3897d25cf9632d7f 45524332303a206275726e2066726f6d20746865207a65726f2061646472657373\n    data_baecc556b46f4ed0f2b4cb599d60785ac8563dd2dc0a5bf12edea1c39e5e1fea 45524332303a207472616e736665722066726f6d20746865207a65726f2061646472657373\n    data_c953f4879035ed60e766b34720f656aab5c697b141d924c283124ecedb91c208 45524332303a20617070726f76652066726f6d20746865207a65726f2061646472657373\n    data_e11ad79d1e4a7f2e5f376964cb99e8e8f7904e3fc16a109f7a7ecb9aa7956dcd 5361666545524332303a204552433230206f7065726174696f6e20646964206e6f742073756363656564\n    data_f8b476f7d28209d77d4a4ac1fe36b9f8259aa1bb6bddfa6e89de7e51615cf8a8 45524332303a2064656372656173656420616c6c6f77616e63652062656c6f77207a65726f\n\n    auxdata: 0xa2646970667358221220050e70c3db37acc38891a545b2e5efdb4dce864373efd70fb35601a6b03d723964736f6c634300060c0033\n}\n",
				"bytecode": {
					"linkReferences": {},
					"object": "60806040523480156200001157600080fd5b50604051620036f9380380620036f9833981810160405260608110156200003757600080fd5b81019080805160405193929190846401000000008211156200005857600080fd5b9083019060208201858111156200006e57600080fd5b82518660208202830111640100000000821117156200008c57600080fd5b82525081516020918201928201910280838360005b83811015620000bb578181015183820152602001620000a1565b5050505090500160405260200180516040519392919084640100000000821115620000e557600080fd5b908301906020820185811115620000fb57600080fd5b82516401000000008111828201881017156200011657600080fd5b82525081516020918201929091019080838360005b83811015620001455781810151838201526020016200012b565b50505050905090810190601f168015620001735780820380516001836020036101000a031916815260200191505b50604052602001805160405193929190846401000000008211156200019757600080fd5b908301906020820185811115620001ad57600080fd5b8251640100000000811182820188101715620001c857600080fd5b82525081516020918201929091019080838360005b83811015620001f7578181015183820152602001620001dd565b50505050905090810190601f168015620002255780820380516001836020036101000a031916815260200191505b5060405250508251839150829062000245906003906020850190620004eb565b5080516200025b906004906020840190620004eb565b50506005805460ff1916601217905550600160065560006200027c620004e7565b600780546001600160a01b0319166001600160a01b038316908117909155604051919250906000907f8be0079c531659141344cd1fd0a4f28419497f9722a3daafe3b4186f6b6457e0908290a350600082511162000321576040805162461bcd60e51b815260206004820152601860248201527f4d6f6f6e69737761703a206e616d6520697320656d7074790000000000000000604482015290519081900360640190fd5b600081511162000378576040805162461bcd60e51b815260206004820152601a60248201527f4d6f6f6e69737761703a2073796d626f6c20697320656d707479000000000000604482015290519081900360640190fd5b8251600214620003cf576040805162461bcd60e51b815260206004820181905260248201527f4d6f6f6e69737761703a206f6e6c79203220746f6b656e7320616c6c6f776564604482015290519081900360640190fd5b600880546001600160a01b031916331790558251620003f690600990602086019062000570565b5060005b8351811015620004dd57600a60008583815181106200041557fe5b6020908102919091018101516001600160a01b031682528101919091526040016000205460ff16156200048f576040805162461bcd60e51b815260206004820152601b60248201527f4d6f6f6e69737761703a206475706c696361746520746f6b656e730000000000604482015290519081900360640190fd5b6001600a6000868481518110620004a257fe5b6020908102919091018101516001600160a01b03168252810191909152604001600020805460ff1916911515919091179055600101620003fa565b505050506200060e565b3390565b828054600181600116156101000203166002900490600052602060002090601f016020900481019282601f106200052e57805160ff19168380011785556200055e565b828001600101855582156200055e579182015b828111156200055e57825182559160200191906001019062000541565b506200056c929150620005d6565b5090565b828054828255906000526020600020908101928215620005c8579160200282015b82811115620005c857825182546001600160a01b0319166001600160a01b0390911617825560209092019160019091019062000591565b506200056c929150620005ed565b5b808211156200056c5760008155600101620005d7565b5b808211156200056c5780546001600160a01b0319168155600101620005ee565b6130db806200061e6000396000f3fe6080604052600436106101ee5760003560e01c80638da5cb5b1161010d578063c45a0155116100a0578063dd62ed3e1161006f578063dd62ed3e14610860578063ddca3f431461089b578063e7ff42c9146108b0578063f223885a146108e3578063f2fde38b146109a5576101ee565b8063c45a0155146107bf578063d5bcb9b5146107d4578063d73792a914610818578063d7d3aab51461082d576101ee565b8063aa6ca808116100dc578063aa6ca808146106ce578063b1ec4c4014610733578063b21b5a2114610795578063baf13a0a146107aa576101ee565b80638da5cb5b1461063257806395d89b4114610647578063a457c2d71461065c578063a9059cbb14610695576101ee565b806348d67e1b116101855780636edc2c09116101545780636edc2c091461057e57806370a08231146105b1578063715018a6146105e457806378e3214f146105f9576101ee565b806348d67e1b1461040e5780634f64b2be146104235780635915d806146104695780635ed9156d14610522576101ee565b80631e1401f8116101c15780631e1401f81461032457806323b872dd14610367578063313ce567146103aa57806339509351146103d5576101ee565b806306fdde03146101f3578063095ea7b31461027d57806318160ddd146102ca57806319f37361146102f1575b600080fd5b3480156101ff57600080fd5b506102086109d8565b6040805160208082528351818301528351919283929083019185019080838360005b8381101561024257818101518382015260200161022a565b50505050905090810190601f16801561026f5780820380516001836020036101000a031916815260200191505b509250505060405180910390f35b34801561028957600080fd5b506102b6600480360360408110156102a057600080fd5b506001600160a01b038135169060200135610a6e565b604080519115158252519081900360200190f35b3480156102d657600080fd5b506102df610a8c565b60408051918252519081900360200190f35b3480156102fd57600080fd5b506102b66004803603602081101561031457600080fd5b50356001600160a01b0316610a92565b34801561033057600080fd5b506102df6004803603606081101561034757600080fd5b506001600160a01b03813581169160208101359091169060400135610aa7565b34801561037357600080fd5b506102b66004803603606081101561038a57600080fd5b506001600160a01b03813581169160208101359091169060400135610ace565b3480156103b657600080fd5b506103bf610b55565b6040805160ff9092168252519081900360200190f35b3480156103e157600080fd5b506102b6600480360360408110156103f857600080fd5b506001600160a01b038135169060200135610b5e565b34801561041a57600080fd5b506102df610bac565b34801561042f57600080fd5b5061044d6004803603602081101561044657600080fd5b5035610bb2565b604080516001600160a01b039092168252519081900360200190f35b34801561047557600080fd5b506105206004803603604081101561048c57600080fd5b813591908101906040810160208201356401000000008111156104ae57600080fd5b8201836020820111156104c057600080fd5b803590602001918460208302840111640100000000831117156104e257600080fd5b919080806020026020016040519081016040528093929190818152602001838360200280828437600092019190915250929550610bd9945050505050565b005b34801561052e57600080fd5b506105556004803603602081101561054557600080fd5b50356001600160a01b0316610dc0565b604080516001600160d81b03909316835264ffffffffff90911660208301528051918290030190f35b34801561058a57600080fd5b50610555600480360360208110156105a157600080fd5b50356001600160a01b0316610deb565b3480156105bd57600080fd5b506102df600480360360208110156105d457600080fd5b50356001600160a01b0316610e16565b3480156105f057600080fd5b50610520610e35565b34801561060557600080fd5b506105206004803603604081101561061c57600080fd5b506001600160a01b038135169060200135610ee9565b34801561063e57600080fd5b5061044d61113f565b34801561065357600080fd5b5061020861114e565b34801561066857600080fd5b506102b66004803603604081101561067f57600080fd5b506001600160a01b0381351690602001356111af565b3480156106a157600080fd5b506102b6600480360360408110156106b857600080fd5b506001600160a01b038135169060200135611217565b3480156106da57600080fd5b506106e361122b565b60408051602080825283518183015283519192839290830191858101910280838360005b8381101561071f578181015183820152602001610707565b505050509050019250505060405180910390f35b34801561073f57600080fd5b506107666004803603602081101561075657600080fd5b50356001600160a01b031661128c565b60405180836001600160801b03168152602001826001600160801b031681526020019250505060405180910390f35b3480156107a157600080fd5b506102df6112b2565b3480156107b657600080fd5b506102df6112b7565b3480156107cb57600080fd5b5061044d6112bd565b6102df600480360360a08110156107ea57600080fd5b506001600160a01b0381358116916020810135821691604082013591606081013591608090910135166112cc565b34801561082457600080fd5b506102df6117d5565b34801561083957600080fd5b506102df6004803603602081101561085057600080fd5b50356001600160a01b03166117e1565b34801561086c57600080fd5b506102df6004803603604081101561088357600080fd5b506001600160a01b0381358116916020013516611858565b3480156108a757600080fd5b506102df611883565b3480156108bc57600080fd5b506102df600480360360208110156108d357600080fd5b50356001600160a01b03166118f9565b6102df600480360360408110156108f957600080fd5b81019060208101813564010000000081111561091457600080fd5b82018360208201111561092657600080fd5b8035906020019184602083028401116401000000008311171561094857600080fd5b91939092909160208101903564010000000081111561096657600080fd5b82018360208201111561097857600080fd5b8035906020019184602083028401116401000000008311171561099a57600080fd5b509092509050611969565b3480156109b157600080fd5b50610520600480360360208110156109c857600080fd5b50356001600160a01b0316611ff7565b60038054604080516020601f6002600019610100600188161502019095169490940493840181900481028201810190925282815260609390929091830182828015610a645780601f10610a3957610100808354040283529160200191610a64565b820191906000526020600020905b815481529060010190602001808311610a4757829003601f168201915b5050505050905090565b6000610a82610a7b612102565b8484612106565b5060015b92915050565b60025490565b600a6020526000908152604090205460ff1681565b6000610ac6848484610ab8886117e1565b610ac1886118f9565b6121f2565b949350505050565b6000610adb8484846122b1565b610b4b84610ae7612102565b610b4685604051806060016040528060288152602001612fc5602891396001600160a01b038a16600090815260016020526040812090610b25612102565b6001600160a01b03168152602081019190915260400160002054919061240c565b612106565b5060019392505050565b60055460ff1690565b6000610a82610b6b612102565b84610b468560016000610b7c612102565b6001600160a01b03908116825260208083019390935260409182016000908120918c1681529252902054906124a3565b61012c90565b60098181548110610bbf57fe5b6000918252602090912001546001600160a01b0316905081565b60026006541415610c1f576040805162461bcd60e51b815260206004820152601f6024820152600080516020612ef4833981519152604482015290519081900360640190fd5b60026006556000610c2e610a8c565b9050610c3a33846124fd565b60005b600954811015610d7f57600060098281548110610c5657fe5b60009182526020822001546001600160a01b03169150610c7682306125f9565b90506000610c8e85610c88848a61269a565b906126f3565b9050610ca46001600160a01b0384163383612735565b855184101580610cc75750858481518110610cbb57fe5b60200260200101518110155b610d18576040805162461bcd60e51b815260206004820152601f60248201527f4d6f6f6e69737761703a20726573756c74206973206e6f7420656e6f75676800604482015290519081900360640190fd5b610d4682610d26878a61279e565b6001600160a01b0386166000908152600c602052604090209190886127e0565b610d7482610d54878a61279e565b6001600160a01b0386166000908152600d602052604090209190886127e0565b505050600101610c3d565b5060408051848152905133917f7084f5476618d8e60b11ef0d7d3f06914655adb8793e28ff7f018d4c76d505d5919081900360200190a25050600160065550565b600d602052600090815260409020546001600160d81b03811690600160d81b900464ffffffffff1682565b600c602052600090815260409020546001600160d81b03811690600160d81b900464ffffffffff1682565b6001600160a01b0381166000908152602081905260409020545b919050565b610e3d612102565b6007546001600160a01b03908116911614610e9f576040805162461bcd60e51b815260206004820181905260248201527f4f776e61626c653a2063616c6c6572206973206e6f7420746865206f776e6572604482015290519081900360640190fd5b6007546040516000916001600160a01b0316907f8be0079c531659141344cd1fd0a4f28419497f9722a3daafe3b4186f6b6457e0908390a3600780546001600160a01b0319169055565b60026006541415610f2f576040805162461bcd60e51b815260206004820152601f6024820152600080516020612ef4833981519152604482015290519081900360640190fd5b6002600655610f3c612102565b6007546001600160a01b03908116911614610f9e576040805162461bcd60e51b815260206004820181905260248201527f4f776e61626c653a2063616c6c6572206973206e6f7420746865206f776e6572604482015290519081900360640190fd5b60095460609067ffffffffffffffff81118015610fba57600080fd5b50604051908082528060200260200182016040528015610fe4578160200160208202803683370190505b50905060005b815181101561103e5761101f306009838154811061100457fe5b6000918252602090912001546001600160a01b0316906125f9565b82828151811061102b57fe5b6020908102919091010152600101610fea565b506110536001600160a01b0384163384612735565b60005b81518110156110da5781818151811061106b57fe5b6020026020010151611084306009848154811061100457fe5b10156110d2576040805162461bcd60e51b8152602060048201526018602482015277135bdbdb9a5cddd85c0e881858d8d95cdcc819195b9a595960421b604482015290519081900360640190fd5b600101611056565b506103e86110e730610e16565b1015611135576040805162461bcd60e51b8152602060048201526018602482015277135bdbdb9a5cddd85c0e881858d8d95cdcc819195b9a595960421b604482015290519081900360640190fd5b5050600160065550565b6007546001600160a01b031690565b60048054604080516020601f6002600019610100600188161502019095169490940493840181900481028201810190925282815260609390929091830182828015610a645780601f10610a3957610100808354040283529160200191610a64565b6000610a826111bc612102565b84610b468560405180606001604052806025815260200161308160259139600160006111e6612102565b6001600160a01b03908116825260208083019390935260409182016000908120918d1681529252902054919061240c565b6000610a82611224612102565b84846122b1565b60606009805480602002602001604051908101604052809291908181526020018280548015610a6457602002820191906000526020600020905b81546001600160a01b03168152600190910190602001808311611265575050505050905090565b600b602052600090815260409020546001600160801b0380821691600160801b90041682565b601481565b6103e881565b6008546001600160a01b031681565b600060026006541415611314576040805162461bcd60e51b815260206004820152601f6024820152600080516020612ef4833981519152604482015290519081900360640190fd5b600260065561132b6001600160a01b03871661283c565b611336576000611338565b835b341461138b576040805162461bcd60e51b815260206004820152601c60248201527f4d6f6f6e69737761703a2077726f6e672076616c756520757361676500000000604482015290519081900360640190fd5b611393612eb6565b60405180604001604052806113d96113b38a6001600160a01b031661283c565b6113be5760006113c0565b345b6113d36001600160a01b038c16306125f9565b9061279e565b81526020016113f16001600160a01b038916306125f9565b905280516001600160a01b0389166000908152600c602090815260408083208151808301909252546001600160d81b0381168252600160d81b900464ffffffffff1691810191909152929350916114539161144c9190612849565b83516128aa565b6020838101516001600160a01b038a166000908152600d835260408082208151808301909252546001600160d81b0381168252600160d81b900464ffffffffff16938101939093529293506114b5916114ab91612849565b84602001516128c1565b90506114ca6001600160a01b038a16886128d0565b82516000906114e6906113d36001600160a01b038d16306125f9565b90506114f58a8a8386866121f2565b94506000851180156115075750868510155b611558576040805162461bcd60e51b815260206004820152601f60248201527f4d6f6f6e69737761703a2072657475726e206973206e6f7420656e6f75676800604482015290519081900360640190fd5b61156c6001600160a01b038a163387612735565b8351831461159f5761159f61158184836124a3565b6001600160a01b038c166000908152600c6020526040902090612997565b836020015182146115d5576115d56115b7838761279e565b6001600160a01b038b166000908152600d6020526040902090612997565b83516001600160a01b038b166000908152600d602052604090206115f8916129c3565b6020808501516001600160a01b038b166000908152600c9092526040909120611620916129c3565b6001600160a01b038616156116db5783516ec097ce7bc90715b34b9f10000000009061165a90610c8861165382866124a3565b849061269a565b602086015190915061167390610c88611653828a61279e565b90506ec097ce7bc90715b34b9f10000000008111156116d95760006116c56014610c88670de0b6b3a7640000610c886116aa610a8c565b6116bf670de0b6b3a76400006113d38a6129fe565b9061269a565b905080156116d7576116d78882612a58565b505b505b886001600160a01b03168a6001600160a01b0316336001600160a01b03167f86c49b5d8577da08444947f1427d23ef191cfabf2c0788f93324d79e926a9302848989600001518a6020015161172e610a8c565b60408051958652602086019490945284840192909252606084015260808301526001600160a01b038c1660a0830152519081900360c00190a46001600160a01b039099166000908152600b602052604090208054600160801b6001600160801b03808316909c018c166fffffffffffffffffffffffffffffffff19909216919091178181048c1687018c169091029a16999099179098555050600160065595945050505050565b670de0b6b3a764000081565b6000806117f76001600160a01b038416306125f9565b6001600160a01b0384166000908152600c60209081526040918290208251808401909352546001600160d81b0381168352600160d81b900464ffffffffff16908201529091506118519061184b9083612849565b826128aa565b9392505050565b6001600160a01b03918216600090815260016020908152604080832093909416825291909152205490565b6008546040805163ddca3f4360e01b815290516000926001600160a01b03169163ddca3f43916004808301926020929190829003018186803b1580156118c857600080fd5b505afa1580156118dc573d6000803e3d6000fd5b505050506040513d60208110156118f257600080fd5b5051905090565b60008061190f6001600160a01b038416306125f9565b6001600160a01b0384166000908152600d60209081526040918290208251808401909352546001600160d81b0381168352600160d81b900464ffffffffff1690820152909150611851906119639083612849565b826128c1565b6000600260065414156119b1576040805162461bcd60e51b815260206004820152601f6024820152600080516020612ef4833981519152604482015290519081900360640190fd5b6002600655600980546040805160208084028201810190925282815260609390929091830182828015611a0d57602002820191906000526020600020905b81546001600160a01b031681526001909101906020018083116119ef575b5050505050905080518686905014611a6c576040805162461bcd60e51b815260206004820152601f60248201527f4d6f6f6e69737761703a2077726f6e6720616d6f756e7473206c656e67746800604482015290519081900360640190fd5b611a9281600081518110611a7c57fe5b60200260200101516001600160a01b031661283c565b611acb57611aa681600181518110611a7c57fe5b611ab1576000611ac6565b85856001818110611abe57fe5b905060200201355b611ae0565b85856000818110611ad857fe5b905060200201355b3414611b33576040805162461bcd60e51b815260206004820152601c60248201527f4d6f6f6e69737761703a2077726f6e672076616c756520757361676500000000604482015290519081900360640190fd5b60608567ffffffffffffffff81118015611b4c57600080fd5b50604051908082528060200260200182016040528015611b76578160200160208202803683370190505b50905060005b8151811015611bf257611bd3611b97848381518110611a7c57fe5b611ba2576000611ba4565b345b6113d330868581518110611bb457fe5b60200260200101516001600160a01b03166125f990919063ffffffff16565b828281518110611bdf57fe5b6020908102919091010152600101611b7c565b506000611bfd610a8c565b905080611c5657611c116103e8606361269a565b9350611c1f306103e8612a58565b60005b87811015611c5057611c46858a8a84818110611c3a57fe5b905060200201356128aa565b9450600101611c22565b50611cb7565b600019935060005b87811015611cb557611cab85611ca6858481518110611c7957fe5b6020026020010151610c888d8d87818110611c9057fe5b905060200201358761269a90919063ffffffff16565b6128c1565b9450600101611c5e565b505b8360005b88811015611e865760008a8a83818110611cd157fe5b9050602002013511611d2a576040805162461bcd60e51b815260206004820152601960248201527f4d6f6f6e69737761703a20616d6f756e74206973207a65726f00000000000000604482015290519081900360640190fd5b60008315611d6e57611d6984610c8860018703611d63878a8881518110611d4d57fe5b602002602001015161269a90919063ffffffff16565b906124a3565b611d82565b8a8a83818110611d7a57fe5b905060200201355b9050888883818110611d9057fe5b90506020020135811015611deb576040805162461bcd60e51b815260206004820181905260248201527f4d6f6f6e69737761703a206d696e416d6f756e74206e6f742072656163686564604482015290519081900360640190fd5b611e1a81878481518110611dfb57fe5b60200260200101516001600160a01b03166128d090919063ffffffff16565b8315611e7d576000611e49868481518110611e3157fe5b60200260200101516113d3308a8781518110611bb457fe5b9050611e7988611ca6888681518110611e5e57fe5b6020026020010151610c88858a61269a90919063ffffffff16565b9750505b50600101611cbb565b508115611f505760005b88811015611f4e57611f0b848281518110611ea757fe5b6020026020010151611ec288866124a390919063ffffffff16565b85600d60008a8781518110611ed357fe5b60200260200101516001600160a01b03166001600160a01b031681526020019081526020016000206127e0909392919063ffffffff16565b611f46848281518110611f1a57fe5b6020026020010151611f3588866124a390919063ffffffff16565b85600c60008a8781518110611ed357fe5b600101611e90565b505b60008511611fa5576040805162461bcd60e51b815260206004820152601f60248201527f4d6f6f6e69737761703a20726573756c74206973206e6f7420656e6f75676800604482015290519081900360640190fd5b611faf3386612a58565b60408051868152905133917f2da466a7b24304f47e87fa2e1e5a81b9831ce54fec19055ce277ca2f39ba42c4919081900360200190a250506001600655509095945050505050565b611fff612102565b6007546001600160a01b03908116911614612061576040805162461bcd60e51b815260206004820181905260248201527f4f776e61626c653a2063616c6c6572206973206e6f7420746865206f776e6572604482015290519081900360640190fd5b6001600160a01b0381166120a65760405162461bcd60e51b8152600401808060200182810382526026815260200180612f366026913960400191505060405180910390fd5b6007546040516001600160a01b038084169216907f8be0079c531659141344cd1fd0a4f28419497f9722a3daafe3b4186f6b6457e090600090a3600780546001600160a01b0319166001600160a01b0392909216919091179055565b3390565b6001600160a01b03831661214b5760405162461bcd60e51b81526004018080602001828103825260248152602001806130336024913960400191505060405180910390fd5b6001600160a01b0382166121905760405162461bcd60e51b8152600401808060200182810382526022815260200180612f5c6022913960400191505060405180910390fd5b6001600160a01b03808416600081815260016020908152604080832094871680845294825291829020859055815185815291517f8c5be1e5ebec7d5bd14f71427d1e84f3dd0314c0f7b2291e5b200ac8c7c3b9259281900390910190a3505050565b6001600160a01b0385166000908152600a602052604081205460ff16801561223257506001600160a01b0385166000908152600a602052604090205460ff165b80156122505750846001600160a01b0316866001600160a01b031614155b801561225c5750600084115b156122a857600061228b612284670de0b6b3a7640000610c8861227d611883565b899061269a565b869061279e565b90506122a461229a85836124a3565b610c88838661269a565b9150505b95945050505050565b6001600160a01b0383166122f65760405162461bcd60e51b815260040180806020018281038252602581526020018061300e6025913960400191505060405180910390fd5b6001600160a01b03821661233b5760405162461bcd60e51b8152600401808060200182810382526023815260200180612ed16023913960400191505060405180910390fd5b612346838383612799565b61238381604051806060016040528060268152602001612f7e602691396001600160a01b038616600090815260208190526040902054919061240c565b6001600160a01b0380851660009081526020819052604080822093909355908416815220546123b290826124a3565b6001600160a01b038084166000818152602081815260409182902094909455805185815290519193928716927fddf252ad1be2c89b69c2b068fc378daa952ba7f163c4a11628f55a4df523b3ef92918290030190a3505050565b6000818484111561249b5760405162461bcd60e51b81526004018080602001828103825283818151815260200191508051906020019080838360005b83811015612460578181015183820152602001612448565b50505050905090810190601f16801561248d5780820380516001836020036101000a031916815260200191505b509250505060405180910390fd5b505050900390565b600082820183811015611851576040805162461bcd60e51b815260206004820152601b60248201527f536166654d6174683a206164646974696f6e206f766572666c6f770000000000604482015290519081900360640190fd5b6001600160a01b0382166125425760405162461bcd60e51b8152600401808060200182810382526021815260200180612fed6021913960400191505060405180910390fd5b61254e82600083612799565b61258b81604051806060016040528060228152602001612f14602291396001600160a01b038516600090815260208190526040902054919061240c565b6001600160a01b0383166000908152602081905260409020556002546125b1908261279e565b6002556040805182815290516000916001600160a01b038516917fddf252ad1be2c89b69c2b068fc378daa952ba7f163c4a11628f55a4df523b3ef9181900360200190a35050565b60006126048361283c565b1561261a57506001600160a01b03811631610a86565b826001600160a01b03166370a08231836040518263ffffffff1660e01b815260040180826001600160a01b0316815260200191505060206040518083038186803b15801561266757600080fd5b505afa15801561267b573d6000803e3d6000fd5b505050506040513d602081101561269157600080fd5b50519050610a86565b6000826126a957506000610a86565b828202828482816126b657fe5b04146118515760405162461bcd60e51b8152600401808060200182810382526021815260200180612fa46021913960400191505060405180910390fd5b600061185183836040518060400160405280601a81526020017f536166654d6174683a206469766973696f6e206279207a65726f000000000000815250612b48565b8015612799576127448361283c565b15612785576040516001600160a01b0383169082156108fc029083906000818181858888f1935050505015801561277f573d6000803e3d6000fd5b50612799565b6127996001600160a01b0384168383612bad565b505050565b600061185183836040518060400160405280601e81526020017f536166654d6174683a207375627472616374696f6e206f766572666c6f77000081525061240c565b6128368461283183610c886127f682600161279e565b604080518082019091528a546001600160d81b0381168252600160d81b900464ffffffffff166020820152611d639089906116bf908c612849565b612997565b50505050565b6001600160a01b03161590565b60008061287061012c611ca6866020015164ffffffffff164261279e90919063ffffffff16565b9050600061288061012c8361279e565b90506122a861012c610c88612895878661269a565b8851611d63906001600160d81b03168661269a565b6000818310156128ba5781611851565b5090919050565b60008183106128ba5781611851565b8015612993576128df8261283c565b1561297e5780341015612939576040805162461bcd60e51b815260206004820152601a60248201527f556e6945524332303a206e6f7420656e6f7567682076616c7565000000000000604482015290519081900360640190fd5b8034111561297957336108fc61294f348461279e565b6040518115909202916000818181858888f19350505050158015612977573d6000803e3d6000fd5b505b612993565b6129936001600160a01b038316333084612bff565b5050565b81546001600160d81b0319166001600160d81b039182161716600160d81b4264ffffffffff1602179055565b6040805180820190915282546001600160d81b0381168252600160d81b900464ffffffffff1660208201526129939083906128319084612849565b60006003821115612a425781600160028204015b81811015612a3a57809150600281828681612a2957fe5b040181612a3257fe5b049050612a12565b509050610e30565b8115612a5057506001610e30565b506000610e30565b6001600160a01b038216612ab3576040805162461bcd60e51b815260206004820152601f60248201527f45524332303a206d696e7420746f20746865207a65726f206164647265737300604482015290519081900360640190fd5b612abf60008383612799565b600254612acc90826124a3565b6002556001600160a01b038216600090815260208190526040902054612af290826124a3565b6001600160a01b0383166000818152602081815260408083209490945583518581529351929391927fddf252ad1be2c89b69c2b068fc378daa952ba7f163c4a11628f55a4df523b3ef9281900390910190a35050565b60008183612b975760405162461bcd60e51b8152602060048201818152835160248401528351909283926044909101919085019080838360008315612460578181015183820152602001612448565b506000838581612ba357fe5b0495945050505050565b604080516001600160a01b038416602482015260448082018490528251808303909101815260649091019091526020810180516001600160e01b031663a9059cbb60e01b179052612799908490612c55565b604080516001600160a01b0380861660248301528416604482015260648082018490528251808303909101815260849091019091526020810180516001600160e01b03166323b872dd60e01b1790526128369085905b6060612caa826040518060400160405280602081526020017f5361666545524332303a206c6f772d6c6576656c2063616c6c206661696c6564815250856001600160a01b0316612d069092919063ffffffff16565b80519091501561279957808060200190516020811015612cc957600080fd5b50516127995760405162461bcd60e51b815260040180806020018281038252602a815260200180613057602a913960400191505060405180910390fd5b6060610ac684846000856060612d1b85612e7d565b612d6c576040805162461bcd60e51b815260206004820152601d60248201527f416464726573733a2063616c6c20746f206e6f6e2d636f6e7472616374000000604482015290519081900360640190fd5b60006060866001600160a01b031685876040518082805190602001908083835b60208310612dab5780518252601f199092019160209182019101612d8c565b6001836020036101000a03801982511681845116808217855250505050505090500191505060006040518083038185875af1925050503d8060008114612e0d576040519150601f19603f3d011682016040523d82523d6000602084013e612e12565b606091505b50915091508115612e26579150610ac69050565b805115612e365780518082602001fd5b60405162461bcd60e51b8152602060048201818152865160248401528651879391928392604401919085019080838360008315612460578181015183820152602001612448565b6000813f7fc5d2460186f7233c927e7db2dcc703c0e500b653ca82273b7bfad8045d85a470818114801590610ac6575050151592915050565b60405180604001604052806000815260200160008152509056fe45524332303a207472616e7366657220746f20746865207a65726f20616464726573735265656e7472616e637947756172643a207265656e7472616e742063616c6c0045524332303a206275726e20616d6f756e7420657863656564732062616c616e63654f776e61626c653a206e6577206f776e657220697320746865207a65726f206164647265737345524332303a20617070726f766520746f20746865207a65726f206164647265737345524332303a207472616e7366657220616d6f756e7420657863656564732062616c616e6365536166654d6174683a206d756c7469706c69636174696f6e206f766572666c6f7745524332303a207472616e7366657220616d6f756e74206578636565647320616c6c6f77616e636545524332303a206275726e2066726f6d20746865207a65726f206164647265737345524332303a207472616e736665722066726f6d20746865207a65726f206164647265737345524332303a20617070726f76652066726f6d20746865207a65726f20616464726573735361666545524332303a204552433230206f7065726174696f6e20646964206e6f74207375636365656445524332303a2064656372656173656420616c6c6f77616e63652062656c6f77207a65726fa2646970667358221220050e70c3db37acc38891a545b2e5efdb4dce864373efd70fb35601a6b03d723964736f6c634300060c0033",
					"opcodes": "PUSH1 0x80 PUSH1 0x40 MSTORE CALLVALUE DUP1 ISZERO PUSH3 0x11 JUMPI PUSH1 0x0 DUP1 REVERT JUMPDEST POP PUSH1 0x40 MLOAD PUSH3 0x36F9 CODESIZE SUB DUP1 PUSH3 0x36F9 DUP4 CODECOPY DUP2 DUP2 ADD PUSH1 0x40 MSTORE PUSH1 0x60 DUP2 LT ISZERO PUSH3 0x37 JUMPI PUSH1 0x0 DUP1 REVERT JUMPDEST DUP2 ADD SWAP1 DUP1 DUP1 MLOAD PUSH1 0x40 MLOAD SWAP4 SWAP3 SWAP2 SWAP1 DUP5 PUSH5 0x100000000 DUP3 GT ISZERO PUSH3 0x58 JUMPI PUSH1 0x0 DUP1 REVERT JUMPDEST SWAP1 DUP4 ADD SWAP1 PUSH1 0x20 DUP3 ADD DUP6 DUP2 GT ISZERO PUSH3 0x6E JUMPI PUSH1 0x0 DUP1 REVERT JUMPDEST DUP3 MLOAD DUP7 PUSH1 0x20 DUP3 MUL DUP4 ADD GT PUSH5 0x100000000 DUP3 GT OR ISZERO PUSH3 0x8C JUMPI PUSH1 0x0 DUP1 REVERT JUMPDEST DUP3 MSTORE POP DUP2 MLOAD PUSH1 0x20 SWAP2 DUP3 ADD SWAP3 DUP3 ADD SWAP2 MUL DUP1 DUP4 DUP4 PUSH1 0x0 JUMPDEST DUP4 DUP2 LT ISZERO PUSH3 0xBB JUMPI DUP2 DUP2 ADD MLOAD DUP4 DUP3 ADD MSTORE PUSH1 0x20 ADD PUSH3 0xA1 JUMP JUMPDEST POP POP POP POP SWAP1 POP ADD PUSH1 0x40 MSTORE PUSH1 0x20 ADD DUP1 MLOAD PUSH1 0x40 MLOAD SWAP4 SWAP3 SWAP2 SWAP1 DUP5 PUSH5 0x100000000 DUP3 GT ISZERO PUSH3 0xE5 JUMPI PUSH1 0x0 DUP1 REVERT JUMPDEST SWAP1 DUP4 ADD SWAP1 PUSH1 0x20 DUP3 ADD DUP6 DUP2 GT ISZERO PUSH3 0xFB JUMPI PUSH1 0x0 DUP1 REVERT JUMPDEST DUP3 MLOAD PUSH5 0x100000000 DUP2 GT DUP3 DUP3 ADD DUP9 LT OR ISZERO PUSH3 0x116 JUMPI PUSH1 0x0 DUP1 REVERT JUMPDEST DUP3 MSTORE POP DUP2 MLOAD PUSH1 0x20 SWAP2 DUP3 ADD SWAP3 SWAP1 SWAP2 ADD SWAP1 DUP1 DUP4 DUP4 PUSH1 0x0 JUMPDEST DUP4 DUP2 LT ISZERO PUSH3 0x145 JUMPI DUP2 DUP2 ADD MLOAD DUP4 DUP3 ADD MSTORE PUSH1 0x20 ADD PUSH3 0x12B JUMP JUMPDEST POP POP POP POP SWAP1 POP SWAP1 DUP2 ADD SWAP1 PUSH1 0x1F AND DUP1 ISZERO PUSH3 0x173 JUMPI DUP1 DUP3 SUB DUP1 MLOAD PUSH1 0x1 DUP4 PUSH1 0x20 SUB PUSH2 0x100 EXP SUB NOT AND DUP2 MSTORE PUSH1 0x20 ADD SWAP2 POP JUMPDEST POP PUSH1 0x40 MSTORE PUSH1 0x20 ADD DUP1 MLOAD PUSH1 0x40 MLOAD SWAP4 SWAP3 SWAP2 SWAP1 DUP5 PUSH5 0x100000000 DUP3 GT ISZERO PUSH3 0x197 JUMPI PUSH1 0x0 DUP1 REVERT JUMPDEST SWAP1 DUP4 ADD SWAP1 PUSH1 0x20 DUP3 ADD DUP6 DUP2 GT ISZERO PUSH3 0x1AD JUMPI PUSH1 0x0 DUP1 REVERT JUMPDEST DUP3 MLOAD PUSH5 0x100000000 DUP2 GT DUP3 DUP3 ADD DUP9 LT OR ISZERO PUSH3 0x1C8 JUMPI PUSH1 0x0 DUP1 REVERT JUMPDEST DUP3 MSTORE POP DUP2 MLOAD PUSH1 0x20 SWAP2 DUP3 ADD SWAP3 SWAP1 SWAP2 ADD SWAP1 DUP1 DUP4 DUP4 PUSH1 0x0 JUMPDEST DUP4 DUP2 LT ISZERO PUSH3 0x1F7 JUMPI DUP2 DUP2 ADD MLOAD DUP4 DUP3 ADD MSTORE PUSH1 0x20 ADD PUSH3 0x1DD JUMP JUMPDEST POP POP POP POP SWAP1 POP SWAP1 DUP2 ADD SWAP1 PUSH1 0x1F AND DUP1 ISZERO PUSH3 0x225 JUMPI DUP1 DUP3 SUB DUP1 MLOAD PUSH1 0x1 DUP4 PUSH1 0x20 SUB PUSH2 0x100 EXP SUB NOT AND DUP2 MSTORE PUSH1 0x20 ADD SWAP2 POP JUMPDEST POP PUSH1 0x40 MSTORE POP POP DUP3 MLOAD DUP4 SWAP2 POP DUP3 SWAP1 PUSH3 0x245 SWAP1 PUSH1 0x3 SWAP1 PUSH1 0x20 DUP6 ADD SWAP1 PUSH3 0x4EB JUMP JUMPDEST POP DUP1 MLOAD PUSH3 0x25B SWAP1 PUSH1 0x4 SWAP1 PUSH1 0x20 DUP5 ADD SWAP1 PUSH3 0x4EB JUMP JUMPDEST POP POP PUSH1 0x5 DUP1 SLOAD PUSH1 0xFF NOT AND PUSH1 0x12 OR SWAP1 SSTORE POP PUSH1 0x1 PUSH1 0x6 SSTORE PUSH1 0x0 PUSH3 0x27C PUSH3 0x4E7 JUMP JUMPDEST PUSH1 0x7 DUP1 SLOAD PUSH1 0x1 PUSH1 0x1 PUSH1 0xA0 SHL SUB NOT AND PUSH1 0x1 PUSH1 0x1 PUSH1 0xA0 SHL SUB DUP4 AND SWAP1 DUP2 OR SWAP1 SWAP2 SSTORE PUSH1 0x40 MLOAD SWAP2 SWAP3 POP SWAP1 PUSH1 0x0 SWAP1 PUSH32 0x8BE0079C531659141344CD1FD0A4F28419497F9722A3DAAFE3B4186F6B6457E0 SWAP1 DUP3 SWAP1 LOG3 POP PUSH1 0x0 DUP3 MLOAD GT PUSH3 0x321 JUMPI PUSH1 0x40 DUP1 MLOAD PUSH3 0x461BCD PUSH1 0xE5 SHL DUP2 MSTORE PUSH1 0x20 PUSH1 0x4 DUP3 ADD MSTORE PUSH1 0x18 PUSH1 0x24 DUP3 ADD MSTORE PUSH32 0x4D6F6F6E69737761703A206E616D6520697320656D7074790000000000000000 PUSH1 0x44 DUP3 ADD MSTORE SWAP1 MLOAD SWAP1 DUP2 SWAP1 SUB PUSH1 0x64 ADD SWAP1 REVERT JUMPDEST PUSH1 0x0 DUP2 MLOAD GT PUSH3 0x378 JUMPI PUSH1 0x40 DUP1 MLOAD PUSH3 0x461BCD PUSH1 0xE5 SHL DUP2 MSTORE PUSH1 0x20 PUSH1 0x4 DUP3 ADD MSTORE PUSH1 0x1A PUSH1 0x24 DUP3 ADD MSTORE PUSH32 0x4D6F6F6E69737761703A2073796D626F6C20697320656D707479000000000000 PUSH1 0x44 DUP3 ADD MSTORE SWAP1 MLOAD SWAP1 DUP2 SWAP1 SUB PUSH1 0x64 ADD SWAP1 REVERT JUMPDEST DUP3 MLOAD PUSH1 0x2 EQ PUSH3 0x3CF JUMPI PUSH1 0x40 DUP1 MLOAD PUSH3 0x461BCD PUSH1 0xE5 SHL DUP2 MSTORE PUSH1 0x20 PUSH1 0x4 DUP3 ADD DUP2 SWAP1 MSTORE PUSH1 0x24 DUP3 ADD MSTORE PUSH32 0x4D6F6F6E69737761703A206F6E6C79203220746F6B656E7320616C6C6F776564 PUSH1 0x44 DUP3 ADD MSTORE SWAP1 MLOAD SWAP1 DUP2 SWAP1 SUB PUSH1 0x64 ADD SWAP1 REVERT JUMPDEST PUSH1 0x8 DUP1 SLOAD PUSH1 0x1 PUSH1 0x1 PUSH1 0xA0 SHL SUB NOT AND CALLER OR SWAP1 SSTORE DUP3 MLOAD PUSH3 0x3F6 SWAP1 PUSH1 0x9 SWAP1 PUSH1 0x20 DUP7 ADD SWAP1 PUSH3 0x570 JUMP JUMPDEST POP PUSH1 0x0 JUMPDEST DUP4 MLOAD DUP2 LT ISZERO PUSH3 0x4DD JUMPI PUSH1 0xA PUSH1 0x0 DUP6 DUP4 DUP2 MLOAD DUP2 LT PUSH3 0x415 JUMPI INVALID JUMPDEST PUSH1 0x20 SWAP1 DUP2 MUL SWAP2 SWAP1 SWAP2 ADD DUP2 ADD MLOAD PUSH1 0x1 PUSH1 0x1 PUSH1 0xA0 SHL SUB AND DUP3 MSTORE DUP2 ADD SWAP2 SWAP1 SWAP2 MSTORE PUSH1 0x40 ADD PUSH1 0x0 KECCAK256 SLOAD PUSH1 0xFF AND ISZERO PUSH3 0x48F JUMPI PUSH1 0x40 DUP1 MLOAD PUSH3 0x461BCD PUSH1 0xE5 SHL DUP2 MSTORE PUSH1 0x20 PUSH1 0x4 DUP3 ADD MSTORE PUSH1 0x1B PUSH1 0x24 DUP3 ADD MSTORE PUSH32 0x4D6F6F6E69737761703A206475706C696361746520746F6B656E730000000000 PUSH1 0x44 DUP3 ADD MSTORE SWAP1 MLOAD SWAP1 DUP2 SWAP1 SUB PUSH1 0x64 ADD SWAP1 REVERT JUMPDEST PUSH1 0x1 PUSH1 0xA PUSH1 0x0 DUP7 DUP5 DUP2 MLOAD DUP2 LT PUSH3 0x4A2 JUMPI INVALID JUMPDEST PUSH1 0x20 SWAP1 DUP2 MUL SWAP2 SWAP1 SWAP2 ADD DUP2 ADD MLOAD PUSH1 0x1 PUSH1 0x1 PUSH1 0xA0 SHL SUB AND DUP3 MSTORE DUP2 ADD SWAP2 SWAP1 SWAP2 MSTORE PUSH1 0x40 ADD PUSH1 0x0 KECCAK256 DUP1 SLOAD PUSH1 0xFF NOT AND SWAP2 ISZERO ISZERO SWAP2 SWAP1 SWAP2 OR SWAP1 SSTORE PUSH1 0x1 ADD PUSH3 0x3FA JUMP JUMPDEST POP POP POP POP PUSH3 0x60E JUMP JUMPDEST CALLER SWAP1 JUMP JUMPDEST DUP3 DUP1 SLOAD PUSH1 0x1 DUP2 PUSH1 0x1 AND ISZERO PUSH2 0x100 MUL SUB AND PUSH1 0x2 SWAP1 DIV SWAP1 PUSH1 0x0 MSTORE PUSH1 0x20 PUSH1 0x0 KECCAK256 SWAP1 PUSH1 0x1F ADD PUSH1 0x20 SWAP1 DIV DUP2 ADD SWAP3 DUP3 PUSH1 0x1F LT PUSH3 0x52E JUMPI DUP1 MLOAD PUSH1 0xFF NOT AND DUP4 DUP1 ADD OR DUP6 SSTORE PUSH3 0x55E JUMP JUMPDEST DUP3 DUP1 ADD PUSH1 0x1 ADD DUP6 SSTORE DUP3 ISZERO PUSH3 0x55E JUMPI SWAP2 DUP3 ADD JUMPDEST DUP3 DUP2 GT ISZERO PUSH3 0x55E JUMPI DUP3 MLOAD DUP3 SSTORE SWAP2 PUSH1 0x20 ADD SWAP2 SWAP1 PUSH1 0x1 ADD SWAP1 PUSH3 0x541 JUMP JUMPDEST POP PUSH3 0x56C SWAP3 SWAP2 POP PUSH3 0x5D6 JUMP JUMPDEST POP SWAP1 JUMP JUMPDEST DUP3 DUP1 SLOAD DUP3 DUP3 SSTORE SWAP1 PUSH1 0x0 MSTORE PUSH1 0x20 PUSH1 0x0 KECCAK256 SWAP1 DUP2 ADD SWAP3 DUP3 ISZERO PUSH3 0x5C8 JUMPI SWAP2 PUSH1 0x20 MUL DUP3 ADD JUMPDEST DUP3 DUP2 GT ISZERO PUSH3 0x5C8 JUMPI DUP3 MLOAD DUP3 SLOAD PUSH1 0x1 PUSH1 0x1 PUSH1 0xA0 SHL SUB NOT AND PUSH1 0x1 PUSH1 0x1 PUSH1 0xA0 SHL SUB SWAP1 SWAP2 AND OR DUP3 SSTORE PUSH1 0x20 SWAP1 SWAP3 ADD SWAP2 PUSH1 0x1 SWAP1 SWAP2 ADD SWAP1 PUSH3 0x591 JUMP JUMPDEST POP PUSH3 0x56C SWAP3 SWAP2 POP PUSH3 0x5ED JUMP JUMPDEST JUMPDEST DUP1 DUP3 GT ISZERO PUSH3 0x56C JUMPI PUSH1 0x0 DUP2 SSTORE PUSH1 0x1 ADD PUSH3 0x5D7 JUMP JUMPDEST JUMPDEST DUP1 DUP3 GT ISZERO PUSH3 0x56C JUMPI DUP1 SLOAD PUSH1 0x1 PUSH1 0x1 PUSH1 0xA0 SHL SUB NOT AND DUP2 SSTORE PUSH1 0x1 ADD PUSH3 0x5EE JUMP JUMPDEST PUSH2 0x30DB DUP1 PUSH3 0x61E PUSH1 0x0 CODECOPY PUSH1 0x0 RETURN INVALID PUSH1 0x80 PUSH1 0x40 MSTORE PUSH1 0x4 CALLDATASIZE LT PUSH2 0x1EE JUMPI PUSH1 0x0 CALLDATALOAD PUSH1 0xE0 SHR DUP1 PUSH4 0x8DA5CB5B GT PUSH2 0x10D JUMPI DUP1 PUSH4 0xC45A0155 GT PUSH2 0xA0 JUMPI DUP1 PUSH4 0xDD62ED3E GT PUSH2 0x6F JUMPI DUP1 PUSH4 0xDD62ED3E EQ PUSH2 0x860 JUMPI DUP1 PUSH4 0xDDCA3F43 EQ PUSH2 0x89B JUMPI DUP1 PUSH4 0xE7FF42C9 EQ PUSH2 0x8B0 JUMPI DUP1 PUSH4 0xF223885A EQ PUSH2 0x8E3 JUMPI DUP1 PUSH4 0xF2FDE38B EQ PUSH2 0x9A5 JUMPI PUSH2 0x1EE JUMP JUMPDEST DUP1 PUSH4 0xC45A0155 EQ PUSH2 0x7BF JUMPI DUP1 PUSH4 0xD5BCB9B5 EQ PUSH2 0x7D4 JUMPI DUP1 PUSH4 0xD73792A9 EQ PUSH2 0x818 JUMPI DUP1 PUSH4 0xD7D3AAB5 EQ PUSH2 0x82D JUMPI PUSH2 0x1EE JUMP JUMPDEST DUP1 PUSH4 0xAA6CA808 GT PUSH2 0xDC JUMPI DUP1 PUSH4 0xAA6CA808 EQ PUSH2 0x6CE JUMPI DUP1 PUSH4 0xB1EC4C40 EQ PUSH2 0x733 JUMPI DUP1 PUSH4 0xB21B5A21 EQ PUSH2 0x795 JUMPI DUP1 PUSH4 0xBAF13A0A EQ PUSH2 0x7AA JUMPI PUSH2 0x1EE JUMP JUMPDEST DUP1 PUSH4 0x8DA5CB5B EQ PUSH2 0x632 JUMPI DUP1 PUSH4 0x95D89B41 EQ PUSH2 0x647 JUMPI DUP1 PUSH4 0xA457C2D7 EQ PUSH2 0x65C JUMPI DUP1 PUSH4 0xA9059CBB EQ PUSH2 0x695 JUMPI PUSH2 0x1EE JUMP JUMPDEST DUP1 PUSH4 0x48D67E1B GT PUSH2 0x185 JUMPI DUP1 PUSH4 0x6EDC2C09 GT PUSH2 0x154 JUMPI DUP1 PUSH4 0x6EDC2C09 EQ PUSH2 0x57E JUMPI DUP1 PUSH4 0x70A08231 EQ PUSH2 0x5B1 JUMPI DUP1 PUSH4 0x715018A6 EQ PUSH2 0x5E4 JUMPI DUP1 PUSH4 0x78E3214F EQ PUSH2 0x5F9 JUMPI PUSH2 0x1EE JUMP JUMPDEST DUP1 PUSH4 0x48D67E1B EQ PUSH2 0x40E JUMPI DUP1 PUSH4 0x4F64B2BE EQ PUSH2 0x423 JUMPI DUP1 PUSH4 0x5915D806 EQ PUSH2 0x469 JUMPI DUP1 PUSH4 0x5ED9156D EQ PUSH2 0x522 JUMPI PUSH2 0x1EE JUMP JUMPDEST DUP1 PUSH4 0x1E1401F8 GT PUSH2 0x1C1 JUMPI DUP1 PUSH4 0x1E1401F8 EQ PUSH2 0x324 JUMPI DUP1 PUSH4 0x23B872DD EQ PUSH2 0x367 JUMPI DUP1 PUSH4 0x313CE567 EQ PUSH2 0x3AA JUMPI DUP1 PUSH4 0x39509351 EQ PUSH2 0x3D5 JUMPI PUSH2 0x1EE JUMP JUMPDEST DUP1 PUSH4 0x6FDDE03 EQ PUSH2 0x1F3 JUMPI DUP1 PUSH4 0x95EA7B3 EQ PUSH2 0x27D JUMPI DUP1 PUSH4 0x18160DDD EQ PUSH2 0x2CA JUMPI DUP1 PUSH4 0x19F37361 EQ PUSH2 0x2F1 JUMPI JUMPDEST PUSH1 0x0 DUP1 REVERT JUMPDEST CALLVALUE DUP1 ISZERO PUSH2 0x1FF JUMPI PUSH1 0x0 DUP1 REVERT JUMPDEST POP PUSH2 0x208 PUSH2 0x9D8 JUMP JUMPDEST PUSH1 0x40 DUP1 MLOAD PUSH1 0x20 DUP1 DUP3 MSTORE DUP4 MLOAD DUP2 DUP4 ADD MSTORE DUP4 MLOAD SWAP2 SWAP3 DUP4 SWAP3 SWAP1 DUP4 ADD SWAP2 DUP6 ADD SWAP1 DUP1 DUP4 DUP4 PUSH1 0x0 JUMPDEST DUP4 DUP2 LT ISZERO PUSH2 0x242 JUMPI DUP2 DUP2 ADD MLOAD DUP4 DUP3 ADD MSTORE PUSH1 0x20 ADD PUSH2 0x22A JUMP JUMPDEST POP POP POP POP SWAP1 POP SWAP1 DUP2 ADD SWAP1 PUSH1 0x1F AND DUP1 ISZERO PUSH2 0x26F JUMPI DUP1 DUP3 SUB DUP1 MLOAD PUSH1 0x1 DUP4 PUSH1 0x20 SUB PUSH2 0x100 EXP SUB NOT AND DUP2 MSTORE PUSH1 0x20 ADD SWAP2 POP JUMPDEST POP SWAP3 POP POP POP PUSH1 0x40 MLOAD DUP1 SWAP2 SUB SWAP1 RETURN JUMPDEST CALLVALUE DUP1 ISZERO PUSH2 0x289 JUMPI PUSH1 0x0 DUP1 REVERT JUMPDEST POP PUSH2 0x2B6 PUSH1 0x4 DUP1 CALLDATASIZE SUB PUSH1 0x40 DUP2 LT ISZERO PUSH2 0x2A0 JUMPI PUSH1 0x0 DUP1 REVERT JUMPDEST POP PUSH1 0x1 PUSH1 0x1 PUSH1 0xA0 SHL SUB DUP2 CALLDATALOAD AND SWAP1 PUSH1 0x20 ADD CALLDATALOAD PUSH2 0xA6E JUMP JUMPDEST PUSH1 0x40 DUP1 MLOAD SWAP2 ISZERO ISZERO DUP3 MSTORE MLOAD SWAP1 DUP2 SWAP1 SUB PUSH1 0x20 ADD SWAP1 RETURN JUMPDEST CALLVALUE DUP1 ISZERO PUSH2 0x2D6 JUMPI PUSH1 0x0 DUP1 REVERT JUMPDEST POP PUSH2 0x2DF PUSH2 0xA8C JUMP JUMPDEST PUSH1 0x40 DUP1 MLOAD SWAP2 DUP3 MSTORE MLOAD SWAP1 DUP2 SWAP1 SUB PUSH1 0x20 ADD SWAP1 RETURN JUMPDEST CALLVALUE DUP1 ISZERO PUSH2 0x2FD JUMPI PUSH1 0x0 DUP1 REVERT JUMPDEST POP PUSH2 0x2B6 PUSH1 0x4 DUP1 CALLDATASIZE SUB PUSH1 0x20 DUP2 LT ISZERO PUSH2 0x314 JUMPI PUSH1 0x0 DUP1 REVERT JUMPDEST POP CALLDATALOAD PUSH1 0x1 PUSH1 0x1 PUSH1 0xA0 SHL SUB AND PUSH2 0xA92 JUMP JUMPDEST CALLVALUE DUP1 ISZERO PUSH2 0x330 JUMPI PUSH1 0x0 DUP1 REVERT JUMPDEST POP PUSH2 0x2DF PUSH1 0x4 DUP1 CALLDATASIZE SUB PUSH1 0x60 DUP2 LT ISZERO PUSH2 0x347 JUMPI PUSH1 0x0 DUP1 REVERT JUMPDEST POP PUSH1 0x1 PUSH1 0x1 PUSH1 0xA0 SHL SUB DUP2 CALLDATALOAD DUP2 AND SWAP2 PUSH1 0x20 DUP2 ADD CALLDATALOAD SWAP1 SWAP2 AND SWAP1 PUSH1 0x40 ADD CALLDATALOAD PUSH2 0xAA7 JUMP JUMPDEST CALLVALUE DUP1 ISZERO PUSH2 0x373 JUMPI PUSH1 0x0 DUP1 REVERT JUMPDEST POP PUSH2 0x2B6 PUSH1 0x4 DUP1 CALLDATASIZE SUB PUSH1 0x60 DUP2 LT ISZERO PUSH2 0x38A JUMPI PUSH1 0x0 DUP1 REVERT JUMPDEST POP PUSH1 0x1 PUSH1 0x1 PUSH1 0xA0 SHL SUB DUP2 CALLDATALOAD DUP2 AND SWAP2 PUSH1 0x20 DUP2 ADD CALLDATALOAD SWAP1 SWAP2 AND SWAP1 PUSH1 0x40 ADD CALLDATALOAD PUSH2 0xACE JUMP JUMPDEST CALLVALUE DUP1 ISZERO PUSH2 0x3B6 JUMPI PUSH1 0x0 DUP1 REVERT JUMPDEST POP PUSH2 0x3BF PUSH2 0xB55 JUMP JUMPDEST PUSH1 0x40 DUP1 MLOAD PUSH1 0xFF SWAP1 SWAP3 AND DUP3 MSTORE MLOAD SWAP1 DUP2 SWAP1 SUB PUSH1 0x20 ADD SWAP1 RETURN JUMPDEST CALLVALUE DUP1 ISZERO PUSH2 0x3E1 JUMPI PUSH1 0x0 DUP1 REVERT JUMPDEST POP PUSH2 0x2B6 PUSH1 0x4 DUP1 CALLDATASIZE SUB PUSH1 0x40 DUP2 LT ISZERO PUSH2 0x3F8 JUMPI PUSH1 0x0 DUP1 REVERT JUMPDEST POP PUSH1 0x1 PUSH1 0x1 PUSH1 0xA0 SHL SUB DUP2 CALLDATALOAD AND SWAP1 PUSH1 0x20 ADD CALLDATALOAD PUSH2 0xB5E JUMP JUMPDEST CALLVALUE DUP1 ISZERO PUSH2 0x41A JUMPI PUSH1 0x0 DUP1 REVERT JUMPDEST POP PUSH2 0x2DF PUSH2 0xBAC JUMP JUMPDEST CALLVALUE DUP1 ISZERO PUSH2 0x42F JUMPI PUSH1 0x0 DUP1 REVERT JUMPDEST POP PUSH2 0x44D PUSH1 0x4 DUP1 CALLDATASIZE SUB PUSH1 0x20 DUP2 LT ISZERO PUSH2 0x446 JUMPI PUSH1 0x0 DUP1 REVERT JUMPDEST POP CALLDATALOAD PUSH2 0xBB2 JUMP JUMPDEST PUSH1 0x40 DUP1 MLOAD PUSH1 0x1 PUSH1 0x1 PUSH1 0xA0 SHL SUB SWAP1 SWAP3 AND DUP3 MSTORE MLOAD SWAP1 DUP2 SWAP1 SUB PUSH1 0x20 ADD SWAP1 RETURN JUMPDEST CALLVALUE DUP1 ISZERO PUSH2 0x475 JUMPI PUSH1 0x0 DUP1 REVERT JUMPDEST POP PUSH2 0x520 PUSH1 0x4 DUP1 CALLDATASIZE SUB PUSH1 0x40 DUP2 LT ISZERO PUSH2 0x48C JUMPI PUSH1 0x0 DUP1 REVERT JUMPDEST DUP2 CALLDATALOAD SWAP2 SWAP1 DUP2 ADD SWAP1 PUSH1 0x40 DUP2 ADD PUSH1 0x20 DUP3 ADD CALLDATALOAD PUSH5 0x100000000 DUP2 GT ISZERO PUSH2 0x4AE JUMPI PUSH1 0x0 DUP1 REVERT JUMPDEST DUP3 ADD DUP4 PUSH1 0x20 DUP3 ADD GT ISZERO PUSH2 0x4C0 JUMPI PUSH1 0x0 DUP1 REVERT JUMPDEST DUP1 CALLDATALOAD SWAP1 PUSH1 0x20 ADD SWAP2 DUP5 PUSH1 0x20 DUP4 MUL DUP5 ADD GT PUSH5 0x100000000 DUP4 GT OR ISZERO PUSH2 0x4E2 JUMPI PUSH1 0x0 DUP1 REVERT JUMPDEST SWAP2 SWAP1 DUP1 DUP1 PUSH1 0x20 MUL PUSH1 0x20 ADD PUSH1 0x40 MLOAD SWAP1 DUP2 ADD PUSH1 0x40 MSTORE DUP1 SWAP4 SWAP3 SWAP2 SWAP1 DUP2 DUP2 MSTORE PUSH1 0x20 ADD DUP4 DUP4 PUSH1 0x20 MUL DUP1 DUP3 DUP5 CALLDATACOPY PUSH1 0x0 SWAP3 ADD SWAP2 SWAP1 SWAP2 MSTORE POP SWAP3 SWAP6 POP PUSH2 0xBD9 SWAP5 POP POP POP POP POP JUMP JUMPDEST STOP JUMPDEST CALLVALUE DUP1 ISZERO PUSH2 0x52E JUMPI PUSH1 0x0 DUP1 REVERT JUMPDEST POP PUSH2 0x555 PUSH1 0x4 DUP1 CALLDATASIZE SUB PUSH1 0x20 DUP2 LT ISZERO PUSH2 0x545 JUMPI PUSH1 0x0 DUP1 REVERT JUMPDEST POP CALLDATALOAD PUSH1 0x1 PUSH1 0x1 PUSH1 0xA0 SHL SUB AND PUSH2 0xDC0 JUMP JUMPDEST PUSH1 0x40 DUP1 MLOAD PUSH1 0x1 PUSH1 0x1 PUSH1 0xD8 SHL SUB SWAP1 SWAP4 AND DUP4 MSTORE PUSH5 0xFFFFFFFFFF SWAP1 SWAP2 AND PUSH1 0x20 DUP4 ADD MSTORE DUP1 MLOAD SWAP2 DUP3 SWAP1 SUB ADD SWAP1 RETURN JUMPDEST CALLVALUE DUP1 ISZERO PUSH2 0x58A JUMPI PUSH1 0x0 DUP1 REVERT JUMPDEST POP PUSH2 0x555 PUSH1 0x4 DUP1 CALLDATASIZE SUB PUSH1 0x20 DUP2 LT ISZERO PUSH2 0x5A1 JUMPI PUSH1 0x0 DUP1 REVERT JUMPDEST POP CALLDATALOAD PUSH1 0x1 PUSH1 0x1 PUSH1 0xA0 SHL SUB AND PUSH2 0xDEB JUMP JUMPDEST CALLVALUE DUP1 ISZERO PUSH2 0x5BD JUMPI PUSH1 0x0 DUP1 REVERT JUMPDEST POP PUSH2 0x2DF PUSH1 0x4 DUP1 CALLDATASIZE SUB PUSH1 0x20 DUP2 LT ISZERO PUSH2 0x5D4 JUMPI PUSH1 0x0 DUP1 REVERT JUMPDEST POP CALLDATALOAD PUSH1 0x1 PUSH1 0x1 PUSH1 0xA0 SHL SUB AND PUSH2 0xE16 JUMP JUMPDEST CALLVALUE DUP1 ISZERO PUSH2 0x5F0 JUMPI PUSH1 0x0 DUP1 REVERT JUMPDEST POP PUSH2 0x520 PUSH2 0xE35 JUMP JUMPDEST CALLVALUE DUP1 ISZERO PUSH2 0x605 JUMPI PUSH1 0x0 DUP1 REVERT JUMPDEST POP PUSH2 0x520 PUSH1 0x4 DUP1 CALLDATASIZE SUB PUSH1 0x40 DUP2 LT ISZERO PUSH2 0x61C JUMPI PUSH1 0x0 DUP1 REVERT JUMPDEST POP PUSH1 0x1 PUSH1 0x1 PUSH1 0xA0 SHL SUB DUP2 CALLDATALOAD AND SWAP1 PUSH1 0x20 ADD CALLDATALOAD PUSH2 0xEE9 JUMP JUMPDEST CALLVALUE DUP1 ISZERO PUSH2 0x63E JUMPI PUSH1 0x0 DUP1 REVERT JUMPDEST POP PUSH2 0x44D PUSH2 0x113F JUMP JUMPDEST CALLVALUE DUP1 ISZERO PUSH2 0x653 JUMPI PUSH1 0x0 DUP1 REVERT JUMPDEST POP PUSH2 0x208 PUSH2 0x114E JUMP JUMPDEST CALLVALUE DUP1 ISZERO PUSH2 0x668 JUMPI PUSH1 0x0 DUP1 REVERT JUMPDEST POP PUSH2 0x2B6 PUSH1 0x4 DUP1 CALLDATASIZE SUB PUSH1 0x40 DUP2 LT ISZERO PUSH2 0x67F JUMPI PUSH1 0x0 DUP1 REVERT JUMPDEST POP PUSH1 0x1 PUSH1 0x1 PUSH1 0xA0 SHL SUB DUP2 CALLDATALOAD AND SWAP1 PUSH1 0x20 ADD CALLDATALOAD PUSH2 0x11AF JUMP JUMPDEST CALLVALUE DUP1 ISZERO PUSH2 0x6A1 JUMPI PUSH1 0x0 DUP1 REVERT JUMPDEST POP PUSH2 0x2B6 PUSH1 0x4 DUP1 CALLDATASIZE SUB PUSH1 0x40 DUP2 LT ISZERO PUSH2 0x6B8 JUMPI PUSH1 0x0 DUP1 REVERT JUMPDEST POP PUSH1 0x1 PUSH1 0x1 PUSH1 0xA0 SHL SUB DUP2 CALLDATALOAD AND SWAP1 PUSH1 0x20 ADD CALLDATALOAD PUSH2 0x1217 JUMP JUMPDEST CALLVALUE DUP1 ISZERO PUSH2 0x6DA JUMPI PUSH1 0x0 DUP1 REVERT JUMPDEST POP PUSH2 0x6E3 PUSH2 0x122B JUMP JUMPDEST PUSH1 0x40 DUP1 MLOAD PUSH1 0x20 DUP1 DUP3 MSTORE DUP4 MLOAD DUP2 DUP4 ADD MSTORE DUP4 MLOAD SWAP2 SWAP3 DUP4 SWAP3 SWAP1 DUP4 ADD SWAP2 DUP6 DUP2 ADD SWAP2 MUL DUP1 DUP4 DUP4 PUSH1 0x0 JUMPDEST DUP4 DUP2 LT ISZERO PUSH2 0x71F JUMPI DUP2 DUP2 ADD MLOAD DUP4 DUP3 ADD MSTORE PUSH1 0x20 ADD PUSH2 0x707 JUMP JUMPDEST POP POP POP POP SWAP1 POP ADD SWAP3 POP POP POP PUSH1 0x40 MLOAD DUP1 SWAP2 SUB SWAP1 RETURN JUMPDEST CALLVALUE DUP1 ISZERO PUSH2 0x73F JUMPI PUSH1 0x0 DUP1 REVERT JUMPDEST POP PUSH2 0x766 PUSH1 0x4 DUP1 CALLDATASIZE SUB PUSH1 0x20 DUP2 LT ISZERO PUSH2 0x756 JUMPI PUSH1 0x0 DUP1 REVERT JUMPDEST POP CALLDATALOAD PUSH1 0x1 PUSH1 0x1 PUSH1 0xA0 SHL SUB AND PUSH2 0x128C JUMP JUMPDEST PUSH1 0x40 MLOAD DUP1 DUP4 PUSH1 0x1 PUSH1 0x1 PUSH1 0x80 SHL SUB AND DUP2 MSTORE PUSH1 0x20 ADD DUP3 PUSH1 0x1 PUSH1 0x1 PUSH1 0x80 SHL SUB AND DUP2 MSTORE PUSH1 0x20 ADD SWAP3 POP POP POP PUSH1 0x40 MLOAD DUP1 SWAP2 SUB SWAP1 RETURN JUMPDEST CALLVALUE DUP1 ISZERO PUSH2 0x7A1 JUMPI PUSH1 0x0 DUP1 REVERT JUMPDEST POP PUSH2 0x2DF PUSH2 0x12B2 JUMP JUMPDEST CALLVALUE DUP1 ISZERO PUSH2 0x7B6 JUMPI PUSH1 0x0 DUP1 REVERT JUMPDEST POP PUSH2 0x2DF PUSH2 0x12B7 JUMP JUMPDEST CALLVALUE DUP1 ISZERO PUSH2 0x7CB JUMPI PUSH1 0x0 DUP1 REVERT JUMPDEST POP PUSH2 0x44D PUSH2 0x12BD JUMP JUMPDEST PUSH2 0x2DF PUSH1 0x4 DUP1 CALLDATASIZE SUB PUSH1 0xA0 DUP2 LT ISZERO PUSH2 0x7EA JUMPI PUSH1 0x0 DUP1 REVERT JUMPDEST POP PUSH1 0x1 PUSH1 0x1 PUSH1 0xA0 SHL SUB DUP2 CALLDATALOAD DUP2 AND SWAP2 PUSH1 0x20 DUP2 ADD CALLDATALOAD DUP3 AND SWAP2 PUSH1 0x40 DUP3 ADD CALLDATALOAD SWAP2 PUSH1 0x60 DUP2 ADD CALLDATALOAD SWAP2 PUSH1 0x80 SWAP1 SWAP2 ADD CALLDATALOAD AND PUSH2 0x12CC JUMP JUMPDEST CALLVALUE DUP1 ISZERO PUSH2 0x824 JUMPI PUSH1 0x0 DUP1 REVERT JUMPDEST POP PUSH2 0x2DF PUSH2 0x17D5 JUMP JUMPDEST CALLVALUE DUP1 ISZERO PUSH2 0x839 JUMPI PUSH1 0x0 DUP1 REVERT JUMPDEST POP PUSH2 0x2DF PUSH1 0x4 DUP1 CALLDATASIZE SUB PUSH1 0x20 DUP2 LT ISZERO PUSH2 0x850 JUMPI PUSH1 0x0 DUP1 REVERT JUMPDEST POP CALLDATALOAD PUSH1 0x1 PUSH1 0x1 PUSH1 0xA0 SHL SUB AND PUSH2 0x17E1 JUMP JUMPDEST CALLVALUE DUP1 ISZERO PUSH2 0x86C JUMPI PUSH1 0x0 DUP1 REVERT JUMPDEST POP PUSH2 0x2DF PUSH1 0x4 DUP1 CALLDATASIZE SUB PUSH1 0x40 DUP2 LT ISZERO PUSH2 0x883 JUMPI PUSH1 0x0 DUP1 REVERT JUMPDEST POP PUSH1 0x1 PUSH1 0x1 PUSH1 0xA0 SHL SUB DUP2 CALLDATALOAD DUP2 AND SWAP2 PUSH1 0x20 ADD CALLDATALOAD AND PUSH2 0x1858 JUMP JUMPDEST CALLVALUE DUP1 ISZERO PUSH2 0x8A7 JUMPI PUSH1 0x0 DUP1 REVERT JUMPDEST POP PUSH2 0x2DF PUSH2 0x1883 JUMP JUMPDEST CALLVALUE DUP1 ISZERO PUSH2 0x8BC JUMPI PUSH1 0x0 DUP1 REVERT JUMPDEST POP PUSH2 0x2DF PUSH1 0x4 DUP1 CALLDATASIZE SUB PUSH1 0x20 DUP2 LT ISZERO PUSH2 0x8D3 JUMPI PUSH1 0x0 DUP1 REVERT JUMPDEST POP CALLDATALOAD PUSH1 0x1 PUSH1 0x1 PUSH1 0xA0 SHL SUB AND PUSH2 0x18F9 JUMP JUMPDEST PUSH2 0x2DF PUSH1 0x4 DUP1 CALLDATASIZE SUB PUSH1 0x40 DUP2 LT ISZERO PUSH2 0x8F9 JUMPI PUSH1 0x0 DUP1 REVERT JUMPDEST DUP2 ADD SWAP1 PUSH1 0x20 DUP2 ADD DUP2 CALLDATALOAD PUSH5 0x100000000 DUP2 GT ISZERO PUSH2 0x914 JUMPI PUSH1 0x0 DUP1 REVERT JUMPDEST DUP3 ADD DUP4 PUSH1 0x20 DUP3 ADD GT ISZERO PUSH2 0x926 JUMPI PUSH1 0x0 DUP1 REVERT JUMPDEST DUP1 CALLDATALOAD SWAP1 PUSH1 0x20 ADD SWAP2 DUP5 PUSH1 0x20 DUP4 MUL DUP5 ADD GT PUSH5 0x100000000 DUP4 GT OR ISZERO PUSH2 0x948 JUMPI PUSH1 0x0 DUP1 REVERT JUMPDEST SWAP2 SWAP4 SWAP1 SWAP3 SWAP1 SWAP2 PUSH1 0x20 DUP2 ADD SWAP1 CALLDATALOAD PUSH5 0x100000000 DUP2 GT ISZERO PUSH2 0x966 JUMPI PUSH1 0x0 DUP1 REVERT JUMPDEST DUP3 ADD DUP4 PUSH1 0x20 DUP3 ADD GT ISZERO PUSH2 0x978 JUMPI PUSH1 0x0 DUP1 REVERT JUMPDEST DUP1 CALLDATALOAD SWAP1 PUSH1 0x20 ADD SWAP2 DUP5 PUSH1 0x20 DUP4 MUL DUP5 ADD GT PUSH5 0x100000000 DUP4 GT OR ISZERO PUSH2 0x99A JUMPI PUSH1 0x0 DUP1 REVERT JUMPDEST POP SWAP1 SWAP3 POP SWAP1 POP PUSH2 0x1969 JUMP JUMPDEST CALLVALUE DUP1 ISZERO PUSH2 0x9B1 JUMPI PUSH1 0x0 DUP1 REVERT JUMPDEST POP PUSH2 0x520 PUSH1 0x4 DUP1 CALLDATASIZE SUB PUSH1 0x20 DUP2 LT ISZERO PUSH2 0x9C8 JUMPI PUSH1 0x0 DUP1 REVERT JUMPDEST POP CALLDATALOAD PUSH1 0x1 PUSH1 0x1 PUSH1 0xA0 SHL SUB AND PUSH2 0x1FF7 JUMP JUMPDEST PUSH1 0x3 DUP1 SLOAD PUSH1 0x40 DUP1 MLOAD PUSH1 0x20 PUSH1 0x1F PUSH1 0x2 PUSH1 0x0 NOT PUSH2 0x100 PUSH1 0x1 DUP9 AND ISZERO MUL ADD SWAP1 SWAP6 AND SWAP5 SWAP1 SWAP5 DIV SWAP4 DUP5 ADD DUP2 SWAP1 DIV DUP2 MUL DUP3 ADD DUP2 ADD SWAP1 SWAP3 MSTORE DUP3 DUP2 MSTORE PUSH1 0x60 SWAP4 SWAP1 SWAP3 SWAP1 SWAP2 DUP4 ADD DUP3 DUP3 DUP1 ISZERO PUSH2 0xA64 JUMPI DUP1 PUSH1 0x1F LT PUSH2 0xA39 JUMPI PUSH2 0x100 DUP1 DUP4 SLOAD DIV MUL DUP4 MSTORE SWAP2 PUSH1 0x20 ADD SWAP2 PUSH2 0xA64 JUMP JUMPDEST DUP3 ADD SWAP2 SWAP1 PUSH1 0x0 MSTORE PUSH1 0x20 PUSH1 0x0 KECCAK256 SWAP1 JUMPDEST DUP2 SLOAD DUP2 MSTORE SWAP1 PUSH1 0x1 ADD SWAP1 PUSH1 0x20 ADD DUP1 DUP4 GT PUSH2 0xA47 JUMPI DUP3 SWAP1 SUB PUSH1 0x1F AND DUP3 ADD SWAP2 JUMPDEST POP POP POP POP POP SWAP1 POP SWAP1 JUMP JUMPDEST PUSH1 0x0 PUSH2 0xA82 PUSH2 0xA7B PUSH2 0x2102 JUMP JUMPDEST DUP5 DUP5 PUSH2 0x2106 JUMP JUMPDEST POP PUSH1 0x1 JUMPDEST SWAP3 SWAP2 POP POP JUMP JUMPDEST PUSH1 0x2 SLOAD SWAP1 JUMP JUMPDEST PUSH1 0xA PUSH1 0x20 MSTORE PUSH1 0x0 SWAP1 DUP2 MSTORE PUSH1 0x40 SWAP1 KECCAK256 SLOAD PUSH1 0xFF AND DUP2 JUMP JUMPDEST PUSH1 0x0 PUSH2 0xAC6 DUP5 DUP5 DUP5 PUSH2 0xAB8 DUP9 PUSH2 0x17E1 JUMP JUMPDEST PUSH2 0xAC1 DUP9 PUSH2 0x18F9 JUMP JUMPDEST PUSH2 0x21F2 JUMP JUMPDEST SWAP5 SWAP4 POP POP POP POP JUMP JUMPDEST PUSH1 0x0 PUSH2 0xADB DUP5 DUP5 DUP5 PUSH2 0x22B1 JUMP JUMPDEST PUSH2 0xB4B DUP5 PUSH2 0xAE7 PUSH2 0x2102 JUMP JUMPDEST PUSH2 0xB46 DUP6 PUSH1 0x40 MLOAD DUP1 PUSH1 0x60 ADD PUSH1 0x40 MSTORE DUP1 PUSH1 0x28 DUP2 MSTORE PUSH1 0x20 ADD PUSH2 0x2FC5 PUSH1 0x28 SWAP2 CODECOPY PUSH1 0x1 PUSH1 0x1 PUSH1 0xA0 SHL SUB DUP11 AND PUSH1 0x0 SWAP1 DUP2 MSTORE PUSH1 0x1 PUSH1 0x20 MSTORE PUSH1 0x40 DUP2 KECCAK256 SWAP1 PUSH2 0xB25 PUSH2 0x2102 JUMP JUMPDEST PUSH1 0x1 PUSH1 0x1 PUSH1 0xA0 SHL SUB AND DUP2 MSTORE PUSH1 0x20 DUP2 ADD SWAP2 SWAP1 SWAP2 MSTORE PUSH1 0x40 ADD PUSH1 0x0 KECCAK256 SLOAD SWAP2 SWAP1 PUSH2 0x240C JUMP JUMPDEST PUSH2 0x2106 JUMP JUMPDEST POP PUSH1 0x1 SWAP4 SWAP3 POP POP POP JUMP JUMPDEST PUSH1 0x5 SLOAD PUSH1 0xFF AND SWAP1 JUMP JUMPDEST PUSH1 0x0 PUSH2 0xA82 PUSH2 0xB6B PUSH2 0x2102 JUMP JUMPDEST DUP5 PUSH2 0xB46 DUP6 PUSH1 0x1 PUSH1 0x0 PUSH2 0xB7C PUSH2 0x2102 JUMP JUMPDEST PUSH1 0x1 PUSH1 0x1 PUSH1 0xA0 SHL SUB SWAP1 DUP2 AND DUP3 MSTORE PUSH1 0x20 DUP1 DUP4 ADD SWAP4 SWAP1 SWAP4 MSTORE PUSH1 0x40 SWAP2 DUP3 ADD PUSH1 0x0 SWAP1 DUP2 KECCAK256 SWAP2 DUP13 AND DUP2 MSTORE SWAP3 MSTORE SWAP1 KECCAK256 SLOAD SWAP1 PUSH2 0x24A3 JUMP JUMPDEST PUSH2 0x12C SWAP1 JUMP JUMPDEST PUSH1 0x9 DUP2 DUP2 SLOAD DUP2 LT PUSH2 0xBBF JUMPI INVALID JUMPDEST PUSH1 0x0 SWAP2 DUP3 MSTORE PUSH1 0x20 SWAP1 SWAP2 KECCAK256 ADD SLOAD PUSH1 0x1 PUSH1 0x1 PUSH1 0xA0 SHL SUB AND SWAP1 POP DUP2 JUMP JUMPDEST PUSH1 0x2 PUSH1 0x6 SLOAD EQ ISZERO PUSH2 0xC1F JUMPI PUSH1 0x40 DUP1 MLOAD PUSH3 0x461BCD PUSH1 0xE5 SHL DUP2 MSTORE PUSH1 0x20 PUSH1 0x4 DUP3 ADD MSTORE PUSH1 0x1F PUSH1 0x24 DUP3 ADD MSTORE PUSH1 0x0 DUP1 MLOAD PUSH1 0x20 PUSH2 0x2EF4 DUP4 CODECOPY DUP2 MLOAD SWAP2 MSTORE PUSH1 0x44 DUP3 ADD MSTORE SWAP1 MLOAD SWAP1 DUP2 SWAP1 SUB PUSH1 0x64 ADD SWAP1 REVERT JUMPDEST PUSH1 0x2 PUSH1 0x6 SSTORE PUSH1 0x0 PUSH2 0xC2E PUSH2 0xA8C JUMP JUMPDEST SWAP1 POP PUSH2 0xC3A CALLER DUP5 PUSH2 0x24FD JUMP JUMPDEST PUSH1 0x0 JUMPDEST PUSH1 0x9 SLOAD DUP2 LT ISZERO PUSH2 0xD7F JUMPI PUSH1 0x0 PUSH1 0x9 DUP3 DUP2 SLOAD DUP2 LT PUSH2 0xC56 JUMPI INVALID JUMPDEST PUSH1 0x0 SWAP2 DUP3 MSTORE PUSH1 0x20 DUP3 KECCAK256 ADD SLOAD PUSH1 0x1 PUSH1 0x1 PUSH1 0xA0 SHL SUB AND SWAP2 POP PUSH2 0xC76 DUP3 ADDRESS PUSH2 0x25F9 JUMP JUMPDEST SWAP1 POP PUSH1 0x0 PUSH2 0xC8E DUP6 PUSH2 0xC88 DUP5 DUP11 PUSH2 0x269A JUMP JUMPDEST SWAP1 PUSH2 0x26F3 JUMP JUMPDEST SWAP1 POP PUSH2 0xCA4 PUSH1 0x1 PUSH1 0x1 PUSH1 0xA0 SHL SUB DUP5 AND CALLER DUP4 PUSH2 0x2735 JUMP JUMPDEST DUP6 MLOAD DUP5 LT ISZERO DUP1 PUSH2 0xCC7 JUMPI POP DUP6 DUP5 DUP2 MLOAD DUP2 LT PUSH2 0xCBB JUMPI INVALID JUMPDEST PUSH1 0x20 MUL PUSH1 0x20 ADD ADD MLOAD DUP2 LT ISZERO JUMPDEST PUSH2 0xD18 JUMPI PUSH1 0x40 DUP1 MLOAD PUSH3 0x461BCD PUSH1 0xE5 SHL DUP2 MSTORE PUSH1 0x20 PUSH1 0x4 DUP3 ADD MSTORE PUSH1 0x1F PUSH1 0x24 DUP3 ADD MSTORE PUSH32 0x4D6F6F6E69737761703A20726573756C74206973206E6F7420656E6F75676800 PUSH1 0x44 DUP3 ADD MSTORE SWAP1 MLOAD SWAP1 DUP2 SWAP1 SUB PUSH1 0x64 ADD SWAP1 REVERT JUMPDEST PUSH2 0xD46 DUP3 PUSH2 0xD26 DUP8 DUP11 PUSH2 0x279E JUMP JUMPDEST PUSH1 0x1 PUSH1 0x1 PUSH1 0xA0 SHL SUB DUP7 AND PUSH1 0x0 SWAP1 DUP2 MSTORE PUSH1 0xC PUSH1 0x20 MSTORE PUSH1 0x40 SWAP1 KECCAK256 SWAP2 SWAP1 DUP9 PUSH2 0x27E0 JUMP JUMPDEST PUSH2 0xD74 DUP3 PUSH2 0xD54 DUP8 DUP11 PUSH2 0x279E JUMP JUMPDEST PUSH1 0x1 PUSH1 0x1 PUSH1 0xA0 SHL SUB DUP7 AND PUSH1 0x0 SWAP1 DUP2 MSTORE PUSH1 0xD PUSH1 0x20 MSTORE PUSH1 0x40 SWAP1 KECCAK256 SWAP2 SWAP1 DUP9 PUSH2 0x27E0 JUMP JUMPDEST POP POP POP PUSH1 0x1 ADD PUSH2 0xC3D JUMP JUMPDEST POP PUSH1 0x40 DUP1 MLOAD DUP5 DUP2 MSTORE SWAP1 MLOAD CALLER SWAP2 PUSH32 0x7084F5476618D8E60B11EF0D7D3F06914655ADB8793E28FF7F018D4C76D505D5 SWAP2 SWAP1 DUP2 SWAP1 SUB PUSH1 0x20 ADD SWAP1 LOG2 POP POP PUSH1 0x1 PUSH1 0x6 SSTORE POP JUMP JUMPDEST PUSH1 0xD PUSH1 0x20 MSTORE PUSH1 0x0 SWAP1 DUP2 MSTORE PUSH1 0x40 SWAP1 KECCAK256 SLOAD PUSH1 0x1 PUSH1 0x1 PUSH1 0xD8 SHL SUB DUP2 AND SWAP1 PUSH1 0x1 PUSH1 0xD8 SHL SWAP1 DIV PUSH5 0xFFFFFFFFFF AND DUP3 JUMP JUMPDEST PUSH1 0xC PUSH1 0x20 MSTORE PUSH1 0x0 SWAP1 DUP2 MSTORE PUSH1 0x40 SWAP1 KECCAK256 SLOAD PUSH1 0x1 PUSH1 0x1 PUSH1 0xD8 SHL SUB DUP2 AND SWAP1 PUSH1 0x1 PUSH1 0xD8 SHL SWAP1 DIV PUSH5 0xFFFFFFFFFF AND DUP3 JUMP JUMPDEST PUSH1 0x1 PUSH1 0x1 PUSH1 0xA0 SHL SUB DUP2 AND PUSH1 0x0 SWAP1 DUP2 MSTORE PUSH1 0x20 DUP2 SWAP1 MSTORE PUSH1 0x40 SWAP1 KECCAK256 SLOAD JUMPDEST SWAP2 SWAP1 POP JUMP JUMPDEST PUSH2 0xE3D PUSH2 0x2102 JUMP JUMPDEST PUSH1 0x7 SLOAD PUSH1 0x1 PUSH1 0x1 PUSH1 0xA0 SHL SUB SWAP1 DUP2 AND SWAP2 AND EQ PUSH2 0xE9F JUMPI PUSH1 0x40 DUP1 MLOAD PUSH3 0x461BCD PUSH1 0xE5 SHL DUP2 MSTORE PUSH1 0x20 PUSH1 0x4 DUP3 ADD DUP2 SWAP1 MSTORE PUSH1 0x24 DUP3 ADD MSTORE PUSH32 0x4F776E61626C653A2063616C6C6572206973206E6F7420746865206F776E6572 PUSH1 0x44 DUP3 ADD MSTORE SWAP1 MLOAD SWAP1 DUP2 SWAP1 SUB PUSH1 0x64 ADD SWAP1 REVERT JUMPDEST PUSH1 0x7 SLOAD PUSH1 0x40 MLOAD PUSH1 0x0 SWAP2 PUSH1 0x1 PUSH1 0x1 PUSH1 0xA0 SHL SUB AND SWAP1 PUSH32 0x8BE0079C531659141344CD1FD0A4F28419497F9722A3DAAFE3B4186F6B6457E0 SWAP1 DUP4 SWAP1 LOG3 PUSH1 0x7 DUP1 SLOAD PUSH1 0x1 PUSH1 0x1 PUSH1 0xA0 SHL SUB NOT AND SWAP1 SSTORE JUMP JUMPDEST PUSH1 0x2 PUSH1 0x6 SLOAD EQ ISZERO PUSH2 0xF2F JUMPI PUSH1 0x40 DUP1 MLOAD PUSH3 0x461BCD PUSH1 0xE5 SHL DUP2 MSTORE PUSH1 0x20 PUSH1 0x4 DUP3 ADD MSTORE PUSH1 0x1F PUSH1 0x24 DUP3 ADD MSTORE PUSH1 0x0 DUP1 MLOAD PUSH1 0x20 PUSH2 0x2EF4 DUP4 CODECOPY DUP2 MLOAD SWAP2 MSTORE PUSH1 0x44 DUP3 ADD MSTORE SWAP1 MLOAD SWAP1 DUP2 SWAP1 SUB PUSH1 0x64 ADD SWAP1 REVERT JUMPDEST PUSH1 0x2 PUSH1 0x6 SSTORE PUSH2 0xF3C PUSH2 0x2102 JUMP JUMPDEST PUSH1 0x7 SLOAD PUSH1 0x1 PUSH1 0x1 PUSH1 0xA0 SHL SUB SWAP1 DUP2 AND SWAP2 AND EQ PUSH2 0xF9E JUMPI PUSH1 0x40 DUP1 MLOAD PUSH3 0x461BCD PUSH1 0xE5 SHL DUP2 MSTORE PUSH1 0x20 PUSH1 0x4 DUP3 ADD DUP2 SWAP1 MSTORE PUSH1 0x24 DUP3 ADD MSTORE PUSH32 0x4F776E61626C653A2063616C6C6572206973206E6F7420746865206F776E6572 PUSH1 0x44 DUP3 ADD MSTORE SWAP1 MLOAD SWAP1 DUP2 SWAP1 SUB PUSH1 0x64 ADD SWAP1 REVERT JUMPDEST PUSH1 0x9 SLOAD PUSH1 0x60 SWAP1 PUSH8 0xFFFFFFFFFFFFFFFF DUP2 GT DUP1 ISZERO PUSH2 0xFBA JUMPI PUSH1 0x0 DUP1 REVERT JUMPDEST POP PUSH1 0x40 MLOAD SWAP1 DUP1 DUP3 MSTORE DUP1 PUSH1 0x20 MUL PUSH1 0x20 ADD DUP3 ADD PUSH1 0x40 MSTORE DUP1 ISZERO PUSH2 0xFE4 JUMPI DUP2 PUSH1 0x20 ADD PUSH1 0x20 DUP3 MUL DUP1 CALLDATASIZE DUP4 CALLDATACOPY ADD SWAP1 POP JUMPDEST POP SWAP1 POP PUSH1 0x0 JUMPDEST DUP2 MLOAD DUP2 LT ISZERO PUSH2 0x103E JUMPI PUSH2 0x101F ADDRESS PUSH1 0x9 DUP4 DUP2 SLOAD DUP2 LT PUSH2 0x1004 JUMPI INVALID JUMPDEST PUSH1 0x0 SWAP2 DUP3 MSTORE PUSH1 0x20 SWAP1 SWAP2 KECCAK256 ADD SLOAD PUSH1 0x1 PUSH1 0x1 PUSH1 0xA0 SHL SUB AND SWAP1 PUSH2 0x25F9 JUMP JUMPDEST DUP3 DUP3 DUP2 MLOAD DUP2 LT PUSH2 0x102B JUMPI INVALID JUMPDEST PUSH1 0x20 SWAP1 DUP2 MUL SWAP2 SWAP1 SWAP2 ADD ADD MSTORE PUSH1 0x1 ADD PUSH2 0xFEA JUMP JUMPDEST POP PUSH2 0x1053 PUSH1 0x1 PUSH1 0x1 PUSH1 0xA0 SHL SUB DUP5 AND CALLER DUP5 PUSH2 0x2735 JUMP JUMPDEST PUSH1 0x0 JUMPDEST DUP2 MLOAD DUP2 LT ISZERO PUSH2 0x10DA JUMPI DUP2 DUP2 DUP2 MLOAD DUP2 LT PUSH2 0x106B JUMPI INVALID JUMPDEST PUSH1 0x20 MUL PUSH1 0x20 ADD ADD MLOAD PUSH2 0x1084 ADDRESS PUSH1 0x9 DUP5 DUP2 SLOAD DUP2 LT PUSH2 0x1004 JUMPI INVALID JUMPDEST LT ISZERO PUSH2 0x10D2 JUMPI PUSH1 0x40 DUP1 MLOAD PUSH3 0x461BCD PUSH1 0xE5 SHL DUP2 MSTORE PUSH1 0x20 PUSH1 0x4 DUP3 ADD MSTORE PUSH1 0x18 PUSH1 0x24 DUP3 ADD MSTORE PUSH24 0x135BDBDB9A5CDDD85C0E881858D8D95CDCC819195B9A5959 PUSH1 0x42 SHL PUSH1 0x44 DUP3 ADD MSTORE SWAP1 MLOAD SWAP1 DUP2 SWAP1 SUB PUSH1 0x64 ADD SWAP1 REVERT JUMPDEST PUSH1 0x1 ADD PUSH2 0x1056 JUMP JUMPDEST POP PUSH2 0x3E8 PUSH2 0x10E7 ADDRESS PUSH2 0xE16 JUMP JUMPDEST LT ISZERO PUSH2 0x1135 JUMPI PUSH1 0x40 DUP1 MLOAD PUSH3 0x461BCD PUSH1 0xE5 SHL DUP2 MSTORE PUSH1 0x20 PUSH1 0x4 DUP3 ADD MSTORE PUSH1 0x18 PUSH1 0x24 DUP3 ADD MSTORE PUSH24 0x135BDBDB9A5CDDD85C0E881858D8D95CDCC819195B9A5959 PUSH1 0x42 SHL PUSH1 0x44 DUP3 ADD MSTORE SWAP1 MLOAD SWAP1 DUP2 SWAP1 SUB PUSH1 0x64 ADD SWAP1 REVERT JUMPDEST POP POP PUSH1 0x1 PUSH1 0x6 SSTORE POP JUMP JUMPDEST PUSH1 0x7 SLOAD PUSH1 0x1 PUSH1 0x1 PUSH1 0xA0 SHL SUB AND SWAP1 JUMP JUMPDEST PUSH1 0x4 DUP1 SLOAD PUSH1 0x40 DUP1 MLOAD PUSH1 0x20 PUSH1 0x1F PUSH1 0x2 PUSH1 0x0 NOT PUSH2 0x100 PUSH1 0x1 DUP9 AND ISZERO MUL ADD SWAP1 SWAP6 AND SWAP5 SWAP1 SWAP5 DIV SWAP4 DUP5 ADD DUP2 SWAP1 DIV DUP2 MUL DUP3 ADD DUP2 ADD SWAP1 SWAP3 MSTORE DUP3 DUP2 MSTORE PUSH1 0x60 SWAP4 SWAP1 SWAP3 SWAP1 SWAP2 DUP4 ADD DUP3 DUP3 DUP1 ISZERO PUSH2 0xA64 JUMPI DUP1 PUSH1 0x1F LT PUSH2 0xA39 JUMPI PUSH2 0x100 DUP1 DUP4 SLOAD DIV MUL DUP4 MSTORE SWAP2 PUSH1 0x20 ADD SWAP2 PUSH2 0xA64 JUMP JUMPDEST PUSH1 0x0 PUSH2 0xA82 PUSH2 0x11BC PUSH2 0x2102 JUMP JUMPDEST DUP5 PUSH2 0xB46 DUP6 PUSH1 0x40 MLOAD DUP1 PUSH1 0x60 ADD PUSH1 0x40 MSTORE DUP1 PUSH1 0x25 DUP2 MSTORE PUSH1 0x20 ADD PUSH2 0x3081 PUSH1 0x25 SWAP2 CODECOPY PUSH1 0x1 PUSH1 0x0 PUSH2 0x11E6 PUSH2 0x2102 JUMP JUMPDEST PUSH1 0x1 PUSH1 0x1 PUSH1 0xA0 SHL SUB SWAP1 DUP2 AND DUP3 MSTORE PUSH1 0x20 DUP1 DUP4 ADD SWAP4 SWAP1 SWAP4 MSTORE PUSH1 0x40 SWAP2 DUP3 ADD PUSH1 0x0 SWAP1 DUP2 KECCAK256 SWAP2 DUP14 AND DUP2 MSTORE SWAP3 MSTORE SWAP1 KECCAK256 SLOAD SWAP2 SWAP1 PUSH2 0x240C JUMP JUMPDEST PUSH1 0x0 PUSH2 0xA82 PUSH2 0x1224 PUSH2 0x2102 JUMP JUMPDEST DUP5 DUP5 PUSH2 0x22B1 JUMP JUMPDEST PUSH1 0x60 PUSH1 0x9 DUP1 SLOAD DUP1 PUSH1 0x20 MUL PUSH1 0x20 ADD PUSH1 0x40 MLOAD SWAP1 DUP2 ADD PUSH1 0x40 MSTORE DUP1 SWAP3 SWAP2 SWAP1 DUP2 DUP2 MSTORE PUSH1 0x20 ADD DUP3 DUP1 SLOAD DUP1 ISZERO PUSH2 0xA64 JUMPI PUSH1 0x20 MUL DUP3 ADD SWAP2 SWAP1 PUSH1 0x0 MSTORE PUSH1 0x20 PUSH1 0x0 KECCAK256 SWAP1 JUMPDEST DUP2 SLOAD PUSH1 0x1 PUSH1 0x1 PUSH1 0xA0 SHL SUB AND DUP2 MSTORE PUSH1 0x1 SWAP1 SWAP2 ADD SWAP1 PUSH1 0x20 ADD DUP1 DUP4 GT PUSH2 0x1265 JUMPI POP POP POP POP POP SWAP1 POP SWAP1 JUMP JUMPDEST PUSH1 0xB PUSH1 0x20 MSTORE PUSH1 0x0 SWAP1 DUP2 MSTORE PUSH1 0x40 SWAP1 KECCAK256 SLOAD PUSH1 0x1 PUSH1 0x1 PUSH1 0x80 SHL SUB DUP1 DUP3 AND SWAP2 PUSH1 0x1 PUSH1 0x80 SHL SWAP1 DIV AND DUP3 JUMP JUMPDEST PUSH1 0x14 DUP2 JUMP JUMPDEST PUSH2 0x3E8 DUP2 JUMP JUMPDEST PUSH1 0x8 SLOAD PUSH1 0x1 PUSH1 0x1 PUSH1 0xA0 SHL SUB AND DUP2 JUMP JUMPDEST PUSH1 0x0 PUSH1 0x2 PUSH1 0x6 SLOAD EQ ISZERO PUSH2 0x1314 JUMPI PUSH1 0x40 DUP1 MLOAD PUSH3 0x461BCD PUSH1 0xE5 SHL DUP2 MSTORE PUSH1 0x20 PUSH1 0x4 DUP3 ADD MSTORE PUSH1 0x1F PUSH1 0x24 DUP3 ADD MSTORE PUSH1 0x0 DUP1 MLOAD PUSH1 0x20 PUSH2 0x2EF4 DUP4 CODECOPY DUP2 MLOAD SWAP2 MSTORE PUSH1 0x44 DUP3 ADD MSTORE SWAP1 MLOAD SWAP1 DUP2 SWAP1 SUB PUSH1 0x64 ADD SWAP1 REVERT JUMPDEST PUSH1 0x2 PUSH1 0x6 SSTORE PUSH2 0x132B PUSH1 0x1 PUSH1 0x1 PUSH1 0xA0 SHL SUB DUP8 AND PUSH2 0x283C JUMP JUMPDEST PUSH2 0x1336 JUMPI PUSH1 0x0 PUSH2 0x1338 JUMP JUMPDEST DUP4 JUMPDEST CALLVALUE EQ PUSH2 0x138B JUMPI PUSH1 0x40 DUP1 MLOAD PUSH3 0x461BCD PUSH1 0xE5 SHL DUP2 MSTORE PUSH1 0x20 PUSH1 0x4 DUP3 ADD MSTORE PUSH1 0x1C PUSH1 0x24 DUP3 ADD MSTORE PUSH32 0x4D6F6F6E69737761703A2077726F6E672076616C756520757361676500000000 PUSH1 0x44 DUP3 ADD MSTORE SWAP1 MLOAD SWAP1 DUP2 SWAP1 SUB PUSH1 0x64 ADD SWAP1 REVERT JUMPDEST PUSH2 0x1393 PUSH2 0x2EB6 JUMP JUMPDEST PUSH1 0x40 MLOAD DUP1 PUSH1 0x40 ADD PUSH1 0x40 MSTORE DUP1 PUSH2 0x13D9 PUSH2 0x13B3 DUP11 PUSH1 0x1 PUSH1 0x1 PUSH1 0xA0 SHL SUB AND PUSH2 0x283C JUMP JUMPDEST PUSH2 0x13BE JUMPI PUSH1 0x0 PUSH2 0x13C0 JUMP JUMPDEST CALLVALUE JUMPDEST PUSH2 0x13D3 PUSH1 0x1 PUSH1 0x1 PUSH1 0xA0 SHL SUB DUP13 AND ADDRESS PUSH2 0x25F9 JUMP JUMPDEST SWAP1 PUSH2 0x279E JUMP JUMPDEST DUP2 MSTORE PUSH1 0x20 ADD PUSH2 0x13F1 PUSH1 0x1 PUSH1 0x1 PUSH1 0xA0 SHL SUB DUP10 AND ADDRESS PUSH2 0x25F9 JUMP JUMPDEST SWAP1 MSTORE DUP1 MLOAD PUSH1 0x1 PUSH1 0x1 PUSH1 0xA0 SHL SUB DUP10 AND PUSH1 0x0 SWAP1 DUP2 MSTORE PUSH1 0xC PUSH1 0x20 SWAP1 DUP2 MSTORE PUSH1 0x40 DUP1 DUP4 KECCAK256 DUP2 MLOAD DUP1 DUP4 ADD SWAP1 SWAP3 MSTORE SLOAD PUSH1 0x1 PUSH1 0x1 PUSH1 0xD8 SHL SUB DUP2 AND DUP3 MSTORE PUSH1 0x1 PUSH1 0xD8 SHL SWAP1 DIV PUSH5 0xFFFFFFFFFF AND SWAP2 DUP2 ADD SWAP2 SWAP1 SWAP2 MSTORE SWAP3 SWAP4 POP SWAP2 PUSH2 0x1453 SWAP2 PUSH2 0x144C SWAP2 SWAP1 PUSH2 0x2849 JUMP JUMPDEST DUP4 MLOAD PUSH2 0x28AA JUMP JUMPDEST PUSH1 0x20 DUP4 DUP2 ADD MLOAD PUSH1 0x1 PUSH1 0x1 PUSH1 0xA0 SHL SUB DUP11 AND PUSH1 0x0 SWAP1 DUP2 MSTORE PUSH1 0xD DUP4 MSTORE PUSH1 0x40 DUP1 DUP3 KECCAK256 DUP2 MLOAD DUP1 DUP4 ADD SWAP1 SWAP3 MSTORE SLOAD PUSH1 0x1 PUSH1 0x1 PUSH1 0xD8 SHL SUB DUP2 AND DUP3 MSTORE PUSH1 0x1 PUSH1 0xD8 SHL SWAP1 DIV PUSH5 0xFFFFFFFFFF AND SWAP4 DUP2 ADD SWAP4 SWAP1 SWAP4 MSTORE SWAP3 SWAP4 POP PUSH2 0x14B5 SWAP2 PUSH2 0x14AB SWAP2 PUSH2 0x2849 JUMP JUMPDEST DUP5 PUSH1 0x20 ADD MLOAD PUSH2 0x28C1 JUMP JUMPDEST SWAP1 POP PUSH2 0x14CA PUSH1 0x1 PUSH1 0x1 PUSH1 0xA0 SHL SUB DUP11 AND DUP9 PUSH2 0x28D0 JUMP JUMPDEST DUP3 MLOAD PUSH1 0x0 SWAP1 PUSH2 0x14E6 SWAP1 PUSH2 0x13D3 PUSH1 0x1 PUSH1 0x1 PUSH1 0xA0 SHL SUB DUP14 AND ADDRESS PUSH2 0x25F9 JUMP JUMPDEST SWAP1 POP PUSH2 0x14F5 DUP11 DUP11 DUP4 DUP7 DUP7 PUSH2 0x21F2 JUMP JUMPDEST SWAP5 POP PUSH1 0x0 DUP6 GT DUP1 ISZERO PUSH2 0x1507 JUMPI POP DUP7 DUP6 LT ISZERO JUMPDEST PUSH2 0x1558 JUMPI PUSH1 0x40 DUP1 MLOAD PUSH3 0x461BCD PUSH1 0xE5 SHL DUP2 MSTORE PUSH1 0x20 PUSH1 0x4 DUP3 ADD MSTORE PUSH1 0x1F PUSH1 0x24 DUP3 ADD MSTORE PUSH32 0x4D6F6F6E69737761703A2072657475726E206973206E6F7420656E6F75676800 PUSH1 0x44 DUP3 ADD MSTORE SWAP1 MLOAD SWAP1 DUP2 SWAP1 SUB PUSH1 0x64 ADD SWAP1 REVERT JUMPDEST PUSH2 0x156C PUSH1 0x1 PUSH1 0x1 PUSH1 0xA0 SHL SUB DUP11 AND CALLER DUP8 PUSH2 0x2735 JUMP JUMPDEST DUP4 MLOAD DUP4 EQ PUSH2 0x159F JUMPI PUSH2 0x159F PUSH2 0x1581 DUP5 DUP4 PUSH2 0x24A3 JUMP JUMPDEST PUSH1 0x1 PUSH1 0x1 PUSH1 0xA0 SHL SUB DUP13 AND PUSH1 0x0 SWAP1 DUP2 MSTORE PUSH1 0xC PUSH1 0x20 MSTORE PUSH1 0x40 SWAP1 KECCAK256 SWAP1 PUSH2 0x2997 JUMP JUMPDEST DUP4 PUSH1 0x20 ADD MLOAD DUP3 EQ PUSH2 0x15D5 JUMPI PUSH2 0x15D5 PUSH2 0x15B7 DUP4 DUP8 PUSH2 0x279E JUMP JUMPDEST PUSH1 0x1 PUSH1 0x1 PUSH1 0xA0 SHL SUB DUP12 AND PUSH1 0x0 SWAP1 DUP2 MSTORE PUSH1 0xD PUSH1 0x20 MSTORE PUSH1 0x40 SWAP1 KECCAK256 SWAP1 PUSH2 0x2997 JUMP JUMPDEST DUP4 MLOAD PUSH1 0x1 PUSH1 0x1 PUSH1 0xA0 SHL SUB DUP12 AND PUSH1 0x0 SWAP1 DUP2 MSTORE PUSH1 0xD PUSH1 0x20 MSTORE PUSH1 0x40 SWAP1 KECCAK256 PUSH2 0x15F8 SWAP2 PUSH2 0x29C3 JUMP JUMPDEST PUSH1 0x20 DUP1 DUP6 ADD MLOAD PUSH1 0x1 PUSH1 0x1 PUSH1 0xA0 SHL SUB DUP12 AND PUSH1 0x0 SWAP1 DUP2 MSTORE PUSH1 0xC SWAP1 SWAP3 MSTORE PUSH1 0x40 SWAP1 SWAP2 KECCAK256 PUSH2 0x1620 SWAP2 PUSH2 0x29C3 JUMP JUMPDEST PUSH1 0x1 PUSH1 0x1 PUSH1 0xA0 SHL SUB DUP7 AND ISZERO PUSH2 0x16DB JUMPI DUP4 MLOAD PUSH15 0xC097CE7BC90715B34B9F1000000000 SWAP1 PUSH2 0x165A SWAP1 PUSH2 0xC88 PUSH2 0x1653 DUP3 DUP7 PUSH2 0x24A3 JUMP JUMPDEST DUP5 SWAP1 PUSH2 0x269A JUMP JUMPDEST PUSH1 0x20 DUP7 ADD MLOAD SWAP1 SWAP2 POP PUSH2 0x1673 SWAP1 PUSH2 0xC88 PUSH2 0x1653 DUP3 DUP11 PUSH2 0x279E JUMP JUMPDEST SWAP1 POP PUSH15 0xC097CE7BC90715B34B9F1000000000 DUP2 GT ISZERO PUSH2 0x16D9 JUMPI PUSH1 0x0 PUSH2 0x16C5 PUSH1 0x14 PUSH2 0xC88 PUSH8 0xDE0B6B3A7640000 PUSH2 0xC88 PUSH2 0x16AA PUSH2 0xA8C JUMP JUMPDEST PUSH2 0x16BF PUSH8 0xDE0B6B3A7640000 PUSH2 0x13D3 DUP11 PUSH2 0x29FE JUMP JUMPDEST SWAP1 PUSH2 0x269A JUMP JUMPDEST SWAP1 POP DUP1 ISZERO PUSH2 0x16D7 JUMPI PUSH2 0x16D7 DUP9 DUP3 PUSH2 0x2A58 JUMP JUMPDEST POP JUMPDEST POP JUMPDEST DUP9 PUSH1 0x1 PUSH1 0x1 PUSH1 0xA0 SHL SUB AND DUP11 PUSH1 0x1 PUSH1 0x1 PUSH1 0xA0 SHL SUB AND CALLER PUSH1 0x1 PUSH1 0x1 PUSH1 0xA0 SHL SUB AND PUSH32 0x86C49B5D8577DA08444947F1427D23EF191CFABF2C0788F93324D79E926A9302 DUP5 DUP10 DUP10 PUSH1 0x0 ADD MLOAD DUP11 PUSH1 0x20 ADD MLOAD PUSH2 0x172E PUSH2 0xA8C JUMP JUMPDEST PUSH1 0x40 DUP1 MLOAD SWAP6 DUP7 MSTORE PUSH1 0x20 DUP7 ADD SWAP5 SWAP1 SWAP5 MSTORE DUP5 DUP5 ADD SWAP3 SWAP1 SWAP3 MSTORE PUSH1 0x60 DUP5 ADD MSTORE PUSH1 0x80 DUP4 ADD MSTORE PUSH1 0x1 PUSH1 0x1 PUSH1 0xA0 SHL SUB DUP13 AND PUSH1 0xA0 DUP4 ADD MSTORE MLOAD SWAP1 DUP2 SWAP1 SUB PUSH1 0xC0 ADD SWAP1 LOG4 PUSH1 0x1 PUSH1 0x1 PUSH1 0xA0 SHL SUB SWAP1 SWAP10 AND PUSH1 0x0 SWAP1 DUP2 MSTORE PUSH1 0xB PUSH1 0x20 MSTORE PUSH1 0x40 SWAP1 KECCAK256 DUP1 SLOAD PUSH1 0x1 PUSH1 0x80 SHL PUSH1 0x1 PUSH1 0x1 PUSH1 0x80 SHL SUB DUP1 DUP4 AND SWAP1 SWAP13 ADD DUP13 AND PUSH16 0xFFFFFFFFFFFFFFFFFFFFFFFFFFFFFFFF NOT SWAP1 SWAP3 AND SWAP2 SWAP1 SWAP2 OR DUP2 DUP2 DIV DUP13 AND DUP8 ADD DUP13 AND SWAP1 SWAP2 MUL SWAP11 AND SWAP10 SWAP1 SWAP10 OR SWAP1 SWAP9 SSTORE POP POP PUSH1 0x1 PUSH1 0x6 SSTORE SWAP6 SWAP5 POP POP POP POP POP JUMP JUMPDEST PUSH8 0xDE0B6B3A7640000 DUP2 JUMP JUMPDEST PUSH1 0x0 DUP1 PUSH2 0x17F7 PUSH1 0x1 PUSH1 0x1 PUSH1 0xA0 SHL SUB DUP5 AND ADDRESS PUSH2 0x25F9 JUMP JUMPDEST PUSH1 0x1 PUSH1 0x1 PUSH1 0xA0 SHL SUB DUP5 AND PUSH1 0x0 SWAP1 DUP2 MSTORE PUSH1 0xC PUSH1 0x20 SWAP1 DUP2 MSTORE PUSH1 0x40 SWAP2 DUP3 SWAP1 KECCAK256 DUP3 MLOAD DUP1 DUP5 ADD SWAP1 SWAP4 MSTORE SLOAD PUSH1 0x1 PUSH1 0x1 PUSH1 0xD8 SHL SUB DUP2 AND DUP4 MSTORE PUSH1 0x1 PUSH1 0xD8 SHL SWAP1 DIV PUSH5 0xFFFFFFFFFF AND SWAP1 DUP3 ADD MSTORE SWAP1 SWAP2 POP PUSH2 0x1851 SWAP1 PUSH2 0x184B SWAP1 DUP4 PUSH2 0x2849 JUMP JUMPDEST DUP3 PUSH2 0x28AA JUMP JUMPDEST SWAP4 SWAP3 POP POP POP JUMP JUMPDEST PUSH1 0x1 PUSH1 0x1 PUSH1 0xA0 SHL SUB SWAP2 DUP3 AND PUSH1 0x0 SWAP1 DUP2 MSTORE PUSH1 0x1 PUSH1 0x20 SWAP1 DUP2 MSTORE PUSH1 0x40 DUP1 DUP4 KECCAK256 SWAP4 SWAP1 SWAP5 AND DUP3 MSTORE SWAP2 SWAP1 SWAP2 MSTORE KECCAK256 SLOAD SWAP1 JUMP JUMPDEST PUSH1 0x8 SLOAD PUSH1 0x40 DUP1 MLOAD PUSH4 0xDDCA3F43 PUSH1 0xE0 SHL DUP2 MSTORE SWAP1 MLOAD PUSH1 0x0 SWAP3 PUSH1 0x1 PUSH1 0x1 PUSH1 0xA0 SHL SUB AND SWAP2 PUSH4 0xDDCA3F43 SWAP2 PUSH1 0x4 DUP1 DUP4 ADD SWAP3 PUSH1 0x20 SWAP3 SWAP2 SWAP1 DUP3 SWAP1 SUB ADD DUP2 DUP7 DUP1 EXTCODESIZE ISZERO DUP1 ISZERO PUSH2 0x18C8 JUMPI PUSH1 0x0 DUP1 REVERT JUMPDEST POP GAS STATICCALL ISZERO DUP1 ISZERO PUSH2 0x18DC JUMPI RETURNDATASIZE PUSH1 0x0 DUP1 RETURNDATACOPY RETURNDATASIZE PUSH1 0x0 REVERT JUMPDEST POP POP POP POP PUSH1 0x40 MLOAD RETURNDATASIZE PUSH1 0x20 DUP2 LT ISZERO PUSH2 0x18F2 JUMPI PUSH1 0x0 DUP1 REVERT JUMPDEST POP MLOAD SWAP1 POP SWAP1 JUMP JUMPDEST PUSH1 0x0 DUP1 PUSH2 0x190F PUSH1 0x1 PUSH1 0x1 PUSH1 0xA0 SHL SUB DUP5 AND ADDRESS PUSH2 0x25F9 JUMP JUMPDEST PUSH1 0x1 PUSH1 0x1 PUSH1 0xA0 SHL SUB DUP5 AND PUSH1 0x0 SWAP1 DUP2 MSTORE PUSH1 0xD PUSH1 0x20 SWAP1 DUP2 MSTORE PUSH1 0x40 SWAP2 DUP3 SWAP1 KECCAK256 DUP3 MLOAD DUP1 DUP5 ADD SWAP1 SWAP4 MSTORE SLOAD PUSH1 0x1 PUSH1 0x1 PUSH1 0xD8 SHL SUB DUP2 AND DUP4 MSTORE PUSH1 0x1 PUSH1 0xD8 SHL SWAP1 DIV PUSH5 0xFFFFFFFFFF AND SWAP1 DUP3 ADD MSTORE SWAP1 SWAP2 POP PUSH2 0x1851 SWAP1 PUSH2 0x1963 SWAP1 DUP4 PUSH2 0x2849 JUMP JUMPDEST DUP3 PUSH2 0x28C1 JUMP JUMPDEST PUSH1 0x0 PUSH1 0x2 PUSH1 0x6 SLOAD EQ ISZERO PUSH2 0x19B1 JUMPI PUSH1 0x40 DUP1 MLOAD PUSH3 0x461BCD PUSH1 0xE5 SHL DUP2 MSTORE PUSH1 0x20 PUSH1 0x4 DUP3 ADD MSTORE PUSH1 0x1F PUSH1 0x24 DUP3 ADD MSTORE PUSH1 0x0 DUP1 MLOAD PUSH1 0x20 PUSH2 0x2EF4 DUP4 CODECOPY DUP2 MLOAD SWAP2 MSTORE PUSH1 0x44 DUP3 ADD MSTORE SWAP1 MLOAD SWAP1 DUP2 SWAP1 SUB PUSH1 0x64 ADD SWAP1 REVERT JUMPDEST PUSH1 0x2 PUSH1 0x6 SSTORE PUSH1 0x9 DUP1 SLOAD PUSH1 0x40 DUP1 MLOAD PUSH1 0x20 DUP1 DUP5 MUL DUP3 ADD DUP2 ADD SWAP1 SWAP3 MSTORE DUP3 DUP2 MSTORE PUSH1 0x60 SWAP4 SWAP1 SWAP3 SWAP1 SWAP2 DUP4 ADD DUP3 DUP3 DUP1 ISZERO PUSH2 0x1A0D JUMPI PUSH1 0x20 MUL DUP3 ADD SWAP2 SWAP1 PUSH1 0x0 MSTORE PUSH1 0x20 PUSH1 0x0 KECCAK256 SWAP1 JUMPDEST DUP2 SLOAD PUSH1 0x1 PUSH1 0x1 PUSH1 0xA0 SHL SUB AND DUP2 MSTORE PUSH1 0x1 SWAP1 SWAP2 ADD SWAP1 PUSH1 0x20 ADD DUP1 DUP4 GT PUSH2 0x19EF JUMPI JUMPDEST POP POP POP POP POP SWAP1 POP DUP1 MLOAD DUP7 DUP7 SWAP1 POP EQ PUSH2 0x1A6C JUMPI PUSH1 0x40 DUP1 MLOAD PUSH3 0x461BCD PUSH1 0xE5 SHL DUP2 MSTORE PUSH1 0x20 PUSH1 0x4 DUP3 ADD MSTORE PUSH1 0x1F PUSH1 0x24 DUP3 ADD MSTORE PUSH32 0x4D6F6F6E69737761703A2077726F6E6720616D6F756E7473206C656E67746800 PUSH1 0x44 DUP3 ADD MSTORE SWAP1 MLOAD SWAP1 DUP2 SWAP1 SUB PUSH1 0x64 ADD SWAP1 REVERT JUMPDEST PUSH2 0x1A92 DUP2 PUSH1 0x0 DUP2 MLOAD DUP2 LT PUSH2 0x1A7C JUMPI INVALID JUMPDEST PUSH1 0x20 MUL PUSH1 0x20 ADD ADD MLOAD PUSH1 0x1 PUSH1 0x1 PUSH1 0xA0 SHL SUB AND PUSH2 0x283C JUMP JUMPDEST PUSH2 0x1ACB JUMPI PUSH2 0x1AA6 DUP2 PUSH1 0x1 DUP2 MLOAD DUP2 LT PUSH2 0x1A7C JUMPI INVALID JUMPDEST PUSH2 0x1AB1 JUMPI PUSH1 0x0 PUSH2 0x1AC6 JUMP JUMPDEST DUP6 DUP6 PUSH1 0x1 DUP2 DUP2 LT PUSH2 0x1ABE JUMPI INVALID JUMPDEST SWAP1 POP PUSH1 0x20 MUL ADD CALLDATALOAD JUMPDEST PUSH2 0x1AE0 JUMP JUMPDEST DUP6 DUP6 PUSH1 0x0 DUP2 DUP2 LT PUSH2 0x1AD8 JUMPI INVALID JUMPDEST SWAP1 POP PUSH1 0x20 MUL ADD CALLDATALOAD JUMPDEST CALLVALUE EQ PUSH2 0x1B33 JUMPI PUSH1 0x40 DUP1 MLOAD PUSH3 0x461BCD PUSH1 0xE5 SHL DUP2 MSTORE PUSH1 0x20 PUSH1 0x4 DUP3 ADD MSTORE PUSH1 0x1C PUSH1 0x24 DUP3 ADD MSTORE PUSH32 0x4D6F6F6E69737761703A2077726F6E672076616C756520757361676500000000 PUSH1 0x44 DUP3 ADD MSTORE SWAP1 MLOAD SWAP1 DUP2 SWAP1 SUB PUSH1 0x64 ADD SWAP1 REVERT JUMPDEST PUSH1 0x60 DUP6 PUSH8 0xFFFFFFFFFFFFFFFF DUP2 GT DUP1 ISZERO PUSH2 0x1B4C JUMPI PUSH1 0x0 DUP1 REVERT JUMPDEST POP PUSH1 0x40 MLOAD SWAP1 DUP1 DUP3 MSTORE DUP1 PUSH1 0x20 MUL PUSH1 0x20 ADD DUP3 ADD PUSH1 0x40 MSTORE DUP1 ISZERO PUSH2 0x1B76 JUMPI DUP2 PUSH1 0x20 ADD PUSH1 0x20 DUP3 MUL DUP1 CALLDATASIZE DUP4 CALLDATACOPY ADD SWAP1 POP JUMPDEST POP SWAP1 POP PUSH1 0x0 JUMPDEST DUP2 MLOAD DUP2 LT ISZERO PUSH2 0x1BF2 JUMPI PUSH2 0x1BD3 PUSH2 0x1B97 DUP5 DUP4 DUP2 MLOAD DUP2 LT PUSH2 0x1A7C JUMPI INVALID JUMPDEST PUSH2 0x1BA2 JUMPI PUSH1 0x0 PUSH2 0x1BA4 JUMP JUMPDEST CALLVALUE JUMPDEST PUSH2 0x13D3 ADDRESS DUP7 DUP6 DUP2 MLOAD DUP2 LT PUSH2 0x1BB4 JUMPI INVALID JUMPDEST PUSH1 0x20 MUL PUSH1 0x20 ADD ADD MLOAD PUSH1 0x1 PUSH1 0x1 PUSH1 0xA0 SHL SUB AND PUSH2 0x25F9 SWAP1 SWAP2 SWAP1 PUSH4 0xFFFFFFFF AND JUMP JUMPDEST DUP3 DUP3 DUP2 MLOAD DUP2 LT PUSH2 0x1BDF JUMPI INVALID JUMPDEST PUSH1 0x20 SWAP1 DUP2 MUL SWAP2 SWAP1 SWAP2 ADD ADD MSTORE PUSH1 0x1 ADD PUSH2 0x1B7C JUMP JUMPDEST POP PUSH1 0x0 PUSH2 0x1BFD PUSH2 0xA8C JUMP JUMPDEST SWAP1 POP DUP1 PUSH2 0x1C56 JUMPI PUSH2 0x1C11 PUSH2 0x3E8 PUSH1 0x63 PUSH2 0x269A JUMP JUMPDEST SWAP4 POP PUSH2 0x1C1F ADDRESS PUSH2 0x3E8 PUSH2 0x2A58 JUMP JUMPDEST PUSH1 0x0 JUMPDEST DUP8 DUP2 LT ISZERO PUSH2 0x1C50 JUMPI PUSH2 0x1C46 DUP6 DUP11 DUP11 DUP5 DUP2 DUP2 LT PUSH2 0x1C3A JUMPI INVALID JUMPDEST SWAP1 POP PUSH1 0x20 MUL ADD CALLDATALOAD PUSH2 0x28AA JUMP JUMPDEST SWAP5 POP PUSH1 0x1 ADD PUSH2 0x1C22 JUMP JUMPDEST POP PUSH2 0x1CB7 JUMP JUMPDEST PUSH1 0x0 NOT SWAP4 POP PUSH1 0x0 JUMPDEST DUP8 DUP2 LT ISZERO PUSH2 0x1CB5 JUMPI PUSH2 0x1CAB DUP6 PUSH2 0x1CA6 DUP6 DUP5 DUP2 MLOAD DUP2 LT PUSH2 0x1C79 JUMPI INVALID JUMPDEST PUSH1 0x20 MUL PUSH1 0x20 ADD ADD MLOAD PUSH2 0xC88 DUP14 DUP14 DUP8 DUP2 DUP2 LT PUSH2 0x1C90 JUMPI INVALID JUMPDEST SWAP1 POP PUSH1 0x20 MUL ADD CALLDATALOAD DUP8 PUSH2 0x269A SWAP1 SWAP2 SWAP1 PUSH4 0xFFFFFFFF AND JUMP JUMPDEST PUSH2 0x28C1 JUMP JUMPDEST SWAP5 POP PUSH1 0x1 ADD PUSH2 0x1C5E JUMP JUMPDEST POP JUMPDEST DUP4 PUSH1 0x0 JUMPDEST DUP9 DUP2 LT ISZERO PUSH2 0x1E86 JUMPI PUSH1 0x0 DUP11 DUP11 DUP4 DUP2 DUP2 LT PUSH2 0x1CD1 JUMPI INVALID JUMPDEST SWAP1 POP PUSH1 0x20 MUL ADD CALLDATALOAD GT PUSH2 0x1D2A JUMPI PUSH1 0x40 DUP1 MLOAD PUSH3 0x461BCD PUSH1 0xE5 SHL DUP2 MSTORE PUSH1 0x20 PUSH1 0x4 DUP3 ADD MSTORE PUSH1 0x19 PUSH1 0x24 DUP3 ADD MSTORE PUSH32 0x4D6F6F6E69737761703A20616D6F756E74206973207A65726F00000000000000 PUSH1 0x44 DUP3 ADD MSTORE SWAP1 MLOAD SWAP1 DUP2 SWAP1 SUB PUSH1 0x64 ADD SWAP1 REVERT JUMPDEST PUSH1 0x0 DUP4 ISZERO PUSH2 0x1D6E JUMPI PUSH2 0x1D69 DUP5 PUSH2 0xC88 PUSH1 0x1 DUP8 SUB PUSH2 0x1D63 DUP8 DUP11 DUP9 DUP2 MLOAD DUP2 LT PUSH2 0x1D4D JUMPI INVALID JUMPDEST PUSH1 0x20 MUL PUSH1 0x20 ADD ADD MLOAD PUSH2 0x269A SWAP1 SWAP2 SWAP1 PUSH4 0xFFFFFFFF AND JUMP JUMPDEST SWAP1 PUSH2 0x24A3 JUMP JUMPDEST PUSH2 0x1D82 JUMP JUMPDEST DUP11 DUP11 DUP4 DUP2 DUP2 LT PUSH2 0x1D7A JUMPI INVALID JUMPDEST SWAP1 POP PUSH1 0x20 MUL ADD CALLDATALOAD JUMPDEST SWAP1 POP DUP9 DUP9 DUP4 DUP2 DUP2 LT PUSH2 0x1D90 JUMPI INVALID JUMPDEST SWAP1 POP PUSH1 0x20 MUL ADD CALLDATALOAD DUP2 LT ISZERO PUSH2 0x1DEB JUMPI PUSH1 0x40 DUP1 MLOAD PUSH3 0x461BCD PUSH1 0xE5 SHL DUP2 MSTORE PUSH1 0x20 PUSH1 0x4 DUP3 ADD DUP2 SWAP1 MSTORE PUSH1 0x24 DUP3 ADD MSTORE PUSH32 0x4D6F6F6E69737761703A206D696E416D6F756E74206E6F742072656163686564 PUSH1 0x44 DUP3 ADD MSTORE SWAP1 MLOAD SWAP1 DUP2 SWAP1 SUB PUSH1 0x64 ADD SWAP1 REVERT JUMPDEST PUSH2 0x1E1A DUP2 DUP8 DUP5 DUP2 MLOAD DUP2 LT PUSH2 0x1DFB JUMPI INVALID JUMPDEST PUSH1 0x20 MUL PUSH1 0x20 ADD ADD MLOAD PUSH1 0x1 PUSH1 0x1 PUSH1 0xA0 SHL SUB AND PUSH2 0x28D0 SWAP1 SWAP2 SWAP1 PUSH4 0xFFFFFFFF AND JUMP JUMPDEST DUP4 ISZERO PUSH2 0x1E7D JUMPI PUSH1 0x0 PUSH2 0x1E49 DUP7 DUP5 DUP2 MLOAD DUP2 LT PUSH2 0x1E31 JUMPI INVALID JUMPDEST PUSH1 0x20 MUL PUSH1 0x20 ADD ADD MLOAD PUSH2 0x13D3 ADDRESS DUP11 DUP8 DUP2 MLOAD DUP2 LT PUSH2 0x1BB4 JUMPI INVALID JUMPDEST SWAP1 POP PUSH2 0x1E79 DUP9 PUSH2 0x1CA6 DUP9 DUP7 DUP2 MLOAD DUP2 LT PUSH2 0x1E5E JUMPI INVALID JUMPDEST PUSH1 0x20 MUL PUSH1 0x20 ADD ADD MLOAD PUSH2 0xC88 DUP6 DUP11 PUSH2 0x269A SWAP1 SWAP2 SWAP1 PUSH4 0xFFFFFFFF AND JUMP JUMPDEST SWAP8 POP POP JUMPDEST POP PUSH1 0x1 ADD PUSH2 0x1CBB JUMP JUMPDEST POP DUP2 ISZERO PUSH2 0x1F50 JUMPI PUSH1 0x0 JUMPDEST DUP9 DUP2 LT ISZERO PUSH2 0x1F4E JUMPI PUSH2 0x1F0B DUP5 DUP3 DUP2 MLOAD DUP2 LT PUSH2 0x1EA7 JUMPI INVALID JUMPDEST PUSH1 0x20 MUL PUSH1 0x20 ADD ADD MLOAD PUSH2 0x1EC2 DUP9 DUP7 PUSH2 0x24A3 SWAP1 SWAP2 SWAP1 PUSH4 0xFFFFFFFF AND JUMP JUMPDEST DUP6 PUSH1 0xD PUSH1 0x0 DUP11 DUP8 DUP2 MLOAD DUP2 LT PUSH2 0x1ED3 JUMPI INVALID JUMPDEST PUSH1 0x20 MUL PUSH1 0x20 ADD ADD MLOAD PUSH1 0x1 PUSH1 0x1 PUSH1 0xA0 SHL SUB AND PUSH1 0x1 PUSH1 0x1 PUSH1 0xA0 SHL SUB AND DUP2 MSTORE PUSH1 0x20 ADD SWAP1 DUP2 MSTORE PUSH1 0x20 ADD PUSH1 0x0 KECCAK256 PUSH2 0x27E0 SWAP1 SWAP4 SWAP3 SWAP2 SWAP1 PUSH4 0xFFFFFFFF AND JUMP JUMPDEST PUSH2 0x1F46 DUP5 DUP3 DUP2 MLOAD DUP2 LT PUSH2 0x1F1A JUMPI INVALID JUMPDEST PUSH1 0x20 MUL PUSH1 0x20 ADD ADD MLOAD PUSH2 0x1F35 DUP9 DUP7 PUSH2 0x24A3 SWAP1 SWAP2 SWAP1 PUSH4 0xFFFFFFFF AND JUMP JUMPDEST DUP6 PUSH1 0xC PUSH1 0x0 DUP11 DUP8 DUP2 MLOAD DUP2 LT PUSH2 0x1ED3 JUMPI INVALID JUMPDEST PUSH1 0x1 ADD PUSH2 0x1E90 JUMP JUMPDEST POP JUMPDEST PUSH1 0x0 DUP6 GT PUSH2 0x1FA5 JUMPI PUSH1 0x40 DUP1 MLOAD PUSH3 0x461BCD PUSH1 0xE5 SHL DUP2 MSTORE PUSH1 0x20 PUSH1 0x4 DUP3 ADD MSTORE PUSH1 0x1F PUSH1 0x24 DUP3 ADD MSTORE PUSH32 0x4D6F6F6E69737761703A20726573756C74206973206E6F7420656E6F75676800 PUSH1 0x44 DUP3 ADD MSTORE SWAP1 MLOAD SWAP1 DUP2 SWAP1 SUB PUSH1 0x64 ADD SWAP1 REVERT JUMPDEST PUSH2 0x1FAF CALLER DUP7 PUSH2 0x2A58 JUMP JUMPDEST PUSH1 0x40 DUP1 MLOAD DUP7 DUP2 MSTORE SWAP1 MLOAD CALLER SWAP2 PUSH32 0x2DA466A7B24304F47E87FA2E1E5A81B9831CE54FEC19055CE277CA2F39BA42C4 SWAP2 SWAP1 DUP2 SWAP1 SUB PUSH1 0x20 ADD SWAP1 LOG2 POP POP PUSH1 0x1 PUSH1 0x6 SSTORE POP SWAP1 SWAP6 SWAP5 POP POP POP POP POP JUMP JUMPDEST PUSH2 0x1FFF PUSH2 0x2102 JUMP JUMPDEST PUSH1 0x7 SLOAD PUSH1 0x1 PUSH1 0x1 PUSH1 0xA0 SHL SUB SWAP1 DUP2 AND SWAP2 AND EQ PUSH2 0x2061 JUMPI PUSH1 0x40 DUP1 MLOAD PUSH3 0x461BCD PUSH1 0xE5 SHL DUP2 MSTORE PUSH1 0x20 PUSH1 0x4 DUP3 ADD DUP2 SWAP1 MSTORE PUSH1 0x24 DUP3 ADD MSTORE PUSH32 0x4F776E61626C653A2063616C6C6572206973206E6F7420746865206F776E6572 PUSH1 0x44 DUP3 ADD MSTORE SWAP1 MLOAD SWAP1 DUP2 SWAP1 SUB PUSH1 0x64 ADD SWAP1 REVERT JUMPDEST PUSH1 0x1 PUSH1 0x1 PUSH1 0xA0 SHL SUB DUP2 AND PUSH2 0x20A6 JUMPI PUSH1 0x40 MLOAD PUSH3 0x461BCD PUSH1 0xE5 SHL DUP2 MSTORE PUSH1 0x4 ADD DUP1 DUP1 PUSH1 0x20 ADD DUP3 DUP2 SUB DUP3 MSTORE PUSH1 0x26 DUP2 MSTORE PUSH1 0x20 ADD DUP1 PUSH2 0x2F36 PUSH1 0x26 SWAP2 CODECOPY PUSH1 0x40 ADD SWAP2 POP POP PUSH1 0x40 MLOAD DUP1 SWAP2 SUB SWAP1 REVERT JUMPDEST PUSH1 0x7 SLOAD PUSH1 0x40 MLOAD PUSH1 0x1 PUSH1 0x1 PUSH1 0xA0 SHL SUB DUP1 DUP5 AND SWAP3 AND SWAP1 PUSH32 0x8BE0079C531659141344CD1FD0A4F28419497F9722A3DAAFE3B4186F6B6457E0 SWAP1 PUSH1 0x0 SWAP1 LOG3 PUSH1 0x7 DUP1 SLOAD PUSH1 0x1 PUSH1 0x1 PUSH1 0xA0 SHL SUB NOT AND PUSH1 0x1 PUSH1 0x1 PUSH1 0xA0 SHL SUB SWAP3 SWAP1 SWAP3 AND SWAP2 SWAP1 SWAP2 OR SWAP1 SSTORE JUMP JUMPDEST CALLER SWAP1 JUMP JUMPDEST PUSH1 0x1 PUSH1 0x1 PUSH1 0xA0 SHL SUB DUP4 AND PUSH2 0x214B JUMPI PUSH1 0x40 MLOAD PUSH3 0x461BCD PUSH1 0xE5 SHL DUP2 MSTORE PUSH1 0x4 ADD DUP1 DUP1 PUSH1 0x20 ADD DUP3 DUP2 SUB DUP3 MSTORE PUSH1 0x24 DUP2 MSTORE PUSH1 0x20 ADD DUP1 PUSH2 0x3033 PUSH1 0x24 SWAP2 CODECOPY PUSH1 0x40 ADD SWAP2 POP POP PUSH1 0x40 MLOAD DUP1 SWAP2 SUB SWAP1 REVERT JUMPDEST PUSH1 0x1 PUSH1 0x1 PUSH1 0xA0 SHL SUB DUP3 AND PUSH2 0x2190 JUMPI PUSH1 0x40 MLOAD PUSH3 0x461BCD PUSH1 0xE5 SHL DUP2 MSTORE PUSH1 0x4 ADD DUP1 DUP1 PUSH1 0x20 ADD DUP3 DUP2 SUB DUP3 MSTORE PUSH1 0x22 DUP2 MSTORE PUSH1 0x20 ADD DUP1 PUSH2 0x2F5C PUSH1 0x22 SWAP2 CODECOPY PUSH1 0x40 ADD SWAP2 POP POP PUSH1 0x40 MLOAD DUP1 SWAP2 SUB SWAP1 REVERT JUMPDEST PUSH1 0x1 PUSH1 0x1 PUSH1 0xA0 SHL SUB DUP1 DUP5 AND PUSH1 0x0 DUP2 DUP2 MSTORE PUSH1 0x1 PUSH1 0x20 SWAP1 DUP2 MSTORE PUSH1 0x40 DUP1 DUP4 KECCAK256 SWAP5 DUP8 AND DUP1 DUP5 MSTORE SWAP5 DUP3 MSTORE SWAP2 DUP3 SWAP1 KECCAK256 DUP6 SWAP1 SSTORE DUP2 MLOAD DUP6 DUP2 MSTORE SWAP2 MLOAD PUSH32 0x8C5BE1E5EBEC7D5BD14F71427D1E84F3DD0314C0F7B2291E5B200AC8C7C3B925 SWAP3 DUP2 SWAP1 SUB SWAP1 SWAP2 ADD SWAP1 LOG3 POP POP POP JUMP JUMPDEST PUSH1 0x1 PUSH1 0x1 PUSH1 0xA0 SHL SUB DUP6 AND PUSH1 0x0 SWAP1 DUP2 MSTORE PUSH1 0xA PUSH1 0x20 MSTORE PUSH1 0x40 DUP2 KECCAK256 SLOAD PUSH1 0xFF AND DUP1 ISZERO PUSH2 0x2232 JUMPI POP PUSH1 0x1 PUSH1 0x1 PUSH1 0xA0 SHL SUB DUP6 AND PUSH1 0x0 SWAP1 DUP2 MSTORE PUSH1 0xA PUSH1 0x20 MSTORE PUSH1 0x40 SWAP1 KECCAK256 SLOAD PUSH1 0xFF AND JUMPDEST DUP1 ISZERO PUSH2 0x2250 JUMPI POP DUP5 PUSH1 0x1 PUSH1 0x1 PUSH1 0xA0 SHL SUB AND DUP7 PUSH1 0x1 PUSH1 0x1 PUSH1 0xA0 SHL SUB AND EQ ISZERO JUMPDEST DUP1 ISZERO PUSH2 0x225C JUMPI POP PUSH1 0x0 DUP5 GT JUMPDEST ISZERO PUSH2 0x22A8 JUMPI PUSH1 0x0 PUSH2 0x228B PUSH2 0x2284 PUSH8 0xDE0B6B3A7640000 PUSH2 0xC88 PUSH2 0x227D PUSH2 0x1883 JUMP JUMPDEST DUP10 SWAP1 PUSH2 0x269A JUMP JUMPDEST DUP7 SWAP1 PUSH2 0x279E JUMP JUMPDEST SWAP1 POP PUSH2 0x22A4 PUSH2 0x229A DUP6 DUP4 PUSH2 0x24A3 JUMP JUMPDEST PUSH2 0xC88 DUP4 DUP7 PUSH2 0x269A JUMP JUMPDEST SWAP2 POP POP JUMPDEST SWAP6 SWAP5 POP POP POP POP POP JUMP JUMPDEST PUSH1 0x1 PUSH1 0x1 PUSH1 0xA0 SHL SUB DUP4 AND PUSH2 0x22F6 JUMPI PUSH1 0x40 MLOAD PUSH3 0x461BCD PUSH1 0xE5 SHL DUP2 MSTORE PUSH1 0x4 ADD DUP1 DUP1 PUSH1 0x20 ADD DUP3 DUP2 SUB DUP3 MSTORE PUSH1 0x25 DUP2 MSTORE PUSH1 0x20 ADD DUP1 PUSH2 0x300E PUSH1 0x25 SWAP2 CODECOPY PUSH1 0x40 ADD SWAP2 POP POP PUSH1 0x40 MLOAD DUP1 SWAP2 SUB SWAP1 REVERT JUMPDEST PUSH1 0x1 PUSH1 0x1 PUSH1 0xA0 SHL SUB DUP3 AND PUSH2 0x233B JUMPI PUSH1 0x40 MLOAD PUSH3 0x461BCD PUSH1 0xE5 SHL DUP2 MSTORE PUSH1 0x4 ADD DUP1 DUP1 PUSH1 0x20 ADD DUP3 DUP2 SUB DUP3 MSTORE PUSH1 0x23 DUP2 MSTORE PUSH1 0x20 ADD DUP1 PUSH2 0x2ED1 PUSH1 0x23 SWAP2 CODECOPY PUSH1 0x40 ADD SWAP2 POP POP PUSH1 0x40 MLOAD DUP1 SWAP2 SUB SWAP1 REVERT JUMPDEST PUSH2 0x2346 DUP4 DUP4 DUP4 PUSH2 0x2799 JUMP JUMPDEST PUSH2 0x2383 DUP2 PUSH1 0x40 MLOAD DUP1 PUSH1 0x60 ADD PUSH1 0x40 MSTORE DUP1 PUSH1 0x26 DUP2 MSTORE PUSH1 0x20 ADD PUSH2 0x2F7E PUSH1 0x26 SWAP2 CODECOPY PUSH1 0x1 PUSH1 0x1 PUSH1 0xA0 SHL SUB DUP7 AND PUSH1 0x0 SWAP1 DUP2 MSTORE PUSH1 0x20 DUP2 SWAP1 MSTORE PUSH1 0x40 SWAP1 KECCAK256 SLOAD SWAP2 SWAP1 PUSH2 0x240C JUMP JUMPDEST PUSH1 0x1 PUSH1 0x1 PUSH1 0xA0 SHL SUB DUP1 DUP6 AND PUSH1 0x0 SWAP1 DUP2 MSTORE PUSH1 0x20 DUP2 SWAP1 MSTORE PUSH1 0x40 DUP1 DUP3 KECCAK256 SWAP4 SWAP1 SWAP4 SSTORE SWAP1 DUP5 AND DUP2 MSTORE KECCAK256 SLOAD PUSH2 0x23B2 SWAP1 DUP3 PUSH2 0x24A3 JUMP JUMPDEST PUSH1 0x1 PUSH1 0x1 PUSH1 0xA0 SHL SUB DUP1 DUP5 AND PUSH1 0x0 DUP2 DUP2 MSTORE PUSH1 0x20 DUP2 DUP2 MSTORE PUSH1 0x40 SWAP2 DUP3 SWAP1 KECCAK256 SWAP5 SWAP1 SWAP5 SSTORE DUP1 MLOAD DUP6 DUP2 MSTORE SWAP1 MLOAD SWAP2 SWAP4 SWAP3 DUP8 AND SWAP3 PUSH32 0xDDF252AD1BE2C89B69C2B068FC378DAA952BA7F163C4A11628F55A4DF523B3EF SWAP3 SWAP2 DUP3 SWAP1 SUB ADD SWAP1 LOG3 POP POP POP JUMP JUMPDEST PUSH1 0x0 DUP2 DUP5 DUP5 GT ISZERO PUSH2 0x249B JUMPI PUSH1 0x40 MLOAD PUSH3 0x461BCD PUSH1 0xE5 SHL DUP2 MSTORE PUSH1 0x4 ADD DUP1 DUP1 PUSH1 0x20 ADD DUP3 DUP2 SUB DUP3 MSTORE DUP4 DUP2 DUP2 MLOAD DUP2 MSTORE PUSH1 0x20 ADD SWAP2 POP DUP1 MLOAD SWAP1 PUSH1 0x20 ADD SWAP1 DUP1 DUP4 DUP4 PUSH1 0x0 JUMPDEST DUP4 DUP2 LT ISZERO PUSH2 0x2460 JUMPI DUP2 DUP2 ADD MLOAD DUP4 DUP3 ADD MSTORE PUSH1 0x20 ADD PUSH2 0x2448 JUMP JUMPDEST POP POP POP POP SWAP1 POP SWAP1 DUP2 ADD SWAP1 PUSH1 0x1F AND DUP1 ISZERO PUSH2 0x248D JUMPI DUP1 DUP3 SUB DUP1 MLOAD PUSH1 0x1 DUP4 PUSH1 0x20 SUB PUSH2 0x100 EXP SUB NOT AND DUP2 MSTORE PUSH1 0x20 ADD SWAP2 POP JUMPDEST POP SWAP3 POP POP POP PUSH1 0x40 MLOAD DUP1 SWAP2 SUB SWAP1 REVERT JUMPDEST POP POP POP SWAP1 SUB SWAP1 JUMP JUMPDEST PUSH1 0x0 DUP3 DUP3 ADD DUP4 DUP2 LT ISZERO PUSH2 0x1851 JUMPI PUSH1 0x40 DUP1 MLOAD PUSH3 0x461BCD PUSH1 0xE5 SHL DUP2 MSTORE PUSH1 0x20 PUSH1 0x4 DUP3 ADD MSTORE PUSH1 0x1B PUSH1 0x24 DUP3 ADD MSTORE PUSH32 0x536166654D6174683A206164646974696F6E206F766572666C6F770000000000 PUSH1 0x44 DUP3 ADD MSTORE SWAP1 MLOAD SWAP1 DUP2 SWAP1 SUB PUSH1 0x64 ADD SWAP1 REVERT JUMPDEST PUSH1 0x1 PUSH1 0x1 PUSH1 0xA0 SHL SUB DUP3 AND PUSH2 0x2542 JUMPI PUSH1 0x40 MLOAD PUSH3 0x461BCD PUSH1 0xE5 SHL DUP2 MSTORE PUSH1 0x4 ADD DUP1 DUP1 PUSH1 0x20 ADD DUP3 DUP2 SUB DUP3 MSTORE PUSH1 0x21 DUP2 MSTORE PUSH1 0x20 ADD DUP1 PUSH2 0x2FED PUSH1 0x21 SWAP2 CODECOPY PUSH1 0x40 ADD SWAP2 POP POP PUSH1 0x40 MLOAD DUP1 SWAP2 SUB SWAP1 REVERT JUMPDEST PUSH2 0x254E DUP3 PUSH1 0x0 DUP4 PUSH2 0x2799 JUMP JUMPDEST PUSH2 0x258B DUP2 PUSH1 0x40 MLOAD DUP1 PUSH1 0x60 ADD PUSH1 0x40 MSTORE DUP1 PUSH1 0x22 DUP2 MSTORE PUSH1 0x20 ADD PUSH2 0x2F14 PUSH1 0x22 SWAP2 CODECOPY PUSH1 0x1 PUSH1 0x1 PUSH1 0xA0 SHL SUB DUP6 AND PUSH1 0x0 SWAP1 DUP2 MSTORE PUSH1 0x20 DUP2 SWAP1 MSTORE PUSH1 0x40 SWAP1 KECCAK256 SLOAD SWAP2 SWAP1 PUSH2 0x240C JUMP JUMPDEST PUSH1 0x1 PUSH1 0x1 PUSH1 0xA0 SHL SUB DUP4 AND PUSH1 0x0 SWAP1 DUP2 MSTORE PUSH1 0x20 DUP2 SWAP1 MSTORE PUSH1 0x40 SWAP1 KECCAK256 SSTORE PUSH1 0x2 SLOAD PUSH2 0x25B1 SWAP1 DUP3 PUSH2 0x279E JUMP JUMPDEST PUSH1 0x2 SSTORE PUSH1 0x40 DUP1 MLOAD DUP3 DUP2 MSTORE SWAP1 MLOAD PUSH1 0x0 SWAP2 PUSH1 0x1 PUSH1 0x1 PUSH1 0xA0 SHL SUB DUP6 AND SWAP2 PUSH32 0xDDF252AD1BE2C89B69C2B068FC378DAA952BA7F163C4A11628F55A4DF523B3EF SWAP2 DUP2 SWAP1 SUB PUSH1 0x20 ADD SWAP1 LOG3 POP POP JUMP JUMPDEST PUSH1 0x0 PUSH2 0x2604 DUP4 PUSH2 0x283C JUMP JUMPDEST ISZERO PUSH2 0x261A JUMPI POP PUSH1 0x1 PUSH1 0x1 PUSH1 0xA0 SHL SUB DUP2 AND BALANCE PUSH2 0xA86 JUMP JUMPDEST DUP3 PUSH1 0x1 PUSH1 0x1 PUSH1 0xA0 SHL SUB AND PUSH4 0x70A08231 DUP4 PUSH1 0x40 MLOAD DUP3 PUSH4 0xFFFFFFFF AND PUSH1 0xE0 SHL DUP2 MSTORE PUSH1 0x4 ADD DUP1 DUP3 PUSH1 0x1 PUSH1 0x1 PUSH1 0xA0 SHL SUB AND DUP2 MSTORE PUSH1 0x20 ADD SWAP2 POP POP PUSH1 0x20 PUSH1 0x40 MLOAD DUP1 DUP4 SUB DUP2 DUP7 DUP1 EXTCODESIZE ISZERO DUP1 ISZERO PUSH2 0x2667 JUMPI PUSH1 0x0 DUP1 REVERT JUMPDEST POP GAS STATICCALL ISZERO DUP1 ISZERO PUSH2 0x267B JUMPI RETURNDATASIZE PUSH1 0x0 DUP1 RETURNDATACOPY RETURNDATASIZE PUSH1 0x0 REVERT JUMPDEST POP POP POP POP PUSH1 0x40 MLOAD RETURNDATASIZE PUSH1 0x20 DUP2 LT ISZERO PUSH2 0x2691 JUMPI PUSH1 0x0 DUP1 REVERT JUMPDEST POP MLOAD SWAP1 POP PUSH2 0xA86 JUMP JUMPDEST PUSH1 0x0 DUP3 PUSH2 0x26A9 JUMPI POP PUSH1 0x0 PUSH2 0xA86 JUMP JUMPDEST DUP3 DUP3 MUL DUP3 DUP5 DUP3 DUP2 PUSH2 0x26B6 JUMPI INVALID JUMPDEST DIV EQ PUSH2 0x1851 JUMPI PUSH1 0x40 MLOAD PUSH3 0x461BCD PUSH1 0xE5 SHL DUP2 MSTORE PUSH1 0x4 ADD DUP1 DUP1 PUSH1 0x20 ADD DUP3 DUP2 SUB DUP3 MSTORE PUSH1 0x21 DUP2 MSTORE PUSH1 0x20 ADD DUP1 PUSH2 0x2FA4 PUSH1 0x21 SWAP2 CODECOPY PUSH1 0x40 ADD SWAP2 POP POP PUSH1 0x40 MLOAD DUP1 SWAP2 SUB SWAP1 REVERT JUMPDEST PUSH1 0x0 PUSH2 0x1851 DUP4 DUP4 PUSH1 0x40 MLOAD DUP1 PUSH1 0x40 ADD PUSH1 0x40 MSTORE DUP1 PUSH1 0x1A DUP2 MSTORE PUSH1 0x20 ADD PUSH32 0x536166654D6174683A206469766973696F6E206279207A65726F000000000000 DUP2 MSTORE POP PUSH2 0x2B48 JUMP JUMPDEST DUP1 ISZERO PUSH2 0x2799 JUMPI PUSH2 0x2744 DUP4 PUSH2 0x283C JUMP JUMPDEST ISZERO PUSH2 0x2785 JUMPI PUSH1 0x40 MLOAD PUSH1 0x1 PUSH1 0x1 PUSH1 0xA0 SHL SUB DUP4 AND SWAP1 DUP3 ISZERO PUSH2 0x8FC MUL SWAP1 DUP4 SWAP1 PUSH1 0x0 DUP2 DUP2 DUP2 DUP6 DUP9 DUP9 CALL SWAP4 POP POP POP POP ISZERO DUP1 ISZERO PUSH2 0x277F JUMPI RETURNDATASIZE PUSH1 0x0 DUP1 RETURNDATACOPY RETURNDATASIZE PUSH1 0x0 REVERT JUMPDEST POP PUSH2 0x2799 JUMP JUMPDEST PUSH2 0x2799 PUSH1 0x1 PUSH1 0x1 PUSH1 0xA0 SHL SUB DUP5 AND DUP4 DUP4 PUSH2 0x2BAD JUMP JUMPDEST POP POP POP JUMP JUMPDEST PUSH1 0x0 PUSH2 0x1851 DUP4 DUP4 PUSH1 0x40 MLOAD DUP1 PUSH1 0x40 ADD PUSH1 0x40 MSTORE DUP1 PUSH1 0x1E DUP2 MSTORE PUSH1 0x20 ADD PUSH32 0x536166654D6174683A207375627472616374696F6E206F766572666C6F770000 DUP2 MSTORE POP PUSH2 0x240C JUMP JUMPDEST PUSH2 0x2836 DUP5 PUSH2 0x2831 DUP4 PUSH2 0xC88 PUSH2 0x27F6 DUP3 PUSH1 0x1 PUSH2 0x279E JUMP JUMPDEST PUSH1 0x40 DUP1 MLOAD DUP1 DUP3 ADD SWAP1 SWAP2 MSTORE DUP11 SLOAD PUSH1 0x1 PUSH1 0x1 PUSH1 0xD8 SHL SUB DUP2 AND DUP3 MSTORE PUSH1 0x1 PUSH1 0xD8 SHL SWAP1 DIV PUSH5 0xFFFFFFFFFF AND PUSH1 0x20 DUP3 ADD MSTORE PUSH2 0x1D63 SWAP1 DUP10 SWAP1 PUSH2 0x16BF SWAP1 DUP13 PUSH2 0x2849 JUMP JUMPDEST PUSH2 0x2997 JUMP JUMPDEST POP POP POP POP JUMP JUMPDEST PUSH1 0x1 PUSH1 0x1 PUSH1 0xA0 SHL SUB AND ISZERO SWAP1 JUMP JUMPDEST PUSH1 0x0 DUP1 PUSH2 0x2870 PUSH2 0x12C PUSH2 0x1CA6 DUP7 PUSH1 0x20 ADD MLOAD PUSH5 0xFFFFFFFFFF AND TIMESTAMP PUSH2 0x279E SWAP1 SWAP2 SWAP1 PUSH4 0xFFFFFFFF AND JUMP JUMPDEST SWAP1 POP PUSH1 0x0 PUSH2 0x2880 PUSH2 0x12C DUP4 PUSH2 0x279E JUMP JUMPDEST SWAP1 POP PUSH2 0x22A8 PUSH2 0x12C PUSH2 0xC88 PUSH2 0x2895 DUP8 DUP7 PUSH2 0x269A JUMP JUMPDEST DUP9 MLOAD PUSH2 0x1D63 SWAP1 PUSH1 0x1 PUSH1 0x1 PUSH1 0xD8 SHL SUB AND DUP7 PUSH2 0x269A JUMP JUMPDEST PUSH1 0x0 DUP2 DUP4 LT ISZERO PUSH2 0x28BA JUMPI DUP2 PUSH2 0x1851 JUMP JUMPDEST POP SWAP1 SWAP2 SWAP1 POP JUMP JUMPDEST PUSH1 0x0 DUP2 DUP4 LT PUSH2 0x28BA JUMPI DUP2 PUSH2 0x1851 JUMP JUMPDEST DUP1 ISZERO PUSH2 0x2993 JUMPI PUSH2 0x28DF DUP3 PUSH2 0x283C JUMP JUMPDEST ISZERO PUSH2 0x297E JUMPI DUP1 CALLVALUE LT ISZERO PUSH2 0x2939 JUMPI PUSH1 0x40 DUP1 MLOAD PUSH3 0x461BCD PUSH1 0xE5 SHL DUP2 MSTORE PUSH1 0x20 PUSH1 0x4 DUP3 ADD MSTORE PUSH1 0x1A PUSH1 0x24 DUP3 ADD MSTORE PUSH32 0x556E6945524332303A206E6F7420656E6F7567682076616C7565000000000000 PUSH1 0x44 DUP3 ADD MSTORE SWAP1 MLOAD SWAP1 DUP2 SWAP1 SUB PUSH1 0x64 ADD SWAP1 REVERT JUMPDEST DUP1 CALLVALUE GT ISZERO PUSH2 0x2979 JUMPI CALLER PUSH2 0x8FC PUSH2 0x294F CALLVALUE DUP5 PUSH2 0x279E JUMP JUMPDEST PUSH1 0x40 MLOAD DUP2 ISZERO SWAP1 SWAP3 MUL SWAP2 PUSH1 0x0 DUP2 DUP2 DUP2 DUP6 DUP9 DUP9 CALL SWAP4 POP POP POP POP ISZERO DUP1 ISZERO PUSH2 0x2977 JUMPI RETURNDATASIZE PUSH1 0x0 DUP1 RETURNDATACOPY RETURNDATASIZE PUSH1 0x0 REVERT JUMPDEST POP JUMPDEST PUSH2 0x2993 JUMP JUMPDEST PUSH2 0x2993 PUSH1 0x1 PUSH1 0x1 PUSH1 0xA0 SHL SUB DUP4 AND CALLER ADDRESS DUP5 PUSH2 0x2BFF JUMP JUMPDEST POP POP JUMP JUMPDEST DUP2 SLOAD PUSH1 0x1 PUSH1 0x1 PUSH1 0xD8 SHL SUB NOT AND PUSH1 0x1 PUSH1 0x1 PUSH1 0xD8 SHL SUB SWAP2 DUP3 AND OR AND PUSH1 0x1 PUSH1 0xD8 SHL TIMESTAMP PUSH5 0xFFFFFFFFFF AND MUL OR SWAP1 SSTORE JUMP JUMPDEST PUSH1 0x40 DUP1 MLOAD DUP1 DUP3 ADD SWAP1 SWAP2 MSTORE DUP3 SLOAD PUSH1 0x1 PUSH1 0x1 PUSH1 0xD8 SHL SUB DUP2 AND DUP3 MSTORE PUSH1 0x1 PUSH1 0xD8 SHL SWAP1 DIV PUSH5 0xFFFFFFFFFF AND PUSH1 0x20 DUP3 ADD MSTORE PUSH2 0x2993 SWAP1 DUP4 SWAP1 PUSH2 0x2831 SWAP1 DUP5 PUSH2 0x2849 JUMP JUMPDEST PUSH1 0x0 PUSH1 0x3 DUP3 GT ISZERO PUSH2 0x2A42 JUMPI DUP2 PUSH1 0x1 PUSH1 0x2 DUP3 DIV ADD JUMPDEST DUP2 DUP2 LT ISZERO PUSH2 0x2A3A JUMPI DUP1 SWAP2 POP PUSH1 0x2 DUP2 DUP3 DUP7 DUP2 PUSH2 0x2A29 JUMPI INVALID JUMPDEST DIV ADD DUP2 PUSH2 0x2A32 JUMPI INVALID JUMPDEST DIV SWAP1 POP PUSH2 0x2A12 JUMP JUMPDEST POP SWAP1 POP PUSH2 0xE30 JUMP JUMPDEST DUP2 ISZERO PUSH2 0x2A50 JUMPI POP PUSH1 0x1 PUSH2 0xE30 JUMP JUMPDEST POP PUSH1 0x0 PUSH2 0xE30 JUMP JUMPDEST PUSH1 0x1 PUSH1 0x1 PUSH1 0xA0 SHL SUB DUP3 AND PUSH2 0x2AB3 JUMPI PUSH1 0x40 DUP1 MLOAD PUSH3 0x461BCD PUSH1 0xE5 SHL DUP2 MSTORE PUSH1 0x20 PUSH1 0x4 DUP3 ADD MSTORE PUSH1 0x1F PUSH1 0x24 DUP3 ADD MSTORE PUSH32 0x45524332303A206D696E7420746F20746865207A65726F206164647265737300 PUSH1 0x44 DUP3 ADD MSTORE SWAP1 MLOAD SWAP1 DUP2 SWAP1 SUB PUSH1 0x64 ADD SWAP1 REVERT JUMPDEST PUSH2 0x2ABF PUSH1 0x0 DUP4 DUP4 PUSH2 0x2799 JUMP JUMPDEST PUSH1 0x2 SLOAD PUSH2 0x2ACC SWAP1 DUP3 PUSH2 0x24A3 JUMP JUMPDEST PUSH1 0x2 SSTORE PUSH1 0x1 PUSH1 0x1 PUSH1 0xA0 SHL SUB DUP3 AND PUSH1 0x0 SWAP1 DUP2 MSTORE PUSH1 0x20 DUP2 SWAP1 MSTORE PUSH1 0x40 SWAP1 KECCAK256 SLOAD PUSH2 0x2AF2 SWAP1 DUP3 PUSH2 0x24A3 JUMP JUMPDEST PUSH1 0x1 PUSH1 0x1 PUSH1 0xA0 SHL SUB DUP4 AND PUSH1 0x0 DUP2 DUP2 MSTORE PUSH1 0x20 DUP2 DUP2 MSTORE PUSH1 0x40 DUP1 DUP4 KECCAK256 SWAP5 SWAP1 SWAP5 SSTORE DUP4 MLOAD DUP6 DUP2 MSTORE SWAP4 MLOAD SWAP3 SWAP4 SWAP2 SWAP3 PUSH32 0xDDF252AD1BE2C89B69C2B068FC378DAA952BA7F163C4A11628F55A4DF523B3EF SWAP3 DUP2 SWAP1 SUB SWAP1 SWAP2 ADD SWAP1 LOG3 POP POP JUMP JUMPDEST PUSH1 0x0 DUP2 DUP4 PUSH2 0x2B97 JUMPI PUSH1 0x40 MLOAD PUSH3 0x461BCD PUSH1 0xE5 SHL DUP2 MSTORE PUSH1 0x20 PUSH1 0x4 DUP3 ADD DUP2 DUP2 MSTORE DUP4 MLOAD PUSH1 0x24 DUP5 ADD MSTORE DUP4 MLOAD SWAP1 SWAP3 DUP4 SWAP3 PUSH1 0x44 SWAP1 SWAP2 ADD SWAP2 SWAP1 DUP6 ADD SWAP1 DUP1 DUP4 DUP4 PUSH1 0x0 DUP4 ISZERO PUSH2 0x2460 JUMPI DUP2 DUP2 ADD MLOAD DUP4 DUP3 ADD MSTORE PUSH1 0x20 ADD PUSH2 0x2448 JUMP JUMPDEST POP PUSH1 0x0 DUP4 DUP6 DUP2 PUSH2 0x2BA3 JUMPI INVALID JUMPDEST DIV SWAP6 SWAP5 POP POP POP POP POP JUMP JUMPDEST PUSH1 0x40 DUP1 MLOAD PUSH1 0x1 PUSH1 0x1 PUSH1 0xA0 SHL SUB DUP5 AND PUSH1 0x24 DUP3 ADD MSTORE PUSH1 0x44 DUP1 DUP3 ADD DUP5 SWAP1 MSTORE DUP3 MLOAD DUP1 DUP4 SUB SWAP1 SWAP2 ADD DUP2 MSTORE PUSH1 0x64 SWAP1 SWAP2 ADD SWAP1 SWAP2 MSTORE PUSH1 0x20 DUP2 ADD DUP1 MLOAD PUSH1 0x1 PUSH1 0x1 PUSH1 0xE0 SHL SUB AND PUSH4 0xA9059CBB PUSH1 0xE0 SHL OR SWAP1 MSTORE PUSH2 0x2799 SWAP1 DUP5 SWAP1 PUSH2 0x2C55 JUMP JUMPDEST PUSH1 0x40 DUP1 MLOAD PUSH1 0x1 PUSH1 0x1 PUSH1 0xA0 SHL SUB DUP1 DUP7 AND PUSH1 0x24 DUP4 ADD MSTORE DUP5 AND PUSH1 0x44 DUP3 ADD MSTORE PUSH1 0x64 DUP1 DUP3 ADD DUP5 SWAP1 MSTORE DUP3 MLOAD DUP1 DUP4 SUB SWAP1 SWAP2 ADD DUP2 MSTORE PUSH1 0x84 SWAP1 SWAP2 ADD SWAP1 SWAP2 MSTORE PUSH1 0x20 DUP2 ADD DUP1 MLOAD PUSH1 0x1 PUSH1 0x1 PUSH1 0xE0 SHL SUB AND PUSH4 0x23B872DD PUSH1 0xE0 SHL OR SWAP1 MSTORE PUSH2 0x2836 SWAP1 DUP6 SWAP1 JUMPDEST PUSH1 0x60 PUSH2 0x2CAA DUP3 PUSH1 0x40 MLOAD DUP1 PUSH1 0x40 ADD PUSH1 0x40 MSTORE DUP1 PUSH1 0x20 DUP2 MSTORE PUSH1 0x20 ADD PUSH32 0x5361666545524332303A206C6F772D6C6576656C2063616C6C206661696C6564 DUP2 MSTORE POP DUP6 PUSH1 0x1 PUSH1 0x1 PUSH1 0xA0 SHL SUB AND PUSH2 0x2D06 SWAP1 SWAP3 SWAP2 SWAP1 PUSH4 0xFFFFFFFF AND JUMP JUMPDEST DUP1 MLOAD SWAP1 SWAP2 POP ISZERO PUSH2 0x2799 JUMPI DUP1 DUP1 PUSH1 0x20 ADD SWAP1 MLOAD PUSH1 0x20 DUP2 LT ISZERO PUSH2 0x2CC9 JUMPI PUSH1 0x0 DUP1 REVERT JUMPDEST POP MLOAD PUSH2 0x2799 JUMPI PUSH1 0x40 MLOAD PUSH3 0x461BCD PUSH1 0xE5 SHL DUP2 MSTORE PUSH1 0x4 ADD DUP1 DUP1 PUSH1 0x20 ADD DUP3 DUP2 SUB DUP3 MSTORE PUSH1 0x2A DUP2 MSTORE PUSH1 0x20 ADD DUP1 PUSH2 0x3057 PUSH1 0x2A SWAP2 CODECOPY PUSH1 0x40 ADD SWAP2 POP POP PUSH1 0x40 MLOAD DUP1 SWAP2 SUB SWAP1 REVERT JUMPDEST PUSH1 0x60 PUSH2 0xAC6 DUP5 DUP5 PUSH1 0x0 DUP6 PUSH1 0x60 PUSH2 0x2D1B DUP6 PUSH2 0x2E7D JUMP JUMPDEST PUSH2 0x2D6C JUMPI PUSH1 0x40 DUP1 MLOAD PUSH3 0x461BCD PUSH1 0xE5 SHL DUP2 MSTORE PUSH1 0x20 PUSH1 0x4 DUP3 ADD MSTORE PUSH1 0x1D PUSH1 0x24 DUP3 ADD MSTORE PUSH32 0x416464726573733A2063616C6C20746F206E6F6E2D636F6E7472616374000000 PUSH1 0x44 DUP3 ADD MSTORE SWAP1 MLOAD SWAP1 DUP2 SWAP1 SUB PUSH1 0x64 ADD SWAP1 REVERT JUMPDEST PUSH1 0x0 PUSH1 0x60 DUP7 PUSH1 0x1 PUSH1 0x1 PUSH1 0xA0 SHL SUB AND DUP6 DUP8 PUSH1 0x40 MLOAD DUP1 DUP3 DUP1 MLOAD SWAP1 PUSH1 0x20 ADD SWAP1 DUP1 DUP4 DUP4 JUMPDEST PUSH1 0x20 DUP4 LT PUSH2 0x2DAB JUMPI DUP1 MLOAD DUP3 MSTORE PUSH1 0x1F NOT SWAP1 SWAP3 ADD SWAP2 PUSH1 0x20 SWAP2 DUP3 ADD SWAP2 ADD PUSH2 0x2D8C JUMP JUMPDEST PUSH1 0x1 DUP4 PUSH1 0x20 SUB PUSH2 0x100 EXP SUB DUP1 NOT DUP3 MLOAD AND DUP2 DUP5 MLOAD AND DUP1 DUP3 OR DUP6 MSTORE POP POP POP POP POP POP SWAP1 POP ADD SWAP2 POP POP PUSH1 0x0 PUSH1 0x40 MLOAD DUP1 DUP4 SUB DUP2 DUP6 DUP8 GAS CALL SWAP3 POP POP POP RETURNDATASIZE DUP1 PUSH1 0x0 DUP2 EQ PUSH2 0x2E0D JUMPI PUSH1 0x40 MLOAD SWAP2 POP PUSH1 0x1F NOT PUSH1 0x3F RETURNDATASIZE ADD AND DUP3 ADD PUSH1 0x40 MSTORE RETURNDATASIZE DUP3 MSTORE RETURNDATASIZE PUSH1 0x0 PUSH1 0x20 DUP5 ADD RETURNDATACOPY PUSH2 0x2E12 JUMP JUMPDEST PUSH1 0x60 SWAP2 POP JUMPDEST POP SWAP2 POP SWAP2 POP DUP2 ISZERO PUSH2 0x2E26 JUMPI SWAP2 POP PUSH2 0xAC6 SWAP1 POP JUMP JUMPDEST DUP1 MLOAD ISZERO PUSH2 0x2E36 JUMPI DUP1 MLOAD DUP1 DUP3 PUSH1 0x20 ADD REVERT JUMPDEST PUSH1 0x40 MLOAD PUSH3 0x461BCD PUSH1 0xE5 SHL DUP2 MSTORE PUSH1 0x20 PUSH1 0x4 DUP3 ADD DUP2 DUP2 MSTORE DUP7 MLOAD PUSH1 0x24 DUP5 ADD MSTORE DUP7 MLOAD DUP8 SWAP4 SWAP2 SWAP3 DUP4 SWAP3 PUSH1 0x44 ADD SWAP2 SWAP1 DUP6 ADD SWAP1 DUP1 DUP4 DUP4 PUSH1 0x0 DUP4 ISZERO PUSH2 0x2460 JUMPI DUP2 DUP2 ADD MLOAD DUP4 DUP3 ADD MSTORE PUSH1 0x20 ADD PUSH2 0x2448 JUMP JUMPDEST PUSH1 0x0 DUP2 EXTCODEHASH PUSH32 0xC5D2460186F7233C927E7DB2DCC703C0E500B653CA82273B7BFAD8045D85A470 DUP2 DUP2 EQ DUP1 ISZERO SWAP1 PUSH2 0xAC6 JUMPI POP POP ISZERO ISZERO SWAP3 SWAP2 POP POP JUMP JUMPDEST PUSH1 0x40 MLOAD DUP1 PUSH1 0x40 ADD PUSH1 0x40 MSTORE DUP1 PUSH1 0x0 DUP2 MSTORE PUSH1 0x20 ADD PUSH1 0x0 DUP2 MSTORE POP SWAP1 JUMP INVALID GASLIMIT MSTORE NUMBER ORIGIN ADDRESS GASPRICE KECCAK256 PUSH21 0x72616E7366657220746F20746865207A65726F2061 PUSH5 0x6472657373 MSTORE PUSH6 0x656E7472616E PUSH4 0x79477561 PUSH19 0x643A207265656E7472616E742063616C6C0045 MSTORE NUMBER ORIGIN ADDRESS GASPRICE KECCAK256 PUSH3 0x75726E KECCAK256 PUSH2 0x6D6F PUSH22 0x6E7420657863656564732062616C616E63654F776E61 PUSH3 0x6C653A KECCAK256 PUSH15 0x6577206F776E657220697320746865 KECCAK256 PUSH27 0x65726F206164647265737345524332303A20617070726F76652074 PUSH16 0x20746865207A65726F20616464726573 PUSH20 0x45524332303A207472616E7366657220616D6F75 PUSH15 0x7420657863656564732062616C616E PUSH4 0x65536166 PUSH6 0x4D6174683A20 PUSH14 0x756C7469706C69636174696F6E20 PUSH16 0x766572666C6F7745524332303A207472 PUSH2 0x6E73 PUSH7 0x657220616D6F75 PUSH15 0x74206578636565647320616C6C6F77 PUSH2 0x6E63 PUSH6 0x45524332303A KECCAK256 PUSH3 0x75726E KECCAK256 PUSH7 0x726F6D20746865 KECCAK256 PUSH27 0x65726F206164647265737345524332303A207472616E7366657220 PUSH7 0x726F6D20746865 KECCAK256 PUSH27 0x65726F206164647265737345524332303A20617070726F76652066 PUSH19 0x6F6D20746865207A65726F2061646472657373 MSTORE8 PUSH2 0x6665 GASLIMIT MSTORE NUMBER ORIGIN ADDRESS GASPRICE KECCAK256 GASLIMIT MSTORE NUMBER ORIGIN ADDRESS KECCAK256 PUSH16 0x7065726174696F6E20646964206E6F74 KECCAK256 PUSH20 0x75636365656445524332303A2064656372656173 PUSH6 0x6420616C6C6F PUSH24 0x616E63652062656C6F77207A65726FA26469706673582212 KECCAK256 SDIV 0xE PUSH17 0xC3DB37ACC38891A545B2E5EFDB4DCE8643 PUSH20 0xEFD70FB35601A6B03D723964736F6C634300060C STOP CALLER "
				},
				"gasEstimates": {
					"creation": {
						"codeDepositCost": "2501400",
						"executionCost": "infinite",
						"totalCost": "infinite"
					},
					"external": {
						"BASE_SUPPLY()": "309",
						"FEE_DENOMINATOR()": "287",
						"REFERRAL_SHARE()": "287",
						"allowance(address,address)": "1294",
						"approve(address,uint256)": "infinite",
						"balanceOf(address)": "1221",
						"decayPeriod()": "244",
						"decimals()": "1103",
						"decreaseAllowance(address,uint256)": "infinite",
						"deposit(uint256[],uint256[])": "infinite",
						"factory()": "1082",
						"fee()": "infinite",
						"getBalanceForAddition(address)": "infinite",
						"getBalanceForRemoval(address)": "infinite",
						"getReturn(address,address,uint256)": "infinite",
						"getTokens()": "infinite",
						"increaseAllowance(address,uint256)": "infinite",
						"isToken(address)": "1249",
						"name()": "infinite",
						"owner()": "1083",
						"renounceOwnership()": "24290",
						"rescueFunds(address,uint256)": "infinite",
						"swap(address,address,uint256,uint256,address)": "infinite",
						"symbol()": "infinite",
						"tokens(uint256)": "2038",
						"totalSupply()": "1089",
						"transfer(address,uint256)": "infinite",
						"transferFrom(address,address,uint256)": "infinite",
						"transferOwnership(address)": "infinite",
						"virtualBalancesForAddition(address)": "1264",
						"virtualBalancesForRemoval(address)": "1331",
						"volumes(address)": "1301",
						"withdraw(uint256,uint256[])": "infinite"
					},
					"internal": {
						"_getReturn(contract IERC20,contract IERC20,uint256,uint256,uint256)": "infinite"
					}
				},
				"methodIdentifiers": {
					"BASE_SUPPLY()": "baf13a0a",
					"FEE_DENOMINATOR()": "d73792a9",
					"REFERRAL_SHARE()": "b21b5a21",
					"allowance(address,address)": "dd62ed3e",
					"approve(address,uint256)": "095ea7b3",
					"balanceOf(address)": "70a08231",
					"decayPeriod()": "48d67e1b",
					"decimals()": "313ce567",
					"decreaseAllowance(address,uint256)": "a457c2d7",
					"deposit(uint256[],uint256[])": "f223885a",
					"factory()": "c45a0155",
					"fee()": "ddca3f43",
					"getBalanceForAddition(address)": "d7d3aab5",
					"getBalanceForRemoval(address)": "e7ff42c9",
					"getReturn(address,address,uint256)": "1e1401f8",
					"getTokens()": "aa6ca808",
					"increaseAllowance(address,uint256)": "39509351",
					"isToken(address)": "19f37361",
					"name()": "06fdde03",
					"owner()": "8da5cb5b",
					"renounceOwnership()": "715018a6",
					"rescueFunds(address,uint256)": "78e3214f",
					"swap(address,address,uint256,uint256,address)": "d5bcb9b5",
					"symbol()": "95d89b41",
					"tokens(uint256)": "4f64b2be",
					"totalSupply()": "18160ddd",
					"transfer(address,uint256)": "a9059cbb",
					"transferFrom(address,address,uint256)": "23b872dd",
					"transferOwnership(address)": "f2fde38b",
					"virtualBalancesForAddition(address)": "6edc2c09",
					"virtualBalancesForRemoval(address)": "5ed9156d",
					"volumes(address)": "b1ec4c40",
					"withdraw(uint256,uint256[])": "5915d806"
				}
			},
			"storageLayout": {
				"storage": [
					{
						"astId": 421,
						"contract": "contracts/Mooniswap.sol:Mooniswap",
						"label": "_balances",
						"offset": 0,
						"slot": "0",
						"type": "t_mapping(t_address,t_uint256)"
					},
					{
						"astId": 427,
						"contract": "contracts/Mooniswap.sol:Mooniswap",
						"label": "_allowances",
						"offset": 0,
						"slot": "1",
						"type": "t_mapping(t_address,t_mapping(t_address,t_uint256))"
					},
					{
						"astId": 429,
						"contract": "contracts/Mooniswap.sol:Mooniswap",
						"label": "_totalSupply",
						"offset": 0,
						"slot": "2",
						"type": "t_uint256"
					},
					{
						"astId": 431,
						"contract": "contracts/Mooniswap.sol:Mooniswap",
						"label": "_name",
						"offset": 0,
						"slot": "3",
						"type": "t_string_storage"
					},
					{
						"astId": 433,
						"contract": "contracts/Mooniswap.sol:Mooniswap",
						"label": "_symbol",
						"offset": 0,
						"slot": "4",
						"type": "t_string_storage"
					},
					{
						"astId": 435,
						"contract": "contracts/Mooniswap.sol:Mooniswap",
						"label": "_decimals",
						"offset": 0,
						"slot": "5",
						"type": "t_uint8"
					},
					{
						"astId": 1413,
						"contract": "contracts/Mooniswap.sol:Mooniswap",
						"label": "_status",
						"offset": 0,
						"slot": "6",
						"type": "t_uint256"
					},
					{
						"astId": 30,
						"contract": "contracts/Mooniswap.sol:Mooniswap",
						"label": "_owner",
						"offset": 0,
						"slot": "7",
						"type": "t_address"
					},
					{
						"astId": 1663,
						"contract": "contracts/Mooniswap.sol:Mooniswap",
						"label": "factory",
						"offset": 0,
						"slot": "8",
						"type": "t_contract(IFactory)1457"
					},
					{
						"astId": 1666,
						"contract": "contracts/Mooniswap.sol:Mooniswap",
						"label": "tokens",
						"offset": 0,
						"slot": "9",
						"type": "t_array(t_contract(IERC20)985)dyn_storage"
					},
					{
						"astId": 1670,
						"contract": "contracts/Mooniswap.sol:Mooniswap",
						"label": "isToken",
						"offset": 0,
						"slot": "10",
						"type": "t_mapping(t_contract(IERC20)985,t_bool)"
					},
					{
						"astId": 1674,
						"contract": "contracts/Mooniswap.sol:Mooniswap",
						"label": "volumes",
						"offset": 0,
						"slot": "11",
						"type": "t_mapping(t_contract(IERC20)985,t_struct(SwapVolumes)1620_storage)"
					},
					{
						"astId": 1678,
						"contract": "contracts/Mooniswap.sol:Mooniswap",
						"label": "virtualBalancesForAddition",
						"offset": 0,
						"slot": "12",
						"type": "t_mapping(t_contract(IERC20)985,t_struct(Data)1465_storage)"
					},
					{
						"astId": 1682,
						"contract": "contracts/Mooniswap.sol:Mooniswap",
						"label": "virtualBalancesForRemoval",
						"offset": 0,
						"slot": "13",
						"type": "t_mapping(t_contract(IERC20)985,t_struct(Data)1465_storage)"
					}
				],
				"types": {
					"t_address": {
						"encoding": "inplace",
						"label": "address",
						"numberOfBytes": "20"
					},
					"t_array(t_contract(IERC20)985)dyn_storage": {
						"base": "t_contract(IERC20)985",
						"encoding": "dynamic_array",
						"label": "contract IERC20[]",
						"numberOfBytes": "32"
					},
					"t_bool": {
						"encoding": "inplace",
						"label": "bool",
						"numberOfBytes": "1"
					},
					"t_contract(IERC20)985": {
						"encoding": "inplace",
						"label": "contract IERC20",
						"numberOfBytes": "20"
					},
					"t_contract(IFactory)1457": {
						"encoding": "inplace",
						"label": "contract IFactory",
						"numberOfBytes": "20"
					},
					"t_mapping(t_address,t_mapping(t_address,t_uint256))": {
						"encoding": "mapping",
						"key": "t_address",
						"label": "mapping(address => mapping(address => uint256))",
						"numberOfBytes": "32",
						"value": "t_mapping(t_address,t_uint256)"
					},
					"t_mapping(t_address,t_uint256)": {
						"encoding": "mapping",
						"key": "t_address",
						"label": "mapping(address => uint256)",
						"numberOfBytes": "32",
						"value": "t_uint256"
					},
					"t_mapping(t_contract(IERC20)985,t_bool)": {
						"encoding": "mapping",
						"key": "t_contract(IERC20)985",
						"label": "mapping(contract IERC20 => bool)",
						"numberOfBytes": "32",
						"value": "t_bool"
					},
					"t_mapping(t_contract(IERC20)985,t_struct(Data)1465_storage)": {
						"encoding": "mapping",
						"key": "t_contract(IERC20)985",
						"label": "mapping(contract IERC20 => struct VirtualBalance.Data)",
						"numberOfBytes": "32",
						"value": "t_struct(Data)1465_storage"
					},
					"t_mapping(t_contract(IERC20)985,t_struct(SwapVolumes)1620_storage)": {
						"encoding": "mapping",
						"key": "t_contract(IERC20)985",
						"label": "mapping(contract IERC20 => struct Mooniswap.SwapVolumes)",
						"numberOfBytes": "32",
						"value": "t_struct(SwapVolumes)1620_storage"
					},
					"t_string_storage": {
						"encoding": "bytes",
						"label": "string",
						"numberOfBytes": "32"
					},
					"t_struct(Data)1465_storage": {
						"encoding": "inplace",
						"label": "struct VirtualBalance.Data",
						"members": [
							{
								"astId": 1462,
								"contract": "contracts/Mooniswap.sol:Mooniswap",
								"label": "balance",
								"offset": 0,
								"slot": "0",
								"type": "t_uint216"
							},
							{
								"astId": 1464,
								"contract": "contracts/Mooniswap.sol:Mooniswap",
								"label": "time",
								"offset": 27,
								"slot": "0",
								"type": "t_uint40"
							}
						],
						"numberOfBytes": "32"
					},
					"t_struct(SwapVolumes)1620_storage": {
						"encoding": "inplace",
						"label": "struct Mooniswap.SwapVolumes",
						"members": [
							{
								"astId": 1617,
								"contract": "contracts/Mooniswap.sol:Mooniswap",
								"label": "confirmed",
								"offset": 0,
								"slot": "0",
								"type": "t_uint128"
							},
							{
								"astId": 1619,
								"contract": "contracts/Mooniswap.sol:Mooniswap",
								"label": "result",
								"offset": 16,
								"slot": "0",
								"type": "t_uint128"
							}
						],
						"numberOfBytes": "32"
					},
					"t_uint128": {
						"encoding": "inplace",
						"label": "uint128",
						"numberOfBytes": "16"
					},
					"t_uint216": {
						"encoding": "inplace",
						"label": "uint216",
						"numberOfBytes": "27"
					},
					"t_uint256": {
						"encoding": "inplace",
						"label": "uint256",
						"numberOfBytes": "32"
					},
					"t_uint40": {
						"encoding": "inplace",
						"label": "uint40",
						"numberOfBytes": "5"
					},
					"t_uint8": {
						"encoding": "inplace",
						"label": "uint8",
						"numberOfBytes": "1"
					}
				}
			},
			"userdoc": {
				"kind": "user",
				"methods": {},
				"version": 1
			}
		}
	}
}