{
	"contracts/Mooniswap.sol": {
		"Mooniswap": {
			"abi": [
				{
					"inputs": [],
					"stateMutability": "payable",
					"type": "constructor"
				},
				{
					"anonymous": false,
					"inputs": [
						{
							"indexed": true,
							"internalType": "address",
							"name": "owner",
							"type": "address"
						},
						{
							"indexed": true,
							"internalType": "address",
							"name": "spender",
							"type": "address"
						},
						{
							"indexed": false,
							"internalType": "uint256",
							"name": "value",
							"type": "uint256"
						}
					],
					"name": "Approval",
					"type": "event"
				},
				{
					"anonymous": false,
					"inputs": [
						{
							"indexed": true,
							"internalType": "address",
							"name": "account",
							"type": "address"
						},
						{
							"indexed": false,
							"internalType": "uint256",
							"name": "amount",
							"type": "uint256"
						}
					],
					"name": "Deposited",
					"type": "event"
				},
				{
					"anonymous": false,
					"inputs": [
						{
							"indexed": true,
							"internalType": "address",
							"name": "previousOwner",
							"type": "address"
						},
						{
							"indexed": true,
							"internalType": "address",
							"name": "newOwner",
							"type": "address"
						}
					],
					"name": "OwnershipTransferred",
					"type": "event"
				},
				{
					"anonymous": false,
					"inputs": [
						{
							"indexed": true,
							"internalType": "address",
							"name": "account",
							"type": "address"
						},
						{
							"indexed": true,
							"internalType": "address",
							"name": "src",
							"type": "address"
						},
						{
							"indexed": true,
							"internalType": "address",
							"name": "dst",
							"type": "address"
						},
						{
							"indexed": false,
							"internalType": "uint256",
							"name": "amount",
							"type": "uint256"
						},
						{
							"indexed": false,
							"internalType": "uint256",
							"name": "result",
							"type": "uint256"
						},
						{
							"indexed": false,
							"internalType": "uint256",
							"name": "srcBalance",
							"type": "uint256"
						},
						{
							"indexed": false,
							"internalType": "uint256",
							"name": "dstBalance",
							"type": "uint256"
						},
						{
							"indexed": false,
							"internalType": "uint256",
							"name": "totalSupply",
							"type": "uint256"
						},
						{
							"indexed": false,
							"internalType": "address",
							"name": "referral",
							"type": "address"
						}
					],
					"name": "Swapped",
					"type": "event"
				},
				{
					"anonymous": false,
					"inputs": [
						{
							"indexed": true,
							"internalType": "address",
							"name": "from",
							"type": "address"
						},
						{
							"indexed": true,
							"internalType": "address",
							"name": "to",
							"type": "address"
						},
						{
							"indexed": false,
							"internalType": "uint256",
							"name": "value",
							"type": "uint256"
						}
					],
					"name": "Transfer",
					"type": "event"
				},
				{
					"anonymous": false,
					"inputs": [
						{
							"indexed": true,
							"internalType": "address",
							"name": "account",
							"type": "address"
						},
						{
							"indexed": false,
							"internalType": "uint256",
							"name": "amount",
							"type": "uint256"
						}
					],
					"name": "Withdrawn",
					"type": "event"
				},
				{
					"inputs": [],
					"name": "BASE_SUPPLY",
					"outputs": [
						{
							"internalType": "uint256",
							"name": "",
							"type": "uint256"
						}
					],
					"stateMutability": "view",
					"type": "function"
				},
				{
					"inputs": [],
					"name": "DOMAIN_SEPARATOR",
					"outputs": [
						{
							"internalType": "bytes32",
							"name": "",
							"type": "bytes32"
						}
					],
					"stateMutability": "view",
					"type": "function"
				},
				{
					"inputs": [],
					"name": "FEE_DENOMINATOR",
					"outputs": [
						{
							"internalType": "uint256",
							"name": "",
							"type": "uint256"
						}
					],
					"stateMutability": "view",
					"type": "function"
				},
				{
					"inputs": [],
					"name": "PERMIT_TYPEHASH",
					"outputs": [
						{
							"internalType": "bytes32",
							"name": "",
							"type": "bytes32"
						}
					],
					"stateMutability": "view",
					"type": "function"
				},
				{
					"inputs": [],
					"name": "REFERRAL_SHARE",
					"outputs": [
						{
							"internalType": "uint256",
							"name": "",
							"type": "uint256"
						}
					],
					"stateMutability": "view",
					"type": "function"
				},
				{
					"inputs": [
						{
							"internalType": "address",
							"name": "owner",
							"type": "address"
						},
						{
							"internalType": "address",
							"name": "spender",
							"type": "address"
						}
					],
					"name": "allowance",
					"outputs": [
						{
							"internalType": "uint256",
							"name": "",
							"type": "uint256"
						}
					],
					"stateMutability": "view",
					"type": "function"
				},
				{
					"inputs": [
						{
							"internalType": "address",
							"name": "spender",
							"type": "address"
						},
						{
							"internalType": "uint256",
							"name": "amount",
							"type": "uint256"
						}
					],
					"name": "approve",
					"outputs": [
						{
							"internalType": "bool",
							"name": "",
							"type": "bool"
						}
					],
					"stateMutability": "nonpayable",
					"type": "function"
				},
				{
					"inputs": [
						{
							"internalType": "address",
							"name": "account",
							"type": "address"
						}
					],
					"name": "balanceOf",
					"outputs": [
						{
							"internalType": "uint256",
							"name": "",
							"type": "uint256"
						}
					],
					"stateMutability": "view",
					"type": "function"
				},
				{
					"inputs": [],
					"name": "decayPeriod",
					"outputs": [
						{
							"internalType": "uint256",
							"name": "",
							"type": "uint256"
						}
					],
					"stateMutability": "pure",
					"type": "function"
				},
				{
					"inputs": [],
					"name": "decimals",
					"outputs": [
						{
							"internalType": "uint8",
							"name": "",
							"type": "uint8"
						}
					],
					"stateMutability": "view",
					"type": "function"
				},
				{
					"inputs": [
						{
							"internalType": "address",
							"name": "spender",
							"type": "address"
						},
						{
							"internalType": "uint256",
							"name": "subtractedValue",
							"type": "uint256"
						}
					],
					"name": "decreaseAllowance",
					"outputs": [
						{
							"internalType": "bool",
							"name": "",
							"type": "bool"
						}
					],
					"stateMutability": "nonpayable",
					"type": "function"
				},
				{
					"inputs": [
						{
							"internalType": "uint256[]",
							"name": "amounts",
							"type": "uint256[]"
						},
						{
							"internalType": "uint256[]",
							"name": "minAmounts",
							"type": "uint256[]"
						}
					],
					"name": "deposit",
					"outputs": [
						{
							"internalType": "uint256",
							"name": "fairSupply",
							"type": "uint256"
						}
					],
					"stateMutability": "payable",
					"type": "function"
				},
				{
					"inputs": [],
					"name": "factory",
					"outputs": [
						{
							"internalType": "contract IFactory",
							"name": "",
							"type": "address"
						}
					],
					"stateMutability": "view",
					"type": "function"
				},
				{
					"inputs": [],
					"name": "fee",
					"outputs": [
						{
							"internalType": "uint256",
							"name": "",
							"type": "uint256"
						}
					],
					"stateMutability": "view",
					"type": "function"
				},
				{
					"inputs": [
						{
							"internalType": "contract IERC20",
							"name": "token",
							"type": "address"
						}
					],
					"name": "getBalanceForAddition",
					"outputs": [
						{
							"internalType": "uint256",
							"name": "",
							"type": "uint256"
						}
					],
					"stateMutability": "view",
					"type": "function"
				},
				{
					"inputs": [
						{
							"internalType": "contract IERC20",
							"name": "token",
							"type": "address"
						}
					],
					"name": "getBalanceForRemoval",
					"outputs": [
						{
							"internalType": "uint256",
							"name": "",
							"type": "uint256"
						}
					],
					"stateMutability": "view",
					"type": "function"
				},
				{
					"inputs": [
						{
							"internalType": "contract IERC20",
							"name": "src",
							"type": "address"
						},
						{
							"internalType": "contract IERC20",
							"name": "dst",
							"type": "address"
						},
						{
							"internalType": "uint256",
							"name": "amount",
							"type": "uint256"
						}
					],
					"name": "getReturn",
					"outputs": [
						{
							"internalType": "uint256",
							"name": "",
							"type": "uint256"
						}
					],
					"stateMutability": "view",
					"type": "function"
				},
				{
					"inputs": [],
					"name": "getTokens",
					"outputs": [
						{
							"internalType": "contract IERC20[]",
							"name": "",
							"type": "address[]"
						}
					],
					"stateMutability": "view",
					"type": "function"
				},
				{
					"inputs": [
						{
							"internalType": "address",
							"name": "spender",
							"type": "address"
						},
						{
							"internalType": "uint256",
							"name": "addedValue",
							"type": "uint256"
						}
					],
					"name": "increaseAllowance",
					"outputs": [
						{
							"internalType": "bool",
							"name": "",
							"type": "bool"
						}
					],
					"stateMutability": "nonpayable",
					"type": "function"
				},
				{
					"inputs": [
						{
							"internalType": "contract IERC20[]",
							"name": "assets",
							"type": "address[]"
						}
					],
					"name": "initialize",
					"outputs": [],
					"stateMutability": "nonpayable",
					"type": "function"
				},
				{
					"inputs": [
						{
							"internalType": "contract IERC20",
							"name": "",
							"type": "address"
						}
					],
					"name": "isToken",
					"outputs": [
						{
							"internalType": "bool",
							"name": "",
							"type": "bool"
						}
					],
					"stateMutability": "view",
					"type": "function"
				},
				{
					"inputs": [],
					"name": "name",
					"outputs": [
						{
							"internalType": "string",
							"name": "",
							"type": "string"
						}
					],
					"stateMutability": "view",
					"type": "function"
				},
				{
					"inputs": [
						{
							"internalType": "address",
							"name": "",
							"type": "address"
						}
					],
					"name": "nonces",
					"outputs": [
						{
							"internalType": "uint256",
							"name": "",
							"type": "uint256"
						}
					],
					"stateMutability": "view",
					"type": "function"
				},
				{
					"inputs": [],
					"name": "owner",
					"outputs": [
						{
							"internalType": "address",
							"name": "",
							"type": "address"
						}
					],
					"stateMutability": "view",
					"type": "function"
				},
				{
					"inputs": [
						{
							"internalType": "address",
							"name": "_owner",
							"type": "address"
						},
						{
							"internalType": "address",
							"name": "spender",
							"type": "address"
						},
						{
							"internalType": "uint256",
							"name": "value",
							"type": "uint256"
						},
						{
							"internalType": "uint256",
							"name": "deadline",
							"type": "uint256"
						},
						{
							"internalType": "uint8",
							"name": "v",
							"type": "uint8"
						},
						{
							"internalType": "bytes32",
							"name": "r",
							"type": "bytes32"
						},
						{
							"internalType": "bytes32",
							"name": "s",
							"type": "bytes32"
						}
					],
					"name": "permit",
					"outputs": [],
					"stateMutability": "nonpayable",
					"type": "function"
				},
				{
					"inputs": [],
					"name": "renounceOwnership",
					"outputs": [],
					"stateMutability": "nonpayable",
					"type": "function"
				},
				{
					"inputs": [
						{
							"internalType": "contract IERC20",
							"name": "token",
							"type": "address"
						},
						{
							"internalType": "uint256",
							"name": "amount",
							"type": "uint256"
						}
					],
					"name": "rescueFunds",
					"outputs": [],
					"stateMutability": "nonpayable",
					"type": "function"
				},
				{
					"inputs": [
						{
							"internalType": "contract IERC20",
							"name": "src",
							"type": "address"
						},
						{
							"internalType": "contract IERC20",
							"name": "dst",
							"type": "address"
						},
						{
							"internalType": "uint256",
							"name": "amount",
							"type": "uint256"
						},
						{
							"internalType": "uint256",
							"name": "minReturn",
							"type": "uint256"
						},
						{
							"internalType": "address",
							"name": "referral",
							"type": "address"
						}
					],
					"name": "swap",
					"outputs": [
						{
							"internalType": "uint256",
							"name": "result",
							"type": "uint256"
						}
					],
					"stateMutability": "payable",
					"type": "function"
				},
				{
					"inputs": [],
					"name": "symbol",
					"outputs": [
						{
							"internalType": "string",
							"name": "",
							"type": "string"
						}
					],
					"stateMutability": "view",
					"type": "function"
				},
				{
					"inputs": [
						{
							"internalType": "uint256",
							"name": "",
							"type": "uint256"
						}
					],
					"name": "tokens",
					"outputs": [
						{
							"internalType": "contract IERC20",
							"name": "",
							"type": "address"
						}
					],
					"stateMutability": "view",
					"type": "function"
				},
				{
					"inputs": [],
					"name": "totalSupply",
					"outputs": [
						{
							"internalType": "uint256",
							"name": "",
							"type": "uint256"
						}
					],
					"stateMutability": "view",
					"type": "function"
				},
				{
					"inputs": [
						{
							"internalType": "address",
							"name": "recipient",
							"type": "address"
						},
						{
							"internalType": "uint256",
							"name": "amount",
							"type": "uint256"
						}
					],
					"name": "transfer",
					"outputs": [
						{
							"internalType": "bool",
							"name": "",
							"type": "bool"
						}
					],
					"stateMutability": "nonpayable",
					"type": "function"
				},
				{
					"inputs": [
						{
							"internalType": "address",
							"name": "sender",
							"type": "address"
						},
						{
							"internalType": "address",
							"name": "recipient",
							"type": "address"
						},
						{
							"internalType": "uint256",
							"name": "amount",
							"type": "uint256"
						}
					],
					"name": "transferFrom",
					"outputs": [
						{
							"internalType": "bool",
							"name": "",
							"type": "bool"
						}
					],
					"stateMutability": "nonpayable",
					"type": "function"
				},
				{
					"inputs": [
						{
							"internalType": "address",
							"name": "newOwner",
							"type": "address"
						}
					],
					"name": "transferOwnership",
					"outputs": [],
					"stateMutability": "nonpayable",
					"type": "function"
				},
				{
					"inputs": [
						{
							"internalType": "contract IERC20",
							"name": "",
							"type": "address"
						}
					],
					"name": "virtualBalancesForAddition",
					"outputs": [
						{
							"internalType": "uint216",
							"name": "balance",
							"type": "uint216"
						},
						{
							"internalType": "uint40",
							"name": "time",
							"type": "uint40"
						}
					],
					"stateMutability": "view",
					"type": "function"
				},
				{
					"inputs": [
						{
							"internalType": "contract IERC20",
							"name": "",
							"type": "address"
						}
					],
					"name": "virtualBalancesForRemoval",
					"outputs": [
						{
							"internalType": "uint216",
							"name": "balance",
							"type": "uint216"
						},
						{
							"internalType": "uint40",
							"name": "time",
							"type": "uint40"
						}
					],
					"stateMutability": "view",
					"type": "function"
				},
				{
					"inputs": [
						{
							"internalType": "contract IERC20",
							"name": "",
							"type": "address"
						}
					],
					"name": "volumes",
					"outputs": [
						{
							"internalType": "uint128",
							"name": "confirmed",
							"type": "uint128"
						},
						{
							"internalType": "uint128",
							"name": "result",
							"type": "uint128"
						}
					],
					"stateMutability": "view",
					"type": "function"
				},
				{
					"inputs": [
						{
							"internalType": "uint256",
							"name": "amount",
							"type": "uint256"
						},
						{
							"internalType": "uint256[]",
							"name": "minReturns",
							"type": "uint256[]"
						}
					],
					"name": "withdraw",
					"outputs": [],
					"stateMutability": "nonpayable",
					"type": "function"
				}
			],
			"devdoc": {
				"kind": "dev",
				"methods": {
					"allowance(address,address)": {
						"details": "See {IERC20-allowance}."
					},
					"approve(address,uint256)": {
						"details": "See {IERC20-approve}. Requirements: - `spender` cannot be the zero address."
					},
					"balanceOf(address)": {
						"details": "See {IERC20-balanceOf}."
					},
					"decimals()": {
						"details": "Returns the number of decimals used to get its user representation. For example, if `decimals` equals `2`, a balance of `505` tokens should be displayed to a user as `5,05` (`505 / 10 ** 2`). Tokens usually opt for a value of 18, imitating the relationship between Ether and Wei. This is the value {ERC20} uses, unless {_setupDecimals} is called. NOTE: This information is only used for _display_ purposes: it in no way affects any of the arithmetic of the contract, including {IERC20-balanceOf} and {IERC20-transfer}."
					},
					"decreaseAllowance(address,uint256)": {
						"details": "Atomically decreases the allowance granted to `spender` by the caller. This is an alternative to {approve} that can be used as a mitigation for problems described in {IERC20-approve}. Emits an {Approval} event indicating the updated allowance. Requirements: - `spender` cannot be the zero address. - `spender` must have allowance for the caller of at least `subtractedValue`."
					},
					"increaseAllowance(address,uint256)": {
						"details": "Atomically increases the allowance granted to `spender` by the caller. This is an alternative to {approve} that can be used as a mitigation for problems described in {IERC20-approve}. Emits an {Approval} event indicating the updated allowance. Requirements: - `spender` cannot be the zero address."
					},
					"name()": {
						"details": "Returns the name of the token."
					},
					"owner()": {
						"details": "Returns the address of the current owner."
					},
					"renounceOwnership()": {
						"details": "Leaves the contract without owner. It will not be possible to call `onlyOwner` functions anymore. Can only be called by the current owner. NOTE: Renouncing ownership will leave the contract without an owner, thereby removing any functionality that is only available to the owner."
					},
					"symbol()": {
						"details": "Returns the symbol of the token, usually a shorter version of the name."
					},
					"totalSupply()": {
						"details": "See {IERC20-totalSupply}."
					},
					"transfer(address,uint256)": {
						"details": "See {IERC20-transfer}. Requirements: - `recipient` cannot be the zero address. - the caller must have a balance of at least `amount`."
					},
					"transferFrom(address,address,uint256)": {
						"details": "See {IERC20-transferFrom}. Emits an {Approval} event indicating the updated allowance. This is not required by the EIP. See the note at the beginning of {ERC20}; Requirements: - `sender` and `recipient` cannot be the zero address. - `sender` must have a balance of at least `amount`. - the caller must have allowance for ``sender``'s tokens of at least `amount`."
					},
					"transferOwnership(address)": {
						"details": "Transfers ownership of the contract to a new account (`newOwner`). Can only be called by the current owner."
					}
				},
				"version": 1
			},
			"evm": {
				"assembly": "    /* \"@openzeppelin/contracts/token/ERC20/ERC20.sol\":2013:2154  constructor (string memory name, string memory symbol) public {... */\n  0x07\n    /* \"contracts/Mooniswap.sol\":1561:12794  contract Mooniswap is ERC20, ReentrancyGuard, Ownable {... */\n  0x80\n    /* \"@openzeppelin/contracts/token/ERC20/ERC20.sol\":2013:2154  constructor (string memory name, string memory symbol) public {... */\n  dup2\n  dup2\n  mstore\n  shl(0xc8, 0x4c502d4e414d45)\n  0xa0\n  swap1\n  dup2\n  mstore\n  0x0100\n    /* \"contracts/Mooniswap.sol\":1561:12794  contract Mooniswap is ERC20, ReentrancyGuard, Ownable {... */\n  0x40\n    /* \"@openzeppelin/contracts/token/ERC20/ERC20.sol\":2013:2154  constructor (string memory name, string memory symbol) public {... */\n  mstore\n  0x09\n  0xc0\n  swap1\n  dup2\n  mstore\n  mstore(0xe0, shl(0xb8, 0x534f4d455448494e47))\n    /* \"contracts/Mooniswap.sol\":1561:12794  contract Mooniswap is ERC20, ReentrancyGuard, Ownable {... */\n  swap2\n  swap3\n    /* \"@openzeppelin/contracts/token/ERC20/ERC20.sol\":2085:2097  _name = name */\n  tag_6\n  swap2\n    /* \"@openzeppelin/contracts/token/ERC20/ERC20.sol\":2085:2090  _name */\n  0x03\n  swap2\n    /* \"@openzeppelin/contracts/token/ERC20/ERC20.sol\":2085:2097  _name = name */\n  tag_7\n  jump\t// in\ntag_6:\n  pop\n    /* \"@openzeppelin/contracts/token/ERC20/ERC20.sol\":2107:2123  _symbol = symbol */\n  dup1\n  mload\n  tag_8\n  swap1\n    /* \"@openzeppelin/contracts/token/ERC20/ERC20.sol\":2107:2114  _symbol */\n  0x04\n  swap1\n    /* \"@openzeppelin/contracts/token/ERC20/ERC20.sol\":2107:2123  _symbol = symbol */\n  0x20\n  dup5\n  add\n  swap1\n  tag_7\n  jump\t// in\ntag_8:\n  pop\n  pop\n    /* \"@openzeppelin/contracts/token/ERC20/ERC20.sol\":2133:2142  _decimals */\n  0x05\n    /* \"@openzeppelin/contracts/token/ERC20/ERC20.sol\":2133:2147  _decimals = 18 */\n  dup1\n  sload\n  not(0xff)\n  and\n    /* \"@openzeppelin/contracts/token/ERC20/ERC20.sol\":2145:2147  18 */\n  0x12\n    /* \"@openzeppelin/contracts/token/ERC20/ERC20.sol\":2133:2147  _decimals = 18 */\n  or\n  swap1\n  sstore\n  pop\n  0x01\n    /* \"@openzeppelin/contracts/utils/ReentrancyGuard.sol\":1743:1750  _status */\n  0x06\n    /* \"@openzeppelin/contracts/utils/ReentrancyGuard.sol\":1743:1765  _status = _NOT_ENTERED */\n  sstore\n    /* \"@openzeppelin/contracts/token/ERC20/ERC20.sol\":2133:2142  _decimals */\n  0x00\n    /* \"@openzeppelin/contracts/access/Ownable.sol\":885:897  _msgSender() */\n  tag_11\n    /* \"@openzeppelin/contracts/access/Ownable.sol\":885:895  _msgSender */\n  tag_12\n    /* \"@openzeppelin/contracts/access/Ownable.sol\":885:897  _msgSender() */\n  jump\t// in\ntag_11:\n    /* \"@openzeppelin/contracts/access/Ownable.sol\":907:913  _owner */\n  0x07\n    /* \"@openzeppelin/contracts/access/Ownable.sol\":907:925  _owner = msgSender */\n  dup1\n  sload\n  not(sub(shl(0xa0, 0x01), 0x01))\n  and\n  sub(shl(0xa0, 0x01), 0x01)\n  dup4\n  and\n  swap1\n  dup2\n  or\n  swap1\n  swap2\n  sstore\n    /* \"@openzeppelin/contracts/access/Ownable.sol\":940:983  OwnershipTransferred(address(0), msgSender) */\n  mload(0x40)\n    /* \"@openzeppelin/contracts/access/Ownable.sol\":907:925  _owner = msgSender */\n  swap2\n  swap3\n  pop\n  swap1\n  0x00\n  swap1\n    /* \"@openzeppelin/contracts/access/Ownable.sol\":940:983  OwnershipTransferred(address(0), msgSender) */\n  0x8be0079c531659141344cd1fd0a4f28419497f9722a3daafe3b4186f6b6457e0\n  swap1\n  dup3\n  swap1\n  log3\n  pop\n    /* \"contracts/Mooniswap.sol\":3259:3266  factory */\n  0x09\n    /* \"contracts/Mooniswap.sol\":3259:3289  factory = IFactory(msg.sender) */\n  dup1\n  sload\n  not(sub(shl(0xa0, 0x01), 0x01))\n  and\n    /* \"contracts/Mooniswap.sol\":3278:3288  msg.sender */\n  caller\n    /* \"contracts/Mooniswap.sol\":3259:3289  factory = IFactory(msg.sender) */\n  or\n  swap1\n  sstore\n    /* \"contracts/Mooniswap.sol\":3355:3364  chainid() */\n  chainid\n    /* \"contracts/Mooniswap.sol\":3453:3548  keccak256('EIP712Domain(string name,string version,uint256 chainId,address verifyingContract)') */\n  0x8b73c3c69bb8fe3d512ecc4cf759cc79239f7b179b0ffacaa9a75d522b39400f\n    /* \"contracts/Mooniswap.sol\":3582:3588  name() */\n  tag_14\n    /* \"contracts/Mooniswap.sol\":3582:3586  name */\n  tag_15\n    /* \"contracts/Mooniswap.sol\":3582:3588  name() */\n  jump\t// in\ntag_14:\n    /* \"contracts/Mooniswap.sol\":3566:3590  keccak256(bytes(name())) */\n  dup1\n  mload\n  0x20\n  swap2\n  dup3\n  add\n  keccak256\n    /* \"contracts/Mooniswap.sol\":3618:3628  bytes('1') */\n  0x40\n  dup1\n  mload\n  dup1\n  dup3\n  add\n  dup3\n  mstore\n  0x01\n  dup2\n  mstore\n  shl(0xf8, 0x31)\n  swap1\n  dup5\n  add\n  mstore\n    /* \"contracts/Mooniswap.sol\":3425:3699  abi.encode(... */\n  dup1\n  mload\n  dup1\n  dup5\n  add\n  swap5\n  swap1\n  swap5\n  mstore\n  dup4\n  dup2\n  add\n  swap2\n  swap1\n  swap2\n  mstore\n    /* \"contracts/Mooniswap.sol\":3608:3629  keccak256(bytes('1')) */\n  0xc89efdaa54c0f20c7adf612882df0950f5a951637e0307cdcb4c672f298b8bc6\n    /* \"contracts/Mooniswap.sol\":3425:3699  abi.encode(... */\n  0x60\n  dup5\n  add\n  mstore\n  0x80\n  dup4\n  add\n  swap4\n  swap1\n  swap4\n  mstore\n    /* \"contracts/Mooniswap.sol\":3680:3684  this */\n  address\n    /* \"contracts/Mooniswap.sol\":3425:3699  abi.encode(... */\n  0xa0\n  dup1\n  dup5\n  add\n  swap2\n  swap1\n  swap2\n  mstore\n  dup4\n  mload\n  dup1\n  dup5\n  sub\n  swap1\n  swap2\n  add\n  dup2\n  mstore\n  0xc0\n  swap1\n  swap3\n  add\n  swap1\n  swap3\n  mstore\n    /* \"contracts/Mooniswap.sol\":3402:3709  keccak256(... */\n  dup1\n  mload\n  swap2\n  add\n  keccak256\n    /* \"contracts/Mooniswap.sol\":3383:3399  DOMAIN_SEPARATOR */\n  0x08\n    /* \"contracts/Mooniswap.sol\":3383:3709  DOMAIN_SEPARATOR = keccak256(... */\n  sstore\n    /* \"contracts/Mooniswap.sol\":1561:12794  contract Mooniswap is ERC20, ReentrancyGuard, Ownable {... */\n  jump(tag_16)\n    /* \"@openzeppelin/contracts/GSN/Context.sol\":590:694  function _msgSender() internal view virtual returns (address payable) {... */\ntag_12:\n    /* \"@openzeppelin/contracts/GSN/Context.sol\":677:687  msg.sender */\n  caller\n    /* \"@openzeppelin/contracts/GSN/Context.sol\":590:694  function _msgSender() internal view virtual returns (address payable) {... */\n  swap1\n  jump\t// out\n    /* \"@openzeppelin/contracts/token/ERC20/ERC20.sol\":2219:2300  function name() public view returns (string memory) {... */\ntag_15:\n    /* \"@openzeppelin/contracts/token/ERC20/ERC20.sol\":2288:2293  _name */\n  0x03\n    /* \"@openzeppelin/contracts/token/ERC20/ERC20.sol\":2281:2293  return _name */\n  dup1\n  sload\n  0x40\n  dup1\n  mload\n  0x20\n  0x1f\n  0x02\n  not(0x00)\n  0x0100\n  0x01\n  dup9\n  and\n  iszero\n  mul\n  add\n  swap1\n  swap6\n  and\n  swap5\n  swap1\n  swap5\n  div\n  swap4\n  dup5\n  add\n  dup2\n  swap1\n  div\n  dup2\n  mul\n  dup3\n  add\n  dup2\n  add\n  swap1\n  swap3\n  mstore\n  dup3\n  dup2\n  mstore\n    /* \"@openzeppelin/contracts/token/ERC20/ERC20.sol\":2256:2269  string memory */\n  0x60\n  swap4\n    /* \"@openzeppelin/contracts/token/ERC20/ERC20.sol\":2281:2293  return _name */\n  swap1\n  swap3\n    /* \"@openzeppelin/contracts/token/ERC20/ERC20.sol\":2288:2293  _name */\n  swap1\n  swap2\n    /* \"@openzeppelin/contracts/token/ERC20/ERC20.sol\":2281:2293  return _name */\n  dup4\n  add\n    /* \"@openzeppelin/contracts/token/ERC20/ERC20.sol\":2288:2293  _name */\n  dup3\n    /* \"@openzeppelin/contracts/token/ERC20/ERC20.sol\":2281:2293  return _name */\n  dup3\n  dup1\n  iszero\n  tag_19\n  jumpi\n  dup1\n  0x1f\n  lt\n  tag_20\n  jumpi\n  0x0100\n  dup1\n  dup4\n  sload\n  div\n  mul\n  dup4\n  mstore\n  swap2\n  0x20\n  add\n  swap2\n  jump(tag_19)\ntag_20:\n  dup3\n  add\n  swap2\n  swap1\n  0x00\n  mstore\n  keccak256(0x00, 0x20)\n  swap1\ntag_21:\n  dup2\n  sload\n  dup2\n  mstore\n  swap1\n  0x01\n  add\n  swap1\n  0x20\n  add\n  dup1\n  dup4\n  gt\n  tag_21\n  jumpi\n  dup3\n  swap1\n  sub\n  0x1f\n  and\n  dup3\n  add\n  swap2\ntag_19:\n  pop\n  pop\n  pop\n  pop\n  pop\n  swap1\n  pop\n    /* \"@openzeppelin/contracts/token/ERC20/ERC20.sol\":2219:2300  function name() public view returns (string memory) {... */\n  swap1\n  jump\t// out\n    /* \"contracts/Mooniswap.sol\":1561:12794  contract Mooniswap is ERC20, ReentrancyGuard, Ownable {... */\ntag_7:\n  dup3\n  dup1\n  sload\n  0x01\n  dup2\n  0x01\n  and\n  iszero\n  0x0100\n  mul\n  sub\n  and\n  0x02\n  swap1\n  div\n  swap1\n  0x00\n  mstore\n  keccak256(0x00, 0x20)\n  swap1\n  0x1f\n  add\n  0x20\n  swap1\n  div\n  dup2\n  add\n  swap3\n  dup3\n  0x1f\n  lt\n  tag_23\n  jumpi\n  dup1\n  mload\n  not(0xff)\n  and\n  dup4\n  dup1\n  add\n  or\n  dup6\n  sstore\n  jump(tag_25)\ntag_23:\n  dup3\n  dup1\n  add\n  0x01\n  add\n  dup6\n  sstore\n  dup3\n  iszero\n  tag_25\n  jumpi\n  swap2\n  dup3\n  add\ntag_24:\n  dup3\n  dup2\n  gt\n  iszero\n  tag_25\n  jumpi\n  dup3\n  mload\n  dup3\n  sstore\n  swap2\n  0x20\n  add\n  swap2\n  swap1\n  0x01\n  add\n  swap1\n  jump(tag_24)\ntag_25:\n  pop\n  tag_26\n  swap3\n  swap2\n  pop\n  tag_27\n  jump\t// in\ntag_26:\n  pop\n  swap1\n  jump\t// out\ntag_27:\ntag_28:\n  dup1\n  dup3\n  gt\n  iszero\n  tag_26\n  jumpi\n  0x00\n  dup2\n  sstore\n  0x01\n  add\n  jump(tag_28)\ntag_16:\n  dataSize(sub_0)\n  dup1\n  dataOffset(sub_0)\n  0x00\n  codecopy\n  0x00\n  return\nstop\n\nsub_0: assembly {\n        /* \"contracts/Mooniswap.sol\":1561:12794  contract Mooniswap is ERC20, ReentrancyGuard, Ownable {... */\n      mstore(0x40, 0x80)\n      jumpi(tag_1, lt(calldatasize, 0x04))\n      shr(0xe0, calldataload(0x00))\n      dup1\n      0x8da5cb5b\n      gt\n      tag_40\n      jumpi\n      dup1\n      0xc45a0155\n      gt\n      tag_41\n      jumpi\n      dup1\n      0xdd62ed3e\n      gt\n      tag_42\n      jumpi\n      dup1\n      0xdd62ed3e\n      eq\n      tag_35\n      jumpi\n      dup1\n      0xddca3f43\n      eq\n      tag_36\n      jumpi\n      dup1\n      0xe7ff42c9\n      eq\n      tag_37\n      jumpi\n      dup1\n      0xf223885a\n      eq\n      tag_38\n      jumpi\n      dup1\n      0xf2fde38b\n      eq\n      tag_39\n      jumpi\n      jump(tag_1)\n    tag_42:\n      dup1\n      0xc45a0155\n      eq\n      tag_30\n      jumpi\n      dup1\n      0xd505accf\n      eq\n      tag_31\n      jumpi\n      dup1\n      0xd5bcb9b5\n      eq\n      tag_32\n      jumpi\n      dup1\n      0xd73792a9\n      eq\n      tag_33\n      jumpi\n      dup1\n      0xd7d3aab5\n      eq\n      tag_34\n      jumpi\n      jump(tag_1)\n    tag_41:\n      dup1\n      0xa9059cbb\n      gt\n      tag_43\n      jumpi\n      dup1\n      0xa9059cbb\n      eq\n      tag_25\n      jumpi\n      dup1\n      0xaa6ca808\n      eq\n      tag_26\n      jumpi\n      dup1\n      0xb1ec4c40\n      eq\n      tag_27\n      jumpi\n      dup1\n      0xb21b5a21\n      eq\n      tag_28\n      jumpi\n      dup1\n      0xbaf13a0a\n      eq\n      tag_29\n      jumpi\n      jump(tag_1)\n    tag_43:\n      dup1\n      0x8da5cb5b\n      eq\n      tag_21\n      jumpi\n      dup1\n      0x95d89b41\n      eq\n      tag_22\n      jumpi\n      dup1\n      0xa224cee7\n      eq\n      tag_23\n      jumpi\n      dup1\n      0xa457c2d7\n      eq\n      tag_24\n      jumpi\n      jump(tag_1)\n    tag_40:\n      dup1\n      0x39509351\n      gt\n      tag_44\n      jumpi\n      dup1\n      0x6edc2c09\n      gt\n      tag_45\n      jumpi\n      dup1\n      0x6edc2c09\n      eq\n      tag_16\n      jumpi\n      dup1\n      0x70a08231\n      eq\n      tag_17\n      jumpi\n      dup1\n      0x715018a6\n      eq\n      tag_18\n      jumpi\n      dup1\n      0x78e3214f\n      eq\n      tag_19\n      jumpi\n      dup1\n      0x7ecebe00\n      eq\n      tag_20\n      jumpi\n      jump(tag_1)\n    tag_45:\n      dup1\n      0x39509351\n      eq\n      tag_11\n      jumpi\n      dup1\n      0x48d67e1b\n      eq\n      tag_12\n      jumpi\n      dup1\n      0x4f64b2be\n      eq\n      tag_13\n      jumpi\n      dup1\n      0x5915d806\n      eq\n      tag_14\n      jumpi\n      dup1\n      0x5ed9156d\n      eq\n      tag_15\n      jumpi\n      jump(tag_1)\n    tag_44:\n      dup1\n      0x1e1401f8\n      gt\n      tag_46\n      jumpi\n      dup1\n      0x1e1401f8\n      eq\n      tag_6\n      jumpi\n      dup1\n      0x23b872dd\n      eq\n      tag_7\n      jumpi\n      dup1\n      0x30adf81f\n      eq\n      tag_8\n      jumpi\n      dup1\n      0x313ce567\n      eq\n      tag_9\n      jumpi\n      dup1\n      0x3644e515\n      eq\n      tag_10\n      jumpi\n      jump(tag_1)\n    tag_46:\n      dup1\n      0x06fdde03\n      eq\n      tag_2\n      jumpi\n      dup1\n      0x095ea7b3\n      eq\n      tag_3\n      jumpi\n      dup1\n      0x18160ddd\n      eq\n      tag_4\n      jumpi\n      dup1\n      0x19f37361\n      eq\n      tag_5\n      jumpi\n    tag_1:\n      0x00\n      dup1\n      revert\n        /* \"@openzeppelin/contracts/token/ERC20/ERC20.sol\":2219:2300  function name() public view returns (string memory) {... */\n    tag_2:\n      callvalue\n      dup1\n      iszero\n      tag_47\n      jumpi\n      0x00\n      dup1\n      revert\n    tag_47:\n      pop\n      tag_48\n      tag_49\n      jump\t// in\n    tag_48:\n      0x40\n      dup1\n      mload\n      0x20\n      dup1\n      dup3\n      mstore\n      dup4\n      mload\n      dup2\n      dup4\n      add\n      mstore\n      dup4\n      mload\n      swap2\n      swap3\n      dup4\n      swap3\n      swap1\n      dup4\n      add\n      swap2\n      dup6\n      add\n      swap1\n      dup1\n      dup4\n      dup4\n      0x00\n    tag_50:\n      dup4\n      dup2\n      lt\n      iszero\n      tag_52\n      jumpi\n      dup2\n      dup2\n      add\n      mload\n      dup4\n      dup3\n      add\n      mstore\n      0x20\n      add\n      jump(tag_50)\n    tag_52:\n      pop\n      pop\n      pop\n      pop\n      swap1\n      pop\n      swap1\n      dup2\n      add\n      swap1\n      0x1f\n      and\n      dup1\n      iszero\n      tag_53\n      jumpi\n      dup1\n      dup3\n      sub\n      dup1\n      mload\n      0x01\n      dup4\n      0x20\n      sub\n      0x0100\n      exp\n      sub\n      not\n      and\n      dup2\n      mstore\n      0x20\n      add\n      swap2\n      pop\n    tag_53:\n      pop\n      swap3\n      pop\n      pop\n      pop\n      mload(0x40)\n      dup1\n      swap2\n      sub\n      swap1\n      return\n        /* \"@openzeppelin/contracts/token/ERC20/ERC20.sol\":4255:4421  function approve(address spender, uint256 amount) public virtual override returns (bool) {... */\n    tag_3:\n      callvalue\n      dup1\n      iszero\n      tag_54\n      jumpi\n      0x00\n      dup1\n      revert\n    tag_54:\n      pop\n      tag_55\n      0x04\n      dup1\n      calldatasize\n      sub\n      0x40\n      dup2\n      lt\n      iszero\n      tag_56\n      jumpi\n      0x00\n      dup1\n      revert\n    tag_56:\n      pop\n      sub(shl(0xa0, 0x01), 0x01)\n      dup2\n      calldataload\n      and\n      swap1\n      0x20\n      add\n      calldataload\n      tag_57\n      jump\t// in\n    tag_55:\n      0x40\n      dup1\n      mload\n      swap2\n      iszero\n      iszero\n      dup3\n      mstore\n      mload\n      swap1\n      dup2\n      swap1\n      sub\n      0x20\n      add\n      swap1\n      return\n        /* \"@openzeppelin/contracts/token/ERC20/ERC20.sol\":3262:3360  function totalSupply() public view override returns (uint256) {... */\n    tag_4:\n      callvalue\n      dup1\n      iszero\n      tag_58\n      jumpi\n      0x00\n      dup1\n      revert\n    tag_58:\n      pop\n      tag_59\n      tag_60\n      jump\t// in\n    tag_59:\n      0x40\n      dup1\n      mload\n      swap2\n      dup3\n      mstore\n      mload\n      swap1\n      dup2\n      swap1\n      sub\n      0x20\n      add\n      swap1\n      return\n        /* \"contracts/Mooniswap.sol\":2939:2977  mapping(IERC20 => bool) public isToken */\n    tag_5:\n      callvalue\n      dup1\n      iszero\n      tag_61\n      jumpi\n      0x00\n      dup1\n      revert\n    tag_61:\n      pop\n      tag_55\n      0x04\n      dup1\n      calldatasize\n      sub\n      0x20\n      dup2\n      lt\n      iszero\n      tag_63\n      jumpi\n      0x00\n      dup1\n      revert\n    tag_63:\n      pop\n      calldataload\n      sub(shl(0xa0, 0x01), 0x01)\n      and\n      tag_64\n      jump\t// in\n        /* \"contracts/Mooniswap.sol\":4925:5122  function getReturn(IERC20 src, IERC20 dst, uint256 amount) external view returns(uint256) {... */\n    tag_6:\n      callvalue\n      dup1\n      iszero\n      tag_65\n      jumpi\n      0x00\n      dup1\n      revert\n    tag_65:\n      pop\n      tag_59\n      0x04\n      dup1\n      calldatasize\n      sub\n      0x60\n      dup2\n      lt\n      iszero\n      tag_67\n      jumpi\n      0x00\n      dup1\n      revert\n    tag_67:\n      pop\n      sub(shl(0xa0, 0x01), 0x01)\n      dup2\n      calldataload\n      dup2\n      and\n      swap2\n      0x20\n      dup2\n      add\n      calldataload\n      swap1\n      swap2\n      and\n      swap1\n      0x40\n      add\n      calldataload\n      tag_68\n      jump\t// in\n        /* \"@openzeppelin/contracts/token/ERC20/ERC20.sol\":4881:5198  function transferFrom(address sender, address recipient, uint256 amount) public virtual override returns (bool) {... */\n    tag_7:\n      callvalue\n      dup1\n      iszero\n      tag_69\n      jumpi\n      0x00\n      dup1\n      revert\n    tag_69:\n      pop\n      tag_55\n      0x04\n      dup1\n      calldatasize\n      sub\n      0x60\n      dup2\n      lt\n      iszero\n      tag_71\n      jumpi\n      0x00\n      dup1\n      revert\n    tag_71:\n      pop\n      sub(shl(0xa0, 0x01), 0x01)\n      dup2\n      calldataload\n      dup2\n      and\n      swap2\n      0x20\n      dup2\n      add\n      calldataload\n      swap1\n      swap2\n      and\n      swap1\n      0x40\n      add\n      calldataload\n      tag_72\n      jump\t// in\n        /* \"contracts/Mooniswap.sol\":2722:2830  bytes32 public constant PERMIT_TYPEHASH = 0x6e71edae12b1b97f4d1f60370fef10105fa2faae0126114a169c64845d6126c9 */\n    tag_8:\n      callvalue\n      dup1\n      iszero\n      tag_73\n      jumpi\n      0x00\n      dup1\n      revert\n    tag_73:\n      pop\n      tag_59\n      tag_75\n      jump\t// in\n        /* \"@openzeppelin/contracts/token/ERC20/ERC20.sol\":3121:3202  function decimals() public view returns (uint8) {... */\n    tag_9:\n      callvalue\n      dup1\n      iszero\n      tag_76\n      jumpi\n      0x00\n      dup1\n      revert\n    tag_76:\n      pop\n      tag_77\n      tag_78\n      jump\t// in\n    tag_77:\n      0x40\n      dup1\n      mload\n      0xff\n      swap1\n      swap3\n      and\n      dup3\n      mstore\n      mload\n      swap1\n      dup2\n      swap1\n      sub\n      0x20\n      add\n      swap1\n      return\n        /* \"contracts/Mooniswap.sol\":2581:2612  bytes32 public DOMAIN_SEPARATOR */\n    tag_10:\n      callvalue\n      dup1\n      iszero\n      tag_79\n      jumpi\n      0x00\n      dup1\n      revert\n    tag_79:\n      pop\n      tag_59\n      tag_81\n      jump\t// in\n        /* \"@openzeppelin/contracts/token/ERC20/ERC20.sol\":5593:5808  function increaseAllowance(address spender, uint256 addedValue) public virtual returns (bool) {... */\n    tag_11:\n      callvalue\n      dup1\n      iszero\n      tag_82\n      jumpi\n      0x00\n      dup1\n      revert\n    tag_82:\n      pop\n      tag_55\n      0x04\n      dup1\n      calldatasize\n      sub\n      0x40\n      dup2\n      lt\n      iszero\n      tag_84\n      jumpi\n      0x00\n      dup1\n      revert\n    tag_84:\n      pop\n      sub(shl(0xa0, 0x01), 0x01)\n      dup2\n      calldataload\n      and\n      swap1\n      0x20\n      add\n      calldataload\n      tag_85\n      jump\t// in\n        /* \"contracts/Mooniswap.sol\":4348:4453  function decayPeriod() external pure returns(uint256) {... */\n    tag_12:\n      callvalue\n      dup1\n      iszero\n      tag_86\n      jumpi\n      0x00\n      dup1\n      revert\n    tag_86:\n      pop\n      tag_59\n      tag_88\n      jump\t// in\n        /* \"contracts/Mooniswap.sol\":2867:2889  IERC20[] public tokens */\n    tag_13:\n      callvalue\n      dup1\n      iszero\n      tag_89\n      jumpi\n      0x00\n      dup1\n      revert\n    tag_89:\n      pop\n      tag_90\n      0x04\n      dup1\n      calldatasize\n      sub\n      0x20\n      dup2\n      lt\n      iszero\n      tag_91\n      jumpi\n      0x00\n      dup1\n      revert\n    tag_91:\n      pop\n      calldataload\n      tag_92\n      jump\t// in\n    tag_90:\n      0x40\n      dup1\n      mload\n      sub(shl(0xa0, 0x01), 0x01)\n      swap1\n      swap3\n      and\n      dup3\n      mstore\n      mload\n      swap1\n      dup2\n      swap1\n      sub\n      0x20\n      add\n      swap1\n      return\n        /* \"contracts/Mooniswap.sol\":7723:8540  function withdraw(uint256 amount, uint256[] memory minReturns) external nonReentrant {... */\n    tag_14:\n      callvalue\n      dup1\n      iszero\n      tag_93\n      jumpi\n      0x00\n      dup1\n      revert\n    tag_93:\n      pop\n      tag_94\n      0x04\n      dup1\n      calldatasize\n      sub\n      0x40\n      dup2\n      lt\n      iszero\n      tag_95\n      jumpi\n      0x00\n      dup1\n      revert\n    tag_95:\n      dup2\n      calldataload\n      swap2\n      swap1\n      dup2\n      add\n      swap1\n      0x40\n      dup2\n      add\n      0x20\n      dup3\n      add\n      calldataload\n      shl(0x20, 0x01)\n      dup2\n      gt\n      iszero\n      tag_96\n      jumpi\n      0x00\n      dup1\n      revert\n    tag_96:\n      dup3\n      add\n      dup4\n      0x20\n      dup3\n      add\n      gt\n      iszero\n      tag_97\n      jumpi\n      0x00\n      dup1\n      revert\n    tag_97:\n      dup1\n      calldataload\n      swap1\n      0x20\n      add\n      swap2\n      dup5\n      0x20\n      dup4\n      mul\n      dup5\n      add\n      gt\n      shl(0x20, 0x01)\n      dup4\n      gt\n      or\n      iszero\n      tag_98\n      jumpi\n      0x00\n      dup1\n      revert\n    tag_98:\n      swap2\n      swap1\n      dup1\n      dup1\n      0x20\n      mul\n      0x20\n      add\n      mload(0x40)\n      swap1\n      dup2\n      add\n      0x40\n      mstore\n      dup1\n      swap4\n      swap3\n      swap2\n      swap1\n      dup2\n      dup2\n      mstore\n      0x20\n      add\n      dup4\n      dup4\n      0x20\n      mul\n      dup1\n      dup3\n      dup5\n      calldatacopy\n      0x00\n      swap3\n      add\n      swap2\n      swap1\n      swap2\n      mstore\n      pop\n      swap3\n      swap6\n      pop\n      tag_99\n      swap5\n      pop\n      pop\n      pop\n      pop\n      pop\n      jump\t// in\n    tag_94:\n      stop\n        /* \"contracts/Mooniswap.sol\":3112:3183  mapping(IERC20 => VirtualBalance.Data) public virtualBalancesForRemoval */\n    tag_15:\n      callvalue\n      dup1\n      iszero\n      tag_100\n      jumpi\n      0x00\n      dup1\n      revert\n    tag_100:\n      pop\n      tag_101\n      0x04\n      dup1\n      calldatasize\n      sub\n      0x20\n      dup2\n      lt\n      iszero\n      tag_102\n      jumpi\n      0x00\n      dup1\n      revert\n    tag_102:\n      pop\n      calldataload\n      sub(shl(0xa0, 0x01), 0x01)\n      and\n      tag_103\n      jump\t// in\n    tag_101:\n      0x40\n      dup1\n      mload\n      sub(shl(0xd8, 0x01), 0x01)\n      swap1\n      swap4\n      and\n      dup4\n      mstore\n      0xffffffffff\n      swap1\n      swap2\n      and\n      0x20\n      dup4\n      add\n      mstore\n      dup1\n      mload\n      swap2\n      dup3\n      swap1\n      sub\n      add\n      swap1\n      return\n        /* \"contracts/Mooniswap.sol\":3034:3106  mapping(IERC20 => VirtualBalance.Data) public virtualBalancesForAddition */\n    tag_16:\n      callvalue\n      dup1\n      iszero\n      tag_104\n      jumpi\n      0x00\n      dup1\n      revert\n    tag_104:\n      pop\n      tag_101\n      0x04\n      dup1\n      calldatasize\n      sub\n      0x20\n      dup2\n      lt\n      iszero\n      tag_106\n      jumpi\n      0x00\n      dup1\n      revert\n    tag_106:\n      pop\n      calldataload\n      sub(shl(0xa0, 0x01), 0x01)\n      and\n      tag_107\n      jump\t// in\n        /* \"@openzeppelin/contracts/token/ERC20/ERC20.sol\":3418:3535  function balanceOf(address account) public view override returns (uint256) {... */\n    tag_17:\n      callvalue\n      dup1\n      iszero\n      tag_108\n      jumpi\n      0x00\n      dup1\n      revert\n    tag_108:\n      pop\n      tag_59\n      0x04\n      dup1\n      calldatasize\n      sub\n      0x20\n      dup2\n      lt\n      iszero\n      tag_110\n      jumpi\n      0x00\n      dup1\n      revert\n    tag_110:\n      pop\n      calldataload\n      sub(shl(0xa0, 0x01), 0x01)\n      and\n      tag_111\n      jump\t// in\n        /* \"@openzeppelin/contracts/access/Ownable.sol\":1689:1834  function renounceOwnership() public virtual onlyOwner {... */\n    tag_18:\n      callvalue\n      dup1\n      iszero\n      tag_112\n      jumpi\n      0x00\n      dup1\n      revert\n    tag_112:\n      pop\n      tag_94\n      tag_114\n      jump\t// in\n        /* \"contracts/Mooniswap.sol\":11125:11710  function rescueFunds(IERC20 token, uint256 amount) external nonReentrant onlyOwner {... */\n    tag_19:\n      callvalue\n      dup1\n      iszero\n      tag_115\n      jumpi\n      0x00\n      dup1\n      revert\n    tag_115:\n      pop\n      tag_94\n      0x04\n      dup1\n      calldatasize\n      sub\n      0x40\n      dup2\n      lt\n      iszero\n      tag_117\n      jumpi\n      0x00\n      dup1\n      revert\n    tag_117:\n      pop\n      sub(shl(0xa0, 0x01), 0x01)\n      dup2\n      calldataload\n      and\n      swap1\n      0x20\n      add\n      calldataload\n      tag_118\n      jump\t// in\n        /* \"contracts/Mooniswap.sol\":2895:2933  mapping(address => uint) public nonces */\n    tag_20:\n      callvalue\n      dup1\n      iszero\n      tag_119\n      jumpi\n      0x00\n      dup1\n      revert\n    tag_119:\n      pop\n      tag_59\n      0x04\n      dup1\n      calldatasize\n      sub\n      0x20\n      dup2\n      lt\n      iszero\n      tag_121\n      jumpi\n      0x00\n      dup1\n      revert\n    tag_121:\n      pop\n      calldataload\n      sub(shl(0xa0, 0x01), 0x01)\n      and\n      tag_122\n      jump\t// in\n        /* \"@openzeppelin/contracts/access/Ownable.sol\":1066:1143  function owner() public view returns (address) {... */\n    tag_21:\n      callvalue\n      dup1\n      iszero\n      tag_123\n      jumpi\n      0x00\n      dup1\n      revert\n    tag_123:\n      pop\n      tag_90\n      tag_125\n      jump\t// in\n        /* \"@openzeppelin/contracts/token/ERC20/ERC20.sol\":2413:2498  function symbol() public view returns (string memory) {... */\n    tag_22:\n      callvalue\n      dup1\n      iszero\n      tag_126\n      jumpi\n      0x00\n      dup1\n      revert\n    tag_126:\n      pop\n      tag_48\n      tag_128\n      jump\t// in\n        /* \"contracts/Mooniswap.sol\":3727:4159  function initialize(IERC20[] memory assets) external {... */\n    tag_23:\n      callvalue\n      dup1\n      iszero\n      tag_133\n      jumpi\n      0x00\n      dup1\n      revert\n    tag_133:\n      pop\n      tag_94\n      0x04\n      dup1\n      calldatasize\n      sub\n      0x20\n      dup2\n      lt\n      iszero\n      tag_135\n      jumpi\n      0x00\n      dup1\n      revert\n    tag_135:\n      dup2\n      add\n      swap1\n      0x20\n      dup2\n      add\n      dup2\n      calldataload\n      shl(0x20, 0x01)\n      dup2\n      gt\n      iszero\n      tag_136\n      jumpi\n      0x00\n      dup1\n      revert\n    tag_136:\n      dup3\n      add\n      dup4\n      0x20\n      dup3\n      add\n      gt\n      iszero\n      tag_137\n      jumpi\n      0x00\n      dup1\n      revert\n    tag_137:\n      dup1\n      calldataload\n      swap1\n      0x20\n      add\n      swap2\n      dup5\n      0x20\n      dup4\n      mul\n      dup5\n      add\n      gt\n      shl(0x20, 0x01)\n      dup4\n      gt\n      or\n      iszero\n      tag_138\n      jumpi\n      0x00\n      dup1\n      revert\n    tag_138:\n      swap2\n      swap1\n      dup1\n      dup1\n      0x20\n      mul\n      0x20\n      add\n      mload(0x40)\n      swap1\n      dup2\n      add\n      0x40\n      mstore\n      dup1\n      swap4\n      swap3\n      swap2\n      swap1\n      dup2\n      dup2\n      mstore\n      0x20\n      add\n      dup4\n      dup4\n      0x20\n      mul\n      dup1\n      dup3\n      dup5\n      calldatacopy\n      0x00\n      swap3\n      add\n      swap2\n      swap1\n      swap2\n      mstore\n      pop\n      swap3\n      swap6\n      pop\n      tag_139\n      swap5\n      pop\n      pop\n      pop\n      pop\n      pop\n      jump\t// in\n        /* \"@openzeppelin/contracts/token/ERC20/ERC20.sol\":6295:6561  function decreaseAllowance(address spender, uint256 subtractedValue) public virtual returns (bool) {... */\n    tag_24:\n      callvalue\n      dup1\n      iszero\n      tag_140\n      jumpi\n      0x00\n      dup1\n      revert\n    tag_140:\n      pop\n      tag_55\n      0x04\n      dup1\n      calldatasize\n      sub\n      0x40\n      dup2\n      lt\n      iszero\n      tag_142\n      jumpi\n      0x00\n      dup1\n      revert\n    tag_142:\n      pop\n      sub(shl(0xa0, 0x01), 0x01)\n      dup2\n      calldataload\n      and\n      swap1\n      0x20\n      add\n      calldataload\n      tag_143\n      jump\t// in\n        /* \"@openzeppelin/contracts/token/ERC20/ERC20.sol\":3738:3910  function transfer(address recipient, uint256 amount) public virtual override returns (bool) {... */\n    tag_25:\n      callvalue\n      dup1\n      iszero\n      tag_144\n      jumpi\n      0x00\n      dup1\n      revert\n    tag_144:\n      pop\n      tag_55\n      0x04\n      dup1\n      calldatasize\n      sub\n      0x40\n      dup2\n      lt\n      iszero\n      tag_146\n      jumpi\n      0x00\n      dup1\n      revert\n    tag_146:\n      pop\n      sub(shl(0xa0, 0x01), 0x01)\n      dup2\n      calldataload\n      and\n      swap1\n      0x20\n      add\n      calldataload\n      tag_147\n      jump\t// in\n        /* \"contracts/Mooniswap.sol\":4252:4342  function getTokens() external view returns(IERC20[] memory) {... */\n    tag_26:\n      callvalue\n      dup1\n      iszero\n      tag_148\n      jumpi\n      0x00\n      dup1\n      revert\n    tag_148:\n      pop\n      tag_149\n      tag_150\n      jump\t// in\n    tag_149:\n      0x40\n      dup1\n      mload\n      0x20\n      dup1\n      dup3\n      mstore\n      dup4\n      mload\n      dup2\n      dup4\n      add\n      mstore\n      dup4\n      mload\n      swap2\n      swap3\n      dup4\n      swap3\n      swap1\n      dup4\n      add\n      swap2\n      dup6\n      dup2\n      add\n      swap2\n      mul\n      dup1\n      dup4\n      dup4\n      0x00\n    tag_151:\n      dup4\n      dup2\n      lt\n      iszero\n      tag_153\n      jumpi\n      dup2\n      dup2\n      add\n      mload\n      dup4\n      dup3\n      add\n      mstore\n      0x20\n      add\n      jump(tag_151)\n    tag_153:\n      pop\n      pop\n      pop\n      pop\n      swap1\n      pop\n      add\n      swap3\n      pop\n      pop\n      pop\n      mload(0x40)\n      dup1\n      swap2\n      sub\n      swap1\n      return\n        /* \"contracts/Mooniswap.sol\":2983:3028  mapping(IERC20 => SwapVolumes) public volumes */\n    tag_27:\n      callvalue\n      dup1\n      iszero\n      tag_154\n      jumpi\n      0x00\n      dup1\n      revert\n    tag_154:\n      pop\n      tag_155\n      0x04\n      dup1\n      calldatasize\n      sub\n      0x20\n      dup2\n      lt\n      iszero\n      tag_156\n      jumpi\n      0x00\n      dup1\n      revert\n    tag_156:\n      pop\n      calldataload\n      sub(shl(0xa0, 0x01), 0x01)\n      and\n      tag_157\n      jump\t// in\n    tag_155:\n      mload(0x40)\n      dup1\n      dup4\n      sub(shl(0x80, 0x01), 0x01)\n      and\n      dup2\n      mstore\n      0x20\n      add\n      dup3\n      sub(shl(0x80, 0x01), 0x01)\n      and\n      dup2\n      mstore\n      0x20\n      add\n      swap3\n      pop\n      pop\n      pop\n      mload(0x40)\n      dup1\n      swap2\n      sub\n      swap1\n      return\n        /* \"contracts/Mooniswap.sol\":2363:2406  uint256 public constant REFERRAL_SHARE = 20 */\n    tag_28:\n      callvalue\n      dup1\n      iszero\n      tag_158\n      jumpi\n      0x00\n      dup1\n      revert\n    tag_158:\n      pop\n      tag_59\n      tag_160\n      jump\t// in\n        /* \"contracts/Mooniswap.sol\":2443:2485  uint256 public constant BASE_SUPPLY = 1000 */\n    tag_29:\n      callvalue\n      dup1\n      iszero\n      tag_161\n      jumpi\n      0x00\n      dup1\n      revert\n    tag_161:\n      pop\n      tag_59\n      tag_163\n      jump\t// in\n        /* \"contracts/Mooniswap.sol\":2838:2861  IFactory public factory */\n    tag_30:\n      callvalue\n      dup1\n      iszero\n      tag_164\n      jumpi\n      0x00\n      dup1\n      revert\n    tag_164:\n      pop\n      tag_90\n      tag_166\n      jump\t// in\n        /* \"contracts/Mooniswap.sol\":12110:12792  function permit(address _owner, address spender, uint value, uint deadline, uint8 v, bytes32 r, bytes32 s) external {... */\n    tag_31:\n      callvalue\n      dup1\n      iszero\n      tag_167\n      jumpi\n      0x00\n      dup1\n      revert\n    tag_167:\n      pop\n      tag_94\n      0x04\n      dup1\n      calldatasize\n      sub\n      0xe0\n      dup2\n      lt\n      iszero\n      tag_169\n      jumpi\n      0x00\n      dup1\n      revert\n    tag_169:\n      pop\n      sub(shl(0xa0, 0x01), 0x01)\n      dup2\n      calldataload\n      dup2\n      and\n      swap2\n      0x20\n      dup2\n      add\n      calldataload\n      swap1\n      swap2\n      and\n      swap1\n      0x40\n      dup2\n      add\n      calldataload\n      swap1\n      0x60\n      dup2\n      add\n      calldataload\n      swap1\n      0xff\n      0x80\n      dup3\n      add\n      calldataload\n      and\n      swap1\n      0xa0\n      dup2\n      add\n      calldataload\n      swap1\n      0xc0\n      add\n      calldataload\n      tag_170\n      jump\t// in\n        /* \"contracts/Mooniswap.sol\":8546:11119  function swap(IERC20 src, IERC20 dst, uint256 amount, uint256 minReturn, address referral) external payable nonReentrant returns(uint256 result) {... */\n    tag_32:\n      tag_59\n      0x04\n      dup1\n      calldatasize\n      sub\n      0xa0\n      dup2\n      lt\n      iszero\n      tag_172\n      jumpi\n      0x00\n      dup1\n      revert\n    tag_172:\n      pop\n      sub(shl(0xa0, 0x01), 0x01)\n      dup2\n      calldataload\n      dup2\n      and\n      swap2\n      0x20\n      dup2\n      add\n      calldataload\n      dup3\n      and\n      swap2\n      0x40\n      dup3\n      add\n      calldataload\n      swap2\n      0x60\n      dup2\n      add\n      calldataload\n      swap2\n      0x80\n      swap1\n      swap2\n      add\n      calldataload\n      and\n      tag_173\n      jump\t// in\n        /* \"contracts/Mooniswap.sol\":2525:2571  uint256 public constant FEE_DENOMINATOR = 1e18 */\n    tag_33:\n      callvalue\n      dup1\n      iszero\n      tag_174\n      jumpi\n      0x00\n      dup1\n      revert\n    tag_174:\n      pop\n      tag_59\n      tag_176\n      jump\t// in\n        /* \"contracts/Mooniswap.sol\":4459:4687  function getBalanceForAddition(IERC20 token) public view returns(uint256) {... */\n    tag_34:\n      callvalue\n      dup1\n      iszero\n      tag_177\n      jumpi\n      0x00\n      dup1\n      revert\n    tag_177:\n      pop\n      tag_59\n      0x04\n      dup1\n      calldatasize\n      sub\n      0x20\n      dup2\n      lt\n      iszero\n      tag_179\n      jumpi\n      0x00\n      dup1\n      revert\n    tag_179:\n      pop\n      calldataload\n      sub(shl(0xa0, 0x01), 0x01)\n      and\n      tag_180\n      jump\t// in\n        /* \"@openzeppelin/contracts/token/ERC20/ERC20.sol\":3968:4117  function allowance(address owner, address spender) public view virtual override returns (uint256) {... */\n    tag_35:\n      callvalue\n      dup1\n      iszero\n      tag_181\n      jumpi\n      0x00\n      dup1\n      revert\n    tag_181:\n      pop\n      tag_59\n      0x04\n      dup1\n      calldatasize\n      sub\n      0x40\n      dup2\n      lt\n      iszero\n      tag_183\n      jumpi\n      0x00\n      dup1\n      revert\n    tag_183:\n      pop\n      sub(shl(0xa0, 0x01), 0x01)\n      dup2\n      calldataload\n      dup2\n      and\n      swap2\n      0x20\n      add\n      calldataload\n      and\n      tag_184\n      jump\t// in\n        /* \"contracts/Mooniswap.sol\":4165:4246  function fee() public view returns(uint256) {... */\n    tag_36:\n      callvalue\n      dup1\n      iszero\n      tag_185\n      jumpi\n      0x00\n      dup1\n      revert\n    tag_185:\n      pop\n      tag_59\n      tag_187\n      jump\t// in\n        /* \"contracts/Mooniswap.sol\":4693:4919  function getBalanceForRemoval(IERC20 token) public view returns(uint256) {... */\n    tag_37:\n      callvalue\n      dup1\n      iszero\n      tag_188\n      jumpi\n      0x00\n      dup1\n      revert\n    tag_188:\n      pop\n      tag_59\n      0x04\n      dup1\n      calldatasize\n      sub\n      0x20\n      dup2\n      lt\n      iszero\n      tag_190\n      jumpi\n      0x00\n      dup1\n      revert\n    tag_190:\n      pop\n      calldataload\n      sub(shl(0xa0, 0x01), 0x01)\n      and\n      tag_191\n      jump\t// in\n        /* \"contracts/Mooniswap.sol\":5128:7717  function deposit(uint256[] calldata amounts, uint256[] calldata minAmounts) external payable nonReentrant returns(uint256 fairSupply) {... */\n    tag_38:\n      tag_59\n      0x04\n      dup1\n      calldatasize\n      sub\n      0x40\n      dup2\n      lt\n      iszero\n      tag_193\n      jumpi\n      0x00\n      dup1\n      revert\n    tag_193:\n      dup2\n      add\n      swap1\n      0x20\n      dup2\n      add\n      dup2\n      calldataload\n      shl(0x20, 0x01)\n      dup2\n      gt\n      iszero\n      tag_194\n      jumpi\n      0x00\n      dup1\n      revert\n    tag_194:\n      dup3\n      add\n      dup4\n      0x20\n      dup3\n      add\n      gt\n      iszero\n      tag_195\n      jumpi\n      0x00\n      dup1\n      revert\n    tag_195:\n      dup1\n      calldataload\n      swap1\n      0x20\n      add\n      swap2\n      dup5\n      0x20\n      dup4\n      mul\n      dup5\n      add\n      gt\n      shl(0x20, 0x01)\n      dup4\n      gt\n      or\n      iszero\n      tag_196\n      jumpi\n      0x00\n      dup1\n      revert\n    tag_196:\n      swap2\n      swap4\n      swap1\n      swap3\n      swap1\n      swap2\n      0x20\n      dup2\n      add\n      swap1\n      calldataload\n      shl(0x20, 0x01)\n      dup2\n      gt\n      iszero\n      tag_197\n      jumpi\n      0x00\n      dup1\n      revert\n    tag_197:\n      dup3\n      add\n      dup4\n      0x20\n      dup3\n      add\n      gt\n      iszero\n      tag_198\n      jumpi\n      0x00\n      dup1\n      revert\n    tag_198:\n      dup1\n      calldataload\n      swap1\n      0x20\n      add\n      swap2\n      dup5\n      0x20\n      dup4\n      mul\n      dup5\n      add\n      gt\n      shl(0x20, 0x01)\n      dup4\n      gt\n      or\n      iszero\n      tag_199\n      jumpi\n      0x00\n      dup1\n      revert\n    tag_199:\n      pop\n      swap1\n      swap3\n      pop\n      swap1\n      pop\n      tag_200\n      jump\t// in\n        /* \"@openzeppelin/contracts/access/Ownable.sol\":1983:2223  function transferOwnership(address newOwner) public virtual onlyOwner {... */\n    tag_39:\n      callvalue\n      dup1\n      iszero\n      tag_201\n      jumpi\n      0x00\n      dup1\n      revert\n    tag_201:\n      pop\n      tag_94\n      0x04\n      dup1\n      calldatasize\n      sub\n      0x20\n      dup2\n      lt\n      iszero\n      tag_203\n      jumpi\n      0x00\n      dup1\n      revert\n    tag_203:\n      pop\n      calldataload\n      sub(shl(0xa0, 0x01), 0x01)\n      and\n      tag_204\n      jump\t// in\n        /* \"@openzeppelin/contracts/token/ERC20/ERC20.sol\":2219:2300  function name() public view returns (string memory) {... */\n    tag_49:\n        /* \"@openzeppelin/contracts/token/ERC20/ERC20.sol\":2288:2293  _name */\n      0x03\n        /* \"@openzeppelin/contracts/token/ERC20/ERC20.sol\":2281:2293  return _name */\n      dup1\n      sload\n      0x40\n      dup1\n      mload\n      0x20\n      0x1f\n      0x02\n      not(0x00)\n      0x0100\n      0x01\n      dup9\n      and\n      iszero\n      mul\n      add\n      swap1\n      swap6\n      and\n      swap5\n      swap1\n      swap5\n      div\n      swap4\n      dup5\n      add\n      dup2\n      swap1\n      div\n      dup2\n      mul\n      dup3\n      add\n      dup2\n      add\n      swap1\n      swap3\n      mstore\n      dup3\n      dup2\n      mstore\n        /* \"@openzeppelin/contracts/token/ERC20/ERC20.sol\":2256:2269  string memory */\n      0x60\n      swap4\n        /* \"@openzeppelin/contracts/token/ERC20/ERC20.sol\":2281:2293  return _name */\n      swap1\n      swap3\n        /* \"@openzeppelin/contracts/token/ERC20/ERC20.sol\":2288:2293  _name */\n      swap1\n      swap2\n        /* \"@openzeppelin/contracts/token/ERC20/ERC20.sol\":2281:2293  return _name */\n      dup4\n      add\n        /* \"@openzeppelin/contracts/token/ERC20/ERC20.sol\":2288:2293  _name */\n      dup3\n        /* \"@openzeppelin/contracts/token/ERC20/ERC20.sol\":2281:2293  return _name */\n      dup3\n      dup1\n      iszero\n      tag_206\n      jumpi\n      dup1\n      0x1f\n      lt\n      tag_207\n      jumpi\n      0x0100\n      dup1\n      dup4\n      sload\n      div\n      mul\n      dup4\n      mstore\n      swap2\n      0x20\n      add\n      swap2\n      jump(tag_206)\n    tag_207:\n      dup3\n      add\n      swap2\n      swap1\n      0x00\n      mstore\n      keccak256(0x00, 0x20)\n      swap1\n    tag_208:\n      dup2\n      sload\n      dup2\n      mstore\n      swap1\n      0x01\n      add\n      swap1\n      0x20\n      add\n      dup1\n      dup4\n      gt\n      tag_208\n      jumpi\n      dup3\n      swap1\n      sub\n      0x1f\n      and\n      dup3\n      add\n      swap2\n    tag_206:\n      pop\n      pop\n      pop\n      pop\n      pop\n      swap1\n      pop\n        /* \"@openzeppelin/contracts/token/ERC20/ERC20.sol\":2219:2300  function name() public view returns (string memory) {... */\n      swap1\n      jump\t// out\n        /* \"@openzeppelin/contracts/token/ERC20/ERC20.sol\":4255:4421  function approve(address spender, uint256 amount) public virtual override returns (bool) {... */\n    tag_57:\n        /* \"@openzeppelin/contracts/token/ERC20/ERC20.sol\":4338:4342  bool */\n      0x00\n        /* \"@openzeppelin/contracts/token/ERC20/ERC20.sol\":4354:4393  _approve(_msgSender(), spender, amount) */\n      tag_210\n        /* \"@openzeppelin/contracts/token/ERC20/ERC20.sol\":4363:4375  _msgSender() */\n      tag_211\n        /* \"@openzeppelin/contracts/token/ERC20/ERC20.sol\":4363:4373  _msgSender */\n      tag_212\n        /* \"@openzeppelin/contracts/token/ERC20/ERC20.sol\":4363:4375  _msgSender() */\n      jump\t// in\n    tag_211:\n        /* \"@openzeppelin/contracts/token/ERC20/ERC20.sol\":4377:4384  spender */\n      dup5\n        /* \"@openzeppelin/contracts/token/ERC20/ERC20.sol\":4386:4392  amount */\n      dup5\n        /* \"@openzeppelin/contracts/token/ERC20/ERC20.sol\":4354:4362  _approve */\n      tag_213\n        /* \"@openzeppelin/contracts/token/ERC20/ERC20.sol\":4354:4393  _approve(_msgSender(), spender, amount) */\n      jump\t// in\n    tag_210:\n      pop\n        /* \"@openzeppelin/contracts/token/ERC20/ERC20.sol\":4410:4414  true */\n      0x01\n        /* \"@openzeppelin/contracts/token/ERC20/ERC20.sol\":4255:4421  function approve(address spender, uint256 amount) public virtual override returns (bool) {... */\n    tag_209:\n      swap3\n      swap2\n      pop\n      pop\n      jump\t// out\n        /* \"@openzeppelin/contracts/token/ERC20/ERC20.sol\":3262:3360  function totalSupply() public view override returns (uint256) {... */\n    tag_60:\n        /* \"@openzeppelin/contracts/token/ERC20/ERC20.sol\":3341:3353  _totalSupply */\n      sload(0x02)\n        /* \"@openzeppelin/contracts/token/ERC20/ERC20.sol\":3262:3360  function totalSupply() public view override returns (uint256) {... */\n      swap1\n      jump\t// out\n        /* \"contracts/Mooniswap.sol\":2939:2977  mapping(IERC20 => bool) public isToken */\n    tag_64:\n      mstore(0x20, 0x0c)\n      0x00\n      swap1\n      dup2\n      mstore\n      0x40\n      swap1\n      keccak256\n      sload\n      0xff\n      and\n      dup2\n      jump\t// out\n        /* \"contracts/Mooniswap.sol\":4925:5122  function getReturn(IERC20 src, IERC20 dst, uint256 amount) external view returns(uint256) {... */\n    tag_68:\n        /* \"contracts/Mooniswap.sol\":5006:5013  uint256 */\n      0x00\n        /* \"contracts/Mooniswap.sol\":5032:5115  _getReturn(src, dst, amount, getBalanceForAddition(src), getBalanceForRemoval(dst)) */\n      tag_216\n        /* \"contracts/Mooniswap.sol\":5043:5046  src */\n      dup5\n        /* \"contracts/Mooniswap.sol\":5048:5051  dst */\n      dup5\n        /* \"contracts/Mooniswap.sol\":5053:5059  amount */\n      dup5\n        /* \"contracts/Mooniswap.sol\":5061:5087  getBalanceForAddition(src) */\n      tag_217\n        /* \"contracts/Mooniswap.sol\":5083:5086  src */\n      dup9\n        /* \"contracts/Mooniswap.sol\":5061:5082  getBalanceForAddition */\n      tag_180\n        /* \"contracts/Mooniswap.sol\":5061:5087  getBalanceForAddition(src) */\n      jump\t// in\n    tag_217:\n        /* \"contracts/Mooniswap.sol\":5089:5114  getBalanceForRemoval(dst) */\n      tag_218\n        /* \"contracts/Mooniswap.sol\":5110:5113  dst */\n      dup9\n        /* \"contracts/Mooniswap.sol\":5089:5109  getBalanceForRemoval */\n      tag_191\n        /* \"contracts/Mooniswap.sol\":5089:5114  getBalanceForRemoval(dst) */\n      jump\t// in\n    tag_218:\n        /* \"contracts/Mooniswap.sol\":5032:5042  _getReturn */\n      tag_219\n        /* \"contracts/Mooniswap.sol\":5032:5115  _getReturn(src, dst, amount, getBalanceForAddition(src), getBalanceForRemoval(dst)) */\n      jump\t// in\n    tag_216:\n        /* \"contracts/Mooniswap.sol\":5025:5115  return _getReturn(src, dst, amount, getBalanceForAddition(src), getBalanceForRemoval(dst)) */\n      swap5\n        /* \"contracts/Mooniswap.sol\":4925:5122  function getReturn(IERC20 src, IERC20 dst, uint256 amount) external view returns(uint256) {... */\n      swap4\n      pop\n      pop\n      pop\n      pop\n      jump\t// out\n        /* \"@openzeppelin/contracts/token/ERC20/ERC20.sol\":4881:5198  function transferFrom(address sender, address recipient, uint256 amount) public virtual override returns (bool) {... */\n    tag_72:\n        /* \"@openzeppelin/contracts/token/ERC20/ERC20.sol\":4987:4991  bool */\n      0x00\n        /* \"@openzeppelin/contracts/token/ERC20/ERC20.sol\":5003:5039  _transfer(sender, recipient, amount) */\n      tag_221\n        /* \"@openzeppelin/contracts/token/ERC20/ERC20.sol\":5013:5019  sender */\n      dup5\n        /* \"@openzeppelin/contracts/token/ERC20/ERC20.sol\":5021:5030  recipient */\n      dup5\n        /* \"@openzeppelin/contracts/token/ERC20/ERC20.sol\":5032:5038  amount */\n      dup5\n        /* \"@openzeppelin/contracts/token/ERC20/ERC20.sol\":5003:5012  _transfer */\n      tag_222\n        /* \"@openzeppelin/contracts/token/ERC20/ERC20.sol\":5003:5039  _transfer(sender, recipient, amount) */\n      jump\t// in\n    tag_221:\n        /* \"@openzeppelin/contracts/token/ERC20/ERC20.sol\":5049:5170  _approve(sender, _msgSender(), _allowances[sender][_msgSender()].sub(amount, \"ERC20: transfer amount exceeds allowance\")) */\n      tag_223\n        /* \"@openzeppelin/contracts/token/ERC20/ERC20.sol\":5058:5064  sender */\n      dup5\n        /* \"@openzeppelin/contracts/token/ERC20/ERC20.sol\":5066:5078  _msgSender() */\n      tag_224\n        /* \"@openzeppelin/contracts/token/ERC20/ERC20.sol\":5066:5076  _msgSender */\n      tag_212\n        /* \"@openzeppelin/contracts/token/ERC20/ERC20.sol\":5066:5078  _msgSender() */\n      jump\t// in\n    tag_224:\n        /* \"@openzeppelin/contracts/token/ERC20/ERC20.sol\":5080:5169  _allowances[sender][_msgSender()].sub(amount, \"ERC20: transfer amount exceeds allowance\") */\n      tag_225\n        /* \"@openzeppelin/contracts/token/ERC20/ERC20.sol\":5118:5124  amount */\n      dup6\n        /* \"@openzeppelin/contracts/token/ERC20/ERC20.sol\":5080:5169  _allowances[sender][_msgSender()].sub(amount, \"ERC20: transfer amount exceeds allowance\") */\n      mload(0x40)\n      dup1\n      0x60\n      add\n      0x40\n      mstore\n      dup1\n      0x28\n      dup2\n      mstore\n      0x20\n      add\n      data_974d1b4421da69cc60b481194f0dad36a5bb4e23da810da7a7fb30cdba178330\n      0x28\n      swap2\n      codecopy\n      sub(shl(0xa0, 0x01), 0x01)\n        /* \"@openzeppelin/contracts/token/ERC20/ERC20.sol\":5080:5099  _allowances[sender] */\n      dup11\n      and\n      0x00\n      swap1\n      dup2\n      mstore\n        /* \"@openzeppelin/contracts/token/ERC20/ERC20.sol\":5080:5091  _allowances */\n      0x01\n        /* \"@openzeppelin/contracts/token/ERC20/ERC20.sol\":5080:5099  _allowances[sender] */\n      0x20\n      mstore\n      0x40\n      dup2\n      keccak256\n      swap1\n        /* \"@openzeppelin/contracts/token/ERC20/ERC20.sol\":5100:5112  _msgSender() */\n      tag_226\n        /* \"@openzeppelin/contracts/token/ERC20/ERC20.sol\":5100:5110  _msgSender */\n      tag_212\n        /* \"@openzeppelin/contracts/token/ERC20/ERC20.sol\":5100:5112  _msgSender() */\n      jump\t// in\n    tag_226:\n      sub(shl(0xa0, 0x01), 0x01)\n        /* \"@openzeppelin/contracts/token/ERC20/ERC20.sol\":5080:5113  _allowances[sender][_msgSender()] */\n      and\n      dup2\n      mstore\n      0x20\n      dup2\n      add\n      swap2\n      swap1\n      swap2\n      mstore\n      0x40\n      add\n      0x00\n      keccak256\n      sload\n      swap2\n        /* \"@openzeppelin/contracts/token/ERC20/ERC20.sol\":5080:5169  _allowances[sender][_msgSender()].sub(amount, \"ERC20: transfer amount exceeds allowance\") */\n      swap1\n        /* \"@openzeppelin/contracts/token/ERC20/ERC20.sol\":5080:5117  _allowances[sender][_msgSender()].sub */\n      tag_227\n        /* \"@openzeppelin/contracts/token/ERC20/ERC20.sol\":5080:5169  _allowances[sender][_msgSender()].sub(amount, \"ERC20: transfer amount exceeds allowance\") */\n      jump\t// in\n    tag_225:\n        /* \"@openzeppelin/contracts/token/ERC20/ERC20.sol\":5049:5057  _approve */\n      tag_213\n        /* \"@openzeppelin/contracts/token/ERC20/ERC20.sol\":5049:5170  _approve(sender, _msgSender(), _allowances[sender][_msgSender()].sub(amount, \"ERC20: transfer amount exceeds allowance\")) */\n      jump\t// in\n    tag_223:\n      pop\n        /* \"@openzeppelin/contracts/token/ERC20/ERC20.sol\":5187:5191  true */\n      0x01\n        /* \"@openzeppelin/contracts/token/ERC20/ERC20.sol\":4881:5198  function transferFrom(address sender, address recipient, uint256 amount) public virtual override returns (bool) {... */\n      swap4\n      swap3\n      pop\n      pop\n      pop\n      jump\t// out\n        /* \"contracts/Mooniswap.sol\":2722:2830  bytes32 public constant PERMIT_TYPEHASH = 0x6e71edae12b1b97f4d1f60370fef10105fa2faae0126114a169c64845d6126c9 */\n    tag_75:\n        /* \"contracts/Mooniswap.sol\":2764:2830  0x6e71edae12b1b97f4d1f60370fef10105fa2faae0126114a169c64845d6126c9 */\n      0x6e71edae12b1b97f4d1f60370fef10105fa2faae0126114a169c64845d6126c9\n        /* \"contracts/Mooniswap.sol\":2722:2830  bytes32 public constant PERMIT_TYPEHASH = 0x6e71edae12b1b97f4d1f60370fef10105fa2faae0126114a169c64845d6126c9 */\n      dup2\n      jump\t// out\n        /* \"@openzeppelin/contracts/token/ERC20/ERC20.sol\":3121:3202  function decimals() public view returns (uint8) {... */\n    tag_78:\n        /* \"@openzeppelin/contracts/token/ERC20/ERC20.sol\":3186:3195  _decimals */\n      and(0xff, sload(0x05))\n        /* \"@openzeppelin/contracts/token/ERC20/ERC20.sol\":3121:3202  function decimals() public view returns (uint8) {... */\n      swap1\n      jump\t// out\n        /* \"contracts/Mooniswap.sol\":2581:2612  bytes32 public DOMAIN_SEPARATOR */\n    tag_81:\n      sload(0x08)\n      dup2\n      jump\t// out\n        /* \"@openzeppelin/contracts/token/ERC20/ERC20.sol\":5593:5808  function increaseAllowance(address spender, uint256 addedValue) public virtual returns (bool) {... */\n    tag_85:\n        /* \"@openzeppelin/contracts/token/ERC20/ERC20.sol\":5681:5685  bool */\n      0x00\n        /* \"@openzeppelin/contracts/token/ERC20/ERC20.sol\":5697:5780  _approve(_msgSender(), spender, _allowances[_msgSender()][spender].add(addedValue)) */\n      tag_210\n        /* \"@openzeppelin/contracts/token/ERC20/ERC20.sol\":5706:5718  _msgSender() */\n      tag_231\n        /* \"@openzeppelin/contracts/token/ERC20/ERC20.sol\":5706:5716  _msgSender */\n      tag_212\n        /* \"@openzeppelin/contracts/token/ERC20/ERC20.sol\":5706:5718  _msgSender() */\n      jump\t// in\n    tag_231:\n        /* \"@openzeppelin/contracts/token/ERC20/ERC20.sol\":5720:5727  spender */\n      dup5\n        /* \"@openzeppelin/contracts/token/ERC20/ERC20.sol\":5729:5779  _allowances[_msgSender()][spender].add(addedValue) */\n      tag_225\n        /* \"@openzeppelin/contracts/token/ERC20/ERC20.sol\":5768:5778  addedValue */\n      dup6\n        /* \"@openzeppelin/contracts/token/ERC20/ERC20.sol\":5729:5740  _allowances */\n      0x01\n        /* \"@openzeppelin/contracts/token/ERC20/ERC20.sol\":5729:5754  _allowances[_msgSender()] */\n      0x00\n        /* \"@openzeppelin/contracts/token/ERC20/ERC20.sol\":5741:5753  _msgSender() */\n      tag_233\n        /* \"@openzeppelin/contracts/token/ERC20/ERC20.sol\":5741:5751  _msgSender */\n      tag_212\n        /* \"@openzeppelin/contracts/token/ERC20/ERC20.sol\":5741:5753  _msgSender() */\n      jump\t// in\n    tag_233:\n      sub(shl(0xa0, 0x01), 0x01)\n        /* \"@openzeppelin/contracts/token/ERC20/ERC20.sol\":5729:5754  _allowances[_msgSender()] */\n      swap1\n      dup2\n      and\n      dup3\n      mstore\n      0x20\n      dup1\n      dup4\n      add\n      swap4\n      swap1\n      swap4\n      mstore\n      0x40\n      swap2\n      dup3\n      add\n      0x00\n      swap1\n      dup2\n      keccak256\n        /* \"@openzeppelin/contracts/token/ERC20/ERC20.sol\":5729:5763  _allowances[_msgSender()][spender] */\n      swap2\n      dup13\n      and\n      dup2\n      mstore\n      swap3\n      mstore\n      swap1\n      keccak256\n      sload\n      swap1\n        /* \"@openzeppelin/contracts/token/ERC20/ERC20.sol\":5729:5767  _allowances[_msgSender()][spender].add */\n      tag_234\n        /* \"@openzeppelin/contracts/token/ERC20/ERC20.sol\":5729:5779  _allowances[_msgSender()][spender].add(addedValue) */\n      jump\t// in\n        /* \"contracts/Mooniswap.sol\":4348:4453  function decayPeriod() external pure returns(uint256) {... */\n    tag_88:\n        /* \"contracts/Mooniswap.sol\":643:652  5 minutes */\n      0x012c\n        /* \"contracts/Mooniswap.sol\":4348:4453  function decayPeriod() external pure returns(uint256) {... */\n      swap1\n      jump\t// out\n        /* \"contracts/Mooniswap.sol\":2867:2889  IERC20[] public tokens */\n    tag_92:\n      0x0a\n      dup2\n      dup2\n      sload\n      dup2\n      lt\n      tag_236\n      jumpi\n      invalid\n    tag_236:\n      0x00\n      swap2\n      dup3\n      mstore\n      0x20\n      swap1\n      swap2\n      keccak256\n      add\n      sload\n      sub(shl(0xa0, 0x01), 0x01)\n      and\n      swap1\n      pop\n      dup2\n      jump\t// out\n        /* \"contracts/Mooniswap.sol\":7723:8540  function withdraw(uint256 amount, uint256[] memory minReturns) external nonReentrant {... */\n    tag_99:\n        /* \"@openzeppelin/contracts/utils/ReentrancyGuard.sol\":1671:1672  2 */\n      0x02\n        /* \"@openzeppelin/contracts/utils/ReentrancyGuard.sol\":2260:2267  _status */\n      sload(0x06)\n        /* \"@openzeppelin/contracts/utils/ReentrancyGuard.sol\":2260:2279  _status != _ENTERED */\n      eq\n      iszero\n        /* \"@openzeppelin/contracts/utils/ReentrancyGuard.sol\":2252:2315  require(_status != _ENTERED, \"ReentrancyGuard: reentrant call\") */\n      tag_239\n      jumpi\n      0x40\n      dup1\n      mload\n      shl(0xe5, 0x461bcd)\n      dup2\n      mstore\n      0x20\n      0x04\n      dup3\n      add\n      mstore\n      0x1f\n      0x24\n      dup3\n      add\n      mstore\n      0x00\n      dup1\n      mload\n      0x20\n      data_0d74825aecb0211bbe1f02ccfb998d9e49771bedb2c6414e20fd8978a2e0f54c\n      dup4\n      codecopy\n      dup2\n      mload\n      swap2\n      mstore\n      0x44\n      dup3\n      add\n      mstore\n      swap1\n      mload\n      swap1\n      dup2\n      swap1\n      sub\n      0x64\n      add\n      swap1\n      revert\n    tag_239:\n        /* \"@openzeppelin/contracts/utils/ReentrancyGuard.sol\":1671:1672  2 */\n      0x02\n        /* \"@openzeppelin/contracts/utils/ReentrancyGuard.sol\":2390:2397  _status */\n      0x06\n        /* \"@openzeppelin/contracts/utils/ReentrancyGuard.sol\":2390:2408  _status = _ENTERED */\n      sstore\n        /* \"contracts/Mooniswap.sol\":7818:7837  uint256 totalSupply */\n      0x00\n        /* \"contracts/Mooniswap.sol\":7840:7853  totalSupply() */\n      tag_241\n        /* \"contracts/Mooniswap.sol\":7840:7851  totalSupply */\n      tag_60\n        /* \"contracts/Mooniswap.sol\":7840:7853  totalSupply() */\n      jump\t// in\n    tag_241:\n        /* \"contracts/Mooniswap.sol\":7818:7853  uint256 totalSupply = totalSupply() */\n      swap1\n      pop\n        /* \"contracts/Mooniswap.sol\":7863:7888  _burn(msg.sender, amount) */\n      tag_242\n        /* \"contracts/Mooniswap.sol\":7869:7879  msg.sender */\n      caller\n        /* \"contracts/Mooniswap.sol\":7881:7887  amount */\n      dup5\n        /* \"contracts/Mooniswap.sol\":7863:7868  _burn */\n      tag_243\n        /* \"contracts/Mooniswap.sol\":7863:7888  _burn(msg.sender, amount) */\n      jump\t// in\n    tag_242:\n        /* \"contracts/Mooniswap.sol\":7904:7910  uint i */\n      0x00\n        /* \"contracts/Mooniswap.sol\":7899:8489  for (uint i = 0; i < tokens.length; i++) {... */\n    tag_244:\n        /* \"contracts/Mooniswap.sol\":7920:7926  tokens */\n      0x0a\n        /* \"contracts/Mooniswap.sol\":7920:7933  tokens.length */\n      sload\n        /* \"contracts/Mooniswap.sol\":7916:7933  i < tokens.length */\n      dup2\n      lt\n        /* \"contracts/Mooniswap.sol\":7899:8489  for (uint i = 0; i < tokens.length; i++) {... */\n      iszero\n      tag_245\n      jumpi\n        /* \"contracts/Mooniswap.sol\":7954:7966  IERC20 token */\n      0x00\n        /* \"contracts/Mooniswap.sol\":7969:7975  tokens */\n      0x0a\n        /* \"contracts/Mooniswap.sol\":7976:7977  i */\n      dup3\n        /* \"contracts/Mooniswap.sol\":7969:7978  tokens[i] */\n      dup2\n      sload\n      dup2\n      lt\n      tag_247\n      jumpi\n      invalid\n    tag_247:\n      0x00\n      swap2\n      dup3\n      mstore\n      0x20\n      dup3\n      keccak256\n      add\n      sload\n      sub(shl(0xa0, 0x01), 0x01)\n      and\n      swap2\n      pop\n        /* \"contracts/Mooniswap.sol\":8014:8047  token.uniBalanceOf(address(this)) */\n      tag_249\n        /* \"contracts/Mooniswap.sol\":7969:7978  tokens[i] */\n      dup3\n        /* \"contracts/Mooniswap.sol\":8041:8045  this */\n      address\n        /* \"contracts/Mooniswap.sol\":8014:8032  token.uniBalanceOf */\n      tag_250\n        /* \"contracts/Mooniswap.sol\":8014:8047  token.uniBalanceOf(address(this)) */\n      jump\t// in\n    tag_249:\n        /* \"contracts/Mooniswap.sol\":7993:8047  uint256 preBalance = token.uniBalanceOf(address(this)) */\n      swap1\n      pop\n        /* \"contracts/Mooniswap.sol\":8061:8074  uint256 value */\n      0x00\n        /* \"contracts/Mooniswap.sol\":8077:8116  preBalance.mul(amount).div(totalSupply) */\n      tag_251\n        /* \"contracts/Mooniswap.sol\":8104:8115  totalSupply */\n      dup6\n        /* \"contracts/Mooniswap.sol\":8077:8099  preBalance.mul(amount) */\n      tag_252\n        /* \"contracts/Mooniswap.sol\":7993:8047  uint256 preBalance = token.uniBalanceOf(address(this)) */\n      dup5\n        /* \"contracts/Mooniswap.sol\":8092:8098  amount */\n      dup11\n        /* \"contracts/Mooniswap.sol\":8077:8091  preBalance.mul */\n      tag_253\n        /* \"contracts/Mooniswap.sol\":8077:8099  preBalance.mul(amount) */\n      jump\t// in\n    tag_252:\n        /* \"contracts/Mooniswap.sol\":8077:8103  preBalance.mul(amount).div */\n      swap1\n      tag_254\n        /* \"contracts/Mooniswap.sol\":8077:8116  preBalance.mul(amount).div(totalSupply) */\n      jump\t// in\n    tag_251:\n        /* \"contracts/Mooniswap.sol\":8061:8116  uint256 value = preBalance.mul(amount).div(totalSupply) */\n      swap1\n      pop\n        /* \"contracts/Mooniswap.sol\":8130:8166  token.uniTransfer(msg.sender, value) */\n      tag_255\n      sub(shl(0xa0, 0x01), 0x01)\n        /* \"contracts/Mooniswap.sol\":8130:8147  token.uniTransfer */\n      dup5\n      and\n        /* \"contracts/Mooniswap.sol\":8148:8158  msg.sender */\n      caller\n        /* \"contracts/Mooniswap.sol\":8061:8116  uint256 value = preBalance.mul(amount).div(totalSupply) */\n      dup4\n        /* \"contracts/Mooniswap.sol\":8130:8147  token.uniTransfer */\n      tag_256\n        /* \"contracts/Mooniswap.sol\":8130:8166  token.uniTransfer(msg.sender, value) */\n      jump\t// in\n    tag_255:\n        /* \"contracts/Mooniswap.sol\":8193:8203  minReturns */\n      dup6\n        /* \"contracts/Mooniswap.sol\":8193:8210  minReturns.length */\n      mload\n        /* \"contracts/Mooniswap.sol\":8188:8189  i */\n      dup5\n        /* \"contracts/Mooniswap.sol\":8188:8210  i >= minReturns.length */\n      lt\n      iszero\n        /* \"contracts/Mooniswap.sol\":8188:8236  i >= minReturns.length || value >= minReturns[i] */\n      dup1\n      tag_257\n      jumpi\n      pop\n        /* \"contracts/Mooniswap.sol\":8223:8233  minReturns */\n      dup6\n        /* \"contracts/Mooniswap.sol\":8234:8235  i */\n      dup5\n        /* \"contracts/Mooniswap.sol\":8223:8236  minReturns[i] */\n      dup2\n      mload\n      dup2\n      lt\n      tag_258\n      jumpi\n      invalid\n    tag_258:\n      0x20\n      mul\n      0x20\n      add\n      add\n      mload\n        /* \"contracts/Mooniswap.sol\":8214:8219  value */\n      dup2\n        /* \"contracts/Mooniswap.sol\":8214:8236  value >= minReturns[i] */\n      lt\n      iszero\n        /* \"contracts/Mooniswap.sol\":8188:8236  i >= minReturns.length || value >= minReturns[i] */\n    tag_257:\n        /* \"contracts/Mooniswap.sol\":8180:8272  require(i >= minReturns.length || value >= minReturns[i], \"Mooniswap: result is not enough\") */\n      tag_259\n      jumpi\n      0x40\n      dup1\n      mload\n      shl(0xe5, 0x461bcd)\n      dup2\n      mstore\n      0x20\n      0x04\n      dup3\n      add\n      mstore\n      0x1f\n      0x24\n      dup3\n      add\n      mstore\n      0x4d6f6f6e69737761703a20726573756c74206973206e6f7420656e6f75676800\n      0x44\n      dup3\n      add\n      mstore\n      swap1\n      mload\n      swap1\n      dup2\n      swap1\n      sub\n      0x64\n      add\n      swap1\n      revert\n    tag_259:\n        /* \"contracts/Mooniswap.sol\":8287:8376  virtualBalancesForAddition[token].scale(preBalance, totalSupply.sub(amount), totalSupply) */\n      tag_260\n        /* \"contracts/Mooniswap.sol\":8327:8337  preBalance */\n      dup3\n        /* \"contracts/Mooniswap.sol\":8339:8362  totalSupply.sub(amount) */\n      tag_261\n        /* \"contracts/Mooniswap.sol\":8339:8350  totalSupply */\n      dup8\n        /* \"contracts/Mooniswap.sol\":8355:8361  amount */\n      dup11\n        /* \"contracts/Mooniswap.sol\":8339:8354  totalSupply.sub */\n      tag_262\n        /* \"contracts/Mooniswap.sol\":8339:8362  totalSupply.sub(amount) */\n      jump\t// in\n    tag_261:\n      sub(shl(0xa0, 0x01), 0x01)\n        /* \"contracts/Mooniswap.sol\":8287:8320  virtualBalancesForAddition[token] */\n      dup7\n      and\n      0x00\n      swap1\n      dup2\n      mstore\n        /* \"contracts/Mooniswap.sol\":8287:8313  virtualBalancesForAddition */\n      0x0e\n        /* \"contracts/Mooniswap.sol\":8287:8320  virtualBalancesForAddition[token] */\n      0x20\n      mstore\n      0x40\n      swap1\n      keccak256\n      swap2\n        /* \"contracts/Mooniswap.sol\":8287:8376  virtualBalancesForAddition[token].scale(preBalance, totalSupply.sub(amount), totalSupply) */\n      swap1\n        /* \"contracts/Mooniswap.sol\":8364:8375  totalSupply */\n      dup9\n        /* \"contracts/Mooniswap.sol\":8287:8326  virtualBalancesForAddition[token].scale */\n      tag_263\n        /* \"contracts/Mooniswap.sol\":8287:8376  virtualBalancesForAddition[token].scale(preBalance, totalSupply.sub(amount), totalSupply) */\n      jump\t// in\n    tag_260:\n        /* \"contracts/Mooniswap.sol\":8390:8478  virtualBalancesForRemoval[token].scale(preBalance, totalSupply.sub(amount), totalSupply) */\n      tag_264\n        /* \"contracts/Mooniswap.sol\":8429:8439  preBalance */\n      dup3\n        /* \"contracts/Mooniswap.sol\":8441:8464  totalSupply.sub(amount) */\n      tag_265\n        /* \"contracts/Mooniswap.sol\":8441:8452  totalSupply */\n      dup8\n        /* \"contracts/Mooniswap.sol\":8457:8463  amount */\n      dup11\n        /* \"contracts/Mooniswap.sol\":8441:8456  totalSupply.sub */\n      tag_262\n        /* \"contracts/Mooniswap.sol\":8441:8464  totalSupply.sub(amount) */\n      jump\t// in\n    tag_265:\n      sub(shl(0xa0, 0x01), 0x01)\n        /* \"contracts/Mooniswap.sol\":8390:8422  virtualBalancesForRemoval[token] */\n      dup7\n      and\n      0x00\n      swap1\n      dup2\n      mstore\n        /* \"contracts/Mooniswap.sol\":8390:8415  virtualBalancesForRemoval */\n      0x0f\n        /* \"contracts/Mooniswap.sol\":8390:8422  virtualBalancesForRemoval[token] */\n      0x20\n      mstore\n      0x40\n      swap1\n      keccak256\n      swap2\n        /* \"contracts/Mooniswap.sol\":8390:8478  virtualBalancesForRemoval[token].scale(preBalance, totalSupply.sub(amount), totalSupply) */\n      swap1\n        /* \"contracts/Mooniswap.sol\":8466:8477  totalSupply */\n      dup9\n        /* \"contracts/Mooniswap.sol\":8390:8428  virtualBalancesForRemoval[token].scale */\n      tag_263\n        /* \"contracts/Mooniswap.sol\":8390:8478  virtualBalancesForRemoval[token].scale(preBalance, totalSupply.sub(amount), totalSupply) */\n      jump\t// in\n    tag_264:\n      pop\n      pop\n      pop\n        /* \"contracts/Mooniswap.sol\":7935:7938  i++ */\n      0x01\n      add\n        /* \"contracts/Mooniswap.sol\":7899:8489  for (uint i = 0; i < tokens.length; i++) {... */\n      jump(tag_244)\n    tag_245:\n      pop\n        /* \"contracts/Mooniswap.sol\":8504:8533  Withdrawn(msg.sender, amount) */\n      0x40\n      dup1\n      mload\n      dup5\n      dup2\n      mstore\n      swap1\n      mload\n        /* \"contracts/Mooniswap.sol\":8514:8524  msg.sender */\n      caller\n      swap2\n        /* \"contracts/Mooniswap.sol\":8504:8533  Withdrawn(msg.sender, amount) */\n      0x7084f5476618d8e60b11ef0d7d3f06914655adb8793e28ff7f018d4c76d505d5\n      swap2\n      swap1\n      dup2\n      swap1\n      sub\n      0x20\n      add\n      swap1\n      log2\n      pop\n      pop\n        /* \"@openzeppelin/contracts/utils/ReentrancyGuard.sol\":1628:1629  1 */\n      0x01\n        /* \"@openzeppelin/contracts/utils/ReentrancyGuard.sol\":2563:2570  _status */\n      0x06\n        /* \"@openzeppelin/contracts/utils/ReentrancyGuard.sol\":2563:2585  _status = _NOT_ENTERED */\n      sstore\n      pop\n        /* \"contracts/Mooniswap.sol\":7723:8540  function withdraw(uint256 amount, uint256[] memory minReturns) external nonReentrant {... */\n      jump\t// out\n        /* \"contracts/Mooniswap.sol\":3112:3183  mapping(IERC20 => VirtualBalance.Data) public virtualBalancesForRemoval */\n    tag_103:\n      mstore(0x20, 0x0f)\n      0x00\n      swap1\n      dup2\n      mstore\n      0x40\n      swap1\n      keccak256\n      sload\n      sub(shl(0xd8, 0x01), 0x01)\n      dup2\n      and\n      swap1\n      shl(0xd8, 0x01)\n      swap1\n      div\n      0xffffffffff\n      and\n      dup3\n      jump\t// out\n        /* \"contracts/Mooniswap.sol\":3034:3106  mapping(IERC20 => VirtualBalance.Data) public virtualBalancesForAddition */\n    tag_107:\n      mstore(0x20, 0x0e)\n      0x00\n      swap1\n      dup2\n      mstore\n      0x40\n      swap1\n      keccak256\n      sload\n      sub(shl(0xd8, 0x01), 0x01)\n      dup2\n      and\n      swap1\n      shl(0xd8, 0x01)\n      swap1\n      div\n      0xffffffffff\n      and\n      dup3\n      jump\t// out\n        /* \"@openzeppelin/contracts/token/ERC20/ERC20.sol\":3418:3535  function balanceOf(address account) public view override returns (uint256) {... */\n    tag_111:\n      sub(shl(0xa0, 0x01), 0x01)\n        /* \"@openzeppelin/contracts/token/ERC20/ERC20.sol\":3510:3528  _balances[account] */\n      dup2\n      and\n        /* \"@openzeppelin/contracts/token/ERC20/ERC20.sol\":3484:3491  uint256 */\n      0x00\n        /* \"@openzeppelin/contracts/token/ERC20/ERC20.sol\":3510:3528  _balances[account] */\n      swap1\n      dup2\n      mstore\n      0x20\n      dup2\n      swap1\n      mstore\n      0x40\n      swap1\n      keccak256\n      sload\n        /* \"@openzeppelin/contracts/token/ERC20/ERC20.sol\":3418:3535  function balanceOf(address account) public view override returns (uint256) {... */\n    tag_266:\n      swap2\n      swap1\n      pop\n      jump\t// out\n        /* \"@openzeppelin/contracts/access/Ownable.sol\":1689:1834  function renounceOwnership() public virtual onlyOwner {... */\n    tag_114:\n        /* \"@openzeppelin/contracts/access/Ownable.sol\":1280:1292  _msgSender() */\n      tag_268\n        /* \"@openzeppelin/contracts/access/Ownable.sol\":1280:1290  _msgSender */\n      tag_212\n        /* \"@openzeppelin/contracts/access/Ownable.sol\":1280:1292  _msgSender() */\n      jump\t// in\n    tag_268:\n        /* \"@openzeppelin/contracts/access/Ownable.sol\":1270:1276  _owner */\n      sload(0x07)\n      sub(shl(0xa0, 0x01), 0x01)\n      swap1\n      dup2\n      and\n        /* \"@openzeppelin/contracts/access/Ownable.sol\":1270:1292  _owner == _msgSender() */\n      swap2\n      and\n      eq\n        /* \"@openzeppelin/contracts/access/Ownable.sol\":1262:1329  require(_owner == _msgSender(), \"Ownable: caller is not the owner\") */\n      tag_269\n      jumpi\n      0x40\n      dup1\n      mload\n      shl(0xe5, 0x461bcd)\n      dup2\n      mstore\n      0x20\n      0x04\n      dup3\n      add\n      dup2\n      swap1\n      mstore\n      0x24\n      dup3\n      add\n      mstore\n      0x4f776e61626c653a2063616c6c6572206973206e6f7420746865206f776e6572\n      0x44\n      dup3\n      add\n      mstore\n      swap1\n      mload\n      swap1\n      dup2\n      swap1\n      sub\n      0x64\n      add\n      swap1\n      revert\n    tag_269:\n        /* \"@openzeppelin/contracts/access/Ownable.sol\":1779:1785  _owner */\n      sload(0x07)\n        /* \"@openzeppelin/contracts/access/Ownable.sol\":1758:1798  OwnershipTransferred(_owner, address(0)) */\n      mload(0x40)\n        /* \"@openzeppelin/contracts/access/Ownable.sol\":1795:1796  0 */\n      0x00\n      swap2\n      sub(shl(0xa0, 0x01), 0x01)\n        /* \"@openzeppelin/contracts/access/Ownable.sol\":1779:1785  _owner */\n      and\n      swap1\n        /* \"@openzeppelin/contracts/access/Ownable.sol\":1758:1798  OwnershipTransferred(_owner, address(0)) */\n      0x8be0079c531659141344cd1fd0a4f28419497f9722a3daafe3b4186f6b6457e0\n      swap1\n        /* \"@openzeppelin/contracts/access/Ownable.sol\":1795:1796  0 */\n      dup4\n      swap1\n        /* \"@openzeppelin/contracts/access/Ownable.sol\":1758:1798  OwnershipTransferred(_owner, address(0)) */\n      log3\n        /* \"@openzeppelin/contracts/access/Ownable.sol\":1808:1814  _owner */\n      0x07\n        /* \"@openzeppelin/contracts/access/Ownable.sol\":1808:1827  _owner = address(0) */\n      dup1\n      sload\n      not(sub(shl(0xa0, 0x01), 0x01))\n      and\n      swap1\n      sstore\n        /* \"@openzeppelin/contracts/access/Ownable.sol\":1689:1834  function renounceOwnership() public virtual onlyOwner {... */\n      jump\t// out\n        /* \"contracts/Mooniswap.sol\":11125:11710  function rescueFunds(IERC20 token, uint256 amount) external nonReentrant onlyOwner {... */\n    tag_118:\n        /* \"@openzeppelin/contracts/utils/ReentrancyGuard.sol\":1671:1672  2 */\n      0x02\n        /* \"@openzeppelin/contracts/utils/ReentrancyGuard.sol\":2260:2267  _status */\n      sload(0x06)\n        /* \"@openzeppelin/contracts/utils/ReentrancyGuard.sol\":2260:2279  _status != _ENTERED */\n      eq\n      iszero\n        /* \"@openzeppelin/contracts/utils/ReentrancyGuard.sol\":2252:2315  require(_status != _ENTERED, \"ReentrancyGuard: reentrant call\") */\n      tag_272\n      jumpi\n      0x40\n      dup1\n      mload\n      shl(0xe5, 0x461bcd)\n      dup2\n      mstore\n      0x20\n      0x04\n      dup3\n      add\n      mstore\n      0x1f\n      0x24\n      dup3\n      add\n      mstore\n      0x00\n      dup1\n      mload\n      0x20\n      data_0d74825aecb0211bbe1f02ccfb998d9e49771bedb2c6414e20fd8978a2e0f54c\n      dup4\n      codecopy\n      dup2\n      mload\n      swap2\n      mstore\n      0x44\n      dup3\n      add\n      mstore\n      swap1\n      mload\n      swap1\n      dup2\n      swap1\n      sub\n      0x64\n      add\n      swap1\n      revert\n    tag_272:\n        /* \"@openzeppelin/contracts/utils/ReentrancyGuard.sol\":1671:1672  2 */\n      0x02\n        /* \"@openzeppelin/contracts/utils/ReentrancyGuard.sol\":2390:2397  _status */\n      0x06\n        /* \"@openzeppelin/contracts/utils/ReentrancyGuard.sol\":2390:2408  _status = _ENTERED */\n      sstore\n        /* \"@openzeppelin/contracts/access/Ownable.sol\":1280:1292  _msgSender() */\n      tag_274\n        /* \"@openzeppelin/contracts/access/Ownable.sol\":1280:1290  _msgSender */\n      tag_212\n        /* \"@openzeppelin/contracts/access/Ownable.sol\":1280:1292  _msgSender() */\n      jump\t// in\n    tag_274:\n        /* \"@openzeppelin/contracts/access/Ownable.sol\":1270:1276  _owner */\n      sload(0x07)\n      sub(shl(0xa0, 0x01), 0x01)\n      swap1\n      dup2\n      and\n        /* \"@openzeppelin/contracts/access/Ownable.sol\":1270:1292  _owner == _msgSender() */\n      swap2\n      and\n      eq\n        /* \"@openzeppelin/contracts/access/Ownable.sol\":1262:1329  require(_owner == _msgSender(), \"Ownable: caller is not the owner\") */\n      tag_275\n      jumpi\n      0x40\n      dup1\n      mload\n      shl(0xe5, 0x461bcd)\n      dup2\n      mstore\n      0x20\n      0x04\n      dup3\n      add\n      dup2\n      swap1\n      mstore\n      0x24\n      dup3\n      add\n      mstore\n      0x4f776e61626c653a2063616c6c6572206973206e6f7420746865206f776e6572\n      0x44\n      dup3\n      add\n      mstore\n      swap1\n      mload\n      swap1\n      dup2\n      swap1\n      sub\n      0x64\n      add\n      swap1\n      revert\n    tag_275:\n        /* \"contracts/Mooniswap.sol\":11260:11266  tokens */\n      0x0a\n        /* \"contracts/Mooniswap.sol\":11260:11273  tokens.length */\n      sload\n        /* \"contracts/Mooniswap.sol\":11218:11243  uint256[] memory balances */\n      0x60\n      swap1\n        /* \"contracts/Mooniswap.sol\":11246:11274  new uint256[](tokens.length) */\n      0xffffffffffffffff\n      dup2\n      gt\n      dup1\n      iszero\n      tag_277\n      jumpi\n      0x00\n      dup1\n      revert\n    tag_277:\n      pop\n      mload(0x40)\n      swap1\n      dup1\n      dup3\n      mstore\n      dup1\n      0x20\n      mul\n      0x20\n      add\n      dup3\n      add\n      0x40\n      mstore\n      dup1\n      iszero\n      tag_278\n      jumpi\n      dup2\n      0x20\n      add\n      0x20\n      dup3\n      mul\n      dup1\n      calldatasize\n      dup4\n      calldatacopy\n      add\n      swap1\n      pop\n    tag_278:\n      pop\n        /* \"contracts/Mooniswap.sol\":11218:11274  uint256[] memory balances = new uint256[](tokens.length) */\n      swap1\n      pop\n        /* \"contracts/Mooniswap.sol\":11289:11295  uint i */\n      0x00\n        /* \"contracts/Mooniswap.sol\":11284:11403  for (uint i = 0; i < balances.length; i++) {... */\n    tag_279:\n        /* \"contracts/Mooniswap.sol\":11305:11313  balances */\n      dup2\n        /* \"contracts/Mooniswap.sol\":11305:11320  balances.length */\n      mload\n        /* \"contracts/Mooniswap.sol\":11301:11302  i */\n      dup2\n        /* \"contracts/Mooniswap.sol\":11301:11320  i < balances.length */\n      lt\n        /* \"contracts/Mooniswap.sol\":11284:11403  for (uint i = 0; i < balances.length; i++) {... */\n      iszero\n      tag_280\n      jumpi\n        /* \"contracts/Mooniswap.sol\":11355:11392  tokens[i].uniBalanceOf(address(this)) */\n      tag_282\n        /* \"contracts/Mooniswap.sol\":11386:11390  this */\n      address\n        /* \"contracts/Mooniswap.sol\":11355:11361  tokens */\n      0x0a\n        /* \"contracts/Mooniswap.sol\":11362:11363  i */\n      dup4\n        /* \"contracts/Mooniswap.sol\":11355:11364  tokens[i] */\n      dup2\n      sload\n      dup2\n      lt\n      tag_283\n      jumpi\n      invalid\n    tag_283:\n      0x00\n      swap2\n      dup3\n      mstore\n      0x20\n      swap1\n      swap2\n      keccak256\n      add\n      sload\n      sub(shl(0xa0, 0x01), 0x01)\n      and\n      swap1\n        /* \"contracts/Mooniswap.sol\":11355:11377  tokens[i].uniBalanceOf */\n      tag_250\n        /* \"contracts/Mooniswap.sol\":11355:11392  tokens[i].uniBalanceOf(address(this)) */\n      jump\t// in\n    tag_282:\n        /* \"contracts/Mooniswap.sol\":11341:11349  balances */\n      dup3\n        /* \"contracts/Mooniswap.sol\":11350:11351  i */\n      dup3\n        /* \"contracts/Mooniswap.sol\":11341:11352  balances[i] */\n      dup2\n      mload\n      dup2\n      lt\n      tag_285\n      jumpi\n      invalid\n    tag_285:\n      0x20\n      swap1\n      dup2\n      mul\n      swap2\n      swap1\n      swap2\n      add\n      add\n        /* \"contracts/Mooniswap.sol\":11341:11392  balances[i] = tokens[i].uniBalanceOf(address(this)) */\n      mstore\n        /* \"contracts/Mooniswap.sol\":11322:11325  i++ */\n      0x01\n      add\n        /* \"contracts/Mooniswap.sol\":11284:11403  for (uint i = 0; i < balances.length; i++) {... */\n      jump(tag_279)\n    tag_280:\n      pop\n        /* \"contracts/Mooniswap.sol\":11413:11450  token.uniTransfer(msg.sender, amount) */\n      tag_286\n      sub(shl(0xa0, 0x01), 0x01)\n        /* \"contracts/Mooniswap.sol\":11413:11430  token.uniTransfer */\n      dup5\n      and\n        /* \"contracts/Mooniswap.sol\":11431:11441  msg.sender */\n      caller\n        /* \"contracts/Mooniswap.sol\":11443:11449  amount */\n      dup5\n        /* \"contracts/Mooniswap.sol\":11413:11430  token.uniTransfer */\n      tag_256\n        /* \"contracts/Mooniswap.sol\":11413:11450  token.uniTransfer(msg.sender, amount) */\n      jump\t// in\n    tag_286:\n        /* \"contracts/Mooniswap.sol\":11466:11472  uint i */\n      0x00\n        /* \"contracts/Mooniswap.sol\":11461:11618  for (uint i = 0; i < balances.length; i++) {... */\n    tag_287:\n        /* \"contracts/Mooniswap.sol\":11482:11490  balances */\n      dup2\n        /* \"contracts/Mooniswap.sol\":11482:11497  balances.length */\n      mload\n        /* \"contracts/Mooniswap.sol\":11478:11479  i */\n      dup2\n        /* \"contracts/Mooniswap.sol\":11478:11497  i < balances.length */\n      lt\n        /* \"contracts/Mooniswap.sol\":11461:11618  for (uint i = 0; i < balances.length; i++) {... */\n      iszero\n      tag_288\n      jumpi\n        /* \"contracts/Mooniswap.sol\":11567:11575  balances */\n      dup2\n        /* \"contracts/Mooniswap.sol\":11576:11577  i */\n      dup2\n        /* \"contracts/Mooniswap.sol\":11567:11578  balances[i] */\n      dup2\n      mload\n      dup2\n      lt\n      tag_290\n      jumpi\n      invalid\n    tag_290:\n      0x20\n      mul\n      0x20\n      add\n      add\n      mload\n        /* \"contracts/Mooniswap.sol\":11526:11563  tokens[i].uniBalanceOf(address(this)) */\n      tag_291\n        /* \"contracts/Mooniswap.sol\":11557:11561  this */\n      address\n        /* \"contracts/Mooniswap.sol\":11526:11532  tokens */\n      0x0a\n        /* \"contracts/Mooniswap.sol\":11533:11534  i */\n      dup5\n        /* \"contracts/Mooniswap.sol\":11526:11535  tokens[i] */\n      dup2\n      sload\n      dup2\n      lt\n      tag_283\n      jumpi\n      invalid\n        /* \"contracts/Mooniswap.sol\":11526:11563  tokens[i].uniBalanceOf(address(this)) */\n    tag_291:\n        /* \"contracts/Mooniswap.sol\":11526:11578  tokens[i].uniBalanceOf(address(this)) >= balances[i] */\n      lt\n      iszero\n        /* \"contracts/Mooniswap.sol\":11518:11607  require(tokens[i].uniBalanceOf(address(this)) >= balances[i], \"Mooniswap: access denied\") */\n      tag_294\n      jumpi\n      0x40\n      dup1\n      mload\n      shl(0xe5, 0x461bcd)\n      dup2\n      mstore\n      0x20\n      0x04\n      dup3\n      add\n      mstore\n      0x18\n      0x24\n      dup3\n      add\n      mstore\n      shl(0x42, 0x135bdbdb9a5cddd85c0e881858d8d95cdcc819195b9a5959)\n      0x44\n      dup3\n      add\n      mstore\n      swap1\n      mload\n      swap1\n      dup2\n      swap1\n      sub\n      0x64\n      add\n      swap1\n      revert\n    tag_294:\n        /* \"contracts/Mooniswap.sol\":11499:11502  i++ */\n      0x01\n      add\n        /* \"contracts/Mooniswap.sol\":11461:11618  for (uint i = 0; i < balances.length; i++) {... */\n      jump(tag_287)\n    tag_288:\n      pop\n        /* \"contracts/Mooniswap.sol\":2481:2485  1000 */\n      0x03e8\n        /* \"contracts/Mooniswap.sol\":11635:11659  balanceOf(address(this)) */\n      tag_295\n        /* \"contracts/Mooniswap.sol\":11653:11657  this */\n      address\n        /* \"contracts/Mooniswap.sol\":11635:11644  balanceOf */\n      tag_111\n        /* \"contracts/Mooniswap.sol\":11635:11659  balanceOf(address(this)) */\n      jump\t// in\n    tag_295:\n        /* \"contracts/Mooniswap.sol\":11635:11674  balanceOf(address(this)) >= BASE_SUPPLY */\n      lt\n      iszero\n        /* \"contracts/Mooniswap.sol\":11627:11703  require(balanceOf(address(this)) >= BASE_SUPPLY, \"Mooniswap: access denied\") */\n      tag_296\n      jumpi\n      0x40\n      dup1\n      mload\n      shl(0xe5, 0x461bcd)\n      dup2\n      mstore\n      0x20\n      0x04\n      dup3\n      add\n      mstore\n      0x18\n      0x24\n      dup3\n      add\n      mstore\n      shl(0x42, 0x135bdbdb9a5cddd85c0e881858d8d95cdcc819195b9a5959)\n      0x44\n      dup3\n      add\n      mstore\n      swap1\n      mload\n      swap1\n      dup2\n      swap1\n      sub\n      0x64\n      add\n      swap1\n      revert\n    tag_296:\n      pop\n      pop\n        /* \"@openzeppelin/contracts/utils/ReentrancyGuard.sol\":1628:1629  1 */\n      0x01\n        /* \"@openzeppelin/contracts/utils/ReentrancyGuard.sol\":2563:2570  _status */\n      0x06\n        /* \"@openzeppelin/contracts/utils/ReentrancyGuard.sol\":2563:2585  _status = _NOT_ENTERED */\n      sstore\n      pop\n        /* \"contracts/Mooniswap.sol\":11125:11710  function rescueFunds(IERC20 token, uint256 amount) external nonReentrant onlyOwner {... */\n      jump\t// out\n        /* \"contracts/Mooniswap.sol\":2895:2933  mapping(address => uint) public nonces */\n    tag_122:\n      mstore(0x20, 0x0b)\n      0x00\n      swap1\n      dup2\n      mstore\n      0x40\n      swap1\n      keccak256\n      sload\n      dup2\n      jump\t// out\n        /* \"@openzeppelin/contracts/access/Ownable.sol\":1066:1143  function owner() public view returns (address) {... */\n    tag_125:\n        /* \"@openzeppelin/contracts/access/Ownable.sol\":1130:1136  _owner */\n      and(sub(shl(0xa0, 0x01), 0x01), sload(0x07))\n        /* \"@openzeppelin/contracts/access/Ownable.sol\":1066:1143  function owner() public view returns (address) {... */\n      swap1\n      jump\t// out\n        /* \"@openzeppelin/contracts/token/ERC20/ERC20.sol\":2413:2498  function symbol() public view returns (string memory) {... */\n    tag_128:\n        /* \"@openzeppelin/contracts/token/ERC20/ERC20.sol\":2484:2491  _symbol */\n      0x04\n        /* \"@openzeppelin/contracts/token/ERC20/ERC20.sol\":2477:2491  return _symbol */\n      dup1\n      sload\n      0x40\n      dup1\n      mload\n      0x20\n      0x1f\n      0x02\n      not(0x00)\n      0x0100\n      0x01\n      dup9\n      and\n      iszero\n      mul\n      add\n      swap1\n      swap6\n      and\n      swap5\n      swap1\n      swap5\n      div\n      swap4\n      dup5\n      add\n      dup2\n      swap1\n      div\n      dup2\n      mul\n      dup3\n      add\n      dup2\n      add\n      swap1\n      swap3\n      mstore\n      dup3\n      dup2\n      mstore\n        /* \"@openzeppelin/contracts/token/ERC20/ERC20.sol\":2452:2465  string memory */\n      0x60\n      swap4\n        /* \"@openzeppelin/contracts/token/ERC20/ERC20.sol\":2477:2491  return _symbol */\n      swap1\n      swap3\n        /* \"@openzeppelin/contracts/token/ERC20/ERC20.sol\":2484:2491  _symbol */\n      swap1\n      swap2\n        /* \"@openzeppelin/contracts/token/ERC20/ERC20.sol\":2477:2491  return _symbol */\n      dup4\n      add\n        /* \"@openzeppelin/contracts/token/ERC20/ERC20.sol\":2484:2491  _symbol */\n      dup3\n        /* \"@openzeppelin/contracts/token/ERC20/ERC20.sol\":2477:2491  return _symbol */\n      dup3\n      dup1\n      iszero\n      tag_206\n      jumpi\n      dup1\n      0x1f\n      lt\n      tag_207\n      jumpi\n      0x0100\n      dup1\n      dup4\n      sload\n      div\n      mul\n      dup4\n      mstore\n      swap2\n      0x20\n      add\n      swap2\n      jump(tag_206)\n        /* \"contracts/Mooniswap.sol\":3727:4159  function initialize(IERC20[] memory assets) external {... */\n    tag_139:\n        /* \"contracts/Mooniswap.sol\":3804:3810  assets */\n      dup1\n        /* \"contracts/Mooniswap.sol\":3804:3817  assets.length */\n      mload\n        /* \"contracts/Mooniswap.sol\":3821:3822  2 */\n      0x02\n        /* \"contracts/Mooniswap.sol\":3804:3822  assets.length == 2 */\n      eq\n        /* \"contracts/Mooniswap.sol\":3796:3859  require(assets.length == 2, \"Mooniswap: only 2 tokens allowed\") */\n      tag_303\n      jumpi\n      0x40\n      dup1\n      mload\n      shl(0xe5, 0x461bcd)\n      dup2\n      mstore\n      0x20\n      0x04\n      dup3\n      add\n      dup2\n      swap1\n      mstore\n      0x24\n      dup3\n      add\n      mstore\n      0x4d6f6f6e69737761703a206f6e6c79203220746f6b656e7320616c6c6f776564\n      0x44\n      dup3\n      add\n      mstore\n      swap1\n      mload\n      swap1\n      dup2\n      swap1\n      sub\n      0x64\n      add\n      swap1\n      revert\n    tag_303:\n        /* \"contracts/Mooniswap.sol\":3924:3931  factory */\n      0x09\n        /* \"contracts/Mooniswap.sol\":3924:3954  factory = IFactory(msg.sender) */\n      dup1\n      sload\n      not(sub(shl(0xa0, 0x01), 0x01))\n      and\n        /* \"contracts/Mooniswap.sol\":3943:3953  msg.sender */\n      caller\n        /* \"contracts/Mooniswap.sol\":3924:3954  factory = IFactory(msg.sender) */\n      or\n      swap1\n      sstore\n        /* \"contracts/Mooniswap.sol\":3964:3979  tokens = assets */\n      dup1\n      mload\n      tag_304\n      swap1\n        /* \"contracts/Mooniswap.sol\":3964:3970  tokens */\n      0x0a\n      swap1\n        /* \"contracts/Mooniswap.sol\":3964:3979  tokens = assets */\n      0x20\n      dup5\n      add\n      swap1\n      tag_305\n      jump\t// in\n    tag_304:\n      pop\n        /* \"contracts/Mooniswap.sol\":3994:4000  uint i */\n      0x00\n        /* \"contracts/Mooniswap.sol\":3989:4153  for (uint i = 0; i < assets.length; i++) {... */\n    tag_306:\n        /* \"contracts/Mooniswap.sol\":4010:4016  assets */\n      dup2\n        /* \"contracts/Mooniswap.sol\":4010:4023  assets.length */\n      mload\n        /* \"contracts/Mooniswap.sol\":4006:4007  i */\n      dup2\n        /* \"contracts/Mooniswap.sol\":4006:4023  i < assets.length */\n      lt\n        /* \"contracts/Mooniswap.sol\":3989:4153  for (uint i = 0; i < assets.length; i++) {... */\n      iszero\n      tag_307\n      jumpi\n        /* \"contracts/Mooniswap.sol\":4053:4060  isToken */\n      0x0c\n        /* \"contracts/Mooniswap.sol\":4053:4071  isToken[assets[i]] */\n      0x00\n        /* \"contracts/Mooniswap.sol\":4061:4067  assets */\n      dup4\n        /* \"contracts/Mooniswap.sol\":4068:4069  i */\n      dup4\n        /* \"contracts/Mooniswap.sol\":4061:4070  assets[i] */\n      dup2\n      mload\n      dup2\n      lt\n      tag_309\n      jumpi\n      invalid\n    tag_309:\n      0x20\n      swap1\n      dup2\n      mul\n      swap2\n      swap1\n      swap2\n      add\n      dup2\n      add\n      mload\n      sub(shl(0xa0, 0x01), 0x01)\n        /* \"contracts/Mooniswap.sol\":4053:4071  isToken[assets[i]] */\n      and\n      dup3\n      mstore\n      dup2\n      add\n      swap2\n      swap1\n      swap2\n      mstore\n      0x40\n      add\n      0x00\n      keccak256\n      sload\n      0xff\n      and\n        /* \"contracts/Mooniswap.sol\":4052:4071  !isToken[assets[i]] */\n      iszero\n        /* \"contracts/Mooniswap.sol\":4044:4103  require(!isToken[assets[i]], \"Mooniswap: duplicate tokens\") */\n      tag_310\n      jumpi\n      0x40\n      dup1\n      mload\n      shl(0xe5, 0x461bcd)\n      dup2\n      mstore\n      0x20\n      0x04\n      dup3\n      add\n      mstore\n      0x1b\n      0x24\n      dup3\n      add\n      mstore\n      0x4d6f6f6e69737761703a206475706c696361746520746f6b656e730000000000\n      0x44\n      dup3\n      add\n      mstore\n      swap1\n      mload\n      swap1\n      dup2\n      swap1\n      sub\n      0x64\n      add\n      swap1\n      revert\n    tag_310:\n        /* \"contracts/Mooniswap.sol\":4138:4142  true */\n      0x01\n        /* \"contracts/Mooniswap.sol\":4117:4124  isToken */\n      0x0c\n        /* \"contracts/Mooniswap.sol\":4117:4135  isToken[assets[i]] */\n      0x00\n        /* \"contracts/Mooniswap.sol\":4125:4131  assets */\n      dup5\n        /* \"contracts/Mooniswap.sol\":4132:4133  i */\n      dup5\n        /* \"contracts/Mooniswap.sol\":4125:4134  assets[i] */\n      dup2\n      mload\n      dup2\n      lt\n      tag_311\n      jumpi\n      invalid\n    tag_311:\n      0x20\n      swap1\n      dup2\n      mul\n      swap2\n      swap1\n      swap2\n      add\n      dup2\n      add\n      mload\n      sub(shl(0xa0, 0x01), 0x01)\n        /* \"contracts/Mooniswap.sol\":4117:4135  isToken[assets[i]] */\n      and\n      dup3\n      mstore\n      dup2\n      add\n      swap2\n      swap1\n      swap2\n      mstore\n      0x40\n      add\n      0x00\n      keccak256\n        /* \"contracts/Mooniswap.sol\":4117:4142  isToken[assets[i]] = true */\n      dup1\n      sload\n      not(0xff)\n      and\n      swap2\n      iszero\n      iszero\n      swap2\n      swap1\n      swap2\n      or\n      swap1\n      sstore\n      0x01\n        /* \"contracts/Mooniswap.sol\":4025:4028  i++ */\n      add\n        /* \"contracts/Mooniswap.sol\":3989:4153  for (uint i = 0; i < assets.length; i++) {... */\n      jump(tag_306)\n    tag_307:\n      pop\n        /* \"contracts/Mooniswap.sol\":3727:4159  function initialize(IERC20[] memory assets) external {... */\n      pop\n      jump\t// out\n        /* \"@openzeppelin/contracts/token/ERC20/ERC20.sol\":6295:6561  function decreaseAllowance(address spender, uint256 subtractedValue) public virtual returns (bool) {... */\n    tag_143:\n        /* \"@openzeppelin/contracts/token/ERC20/ERC20.sol\":6388:6392  bool */\n      0x00\n        /* \"@openzeppelin/contracts/token/ERC20/ERC20.sol\":6404:6533  _approve(_msgSender(), spender, _allowances[_msgSender()][spender].sub(subtractedValue, \"ERC20: decreased allowance below zero\")) */\n      tag_210\n        /* \"@openzeppelin/contracts/token/ERC20/ERC20.sol\":6413:6425  _msgSender() */\n      tag_314\n        /* \"@openzeppelin/contracts/token/ERC20/ERC20.sol\":6413:6423  _msgSender */\n      tag_212\n        /* \"@openzeppelin/contracts/token/ERC20/ERC20.sol\":6413:6425  _msgSender() */\n      jump\t// in\n    tag_314:\n        /* \"@openzeppelin/contracts/token/ERC20/ERC20.sol\":6427:6434  spender */\n      dup5\n        /* \"@openzeppelin/contracts/token/ERC20/ERC20.sol\":6436:6532  _allowances[_msgSender()][spender].sub(subtractedValue, \"ERC20: decreased allowance below zero\") */\n      tag_225\n        /* \"@openzeppelin/contracts/token/ERC20/ERC20.sol\":6475:6490  subtractedValue */\n      dup6\n        /* \"@openzeppelin/contracts/token/ERC20/ERC20.sol\":6436:6532  _allowances[_msgSender()][spender].sub(subtractedValue, \"ERC20: decreased allowance below zero\") */\n      mload(0x40)\n      dup1\n      0x60\n      add\n      0x40\n      mstore\n      dup1\n      0x25\n      dup2\n      mstore\n      0x20\n      add\n      data_f8b476f7d28209d77d4a4ac1fe36b9f8259aa1bb6bddfa6e89de7e51615cf8a8\n      0x25\n      swap2\n      codecopy\n        /* \"@openzeppelin/contracts/token/ERC20/ERC20.sol\":6436:6447  _allowances */\n      0x01\n        /* \"@openzeppelin/contracts/token/ERC20/ERC20.sol\":6436:6461  _allowances[_msgSender()] */\n      0x00\n        /* \"@openzeppelin/contracts/token/ERC20/ERC20.sol\":6448:6460  _msgSender() */\n      tag_316\n        /* \"@openzeppelin/contracts/token/ERC20/ERC20.sol\":6448:6458  _msgSender */\n      tag_212\n        /* \"@openzeppelin/contracts/token/ERC20/ERC20.sol\":6448:6460  _msgSender() */\n      jump\t// in\n    tag_316:\n      sub(shl(0xa0, 0x01), 0x01)\n        /* \"@openzeppelin/contracts/token/ERC20/ERC20.sol\":6436:6461  _allowances[_msgSender()] */\n      swap1\n      dup2\n      and\n      dup3\n      mstore\n      0x20\n      dup1\n      dup4\n      add\n      swap4\n      swap1\n      swap4\n      mstore\n      0x40\n      swap2\n      dup3\n      add\n      0x00\n      swap1\n      dup2\n      keccak256\n        /* \"@openzeppelin/contracts/token/ERC20/ERC20.sol\":6436:6470  _allowances[_msgSender()][spender] */\n      swap2\n      dup14\n      and\n      dup2\n      mstore\n      swap3\n      mstore\n      swap1\n      keccak256\n      sload\n      swap2\n        /* \"@openzeppelin/contracts/token/ERC20/ERC20.sol\":6436:6532  _allowances[_msgSender()][spender].sub(subtractedValue, \"ERC20: decreased allowance below zero\") */\n      swap1\n        /* \"@openzeppelin/contracts/token/ERC20/ERC20.sol\":6436:6474  _allowances[_msgSender()][spender].sub */\n      tag_227\n        /* \"@openzeppelin/contracts/token/ERC20/ERC20.sol\":6436:6532  _allowances[_msgSender()][spender].sub(subtractedValue, \"ERC20: decreased allowance below zero\") */\n      jump\t// in\n        /* \"@openzeppelin/contracts/token/ERC20/ERC20.sol\":3738:3910  function transfer(address recipient, uint256 amount) public virtual override returns (bool) {... */\n    tag_147:\n        /* \"@openzeppelin/contracts/token/ERC20/ERC20.sol\":3824:3828  bool */\n      0x00\n        /* \"@openzeppelin/contracts/token/ERC20/ERC20.sol\":3840:3882  _transfer(_msgSender(), recipient, amount) */\n      tag_210\n        /* \"@openzeppelin/contracts/token/ERC20/ERC20.sol\":3850:3862  _msgSender() */\n      tag_319\n        /* \"@openzeppelin/contracts/token/ERC20/ERC20.sol\":3850:3860  _msgSender */\n      tag_212\n        /* \"@openzeppelin/contracts/token/ERC20/ERC20.sol\":3850:3862  _msgSender() */\n      jump\t// in\n    tag_319:\n        /* \"@openzeppelin/contracts/token/ERC20/ERC20.sol\":3864:3873  recipient */\n      dup5\n        /* \"@openzeppelin/contracts/token/ERC20/ERC20.sol\":3875:3881  amount */\n      dup5\n        /* \"@openzeppelin/contracts/token/ERC20/ERC20.sol\":3840:3849  _transfer */\n      tag_222\n        /* \"@openzeppelin/contracts/token/ERC20/ERC20.sol\":3840:3882  _transfer(_msgSender(), recipient, amount) */\n      jump\t// in\n        /* \"contracts/Mooniswap.sol\":4252:4342  function getTokens() external view returns(IERC20[] memory) {... */\n    tag_150:\n        /* \"contracts/Mooniswap.sol\":4295:4310  IERC20[] memory */\n      0x60\n        /* \"contracts/Mooniswap.sol\":4329:4335  tokens */\n      0x0a\n        /* \"contracts/Mooniswap.sol\":4322:4335  return tokens */\n      dup1\n      sload\n      dup1\n      0x20\n      mul\n      0x20\n      add\n      mload(0x40)\n      swap1\n      dup2\n      add\n      0x40\n      mstore\n      dup1\n      swap3\n      swap2\n      swap1\n      dup2\n      dup2\n      mstore\n      0x20\n      add\n      dup3\n      dup1\n      sload\n      dup1\n      iszero\n      tag_206\n      jumpi\n      0x20\n      mul\n      dup3\n      add\n      swap2\n      swap1\n      0x00\n      mstore\n      keccak256(0x00, 0x20)\n      swap1\n    tag_322:\n      dup2\n      sload\n      sub(shl(0xa0, 0x01), 0x01)\n      and\n      dup2\n      mstore\n      0x01\n      swap1\n      swap2\n      add\n      swap1\n      0x20\n      add\n      dup1\n      dup4\n      gt\n      tag_322\n      jumpi\n      pop\n      pop\n      pop\n      pop\n      pop\n      swap1\n      pop\n        /* \"contracts/Mooniswap.sol\":4252:4342  function getTokens() external view returns(IERC20[] memory) {... */\n      swap1\n      jump\t// out\n        /* \"contracts/Mooniswap.sol\":2983:3028  mapping(IERC20 => SwapVolumes) public volumes */\n    tag_157:\n      mstore(0x20, 0x0d)\n      0x00\n      swap1\n      dup2\n      mstore\n      0x40\n      swap1\n      keccak256\n      sload\n      sub(shl(0x80, 0x01), 0x01)\n      dup1\n      dup3\n      and\n      swap2\n      shl(0x80, 0x01)\n      swap1\n      div\n      and\n      dup3\n      jump\t// out\n        /* \"contracts/Mooniswap.sol\":2363:2406  uint256 public constant REFERRAL_SHARE = 20 */\n    tag_160:\n        /* \"contracts/Mooniswap.sol\":2404:2406  20 */\n      0x14\n        /* \"contracts/Mooniswap.sol\":2363:2406  uint256 public constant REFERRAL_SHARE = 20 */\n      dup2\n      jump\t// out\n        /* \"contracts/Mooniswap.sol\":2443:2485  uint256 public constant BASE_SUPPLY = 1000 */\n    tag_163:\n        /* \"contracts/Mooniswap.sol\":2481:2485  1000 */\n      0x03e8\n        /* \"contracts/Mooniswap.sol\":2443:2485  uint256 public constant BASE_SUPPLY = 1000 */\n      dup2\n      jump\t// out\n        /* \"contracts/Mooniswap.sol\":2838:2861  IFactory public factory */\n    tag_166:\n      and(sub(shl(0xa0, 0x01), 0x01), sload(0x09))\n      dup2\n      jump\t// out\n        /* \"contracts/Mooniswap.sol\":12110:12792  function permit(address _owner, address spender, uint value, uint deadline, uint8 v, bytes32 r, bytes32 s) external {... */\n    tag_170:\n        /* \"contracts/Mooniswap.sol\":12256:12271  block.timestamp */\n      timestamp\n        /* \"contracts/Mooniswap.sol\":12244:12252  deadline */\n      dup5\n        /* \"contracts/Mooniswap.sol\":12244:12271  deadline >= block.timestamp */\n      lt\n      iszero\n        /* \"contracts/Mooniswap.sol\":12236:12283  require(deadline >= block.timestamp, \"EXPIRED\") */\n      tag_324\n      jumpi\n      0x40\n      dup1\n      mload\n      shl(0xe5, 0x461bcd)\n      dup2\n      mstore\n      0x20\n      0x04\n      dup3\n      add\n      mstore\n      0x07\n      0x24\n      dup3\n      add\n      mstore\n      shl(0xca, 0x11561412549151)\n      0x44\n      dup3\n      add\n      mstore\n      swap1\n      mload\n      swap1\n      dup2\n      swap1\n      sub\n      0x64\n      add\n      swap1\n      revert\n    tag_324:\n      sub(shl(0xa0, 0x01), 0x01)\n        /* \"contracts/Mooniswap.sol\":12306:12320  nonces[_owner] */\n      dup1\n      dup9\n      and\n        /* \"contracts/Mooniswap.sol\":12293:12303  uint nonce */\n      0x00\n        /* \"contracts/Mooniswap.sol\":12306:12320  nonces[_owner] */\n      dup2\n      dup2\n      mstore\n        /* \"contracts/Mooniswap.sol\":12306:12312  nonces */\n      0x0b\n        /* \"contracts/Mooniswap.sol\":12306:12320  nonces[_owner] */\n      0x20\n      swap1\n      dup2\n      mstore\n      0x40\n      dup1\n      dup4\n      keccak256\n        /* \"contracts/Mooniswap.sol\":12306:12322  nonces[_owner]++ */\n      dup1\n      sload\n      0x01\n      dup1\n      dup3\n      add\n      swap1\n      swap3\n      sstore\n        /* \"contracts/Mooniswap.sol\":12434:12450  DOMAIN_SEPARATOR */\n      sload(0x08)\n        /* \"contracts/Mooniswap.sol\":12478:12546  abi.encode(PERMIT_TYPEHASH, _owner, spender, value, nonce, deadline) */\n      dup4\n      mload\n        /* \"contracts/Mooniswap.sol\":2764:2830  0x6e71edae12b1b97f4d1f60370fef10105fa2faae0126114a169c64845d6126c9 */\n      0x6e71edae12b1b97f4d1f60370fef10105fa2faae0126114a169c64845d6126c9\n        /* \"contracts/Mooniswap.sol\":12478:12546  abi.encode(PERMIT_TYPEHASH, _owner, spender, value, nonce, deadline) */\n      dup2\n      dup8\n      add\n      mstore\n      dup1\n      dup6\n      add\n      swap8\n      swap1\n      swap8\n      mstore\n      swap7\n      dup14\n      and\n      0x60\n      dup8\n      add\n      mstore\n      0x80\n      dup7\n      add\n      dup13\n      swap1\n      mstore\n      0xa0\n      dup7\n      add\n      dup2\n      swap1\n      mstore\n      0xc0\n      dup1\n      dup8\n      add\n      dup13\n      swap1\n      mstore\n      dup4\n      mload\n      dup1\n      dup9\n      sub\n      swap1\n      swap2\n      add\n      dup2\n      mstore\n      0xe0\n      dup8\n      add\n      dup5\n      mstore\n        /* \"contracts/Mooniswap.sol\":12468:12547  keccak256(abi.encode(PERMIT_TYPEHASH, _owner, spender, value, nonce, deadline)) */\n      dup1\n      mload\n      swap1\n      dup6\n      add\n      keccak256\n      shl(0xf0, 0x1901)\n        /* \"contracts/Mooniswap.sol\":12372:12561  abi.encodePacked(... */\n      0x0100\n      dup9\n      add\n      mstore\n      0x0102\n      dup8\n      add\n      swap8\n      swap1\n      swap8\n      mstore\n      0x0122\n      dup1\n      dup8\n      add\n      swap8\n      swap1\n      swap8\n      mstore\n      dup3\n      mload\n      dup1\n      dup8\n      sub\n      swap1\n      swap8\n      add\n      dup8\n      mstore\n      0x0142\n      dup7\n      add\n      dup1\n      dup5\n      mstore\n        /* \"contracts/Mooniswap.sol\":12349:12571  keccak256(... */\n      dup8\n      mload\n      swap8\n      dup6\n      add\n      swap8\n      swap1\n      swap8\n      keccak256\n        /* \"contracts/Mooniswap.sol\":12608:12634  ecrecover(digest, v, r, s) */\n      swap7\n      dup6\n      swap1\n      mstore\n      0x0162\n      dup7\n      add\n      dup1\n      dup5\n      mstore\n      dup8\n      swap1\n      mstore\n      0xff\n      dup11\n      and\n      0x0182\n      dup8\n      add\n      mstore\n      0x01a2\n      dup7\n      add\n      dup10\n      swap1\n      mstore\n      0x01c2\n      dup7\n      add\n      dup9\n      swap1\n      mstore\n      swap2\n      mload\n        /* \"contracts/Mooniswap.sol\":12306:12322  nonces[_owner]++ */\n      swap2\n      swap6\n        /* \"contracts/Mooniswap.sol\":12349:12571  keccak256(... */\n      swap5\n        /* \"contracts/Mooniswap.sol\":12306:12322  nonces[_owner]++ */\n      swap1\n      swap3\n        /* \"contracts/Mooniswap.sol\":12608:12634  ecrecover(digest, v, r, s) */\n      0x01e2\n      dup1\n      dup4\n      add\n      swap4\n        /* \"contracts/Mooniswap.sol\":12306:12320  nonces[_owner] */\n      swap2\n      swap3\n      not(0x1f)\n        /* \"contracts/Mooniswap.sol\":12608:12634  ecrecover(digest, v, r, s) */\n      dup4\n      add\n      swap3\n      swap1\n      dup2\n      swap1\n      sub\n      swap1\n      swap2\n      add\n      swap1\n        /* \"contracts/Mooniswap.sol\":12306:12322  nonces[_owner]++ */\n      dup6\n        /* \"contracts/Mooniswap.sol\":12608:12634  ecrecover(digest, v, r, s) */\n      gas\n      staticcall\n      iszero\n      dup1\n      iszero\n      tag_326\n      jumpi\n      returndatasize\n      0x00\n      dup1\n      returndatacopy\n      revert(0x00, returndatasize)\n    tag_326:\n      pop\n      pop\n      mload(add(not(0x1f), mload(0x40)))\n      swap2\n      pop\n      pop\n      sub(shl(0xa0, 0x01), 0x01)\n        /* \"contracts/Mooniswap.sol\":12652:12682  recoveredAddress != address(0) */\n      dup2\n      and\n      iszero\n      dup1\n      iszero\n      swap1\n        /* \"contracts/Mooniswap.sol\":12652:12712  recoveredAddress != address(0) && recoveredAddress == _owner */\n      tag_327\n      jumpi\n      pop\n        /* \"contracts/Mooniswap.sol\":12706:12712  _owner */\n      dup10\n      sub(shl(0xa0, 0x01), 0x01)\n        /* \"contracts/Mooniswap.sol\":12686:12712  recoveredAddress == _owner */\n      and\n        /* \"contracts/Mooniswap.sol\":12686:12702  recoveredAddress */\n      dup2\n      sub(shl(0xa0, 0x01), 0x01)\n        /* \"contracts/Mooniswap.sol\":12686:12712  recoveredAddress == _owner */\n      and\n      eq\n        /* \"contracts/Mooniswap.sol\":12652:12712  recoveredAddress != address(0) && recoveredAddress == _owner */\n    tag_327:\n        /* \"contracts/Mooniswap.sol\":12644:12734  require(recoveredAddress != address(0) && recoveredAddress == _owner, \"INVALID_SIGNATURE\") */\n      tag_328\n      jumpi\n      0x40\n      dup1\n      mload\n      shl(0xe5, 0x461bcd)\n      dup2\n      mstore\n      0x20\n      0x04\n      dup3\n      add\n      mstore\n      0x11\n      0x24\n      dup3\n      add\n      mstore\n      shl(0x78, 0x494e56414c49445f5349474e4154555245)\n      0x44\n      dup3\n      add\n      mstore\n      swap1\n      mload\n      swap1\n      dup2\n      swap1\n      sub\n      0x64\n      add\n      swap1\n      revert\n    tag_328:\n        /* \"contracts/Mooniswap.sol\":12753:12785  _approve(_owner, spender, value) */\n      tag_329\n        /* \"contracts/Mooniswap.sol\":12762:12768  _owner */\n      dup11\n        /* \"contracts/Mooniswap.sol\":12770:12777  spender */\n      dup11\n        /* \"contracts/Mooniswap.sol\":12779:12784  value */\n      dup11\n        /* \"contracts/Mooniswap.sol\":12753:12761  _approve */\n      tag_213\n        /* \"contracts/Mooniswap.sol\":12753:12785  _approve(_owner, spender, value) */\n      jump\t// in\n    tag_329:\n        /* \"contracts/Mooniswap.sol\":12110:12792  function permit(address _owner, address spender, uint value, uint deadline, uint8 v, bytes32 r, bytes32 s) external {... */\n      pop\n      pop\n      pop\n      pop\n      pop\n      pop\n      pop\n      pop\n      pop\n      pop\n      jump\t// out\n        /* \"contracts/Mooniswap.sol\":8546:11119  function swap(IERC20 src, IERC20 dst, uint256 amount, uint256 minReturn, address referral) external payable nonReentrant returns(uint256 result) {... */\n    tag_173:\n        /* \"contracts/Mooniswap.sol\":8675:8689  uint256 result */\n      0x00\n        /* \"@openzeppelin/contracts/utils/ReentrancyGuard.sol\":1671:1672  2 */\n      0x02\n        /* \"@openzeppelin/contracts/utils/ReentrancyGuard.sol\":2260:2267  _status */\n      sload(0x06)\n        /* \"@openzeppelin/contracts/utils/ReentrancyGuard.sol\":2260:2279  _status != _ENTERED */\n      eq\n      iszero\n        /* \"@openzeppelin/contracts/utils/ReentrancyGuard.sol\":2252:2315  require(_status != _ENTERED, \"ReentrancyGuard: reentrant call\") */\n      tag_331\n      jumpi\n      0x40\n      dup1\n      mload\n      shl(0xe5, 0x461bcd)\n      dup2\n      mstore\n      0x20\n      0x04\n      dup3\n      add\n      mstore\n      0x1f\n      0x24\n      dup3\n      add\n      mstore\n      0x00\n      dup1\n      mload\n      0x20\n      data_0d74825aecb0211bbe1f02ccfb998d9e49771bedb2c6414e20fd8978a2e0f54c\n      dup4\n      codecopy\n      dup2\n      mload\n      swap2\n      mstore\n      0x44\n      dup3\n      add\n      mstore\n      swap1\n      mload\n      swap1\n      dup2\n      swap1\n      sub\n      0x64\n      add\n      swap1\n      revert\n    tag_331:\n        /* \"@openzeppelin/contracts/utils/ReentrancyGuard.sol\":1671:1672  2 */\n      0x02\n        /* \"@openzeppelin/contracts/utils/ReentrancyGuard.sol\":2390:2397  _status */\n      0x06\n        /* \"@openzeppelin/contracts/utils/ReentrancyGuard.sol\":2390:2408  _status = _ENTERED */\n      sstore\n        /* \"contracts/Mooniswap.sol\":8723:8734  src.isETH() */\n      tag_333\n      sub(shl(0xa0, 0x01), 0x01)\n        /* \"contracts/Mooniswap.sol\":8723:8732  src.isETH */\n      dup8\n      and\n      tag_334\n        /* \"contracts/Mooniswap.sol\":8723:8734  src.isETH() */\n      jump\t// in\n    tag_333:\n        /* \"contracts/Mooniswap.sol\":8723:8747  src.isETH() ? amount : 0 */\n      tag_335\n      jumpi\n        /* \"contracts/Mooniswap.sol\":8746:8747  0 */\n      0x00\n        /* \"contracts/Mooniswap.sol\":8723:8747  src.isETH() ? amount : 0 */\n      jump(tag_336)\n    tag_335:\n        /* \"contracts/Mooniswap.sol\":8737:8743  amount */\n      dup4\n        /* \"contracts/Mooniswap.sol\":8723:8747  src.isETH() ? amount : 0 */\n    tag_336:\n        /* \"contracts/Mooniswap.sol\":8709:8718  msg.value */\n      callvalue\n        /* \"contracts/Mooniswap.sol\":8709:8748  msg.value == (src.isETH() ? amount : 0) */\n      eq\n        /* \"contracts/Mooniswap.sol\":8701:8781  require(msg.value == (src.isETH() ? amount : 0), \"Mooniswap: wrong value usage\") */\n      tag_337\n      jumpi\n      0x40\n      dup1\n      mload\n      shl(0xe5, 0x461bcd)\n      dup2\n      mstore\n      0x20\n      0x04\n      dup3\n      add\n      mstore\n      0x1c\n      0x24\n      dup3\n      add\n      mstore\n      0x4d6f6f6e69737761703a2077726f6e672076616c756520757361676500000000\n      0x44\n      dup3\n      add\n      mstore\n      swap1\n      mload\n      swap1\n      dup2\n      swap1\n      sub\n      0x64\n      add\n      swap1\n      revert\n    tag_337:\n        /* \"contracts/Mooniswap.sol\":8792:8816  Balances memory balances */\n      tag_338\n      tag_339\n      jump\t// in\n    tag_338:\n        /* \"contracts/Mooniswap.sol\":8819:8972  Balances({... */\n      mload(0x40)\n      dup1\n      0x40\n      add\n      0x40\n      mstore\n      dup1\n        /* \"contracts/Mooniswap.sol\":8847:8911  src.uniBalanceOf(address(this)).sub(src.isETH() ? msg.value : 0) */\n      tag_340\n        /* \"contracts/Mooniswap.sol\":8883:8894  src.isETH() */\n      tag_341\n        /* \"contracts/Mooniswap.sol\":8883:8886  src */\n      dup11\n      sub(shl(0xa0, 0x01), 0x01)\n        /* \"contracts/Mooniswap.sol\":8883:8892  src.isETH */\n      and\n      tag_334\n        /* \"contracts/Mooniswap.sol\":8883:8894  src.isETH() */\n      jump\t// in\n    tag_341:\n        /* \"contracts/Mooniswap.sol\":8883:8910  src.isETH() ? msg.value : 0 */\n      tag_342\n      jumpi\n        /* \"contracts/Mooniswap.sol\":8909:8910  0 */\n      0x00\n        /* \"contracts/Mooniswap.sol\":8883:8910  src.isETH() ? msg.value : 0 */\n      jump(tag_343)\n    tag_342:\n        /* \"contracts/Mooniswap.sol\":8897:8906  msg.value */\n      callvalue\n        /* \"contracts/Mooniswap.sol\":8883:8910  src.isETH() ? msg.value : 0 */\n    tag_343:\n        /* \"contracts/Mooniswap.sol\":8847:8878  src.uniBalanceOf(address(this)) */\n      tag_344\n      sub(shl(0xa0, 0x01), 0x01)\n        /* \"contracts/Mooniswap.sol\":8847:8863  src.uniBalanceOf */\n      dup13\n      and\n        /* \"contracts/Mooniswap.sol\":8872:8876  this */\n      address\n        /* \"contracts/Mooniswap.sol\":8847:8863  src.uniBalanceOf */\n      tag_250\n        /* \"contracts/Mooniswap.sol\":8847:8878  src.uniBalanceOf(address(this)) */\n      jump\t// in\n    tag_344:\n        /* \"contracts/Mooniswap.sol\":8847:8882  src.uniBalanceOf(address(this)).sub */\n      swap1\n      tag_262\n        /* \"contracts/Mooniswap.sol\":8847:8911  src.uniBalanceOf(address(this)).sub(src.isETH() ? msg.value : 0) */\n      jump\t// in\n    tag_340:\n        /* \"contracts/Mooniswap.sol\":8819:8972  Balances({... */\n      dup2\n      mstore\n      0x20\n      add\n        /* \"contracts/Mooniswap.sol\":8930:8961  dst.uniBalanceOf(address(this)) */\n      tag_345\n      sub(shl(0xa0, 0x01), 0x01)\n        /* \"contracts/Mooniswap.sol\":8930:8946  dst.uniBalanceOf */\n      dup10\n      and\n        /* \"contracts/Mooniswap.sol\":8955:8959  this */\n      address\n        /* \"contracts/Mooniswap.sol\":8930:8946  dst.uniBalanceOf */\n      tag_250\n        /* \"contracts/Mooniswap.sol\":8930:8961  dst.uniBalanceOf(address(this)) */\n      jump\t// in\n    tag_345:\n        /* \"contracts/Mooniswap.sol\":8819:8972  Balances({... */\n      swap1\n      mstore\n        /* \"contracts/Mooniswap.sol\":9149:9161  balances.src */\n      dup1\n      mload\n      sub(shl(0xa0, 0x01), 0x01)\n        /* \"contracts/Mooniswap.sol\":9109:9140  virtualBalancesForAddition[src] */\n      dup10\n      and\n        /* \"contracts/Mooniswap.sol\":9071:9097  uint256 srcAdditionBalance */\n      0x00\n        /* \"contracts/Mooniswap.sol\":9109:9140  virtualBalancesForAddition[src] */\n      swap1\n      dup2\n      mstore\n        /* \"contracts/Mooniswap.sol\":9109:9135  virtualBalancesForAddition */\n      0x0e\n        /* \"contracts/Mooniswap.sol\":9109:9140  virtualBalancesForAddition[src] */\n      0x20\n      swap1\n      dup2\n      mstore\n      0x40\n      dup1\n      dup4\n      keccak256\n        /* \"contracts/Mooniswap.sol\":9109:9148  virtualBalancesForAddition[src].current */\n      dup2\n      mload\n      dup1\n      dup4\n      add\n      swap1\n      swap3\n      mstore\n      sload\n      sub(shl(0xd8, 0x01), 0x01)\n      dup2\n      and\n      dup3\n      mstore\n      shl(0xd8, 0x01)\n      swap1\n      div\n      0xffffffffff\n      and\n      swap2\n      dup2\n      add\n      swap2\n      swap1\n      swap2\n      mstore\n        /* \"contracts/Mooniswap.sol\":9149:9161  balances.src */\n      swap3\n      swap4\n      pop\n        /* \"contracts/Mooniswap.sol\":9071:9097  uint256 srcAdditionBalance */\n      swap2\n        /* \"contracts/Mooniswap.sol\":9100:9177  Math.max(virtualBalancesForAddition[src].current(balances.src), balances.src) */\n      tag_346\n      swap2\n        /* \"contracts/Mooniswap.sol\":9109:9162  virtualBalancesForAddition[src].current(balances.src) */\n      tag_347\n      swap2\n        /* \"contracts/Mooniswap.sol\":9109:9148  virtualBalancesForAddition[src].current */\n      swap1\n      tag_348\n        /* \"contracts/Mooniswap.sol\":9109:9162  virtualBalancesForAddition[src].current(balances.src) */\n      jump\t// in\n    tag_347:\n        /* \"contracts/Mooniswap.sol\":9164:9176  balances.src */\n      dup4\n      mload\n        /* \"contracts/Mooniswap.sol\":9100:9108  Math.max */\n      tag_349\n        /* \"contracts/Mooniswap.sol\":9100:9177  Math.max(virtualBalancesForAddition[src].current(balances.src), balances.src) */\n      jump\t// in\n    tag_346:\n        /* \"contracts/Mooniswap.sol\":9263:9275  balances.dst */\n      0x20\n      dup4\n      dup2\n      add\n      mload\n      sub(shl(0xa0, 0x01), 0x01)\n        /* \"contracts/Mooniswap.sol\":9224:9254  virtualBalancesForRemoval[dst] */\n      dup11\n      and\n        /* \"contracts/Mooniswap.sol\":9187:9212  uint256 dstRemovalBalance */\n      0x00\n        /* \"contracts/Mooniswap.sol\":9224:9254  virtualBalancesForRemoval[dst] */\n      swap1\n      dup2\n      mstore\n        /* \"contracts/Mooniswap.sol\":9224:9249  virtualBalancesForRemoval */\n      0x0f\n        /* \"contracts/Mooniswap.sol\":9224:9254  virtualBalancesForRemoval[dst] */\n      dup4\n      mstore\n      0x40\n      dup1\n      dup3\n      keccak256\n        /* \"contracts/Mooniswap.sol\":9224:9262  virtualBalancesForRemoval[dst].current */\n      dup2\n      mload\n      dup1\n      dup4\n      add\n      swap1\n      swap3\n      mstore\n      sload\n      sub(shl(0xd8, 0x01), 0x01)\n      dup2\n      and\n      dup3\n      mstore\n      shl(0xd8, 0x01)\n      swap1\n      div\n      0xffffffffff\n      and\n      swap4\n      dup2\n      add\n      swap4\n      swap1\n      swap4\n      mstore\n        /* \"contracts/Mooniswap.sol\":9071:9177  uint256 srcAdditionBalance = Math.max(virtualBalancesForAddition[src].current(balances.src), balances.src) */\n      swap3\n      swap4\n      pop\n        /* \"contracts/Mooniswap.sol\":9215:9291  Math.min(virtualBalancesForRemoval[dst].current(balances.dst), balances.dst) */\n      tag_350\n      swap2\n        /* \"contracts/Mooniswap.sol\":9224:9276  virtualBalancesForRemoval[dst].current(balances.dst) */\n      tag_351\n      swap2\n        /* \"contracts/Mooniswap.sol\":9224:9262  virtualBalancesForRemoval[dst].current */\n      tag_348\n        /* \"contracts/Mooniswap.sol\":9224:9276  virtualBalancesForRemoval[dst].current(balances.dst) */\n      jump\t// in\n    tag_351:\n        /* \"contracts/Mooniswap.sol\":9278:9286  balances */\n      dup5\n        /* \"contracts/Mooniswap.sol\":9278:9290  balances.dst */\n      0x20\n      add\n      mload\n        /* \"contracts/Mooniswap.sol\":9215:9223  Math.min */\n      tag_352\n        /* \"contracts/Mooniswap.sol\":9215:9291  Math.min(virtualBalancesForRemoval[dst].current(balances.dst), balances.dst) */\n      jump\t// in\n    tag_350:\n        /* \"contracts/Mooniswap.sol\":9187:9291  uint256 dstRemovalBalance = Math.min(virtualBalancesForRemoval[dst].current(balances.dst), balances.dst) */\n      swap1\n      pop\n        /* \"contracts/Mooniswap.sol\":9302:9341  src.uniTransferFromSenderToThis(amount) */\n      tag_353\n      sub(shl(0xa0, 0x01), 0x01)\n        /* \"contracts/Mooniswap.sol\":9302:9333  src.uniTransferFromSenderToThis */\n      dup11\n      and\n        /* \"contracts/Mooniswap.sol\":9334:9340  amount */\n      dup9\n        /* \"contracts/Mooniswap.sol\":9302:9333  src.uniTransferFromSenderToThis */\n      tag_354\n        /* \"contracts/Mooniswap.sol\":9302:9341  src.uniTransferFromSenderToThis(amount) */\n      jump\t// in\n    tag_353:\n        /* \"contracts/Mooniswap.sol\":9407:9419  balances.src */\n      dup3\n      mload\n        /* \"contracts/Mooniswap.sol\":9351:9368  uint256 confirmed */\n      0x00\n      swap1\n        /* \"contracts/Mooniswap.sol\":9371:9420  src.uniBalanceOf(address(this)).sub(balances.src) */\n      tag_355\n      swap1\n        /* \"contracts/Mooniswap.sol\":9371:9402  src.uniBalanceOf(address(this)) */\n      tag_344\n      sub(shl(0xa0, 0x01), 0x01)\n        /* \"contracts/Mooniswap.sol\":9371:9387  src.uniBalanceOf */\n      dup14\n      and\n        /* \"contracts/Mooniswap.sol\":9396:9400  this */\n      address\n        /* \"contracts/Mooniswap.sol\":9371:9387  src.uniBalanceOf */\n      tag_250\n        /* \"contracts/Mooniswap.sol\":9371:9402  src.uniBalanceOf(address(this)) */\n      jump\t// in\n        /* \"contracts/Mooniswap.sol\":9371:9420  src.uniBalanceOf(address(this)).sub(balances.src) */\n    tag_355:\n        /* \"contracts/Mooniswap.sol\":9351:9420  uint256 confirmed = src.uniBalanceOf(address(this)).sub(balances.src) */\n      swap1\n      pop\n        /* \"contracts/Mooniswap.sol\":9439:9509  _getReturn(src, dst, confirmed, srcAdditionBalance, dstRemovalBalance) */\n      tag_357\n        /* \"contracts/Mooniswap.sol\":9450:9453  src */\n      dup11\n        /* \"contracts/Mooniswap.sol\":9455:9458  dst */\n      dup11\n        /* \"contracts/Mooniswap.sol\":9460:9469  confirmed */\n      dup4\n        /* \"contracts/Mooniswap.sol\":9471:9489  srcAdditionBalance */\n      dup7\n        /* \"contracts/Mooniswap.sol\":9491:9508  dstRemovalBalance */\n      dup7\n        /* \"contracts/Mooniswap.sol\":9439:9449  _getReturn */\n      tag_219\n        /* \"contracts/Mooniswap.sol\":9439:9509  _getReturn(src, dst, confirmed, srcAdditionBalance, dstRemovalBalance) */\n      jump\t// in\n    tag_357:\n        /* \"contracts/Mooniswap.sol\":9430:9509  result = _getReturn(src, dst, confirmed, srcAdditionBalance, dstRemovalBalance) */\n      swap5\n      pop\n        /* \"contracts/Mooniswap.sol\":9536:9537  0 */\n      0x00\n        /* \"contracts/Mooniswap.sol\":9527:9533  result */\n      dup6\n        /* \"contracts/Mooniswap.sol\":9527:9537  result > 0 */\n      gt\n        /* \"contracts/Mooniswap.sol\":9527:9560  result > 0 && result >= minReturn */\n      dup1\n      iszero\n      tag_358\n      jumpi\n      pop\n        /* \"contracts/Mooniswap.sol\":9551:9560  minReturn */\n      dup7\n        /* \"contracts/Mooniswap.sol\":9541:9547  result */\n      dup6\n        /* \"contracts/Mooniswap.sol\":9541:9560  result >= minReturn */\n      lt\n      iszero\n        /* \"contracts/Mooniswap.sol\":9527:9560  result > 0 && result >= minReturn */\n    tag_358:\n        /* \"contracts/Mooniswap.sol\":9519:9596  require(result > 0 && result >= minReturn, \"Mooniswap: return is not enough\") */\n      tag_359\n      jumpi\n      0x40\n      dup1\n      mload\n      shl(0xe5, 0x461bcd)\n      dup2\n      mstore\n      0x20\n      0x04\n      dup3\n      add\n      mstore\n      0x1f\n      0x24\n      dup3\n      add\n      mstore\n      0x4d6f6f6e69737761703a2072657475726e206973206e6f7420656e6f75676800\n      0x44\n      dup3\n      add\n      mstore\n      swap1\n      mload\n      swap1\n      dup2\n      swap1\n      sub\n      0x64\n      add\n      swap1\n      revert\n    tag_359:\n        /* \"contracts/Mooniswap.sol\":9606:9641  dst.uniTransfer(msg.sender, result) */\n      tag_360\n      sub(shl(0xa0, 0x01), 0x01)\n        /* \"contracts/Mooniswap.sol\":9606:9621  dst.uniTransfer */\n      dup11\n      and\n        /* \"contracts/Mooniswap.sol\":9622:9632  msg.sender */\n      caller\n        /* \"contracts/Mooniswap.sol\":9634:9640  result */\n      dup8\n        /* \"contracts/Mooniswap.sol\":9606:9621  dst.uniTransfer */\n      tag_256\n        /* \"contracts/Mooniswap.sol\":9606:9641  dst.uniTransfer(msg.sender, result) */\n      jump\t// in\n    tag_360:\n        /* \"contracts/Mooniswap.sol\":9760:9772  balances.src */\n      dup4\n      mload\n        /* \"contracts/Mooniswap.sol\":9738:9772  srcAdditionBalance != balances.src */\n      dup4\n      eq\n        /* \"contracts/Mooniswap.sol\":9734:9869  if (srcAdditionBalance != balances.src) {... */\n      tag_362\n      jumpi\n        /* \"contracts/Mooniswap.sol\":9788:9858  virtualBalancesForAddition[src].set(srcAdditionBalance.add(confirmed)) */\n      tag_362\n        /* \"contracts/Mooniswap.sol\":9824:9857  srcAdditionBalance.add(confirmed) */\n      tag_363\n        /* \"contracts/Mooniswap.sol\":9824:9842  srcAdditionBalance */\n      dup5\n        /* \"contracts/Mooniswap.sol\":9847:9856  confirmed */\n      dup4\n        /* \"contracts/Mooniswap.sol\":9824:9846  srcAdditionBalance.add */\n      tag_234\n        /* \"contracts/Mooniswap.sol\":9824:9857  srcAdditionBalance.add(confirmed) */\n      jump\t// in\n    tag_363:\n      sub(shl(0xa0, 0x01), 0x01)\n        /* \"contracts/Mooniswap.sol\":9788:9819  virtualBalancesForAddition[src] */\n      dup13\n      and\n      0x00\n      swap1\n      dup2\n      mstore\n        /* \"contracts/Mooniswap.sol\":9788:9814  virtualBalancesForAddition */\n      0x0e\n        /* \"contracts/Mooniswap.sol\":9788:9819  virtualBalancesForAddition[src] */\n      0x20\n      mstore\n      0x40\n      swap1\n      keccak256\n      swap1\n        /* \"contracts/Mooniswap.sol\":9788:9823  virtualBalancesForAddition[src].set */\n      tag_364\n        /* \"contracts/Mooniswap.sol\":9788:9858  virtualBalancesForAddition[src].set(srcAdditionBalance.add(confirmed)) */\n      jump\t// in\n    tag_362:\n        /* \"contracts/Mooniswap.sol\":9903:9911  balances */\n      dup4\n        /* \"contracts/Mooniswap.sol\":9903:9915  balances.dst */\n      0x20\n      add\n      mload\n        /* \"contracts/Mooniswap.sol\":9882:9899  dstRemovalBalance */\n      dup3\n        /* \"contracts/Mooniswap.sol\":9882:9915  dstRemovalBalance != balances.dst */\n      eq\n        /* \"contracts/Mooniswap.sol\":9878:10007  if (dstRemovalBalance != balances.dst) {... */\n      tag_366\n      jumpi\n        /* \"contracts/Mooniswap.sol\":9931:9996  virtualBalancesForRemoval[dst].set(dstRemovalBalance.sub(result)) */\n      tag_366\n        /* \"contracts/Mooniswap.sol\":9966:9995  dstRemovalBalance.sub(result) */\n      tag_367\n        /* \"contracts/Mooniswap.sol\":9966:9983  dstRemovalBalance */\n      dup4\n        /* \"contracts/Mooniswap.sol\":9988:9994  result */\n      dup8\n        /* \"contracts/Mooniswap.sol\":9966:9987  dstRemovalBalance.sub */\n      tag_262\n        /* \"contracts/Mooniswap.sol\":9966:9995  dstRemovalBalance.sub(result) */\n      jump\t// in\n    tag_367:\n      sub(shl(0xa0, 0x01), 0x01)\n        /* \"contracts/Mooniswap.sol\":9931:9961  virtualBalancesForRemoval[dst] */\n      dup12\n      and\n      0x00\n      swap1\n      dup2\n      mstore\n        /* \"contracts/Mooniswap.sol\":9931:9956  virtualBalancesForRemoval */\n      0x0f\n        /* \"contracts/Mooniswap.sol\":9931:9961  virtualBalancesForRemoval[dst] */\n      0x20\n      mstore\n      0x40\n      swap1\n      keccak256\n      swap1\n        /* \"contracts/Mooniswap.sol\":9931:9965  virtualBalancesForRemoval[dst].set */\n      tag_364\n        /* \"contracts/Mooniswap.sol\":9931:9996  virtualBalancesForRemoval[dst].set(dstRemovalBalance.sub(result)) */\n      jump\t// in\n    tag_366:\n        /* \"contracts/Mooniswap.sol\":10116:10128  balances.src */\n      dup4\n      mload\n      sub(shl(0xa0, 0x01), 0x01)\n        /* \"contracts/Mooniswap.sol\":10078:10108  virtualBalancesForRemoval[src] */\n      dup12\n      and\n        /* \"contracts/Mooniswap.sol\":10116:10128  balances.src */\n      0x00\n        /* \"contracts/Mooniswap.sol\":10078:10108  virtualBalancesForRemoval[src] */\n      swap1\n      dup2\n      mstore\n        /* \"contracts/Mooniswap.sol\":10078:10103  virtualBalancesForRemoval */\n      0x0f\n        /* \"contracts/Mooniswap.sol\":10078:10108  virtualBalancesForRemoval[src] */\n      0x20\n      mstore\n      0x40\n      swap1\n      keccak256\n        /* \"contracts/Mooniswap.sol\":10078:10129  virtualBalancesForRemoval[src].update(balances.src) */\n      tag_368\n      swap2\n        /* \"contracts/Mooniswap.sol\":10078:10115  virtualBalancesForRemoval[src].update */\n      tag_369\n        /* \"contracts/Mooniswap.sol\":10078:10129  virtualBalancesForRemoval[src].update(balances.src) */\n      jump\t// in\n    tag_368:\n        /* \"contracts/Mooniswap.sol\":10178:10190  balances.dst */\n      0x20\n      dup1\n      dup6\n      add\n      mload\n      sub(shl(0xa0, 0x01), 0x01)\n        /* \"contracts/Mooniswap.sol\":10139:10170  virtualBalancesForAddition[dst] */\n      dup12\n      and\n      0x00\n      swap1\n      dup2\n      mstore\n        /* \"contracts/Mooniswap.sol\":10139:10165  virtualBalancesForAddition */\n      0x0e\n        /* \"contracts/Mooniswap.sol\":10139:10170  virtualBalancesForAddition[dst] */\n      swap1\n      swap3\n      mstore\n      0x40\n      swap1\n      swap2\n      keccak256\n        /* \"contracts/Mooniswap.sol\":10139:10191  virtualBalancesForAddition[dst].update(balances.dst) */\n      tag_370\n      swap2\n        /* \"contracts/Mooniswap.sol\":10139:10177  virtualBalancesForAddition[dst].update */\n      tag_369\n        /* \"contracts/Mooniswap.sol\":10139:10191  virtualBalancesForAddition[dst].update(balances.dst) */\n      jump\t// in\n    tag_370:\n      sub(shl(0xa0, 0x01), 0x01)\n        /* \"contracts/Mooniswap.sol\":10206:10228  referral != address(0) */\n      dup7\n      and\n      iszero\n        /* \"contracts/Mooniswap.sol\":10202:10833  if (referral != address(0)) {... */\n      tag_371\n      jumpi\n        /* \"contracts/Mooniswap.sol\":10365:10377  balances.src */\n      dup4\n      mload\n        /* \"contracts/Mooniswap.sol\":10277:10281  1e36 */\n      0xc097ce7bc90715b34b9f1000000000\n      swap1\n        /* \"contracts/Mooniswap.sol\":10313:10378  invariantRatio.mul(balances.src.add(confirmed)).div(balances.src) */\n      tag_372\n      swap1\n        /* \"contracts/Mooniswap.sol\":10313:10360  invariantRatio.mul(balances.src.add(confirmed)) */\n      tag_252\n        /* \"contracts/Mooniswap.sol\":10332:10359  balances.src.add(confirmed) */\n      tag_374\n        /* \"contracts/Mooniswap.sol\":10365:10377  balances.src */\n      dup3\n        /* \"contracts/Mooniswap.sol\":10349:10358  confirmed */\n      dup7\n        /* \"contracts/Mooniswap.sol\":10332:10348  balances.src.add */\n      tag_234\n        /* \"contracts/Mooniswap.sol\":10332:10359  balances.src.add(confirmed) */\n      jump\t// in\n    tag_374:\n        /* \"contracts/Mooniswap.sol\":10313:10327  invariantRatio */\n      dup5\n      swap1\n        /* \"contracts/Mooniswap.sol\":10313:10331  invariantRatio.mul */\n      tag_253\n        /* \"contracts/Mooniswap.sol\":10313:10360  invariantRatio.mul(balances.src.add(confirmed)) */\n      jump\t// in\n        /* \"contracts/Mooniswap.sol\":10313:10378  invariantRatio.mul(balances.src.add(confirmed)).div(balances.src) */\n    tag_372:\n        /* \"contracts/Mooniswap.sol\":10458:10470  balances.dst */\n      0x20\n      dup7\n      add\n      mload\n        /* \"contracts/Mooniswap.sol\":10296:10378  invariantRatio = invariantRatio.mul(balances.src.add(confirmed)).div(balances.src) */\n      swap1\n      swap2\n      pop\n        /* \"contracts/Mooniswap.sol\":10409:10471  invariantRatio.mul(balances.dst.sub(result)).div(balances.dst) */\n      tag_375\n      swap1\n        /* \"contracts/Mooniswap.sol\":10409:10453  invariantRatio.mul(balances.dst.sub(result)) */\n      tag_252\n        /* \"contracts/Mooniswap.sol\":10428:10452  balances.dst.sub(result) */\n      tag_374\n        /* \"contracts/Mooniswap.sol\":10458:10470  balances.dst */\n      dup3\n        /* \"contracts/Mooniswap.sol\":10445:10451  result */\n      dup11\n        /* \"contracts/Mooniswap.sol\":10428:10444  balances.dst.sub */\n      tag_262\n        /* \"contracts/Mooniswap.sol\":10428:10452  balances.dst.sub(result) */\n      jump\t// in\n        /* \"contracts/Mooniswap.sol\":10409:10471  invariantRatio.mul(balances.dst.sub(result)).div(balances.dst) */\n    tag_375:\n        /* \"contracts/Mooniswap.sol\":10392:10471  invariantRatio = invariantRatio.mul(balances.dst.sub(result)).div(balances.dst) */\n      swap1\n      pop\n        /* \"contracts/Mooniswap.sol\":10506:10510  1e36 */\n      0xc097ce7bc90715b34b9f1000000000\n        /* \"contracts/Mooniswap.sol\":10489:10503  invariantRatio */\n      dup2\n        /* \"contracts/Mooniswap.sol\":10489:10510  invariantRatio > 1e36 */\n      gt\n        /* \"contracts/Mooniswap.sol\":10485:10823  if (invariantRatio > 1e36) {... */\n      iszero\n      tag_378\n      jumpi\n        /* \"contracts/Mooniswap.sol\":10593:10614  uint256 referralShare */\n      0x00\n        /* \"contracts/Mooniswap.sol\":10617:10697  invariantRatio.sqrt().sub(1e18).mul(totalSupply()).div(1e18).div(REFERRAL_SHARE) */\n      tag_379\n        /* \"contracts/Mooniswap.sol\":2404:2406  20 */\n      0x14\n        /* \"contracts/Mooniswap.sol\":10617:10677  invariantRatio.sqrt().sub(1e18).mul(totalSupply()).div(1e18) */\n      tag_252\n        /* \"contracts/Mooniswap.sol\":10672:10676  1e18 */\n      0x0de0b6b3a7640000\n        /* \"contracts/Mooniswap.sol\":10617:10667  invariantRatio.sqrt().sub(1e18).mul(totalSupply()) */\n      tag_252\n        /* \"contracts/Mooniswap.sol\":10653:10666  totalSupply() */\n      tag_382\n        /* \"contracts/Mooniswap.sol\":10653:10664  totalSupply */\n      tag_60\n        /* \"contracts/Mooniswap.sol\":10653:10666  totalSupply() */\n      jump\t// in\n    tag_382:\n        /* \"contracts/Mooniswap.sol\":10617:10648  invariantRatio.sqrt().sub(1e18) */\n      tag_383\n        /* \"contracts/Mooniswap.sol\":10643:10647  1e18 */\n      0x0de0b6b3a7640000\n        /* \"contracts/Mooniswap.sol\":10617:10638  invariantRatio.sqrt() */\n      tag_344\n        /* \"contracts/Mooniswap.sol\":10617:10631  invariantRatio */\n      dup11\n        /* \"contracts/Mooniswap.sol\":10617:10636  invariantRatio.sqrt */\n      tag_385\n        /* \"contracts/Mooniswap.sol\":10617:10638  invariantRatio.sqrt() */\n      jump\t// in\n        /* \"contracts/Mooniswap.sol\":10617:10648  invariantRatio.sqrt().sub(1e18) */\n    tag_383:\n        /* \"contracts/Mooniswap.sol\":10617:10652  invariantRatio.sqrt().sub(1e18).mul */\n      swap1\n      tag_253\n        /* \"contracts/Mooniswap.sol\":10617:10667  invariantRatio.sqrt().sub(1e18).mul(totalSupply()) */\n      jump\t// in\n        /* \"contracts/Mooniswap.sol\":10617:10697  invariantRatio.sqrt().sub(1e18).mul(totalSupply()).div(1e18).div(REFERRAL_SHARE) */\n    tag_379:\n        /* \"contracts/Mooniswap.sol\":10593:10697  uint256 referralShare = invariantRatio.sqrt().sub(1e18).mul(totalSupply()).div(1e18).div(REFERRAL_SHARE) */\n      swap1\n      pop\n        /* \"contracts/Mooniswap.sol\":10719:10736  referralShare > 0 */\n      dup1\n      iszero\n        /* \"contracts/Mooniswap.sol\":10715:10809  if (referralShare > 0) {... */\n      tag_387\n      jumpi\n        /* \"contracts/Mooniswap.sol\":10760:10790  _mint(referral, referralShare) */\n      tag_387\n        /* \"contracts/Mooniswap.sol\":10766:10774  referral */\n      dup9\n        /* \"contracts/Mooniswap.sol\":10776:10789  referralShare */\n      dup3\n        /* \"contracts/Mooniswap.sol\":10760:10765  _mint */\n      tag_388\n        /* \"contracts/Mooniswap.sol\":10760:10790  _mint(referral, referralShare) */\n      jump\t// in\n    tag_387:\n        /* \"contracts/Mooniswap.sol\":10485:10823  if (invariantRatio > 1e36) {... */\n      pop\n    tag_378:\n        /* \"contracts/Mooniswap.sol\":10202:10833  if (referral != address(0)) {... */\n      pop\n    tag_371:\n        /* \"contracts/Mooniswap.sol\":10890:10893  dst */\n      dup9\n      sub(shl(0xa0, 0x01), 0x01)\n        /* \"contracts/Mooniswap.sol\":10848:10967  Swapped(msg.sender, address(src), address(dst), confirmed, result, balances.src, balances.dst, totalSupply(), referral) */\n      and\n        /* \"contracts/Mooniswap.sol\":10876:10879  src */\n      dup11\n      sub(shl(0xa0, 0x01), 0x01)\n        /* \"contracts/Mooniswap.sol\":10848:10967  Swapped(msg.sender, address(src), address(dst), confirmed, result, balances.src, balances.dst, totalSupply(), referral) */\n      and\n        /* \"contracts/Mooniswap.sol\":10856:10866  msg.sender */\n      caller\n      sub(shl(0xa0, 0x01), 0x01)\n        /* \"contracts/Mooniswap.sol\":10848:10967  Swapped(msg.sender, address(src), address(dst), confirmed, result, balances.src, balances.dst, totalSupply(), referral) */\n      and\n      0x86c49b5d8577da08444947f1427d23ef191cfabf2c0788f93324d79e926a9302\n        /* \"contracts/Mooniswap.sol\":10896:10905  confirmed */\n      dup5\n        /* \"contracts/Mooniswap.sol\":10907:10913  result */\n      dup10\n        /* \"contracts/Mooniswap.sol\":10915:10923  balances */\n      dup10\n        /* \"contracts/Mooniswap.sol\":10915:10927  balances.src */\n      0x00\n      add\n      mload\n        /* \"contracts/Mooniswap.sol\":10929:10937  balances */\n      dup11\n        /* \"contracts/Mooniswap.sol\":10929:10941  balances.dst */\n      0x20\n      add\n      mload\n        /* \"contracts/Mooniswap.sol\":10943:10956  totalSupply() */\n      tag_389\n        /* \"contracts/Mooniswap.sol\":10943:10954  totalSupply */\n      tag_60\n        /* \"contracts/Mooniswap.sol\":10943:10956  totalSupply() */\n      jump\t// in\n    tag_389:\n        /* \"contracts/Mooniswap.sol\":10848:10967  Swapped(msg.sender, address(src), address(dst), confirmed, result, balances.src, balances.dst, totalSupply(), referral) */\n      0x40\n      dup1\n      mload\n      swap6\n      dup7\n      mstore\n      0x20\n      dup7\n      add\n      swap5\n      swap1\n      swap5\n      mstore\n      dup5\n      dup5\n      add\n      swap3\n      swap1\n      swap3\n      mstore\n      0x60\n      dup5\n      add\n      mstore\n      0x80\n      dup4\n      add\n      mstore\n      sub(shl(0xa0, 0x01), 0x01)\n      dup13\n      and\n      0xa0\n      dup4\n      add\n      mstore\n      mload\n      swap1\n      dup2\n      swap1\n      sub\n      0xc0\n      add\n      swap1\n      log4\n      sub(shl(0xa0, 0x01), 0x01)\n        /* \"contracts/Mooniswap.sol\":11020:11032  volumes[src] */\n      swap1\n      swap10\n      and\n      0x00\n      swap1\n      dup2\n      mstore\n        /* \"contracts/Mooniswap.sol\":11020:11027  volumes */\n      0x0d\n        /* \"contracts/Mooniswap.sol\":11020:11032  volumes[src] */\n      0x20\n      mstore\n      0x40\n      swap1\n      keccak256\n        /* \"contracts/Mooniswap.sol\":11020:11064  volumes[src].confirmed += uint128(confirmed) */\n      dup1\n      sload\n      shl(0x80, 0x01)\n      sub(shl(0x80, 0x01), 0x01)\n      dup1\n      dup4\n      and\n      swap1\n      swap13\n      add\n      dup13\n      and\n      not(0xffffffffffffffffffffffffffffffff)\n      swap1\n      swap3\n      and\n      swap2\n      swap1\n      swap2\n      or\n        /* \"contracts/Mooniswap.sol\":11074:11112  volumes[src].result += uint128(result) */\n      dup2\n      dup2\n      div\n      dup13\n      and\n      dup8\n      add\n      dup13\n      and\n      swap1\n      swap2\n      mul\n      swap11\n      and\n      swap10\n      swap1\n      swap10\n      or\n      swap1\n      swap9\n      sstore\n      pop\n      pop\n        /* \"contracts/Mooniswap.sol\":11020:11064  volumes[src].confirmed += uint128(confirmed) */\n      0x01\n        /* \"@openzeppelin/contracts/utils/ReentrancyGuard.sol\":2563:2570  _status */\n      0x06\n        /* \"@openzeppelin/contracts/utils/ReentrancyGuard.sol\":2563:2585  _status = _NOT_ENTERED */\n      sstore\n        /* \"contracts/Mooniswap.sol\":11105:11111  result */\n      swap6\n        /* \"contracts/Mooniswap.sol\":8546:11119  function swap(IERC20 src, IERC20 dst, uint256 amount, uint256 minReturn, address referral) external payable nonReentrant returns(uint256 result) {... */\n      swap5\n      pop\n      pop\n      pop\n      pop\n      pop\n      jump\t// out\n        /* \"contracts/Mooniswap.sol\":2525:2571  uint256 public constant FEE_DENOMINATOR = 1e18 */\n    tag_176:\n        /* \"contracts/Mooniswap.sol\":2567:2571  1e18 */\n      0x0de0b6b3a7640000\n        /* \"contracts/Mooniswap.sol\":2525:2571  uint256 public constant FEE_DENOMINATOR = 1e18 */\n      dup2\n      jump\t// out\n        /* \"contracts/Mooniswap.sol\":4459:4687  function getBalanceForAddition(IERC20 token) public view returns(uint256) {... */\n    tag_180:\n        /* \"contracts/Mooniswap.sol\":4524:4531  uint256 */\n      0x00\n      dup1\n        /* \"contracts/Mooniswap.sol\":4561:4594  token.uniBalanceOf(address(this)) */\n      tag_391\n      sub(shl(0xa0, 0x01), 0x01)\n        /* \"contracts/Mooniswap.sol\":4561:4579  token.uniBalanceOf */\n      dup5\n      and\n        /* \"contracts/Mooniswap.sol\":4588:4592  this */\n      address\n        /* \"contracts/Mooniswap.sol\":4561:4579  token.uniBalanceOf */\n      tag_250\n        /* \"contracts/Mooniswap.sol\":4561:4594  token.uniBalanceOf(address(this)) */\n      jump\t// in\n    tag_391:\n      sub(shl(0xa0, 0x01), 0x01)\n        /* \"contracts/Mooniswap.sol\":4620:4653  virtualBalancesForAddition[token] */\n      dup5\n      and\n      0x00\n      swap1\n      dup2\n      mstore\n        /* \"contracts/Mooniswap.sol\":4620:4646  virtualBalancesForAddition */\n      0x0e\n        /* \"contracts/Mooniswap.sol\":4620:4653  virtualBalancesForAddition[token] */\n      0x20\n      swap1\n      dup2\n      mstore\n      0x40\n      swap2\n      dup3\n      swap1\n      keccak256\n        /* \"contracts/Mooniswap.sol\":4620:4661  virtualBalancesForAddition[token].current */\n      dup3\n      mload\n      dup1\n      dup5\n      add\n      swap1\n      swap4\n      mstore\n      sload\n      sub(shl(0xd8, 0x01), 0x01)\n      dup2\n      and\n      dup4\n      mstore\n      shl(0xd8, 0x01)\n      swap1\n      div\n      0xffffffffff\n      and\n      swap1\n      dup3\n      add\n      mstore\n        /* \"contracts/Mooniswap.sol\":4543:4594  uint256 balance = token.uniBalanceOf(address(this)) */\n      swap1\n      swap2\n      pop\n        /* \"contracts/Mooniswap.sol\":4611:4680  Math.max(virtualBalancesForAddition[token].current(balance), balance) */\n      tag_392\n      swap1\n        /* \"contracts/Mooniswap.sol\":4620:4670  virtualBalancesForAddition[token].current(balance) */\n      tag_393\n      swap1\n        /* \"contracts/Mooniswap.sol\":4543:4594  uint256 balance = token.uniBalanceOf(address(this)) */\n      dup4\n        /* \"contracts/Mooniswap.sol\":4620:4661  virtualBalancesForAddition[token].current */\n      tag_348\n        /* \"contracts/Mooniswap.sol\":4620:4670  virtualBalancesForAddition[token].current(balance) */\n      jump\t// in\n    tag_393:\n        /* \"contracts/Mooniswap.sol\":4672:4679  balance */\n      dup3\n        /* \"contracts/Mooniswap.sol\":4611:4619  Math.max */\n      tag_349\n        /* \"contracts/Mooniswap.sol\":4611:4680  Math.max(virtualBalancesForAddition[token].current(balance), balance) */\n      jump\t// in\n    tag_392:\n        /* \"contracts/Mooniswap.sol\":4604:4680  return Math.max(virtualBalancesForAddition[token].current(balance), balance) */\n      swap4\n        /* \"contracts/Mooniswap.sol\":4459:4687  function getBalanceForAddition(IERC20 token) public view returns(uint256) {... */\n      swap3\n      pop\n      pop\n      pop\n      jump\t// out\n        /* \"@openzeppelin/contracts/token/ERC20/ERC20.sol\":3968:4117  function allowance(address owner, address spender) public view virtual override returns (uint256) {... */\n    tag_184:\n      sub(shl(0xa0, 0x01), 0x01)\n        /* \"@openzeppelin/contracts/token/ERC20/ERC20.sol\":4083:4101  _allowances[owner] */\n      swap2\n      dup3\n      and\n        /* \"@openzeppelin/contracts/token/ERC20/ERC20.sol\":4057:4064  uint256 */\n      0x00\n        /* \"@openzeppelin/contracts/token/ERC20/ERC20.sol\":4083:4101  _allowances[owner] */\n      swap1\n      dup2\n      mstore\n        /* \"@openzeppelin/contracts/token/ERC20/ERC20.sol\":4083:4094  _allowances */\n      0x01\n        /* \"@openzeppelin/contracts/token/ERC20/ERC20.sol\":4083:4101  _allowances[owner] */\n      0x20\n      swap1\n      dup2\n      mstore\n      0x40\n      dup1\n      dup4\n      keccak256\n        /* \"@openzeppelin/contracts/token/ERC20/ERC20.sol\":4083:4110  _allowances[owner][spender] */\n      swap4\n      swap1\n      swap5\n      and\n      dup3\n      mstore\n      swap2\n      swap1\n      swap2\n      mstore\n      keccak256\n      sload\n      swap1\n        /* \"@openzeppelin/contracts/token/ERC20/ERC20.sol\":3968:4117  function allowance(address owner, address spender) public view virtual override returns (uint256) {... */\n      jump\t// out\n        /* \"contracts/Mooniswap.sol\":4165:4246  function fee() public view returns(uint256) {... */\n    tag_187:\n        /* \"contracts/Mooniswap.sol\":4226:4233  factory */\n      sload(0x09)\n        /* \"contracts/Mooniswap.sol\":4226:4239  factory.fee() */\n      0x40\n      dup1\n      mload\n      shl(0xe0, 0xddca3f43)\n      dup2\n      mstore\n      swap1\n      mload\n        /* \"contracts/Mooniswap.sol\":4200:4207  uint256 */\n      0x00\n      swap3\n      sub(shl(0xa0, 0x01), 0x01)\n        /* \"contracts/Mooniswap.sol\":4226:4233  factory */\n      and\n      swap2\n        /* \"contracts/Mooniswap.sol\":4226:4237  factory.fee */\n      0xddca3f43\n      swap2\n        /* \"contracts/Mooniswap.sol\":4226:4239  factory.fee() */\n      0x04\n      dup1\n      dup4\n      add\n      swap3\n      0x20\n      swap3\n      swap2\n      swap1\n      dup3\n      swap1\n      sub\n      add\n      dup2\n        /* \"contracts/Mooniswap.sol\":4226:4233  factory */\n      dup7\n        /* \"contracts/Mooniswap.sol\":4226:4239  factory.fee() */\n      dup1\n      extcodesize\n      iszero\n      dup1\n      iszero\n      tag_396\n      jumpi\n      0x00\n      dup1\n      revert\n    tag_396:\n      pop\n      gas\n      staticcall\n      iszero\n      dup1\n      iszero\n      tag_398\n      jumpi\n      returndatasize\n      0x00\n      dup1\n      returndatacopy\n      revert(0x00, returndatasize)\n    tag_398:\n      pop\n      pop\n      pop\n      pop\n      mload(0x40)\n      returndatasize\n      0x20\n      dup2\n      lt\n      iszero\n      tag_399\n      jumpi\n      0x00\n      dup1\n      revert\n    tag_399:\n      pop\n      mload\n      swap1\n      pop\n        /* \"contracts/Mooniswap.sol\":4165:4246  function fee() public view returns(uint256) {... */\n      swap1\n      jump\t// out\n        /* \"contracts/Mooniswap.sol\":4693:4919  function getBalanceForRemoval(IERC20 token) public view returns(uint256) {... */\n    tag_191:\n        /* \"contracts/Mooniswap.sol\":4757:4764  uint256 */\n      0x00\n      dup1\n        /* \"contracts/Mooniswap.sol\":4794:4827  token.uniBalanceOf(address(this)) */\n      tag_401\n      sub(shl(0xa0, 0x01), 0x01)\n        /* \"contracts/Mooniswap.sol\":4794:4812  token.uniBalanceOf */\n      dup5\n      and\n        /* \"contracts/Mooniswap.sol\":4821:4825  this */\n      address\n        /* \"contracts/Mooniswap.sol\":4794:4812  token.uniBalanceOf */\n      tag_250\n        /* \"contracts/Mooniswap.sol\":4794:4827  token.uniBalanceOf(address(this)) */\n      jump\t// in\n    tag_401:\n      sub(shl(0xa0, 0x01), 0x01)\n        /* \"contracts/Mooniswap.sol\":4853:4885  virtualBalancesForRemoval[token] */\n      dup5\n      and\n      0x00\n      swap1\n      dup2\n      mstore\n        /* \"contracts/Mooniswap.sol\":4853:4878  virtualBalancesForRemoval */\n      0x0f\n        /* \"contracts/Mooniswap.sol\":4853:4885  virtualBalancesForRemoval[token] */\n      0x20\n      swap1\n      dup2\n      mstore\n      0x40\n      swap2\n      dup3\n      swap1\n      keccak256\n        /* \"contracts/Mooniswap.sol\":4853:4893  virtualBalancesForRemoval[token].current */\n      dup3\n      mload\n      dup1\n      dup5\n      add\n      swap1\n      swap4\n      mstore\n      sload\n      sub(shl(0xd8, 0x01), 0x01)\n      dup2\n      and\n      dup4\n      mstore\n      shl(0xd8, 0x01)\n      swap1\n      div\n      0xffffffffff\n      and\n      swap1\n      dup3\n      add\n      mstore\n        /* \"contracts/Mooniswap.sol\":4776:4827  uint256 balance = token.uniBalanceOf(address(this)) */\n      swap1\n      swap2\n      pop\n        /* \"contracts/Mooniswap.sol\":4844:4912  Math.min(virtualBalancesForRemoval[token].current(balance), balance) */\n      tag_392\n      swap1\n        /* \"contracts/Mooniswap.sol\":4853:4902  virtualBalancesForRemoval[token].current(balance) */\n      tag_403\n      swap1\n        /* \"contracts/Mooniswap.sol\":4776:4827  uint256 balance = token.uniBalanceOf(address(this)) */\n      dup4\n        /* \"contracts/Mooniswap.sol\":4853:4893  virtualBalancesForRemoval[token].current */\n      tag_348\n        /* \"contracts/Mooniswap.sol\":4853:4902  virtualBalancesForRemoval[token].current(balance) */\n      jump\t// in\n    tag_403:\n        /* \"contracts/Mooniswap.sol\":4904:4911  balance */\n      dup3\n        /* \"contracts/Mooniswap.sol\":4844:4852  Math.min */\n      tag_352\n        /* \"contracts/Mooniswap.sol\":4844:4912  Math.min(virtualBalancesForRemoval[token].current(balance), balance) */\n      jump\t// in\n        /* \"contracts/Mooniswap.sol\":5128:7717  function deposit(uint256[] calldata amounts, uint256[] calldata minAmounts) external payable nonReentrant returns(uint256 fairSupply) {... */\n    tag_200:\n        /* \"contracts/Mooniswap.sol\":5242:5260  uint256 fairSupply */\n      0x00\n        /* \"@openzeppelin/contracts/utils/ReentrancyGuard.sol\":1671:1672  2 */\n      0x02\n        /* \"@openzeppelin/contracts/utils/ReentrancyGuard.sol\":2260:2267  _status */\n      sload(0x06)\n        /* \"@openzeppelin/contracts/utils/ReentrancyGuard.sol\":2260:2279  _status != _ENTERED */\n      eq\n      iszero\n        /* \"@openzeppelin/contracts/utils/ReentrancyGuard.sol\":2252:2315  require(_status != _ENTERED, \"ReentrancyGuard: reentrant call\") */\n      tag_405\n      jumpi\n      0x40\n      dup1\n      mload\n      shl(0xe5, 0x461bcd)\n      dup2\n      mstore\n      0x20\n      0x04\n      dup3\n      add\n      mstore\n      0x1f\n      0x24\n      dup3\n      add\n      mstore\n      0x00\n      dup1\n      mload\n      0x20\n      data_0d74825aecb0211bbe1f02ccfb998d9e49771bedb2c6414e20fd8978a2e0f54c\n      dup4\n      codecopy\n      dup2\n      mload\n      swap2\n      mstore\n      0x44\n      dup3\n      add\n      mstore\n      swap1\n      mload\n      swap1\n      dup2\n      swap1\n      sub\n      0x64\n      add\n      swap1\n      revert\n    tag_405:\n        /* \"@openzeppelin/contracts/utils/ReentrancyGuard.sol\":1671:1672  2 */\n      0x02\n        /* \"@openzeppelin/contracts/utils/ReentrancyGuard.sol\":2390:2397  _status */\n      0x06\n        /* \"@openzeppelin/contracts/utils/ReentrancyGuard.sol\":2390:2408  _status = _ENTERED */\n      sstore\n        /* \"contracts/Mooniswap.sol\":5298:5304  tokens */\n      0x0a\n        /* \"contracts/Mooniswap.sol\":5272:5304  IERC20[] memory _tokens = tokens */\n      dup1\n      sload\n      0x40\n      dup1\n      mload\n      0x20\n      dup1\n      dup5\n      mul\n      dup3\n      add\n      dup2\n      add\n      swap1\n      swap3\n      mstore\n      dup3\n      dup2\n      mstore\n        /* \"contracts/Mooniswap.sol\":5272:5295  IERC20[] memory _tokens */\n      0x60\n      swap4\n        /* \"contracts/Mooniswap.sol\":5272:5304  IERC20[] memory _tokens = tokens */\n      swap1\n      swap3\n        /* \"contracts/Mooniswap.sol\":5298:5304  tokens */\n      swap1\n      swap2\n        /* \"contracts/Mooniswap.sol\":5272:5304  IERC20[] memory _tokens = tokens */\n      dup4\n      add\n        /* \"contracts/Mooniswap.sol\":5298:5304  tokens */\n      dup3\n        /* \"contracts/Mooniswap.sol\":5272:5304  IERC20[] memory _tokens = tokens */\n      dup3\n      dup1\n      iszero\n      tag_407\n      jumpi\n      0x20\n      mul\n      dup3\n      add\n      swap2\n      swap1\n      0x00\n      mstore\n      keccak256(0x00, 0x20)\n      swap1\n    tag_408:\n      dup2\n      sload\n      sub(shl(0xa0, 0x01), 0x01)\n      and\n      dup2\n      mstore\n      0x01\n      swap1\n      swap2\n      add\n      swap1\n      0x20\n      add\n      dup1\n      dup4\n      gt\n      tag_408\n      jumpi\n    tag_407:\n      pop\n      pop\n      pop\n      pop\n      pop\n      swap1\n      pop\n        /* \"contracts/Mooniswap.sol\":5340:5347  _tokens */\n      dup1\n        /* \"contracts/Mooniswap.sol\":5340:5354  _tokens.length */\n      mload\n        /* \"contracts/Mooniswap.sol\":5322:5329  amounts */\n      dup7\n      dup7\n        /* \"contracts/Mooniswap.sol\":5322:5336  amounts.length */\n      swap1\n      pop\n        /* \"contracts/Mooniswap.sol\":5322:5354  amounts.length == _tokens.length */\n      eq\n        /* \"contracts/Mooniswap.sol\":5314:5390  require(amounts.length == _tokens.length, \"Mooniswap: wrong amounts length\") */\n      tag_409\n      jumpi\n      0x40\n      dup1\n      mload\n      shl(0xe5, 0x461bcd)\n      dup2\n      mstore\n      0x20\n      0x04\n      dup3\n      add\n      mstore\n      0x1f\n      0x24\n      dup3\n      add\n      mstore\n      0x4d6f6f6e69737761703a2077726f6e6720616d6f756e7473206c656e67746800\n      0x44\n      dup3\n      add\n      mstore\n      swap1\n      mload\n      swap1\n      dup2\n      swap1\n      sub\n      0x64\n      add\n      swap1\n      revert\n    tag_409:\n        /* \"contracts/Mooniswap.sol\":5422:5440  _tokens[0].isETH() */\n      tag_410\n        /* \"contracts/Mooniswap.sol\":5422:5429  _tokens */\n      dup2\n        /* \"contracts/Mooniswap.sol\":5430:5431  0 */\n      0x00\n        /* \"contracts/Mooniswap.sol\":5422:5432  _tokens[0] */\n      dup2\n      mload\n      dup2\n      lt\n      tag_411\n      jumpi\n      invalid\n    tag_411:\n      0x20\n      mul\n      0x20\n      add\n      add\n      mload\n      sub(shl(0xa0, 0x01), 0x01)\n        /* \"contracts/Mooniswap.sol\":5422:5438  _tokens[0].isETH */\n      and\n      tag_334\n        /* \"contracts/Mooniswap.sol\":5422:5440  _tokens[0].isETH() */\n      jump\t// in\n    tag_410:\n        /* \"contracts/Mooniswap.sol\":5422:5493  _tokens[0].isETH() ? amounts[0] : (_tokens[1].isETH() ? amounts[1] : 0) */\n      tag_412\n      jumpi\n        /* \"contracts/Mooniswap.sol\":5457:5475  _tokens[1].isETH() */\n      tag_413\n        /* \"contracts/Mooniswap.sol\":5457:5464  _tokens */\n      dup2\n        /* \"contracts/Mooniswap.sol\":5465:5466  1 */\n      0x01\n        /* \"contracts/Mooniswap.sol\":5457:5467  _tokens[1] */\n      dup2\n      mload\n      dup2\n      lt\n      tag_411\n      jumpi\n      invalid\n        /* \"contracts/Mooniswap.sol\":5457:5475  _tokens[1].isETH() */\n    tag_413:\n        /* \"contracts/Mooniswap.sol\":5457:5492  _tokens[1].isETH() ? amounts[1] : 0 */\n      tag_415\n      jumpi\n        /* \"contracts/Mooniswap.sol\":5491:5492  0 */\n      0x00\n        /* \"contracts/Mooniswap.sol\":5457:5492  _tokens[1].isETH() ? amounts[1] : 0 */\n      jump(tag_416)\n    tag_415:\n        /* \"contracts/Mooniswap.sol\":5478:5485  amounts */\n      dup6\n      dup6\n        /* \"contracts/Mooniswap.sol\":5486:5487  1 */\n      0x01\n        /* \"contracts/Mooniswap.sol\":5478:5488  amounts[1] */\n      dup2\n      dup2\n      lt\n      tag_417\n      jumpi\n      invalid\n    tag_417:\n      swap1\n      pop\n      0x20\n      mul\n      add\n      calldataload\n        /* \"contracts/Mooniswap.sol\":5457:5492  _tokens[1].isETH() ? amounts[1] : 0 */\n    tag_416:\n        /* \"contracts/Mooniswap.sol\":5422:5493  _tokens[0].isETH() ? amounts[0] : (_tokens[1].isETH() ? amounts[1] : 0) */\n      jump(tag_418)\n    tag_412:\n        /* \"contracts/Mooniswap.sol\":5443:5450  amounts */\n      dup6\n      dup6\n        /* \"contracts/Mooniswap.sol\":5451:5452  0 */\n      0x00\n        /* \"contracts/Mooniswap.sol\":5443:5453  amounts[0] */\n      dup2\n      dup2\n      lt\n      tag_419\n      jumpi\n      invalid\n    tag_419:\n      swap1\n      pop\n      0x20\n      mul\n      add\n      calldataload\n        /* \"contracts/Mooniswap.sol\":5422:5493  _tokens[0].isETH() ? amounts[0] : (_tokens[1].isETH() ? amounts[1] : 0) */\n    tag_418:\n        /* \"contracts/Mooniswap.sol\":5408:5417  msg.value */\n      callvalue\n        /* \"contracts/Mooniswap.sol\":5408:5494  msg.value == (_tokens[0].isETH() ? amounts[0] : (_tokens[1].isETH() ? amounts[1] : 0)) */\n      eq\n        /* \"contracts/Mooniswap.sol\":5400:5527  require(msg.value == (_tokens[0].isETH() ? amounts[0] : (_tokens[1].isETH() ? amounts[1] : 0)), \"Mooniswap: wrong value usage\") */\n      tag_420\n      jumpi\n      0x40\n      dup1\n      mload\n      shl(0xe5, 0x461bcd)\n      dup2\n      mstore\n      0x20\n      0x04\n      dup3\n      add\n      mstore\n      0x1c\n      0x24\n      dup3\n      add\n      mstore\n      0x4d6f6f6e69737761703a2077726f6e672076616c756520757361676500000000\n      0x44\n      dup3\n      add\n      mstore\n      swap1\n      mload\n      swap1\n      dup2\n      swap1\n      sub\n      0x64\n      add\n      swap1\n      revert\n    tag_420:\n        /* \"contracts/Mooniswap.sol\":5538:5567  uint256[] memory realBalances */\n      0x60\n        /* \"contracts/Mooniswap.sol\":5584:5591  amounts */\n      dup6\n        /* \"contracts/Mooniswap.sol\":5570:5599  new uint256[](amounts.length) */\n      0xffffffffffffffff\n      dup2\n      gt\n      dup1\n      iszero\n      tag_421\n      jumpi\n      0x00\n      dup1\n      revert\n    tag_421:\n      pop\n      mload(0x40)\n      swap1\n      dup1\n      dup3\n      mstore\n      dup1\n      0x20\n      mul\n      0x20\n      add\n      dup3\n      add\n      0x40\n      mstore\n      dup1\n      iszero\n      tag_422\n      jumpi\n      dup2\n      0x20\n      add\n      0x20\n      dup3\n      mul\n      dup1\n      calldatasize\n      dup4\n      calldatacopy\n      add\n      swap1\n      pop\n    tag_422:\n      pop\n        /* \"contracts/Mooniswap.sol\":5538:5599  uint256[] memory realBalances = new uint256[](amounts.length) */\n      swap1\n      pop\n        /* \"contracts/Mooniswap.sol\":5614:5620  uint i */\n      0x00\n        /* \"contracts/Mooniswap.sol\":5609:5777  for (uint i = 0; i < realBalances.length; i++) {... */\n    tag_423:\n        /* \"contracts/Mooniswap.sol\":5630:5642  realBalances */\n      dup2\n        /* \"contracts/Mooniswap.sol\":5630:5649  realBalances.length */\n      mload\n        /* \"contracts/Mooniswap.sol\":5626:5627  i */\n      dup2\n        /* \"contracts/Mooniswap.sol\":5626:5649  i < realBalances.length */\n      lt\n        /* \"contracts/Mooniswap.sol\":5609:5777  for (uint i = 0; i < realBalances.length; i++) {... */\n      iszero\n      tag_424\n      jumpi\n        /* \"contracts/Mooniswap.sol\":5688:5766  _tokens[i].uniBalanceOf(address(this)).sub(_tokens[i].isETH() ? msg.value : 0) */\n      tag_426\n        /* \"contracts/Mooniswap.sol\":5731:5749  _tokens[i].isETH() */\n      tag_427\n        /* \"contracts/Mooniswap.sol\":5731:5738  _tokens */\n      dup5\n        /* \"contracts/Mooniswap.sol\":5739:5740  i */\n      dup4\n        /* \"contracts/Mooniswap.sol\":5731:5741  _tokens[i] */\n      dup2\n      mload\n      dup2\n      lt\n      tag_411\n      jumpi\n      invalid\n        /* \"contracts/Mooniswap.sol\":5731:5749  _tokens[i].isETH() */\n    tag_427:\n        /* \"contracts/Mooniswap.sol\":5731:5765  _tokens[i].isETH() ? msg.value : 0 */\n      tag_429\n      jumpi\n        /* \"contracts/Mooniswap.sol\":5764:5765  0 */\n      0x00\n        /* \"contracts/Mooniswap.sol\":5731:5765  _tokens[i].isETH() ? msg.value : 0 */\n      jump(tag_430)\n    tag_429:\n        /* \"contracts/Mooniswap.sol\":5752:5761  msg.value */\n      callvalue\n        /* \"contracts/Mooniswap.sol\":5731:5765  _tokens[i].isETH() ? msg.value : 0 */\n    tag_430:\n        /* \"contracts/Mooniswap.sol\":5688:5726  _tokens[i].uniBalanceOf(address(this)) */\n      tag_344\n        /* \"contracts/Mooniswap.sol\":5720:5724  this */\n      address\n        /* \"contracts/Mooniswap.sol\":5688:5695  _tokens */\n      dup7\n        /* \"contracts/Mooniswap.sol\":5696:5697  i */\n      dup6\n        /* \"contracts/Mooniswap.sol\":5688:5698  _tokens[i] */\n      dup2\n      mload\n      dup2\n      lt\n      tag_432\n      jumpi\n      invalid\n    tag_432:\n      0x20\n      mul\n      0x20\n      add\n      add\n      mload\n      sub(shl(0xa0, 0x01), 0x01)\n        /* \"contracts/Mooniswap.sol\":5688:5711  _tokens[i].uniBalanceOf */\n      and\n      tag_250\n      swap1\n        /* \"contracts/Mooniswap.sol\":5688:5726  _tokens[i].uniBalanceOf(address(this)) */\n      swap2\n      swap1\n      0xffffffff\n      and\n      jump\t// in\n        /* \"contracts/Mooniswap.sol\":5688:5766  _tokens[i].uniBalanceOf(address(this)).sub(_tokens[i].isETH() ? msg.value : 0) */\n    tag_426:\n        /* \"contracts/Mooniswap.sol\":5670:5682  realBalances */\n      dup3\n        /* \"contracts/Mooniswap.sol\":5683:5684  i */\n      dup3\n        /* \"contracts/Mooniswap.sol\":5670:5685  realBalances[i] */\n      dup2\n      mload\n      dup2\n      lt\n      tag_433\n      jumpi\n      invalid\n    tag_433:\n      0x20\n      swap1\n      dup2\n      mul\n      swap2\n      swap1\n      swap2\n      add\n      add\n        /* \"contracts/Mooniswap.sol\":5670:5766  realBalances[i] = _tokens[i].uniBalanceOf(address(this)).sub(_tokens[i].isETH() ? msg.value : 0) */\n      mstore\n        /* \"contracts/Mooniswap.sol\":5651:5654  i++ */\n      0x01\n      add\n        /* \"contracts/Mooniswap.sol\":5609:5777  for (uint i = 0; i < realBalances.length; i++) {... */\n      jump(tag_423)\n    tag_424:\n      pop\n        /* \"contracts/Mooniswap.sol\":5787:5806  uint256 totalSupply */\n      0x00\n        /* \"contracts/Mooniswap.sol\":5809:5822  totalSupply() */\n      tag_434\n        /* \"contracts/Mooniswap.sol\":5809:5820  totalSupply */\n      tag_60\n        /* \"contracts/Mooniswap.sol\":5809:5822  totalSupply() */\n      jump\t// in\n    tag_434:\n        /* \"contracts/Mooniswap.sol\":5787:5822  uint256 totalSupply = totalSupply() */\n      swap1\n      pop\n        /* \"contracts/Mooniswap.sol\":5836:5852  totalSupply == 0 */\n      dup1\n        /* \"contracts/Mooniswap.sol\":5832:6480  if (totalSupply == 0) {... */\n      tag_435\n      jumpi\n        /* \"contracts/Mooniswap.sol\":5881:5900  BASE_SUPPLY.mul(99) */\n      tag_436\n        /* \"contracts/Mooniswap.sol\":2481:2485  1000 */\n      0x03e8\n        /* \"contracts/Mooniswap.sol\":5897:5899  99 */\n      0x63\n        /* \"contracts/Mooniswap.sol\":5881:5896  BASE_SUPPLY.mul */\n      tag_253\n        /* \"contracts/Mooniswap.sol\":5881:5900  BASE_SUPPLY.mul(99) */\n      jump\t// in\n    tag_436:\n        /* \"contracts/Mooniswap.sol\":5868:5900  fairSupply = BASE_SUPPLY.mul(99) */\n      swap4\n      pop\n        /* \"contracts/Mooniswap.sol\":5914:5947  _mint(address(this), BASE_SUPPLY) */\n      tag_437\n        /* \"contracts/Mooniswap.sol\":5928:5932  this */\n      address\n        /* \"contracts/Mooniswap.sol\":2481:2485  1000 */\n      0x03e8\n        /* \"contracts/Mooniswap.sol\":5914:5919  _mint */\n      tag_388\n        /* \"contracts/Mooniswap.sol\":5914:5947  _mint(address(this), BASE_SUPPLY) */\n      jump\t// in\n    tag_437:\n        /* \"contracts/Mooniswap.sol\":6076:6082  uint i */\n      0x00\n        /* \"contracts/Mooniswap.sol\":6071:6191  for (uint i = 0; i < amounts.length; i++) {... */\n    tag_438:\n        /* \"contracts/Mooniswap.sol\":6088:6106  i < amounts.length */\n      dup8\n      dup2\n      lt\n        /* \"contracts/Mooniswap.sol\":6071:6191  for (uint i = 0; i < amounts.length; i++) {... */\n      iszero\n      tag_439\n      jumpi\n        /* \"contracts/Mooniswap.sol\":6144:6176  Math.max(fairSupply, amounts[i]) */\n      tag_441\n        /* \"contracts/Mooniswap.sol\":6153:6163  fairSupply */\n      dup6\n        /* \"contracts/Mooniswap.sol\":6165:6172  amounts */\n      dup11\n      dup11\n        /* \"contracts/Mooniswap.sol\":6173:6174  i */\n      dup5\n        /* \"contracts/Mooniswap.sol\":6165:6175  amounts[i] */\n      dup2\n      dup2\n      lt\n      tag_442\n      jumpi\n      invalid\n    tag_442:\n      swap1\n      pop\n      0x20\n      mul\n      add\n      calldataload\n        /* \"contracts/Mooniswap.sol\":6144:6152  Math.max */\n      tag_349\n        /* \"contracts/Mooniswap.sol\":6144:6176  Math.max(fairSupply, amounts[i]) */\n      jump\t// in\n    tag_441:\n        /* \"contracts/Mooniswap.sol\":6131:6176  fairSupply = Math.max(fairSupply, amounts[i]) */\n      swap5\n      pop\n        /* \"contracts/Mooniswap.sol\":6108:6111  i++ */\n      0x01\n      add\n        /* \"contracts/Mooniswap.sol\":6071:6191  for (uint i = 0; i < amounts.length; i++) {... */\n      jump(tag_438)\n    tag_439:\n      pop\n        /* \"contracts/Mooniswap.sol\":5832:6480  if (totalSupply == 0) {... */\n      jump(tag_443)\n    tag_435:\n      not(0x00)\n        /* \"contracts/Mooniswap.sol\":6268:6298  fairSupply = type(uint256).max */\n      swap4\n      pop\n        /* \"contracts/Mooniswap.sol\":6317:6323  uint i */\n      0x00\n        /* \"contracts/Mooniswap.sol\":6312:6470  for (uint i = 0; i < amounts.length; i++) {... */\n    tag_444:\n        /* \"contracts/Mooniswap.sol\":6329:6347  i < amounts.length */\n      dup8\n      dup2\n      lt\n        /* \"contracts/Mooniswap.sol\":6312:6470  for (uint i = 0; i < amounts.length; i++) {... */\n      iszero\n      tag_445\n      jumpi\n        /* \"contracts/Mooniswap.sol\":6385:6455  Math.min(fairSupply, totalSupply.mul(amounts[i]).div(realBalances[i])) */\n      tag_447\n        /* \"contracts/Mooniswap.sol\":6394:6404  fairSupply */\n      dup6\n        /* \"contracts/Mooniswap.sol\":6406:6454  totalSupply.mul(amounts[i]).div(realBalances[i]) */\n      tag_448\n        /* \"contracts/Mooniswap.sol\":6438:6450  realBalances */\n      dup6\n        /* \"contracts/Mooniswap.sol\":6451:6452  i */\n      dup5\n        /* \"contracts/Mooniswap.sol\":6438:6453  realBalances[i] */\n      dup2\n      mload\n      dup2\n      lt\n      tag_449\n      jumpi\n      invalid\n    tag_449:\n      0x20\n      mul\n      0x20\n      add\n      add\n      mload\n        /* \"contracts/Mooniswap.sol\":6406:6433  totalSupply.mul(amounts[i]) */\n      tag_252\n        /* \"contracts/Mooniswap.sol\":6422:6429  amounts */\n      dup14\n      dup14\n        /* \"contracts/Mooniswap.sol\":6430:6431  i */\n      dup8\n        /* \"contracts/Mooniswap.sol\":6422:6432  amounts[i] */\n      dup2\n      dup2\n      lt\n      tag_451\n      jumpi\n      invalid\n    tag_451:\n      swap1\n      pop\n      0x20\n      mul\n      add\n      calldataload\n        /* \"contracts/Mooniswap.sol\":6406:6417  totalSupply */\n      dup8\n        /* \"contracts/Mooniswap.sol\":6406:6421  totalSupply.mul */\n      tag_253\n      swap1\n        /* \"contracts/Mooniswap.sol\":6406:6433  totalSupply.mul(amounts[i]) */\n      swap2\n      swap1\n      0xffffffff\n      and\n      jump\t// in\n        /* \"contracts/Mooniswap.sol\":6406:6454  totalSupply.mul(amounts[i]).div(realBalances[i]) */\n    tag_448:\n        /* \"contracts/Mooniswap.sol\":6385:6393  Math.min */\n      tag_352\n        /* \"contracts/Mooniswap.sol\":6385:6455  Math.min(fairSupply, totalSupply.mul(amounts[i]).div(realBalances[i])) */\n      jump\t// in\n    tag_447:\n        /* \"contracts/Mooniswap.sol\":6372:6455  fairSupply = Math.min(fairSupply, totalSupply.mul(amounts[i]).div(realBalances[i])) */\n      swap5\n      pop\n        /* \"contracts/Mooniswap.sol\":6349:6352  i++ */\n      0x01\n      add\n        /* \"contracts/Mooniswap.sol\":6312:6470  for (uint i = 0; i < amounts.length; i++) {... */\n      jump(tag_444)\n    tag_445:\n      pop\n        /* \"contracts/Mooniswap.sol\":5832:6480  if (totalSupply == 0) {... */\n    tag_443:\n        /* \"contracts/Mooniswap.sol\":6517:6527  fairSupply */\n      dup4\n        /* \"contracts/Mooniswap.sol\":6490:6514  uint256 fairSupplyCached */\n      0x00\n        /* \"contracts/Mooniswap.sol\":6537:7201  for (uint i = 0; i < amounts.length; i++) {... */\n    tag_452:\n        /* \"contracts/Mooniswap.sol\":6554:6572  i < amounts.length */\n      dup9\n      dup2\n      lt\n        /* \"contracts/Mooniswap.sol\":6537:7201  for (uint i = 0; i < amounts.length; i++) {... */\n      iszero\n      tag_453\n      jumpi\n        /* \"contracts/Mooniswap.sol\":6614:6615  0 */\n      0x00\n        /* \"contracts/Mooniswap.sol\":6601:6608  amounts */\n      dup11\n      dup11\n        /* \"contracts/Mooniswap.sol\":6609:6610  i */\n      dup4\n        /* \"contracts/Mooniswap.sol\":6601:6611  amounts[i] */\n      dup2\n      dup2\n      lt\n      tag_455\n      jumpi\n      invalid\n    tag_455:\n      swap1\n      pop\n      0x20\n      mul\n      add\n      calldataload\n        /* \"contracts/Mooniswap.sol\":6601:6615  amounts[i] > 0 */\n      gt\n        /* \"contracts/Mooniswap.sol\":6593:6645  require(amounts[i] > 0, \"Mooniswap: amount is zero\") */\n      tag_456\n      jumpi\n      0x40\n      dup1\n      mload\n      shl(0xe5, 0x461bcd)\n      dup2\n      mstore\n      0x20\n      0x04\n      dup3\n      add\n      mstore\n      0x19\n      0x24\n      dup3\n      add\n      mstore\n      0x4d6f6f6e69737761703a20616d6f756e74206973207a65726f00000000000000\n      0x44\n      dup3\n      add\n      mstore\n      swap1\n      mload\n      swap1\n      dup2\n      swap1\n      sub\n      0x64\n      add\n      swap1\n      revert\n    tag_456:\n        /* \"contracts/Mooniswap.sol\":6659:6673  uint256 amount */\n      0x00\n        /* \"contracts/Mooniswap.sol\":6677:6693  totalSupply == 0 */\n      dup4\n      iszero\n        /* \"contracts/Mooniswap.sol\":6676:6801  (totalSupply == 0) ? amounts[i] :... */\n      tag_457\n      jumpi\n        /* \"contracts/Mooniswap.sol\":6726:6801  realBalances[i].mul(fairSupplyCached).add(totalSupply - 1).div(totalSupply) */\n      tag_458\n        /* \"contracts/Mooniswap.sol\":6789:6800  totalSupply */\n      dup5\n        /* \"contracts/Mooniswap.sol\":6726:6784  realBalances[i].mul(fairSupplyCached).add(totalSupply - 1) */\n      tag_252\n        /* \"contracts/Mooniswap.sol\":6782:6783  1 */\n      0x01\n        /* \"contracts/Mooniswap.sol\":6768:6779  totalSupply */\n      dup8\n        /* \"contracts/Mooniswap.sol\":6768:6783  totalSupply - 1 */\n      sub\n        /* \"contracts/Mooniswap.sol\":6726:6763  realBalances[i].mul(fairSupplyCached) */\n      tag_460\n        /* \"contracts/Mooniswap.sol\":6746:6762  fairSupplyCached */\n      dup8\n        /* \"contracts/Mooniswap.sol\":6726:6738  realBalances */\n      dup11\n        /* \"contracts/Mooniswap.sol\":6739:6740  i */\n      dup9\n        /* \"contracts/Mooniswap.sol\":6726:6741  realBalances[i] */\n      dup2\n      mload\n      dup2\n      lt\n      tag_461\n      jumpi\n      invalid\n    tag_461:\n      0x20\n      mul\n      0x20\n      add\n      add\n      mload\n        /* \"contracts/Mooniswap.sol\":6726:6745  realBalances[i].mul */\n      tag_253\n      swap1\n        /* \"contracts/Mooniswap.sol\":6726:6763  realBalances[i].mul(fairSupplyCached) */\n      swap2\n      swap1\n      0xffffffff\n      and\n      jump\t// in\n    tag_460:\n        /* \"contracts/Mooniswap.sol\":6726:6767  realBalances[i].mul(fairSupplyCached).add */\n      swap1\n      tag_234\n        /* \"contracts/Mooniswap.sol\":6726:6784  realBalances[i].mul(fairSupplyCached).add(totalSupply - 1) */\n      jump\t// in\n        /* \"contracts/Mooniswap.sol\":6726:6801  realBalances[i].mul(fairSupplyCached).add(totalSupply - 1).div(totalSupply) */\n    tag_458:\n        /* \"contracts/Mooniswap.sol\":6676:6801  (totalSupply == 0) ? amounts[i] :... */\n      jump(tag_462)\n    tag_457:\n        /* \"contracts/Mooniswap.sol\":6697:6704  amounts */\n      dup11\n      dup11\n        /* \"contracts/Mooniswap.sol\":6705:6706  i */\n      dup4\n        /* \"contracts/Mooniswap.sol\":6697:6707  amounts[i] */\n      dup2\n      dup2\n      lt\n      tag_463\n      jumpi\n      invalid\n    tag_463:\n      swap1\n      pop\n      0x20\n      mul\n      add\n      calldataload\n        /* \"contracts/Mooniswap.sol\":6676:6801  (totalSupply == 0) ? amounts[i] :... */\n    tag_462:\n        /* \"contracts/Mooniswap.sol\":6659:6801  uint256 amount = (totalSupply == 0) ? amounts[i] :... */\n      swap1\n      pop\n        /* \"contracts/Mooniswap.sol\":6833:6843  minAmounts */\n      dup9\n      dup9\n        /* \"contracts/Mooniswap.sol\":6844:6845  i */\n      dup4\n        /* \"contracts/Mooniswap.sol\":6833:6846  minAmounts[i] */\n      dup2\n      dup2\n      lt\n      tag_464\n      jumpi\n      invalid\n    tag_464:\n      swap1\n      pop\n      0x20\n      mul\n      add\n      calldataload\n        /* \"contracts/Mooniswap.sol\":6823:6829  amount */\n      dup2\n        /* \"contracts/Mooniswap.sol\":6823:6846  amount >= minAmounts[i] */\n      lt\n      iszero\n        /* \"contracts/Mooniswap.sol\":6815:6883  require(amount >= minAmounts[i], \"Mooniswap: minAmount not reached\") */\n      tag_465\n      jumpi\n      0x40\n      dup1\n      mload\n      shl(0xe5, 0x461bcd)\n      dup2\n      mstore\n      0x20\n      0x04\n      dup3\n      add\n      dup2\n      swap1\n      mstore\n      0x24\n      dup3\n      add\n      mstore\n      0x4d6f6f6e69737761703a206d696e416d6f756e74206e6f742072656163686564\n      0x44\n      dup3\n      add\n      mstore\n      swap1\n      mload\n      swap1\n      dup2\n      swap1\n      sub\n      0x64\n      add\n      swap1\n      revert\n    tag_465:\n        /* \"contracts/Mooniswap.sol\":6898:6944  _tokens[i].uniTransferFromSenderToThis(amount) */\n      tag_466\n        /* \"contracts/Mooniswap.sol\":6937:6943  amount */\n      dup2\n        /* \"contracts/Mooniswap.sol\":6898:6905  _tokens */\n      dup8\n        /* \"contracts/Mooniswap.sol\":6906:6907  i */\n      dup5\n        /* \"contracts/Mooniswap.sol\":6898:6908  _tokens[i] */\n      dup2\n      mload\n      dup2\n      lt\n      tag_467\n      jumpi\n      invalid\n    tag_467:\n      0x20\n      mul\n      0x20\n      add\n      add\n      mload\n      sub(shl(0xa0, 0x01), 0x01)\n        /* \"contracts/Mooniswap.sol\":6898:6936  _tokens[i].uniTransferFromSenderToThis */\n      and\n      tag_354\n      swap1\n        /* \"contracts/Mooniswap.sol\":6898:6944  _tokens[i].uniTransferFromSenderToThis(amount) */\n      swap2\n      swap1\n      0xffffffff\n      and\n      jump\t// in\n    tag_466:\n        /* \"contracts/Mooniswap.sol\":6962:6977  totalSupply > 0 */\n      dup4\n      iszero\n        /* \"contracts/Mooniswap.sol\":6958:7191  if (totalSupply > 0) {... */\n      tag_468\n      jumpi\n        /* \"contracts/Mooniswap.sol\":6997:7014  uint256 confirmed */\n      0x00\n        /* \"contracts/Mooniswap.sol\":7017:7076  _tokens[i].uniBalanceOf(address(this)).sub(realBalances[i]) */\n      tag_469\n        /* \"contracts/Mooniswap.sol\":7060:7072  realBalances */\n      dup7\n        /* \"contracts/Mooniswap.sol\":7073:7074  i */\n      dup5\n        /* \"contracts/Mooniswap.sol\":7060:7075  realBalances[i] */\n      dup2\n      mload\n      dup2\n      lt\n      tag_470\n      jumpi\n      invalid\n    tag_470:\n      0x20\n      mul\n      0x20\n      add\n      add\n      mload\n        /* \"contracts/Mooniswap.sol\":7017:7055  _tokens[i].uniBalanceOf(address(this)) */\n      tag_344\n        /* \"contracts/Mooniswap.sol\":7049:7053  this */\n      address\n        /* \"contracts/Mooniswap.sol\":7017:7024  _tokens */\n      dup11\n        /* \"contracts/Mooniswap.sol\":7025:7026  i */\n      dup8\n        /* \"contracts/Mooniswap.sol\":7017:7027  _tokens[i] */\n      dup2\n      mload\n      dup2\n      lt\n      tag_432\n      jumpi\n      invalid\n        /* \"contracts/Mooniswap.sol\":7017:7076  _tokens[i].uniBalanceOf(address(this)).sub(realBalances[i]) */\n    tag_469:\n        /* \"contracts/Mooniswap.sol\":6997:7076  uint256 confirmed = _tokens[i].uniBalanceOf(address(this)).sub(realBalances[i]) */\n      swap1\n      pop\n        /* \"contracts/Mooniswap.sol\":7107:7176  Math.min(fairSupply, totalSupply.mul(confirmed).div(realBalances[i])) */\n      tag_473\n        /* \"contracts/Mooniswap.sol\":7116:7126  fairSupply */\n      dup9\n        /* \"contracts/Mooniswap.sol\":7128:7175  totalSupply.mul(confirmed).div(realBalances[i]) */\n      tag_448\n        /* \"contracts/Mooniswap.sol\":7159:7171  realBalances */\n      dup9\n        /* \"contracts/Mooniswap.sol\":7172:7173  i */\n      dup7\n        /* \"contracts/Mooniswap.sol\":7159:7174  realBalances[i] */\n      dup2\n      mload\n      dup2\n      lt\n      tag_475\n      jumpi\n      invalid\n    tag_475:\n      0x20\n      mul\n      0x20\n      add\n      add\n      mload\n        /* \"contracts/Mooniswap.sol\":7128:7154  totalSupply.mul(confirmed) */\n      tag_252\n        /* \"contracts/Mooniswap.sol\":7144:7153  confirmed */\n      dup6\n        /* \"contracts/Mooniswap.sol\":7128:7139  totalSupply */\n      dup11\n        /* \"contracts/Mooniswap.sol\":7128:7143  totalSupply.mul */\n      tag_253\n      swap1\n        /* \"contracts/Mooniswap.sol\":7128:7154  totalSupply.mul(confirmed) */\n      swap2\n      swap1\n      0xffffffff\n      and\n      jump\t// in\n        /* \"contracts/Mooniswap.sol\":7107:7176  Math.min(fairSupply, totalSupply.mul(confirmed).div(realBalances[i])) */\n    tag_473:\n        /* \"contracts/Mooniswap.sol\":7094:7176  fairSupply = Math.min(fairSupply, totalSupply.mul(confirmed).div(realBalances[i])) */\n      swap8\n      pop\n        /* \"contracts/Mooniswap.sol\":6958:7191  if (totalSupply > 0) {... */\n      pop\n    tag_468:\n      pop\n        /* \"contracts/Mooniswap.sol\":6574:6577  i++ */\n      0x01\n      add\n        /* \"contracts/Mooniswap.sol\":6537:7201  for (uint i = 0; i < amounts.length; i++) {... */\n      jump(tag_452)\n    tag_453:\n      pop\n        /* \"contracts/Mooniswap.sol\":7215:7230  totalSupply > 0 */\n      dup2\n      iszero\n        /* \"contracts/Mooniswap.sol\":7211:7554  if (totalSupply > 0) {... */\n      tag_477\n      jumpi\n        /* \"contracts/Mooniswap.sol\":7251:7257  uint i */\n      0x00\n        /* \"contracts/Mooniswap.sol\":7246:7544  for (uint i = 0; i < amounts.length; i++) {... */\n    tag_478:\n        /* \"contracts/Mooniswap.sol\":7263:7281  i < amounts.length */\n      dup9\n      dup2\n      lt\n        /* \"contracts/Mooniswap.sol\":7246:7544  for (uint i = 0; i < amounts.length; i++) {... */\n      iszero\n      tag_479\n      jumpi\n        /* \"contracts/Mooniswap.sol\":7306:7408  virtualBalancesForRemoval[_tokens[i]].scale(realBalances[i], totalSupply.add(fairSupply), totalSupply) */\n      tag_481\n        /* \"contracts/Mooniswap.sol\":7350:7362  realBalances */\n      dup5\n        /* \"contracts/Mooniswap.sol\":7363:7364  i */\n      dup3\n        /* \"contracts/Mooniswap.sol\":7350:7365  realBalances[i] */\n      dup2\n      mload\n      dup2\n      lt\n      tag_482\n      jumpi\n      invalid\n    tag_482:\n      0x20\n      mul\n      0x20\n      add\n      add\n      mload\n        /* \"contracts/Mooniswap.sol\":7367:7394  totalSupply.add(fairSupply) */\n      tag_483\n        /* \"contracts/Mooniswap.sol\":7383:7393  fairSupply */\n      dup9\n        /* \"contracts/Mooniswap.sol\":7367:7378  totalSupply */\n      dup7\n        /* \"contracts/Mooniswap.sol\":7367:7382  totalSupply.add */\n      tag_234\n      swap1\n        /* \"contracts/Mooniswap.sol\":7367:7394  totalSupply.add(fairSupply) */\n      swap2\n      swap1\n      0xffffffff\n      and\n      jump\t// in\n    tag_483:\n        /* \"contracts/Mooniswap.sol\":7396:7407  totalSupply */\n      dup6\n        /* \"contracts/Mooniswap.sol\":7306:7331  virtualBalancesForRemoval */\n      0x0f\n        /* \"contracts/Mooniswap.sol\":7306:7343  virtualBalancesForRemoval[_tokens[i]] */\n      0x00\n        /* \"contracts/Mooniswap.sol\":7332:7339  _tokens */\n      dup11\n        /* \"contracts/Mooniswap.sol\":7340:7341  i */\n      dup8\n        /* \"contracts/Mooniswap.sol\":7332:7342  _tokens[i] */\n      dup2\n      mload\n      dup2\n      lt\n      tag_484\n      jumpi\n      invalid\n    tag_484:\n      0x20\n      mul\n      0x20\n      add\n      add\n      mload\n      sub(shl(0xa0, 0x01), 0x01)\n        /* \"contracts/Mooniswap.sol\":7306:7343  virtualBalancesForRemoval[_tokens[i]] */\n      and\n      sub(shl(0xa0, 0x01), 0x01)\n      and\n      dup2\n      mstore\n      0x20\n      add\n      swap1\n      dup2\n      mstore\n      0x20\n      add\n      0x00\n      keccak256\n        /* \"contracts/Mooniswap.sol\":7306:7349  virtualBalancesForRemoval[_tokens[i]].scale */\n      tag_263\n      swap1\n        /* \"contracts/Mooniswap.sol\":7306:7408  virtualBalancesForRemoval[_tokens[i]].scale(realBalances[i], totalSupply.add(fairSupply), totalSupply) */\n      swap4\n      swap3\n      swap2\n      swap1\n      0xffffffff\n      and\n      jump\t// in\n    tag_481:\n        /* \"contracts/Mooniswap.sol\":7426:7529  virtualBalancesForAddition[_tokens[i]].scale(realBalances[i], totalSupply.add(fairSupply), totalSupply) */\n      tag_485\n        /* \"contracts/Mooniswap.sol\":7471:7483  realBalances */\n      dup5\n        /* \"contracts/Mooniswap.sol\":7484:7485  i */\n      dup3\n        /* \"contracts/Mooniswap.sol\":7471:7486  realBalances[i] */\n      dup2\n      mload\n      dup2\n      lt\n      tag_486\n      jumpi\n      invalid\n    tag_486:\n      0x20\n      mul\n      0x20\n      add\n      add\n      mload\n        /* \"contracts/Mooniswap.sol\":7488:7515  totalSupply.add(fairSupply) */\n      tag_487\n        /* \"contracts/Mooniswap.sol\":7504:7514  fairSupply */\n      dup9\n        /* \"contracts/Mooniswap.sol\":7488:7499  totalSupply */\n      dup7\n        /* \"contracts/Mooniswap.sol\":7488:7503  totalSupply.add */\n      tag_234\n      swap1\n        /* \"contracts/Mooniswap.sol\":7488:7515  totalSupply.add(fairSupply) */\n      swap2\n      swap1\n      0xffffffff\n      and\n      jump\t// in\n    tag_487:\n        /* \"contracts/Mooniswap.sol\":7517:7528  totalSupply */\n      dup6\n        /* \"contracts/Mooniswap.sol\":7426:7452  virtualBalancesForAddition */\n      0x0e\n        /* \"contracts/Mooniswap.sol\":7426:7464  virtualBalancesForAddition[_tokens[i]] */\n      0x00\n        /* \"contracts/Mooniswap.sol\":7453:7460  _tokens */\n      dup11\n        /* \"contracts/Mooniswap.sol\":7461:7462  i */\n      dup8\n        /* \"contracts/Mooniswap.sol\":7453:7463  _tokens[i] */\n      dup2\n      mload\n      dup2\n      lt\n      tag_484\n      jumpi\n      invalid\n        /* \"contracts/Mooniswap.sol\":7426:7529  virtualBalancesForAddition[_tokens[i]].scale(realBalances[i], totalSupply.add(fairSupply), totalSupply) */\n    tag_485:\n        /* \"contracts/Mooniswap.sol\":7283:7286  i++ */\n      0x01\n      add\n        /* \"contracts/Mooniswap.sol\":7246:7544  for (uint i = 0; i < amounts.length; i++) {... */\n      jump(tag_478)\n    tag_479:\n      pop\n        /* \"contracts/Mooniswap.sol\":7211:7554  if (totalSupply > 0) {... */\n    tag_477:\n        /* \"contracts/Mooniswap.sol\":7585:7586  0 */\n      0x00\n        /* \"contracts/Mooniswap.sol\":7572:7582  fairSupply */\n      dup6\n        /* \"contracts/Mooniswap.sol\":7572:7586  fairSupply > 0 */\n      gt\n        /* \"contracts/Mooniswap.sol\":7564:7622  require(fairSupply > 0, \"Mooniswap: result is not enough\") */\n      tag_489\n      jumpi\n      0x40\n      dup1\n      mload\n      shl(0xe5, 0x461bcd)\n      dup2\n      mstore\n      0x20\n      0x04\n      dup3\n      add\n      mstore\n      0x1f\n      0x24\n      dup3\n      add\n      mstore\n      0x4d6f6f6e69737761703a20726573756c74206973206e6f7420656e6f75676800\n      0x44\n      dup3\n      add\n      mstore\n      swap1\n      mload\n      swap1\n      dup2\n      swap1\n      sub\n      0x64\n      add\n      swap1\n      revert\n    tag_489:\n        /* \"contracts/Mooniswap.sol\":7632:7661  _mint(msg.sender, fairSupply) */\n      tag_490\n        /* \"contracts/Mooniswap.sol\":7638:7648  msg.sender */\n      caller\n        /* \"contracts/Mooniswap.sol\":7650:7660  fairSupply */\n      dup7\n        /* \"contracts/Mooniswap.sol\":7632:7637  _mint */\n      tag_388\n        /* \"contracts/Mooniswap.sol\":7632:7661  _mint(msg.sender, fairSupply) */\n      jump\t// in\n    tag_490:\n        /* \"contracts/Mooniswap.sol\":7677:7710  Deposited(msg.sender, fairSupply) */\n      0x40\n      dup1\n      mload\n      dup7\n      dup2\n      mstore\n      swap1\n      mload\n        /* \"contracts/Mooniswap.sol\":7687:7697  msg.sender */\n      caller\n      swap2\n        /* \"contracts/Mooniswap.sol\":7677:7710  Deposited(msg.sender, fairSupply) */\n      0x2da466a7b24304f47e87fa2e1e5a81b9831ce54fec19055ce277ca2f39ba42c4\n      swap2\n      swap1\n      dup2\n      swap1\n      sub\n      0x20\n      add\n      swap1\n      log2\n      pop\n      pop\n        /* \"@openzeppelin/contracts/utils/ReentrancyGuard.sol\":1628:1629  1 */\n      0x01\n        /* \"@openzeppelin/contracts/utils/ReentrancyGuard.sol\":2563:2570  _status */\n      0x06\n        /* \"@openzeppelin/contracts/utils/ReentrancyGuard.sol\":2563:2585  _status = _NOT_ENTERED */\n      sstore\n      pop\n        /* \"contracts/Mooniswap.sol\":5128:7717  function deposit(uint256[] calldata amounts, uint256[] calldata minAmounts) external payable nonReentrant returns(uint256 fairSupply) {... */\n      swap1\n      swap6\n      swap5\n      pop\n      pop\n      pop\n      pop\n      pop\n      jump\t// out\n        /* \"@openzeppelin/contracts/access/Ownable.sol\":1983:2223  function transferOwnership(address newOwner) public virtual onlyOwner {... */\n    tag_204:\n        /* \"@openzeppelin/contracts/access/Ownable.sol\":1280:1292  _msgSender() */\n      tag_492\n        /* \"@openzeppelin/contracts/access/Ownable.sol\":1280:1290  _msgSender */\n      tag_212\n        /* \"@openzeppelin/contracts/access/Ownable.sol\":1280:1292  _msgSender() */\n      jump\t// in\n    tag_492:\n        /* \"@openzeppelin/contracts/access/Ownable.sol\":1270:1276  _owner */\n      sload(0x07)\n      sub(shl(0xa0, 0x01), 0x01)\n      swap1\n      dup2\n      and\n        /* \"@openzeppelin/contracts/access/Ownable.sol\":1270:1292  _owner == _msgSender() */\n      swap2\n      and\n      eq\n        /* \"@openzeppelin/contracts/access/Ownable.sol\":1262:1329  require(_owner == _msgSender(), \"Ownable: caller is not the owner\") */\n      tag_493\n      jumpi\n      0x40\n      dup1\n      mload\n      shl(0xe5, 0x461bcd)\n      dup2\n      mstore\n      0x20\n      0x04\n      dup3\n      add\n      dup2\n      swap1\n      mstore\n      0x24\n      dup3\n      add\n      mstore\n      0x4f776e61626c653a2063616c6c6572206973206e6f7420746865206f776e6572\n      0x44\n      dup3\n      add\n      mstore\n      swap1\n      mload\n      swap1\n      dup2\n      swap1\n      sub\n      0x64\n      add\n      swap1\n      revert\n    tag_493:\n      sub(shl(0xa0, 0x01), 0x01)\n        /* \"@openzeppelin/contracts/access/Ownable.sol\":2071:2093  newOwner != address(0) */\n      dup2\n      and\n        /* \"@openzeppelin/contracts/access/Ownable.sol\":2063:2136  require(newOwner != address(0), \"Ownable: new owner is the zero address\") */\n      tag_495\n      jumpi\n      mload(0x40)\n      shl(0xe5, 0x461bcd)\n      dup2\n      mstore\n      0x04\n      add\n      dup1\n      dup1\n      0x20\n      add\n      dup3\n      dup2\n      sub\n      dup3\n      mstore\n      0x26\n      dup2\n      mstore\n      0x20\n      add\n      dup1\n      data_245f15ff17f551913a7a18385165551503906a406f905ac1c2437281a7cd0cfe\n      0x26\n      swap2\n      codecopy\n      0x40\n      add\n      swap2\n      pop\n      pop\n      mload(0x40)\n      dup1\n      swap2\n      sub\n      swap1\n      revert\n    tag_495:\n        /* \"@openzeppelin/contracts/access/Ownable.sol\":2172:2178  _owner */\n      sload(0x07)\n        /* \"@openzeppelin/contracts/access/Ownable.sol\":2151:2189  OwnershipTransferred(_owner, newOwner) */\n      mload(0x40)\n      sub(shl(0xa0, 0x01), 0x01)\n      dup1\n      dup5\n      and\n      swap3\n        /* \"@openzeppelin/contracts/access/Ownable.sol\":2172:2178  _owner */\n      and\n      swap1\n        /* \"@openzeppelin/contracts/access/Ownable.sol\":2151:2189  OwnershipTransferred(_owner, newOwner) */\n      0x8be0079c531659141344cd1fd0a4f28419497f9722a3daafe3b4186f6b6457e0\n      swap1\n        /* \"@openzeppelin/contracts/access/Ownable.sol\":2172:2178  _owner */\n      0x00\n      swap1\n        /* \"@openzeppelin/contracts/access/Ownable.sol\":2151:2189  OwnershipTransferred(_owner, newOwner) */\n      log3\n        /* \"@openzeppelin/contracts/access/Ownable.sol\":2199:2205  _owner */\n      0x07\n        /* \"@openzeppelin/contracts/access/Ownable.sol\":2199:2216  _owner = newOwner */\n      dup1\n      sload\n      not(sub(shl(0xa0, 0x01), 0x01))\n      and\n      sub(shl(0xa0, 0x01), 0x01)\n      swap3\n      swap1\n      swap3\n      and\n      swap2\n      swap1\n      swap2\n      or\n      swap1\n      sstore\n        /* \"@openzeppelin/contracts/access/Ownable.sol\":1983:2223  function transferOwnership(address newOwner) public virtual onlyOwner {... */\n      jump\t// out\n        /* \"@openzeppelin/contracts/GSN/Context.sol\":590:694  function _msgSender() internal view virtual returns (address payable) {... */\n    tag_212:\n        /* \"@openzeppelin/contracts/GSN/Context.sol\":677:687  msg.sender */\n      caller\n        /* \"@openzeppelin/contracts/GSN/Context.sol\":590:694  function _msgSender() internal view virtual returns (address payable) {... */\n      swap1\n      jump\t// out\n        /* \"@openzeppelin/contracts/token/ERC20/ERC20.sol\":9359:9699  function _approve(address owner, address spender, uint256 amount) internal virtual {... */\n    tag_213:\n      sub(shl(0xa0, 0x01), 0x01)\n        /* \"@openzeppelin/contracts/token/ERC20/ERC20.sol\":9460:9479  owner != address(0) */\n      dup4\n      and\n        /* \"@openzeppelin/contracts/token/ERC20/ERC20.sol\":9452:9520  require(owner != address(0), \"ERC20: approve from the zero address\") */\n      tag_498\n      jumpi\n      mload(0x40)\n      shl(0xe5, 0x461bcd)\n      dup2\n      mstore\n      0x04\n      add\n      dup1\n      dup1\n      0x20\n      add\n      dup3\n      dup2\n      sub\n      dup3\n      mstore\n      0x24\n      dup2\n      mstore\n      0x20\n      add\n      dup1\n      data_c953f4879035ed60e766b34720f656aab5c697b141d924c283124ecedb91c208\n      0x24\n      swap2\n      codecopy\n      0x40\n      add\n      swap2\n      pop\n      pop\n      mload(0x40)\n      dup1\n      swap2\n      sub\n      swap1\n      revert\n    tag_498:\n      sub(shl(0xa0, 0x01), 0x01)\n        /* \"@openzeppelin/contracts/token/ERC20/ERC20.sol\":9538:9559  spender != address(0) */\n      dup3\n      and\n        /* \"@openzeppelin/contracts/token/ERC20/ERC20.sol\":9530:9598  require(spender != address(0), \"ERC20: approve to the zero address\") */\n      tag_499\n      jumpi\n      mload(0x40)\n      shl(0xe5, 0x461bcd)\n      dup2\n      mstore\n      0x04\n      add\n      dup1\n      dup1\n      0x20\n      add\n      dup3\n      dup2\n      sub\n      dup3\n      mstore\n      0x22\n      dup2\n      mstore\n      0x20\n      add\n      dup1\n      data_24883cc5fe64ace9d0df1893501ecb93c77180f0ff69cca79affb3c316dc8029\n      0x22\n      swap2\n      codecopy\n      0x40\n      add\n      swap2\n      pop\n      pop\n      mload(0x40)\n      dup1\n      swap2\n      sub\n      swap1\n      revert\n    tag_499:\n      sub(shl(0xa0, 0x01), 0x01)\n        /* \"@openzeppelin/contracts/token/ERC20/ERC20.sol\":9609:9627  _allowances[owner] */\n      dup1\n      dup5\n      and\n      0x00\n      dup2\n      dup2\n      mstore\n        /* \"@openzeppelin/contracts/token/ERC20/ERC20.sol\":9609:9620  _allowances */\n      0x01\n        /* \"@openzeppelin/contracts/token/ERC20/ERC20.sol\":9609:9627  _allowances[owner] */\n      0x20\n      swap1\n      dup2\n      mstore\n      0x40\n      dup1\n      dup4\n      keccak256\n        /* \"@openzeppelin/contracts/token/ERC20/ERC20.sol\":9609:9636  _allowances[owner][spender] */\n      swap5\n      dup8\n      and\n      dup1\n      dup5\n      mstore\n      swap5\n      dup3\n      mstore\n      swap2\n      dup3\n      swap1\n      keccak256\n        /* \"@openzeppelin/contracts/token/ERC20/ERC20.sol\":9609:9645  _allowances[owner][spender] = amount */\n      dup6\n      swap1\n      sstore\n        /* \"@openzeppelin/contracts/token/ERC20/ERC20.sol\":9660:9692  Approval(owner, spender, amount) */\n      dup2\n      mload\n      dup6\n      dup2\n      mstore\n      swap2\n      mload\n      0x8c5be1e5ebec7d5bd14f71427d1e84f3dd0314c0f7b2291e5b200ac8c7c3b925\n      swap3\n      dup2\n      swap1\n      sub\n      swap1\n      swap2\n      add\n      swap1\n      log3\n        /* \"@openzeppelin/contracts/token/ERC20/ERC20.sol\":9359:9699  function _approve(address owner, address spender, uint256 amount) internal virtual {... */\n      pop\n      pop\n      pop\n      jump\t// out\n        /* \"contracts/Mooniswap.sol\":11716:12103  function _getReturn(IERC20 src, IERC20 dst, uint256 amount, uint256 srcBalance, uint256 dstBalance) internal view returns(uint256) {... */\n    tag_219:\n      sub(shl(0xa0, 0x01), 0x01)\n        /* \"contracts/Mooniswap.sol\":11861:11873  isToken[src] */\n      dup6\n      and\n        /* \"contracts/Mooniswap.sol\":11838:11845  uint256 */\n      0x00\n        /* \"contracts/Mooniswap.sol\":11861:11873  isToken[src] */\n      swap1\n      dup2\n      mstore\n        /* \"contracts/Mooniswap.sol\":11861:11868  isToken */\n      0x0c\n        /* \"contracts/Mooniswap.sol\":11861:11873  isToken[src] */\n      0x20\n      mstore\n      0x40\n      dup2\n      keccak256\n      sload\n      0xff\n      and\n        /* \"contracts/Mooniswap.sol\":11861:11889  isToken[src] && isToken[dst] */\n      dup1\n      iszero\n      tag_501\n      jumpi\n      pop\n      sub(shl(0xa0, 0x01), 0x01)\n        /* \"contracts/Mooniswap.sol\":11877:11889  isToken[dst] */\n      dup6\n      and\n      0x00\n      swap1\n      dup2\n      mstore\n        /* \"contracts/Mooniswap.sol\":11877:11884  isToken */\n      0x0c\n        /* \"contracts/Mooniswap.sol\":11877:11889  isToken[dst] */\n      0x20\n      mstore\n      0x40\n      swap1\n      keccak256\n      sload\n      0xff\n      and\n        /* \"contracts/Mooniswap.sol\":11861:11889  isToken[src] && isToken[dst] */\n    tag_501:\n        /* \"contracts/Mooniswap.sol\":11861:11903  isToken[src] && isToken[dst] && src != dst */\n      dup1\n      iszero\n      tag_502\n      jumpi\n      pop\n        /* \"contracts/Mooniswap.sol\":11900:11903  dst */\n      dup5\n      sub(shl(0xa0, 0x01), 0x01)\n        /* \"contracts/Mooniswap.sol\":11893:11903  src != dst */\n      and\n        /* \"contracts/Mooniswap.sol\":11893:11896  src */\n      dup7\n      sub(shl(0xa0, 0x01), 0x01)\n        /* \"contracts/Mooniswap.sol\":11893:11903  src != dst */\n      and\n      eq\n      iszero\n        /* \"contracts/Mooniswap.sol\":11861:11903  isToken[src] && isToken[dst] && src != dst */\n    tag_502:\n        /* \"contracts/Mooniswap.sol\":11861:11917  isToken[src] && isToken[dst] && src != dst && amount > 0 */\n      dup1\n      iszero\n      tag_503\n      jumpi\n      pop\n        /* \"contracts/Mooniswap.sol\":11916:11917  0 */\n      0x00\n        /* \"contracts/Mooniswap.sol\":11907:11913  amount */\n      dup5\n        /* \"contracts/Mooniswap.sol\":11907:11917  amount > 0 */\n      gt\n        /* \"contracts/Mooniswap.sol\":11861:11917  isToken[src] && isToken[dst] && src != dst && amount > 0 */\n    tag_503:\n        /* \"contracts/Mooniswap.sol\":11857:12097  if (isToken[src] && isToken[dst] && src != dst && amount > 0) {... */\n      iszero\n      tag_504\n      jumpi\n        /* \"contracts/Mooniswap.sol\":11933:11952  uint256 taxedAmount */\n      0x00\n        /* \"contracts/Mooniswap.sol\":11955:12005  amount.sub(amount.mul(fee()).div(FEE_DENOMINATOR)) */\n      tag_505\n        /* \"contracts/Mooniswap.sol\":11966:12004  amount.mul(fee()).div(FEE_DENOMINATOR) */\n      tag_506\n        /* \"contracts/Mooniswap.sol\":2567:2571  1e18 */\n      0x0de0b6b3a7640000\n        /* \"contracts/Mooniswap.sol\":11966:11983  amount.mul(fee()) */\n      tag_252\n        /* \"contracts/Mooniswap.sol\":11977:11982  fee() */\n      tag_508\n        /* \"contracts/Mooniswap.sol\":11977:11980  fee */\n      tag_187\n        /* \"contracts/Mooniswap.sol\":11977:11982  fee() */\n      jump\t// in\n    tag_508:\n        /* \"contracts/Mooniswap.sol\":11966:11972  amount */\n      dup10\n      swap1\n        /* \"contracts/Mooniswap.sol\":11966:11976  amount.mul */\n      tag_253\n        /* \"contracts/Mooniswap.sol\":11966:11983  amount.mul(fee()) */\n      jump\t// in\n        /* \"contracts/Mooniswap.sol\":11966:12004  amount.mul(fee()).div(FEE_DENOMINATOR) */\n    tag_506:\n        /* \"contracts/Mooniswap.sol\":11955:11961  amount */\n      dup7\n      swap1\n        /* \"contracts/Mooniswap.sol\":11955:11965  amount.sub */\n      tag_262\n        /* \"contracts/Mooniswap.sol\":11955:12005  amount.sub(amount.mul(fee()).div(FEE_DENOMINATOR)) */\n      jump\t// in\n    tag_505:\n        /* \"contracts/Mooniswap.sol\":11933:12005  uint256 taxedAmount = amount.sub(amount.mul(fee()).div(FEE_DENOMINATOR)) */\n      swap1\n      pop\n        /* \"contracts/Mooniswap.sol\":12026:12086  taxedAmount.mul(dstBalance).div(srcBalance.add(taxedAmount)) */\n      tag_509\n        /* \"contracts/Mooniswap.sol\":12058:12085  srcBalance.add(taxedAmount) */\n      tag_510\n        /* \"contracts/Mooniswap.sol\":12058:12068  srcBalance */\n      dup6\n        /* \"contracts/Mooniswap.sol\":11933:12005  uint256 taxedAmount = amount.sub(amount.mul(fee()).div(FEE_DENOMINATOR)) */\n      dup4\n        /* \"contracts/Mooniswap.sol\":12058:12072  srcBalance.add */\n      tag_234\n        /* \"contracts/Mooniswap.sol\":12058:12085  srcBalance.add(taxedAmount) */\n      jump\t// in\n    tag_510:\n        /* \"contracts/Mooniswap.sol\":12026:12053  taxedAmount.mul(dstBalance) */\n      tag_252\n        /* \"contracts/Mooniswap.sol\":12026:12037  taxedAmount */\n      dup4\n        /* \"contracts/Mooniswap.sol\":12042:12052  dstBalance */\n      dup7\n        /* \"contracts/Mooniswap.sol\":12026:12041  taxedAmount.mul */\n      tag_253\n        /* \"contracts/Mooniswap.sol\":12026:12053  taxedAmount.mul(dstBalance) */\n      jump\t// in\n        /* \"contracts/Mooniswap.sol\":12026:12086  taxedAmount.mul(dstBalance).div(srcBalance.add(taxedAmount)) */\n    tag_509:\n        /* \"contracts/Mooniswap.sol\":12019:12086  return taxedAmount.mul(dstBalance).div(srcBalance.add(taxedAmount)) */\n      swap2\n      pop\n      pop\n        /* \"contracts/Mooniswap.sol\":11857:12097  if (isToken[src] && isToken[dst] && src != dst && amount > 0) {... */\n    tag_504:\n        /* \"contracts/Mooniswap.sol\":11716:12103  function _getReturn(IERC20 src, IERC20 dst, uint256 amount, uint256 srcBalance, uint256 dstBalance) internal view returns(uint256) {... */\n      swap6\n      swap5\n      pop\n      pop\n      pop\n      pop\n      pop\n      jump\t// out\n        /* \"@openzeppelin/contracts/token/ERC20/ERC20.sol\":7035:7565  function _transfer(address sender, address recipient, uint256 amount) internal virtual {... */\n    tag_222:\n      sub(shl(0xa0, 0x01), 0x01)\n        /* \"@openzeppelin/contracts/token/ERC20/ERC20.sol\":7140:7160  sender != address(0) */\n      dup4\n      and\n        /* \"@openzeppelin/contracts/token/ERC20/ERC20.sol\":7132:7202  require(sender != address(0), \"ERC20: transfer from the zero address\") */\n      tag_513\n      jumpi\n      mload(0x40)\n      shl(0xe5, 0x461bcd)\n      dup2\n      mstore\n      0x04\n      add\n      dup1\n      dup1\n      0x20\n      add\n      dup3\n      dup2\n      sub\n      dup3\n      mstore\n      0x25\n      dup2\n      mstore\n      0x20\n      add\n      dup1\n      data_baecc556b46f4ed0f2b4cb599d60785ac8563dd2dc0a5bf12edea1c39e5e1fea\n      0x25\n      swap2\n      codecopy\n      0x40\n      add\n      swap2\n      pop\n      pop\n      mload(0x40)\n      dup1\n      swap2\n      sub\n      swap1\n      revert\n    tag_513:\n      sub(shl(0xa0, 0x01), 0x01)\n        /* \"@openzeppelin/contracts/token/ERC20/ERC20.sol\":7220:7243  recipient != address(0) */\n      dup3\n      and\n        /* \"@openzeppelin/contracts/token/ERC20/ERC20.sol\":7212:7283  require(recipient != address(0), \"ERC20: transfer to the zero address\") */\n      tag_514\n      jumpi\n      mload(0x40)\n      shl(0xe5, 0x461bcd)\n      dup2\n      mstore\n      0x04\n      add\n      dup1\n      dup1\n      0x20\n      add\n      dup3\n      dup2\n      sub\n      dup3\n      mstore\n      0x23\n      dup2\n      mstore\n      0x20\n      add\n      dup1\n      data_0557e210f7a69a685100a7e4e3d0a7024c546085cee28910fd17d0b081d9516f\n      0x23\n      swap2\n      codecopy\n      0x40\n      add\n      swap2\n      pop\n      pop\n      mload(0x40)\n      dup1\n      swap2\n      sub\n      swap1\n      revert\n    tag_514:\n        /* \"@openzeppelin/contracts/token/ERC20/ERC20.sol\":7294:7341  _beforeTokenTransfer(sender, recipient, amount) */\n      tag_515\n        /* \"@openzeppelin/contracts/token/ERC20/ERC20.sol\":7315:7321  sender */\n      dup4\n        /* \"@openzeppelin/contracts/token/ERC20/ERC20.sol\":7323:7332  recipient */\n      dup4\n        /* \"@openzeppelin/contracts/token/ERC20/ERC20.sol\":7334:7340  amount */\n      dup4\n        /* \"@openzeppelin/contracts/token/ERC20/ERC20.sol\":7294:7314  _beforeTokenTransfer */\n      tag_554\n        /* \"@openzeppelin/contracts/token/ERC20/ERC20.sol\":7294:7341  _beforeTokenTransfer(sender, recipient, amount) */\n      jump\t// in\n    tag_515:\n        /* \"@openzeppelin/contracts/token/ERC20/ERC20.sol\":7372:7443  _balances[sender].sub(amount, \"ERC20: transfer amount exceeds balance\") */\n      tag_517\n        /* \"@openzeppelin/contracts/token/ERC20/ERC20.sol\":7394:7400  amount */\n      dup2\n        /* \"@openzeppelin/contracts/token/ERC20/ERC20.sol\":7372:7443  _balances[sender].sub(amount, \"ERC20: transfer amount exceeds balance\") */\n      mload(0x40)\n      dup1\n      0x60\n      add\n      0x40\n      mstore\n      dup1\n      0x26\n      dup2\n      mstore\n      0x20\n      add\n      data_4107e8a8b9e94bf8ff83080ddec1c0bffe897ebc2241b89d44f66b3d274088b6\n      0x26\n      swap2\n      codecopy\n      sub(shl(0xa0, 0x01), 0x01)\n        /* \"@openzeppelin/contracts/token/ERC20/ERC20.sol\":7372:7389  _balances[sender] */\n      dup7\n      and\n        /* \"@openzeppelin/contracts/token/ERC20/ERC20.sol\":7372:7381  _balances */\n      0x00\n        /* \"@openzeppelin/contracts/token/ERC20/ERC20.sol\":7372:7389  _balances[sender] */\n      swap1\n      dup2\n      mstore\n      0x20\n      dup2\n      swap1\n      mstore\n      0x40\n      swap1\n      keccak256\n      sload\n      swap2\n        /* \"@openzeppelin/contracts/token/ERC20/ERC20.sol\":7372:7443  _balances[sender].sub(amount, \"ERC20: transfer amount exceeds balance\") */\n      swap1\n        /* \"@openzeppelin/contracts/token/ERC20/ERC20.sol\":7372:7393  _balances[sender].sub */\n      tag_227\n        /* \"@openzeppelin/contracts/token/ERC20/ERC20.sol\":7372:7443  _balances[sender].sub(amount, \"ERC20: transfer amount exceeds balance\") */\n      jump\t// in\n    tag_517:\n      sub(shl(0xa0, 0x01), 0x01)\n        /* \"@openzeppelin/contracts/token/ERC20/ERC20.sol\":7352:7369  _balances[sender] */\n      dup1\n      dup6\n      and\n        /* \"@openzeppelin/contracts/token/ERC20/ERC20.sol\":7352:7361  _balances */\n      0x00\n        /* \"@openzeppelin/contracts/token/ERC20/ERC20.sol\":7352:7369  _balances[sender] */\n      swap1\n      dup2\n      mstore\n      0x20\n      dup2\n      swap1\n      mstore\n      0x40\n      dup1\n      dup3\n      keccak256\n        /* \"@openzeppelin/contracts/token/ERC20/ERC20.sol\":7352:7443  _balances[sender] = _balances[sender].sub(amount, \"ERC20: transfer amount exceeds balance\") */\n      swap4\n      swap1\n      swap4\n      sstore\n        /* \"@openzeppelin/contracts/token/ERC20/ERC20.sol\":7476:7496  _balances[recipient] */\n      swap1\n      dup5\n      and\n      dup2\n      mstore\n      keccak256\n      sload\n        /* \"@openzeppelin/contracts/token/ERC20/ERC20.sol\":7476:7508  _balances[recipient].add(amount) */\n      tag_518\n      swap1\n        /* \"@openzeppelin/contracts/token/ERC20/ERC20.sol\":7501:7507  amount */\n      dup3\n        /* \"@openzeppelin/contracts/token/ERC20/ERC20.sol\":7476:7500  _balances[recipient].add */\n      tag_234\n        /* \"@openzeppelin/contracts/token/ERC20/ERC20.sol\":7476:7508  _balances[recipient].add(amount) */\n      jump\t// in\n    tag_518:\n      sub(shl(0xa0, 0x01), 0x01)\n        /* \"@openzeppelin/contracts/token/ERC20/ERC20.sol\":7453:7473  _balances[recipient] */\n      dup1\n      dup5\n      and\n        /* \"@openzeppelin/contracts/token/ERC20/ERC20.sol\":7453:7462  _balances */\n      0x00\n        /* \"@openzeppelin/contracts/token/ERC20/ERC20.sol\":7453:7473  _balances[recipient] */\n      dup2\n      dup2\n      mstore\n      0x20\n      dup2\n      dup2\n      mstore\n      0x40\n      swap2\n      dup3\n      swap1\n      keccak256\n        /* \"@openzeppelin/contracts/token/ERC20/ERC20.sol\":7453:7508  _balances[recipient] = _balances[recipient].add(amount) */\n      swap5\n      swap1\n      swap5\n      sstore\n        /* \"@openzeppelin/contracts/token/ERC20/ERC20.sol\":7523:7558  Transfer(sender, recipient, amount) */\n      dup1\n      mload\n      dup6\n      dup2\n      mstore\n      swap1\n      mload\n        /* \"@openzeppelin/contracts/token/ERC20/ERC20.sol\":7453:7473  _balances[recipient] */\n      swap2\n      swap4\n        /* \"@openzeppelin/contracts/token/ERC20/ERC20.sol\":7523:7558  Transfer(sender, recipient, amount) */\n      swap3\n      dup8\n      and\n      swap3\n      0xddf252ad1be2c89b69c2b068fc378daa952ba7f163c4a11628f55a4df523b3ef\n      swap3\n      swap2\n      dup3\n      swap1\n      sub\n      add\n      swap1\n      log3\n        /* \"@openzeppelin/contracts/token/ERC20/ERC20.sol\":7035:7565  function _transfer(address sender, address recipient, uint256 amount) internal virtual {... */\n      pop\n      pop\n      pop\n      jump\t// out\n        /* \"@openzeppelin/contracts/math/SafeMath.sol\":1746:1933  function sub(uint256 a, uint256 b, string memory errorMessage) internal pure returns (uint256) {... */\n    tag_227:\n        /* \"@openzeppelin/contracts/math/SafeMath.sol\":1832:1839  uint256 */\n      0x00\n        /* \"@openzeppelin/contracts/math/SafeMath.sol\":1867:1879  errorMessage */\n      dup2\n        /* \"@openzeppelin/contracts/math/SafeMath.sol\":1859:1865  b <= a */\n      dup5\n      dup5\n      gt\n      iszero\n        /* \"@openzeppelin/contracts/math/SafeMath.sol\":1851:1880  require(b <= a, errorMessage) */\n      tag_520\n      jumpi\n      mload(0x40)\n      shl(0xe5, 0x461bcd)\n      dup2\n      mstore\n      0x04\n      add\n      dup1\n      dup1\n      0x20\n      add\n      dup3\n      dup2\n      sub\n      dup3\n      mstore\n      dup4\n      dup2\n      dup2\n      mload\n      dup2\n      mstore\n      0x20\n      add\n      swap2\n      pop\n      dup1\n      mload\n      swap1\n      0x20\n      add\n      swap1\n      dup1\n      dup4\n      dup4\n      0x00\n    tag_521:\n      dup4\n      dup2\n      lt\n      iszero\n      tag_523\n      jumpi\n      dup2\n      dup2\n      add\n      mload\n      dup4\n      dup3\n      add\n      mstore\n      0x20\n      add\n      jump(tag_521)\n    tag_523:\n      pop\n      pop\n      pop\n      pop\n      swap1\n      pop\n      swap1\n      dup2\n      add\n      swap1\n      0x1f\n      and\n      dup1\n      iszero\n      tag_524\n      jumpi\n      dup1\n      dup3\n      sub\n      dup1\n      mload\n      0x01\n      dup4\n      0x20\n      sub\n      0x0100\n      exp\n      sub\n      not\n      and\n      dup2\n      mstore\n      0x20\n      add\n      swap2\n      pop\n    tag_524:\n      pop\n      swap3\n      pop\n      pop\n      pop\n      mload(0x40)\n      dup1\n      swap2\n      sub\n      swap1\n      revert\n    tag_520:\n      pop\n      pop\n      pop\n        /* \"@openzeppelin/contracts/math/SafeMath.sol\":1902:1907  a - b */\n      swap1\n      sub\n      swap1\n        /* \"@openzeppelin/contracts/math/SafeMath.sol\":1746:1933  function sub(uint256 a, uint256 b, string memory errorMessage) internal pure returns (uint256) {... */\n      jump\t// out\n        /* \"@openzeppelin/contracts/math/SafeMath.sol\":874:1050  function add(uint256 a, uint256 b) internal pure returns (uint256) {... */\n    tag_234:\n        /* \"@openzeppelin/contracts/math/SafeMath.sol\":932:939  uint256 */\n      0x00\n        /* \"@openzeppelin/contracts/math/SafeMath.sol\":963:968  a + b */\n      dup3\n      dup3\n      add\n        /* \"@openzeppelin/contracts/math/SafeMath.sol\":986:992  c >= a */\n      dup4\n      dup2\n      lt\n      iszero\n        /* \"@openzeppelin/contracts/math/SafeMath.sol\":978:1024  require(c >= a, \"SafeMath: addition overflow\") */\n      tag_392\n      jumpi\n      0x40\n      dup1\n      mload\n      shl(0xe5, 0x461bcd)\n      dup2\n      mstore\n      0x20\n      0x04\n      dup3\n      add\n      mstore\n      0x1b\n      0x24\n      dup3\n      add\n      mstore\n      0x536166654d6174683a206164646974696f6e206f766572666c6f770000000000\n      0x44\n      dup3\n      add\n      mstore\n      swap1\n      mload\n      swap1\n      dup2\n      swap1\n      sub\n      0x64\n      add\n      swap1\n      revert\n        /* \"@openzeppelin/contracts/token/ERC20/ERC20.sol\":8524:8934  function _burn(address account, uint256 amount) internal virtual {... */\n    tag_243:\n      sub(shl(0xa0, 0x01), 0x01)\n        /* \"@openzeppelin/contracts/token/ERC20/ERC20.sol\":8607:8628  account != address(0) */\n      dup3\n      and\n        /* \"@openzeppelin/contracts/token/ERC20/ERC20.sol\":8599:8666  require(account != address(0), \"ERC20: burn from the zero address\") */\n      tag_528\n      jumpi\n      mload(0x40)\n      shl(0xe5, 0x461bcd)\n      dup2\n      mstore\n      0x04\n      add\n      dup1\n      dup1\n      0x20\n      add\n      dup3\n      dup2\n      sub\n      dup3\n      mstore\n      0x21\n      dup2\n      mstore\n      0x20\n      add\n      dup1\n      data_b16788493b576042bb52c50ed56189e0b250db113c7bfb1c3897d25cf9632d7f\n      0x21\n      swap2\n      codecopy\n      0x40\n      add\n      swap2\n      pop\n      pop\n      mload(0x40)\n      dup1\n      swap2\n      sub\n      swap1\n      revert\n    tag_528:\n        /* \"@openzeppelin/contracts/token/ERC20/ERC20.sol\":8677:8726  _beforeTokenTransfer(account, address(0), amount) */\n      tag_529\n        /* \"@openzeppelin/contracts/token/ERC20/ERC20.sol\":8698:8705  account */\n      dup3\n        /* \"@openzeppelin/contracts/token/ERC20/ERC20.sol\":8715:8716  0 */\n      0x00\n        /* \"@openzeppelin/contracts/token/ERC20/ERC20.sol\":8719:8725  amount */\n      dup4\n        /* \"@openzeppelin/contracts/token/ERC20/ERC20.sol\":8677:8697  _beforeTokenTransfer */\n      tag_554\n        /* \"@openzeppelin/contracts/token/ERC20/ERC20.sol\":8677:8726  _beforeTokenTransfer(account, address(0), amount) */\n      jump\t// in\n    tag_529:\n        /* \"@openzeppelin/contracts/token/ERC20/ERC20.sol\":8758:8826  _balances[account].sub(amount, \"ERC20: burn amount exceeds balance\") */\n      tag_530\n        /* \"@openzeppelin/contracts/token/ERC20/ERC20.sol\":8781:8787  amount */\n      dup2\n        /* \"@openzeppelin/contracts/token/ERC20/ERC20.sol\":8758:8826  _balances[account].sub(amount, \"ERC20: burn amount exceeds balance\") */\n      mload(0x40)\n      dup1\n      0x60\n      add\n      0x40\n      mstore\n      dup1\n      0x22\n      dup2\n      mstore\n      0x20\n      add\n      data_149b126e7125232b4200af45303d04fba8b74653b1a295a6a561a528c33fefdd\n      0x22\n      swap2\n      codecopy\n      sub(shl(0xa0, 0x01), 0x01)\n        /* \"@openzeppelin/contracts/token/ERC20/ERC20.sol\":8758:8776  _balances[account] */\n      dup6\n      and\n        /* \"@openzeppelin/contracts/token/ERC20/ERC20.sol\":8758:8767  _balances */\n      0x00\n        /* \"@openzeppelin/contracts/token/ERC20/ERC20.sol\":8758:8776  _balances[account] */\n      swap1\n      dup2\n      mstore\n      0x20\n      dup2\n      swap1\n      mstore\n      0x40\n      swap1\n      keccak256\n      sload\n      swap2\n        /* \"@openzeppelin/contracts/token/ERC20/ERC20.sol\":8758:8826  _balances[account].sub(amount, \"ERC20: burn amount exceeds balance\") */\n      swap1\n        /* \"@openzeppelin/contracts/token/ERC20/ERC20.sol\":8758:8780  _balances[account].sub */\n      tag_227\n        /* \"@openzeppelin/contracts/token/ERC20/ERC20.sol\":8758:8826  _balances[account].sub(amount, \"ERC20: burn amount exceeds balance\") */\n      jump\t// in\n    tag_530:\n      sub(shl(0xa0, 0x01), 0x01)\n        /* \"@openzeppelin/contracts/token/ERC20/ERC20.sol\":8737:8755  _balances[account] */\n      dup4\n      and\n        /* \"@openzeppelin/contracts/token/ERC20/ERC20.sol\":8737:8746  _balances */\n      0x00\n        /* \"@openzeppelin/contracts/token/ERC20/ERC20.sol\":8737:8755  _balances[account] */\n      swap1\n      dup2\n      mstore\n      0x20\n      dup2\n      swap1\n      mstore\n      0x40\n      swap1\n      keccak256\n        /* \"@openzeppelin/contracts/token/ERC20/ERC20.sol\":8737:8826  _balances[account] = _balances[account].sub(amount, \"ERC20: burn amount exceeds balance\") */\n      sstore\n        /* \"@openzeppelin/contracts/token/ERC20/ERC20.sol\":8851:8863  _totalSupply */\n      sload(0x02)\n        /* \"@openzeppelin/contracts/token/ERC20/ERC20.sol\":8851:8875  _totalSupply.sub(amount) */\n      tag_531\n      swap1\n        /* \"@openzeppelin/contracts/token/ERC20/ERC20.sol\":8868:8874  amount */\n      dup3\n        /* \"@openzeppelin/contracts/token/ERC20/ERC20.sol\":8851:8867  _totalSupply.sub */\n      tag_262\n        /* \"@openzeppelin/contracts/token/ERC20/ERC20.sol\":8851:8875  _totalSupply.sub(amount) */\n      jump\t// in\n    tag_531:\n        /* \"@openzeppelin/contracts/token/ERC20/ERC20.sol\":8836:8848  _totalSupply */\n      0x02\n        /* \"@openzeppelin/contracts/token/ERC20/ERC20.sol\":8836:8875  _totalSupply = _totalSupply.sub(amount) */\n      sstore\n        /* \"@openzeppelin/contracts/token/ERC20/ERC20.sol\":8890:8927  Transfer(account, address(0), amount) */\n      0x40\n      dup1\n      mload\n      dup3\n      dup2\n      mstore\n      swap1\n      mload\n        /* \"@openzeppelin/contracts/token/ERC20/ERC20.sol\":8916:8917  0 */\n      0x00\n      swap2\n      sub(shl(0xa0, 0x01), 0x01)\n        /* \"@openzeppelin/contracts/token/ERC20/ERC20.sol\":8890:8927  Transfer(account, address(0), amount) */\n      dup6\n      and\n      swap2\n      0xddf252ad1be2c89b69c2b068fc378daa952ba7f163c4a11628f55a4df523b3ef\n      swap2\n      dup2\n      swap1\n      sub\n      0x20\n      add\n      swap1\n      log3\n        /* \"@openzeppelin/contracts/token/ERC20/ERC20.sol\":8524:8934  function _burn(address account, uint256 amount) internal virtual {... */\n      pop\n      pop\n      jump\t// out\n        /* \"contracts/libraries/UniERC20.sol\":434:662  function uniBalanceOf(IERC20 token, address account) internal view returns (uint256) {... */\n    tag_250:\n        /* \"contracts/libraries/UniERC20.sol\":510:517  uint256 */\n      0x00\n        /* \"contracts/libraries/UniERC20.sol\":533:545  isETH(token) */\n      tag_533\n        /* \"contracts/libraries/UniERC20.sol\":539:544  token */\n      dup4\n        /* \"contracts/libraries/UniERC20.sol\":533:538  isETH */\n      tag_334\n        /* \"contracts/libraries/UniERC20.sol\":533:545  isETH(token) */\n      jump\t// in\n    tag_533:\n        /* \"contracts/libraries/UniERC20.sol\":529:656  if (isETH(token)) {... */\n      iszero\n      tag_534\n      jumpi\n      pop\n      sub(shl(0xa0, 0x01), 0x01)\n        /* \"contracts/libraries/UniERC20.sol\":568:583  account.balance */\n      dup2\n      and\n      balance\n        /* \"contracts/libraries/UniERC20.sol\":561:583  return account.balance */\n      jump(tag_209)\n        /* \"contracts/libraries/UniERC20.sol\":529:656  if (isETH(token)) {... */\n    tag_534:\n        /* \"contracts/libraries/UniERC20.sol\":621:626  token */\n      dup3\n      sub(shl(0xa0, 0x01), 0x01)\n        /* \"contracts/libraries/UniERC20.sol\":621:636  token.balanceOf */\n      and\n      0x70a08231\n        /* \"contracts/libraries/UniERC20.sol\":637:644  account */\n      dup4\n        /* \"contracts/libraries/UniERC20.sol\":621:645  token.balanceOf(account) */\n      mload(0x40)\n      dup3\n      0xffffffff\n      and\n      0xe0\n      shl\n      dup2\n      mstore\n      0x04\n      add\n      dup1\n      dup3\n      sub(shl(0xa0, 0x01), 0x01)\n      and\n      dup2\n      mstore\n      0x20\n      add\n      swap2\n      pop\n      pop\n      0x20\n      mload(0x40)\n      dup1\n      dup4\n      sub\n      dup2\n      dup7\n      dup1\n      extcodesize\n      iszero\n      dup1\n      iszero\n      tag_536\n      jumpi\n      0x00\n      dup1\n      revert\n    tag_536:\n      pop\n      gas\n      staticcall\n      iszero\n      dup1\n      iszero\n      tag_538\n      jumpi\n      returndatasize\n      0x00\n      dup1\n      returndatacopy\n      revert(0x00, returndatasize)\n    tag_538:\n      pop\n      pop\n      pop\n      pop\n      mload(0x40)\n      returndatasize\n      0x20\n      dup2\n      lt\n      iszero\n      tag_539\n      jumpi\n      0x00\n      dup1\n      revert\n    tag_539:\n      pop\n      mload\n      swap1\n      pop\n        /* \"contracts/libraries/UniERC20.sol\":614:645  return token.balanceOf(account) */\n      jump(tag_209)\n        /* \"@openzeppelin/contracts/math/SafeMath.sol\":2180:2639  function mul(uint256 a, uint256 b) internal pure returns (uint256) {... */\n    tag_253:\n        /* \"@openzeppelin/contracts/math/SafeMath.sol\":2238:2245  uint256 */\n      0x00\n        /* \"@openzeppelin/contracts/math/SafeMath.sol\":2479:2485  a == 0 */\n      dup3\n        /* \"@openzeppelin/contracts/math/SafeMath.sol\":2475:2520  if (a == 0) {... */\n      tag_541\n      jumpi\n      pop\n        /* \"@openzeppelin/contracts/math/SafeMath.sol\":2508:2509  0 */\n      0x00\n        /* \"@openzeppelin/contracts/math/SafeMath.sol\":2501:2509  return 0 */\n      jump(tag_209)\n        /* \"@openzeppelin/contracts/math/SafeMath.sol\":2475:2520  if (a == 0) {... */\n    tag_541:\n        /* \"@openzeppelin/contracts/math/SafeMath.sol\":2542:2547  a * b */\n      dup3\n      dup3\n      mul\n        /* \"@openzeppelin/contracts/math/SafeMath.sol\":2546:2547  b */\n      dup3\n        /* \"@openzeppelin/contracts/math/SafeMath.sol\":2542:2543  a */\n      dup5\n        /* \"@openzeppelin/contracts/math/SafeMath.sol\":2542:2547  a * b */\n      dup3\n        /* \"@openzeppelin/contracts/math/SafeMath.sol\":2542:2543  a */\n      dup2\n        /* \"@openzeppelin/contracts/math/SafeMath.sol\":2565:2570  c / a */\n      tag_542\n      jumpi\n      invalid\n    tag_542:\n      div\n        /* \"@openzeppelin/contracts/math/SafeMath.sol\":2565:2575  c / a == b */\n      eq\n        /* \"@openzeppelin/contracts/math/SafeMath.sol\":2557:2613  require(c / a == b, \"SafeMath: multiplication overflow\") */\n      tag_392\n      jumpi\n      mload(0x40)\n      shl(0xe5, 0x461bcd)\n      dup2\n      mstore\n      0x04\n      add\n      dup1\n      dup1\n      0x20\n      add\n      dup3\n      dup2\n      sub\n      dup3\n      mstore\n      0x21\n      dup2\n      mstore\n      0x20\n      add\n      dup1\n      data_9113bb53c2876a3805b2c9242029423fc540a728243ce887ab24c82cf119fba3\n      0x21\n      swap2\n      codecopy\n      0x40\n      add\n      swap2\n      pop\n      pop\n      mload(0x40)\n      dup1\n      swap2\n      sub\n      swap1\n      revert\n        /* \"@openzeppelin/contracts/math/SafeMath.sol\":3101:3231  function div(uint256 a, uint256 b) internal pure returns (uint256) {... */\n    tag_254:\n        /* \"@openzeppelin/contracts/math/SafeMath.sol\":3159:3166  uint256 */\n      0x00\n        /* \"@openzeppelin/contracts/math/SafeMath.sol\":3185:3224  div(a, b, \"SafeMath: division by zero\") */\n      tag_392\n        /* \"@openzeppelin/contracts/math/SafeMath.sol\":3189:3190  a */\n      dup4\n        /* \"@openzeppelin/contracts/math/SafeMath.sol\":3192:3193  b */\n      dup4\n        /* \"@openzeppelin/contracts/math/SafeMath.sol\":3185:3224  div(a, b, \"SafeMath: division by zero\") */\n      mload(0x40)\n      dup1\n      0x40\n      add\n      0x40\n      mstore\n      dup1\n      0x1a\n      dup2\n      mstore\n      0x20\n      add\n      0x536166654d6174683a206469766973696f6e206279207a65726f000000000000\n      dup2\n      mstore\n      pop\n        /* \"@openzeppelin/contracts/math/SafeMath.sol\":3185:3188  div */\n      tag_546\n        /* \"@openzeppelin/contracts/math/SafeMath.sol\":3185:3224  div(a, b, \"SafeMath: division by zero\") */\n      jump\t// in\n        /* \"contracts/libraries/UniERC20.sol\":668:943  function uniTransfer(IERC20 token, address payable to, uint256 amount) internal {... */\n    tag_256:\n        /* \"contracts/libraries/UniERC20.sol\":762:772  amount > 0 */\n      dup1\n      iszero\n        /* \"contracts/libraries/UniERC20.sol\":758:937  if (amount > 0) {... */\n      tag_554\n      jumpi\n        /* \"contracts/libraries/UniERC20.sol\":792:804  isETH(token) */\n      tag_549\n        /* \"contracts/libraries/UniERC20.sol\":798:803  token */\n      dup4\n        /* \"contracts/libraries/UniERC20.sol\":792:797  isETH */\n      tag_334\n        /* \"contracts/libraries/UniERC20.sol\":792:804  isETH(token) */\n      jump\t// in\n    tag_549:\n        /* \"contracts/libraries/UniERC20.sol\":788:927  if (isETH(token)) {... */\n      iszero\n      tag_550\n      jumpi\n        /* \"contracts/libraries/UniERC20.sol\":824:843  to.transfer(amount) */\n      mload(0x40)\n      sub(shl(0xa0, 0x01), 0x01)\n        /* \"contracts/libraries/UniERC20.sol\":824:835  to.transfer */\n      dup4\n      and\n      swap1\n        /* \"contracts/libraries/UniERC20.sol\":824:843  to.transfer(amount) */\n      dup3\n      iszero\n      0x08fc\n      mul\n      swap1\n        /* \"contracts/libraries/UniERC20.sol\":836:842  amount */\n      dup4\n      swap1\n        /* \"contracts/libraries/UniERC20.sol\":824:843  to.transfer(amount) */\n      0x00\n      dup2\n      dup2\n      dup2\n        /* \"contracts/libraries/UniERC20.sol\":836:842  amount */\n      dup6\n        /* \"contracts/libraries/UniERC20.sol\":824:835  to.transfer */\n      dup9\n        /* \"contracts/libraries/UniERC20.sol\":824:843  to.transfer(amount) */\n      dup9\n      call\n      swap4\n      pop\n      pop\n      pop\n      pop\n      iszero\n      dup1\n      iszero\n      tag_552\n      jumpi\n      returndatasize\n      0x00\n      dup1\n      returndatacopy\n      revert(0x00, returndatasize)\n    tag_552:\n      pop\n        /* \"contracts/libraries/UniERC20.sol\":788:927  if (isETH(token)) {... */\n      jump(tag_554)\n    tag_550:\n        /* \"contracts/libraries/UniERC20.sol\":882:912  token.safeTransfer(to, amount) */\n      tag_554\n      sub(shl(0xa0, 0x01), 0x01)\n        /* \"contracts/libraries/UniERC20.sol\":882:900  token.safeTransfer */\n      dup5\n      and\n        /* \"contracts/libraries/UniERC20.sol\":901:903  to */\n      dup4\n        /* \"contracts/libraries/UniERC20.sol\":905:911  amount */\n      dup4\n        /* \"contracts/libraries/UniERC20.sol\":882:900  token.safeTransfer */\n      tag_555\n        /* \"contracts/libraries/UniERC20.sol\":882:912  token.safeTransfer(to, amount) */\n      jump\t// in\n    tag_554:\n        /* \"contracts/libraries/UniERC20.sol\":668:943  function uniTransfer(IERC20 token, address payable to, uint256 amount) internal {... */\n      pop\n      pop\n      pop\n      jump\t// out\n        /* \"@openzeppelin/contracts/math/SafeMath.sol\":1321:1455  function sub(uint256 a, uint256 b) internal pure returns (uint256) {... */\n    tag_262:\n        /* \"@openzeppelin/contracts/math/SafeMath.sol\":1379:1386  uint256 */\n      0x00\n        /* \"@openzeppelin/contracts/math/SafeMath.sol\":1405:1448  sub(a, b, \"SafeMath: subtraction overflow\") */\n      tag_392\n        /* \"@openzeppelin/contracts/math/SafeMath.sol\":1409:1410  a */\n      dup4\n        /* \"@openzeppelin/contracts/math/SafeMath.sol\":1412:1413  b */\n      dup4\n        /* \"@openzeppelin/contracts/math/SafeMath.sol\":1405:1448  sub(a, b, \"SafeMath: subtraction overflow\") */\n      mload(0x40)\n      dup1\n      0x40\n      add\n      0x40\n      mstore\n      dup1\n      0x1e\n      dup2\n      mstore\n      0x20\n      add\n      0x536166654d6174683a207375627472616374696f6e206f766572666c6f770000\n      dup2\n      mstore\n      pop\n        /* \"@openzeppelin/contracts/math/SafeMath.sol\":1405:1408  sub */\n      tag_227\n        /* \"@openzeppelin/contracts/math/SafeMath.sol\":1405:1448  sub(a, b, \"SafeMath: subtraction overflow\") */\n      jump\t// in\n        /* \"contracts/Mooniswap.sol\":971:1170  function scale(VirtualBalance.Data storage self, uint256 realBalance, uint256 num, uint256 denom) internal {... */\n    tag_263:\n        /* \"contracts/Mooniswap.sol\":1088:1163  set(self, current(self, realBalance).mul(num).add(denom.sub(1)).div(denom)) */\n      tag_559\n        /* \"contracts/Mooniswap.sol\":1092:1096  self */\n      dup5\n        /* \"contracts/Mooniswap.sol\":1098:1162  current(self, realBalance).mul(num).add(denom.sub(1)).div(denom) */\n      tag_560\n        /* \"contracts/Mooniswap.sol\":1156:1161  denom */\n      dup4\n        /* \"contracts/Mooniswap.sol\":1098:1151  current(self, realBalance).mul(num).add(denom.sub(1)) */\n      tag_252\n        /* \"contracts/Mooniswap.sol\":1138:1150  denom.sub(1) */\n      tag_562\n        /* \"contracts/Mooniswap.sol\":1156:1161  denom */\n      dup3\n        /* \"contracts/Mooniswap.sol\":1148:1149  1 */\n      0x01\n        /* \"contracts/Mooniswap.sol\":1138:1147  denom.sub */\n      tag_262\n        /* \"contracts/Mooniswap.sol\":1138:1150  denom.sub(1) */\n      jump\t// in\n    tag_562:\n        /* \"contracts/Mooniswap.sol\":1098:1124  current(self, realBalance) */\n      0x40\n      dup1\n      mload\n      dup1\n      dup3\n      add\n      swap1\n      swap2\n      mstore\n      dup11\n      sload\n      sub(shl(0xd8, 0x01), 0x01)\n      dup2\n      and\n      dup3\n      mstore\n      shl(0xd8, 0x01)\n      swap1\n      div\n      0xffffffffff\n      and\n      0x20\n      dup3\n      add\n      mstore\n        /* \"contracts/Mooniswap.sol\":1098:1133  current(self, realBalance).mul(num) */\n      tag_460\n      swap1\n        /* \"contracts/Mooniswap.sol\":1129:1132  num */\n      dup10\n      swap1\n        /* \"contracts/Mooniswap.sol\":1098:1124  current(self, realBalance) */\n      tag_383\n      swap1\n        /* \"contracts/Mooniswap.sol\":1112:1123  realBalance */\n      dup13\n        /* \"contracts/Mooniswap.sol\":1098:1105  current */\n      tag_348\n        /* \"contracts/Mooniswap.sol\":1098:1124  current(self, realBalance) */\n      jump\t// in\n        /* \"contracts/Mooniswap.sol\":1098:1162  current(self, realBalance).mul(num).add(denom.sub(1)).div(denom) */\n    tag_560:\n        /* \"contracts/Mooniswap.sol\":1088:1091  set */\n      tag_364\n        /* \"contracts/Mooniswap.sol\":1088:1163  set(self, current(self, realBalance).mul(num).add(denom.sub(1)).div(denom)) */\n      jump\t// in\n    tag_559:\n        /* \"contracts/Mooniswap.sol\":971:1170  function scale(VirtualBalance.Data storage self, uint256 realBalance, uint256 num, uint256 denom) internal {... */\n      pop\n      pop\n      pop\n      pop\n      jump\t// out\n        /* \"contracts/libraries/UniERC20.sol\":317:428  function isETH(IERC20 token) internal pure returns(bool) {... */\n    tag_334:\n      sub(shl(0xa0, 0x01), 0x01)\n        /* \"contracts/libraries/UniERC20.sol\":392:420  address(token) == address(0) */\n      and\n      iszero\n      swap1\n        /* \"contracts/libraries/UniERC20.sol\":317:428  function isETH(IERC20 token) internal pure returns(bool) {... */\n      jump\t// out\n        /* \"contracts/Mooniswap.sol\":1176:1556  function current(VirtualBalance.Data memory self, uint256 realBalance) internal view returns(uint256) {... */\n    tag_348:\n        /* \"contracts/Mooniswap.sol\":1269:1276  uint256 */\n      0x00\n        /* \"contracts/Mooniswap.sol\":1288:1306  uint256 timePassed */\n      dup1\n        /* \"contracts/Mooniswap.sol\":1309:1363  Math.min(DECAY_PERIOD, block.timestamp.sub(self.time)) */\n      tag_567\n        /* \"contracts/Mooniswap.sol\":643:652  5 minutes */\n      0x012c\n        /* \"contracts/Mooniswap.sol\":1332:1362  block.timestamp.sub(self.time) */\n      tag_448\n        /* \"contracts/Mooniswap.sol\":1352:1356  self */\n      dup7\n        /* \"contracts/Mooniswap.sol\":1352:1361  self.time */\n      0x20\n      add\n      mload\n        /* \"contracts/Mooniswap.sol\":1332:1362  block.timestamp.sub(self.time) */\n      0xffffffffff\n      and\n        /* \"contracts/Mooniswap.sol\":1332:1347  block.timestamp */\n      timestamp\n        /* \"contracts/Mooniswap.sol\":1332:1351  block.timestamp.sub */\n      tag_262\n      swap1\n        /* \"contracts/Mooniswap.sol\":1332:1362  block.timestamp.sub(self.time) */\n      swap2\n      swap1\n      0xffffffff\n      and\n      jump\t// in\n        /* \"contracts/Mooniswap.sol\":1309:1363  Math.min(DECAY_PERIOD, block.timestamp.sub(self.time)) */\n    tag_567:\n        /* \"contracts/Mooniswap.sol\":1288:1363  uint256 timePassed = Math.min(DECAY_PERIOD, block.timestamp.sub(self.time)) */\n      swap1\n      pop\n        /* \"contracts/Mooniswap.sol\":1373:1391  uint256 timeRemain */\n      0x00\n        /* \"contracts/Mooniswap.sol\":1394:1422  DECAY_PERIOD.sub(timePassed) */\n      tag_569\n        /* \"contracts/Mooniswap.sol\":643:652  5 minutes */\n      0x012c\n        /* \"contracts/Mooniswap.sol\":1288:1363  uint256 timePassed = Math.min(DECAY_PERIOD, block.timestamp.sub(self.time)) */\n      dup4\n        /* \"contracts/Mooniswap.sol\":1394:1410  DECAY_PERIOD.sub */\n      tag_262\n        /* \"contracts/Mooniswap.sol\":1394:1422  DECAY_PERIOD.sub(timePassed) */\n      jump\t// in\n    tag_569:\n        /* \"contracts/Mooniswap.sol\":1373:1422  uint256 timeRemain = DECAY_PERIOD.sub(timePassed) */\n      swap1\n      pop\n        /* \"contracts/Mooniswap.sol\":1439:1549  uint256(self.balance).mul(timeRemain).add(... */\n      tag_504\n        /* \"contracts/Mooniswap.sol\":643:652  5 minutes */\n      0x012c\n        /* \"contracts/Mooniswap.sol\":1439:1531  uint256(self.balance).mul(timeRemain).add(... */\n      tag_252\n        /* \"contracts/Mooniswap.sol\":1494:1521  realBalance.mul(timePassed) */\n      tag_572\n        /* \"contracts/Mooniswap.sol\":1494:1505  realBalance */\n      dup8\n        /* \"contracts/Mooniswap.sol\":1510:1520  timePassed */\n      dup7\n        /* \"contracts/Mooniswap.sol\":1494:1509  realBalance.mul */\n      tag_253\n        /* \"contracts/Mooniswap.sol\":1494:1521  realBalance.mul(timePassed) */\n      jump\t// in\n    tag_572:\n        /* \"contracts/Mooniswap.sol\":1447:1459  self.balance */\n      dup9\n      mload\n        /* \"contracts/Mooniswap.sol\":1439:1476  uint256(self.balance).mul(timeRemain) */\n      tag_460\n      swap1\n      sub(shl(0xd8, 0x01), 0x01)\n        /* \"contracts/Mooniswap.sol\":1439:1460  uint256(self.balance) */\n      and\n        /* \"contracts/Mooniswap.sol\":1465:1475  timeRemain */\n      dup7\n        /* \"contracts/Mooniswap.sol\":1439:1464  uint256(self.balance).mul */\n      tag_253\n        /* \"contracts/Mooniswap.sol\":1439:1476  uint256(self.balance).mul(timeRemain) */\n      jump\t// in\n        /* \"@openzeppelin/contracts/math/Math.sol\":215:320  function max(uint256 a, uint256 b) internal pure returns (uint256) {... */\n    tag_349:\n        /* \"@openzeppelin/contracts/math/Math.sol\":273:280  uint256 */\n      0x00\n        /* \"@openzeppelin/contracts/math/Math.sol\":304:305  b */\n      dup2\n        /* \"@openzeppelin/contracts/math/Math.sol\":299:300  a */\n      dup4\n        /* \"@openzeppelin/contracts/math/Math.sol\":299:305  a >= b */\n      lt\n      iszero\n        /* \"@openzeppelin/contracts/math/Math.sol\":299:313  a >= b ? a : b */\n      tag_575\n      jumpi\n        /* \"@openzeppelin/contracts/math/Math.sol\":312:313  b */\n      dup2\n        /* \"@openzeppelin/contracts/math/Math.sol\":299:313  a >= b ? a : b */\n      jump(tag_392)\n    tag_575:\n      pop\n        /* \"@openzeppelin/contracts/math/Math.sol\":308:309  a */\n      swap1\n      swap2\n        /* \"@openzeppelin/contracts/math/Math.sol\":215:320  function max(uint256 a, uint256 b) internal pure returns (uint256) {... */\n      swap1\n      pop\n      jump\t// out\n        /* \"@openzeppelin/contracts/math/Math.sol\":391:495  function min(uint256 a, uint256 b) internal pure returns (uint256) {... */\n    tag_352:\n        /* \"@openzeppelin/contracts/math/Math.sol\":449:456  uint256 */\n      0x00\n        /* \"@openzeppelin/contracts/math/Math.sol\":479:480  b */\n      dup2\n        /* \"@openzeppelin/contracts/math/Math.sol\":475:476  a */\n      dup4\n        /* \"@openzeppelin/contracts/math/Math.sol\":475:480  a < b */\n      lt\n        /* \"@openzeppelin/contracts/math/Math.sol\":475:488  a < b ? a : b */\n      tag_575\n      jumpi\n        /* \"@openzeppelin/contracts/math/Math.sol\":487:488  b */\n      dup2\n        /* \"@openzeppelin/contracts/math/Math.sol\":475:488  a < b ? a : b */\n      jump(tag_392)\n        /* \"contracts/libraries/UniERC20.sol\":949:1459  function uniTransferFromSenderToThis(IERC20 token, uint256 amount) internal {... */\n    tag_354:\n        /* \"contracts/libraries/UniERC20.sol\":1039:1049  amount > 0 */\n      dup1\n      iszero\n        /* \"contracts/libraries/UniERC20.sol\":1035:1453  if (amount > 0) {... */\n      tag_307\n      jumpi\n        /* \"contracts/libraries/UniERC20.sol\":1069:1081  isETH(token) */\n      tag_582\n        /* \"contracts/libraries/UniERC20.sol\":1075:1080  token */\n      dup3\n        /* \"contracts/libraries/UniERC20.sol\":1069:1074  isETH */\n      tag_334\n        /* \"contracts/libraries/UniERC20.sol\":1069:1081  isETH(token) */\n      jump\t// in\n    tag_582:\n        /* \"contracts/libraries/UniERC20.sol\":1065:1443  if (isETH(token)) {... */\n      iszero\n      tag_583\n      jumpi\n        /* \"contracts/libraries/UniERC20.sol\":1122:1128  amount */\n      dup1\n        /* \"contracts/libraries/UniERC20.sol\":1109:1118  msg.value */\n      callvalue\n        /* \"contracts/libraries/UniERC20.sol\":1109:1128  msg.value >= amount */\n      lt\n      iszero\n        /* \"contracts/libraries/UniERC20.sol\":1101:1159  require(msg.value >= amount, \"UniERC20: not enough value\") */\n      tag_584\n      jumpi\n      0x40\n      dup1\n      mload\n      shl(0xe5, 0x461bcd)\n      dup2\n      mstore\n      0x20\n      0x04\n      dup3\n      add\n      mstore\n      0x1a\n      0x24\n      dup3\n      add\n      mstore\n      0x556e6945524332303a206e6f7420656e6f7567682076616c7565000000000000\n      0x44\n      dup3\n      add\n      mstore\n      swap1\n      mload\n      swap1\n      dup2\n      swap1\n      sub\n      0x64\n      add\n      swap1\n      revert\n    tag_584:\n        /* \"contracts/libraries/UniERC20.sol\":1193:1199  amount */\n      dup1\n        /* \"contracts/libraries/UniERC20.sol\":1181:1190  msg.value */\n      callvalue\n        /* \"contracts/libraries/UniERC20.sol\":1181:1199  msg.value > amount */\n      gt\n        /* \"contracts/libraries/UniERC20.sol\":1177:1333  if (msg.value > amount) {... */\n      iszero\n      tag_585\n      jumpi\n        /* \"contracts/libraries/UniERC20.sol\":1272:1282  msg.sender */\n      caller\n        /* \"contracts/libraries/UniERC20.sol\":1272:1314  msg.sender.transfer(msg.value.sub(amount)) */\n      0x08fc\n        /* \"contracts/libraries/UniERC20.sol\":1292:1313  msg.value.sub(amount) */\n      tag_586\n        /* \"contracts/libraries/UniERC20.sol\":1292:1301  msg.value */\n      callvalue\n        /* \"contracts/libraries/UniERC20.sol\":1306:1312  amount */\n      dup5\n        /* \"contracts/libraries/UniERC20.sol\":1292:1305  msg.value.sub */\n      tag_262\n        /* \"contracts/libraries/UniERC20.sol\":1292:1313  msg.value.sub(amount) */\n      jump\t// in\n    tag_586:\n        /* \"contracts/libraries/UniERC20.sol\":1272:1314  msg.sender.transfer(msg.value.sub(amount)) */\n      mload(0x40)\n      dup2\n      iszero\n      swap1\n      swap3\n      mul\n      swap2\n      0x00\n      dup2\n      dup2\n      dup2\n      dup6\n      dup9\n      dup9\n      call\n      swap4\n      pop\n      pop\n      pop\n      pop\n      iszero\n      dup1\n      iszero\n      tag_588\n      jumpi\n      returndatasize\n      0x00\n      dup1\n      returndatacopy\n      revert(0x00, returndatasize)\n    tag_588:\n      pop\n        /* \"contracts/libraries/UniERC20.sol\":1177:1333  if (msg.value > amount) {... */\n    tag_585:\n        /* \"contracts/libraries/UniERC20.sol\":1065:1443  if (isETH(token)) {... */\n      jump(tag_307)\n    tag_583:\n        /* \"contracts/libraries/UniERC20.sol\":1371:1428  token.safeTransferFrom(msg.sender, address(this), amount) */\n      tag_307\n      sub(shl(0xa0, 0x01), 0x01)\n        /* \"contracts/libraries/UniERC20.sol\":1371:1393  token.safeTransferFrom */\n      dup4\n      and\n        /* \"contracts/libraries/UniERC20.sol\":1394:1404  msg.sender */\n      caller\n        /* \"contracts/libraries/UniERC20.sol\":1414:1418  this */\n      address\n        /* \"contracts/libraries/UniERC20.sol\":1421:1427  amount */\n      dup5\n        /* \"contracts/libraries/UniERC20.sol\":1371:1393  token.safeTransferFrom */\n      tag_591\n        /* \"contracts/libraries/UniERC20.sol\":1371:1428  token.safeTransferFrom(msg.sender, address(this), amount) */\n      jump\t// in\n        /* \"contracts/Mooniswap.sol\":659:825  function set(VirtualBalance.Data storage self, uint256 balance) internal {... */\n    tag_364:\n        /* \"contracts/Mooniswap.sol\":742:773  self.balance = uint216(balance) */\n      dup2\n      sload\n      not(sub(shl(0xd8, 0x01), 0x01))\n      and\n      sub(shl(0xd8, 0x01), 0x01)\n      swap2\n      dup3\n      and\n      or\n        /* \"contracts/Mooniswap.sol\":783:818  self.time = uint40(block.timestamp) */\n      and\n      shl(0xd8, 0x01)\n        /* \"contracts/Mooniswap.sol\":802:817  block.timestamp */\n      timestamp\n        /* \"contracts/Mooniswap.sol\":783:818  self.time = uint40(block.timestamp) */\n      0xffffffffff\n      and\n      mul\n      or\n      swap1\n      sstore\n        /* \"contracts/Mooniswap.sol\":659:825  function set(VirtualBalance.Data storage self, uint256 balance) internal {... */\n      jump\t// out\n        /* \"contracts/Mooniswap.sol\":831:965  function update(VirtualBalance.Data storage self, uint256 realBalance) internal {... */\n    tag_369:\n        /* \"contracts/Mooniswap.sol\":931:957  current(self, realBalance) */\n      0x40\n      dup1\n      mload\n      dup1\n      dup3\n      add\n      swap1\n      swap2\n      mstore\n      dup3\n      sload\n      sub(shl(0xd8, 0x01), 0x01)\n      dup2\n      and\n      dup3\n      mstore\n      shl(0xd8, 0x01)\n      swap1\n      div\n      0xffffffffff\n      and\n      0x20\n      dup3\n      add\n      mstore\n        /* \"contracts/Mooniswap.sol\":921:958  set(self, current(self, realBalance)) */\n      tag_307\n      swap1\n        /* \"contracts/Mooniswap.sol\":931:957  current(self, realBalance) */\n      dup4\n      swap1\n      tag_560\n      swap1\n        /* \"contracts/Mooniswap.sol\":945:956  realBalance */\n      dup5\n        /* \"contracts/Mooniswap.sol\":931:938  current */\n      tag_348\n        /* \"contracts/Mooniswap.sol\":931:957  current(self, realBalance) */\n      jump\t// in\n        /* \"contracts/libraries/Sqrt.sol\":187:558  function sqrt(uint256 y) internal pure returns (uint256) {... */\n    tag_385:\n        /* \"contracts/libraries/Sqrt.sol\":235:242  uint256 */\n      0x00\n        /* \"contracts/libraries/Sqrt.sol\":262:263  3 */\n      0x03\n        /* \"contracts/libraries/Sqrt.sol\":258:259  y */\n      dup3\n        /* \"contracts/libraries/Sqrt.sol\":258:263  y > 3 */\n      gt\n        /* \"contracts/libraries/Sqrt.sol\":254:552  if (y > 3) {... */\n      iszero\n      tag_597\n      jumpi\n        /* \"contracts/libraries/Sqrt.sol\":291:292  y */\n      dup2\n        /* \"contracts/libraries/Sqrt.sol\":326:327  1 */\n      0x01\n        /* \"contracts/libraries/Sqrt.sol\":322:323  2 */\n      0x02\n        /* \"contracts/libraries/Sqrt.sol\":318:323  y / 2 */\n      dup3\n      div\n        /* \"contracts/libraries/Sqrt.sol\":318:327  y / 2 + 1 */\n      add\n        /* \"contracts/libraries/Sqrt.sol\":341:430  while (x < z) {... */\n    tag_599:\n        /* \"contracts/libraries/Sqrt.sol\":352:353  z */\n      dup2\n        /* \"contracts/libraries/Sqrt.sol\":348:349  x */\n      dup2\n        /* \"contracts/libraries/Sqrt.sol\":348:353  x < z */\n      lt\n        /* \"contracts/libraries/Sqrt.sol\":341:430  while (x < z) {... */\n      iszero\n      tag_600\n      jumpi\n        /* \"contracts/libraries/Sqrt.sol\":377:378  x */\n      dup1\n        /* \"contracts/libraries/Sqrt.sol\":373:378  z = x */\n      swap2\n      pop\n        /* \"contracts/libraries/Sqrt.sol\":414:415  2 */\n      0x02\n        /* \"contracts/libraries/Sqrt.sol\":409:410  x */\n      dup2\n        /* \"contracts/libraries/Sqrt.sol\":405:406  x */\n      dup3\n        /* \"contracts/libraries/Sqrt.sol\":401:402  y */\n      dup7\n        /* \"contracts/libraries/Sqrt.sol\":401:406  y / x */\n      dup2\n      tag_601\n      jumpi\n      invalid\n    tag_601:\n      div\n        /* \"contracts/libraries/Sqrt.sol\":401:410  y / x + x */\n      add\n        /* \"contracts/libraries/Sqrt.sol\":400:415  (y / x + x) / 2 */\n      dup2\n      tag_602\n      jumpi\n      invalid\n    tag_602:\n      div\n        /* \"contracts/libraries/Sqrt.sol\":396:415  x = (y / x + x) / 2 */\n      swap1\n      pop\n        /* \"contracts/libraries/Sqrt.sol\":341:430  while (x < z) {... */\n      jump(tag_599)\n    tag_600:\n      pop\n        /* \"contracts/libraries/Sqrt.sol\":450:451  z */\n      swap1\n      pop\n        /* \"contracts/libraries/Sqrt.sol\":443:451  return z */\n      jump(tag_266)\n        /* \"contracts/libraries/Sqrt.sol\":254:552  if (y > 3) {... */\n    tag_597:\n        /* \"contracts/libraries/Sqrt.sol\":472:478  y != 0 */\n      dup2\n      iszero\n        /* \"contracts/libraries/Sqrt.sol\":468:552  if (y != 0) {... */\n      tag_604\n      jumpi\n      pop\n        /* \"contracts/libraries/Sqrt.sol\":501:502  1 */\n      0x01\n        /* \"contracts/libraries/Sqrt.sol\":494:502  return 1 */\n      jump(tag_266)\n        /* \"contracts/libraries/Sqrt.sol\":468:552  if (y != 0) {... */\n    tag_604:\n      pop\n        /* \"contracts/libraries/Sqrt.sol\":540:541  0 */\n      0x00\n        /* \"contracts/libraries/Sqrt.sol\":533:541  return 0 */\n      jump(tag_266)\n        /* \"@openzeppelin/contracts/token/ERC20/ERC20.sol\":7835:8205  function _mint(address account, uint256 amount) internal virtual {... */\n    tag_388:\n      sub(shl(0xa0, 0x01), 0x01)\n        /* \"@openzeppelin/contracts/token/ERC20/ERC20.sol\":7918:7939  account != address(0) */\n      dup3\n      and\n        /* \"@openzeppelin/contracts/token/ERC20/ERC20.sol\":7910:7975  require(account != address(0), \"ERC20: mint to the zero address\") */\n      tag_607\n      jumpi\n      0x40\n      dup1\n      mload\n      shl(0xe5, 0x461bcd)\n      dup2\n      mstore\n      0x20\n      0x04\n      dup3\n      add\n      mstore\n      0x1f\n      0x24\n      dup3\n      add\n      mstore\n      0x45524332303a206d696e7420746f20746865207a65726f206164647265737300\n      0x44\n      dup3\n      add\n      mstore\n      swap1\n      mload\n      swap1\n      dup2\n      swap1\n      sub\n      0x64\n      add\n      swap1\n      revert\n    tag_607:\n        /* \"@openzeppelin/contracts/token/ERC20/ERC20.sol\":7986:8035  _beforeTokenTransfer(address(0), account, amount) */\n      tag_608\n        /* \"@openzeppelin/contracts/token/ERC20/ERC20.sol\":8015:8016  0 */\n      0x00\n        /* \"@openzeppelin/contracts/token/ERC20/ERC20.sol\":8019:8026  account */\n      dup4\n        /* \"@openzeppelin/contracts/token/ERC20/ERC20.sol\":8028:8034  amount */\n      dup4\n        /* \"@openzeppelin/contracts/token/ERC20/ERC20.sol\":7986:8006  _beforeTokenTransfer */\n      tag_554\n        /* \"@openzeppelin/contracts/token/ERC20/ERC20.sol\":7986:8035  _beforeTokenTransfer(address(0), account, amount) */\n      jump\t// in\n    tag_608:\n        /* \"@openzeppelin/contracts/token/ERC20/ERC20.sol\":8061:8073  _totalSupply */\n      sload(0x02)\n        /* \"@openzeppelin/contracts/token/ERC20/ERC20.sol\":8061:8085  _totalSupply.add(amount) */\n      tag_609\n      swap1\n        /* \"@openzeppelin/contracts/token/ERC20/ERC20.sol\":8078:8084  amount */\n      dup3\n        /* \"@openzeppelin/contracts/token/ERC20/ERC20.sol\":8061:8077  _totalSupply.add */\n      tag_234\n        /* \"@openzeppelin/contracts/token/ERC20/ERC20.sol\":8061:8085  _totalSupply.add(amount) */\n      jump\t// in\n    tag_609:\n        /* \"@openzeppelin/contracts/token/ERC20/ERC20.sol\":8046:8058  _totalSupply */\n      0x02\n        /* \"@openzeppelin/contracts/token/ERC20/ERC20.sol\":8046:8085  _totalSupply = _totalSupply.add(amount) */\n      sstore\n      sub(shl(0xa0, 0x01), 0x01)\n        /* \"@openzeppelin/contracts/token/ERC20/ERC20.sol\":8116:8134  _balances[account] */\n      dup3\n      and\n        /* \"@openzeppelin/contracts/token/ERC20/ERC20.sol\":8116:8125  _balances */\n      0x00\n        /* \"@openzeppelin/contracts/token/ERC20/ERC20.sol\":8116:8134  _balances[account] */\n      swap1\n      dup2\n      mstore\n      0x20\n      dup2\n      swap1\n      mstore\n      0x40\n      swap1\n      keccak256\n      sload\n        /* \"@openzeppelin/contracts/token/ERC20/ERC20.sol\":8116:8146  _balances[account].add(amount) */\n      tag_610\n      swap1\n        /* \"@openzeppelin/contracts/token/ERC20/ERC20.sol\":8139:8145  amount */\n      dup3\n        /* \"@openzeppelin/contracts/token/ERC20/ERC20.sol\":8116:8138  _balances[account].add */\n      tag_234\n        /* \"@openzeppelin/contracts/token/ERC20/ERC20.sol\":8116:8146  _balances[account].add(amount) */\n      jump\t// in\n    tag_610:\n      sub(shl(0xa0, 0x01), 0x01)\n        /* \"@openzeppelin/contracts/token/ERC20/ERC20.sol\":8095:8113  _balances[account] */\n      dup4\n      and\n        /* \"@openzeppelin/contracts/token/ERC20/ERC20.sol\":8095:8104  _balances */\n      0x00\n        /* \"@openzeppelin/contracts/token/ERC20/ERC20.sol\":8095:8113  _balances[account] */\n      dup2\n      dup2\n      mstore\n      0x20\n      dup2\n      dup2\n      mstore\n      0x40\n      dup1\n      dup4\n      keccak256\n        /* \"@openzeppelin/contracts/token/ERC20/ERC20.sol\":8095:8146  _balances[account] = _balances[account].add(amount) */\n      swap5\n      swap1\n      swap5\n      sstore\n        /* \"@openzeppelin/contracts/token/ERC20/ERC20.sol\":8161:8198  Transfer(address(0), account, amount) */\n      dup4\n      mload\n      dup6\n      dup2\n      mstore\n      swap4\n      mload\n        /* \"@openzeppelin/contracts/token/ERC20/ERC20.sol\":8095:8113  _balances[account] */\n      swap3\n      swap4\n        /* \"@openzeppelin/contracts/token/ERC20/ERC20.sol\":8095:8104  _balances */\n      swap2\n      swap3\n        /* \"@openzeppelin/contracts/token/ERC20/ERC20.sol\":8161:8198  Transfer(address(0), account, amount) */\n      0xddf252ad1be2c89b69c2b068fc378daa952ba7f163c4a11628f55a4df523b3ef\n      swap3\n      dup2\n      swap1\n      sub\n      swap1\n      swap2\n      add\n      swap1\n      log3\n        /* \"@openzeppelin/contracts/token/ERC20/ERC20.sol\":7835:8205  function _mint(address account, uint256 amount) internal virtual {... */\n      pop\n      pop\n      jump\t// out\n        /* \"@openzeppelin/contracts/math/SafeMath.sol\":3713:3985  function div(uint256 a, uint256 b, string memory errorMessage) internal pure returns (uint256) {... */\n    tag_546:\n        /* \"@openzeppelin/contracts/math/SafeMath.sol\":3799:3806  uint256 */\n      0x00\n        /* \"@openzeppelin/contracts/math/SafeMath.sol\":3833:3845  errorMessage */\n      dup2\n        /* \"@openzeppelin/contracts/math/SafeMath.sol\":3826:3831  b > 0 */\n      dup4\n        /* \"@openzeppelin/contracts/math/SafeMath.sol\":3818:3846  require(b > 0, errorMessage) */\n      tag_613\n      jumpi\n      mload(0x40)\n      shl(0xe5, 0x461bcd)\n      dup2\n      mstore\n      0x20\n      0x04\n      dup3\n      add\n      dup2\n      dup2\n      mstore\n      dup4\n      mload\n      0x24\n      dup5\n      add\n      mstore\n      dup4\n      mload\n      swap1\n      swap3\n      dup4\n      swap3\n      0x44\n      swap1\n      swap2\n      add\n      swap2\n      swap1\n      dup6\n      add\n      swap1\n      dup1\n      dup4\n      dup4\n      0x00\n      dup4\n      iszero\n      tag_523\n      jumpi\n      dup2\n      dup2\n      add\n      mload\n      dup4\n      dup3\n      add\n      mstore\n      0x20\n      add\n      jump(tag_521)\n    tag_613:\n      pop\n        /* \"@openzeppelin/contracts/math/SafeMath.sol\":3856:3865  uint256 c */\n      0x00\n        /* \"@openzeppelin/contracts/math/SafeMath.sol\":3872:3873  b */\n      dup4\n        /* \"@openzeppelin/contracts/math/SafeMath.sol\":3868:3869  a */\n      dup6\n        /* \"@openzeppelin/contracts/math/SafeMath.sol\":3868:3873  a / b */\n      dup2\n      tag_618\n      jumpi\n      invalid\n    tag_618:\n      div\n      swap6\n        /* \"@openzeppelin/contracts/math/SafeMath.sol\":3713:3985  function div(uint256 a, uint256 b, string memory errorMessage) internal pure returns (uint256) {... */\n      swap5\n      pop\n      pop\n      pop\n      pop\n      pop\n      jump\t// out\n        /* \"@openzeppelin/contracts/token/ERC20/SafeERC20.sol\":696:871  function safeTransfer(IERC20 token, address to, uint256 value) internal {... */\n    tag_555:\n        /* \"@openzeppelin/contracts/token/ERC20/SafeERC20.sol\":805:863  abi.encodeWithSelector(token.transfer.selector, to, value) */\n      0x40\n      dup1\n      mload\n      sub(shl(0xa0, 0x01), 0x01)\n      dup5\n      and\n      0x24\n      dup3\n      add\n      mstore\n      0x44\n      dup1\n      dup3\n      add\n      dup5\n      swap1\n      mstore\n      dup3\n      mload\n      dup1\n      dup4\n      sub\n      swap1\n      swap2\n      add\n      dup2\n      mstore\n      0x64\n      swap1\n      swap2\n      add\n      swap1\n      swap2\n      mstore\n      0x20\n      dup2\n      add\n      dup1\n      mload\n      sub(shl(0xe0, 0x01), 0x01)\n      and\n      shl(0xe0, 0xa9059cbb)\n      or\n      swap1\n      mstore\n        /* \"@openzeppelin/contracts/token/ERC20/SafeERC20.sol\":778:864  _callOptionalReturn(token, abi.encodeWithSelector(token.transfer.selector, to, value)) */\n      tag_554\n      swap1\n        /* \"@openzeppelin/contracts/token/ERC20/SafeERC20.sol\":798:803  token */\n      dup5\n      swap1\n        /* \"@openzeppelin/contracts/token/ERC20/SafeERC20.sol\":778:797  _callOptionalReturn */\n      tag_621\n        /* \"@openzeppelin/contracts/token/ERC20/SafeERC20.sol\":778:864  _callOptionalReturn(token, abi.encodeWithSelector(token.transfer.selector, to, value)) */\n      jump\t// in\n        /* \"@openzeppelin/contracts/token/ERC20/SafeERC20.sol\":877:1080  function safeTransferFrom(IERC20 token, address from, address to, uint256 value) internal {... */\n    tag_591:\n        /* \"@openzeppelin/contracts/token/ERC20/SafeERC20.sol\":1004:1072  abi.encodeWithSelector(token.transferFrom.selector, from, to, value) */\n      0x40\n      dup1\n      mload\n      sub(shl(0xa0, 0x01), 0x01)\n      dup1\n      dup7\n      and\n      0x24\n      dup4\n      add\n      mstore\n      dup5\n      and\n      0x44\n      dup3\n      add\n      mstore\n      0x64\n      dup1\n      dup3\n      add\n      dup5\n      swap1\n      mstore\n      dup3\n      mload\n      dup1\n      dup4\n      sub\n      swap1\n      swap2\n      add\n      dup2\n      mstore\n      0x84\n      swap1\n      swap2\n      add\n      swap1\n      swap2\n      mstore\n      0x20\n      dup2\n      add\n      dup1\n      mload\n      sub(shl(0xe0, 0x01), 0x01)\n      and\n      shl(0xe0, 0x23b872dd)\n      or\n      swap1\n      mstore\n        /* \"@openzeppelin/contracts/token/ERC20/SafeERC20.sol\":977:1073  _callOptionalReturn(token, abi.encodeWithSelector(token.transferFrom.selector, from, to, value)) */\n      tag_559\n      swap1\n        /* \"@openzeppelin/contracts/token/ERC20/SafeERC20.sol\":997:1002  token */\n      dup6\n      swap1\n        /* \"@openzeppelin/contracts/token/ERC20/SafeERC20.sol\":2959:3710  function _callOptionalReturn(IERC20 token, bytes memory data) private {... */\n    tag_621:\n        /* \"@openzeppelin/contracts/token/ERC20/SafeERC20.sol\":3378:3401  bytes memory returndata */\n      0x60\n        /* \"@openzeppelin/contracts/token/ERC20/SafeERC20.sol\":3404:3473  address(token).functionCall(data, \"SafeERC20: low-level call failed\") */\n      tag_625\n        /* \"@openzeppelin/contracts/token/ERC20/SafeERC20.sol\":3432:3436  data */\n      dup3\n        /* \"@openzeppelin/contracts/token/ERC20/SafeERC20.sol\":3404:3473  address(token).functionCall(data, \"SafeERC20: low-level call failed\") */\n      mload(0x40)\n      dup1\n      0x40\n      add\n      0x40\n      mstore\n      dup1\n      0x20\n      dup2\n      mstore\n      0x20\n      add\n      0x5361666545524332303a206c6f772d6c6576656c2063616c6c206661696c6564\n      dup2\n      mstore\n      pop\n        /* \"@openzeppelin/contracts/token/ERC20/SafeERC20.sol\":3412:3417  token */\n      dup6\n      sub(shl(0xa0, 0x01), 0x01)\n        /* \"@openzeppelin/contracts/token/ERC20/SafeERC20.sol\":3404:3431  address(token).functionCall */\n      and\n      tag_626\n      swap1\n        /* \"@openzeppelin/contracts/token/ERC20/SafeERC20.sol\":3404:3473  address(token).functionCall(data, \"SafeERC20: low-level call failed\") */\n      swap3\n      swap2\n      swap1\n      0xffffffff\n      and\n      jump\t// in\n    tag_625:\n        /* \"@openzeppelin/contracts/token/ERC20/SafeERC20.sol\":3487:3504  returndata.length */\n      dup1\n      mload\n        /* \"@openzeppelin/contracts/token/ERC20/SafeERC20.sol\":3378:3473  bytes memory returndata = address(token).functionCall(data, \"SafeERC20: low-level call failed\") */\n      swap1\n      swap2\n      pop\n        /* \"@openzeppelin/contracts/token/ERC20/SafeERC20.sol\":3487:3508  returndata.length > 0 */\n      iszero\n        /* \"@openzeppelin/contracts/token/ERC20/SafeERC20.sol\":3483:3704  if (returndata.length > 0) { // Return data is optional... */\n      tag_554\n      jumpi\n        /* \"@openzeppelin/contracts/token/ERC20/SafeERC20.sol\":3627:3637  returndata */\n      dup1\n        /* \"@openzeppelin/contracts/token/ERC20/SafeERC20.sol\":3616:3646  abi.decode(returndata, (bool)) */\n      dup1\n      0x20\n      add\n      swap1\n      mload\n      0x20\n      dup2\n      lt\n      iszero\n      tag_628\n      jumpi\n      0x00\n      dup1\n      revert\n    tag_628:\n      pop\n      mload\n        /* \"@openzeppelin/contracts/token/ERC20/SafeERC20.sol\":3608:3693  require(abi.decode(returndata, (bool)), \"SafeERC20: ERC20 operation did not succeed\") */\n      tag_554\n      jumpi\n      mload(0x40)\n      shl(0xe5, 0x461bcd)\n      dup2\n      mstore\n      0x04\n      add\n      dup1\n      dup1\n      0x20\n      add\n      dup3\n      dup2\n      sub\n      dup3\n      mstore\n      0x2a\n      dup2\n      mstore\n      0x20\n      add\n      dup1\n      data_e11ad79d1e4a7f2e5f376964cb99e8e8f7904e3fc16a109f7a7ecb9aa7956dcd\n      0x2a\n      swap2\n      codecopy\n      0x40\n      add\n      swap2\n      pop\n      pop\n      mload(0x40)\n      dup1\n      swap2\n      sub\n      swap1\n      revert\n        /* \"@openzeppelin/contracts/utils/Address.sol\":3770:3964  function functionCall(address target, bytes memory data, string memory errorMessage) internal returns (bytes memory) {... */\n    tag_626:\n        /* \"@openzeppelin/contracts/utils/Address.sol\":3873:3885  bytes memory */\n      0x60\n        /* \"@openzeppelin/contracts/utils/Address.sol\":3904:3957  _functionCallWithValue(target, data, 0, errorMessage) */\n      tag_216\n        /* \"@openzeppelin/contracts/utils/Address.sol\":3927:3933  target */\n      dup5\n        /* \"@openzeppelin/contracts/utils/Address.sol\":3935:3939  data */\n      dup5\n        /* \"@openzeppelin/contracts/utils/Address.sol\":3941:3942  0 */\n      0x00\n        /* \"@openzeppelin/contracts/utils/Address.sol\":3944:3956  errorMessage */\n      dup6\n        /* \"@openzeppelin/contracts/utils/Address.sol\":5247:5259  bytes memory */\n      0x60\n        /* \"@openzeppelin/contracts/utils/Address.sol\":5279:5297  isContract(target) */\n      tag_634\n        /* \"@openzeppelin/contracts/utils/Address.sol\":5290:5296  target */\n      dup6\n        /* \"@openzeppelin/contracts/utils/Address.sol\":5279:5289  isContract */\n      tag_635\n        /* \"@openzeppelin/contracts/utils/Address.sol\":5279:5297  isContract(target) */\n      jump\t// in\n    tag_634:\n        /* \"@openzeppelin/contracts/utils/Address.sol\":5271:5331  require(isContract(target), \"Address: call to non-contract\") */\n      tag_636\n      jumpi\n      0x40\n      dup1\n      mload\n      shl(0xe5, 0x461bcd)\n      dup2\n      mstore\n      0x20\n      0x04\n      dup3\n      add\n      mstore\n      0x1d\n      0x24\n      dup3\n      add\n      mstore\n      0x416464726573733a2063616c6c20746f206e6f6e2d636f6e7472616374000000\n      0x44\n      dup3\n      add\n      mstore\n      swap1\n      mload\n      swap1\n      dup2\n      swap1\n      sub\n      0x64\n      add\n      swap1\n      revert\n    tag_636:\n        /* \"@openzeppelin/contracts/utils/Address.sol\":5402:5414  bool success */\n      0x00\n        /* \"@openzeppelin/contracts/utils/Address.sol\":5416:5439  bytes memory returndata */\n      0x60\n        /* \"@openzeppelin/contracts/utils/Address.sol\":5443:5449  target */\n      dup7\n      sub(shl(0xa0, 0x01), 0x01)\n        /* \"@openzeppelin/contracts/utils/Address.sol\":5443:5454  target.call */\n      and\n        /* \"@openzeppelin/contracts/utils/Address.sol\":5463:5471  weiValue */\n      dup6\n        /* \"@openzeppelin/contracts/utils/Address.sol\":5474:5478  data */\n      dup8\n        /* \"@openzeppelin/contracts/utils/Address.sol\":5443:5479  target.call{ value: weiValue }(data) */\n      mload(0x40)\n      dup1\n      dup3\n      dup1\n      mload\n      swap1\n      0x20\n      add\n      swap1\n      dup1\n      dup4\n      dup4\n    tag_637:\n      0x20\n      dup4\n      lt\n      tag_639\n      jumpi\n      dup1\n      mload\n      dup3\n      mstore\n      not(0x1f)\n      swap1\n      swap3\n      add\n      swap2\n      0x20\n      swap2\n      dup3\n      add\n      swap2\n      add\n      jump(tag_637)\n    tag_639:\n      0x01\n      dup4\n      0x20\n      sub\n      0x0100\n      exp\n      sub\n      dup1\n      not\n      dup3\n      mload\n      and\n      dup2\n      dup5\n      mload\n      and\n      dup1\n      dup3\n      or\n      dup6\n      mstore\n      pop\n      pop\n      pop\n      pop\n      pop\n      pop\n      swap1\n      pop\n      add\n      swap2\n      pop\n      pop\n      0x00\n      mload(0x40)\n      dup1\n      dup4\n      sub\n      dup2\n      dup6\n      dup8\n      gas\n      call\n      swap3\n      pop\n      pop\n      pop\n      returndatasize\n      dup1\n      0x00\n      dup2\n      eq\n      tag_642\n      jumpi\n      mload(0x40)\n      swap2\n      pop\n      and(add(returndatasize, 0x3f), not(0x1f))\n      dup3\n      add\n      0x40\n      mstore\n      returndatasize\n      dup3\n      mstore\n      returndatasize\n      0x00\n      0x20\n      dup5\n      add\n      returndatacopy\n      jump(tag_641)\n    tag_642:\n      0x60\n      swap2\n      pop\n    tag_641:\n      pop\n        /* \"@openzeppelin/contracts/utils/Address.sol\":5401:5479  (bool success, bytes memory returndata) = target.call{ value: weiValue }(data) */\n      swap2\n      pop\n      swap2\n      pop\n        /* \"@openzeppelin/contracts/utils/Address.sol\":5493:5500  success */\n      dup2\n        /* \"@openzeppelin/contracts/utils/Address.sol\":5489:6069  if (success) {... */\n      iszero\n      tag_643\n      jumpi\n        /* \"@openzeppelin/contracts/utils/Address.sol\":5523:5533  returndata */\n      swap2\n      pop\n        /* \"@openzeppelin/contracts/utils/Address.sol\":5516:5533  return returndata */\n      tag_216\n      swap1\n      pop\n      jump\n        /* \"@openzeppelin/contracts/utils/Address.sol\":5489:6069  if (success) {... */\n    tag_643:\n        /* \"@openzeppelin/contracts/utils/Address.sol\":5634:5651  returndata.length */\n      dup1\n      mload\n        /* \"@openzeppelin/contracts/utils/Address.sol\":5634:5655  returndata.length > 0 */\n      iszero\n        /* \"@openzeppelin/contracts/utils/Address.sol\":5630:6059  if (returndata.length > 0) {... */\n      tag_645\n      jumpi\n        /* \"@openzeppelin/contracts/utils/Address.sol\":5892:5902  returndata */\n      dup1\n        /* \"@openzeppelin/contracts/utils/Address.sol\":5886:5903  mload(returndata) */\n      mload\n        /* \"@openzeppelin/contracts/utils/Address.sol\":5952:5967  returndata_size */\n      dup1\n        /* \"@openzeppelin/contracts/utils/Address.sol\":5939:5949  returndata */\n      dup3\n        /* \"@openzeppelin/contracts/utils/Address.sol\":5935:5937  32 */\n      0x20\n        /* \"@openzeppelin/contracts/utils/Address.sol\":5931:5950  add(32, returndata) */\n      add\n        /* \"@openzeppelin/contracts/utils/Address.sol\":5924:5968  revert(add(32, returndata), returndata_size) */\n      revert\n        /* \"@openzeppelin/contracts/utils/Address.sol\":5841:5986  {... */\n    tag_645:\n        /* \"@openzeppelin/contracts/utils/Address.sol\":6024:6044  revert(errorMessage) */\n      mload(0x40)\n      shl(0xe5, 0x461bcd)\n      dup2\n      mstore\n      0x20\n      0x04\n      dup3\n      add\n      dup2\n      dup2\n      mstore\n      dup7\n      mload\n      0x24\n      dup5\n      add\n      mstore\n      dup7\n      mload\n        /* \"@openzeppelin/contracts/utils/Address.sol\":6031:6043  errorMessage */\n      dup8\n      swap4\n        /* \"@openzeppelin/contracts/utils/Address.sol\":6024:6044  revert(errorMessage) */\n      swap2\n      swap3\n      dup4\n      swap3\n      0x44\n      add\n      swap2\n      swap1\n      dup6\n      add\n      swap1\n      dup1\n      dup4\n      dup4\n      0x00\n      dup4\n      iszero\n      tag_523\n      jumpi\n      dup2\n      dup2\n      add\n      mload\n      dup4\n      dup3\n      add\n      mstore\n      0x20\n      add\n      jump(tag_521)\n        /* \"@openzeppelin/contracts/utils/Address.sol\":718:1328  function isContract(address account) internal view returns (bool) {... */\n    tag_635:\n        /* \"@openzeppelin/contracts/utils/Address.sol\":778:782  bool */\n      0x00\n        /* \"@openzeppelin/contracts/utils/Address.sol\":1239:1259  extcodehash(account) */\n      dup2\n      extcodehash\n        /* \"@openzeppelin/contracts/utils/Address.sol\":1084:1150  0xc5d2460186f7233c927e7db2dcc703c0e500b653ca82273b7bfad8045d85a470 */\n      0xc5d2460186f7233c927e7db2dcc703c0e500b653ca82273b7bfad8045d85a470\n        /* \"@openzeppelin/contracts/utils/Address.sol\":1278:1301  codehash != accountHash */\n      dup2\n      dup2\n      eq\n      dup1\n      iszero\n      swap1\n        /* \"@openzeppelin/contracts/utils/Address.sol\":1278:1320  codehash != accountHash && codehash != 0x0 */\n      tag_216\n      jumpi\n      pop\n      pop\n        /* \"@openzeppelin/contracts/utils/Address.sol\":1305:1320  codehash != 0x0 */\n      iszero\n      iszero\n      swap3\n        /* \"@openzeppelin/contracts/utils/Address.sol\":1270:1321  return (codehash != accountHash && codehash != 0x0) */\n      swap2\n      pop\n      pop\n        /* \"@openzeppelin/contracts/utils/Address.sol\":718:1328  function isContract(address account) internal view returns (bool) {... */\n      jump\t// out\n    tag_305:\n      dup3\n      dup1\n      sload\n      dup3\n      dup3\n      sstore\n      swap1\n      0x00\n      mstore\n      keccak256(0x00, 0x20)\n      swap1\n      dup2\n      add\n      swap3\n      dup3\n      iszero\n      tag_655\n      jumpi\n      swap2\n      0x20\n      mul\n      dup3\n      add\n    tag_654:\n      dup3\n      dup2\n      gt\n      iszero\n      tag_655\n      jumpi\n      dup3\n      mload\n      dup3\n      sload\n      not(sub(shl(0xa0, 0x01), 0x01))\n      and\n      sub(shl(0xa0, 0x01), 0x01)\n      swap1\n      swap2\n      and\n      or\n      dup3\n      sstore\n      0x20\n      swap1\n      swap3\n      add\n      swap2\n      0x01\n      swap1\n      swap2\n      add\n      swap1\n      jump(tag_654)\n    tag_655:\n      pop\n      tag_656\n      swap3\n      swap2\n      pop\n      tag_657\n      jump\t// in\n    tag_656:\n      pop\n      swap1\n      jump\t// out\n    tag_339:\n      mload(0x40)\n      dup1\n      0x40\n      add\n      0x40\n      mstore\n      dup1\n      0x00\n      dup2\n      mstore\n      0x20\n      add\n      0x00\n      dup2\n      mstore\n      pop\n      swap1\n      jump\t// out\n    tag_657:\n    tag_658:\n      dup1\n      dup3\n      gt\n      iszero\n      tag_656\n      jumpi\n      dup1\n      sload\n      not(sub(shl(0xa0, 0x01), 0x01))\n      and\n      dup2\n      sstore\n      0x01\n      add\n      jump(tag_658)\n    stop\n    data_0557e210f7a69a685100a7e4e3d0a7024c546085cee28910fd17d0b081d9516f 45524332303a207472616e7366657220746f20746865207a65726f2061646472657373\n    data_0d74825aecb0211bbe1f02ccfb998d9e49771bedb2c6414e20fd8978a2e0f54c 5265656e7472616e637947756172643a207265656e7472616e742063616c6c00\n    data_149b126e7125232b4200af45303d04fba8b74653b1a295a6a561a528c33fefdd 45524332303a206275726e20616d6f756e7420657863656564732062616c616e6365\n    data_245f15ff17f551913a7a18385165551503906a406f905ac1c2437281a7cd0cfe 4f776e61626c653a206e6577206f776e657220697320746865207a65726f2061646472657373\n    data_24883cc5fe64ace9d0df1893501ecb93c77180f0ff69cca79affb3c316dc8029 45524332303a20617070726f766520746f20746865207a65726f2061646472657373\n    data_4107e8a8b9e94bf8ff83080ddec1c0bffe897ebc2241b89d44f66b3d274088b6 45524332303a207472616e7366657220616d6f756e7420657863656564732062616c616e6365\n    data_9113bb53c2876a3805b2c9242029423fc540a728243ce887ab24c82cf119fba3 536166654d6174683a206d756c7469706c69636174696f6e206f766572666c6f77\n    data_974d1b4421da69cc60b481194f0dad36a5bb4e23da810da7a7fb30cdba178330 45524332303a207472616e7366657220616d6f756e74206578636565647320616c6c6f77616e6365\n    data_b16788493b576042bb52c50ed56189e0b250db113c7bfb1c3897d25cf9632d7f 45524332303a206275726e2066726f6d20746865207a65726f2061646472657373\n    data_baecc556b46f4ed0f2b4cb599d60785ac8563dd2dc0a5bf12edea1c39e5e1fea 45524332303a207472616e736665722066726f6d20746865207a65726f2061646472657373\n    data_c953f4879035ed60e766b34720f656aab5c697b141d924c283124ecedb91c208 45524332303a20617070726f76652066726f6d20746865207a65726f2061646472657373\n    data_e11ad79d1e4a7f2e5f376964cb99e8e8f7904e3fc16a109f7a7ecb9aa7956dcd 5361666545524332303a204552433230206f7065726174696f6e20646964206e6f742073756363656564\n    data_f8b476f7d28209d77d4a4ac1fe36b9f8259aa1bb6bddfa6e89de7e51615cf8a8 45524332303a2064656372656173656420616c6c6f77616e63652062656c6f77207a65726f\n\n    auxdata: 0xa2646970667358221220c56a9d4f729c91522386bea105d15297ae47fa07b747c70d4233e30b7bd1e7be64736f6c634300060c0033\n}\n",
				"bytecode": {
					"linkReferences": {},
					"object": "60076080818152664c502d4e414d4560c81b60a0908152610100604052600960c090815268534f4d455448494e4760b81b60e052919262000043916003916200022a565b508051620000599060049060208401906200022a565b50506005805460ff1916601217905550600160065560006200007a6200018c565b600780546001600160a01b0319166001600160a01b038316908117909155604051919250906000907f8be0079c531659141344cd1fd0a4f28419497f9722a3daafe3b4186f6b6457e0908290a350600980546001600160a01b03191633179055467f8b73c3c69bb8fe3d512ecc4cf759cc79239f7b179b0ffacaa9a75d522b39400f6200010662000190565b805160209182012060408051808201825260018152603160f81b90840152805180840194909452838101919091527fc89efdaa54c0f20c7adf612882df0950f5a951637e0307cdcb4c672f298b8bc6606084015260808301939093523060a0808401919091528351808403909101815260c09092019092528051910120600855620002c6565b3390565b60038054604080516020601f6002600019610100600188161502019095169490940493840181900481028201810190925282815260609390929091830182828015620002205780601f10620001f45761010080835404028352916020019162000220565b820191906000526020600020905b8154815290600101906020018083116200020257829003601f168201915b5050505050905090565b828054600181600116156101000203166002900490600052602060002090601f016020900481019282601f106200026d57805160ff19168380011785556200029d565b828001600101855582156200029d579182015b828111156200029d57825182559160200191906001019062000280565b50620002ab929150620002af565b5090565b5b80821115620002ab5760008155600101620002b0565b61368380620002d66000396000f3fe6080604052600436106102255760003560e01c80638da5cb5b11610123578063c45a0155116100ab578063dd62ed3e1161006f578063dd62ed3e146109fe578063ddca3f4314610a39578063e7ff42c914610a4e578063f223885a14610a81578063f2fde38b14610b3f57610225565b8063c45a0155146108ff578063d505accf14610914578063d5bcb9b514610972578063d73792a9146109b6578063d7d3aab5146109cb57610225565b8063a9059cbb116100f2578063a9059cbb146107d5578063aa6ca8081461080e578063b1ec4c4014610873578063b21b5a21146108d5578063baf13a0a146108ea57610225565b80638da5cb5b146106c457806395d89b41146106d9578063a224cee7146106ee578063a457c2d71461079c57610225565b806339509351116101b15780636edc2c09116101755780636edc2c09146105dd57806370a0823114610610578063715018a61461064357806378e3214f146106585780637ecebe001461069157610225565b8063395093511461043657806348d67e1b1461046f5780634f64b2be146104845780635915d806146104ca5780635ed9156d1461058157610225565b80631e1401f8116101f85780631e1401f81461035b57806323b872dd1461039e57806330adf81f146103e1578063313ce567146103f65780633644e5151461042157610225565b806306fdde031461022a578063095ea7b3146102b457806318160ddd1461030157806319f3736114610328575b600080fd5b34801561023657600080fd5b5061023f610b72565b6040805160208082528351818301528351919283929083019185019080838360005b83811015610279578181015183820152602001610261565b50505050905090810190601f1680156102a65780820380516001836020036101000a031916815260200191505b509250505060405180910390f35b3480156102c057600080fd5b506102ed600480360360408110156102d757600080fd5b506001600160a01b038135169060200135610c08565b604080519115158252519081900360200190f35b34801561030d57600080fd5b50610316610c26565b60408051918252519081900360200190f35b34801561033457600080fd5b506102ed6004803603602081101561034b57600080fd5b50356001600160a01b0316610c2c565b34801561036757600080fd5b506103166004803603606081101561037e57600080fd5b506001600160a01b03813581169160208101359091169060400135610c41565b3480156103aa57600080fd5b506102ed600480360360608110156103c157600080fd5b506001600160a01b03813581169160208101359091169060400135610c68565b3480156103ed57600080fd5b50610316610cef565b34801561040257600080fd5b5061040b610d13565b6040805160ff9092168252519081900360200190f35b34801561042d57600080fd5b50610316610d1c565b34801561044257600080fd5b506102ed6004803603604081101561045957600080fd5b506001600160a01b038135169060200135610d22565b34801561047b57600080fd5b50610316610d70565b34801561049057600080fd5b506104ae600480360360208110156104a757600080fd5b5035610d76565b604080516001600160a01b039092168252519081900360200190f35b3480156104d657600080fd5b5061057f600480360360408110156104ed57600080fd5b81359190810190604081016020820135600160201b81111561050e57600080fd5b82018360208201111561052057600080fd5b803590602001918460208302840111600160201b8311171561054157600080fd5b919080806020026020016040519081016040528093929190818152602001838360200280828437600092019190915250929550610d9d945050505050565b005b34801561058d57600080fd5b506105b4600480360360208110156105a457600080fd5b50356001600160a01b0316610f84565b604080516001600160d81b03909316835264ffffffffff90911660208301528051918290030190f35b3480156105e957600080fd5b506105b46004803603602081101561060057600080fd5b50356001600160a01b0316610faf565b34801561061c57600080fd5b506103166004803603602081101561063357600080fd5b50356001600160a01b0316610fda565b34801561064f57600080fd5b5061057f610ff9565b34801561066457600080fd5b5061057f6004803603604081101561067b57600080fd5b506001600160a01b0381351690602001356110ad565b34801561069d57600080fd5b50610316600480360360208110156106b457600080fd5b50356001600160a01b0316611303565b3480156106d057600080fd5b506104ae611315565b3480156106e557600080fd5b5061023f611324565b3480156106fa57600080fd5b5061057f6004803603602081101561071157600080fd5b810190602081018135600160201b81111561072b57600080fd5b82018360208201111561073d57600080fd5b803590602001918460208302840111600160201b8311171561075e57600080fd5b919080806020026020016040519081016040528093929190818152602001838360200280828437600092019190915250929550611385945050505050565b3480156107a857600080fd5b506102ed600480360360408110156107bf57600080fd5b506001600160a01b0381351690602001356114e6565b3480156107e157600080fd5b506102ed600480360360408110156107f857600080fd5b506001600160a01b03813516906020013561154e565b34801561081a57600080fd5b50610823611562565b60408051602080825283518183015283519192839290830191858101910280838360005b8381101561085f578181015183820152602001610847565b505050509050019250505060405180910390f35b34801561087f57600080fd5b506108a66004803603602081101561089657600080fd5b50356001600160a01b03166115c3565b60405180836001600160801b03168152602001826001600160801b031681526020019250505060405180910390f35b3480156108e157600080fd5b506103166115e9565b3480156108f657600080fd5b506103166115ee565b34801561090b57600080fd5b506104ae6115f4565b34801561092057600080fd5b5061057f600480360360e081101561093757600080fd5b506001600160a01b03813581169160208101359091169060408101359060608101359060ff6080820135169060a08101359060c00135611603565b610316600480360360a081101561098857600080fd5b506001600160a01b0381358116916020810135821691604082013591606081013591608090910135166117f4565b3480156109c257600080fd5b50610316611cfd565b3480156109d757600080fd5b50610316600480360360208110156109ee57600080fd5b50356001600160a01b0316611d09565b348015610a0a57600080fd5b5061031660048036036040811015610a2157600080fd5b506001600160a01b0381358116916020013516611d80565b348015610a4557600080fd5b50610316611dab565b348015610a5a57600080fd5b5061031660048036036020811015610a7157600080fd5b50356001600160a01b0316611e21565b61031660048036036040811015610a9757600080fd5b810190602081018135600160201b811115610ab157600080fd5b820183602082011115610ac357600080fd5b803590602001918460208302840111600160201b83111715610ae457600080fd5b919390929091602081019035600160201b811115610b0157600080fd5b820183602082011115610b1357600080fd5b803590602001918460208302840111600160201b83111715610b3457600080fd5b509092509050611e91565b348015610b4b57600080fd5b5061057f60048036036020811015610b6257600080fd5b50356001600160a01b031661251f565b60038054604080516020601f6002600019610100600188161502019095169490940493840181900481028201810190925282815260609390929091830182828015610bfe5780601f10610bd357610100808354040283529160200191610bfe565b820191906000526020600020905b815481529060010190602001808311610be157829003601f168201915b5050505050905090565b6000610c1c610c1561262a565b848461262e565b5060015b92915050565b60025490565b600c6020526000908152604090205460ff1681565b6000610c60848484610c5288611d09565b610c5b88611e21565b61271a565b949350505050565b6000610c758484846127d9565b610ce584610c8161262a565b610ce08560405180606001604052806028815260200161356d602891396001600160a01b038a16600090815260016020526040812090610cbf61262a565b6001600160a01b031681526020810191909152604001600020549190612934565b61262e565b5060019392505050565b7f6e71edae12b1b97f4d1f60370fef10105fa2faae0126114a169c64845d6126c981565b60055460ff1690565b60085481565b6000610c1c610d2f61262a565b84610ce08560016000610d4061262a565b6001600160a01b03908116825260208083019390935260409182016000908120918c1681529252902054906129cb565b61012c90565b600a8181548110610d8357fe5b6000918252602090912001546001600160a01b0316905081565b60026006541415610de3576040805162461bcd60e51b815260206004820152601f602482015260008051602061349c833981519152604482015290519081900360640190fd5b60026006556000610df2610c26565b9050610dfe3384612a25565b60005b600a54811015610f43576000600a8281548110610e1a57fe5b60009182526020822001546001600160a01b03169150610e3a8230612b21565b90506000610e5285610e4c848a612bc2565b90612c1b565b9050610e686001600160a01b0384163383612c5d565b855184101580610e8b5750858481518110610e7f57fe5b60200260200101518110155b610edc576040805162461bcd60e51b815260206004820152601f60248201527f4d6f6f6e69737761703a20726573756c74206973206e6f7420656e6f75676800604482015290519081900360640190fd5b610f0a82610eea878a612cc6565b6001600160a01b0386166000908152600e60205260409020919088612d08565b610f3882610f18878a612cc6565b6001600160a01b0386166000908152600f60205260409020919088612d08565b505050600101610e01565b5060408051848152905133917f7084f5476618d8e60b11ef0d7d3f06914655adb8793e28ff7f018d4c76d505d5919081900360200190a25050600160065550565b600f602052600090815260409020546001600160d81b03811690600160d81b900464ffffffffff1682565b600e602052600090815260409020546001600160d81b03811690600160d81b900464ffffffffff1682565b6001600160a01b0381166000908152602081905260409020545b919050565b61100161262a565b6007546001600160a01b03908116911614611063576040805162461bcd60e51b815260206004820181905260248201527f4f776e61626c653a2063616c6c6572206973206e6f7420746865206f776e6572604482015290519081900360640190fd5b6007546040516000916001600160a01b0316907f8be0079c531659141344cd1fd0a4f28419497f9722a3daafe3b4186f6b6457e0908390a3600780546001600160a01b0319169055565b600260065414156110f3576040805162461bcd60e51b815260206004820152601f602482015260008051602061349c833981519152604482015290519081900360640190fd5b600260065561110061262a565b6007546001600160a01b03908116911614611162576040805162461bcd60e51b815260206004820181905260248201527f4f776e61626c653a2063616c6c6572206973206e6f7420746865206f776e6572604482015290519081900360640190fd5b600a5460609067ffffffffffffffff8111801561117e57600080fd5b506040519080825280602002602001820160405280156111a8578160200160208202803683370190505b50905060005b8151811015611202576111e330600a83815481106111c857fe5b6000918252602090912001546001600160a01b031690612b21565b8282815181106111ef57fe5b60209081029190910101526001016111ae565b506112176001600160a01b0384163384612c5d565b60005b815181101561129e5781818151811061122f57fe5b602002602001015161124830600a84815481106111c857fe5b1015611296576040805162461bcd60e51b8152602060048201526018602482015277135bdbdb9a5cddd85c0e881858d8d95cdcc819195b9a595960421b604482015290519081900360640190fd5b60010161121a565b506103e86112ab30610fda565b10156112f9576040805162461bcd60e51b8152602060048201526018602482015277135bdbdb9a5cddd85c0e881858d8d95cdcc819195b9a595960421b604482015290519081900360640190fd5b5050600160065550565b600b6020526000908152604090205481565b6007546001600160a01b031690565b60048054604080516020601f6002600019610100600188161502019095169490940493840181900481028201810190925282815260609390929091830182828015610bfe5780601f10610bd357610100808354040283529160200191610bfe565b80516002146113db576040805162461bcd60e51b815260206004820181905260248201527f4d6f6f6e69737761703a206f6e6c79203220746f6b656e7320616c6c6f776564604482015290519081900360640190fd5b600980546001600160a01b03191633179055805161140090600a9060208401906133da565b5060005b81518110156114e257600c600083838151811061141d57fe5b6020908102919091018101516001600160a01b031682528101919091526040016000205460ff1615611496576040805162461bcd60e51b815260206004820152601b60248201527f4d6f6f6e69737761703a206475706c696361746520746f6b656e730000000000604482015290519081900360640190fd5b6001600c60008484815181106114a857fe5b6020908102919091018101516001600160a01b03168252810191909152604001600020805460ff1916911515919091179055600101611404565b5050565b6000610c1c6114f361262a565b84610ce085604051806060016040528060258152602001613629602591396001600061151d61262a565b6001600160a01b03908116825260208083019390935260409182016000908120918d16815292529020549190612934565b6000610c1c61155b61262a565b84846127d9565b6060600a805480602002602001604051908101604052809291908181526020018280548015610bfe57602002820191906000526020600020905b81546001600160a01b0316815260019091019060200180831161159c575050505050905090565b600d602052600090815260409020546001600160801b0380821691600160801b90041682565b601481565b6103e881565b6009546001600160a01b031681565b42841015611642576040805162461bcd60e51b81526020600482015260076024820152661156141254915160ca1b604482015290519081900360640190fd5b6001600160a01b038088166000818152600b602090815260408083208054600180820190925560085483517f6e71edae12b1b97f4d1f60370fef10105fa2faae0126114a169c64845d6126c98187015280850197909752968d166060870152608086018c905260a0860181905260c08087018c90528351808803909101815260e08701845280519085012061190160f01b6101008801526101028701979097526101228087019790975282518087039097018752610142860180845287519785019790972096859052610162860180845287905260ff8a166101828701526101a286018990526101c28601889052915191959490926101e2808301939192601f198301929081900390910190855afa158015611762573d6000803e3d6000fd5b5050604051601f1901519150506001600160a01b038116158015906117985750896001600160a01b0316816001600160a01b0316145b6117dd576040805162461bcd60e51b8152602060048201526011602482015270494e56414c49445f5349474e415455524560781b604482015290519081900360640190fd5b6117e88a8a8a61262e565b50505050505050505050565b60006002600654141561183c576040805162461bcd60e51b815260206004820152601f602482015260008051602061349c833981519152604482015290519081900360640190fd5b60026006556118536001600160a01b038716612d64565b61185e576000611860565b835b34146118b3576040805162461bcd60e51b815260206004820152601c60248201527f4d6f6f6e69737761703a2077726f6e672076616c756520757361676500000000604482015290519081900360640190fd5b6118bb61343f565b60405180604001604052806119016118db8a6001600160a01b0316612d64565b6118e65760006118e8565b345b6118fb6001600160a01b038c1630612b21565b90612cc6565b81526020016119196001600160a01b03891630612b21565b905280516001600160a01b0389166000908152600e602090815260408083208151808301909252546001600160d81b0381168252600160d81b900464ffffffffff16918101919091529293509161197b916119749190612d71565b8351612dd2565b6020838101516001600160a01b038a166000908152600f835260408082208151808301909252546001600160d81b0381168252600160d81b900464ffffffffff16938101939093529293506119dd916119d391612d71565b8460200151612de9565b90506119f26001600160a01b038a1688612df8565b8251600090611a0e906118fb6001600160a01b038d1630612b21565b9050611a1d8a8a83868661271a565b9450600085118015611a2f5750868510155b611a80576040805162461bcd60e51b815260206004820152601f60248201527f4d6f6f6e69737761703a2072657475726e206973206e6f7420656e6f75676800604482015290519081900360640190fd5b611a946001600160a01b038a163387612c5d565b83518314611ac757611ac7611aa984836129cb565b6001600160a01b038c166000908152600e6020526040902090612ebb565b83602001518214611afd57611afd611adf8387612cc6565b6001600160a01b038b166000908152600f6020526040902090612ebb565b83516001600160a01b038b166000908152600f60205260409020611b2091612ee7565b6020808501516001600160a01b038b166000908152600e9092526040909120611b4891612ee7565b6001600160a01b03861615611c035783516ec097ce7bc90715b34b9f100000000090611b8290610e4c611b7b82866129cb565b8490612bc2565b6020860151909150611b9b90610e4c611b7b828a612cc6565b90506ec097ce7bc90715b34b9f1000000000811115611c01576000611bed6014610e4c670de0b6b3a7640000610e4c611bd2610c26565b611be7670de0b6b3a76400006118fb8a612f22565b90612bc2565b90508015611bff57611bff8882612f7c565b505b505b886001600160a01b03168a6001600160a01b0316336001600160a01b03167f86c49b5d8577da08444947f1427d23ef191cfabf2c0788f93324d79e926a9302848989600001518a60200151611c56610c26565b60408051958652602086019490945284840192909252606084015260808301526001600160a01b038c1660a0830152519081900360c00190a46001600160a01b039099166000908152600d602052604090208054600160801b6001600160801b03808316909c018c166fffffffffffffffffffffffffffffffff19909216919091178181048c1687018c169091029a16999099179098555050600160065595945050505050565b670de0b6b3a764000081565b600080611d1f6001600160a01b03841630612b21565b6001600160a01b0384166000908152600e60209081526040918290208251808401909352546001600160d81b0381168352600160d81b900464ffffffffff1690820152909150611d7990611d739083612d71565b82612dd2565b9392505050565b6001600160a01b03918216600090815260016020908152604080832093909416825291909152205490565b6009546040805163ddca3f4360e01b815290516000926001600160a01b03169163ddca3f43916004808301926020929190829003018186803b158015611df057600080fd5b505afa158015611e04573d6000803e3d6000fd5b505050506040513d6020811015611e1a57600080fd5b5051905090565b600080611e376001600160a01b03841630612b21565b6001600160a01b0384166000908152600f60209081526040918290208251808401909352546001600160d81b0381168352600160d81b900464ffffffffff1690820152909150611d7990611e8b9083612d71565b82612de9565b600060026006541415611ed9576040805162461bcd60e51b815260206004820152601f602482015260008051602061349c833981519152604482015290519081900360640190fd5b6002600655600a80546040805160208084028201810190925282815260609390929091830182828015611f3557602002820191906000526020600020905b81546001600160a01b03168152600190910190602001808311611f17575b5050505050905080518686905014611f94576040805162461bcd60e51b815260206004820152601f60248201527f4d6f6f6e69737761703a2077726f6e6720616d6f756e7473206c656e67746800604482015290519081900360640190fd5b611fba81600081518110611fa457fe5b60200260200101516001600160a01b0316612d64565b611ff357611fce81600181518110611fa457fe5b611fd9576000611fee565b85856001818110611fe657fe5b905060200201355b612008565b8585600081811061200057fe5b905060200201355b341461205b576040805162461bcd60e51b815260206004820152601c60248201527f4d6f6f6e69737761703a2077726f6e672076616c756520757361676500000000604482015290519081900360640190fd5b60608567ffffffffffffffff8111801561207457600080fd5b5060405190808252806020026020018201604052801561209e578160200160208202803683370190505b50905060005b815181101561211a576120fb6120bf848381518110611fa457fe5b6120ca5760006120cc565b345b6118fb308685815181106120dc57fe5b60200260200101516001600160a01b0316612b2190919063ffffffff16565b82828151811061210757fe5b60209081029190910101526001016120a4565b506000612125610c26565b90508061217e576121396103e86063612bc2565b9350612147306103e8612f7c565b60005b878110156121785761216e858a8a8481811061216257fe5b90506020020135612dd2565b945060010161214a565b506121df565b600019935060005b878110156121dd576121d3856121ce8584815181106121a157fe5b6020026020010151610e4c8d8d878181106121b857fe5b9050602002013587612bc290919063ffffffff16565b612de9565b9450600101612186565b505b8360005b888110156123ae5760008a8a838181106121f957fe5b9050602002013511612252576040805162461bcd60e51b815260206004820152601960248201527f4d6f6f6e69737761703a20616d6f756e74206973207a65726f00000000000000604482015290519081900360640190fd5b600083156122965761229184610e4c6001870361228b878a888151811061227557fe5b6020026020010151612bc290919063ffffffff16565b906129cb565b6122aa565b8a8a838181106122a257fe5b905060200201355b90508888838181106122b857fe5b90506020020135811015612313576040805162461bcd60e51b815260206004820181905260248201527f4d6f6f6e69737761703a206d696e416d6f756e74206e6f742072656163686564604482015290519081900360640190fd5b6123428187848151811061232357fe5b60200260200101516001600160a01b0316612df890919063ffffffff16565b83156123a557600061237186848151811061235957fe5b60200260200101516118fb308a87815181106120dc57fe5b90506123a1886121ce88868151811061238657fe5b6020026020010151610e4c858a612bc290919063ffffffff16565b9750505b506001016121e3565b5081156124785760005b88811015612476576124338482815181106123cf57fe5b60200260200101516123ea88866129cb90919063ffffffff16565b85600f60008a87815181106123fb57fe5b60200260200101516001600160a01b03166001600160a01b03168152602001908152602001600020612d08909392919063ffffffff16565b61246e84828151811061244257fe5b602002602001015161245d88866129cb90919063ffffffff16565b85600e60008a87815181106123fb57fe5b6001016123b8565b505b600085116124cd576040805162461bcd60e51b815260206004820152601f60248201527f4d6f6f6e69737761703a20726573756c74206973206e6f7420656e6f75676800604482015290519081900360640190fd5b6124d73386612f7c565b60408051868152905133917f2da466a7b24304f47e87fa2e1e5a81b9831ce54fec19055ce277ca2f39ba42c4919081900360200190a250506001600655509095945050505050565b61252761262a565b6007546001600160a01b03908116911614612589576040805162461bcd60e51b815260206004820181905260248201527f4f776e61626c653a2063616c6c6572206973206e6f7420746865206f776e6572604482015290519081900360640190fd5b6001600160a01b0381166125ce5760405162461bcd60e51b81526004018080602001828103825260268152602001806134de6026913960400191505060405180910390fd5b6007546040516001600160a01b038084169216907f8be0079c531659141344cd1fd0a4f28419497f9722a3daafe3b4186f6b6457e090600090a3600780546001600160a01b0319166001600160a01b0392909216919091179055565b3390565b6001600160a01b0383166126735760405162461bcd60e51b81526004018080602001828103825260248152602001806135db6024913960400191505060405180910390fd5b6001600160a01b0382166126b85760405162461bcd60e51b81526004018080602001828103825260228152602001806135046022913960400191505060405180910390fd5b6001600160a01b03808416600081815260016020908152604080832094871680845294825291829020859055815185815291517f8c5be1e5ebec7d5bd14f71427d1e84f3dd0314c0f7b2291e5b200ac8c7c3b9259281900390910190a3505050565b6001600160a01b0385166000908152600c602052604081205460ff16801561275a57506001600160a01b0385166000908152600c602052604090205460ff165b80156127785750846001600160a01b0316866001600160a01b031614155b80156127845750600084115b156127d05760006127b36127ac670de0b6b3a7640000610e4c6127a5611dab565b8990612bc2565b8690612cc6565b90506127cc6127c285836129cb565b610e4c8386612bc2565b9150505b95945050505050565b6001600160a01b03831661281e5760405162461bcd60e51b81526004018080602001828103825260258152602001806135b66025913960400191505060405180910390fd5b6001600160a01b0382166128635760405162461bcd60e51b81526004018080602001828103825260238152602001806134796023913960400191505060405180910390fd5b61286e838383612cc1565b6128ab81604051806060016040528060268152602001613526602691396001600160a01b0386166000908152602081905260409020549190612934565b6001600160a01b0380851660009081526020819052604080822093909355908416815220546128da90826129cb565b6001600160a01b038084166000818152602081815260409182902094909455805185815290519193928716927fddf252ad1be2c89b69c2b068fc378daa952ba7f163c4a11628f55a4df523b3ef92918290030190a3505050565b600081848411156129c35760405162461bcd60e51b81526004018080602001828103825283818151815260200191508051906020019080838360005b83811015612988578181015183820152602001612970565b50505050905090810190601f1680156129b55780820380516001836020036101000a031916815260200191505b509250505060405180910390fd5b505050900390565b600082820183811015611d79576040805162461bcd60e51b815260206004820152601b60248201527f536166654d6174683a206164646974696f6e206f766572666c6f770000000000604482015290519081900360640190fd5b6001600160a01b038216612a6a5760405162461bcd60e51b81526004018080602001828103825260218152602001806135956021913960400191505060405180910390fd5b612a7682600083612cc1565b612ab3816040518060600160405280602281526020016134bc602291396001600160a01b0385166000908152602081905260409020549190612934565b6001600160a01b038316600090815260208190526040902055600254612ad99082612cc6565b6002556040805182815290516000916001600160a01b038516917fddf252ad1be2c89b69c2b068fc378daa952ba7f163c4a11628f55a4df523b3ef9181900360200190a35050565b6000612b2c83612d64565b15612b4257506001600160a01b03811631610c20565b826001600160a01b03166370a08231836040518263ffffffff1660e01b815260040180826001600160a01b0316815260200191505060206040518083038186803b158015612b8f57600080fd5b505afa158015612ba3573d6000803e3d6000fd5b505050506040513d6020811015612bb957600080fd5b50519050610c20565b600082612bd157506000610c20565b82820282848281612bde57fe5b0414611d795760405162461bcd60e51b815260040180806020018281038252602181526020018061354c6021913960400191505060405180910390fd5b6000611d7983836040518060400160405280601a81526020017f536166654d6174683a206469766973696f6e206279207a65726f00000000000081525061306c565b8015612cc157612c6c83612d64565b15612cad576040516001600160a01b0383169082156108fc029083906000818181858888f19350505050158015612ca7573d6000803e3d6000fd5b50612cc1565b612cc16001600160a01b03841683836130d1565b505050565b6000611d7983836040518060400160405280601e81526020017f536166654d6174683a207375627472616374696f6e206f766572666c6f770000815250612934565b612d5e84612d5983610e4c612d1e826001612cc6565b604080518082019091528a546001600160d81b0381168252600160d81b900464ffffffffff16602082015261228b908990611be7908c612d71565b612ebb565b50505050565b6001600160a01b03161590565b600080612d9861012c6121ce866020015164ffffffffff1642612cc690919063ffffffff16565b90506000612da861012c83612cc6565b90506127d061012c610e4c612dbd8786612bc2565b885161228b906001600160d81b031686612bc2565b600081831015612de25781611d79565b5090919050565b6000818310612de25781611d79565b80156114e257612e0782612d64565b15612ea65780341015612e61576040805162461bcd60e51b815260206004820152601a60248201527f556e6945524332303a206e6f7420656e6f7567682076616c7565000000000000604482015290519081900360640190fd5b80341115612ea157336108fc612e773484612cc6565b6040518115909202916000818181858888f19350505050158015612e9f573d6000803e3d6000fd5b505b6114e2565b6114e26001600160a01b038316333084613123565b81546001600160d81b0319166001600160d81b039182161716600160d81b4264ffffffffff1602179055565b6040805180820190915282546001600160d81b0381168252600160d81b900464ffffffffff1660208201526114e2908390612d599084612d71565b60006003821115612f665781600160028204015b81811015612f5e57809150600281828681612f4d57fe5b040181612f5657fe5b049050612f36565b509050610ff4565b8115612f7457506001610ff4565b506000610ff4565b6001600160a01b038216612fd7576040805162461bcd60e51b815260206004820152601f60248201527f45524332303a206d696e7420746f20746865207a65726f206164647265737300604482015290519081900360640190fd5b612fe360008383612cc1565b600254612ff090826129cb565b6002556001600160a01b03821660009081526020819052604090205461301690826129cb565b6001600160a01b0383166000818152602081815260408083209490945583518581529351929391927fddf252ad1be2c89b69c2b068fc378daa952ba7f163c4a11628f55a4df523b3ef9281900390910190a35050565b600081836130bb5760405162461bcd60e51b8152602060048201818152835160248401528351909283926044909101919085019080838360008315612988578181015183820152602001612970565b5060008385816130c757fe5b0495945050505050565b604080516001600160a01b038416602482015260448082018490528251808303909101815260649091019091526020810180516001600160e01b031663a9059cbb60e01b179052612cc1908490613179565b604080516001600160a01b0380861660248301528416604482015260648082018490528251808303909101815260849091019091526020810180516001600160e01b03166323b872dd60e01b179052612d5e9085905b60606131ce826040518060400160405280602081526020017f5361666545524332303a206c6f772d6c6576656c2063616c6c206661696c6564815250856001600160a01b031661322a9092919063ffffffff16565b805190915015612cc1578080602001905160208110156131ed57600080fd5b5051612cc15760405162461bcd60e51b815260040180806020018281038252602a8152602001806135ff602a913960400191505060405180910390fd5b6060610c608484600085606061323f856133a1565b613290576040805162461bcd60e51b815260206004820152601d60248201527f416464726573733a2063616c6c20746f206e6f6e2d636f6e7472616374000000604482015290519081900360640190fd5b60006060866001600160a01b031685876040518082805190602001908083835b602083106132cf5780518252601f1990920191602091820191016132b0565b6001836020036101000a03801982511681845116808217855250505050505090500191505060006040518083038185875af1925050503d8060008114613331576040519150601f19603f3d011682016040523d82523d6000602084013e613336565b606091505b5091509150811561334a579150610c609050565b80511561335a5780518082602001fd5b60405162461bcd60e51b8152602060048201818152865160248401528651879391928392604401919085019080838360008315612988578181015183820152602001612970565b6000813f7fc5d2460186f7233c927e7db2dcc703c0e500b653ca82273b7bfad8045d85a470818114801590610c60575050151592915050565b82805482825590600052602060002090810192821561342f579160200282015b8281111561342f57825182546001600160a01b0319166001600160a01b039091161782556020909201916001909101906133fa565b5061343b929150613459565b5090565b604051806040016040528060008152602001600081525090565b5b8082111561343b5780546001600160a01b031916815560010161345a56fe45524332303a207472616e7366657220746f20746865207a65726f20616464726573735265656e7472616e637947756172643a207265656e7472616e742063616c6c0045524332303a206275726e20616d6f756e7420657863656564732062616c616e63654f776e61626c653a206e6577206f776e657220697320746865207a65726f206164647265737345524332303a20617070726f766520746f20746865207a65726f206164647265737345524332303a207472616e7366657220616d6f756e7420657863656564732062616c616e6365536166654d6174683a206d756c7469706c69636174696f6e206f766572666c6f7745524332303a207472616e7366657220616d6f756e74206578636565647320616c6c6f77616e636545524332303a206275726e2066726f6d20746865207a65726f206164647265737345524332303a207472616e736665722066726f6d20746865207a65726f206164647265737345524332303a20617070726f76652066726f6d20746865207a65726f20616464726573735361666545524332303a204552433230206f7065726174696f6e20646964206e6f74207375636365656445524332303a2064656372656173656420616c6c6f77616e63652062656c6f77207a65726fa2646970667358221220c56a9d4f729c91522386bea105d15297ae47fa07b747c70d4233e30b7bd1e7be64736f6c634300060c0033",
					"opcodes": "PUSH1 0x7 PUSH1 0x80 DUP2 DUP2 MSTORE PUSH7 0x4C502D4E414D45 PUSH1 0xC8 SHL PUSH1 0xA0 SWAP1 DUP2 MSTORE PUSH2 0x100 PUSH1 0x40 MSTORE PUSH1 0x9 PUSH1 0xC0 SWAP1 DUP2 MSTORE PUSH9 0x534F4D455448494E47 PUSH1 0xB8 SHL PUSH1 0xE0 MSTORE SWAP2 SWAP3 PUSH3 0x43 SWAP2 PUSH1 0x3 SWAP2 PUSH3 0x22A JUMP JUMPDEST POP DUP1 MLOAD PUSH3 0x59 SWAP1 PUSH1 0x4 SWAP1 PUSH1 0x20 DUP5 ADD SWAP1 PUSH3 0x22A JUMP JUMPDEST POP POP PUSH1 0x5 DUP1 SLOAD PUSH1 0xFF NOT AND PUSH1 0x12 OR SWAP1 SSTORE POP PUSH1 0x1 PUSH1 0x6 SSTORE PUSH1 0x0 PUSH3 0x7A PUSH3 0x18C JUMP JUMPDEST PUSH1 0x7 DUP1 SLOAD PUSH1 0x1 PUSH1 0x1 PUSH1 0xA0 SHL SUB NOT AND PUSH1 0x1 PUSH1 0x1 PUSH1 0xA0 SHL SUB DUP4 AND SWAP1 DUP2 OR SWAP1 SWAP2 SSTORE PUSH1 0x40 MLOAD SWAP2 SWAP3 POP SWAP1 PUSH1 0x0 SWAP1 PUSH32 0x8BE0079C531659141344CD1FD0A4F28419497F9722A3DAAFE3B4186F6B6457E0 SWAP1 DUP3 SWAP1 LOG3 POP PUSH1 0x9 DUP1 SLOAD PUSH1 0x1 PUSH1 0x1 PUSH1 0xA0 SHL SUB NOT AND CALLER OR SWAP1 SSTORE CHAINID PUSH32 0x8B73C3C69BB8FE3D512ECC4CF759CC79239F7B179B0FFACAA9A75D522B39400F PUSH3 0x106 PUSH3 0x190 JUMP JUMPDEST DUP1 MLOAD PUSH1 0x20 SWAP2 DUP3 ADD KECCAK256 PUSH1 0x40 DUP1 MLOAD DUP1 DUP3 ADD DUP3 MSTORE PUSH1 0x1 DUP2 MSTORE PUSH1 0x31 PUSH1 0xF8 SHL SWAP1 DUP5 ADD MSTORE DUP1 MLOAD DUP1 DUP5 ADD SWAP5 SWAP1 SWAP5 MSTORE DUP4 DUP2 ADD SWAP2 SWAP1 SWAP2 MSTORE PUSH32 0xC89EFDAA54C0F20C7ADF612882DF0950F5A951637E0307CDCB4C672F298B8BC6 PUSH1 0x60 DUP5 ADD MSTORE PUSH1 0x80 DUP4 ADD SWAP4 SWAP1 SWAP4 MSTORE ADDRESS PUSH1 0xA0 DUP1 DUP5 ADD SWAP2 SWAP1 SWAP2 MSTORE DUP4 MLOAD DUP1 DUP5 SUB SWAP1 SWAP2 ADD DUP2 MSTORE PUSH1 0xC0 SWAP1 SWAP3 ADD SWAP1 SWAP3 MSTORE DUP1 MLOAD SWAP2 ADD KECCAK256 PUSH1 0x8 SSTORE PUSH3 0x2C6 JUMP JUMPDEST CALLER SWAP1 JUMP JUMPDEST PUSH1 0x3 DUP1 SLOAD PUSH1 0x40 DUP1 MLOAD PUSH1 0x20 PUSH1 0x1F PUSH1 0x2 PUSH1 0x0 NOT PUSH2 0x100 PUSH1 0x1 DUP9 AND ISZERO MUL ADD SWAP1 SWAP6 AND SWAP5 SWAP1 SWAP5 DIV SWAP4 DUP5 ADD DUP2 SWAP1 DIV DUP2 MUL DUP3 ADD DUP2 ADD SWAP1 SWAP3 MSTORE DUP3 DUP2 MSTORE PUSH1 0x60 SWAP4 SWAP1 SWAP3 SWAP1 SWAP2 DUP4 ADD DUP3 DUP3 DUP1 ISZERO PUSH3 0x220 JUMPI DUP1 PUSH1 0x1F LT PUSH3 0x1F4 JUMPI PUSH2 0x100 DUP1 DUP4 SLOAD DIV MUL DUP4 MSTORE SWAP2 PUSH1 0x20 ADD SWAP2 PUSH3 0x220 JUMP JUMPDEST DUP3 ADD SWAP2 SWAP1 PUSH1 0x0 MSTORE PUSH1 0x20 PUSH1 0x0 KECCAK256 SWAP1 JUMPDEST DUP2 SLOAD DUP2 MSTORE SWAP1 PUSH1 0x1 ADD SWAP1 PUSH1 0x20 ADD DUP1 DUP4 GT PUSH3 0x202 JUMPI DUP3 SWAP1 SUB PUSH1 0x1F AND DUP3 ADD SWAP2 JUMPDEST POP POP POP POP POP SWAP1 POP SWAP1 JUMP JUMPDEST DUP3 DUP1 SLOAD PUSH1 0x1 DUP2 PUSH1 0x1 AND ISZERO PUSH2 0x100 MUL SUB AND PUSH1 0x2 SWAP1 DIV SWAP1 PUSH1 0x0 MSTORE PUSH1 0x20 PUSH1 0x0 KECCAK256 SWAP1 PUSH1 0x1F ADD PUSH1 0x20 SWAP1 DIV DUP2 ADD SWAP3 DUP3 PUSH1 0x1F LT PUSH3 0x26D JUMPI DUP1 MLOAD PUSH1 0xFF NOT AND DUP4 DUP1 ADD OR DUP6 SSTORE PUSH3 0x29D JUMP JUMPDEST DUP3 DUP1 ADD PUSH1 0x1 ADD DUP6 SSTORE DUP3 ISZERO PUSH3 0x29D JUMPI SWAP2 DUP3 ADD JUMPDEST DUP3 DUP2 GT ISZERO PUSH3 0x29D JUMPI DUP3 MLOAD DUP3 SSTORE SWAP2 PUSH1 0x20 ADD SWAP2 SWAP1 PUSH1 0x1 ADD SWAP1 PUSH3 0x280 JUMP JUMPDEST POP PUSH3 0x2AB SWAP3 SWAP2 POP PUSH3 0x2AF JUMP JUMPDEST POP SWAP1 JUMP JUMPDEST JUMPDEST DUP1 DUP3 GT ISZERO PUSH3 0x2AB JUMPI PUSH1 0x0 DUP2 SSTORE PUSH1 0x1 ADD PUSH3 0x2B0 JUMP JUMPDEST PUSH2 0x3683 DUP1 PUSH3 0x2D6 PUSH1 0x0 CODECOPY PUSH1 0x0 RETURN INVALID PUSH1 0x80 PUSH1 0x40 MSTORE PUSH1 0x4 CALLDATASIZE LT PUSH2 0x225 JUMPI PUSH1 0x0 CALLDATALOAD PUSH1 0xE0 SHR DUP1 PUSH4 0x8DA5CB5B GT PUSH2 0x123 JUMPI DUP1 PUSH4 0xC45A0155 GT PUSH2 0xAB JUMPI DUP1 PUSH4 0xDD62ED3E GT PUSH2 0x6F JUMPI DUP1 PUSH4 0xDD62ED3E EQ PUSH2 0x9FE JUMPI DUP1 PUSH4 0xDDCA3F43 EQ PUSH2 0xA39 JUMPI DUP1 PUSH4 0xE7FF42C9 EQ PUSH2 0xA4E JUMPI DUP1 PUSH4 0xF223885A EQ PUSH2 0xA81 JUMPI DUP1 PUSH4 0xF2FDE38B EQ PUSH2 0xB3F JUMPI PUSH2 0x225 JUMP JUMPDEST DUP1 PUSH4 0xC45A0155 EQ PUSH2 0x8FF JUMPI DUP1 PUSH4 0xD505ACCF EQ PUSH2 0x914 JUMPI DUP1 PUSH4 0xD5BCB9B5 EQ PUSH2 0x972 JUMPI DUP1 PUSH4 0xD73792A9 EQ PUSH2 0x9B6 JUMPI DUP1 PUSH4 0xD7D3AAB5 EQ PUSH2 0x9CB JUMPI PUSH2 0x225 JUMP JUMPDEST DUP1 PUSH4 0xA9059CBB GT PUSH2 0xF2 JUMPI DUP1 PUSH4 0xA9059CBB EQ PUSH2 0x7D5 JUMPI DUP1 PUSH4 0xAA6CA808 EQ PUSH2 0x80E JUMPI DUP1 PUSH4 0xB1EC4C40 EQ PUSH2 0x873 JUMPI DUP1 PUSH4 0xB21B5A21 EQ PUSH2 0x8D5 JUMPI DUP1 PUSH4 0xBAF13A0A EQ PUSH2 0x8EA JUMPI PUSH2 0x225 JUMP JUMPDEST DUP1 PUSH4 0x8DA5CB5B EQ PUSH2 0x6C4 JUMPI DUP1 PUSH4 0x95D89B41 EQ PUSH2 0x6D9 JUMPI DUP1 PUSH4 0xA224CEE7 EQ PUSH2 0x6EE JUMPI DUP1 PUSH4 0xA457C2D7 EQ PUSH2 0x79C JUMPI PUSH2 0x225 JUMP JUMPDEST DUP1 PUSH4 0x39509351 GT PUSH2 0x1B1 JUMPI DUP1 PUSH4 0x6EDC2C09 GT PUSH2 0x175 JUMPI DUP1 PUSH4 0x6EDC2C09 EQ PUSH2 0x5DD JUMPI DUP1 PUSH4 0x70A08231 EQ PUSH2 0x610 JUMPI DUP1 PUSH4 0x715018A6 EQ PUSH2 0x643 JUMPI DUP1 PUSH4 0x78E3214F EQ PUSH2 0x658 JUMPI DUP1 PUSH4 0x7ECEBE00 EQ PUSH2 0x691 JUMPI PUSH2 0x225 JUMP JUMPDEST DUP1 PUSH4 0x39509351 EQ PUSH2 0x436 JUMPI DUP1 PUSH4 0x48D67E1B EQ PUSH2 0x46F JUMPI DUP1 PUSH4 0x4F64B2BE EQ PUSH2 0x484 JUMPI DUP1 PUSH4 0x5915D806 EQ PUSH2 0x4CA JUMPI DUP1 PUSH4 0x5ED9156D EQ PUSH2 0x581 JUMPI PUSH2 0x225 JUMP JUMPDEST DUP1 PUSH4 0x1E1401F8 GT PUSH2 0x1F8 JUMPI DUP1 PUSH4 0x1E1401F8 EQ PUSH2 0x35B JUMPI DUP1 PUSH4 0x23B872DD EQ PUSH2 0x39E JUMPI DUP1 PUSH4 0x30ADF81F EQ PUSH2 0x3E1 JUMPI DUP1 PUSH4 0x313CE567 EQ PUSH2 0x3F6 JUMPI DUP1 PUSH4 0x3644E515 EQ PUSH2 0x421 JUMPI PUSH2 0x225 JUMP JUMPDEST DUP1 PUSH4 0x6FDDE03 EQ PUSH2 0x22A JUMPI DUP1 PUSH4 0x95EA7B3 EQ PUSH2 0x2B4 JUMPI DUP1 PUSH4 0x18160DDD EQ PUSH2 0x301 JUMPI DUP1 PUSH4 0x19F37361 EQ PUSH2 0x328 JUMPI JUMPDEST PUSH1 0x0 DUP1 REVERT JUMPDEST CALLVALUE DUP1 ISZERO PUSH2 0x236 JUMPI PUSH1 0x0 DUP1 REVERT JUMPDEST POP PUSH2 0x23F PUSH2 0xB72 JUMP JUMPDEST PUSH1 0x40 DUP1 MLOAD PUSH1 0x20 DUP1 DUP3 MSTORE DUP4 MLOAD DUP2 DUP4 ADD MSTORE DUP4 MLOAD SWAP2 SWAP3 DUP4 SWAP3 SWAP1 DUP4 ADD SWAP2 DUP6 ADD SWAP1 DUP1 DUP4 DUP4 PUSH1 0x0 JUMPDEST DUP4 DUP2 LT ISZERO PUSH2 0x279 JUMPI DUP2 DUP2 ADD MLOAD DUP4 DUP3 ADD MSTORE PUSH1 0x20 ADD PUSH2 0x261 JUMP JUMPDEST POP POP POP POP SWAP1 POP SWAP1 DUP2 ADD SWAP1 PUSH1 0x1F AND DUP1 ISZERO PUSH2 0x2A6 JUMPI DUP1 DUP3 SUB DUP1 MLOAD PUSH1 0x1 DUP4 PUSH1 0x20 SUB PUSH2 0x100 EXP SUB NOT AND DUP2 MSTORE PUSH1 0x20 ADD SWAP2 POP JUMPDEST POP SWAP3 POP POP POP PUSH1 0x40 MLOAD DUP1 SWAP2 SUB SWAP1 RETURN JUMPDEST CALLVALUE DUP1 ISZERO PUSH2 0x2C0 JUMPI PUSH1 0x0 DUP1 REVERT JUMPDEST POP PUSH2 0x2ED PUSH1 0x4 DUP1 CALLDATASIZE SUB PUSH1 0x40 DUP2 LT ISZERO PUSH2 0x2D7 JUMPI PUSH1 0x0 DUP1 REVERT JUMPDEST POP PUSH1 0x1 PUSH1 0x1 PUSH1 0xA0 SHL SUB DUP2 CALLDATALOAD AND SWAP1 PUSH1 0x20 ADD CALLDATALOAD PUSH2 0xC08 JUMP JUMPDEST PUSH1 0x40 DUP1 MLOAD SWAP2 ISZERO ISZERO DUP3 MSTORE MLOAD SWAP1 DUP2 SWAP1 SUB PUSH1 0x20 ADD SWAP1 RETURN JUMPDEST CALLVALUE DUP1 ISZERO PUSH2 0x30D JUMPI PUSH1 0x0 DUP1 REVERT JUMPDEST POP PUSH2 0x316 PUSH2 0xC26 JUMP JUMPDEST PUSH1 0x40 DUP1 MLOAD SWAP2 DUP3 MSTORE MLOAD SWAP1 DUP2 SWAP1 SUB PUSH1 0x20 ADD SWAP1 RETURN JUMPDEST CALLVALUE DUP1 ISZERO PUSH2 0x334 JUMPI PUSH1 0x0 DUP1 REVERT JUMPDEST POP PUSH2 0x2ED PUSH1 0x4 DUP1 CALLDATASIZE SUB PUSH1 0x20 DUP2 LT ISZERO PUSH2 0x34B JUMPI PUSH1 0x0 DUP1 REVERT JUMPDEST POP CALLDATALOAD PUSH1 0x1 PUSH1 0x1 PUSH1 0xA0 SHL SUB AND PUSH2 0xC2C JUMP JUMPDEST CALLVALUE DUP1 ISZERO PUSH2 0x367 JUMPI PUSH1 0x0 DUP1 REVERT JUMPDEST POP PUSH2 0x316 PUSH1 0x4 DUP1 CALLDATASIZE SUB PUSH1 0x60 DUP2 LT ISZERO PUSH2 0x37E JUMPI PUSH1 0x0 DUP1 REVERT JUMPDEST POP PUSH1 0x1 PUSH1 0x1 PUSH1 0xA0 SHL SUB DUP2 CALLDATALOAD DUP2 AND SWAP2 PUSH1 0x20 DUP2 ADD CALLDATALOAD SWAP1 SWAP2 AND SWAP1 PUSH1 0x40 ADD CALLDATALOAD PUSH2 0xC41 JUMP JUMPDEST CALLVALUE DUP1 ISZERO PUSH2 0x3AA JUMPI PUSH1 0x0 DUP1 REVERT JUMPDEST POP PUSH2 0x2ED PUSH1 0x4 DUP1 CALLDATASIZE SUB PUSH1 0x60 DUP2 LT ISZERO PUSH2 0x3C1 JUMPI PUSH1 0x0 DUP1 REVERT JUMPDEST POP PUSH1 0x1 PUSH1 0x1 PUSH1 0xA0 SHL SUB DUP2 CALLDATALOAD DUP2 AND SWAP2 PUSH1 0x20 DUP2 ADD CALLDATALOAD SWAP1 SWAP2 AND SWAP1 PUSH1 0x40 ADD CALLDATALOAD PUSH2 0xC68 JUMP JUMPDEST CALLVALUE DUP1 ISZERO PUSH2 0x3ED JUMPI PUSH1 0x0 DUP1 REVERT JUMPDEST POP PUSH2 0x316 PUSH2 0xCEF JUMP JUMPDEST CALLVALUE DUP1 ISZERO PUSH2 0x402 JUMPI PUSH1 0x0 DUP1 REVERT JUMPDEST POP PUSH2 0x40B PUSH2 0xD13 JUMP JUMPDEST PUSH1 0x40 DUP1 MLOAD PUSH1 0xFF SWAP1 SWAP3 AND DUP3 MSTORE MLOAD SWAP1 DUP2 SWAP1 SUB PUSH1 0x20 ADD SWAP1 RETURN JUMPDEST CALLVALUE DUP1 ISZERO PUSH2 0x42D JUMPI PUSH1 0x0 DUP1 REVERT JUMPDEST POP PUSH2 0x316 PUSH2 0xD1C JUMP JUMPDEST CALLVALUE DUP1 ISZERO PUSH2 0x442 JUMPI PUSH1 0x0 DUP1 REVERT JUMPDEST POP PUSH2 0x2ED PUSH1 0x4 DUP1 CALLDATASIZE SUB PUSH1 0x40 DUP2 LT ISZERO PUSH2 0x459 JUMPI PUSH1 0x0 DUP1 REVERT JUMPDEST POP PUSH1 0x1 PUSH1 0x1 PUSH1 0xA0 SHL SUB DUP2 CALLDATALOAD AND SWAP1 PUSH1 0x20 ADD CALLDATALOAD PUSH2 0xD22 JUMP JUMPDEST CALLVALUE DUP1 ISZERO PUSH2 0x47B JUMPI PUSH1 0x0 DUP1 REVERT JUMPDEST POP PUSH2 0x316 PUSH2 0xD70 JUMP JUMPDEST CALLVALUE DUP1 ISZERO PUSH2 0x490 JUMPI PUSH1 0x0 DUP1 REVERT JUMPDEST POP PUSH2 0x4AE PUSH1 0x4 DUP1 CALLDATASIZE SUB PUSH1 0x20 DUP2 LT ISZERO PUSH2 0x4A7 JUMPI PUSH1 0x0 DUP1 REVERT JUMPDEST POP CALLDATALOAD PUSH2 0xD76 JUMP JUMPDEST PUSH1 0x40 DUP1 MLOAD PUSH1 0x1 PUSH1 0x1 PUSH1 0xA0 SHL SUB SWAP1 SWAP3 AND DUP3 MSTORE MLOAD SWAP1 DUP2 SWAP1 SUB PUSH1 0x20 ADD SWAP1 RETURN JUMPDEST CALLVALUE DUP1 ISZERO PUSH2 0x4D6 JUMPI PUSH1 0x0 DUP1 REVERT JUMPDEST POP PUSH2 0x57F PUSH1 0x4 DUP1 CALLDATASIZE SUB PUSH1 0x40 DUP2 LT ISZERO PUSH2 0x4ED JUMPI PUSH1 0x0 DUP1 REVERT JUMPDEST DUP2 CALLDATALOAD SWAP2 SWAP1 DUP2 ADD SWAP1 PUSH1 0x40 DUP2 ADD PUSH1 0x20 DUP3 ADD CALLDATALOAD PUSH1 0x1 PUSH1 0x20 SHL DUP2 GT ISZERO PUSH2 0x50E JUMPI PUSH1 0x0 DUP1 REVERT JUMPDEST DUP3 ADD DUP4 PUSH1 0x20 DUP3 ADD GT ISZERO PUSH2 0x520 JUMPI PUSH1 0x0 DUP1 REVERT JUMPDEST DUP1 CALLDATALOAD SWAP1 PUSH1 0x20 ADD SWAP2 DUP5 PUSH1 0x20 DUP4 MUL DUP5 ADD GT PUSH1 0x1 PUSH1 0x20 SHL DUP4 GT OR ISZERO PUSH2 0x541 JUMPI PUSH1 0x0 DUP1 REVERT JUMPDEST SWAP2 SWAP1 DUP1 DUP1 PUSH1 0x20 MUL PUSH1 0x20 ADD PUSH1 0x40 MLOAD SWAP1 DUP2 ADD PUSH1 0x40 MSTORE DUP1 SWAP4 SWAP3 SWAP2 SWAP1 DUP2 DUP2 MSTORE PUSH1 0x20 ADD DUP4 DUP4 PUSH1 0x20 MUL DUP1 DUP3 DUP5 CALLDATACOPY PUSH1 0x0 SWAP3 ADD SWAP2 SWAP1 SWAP2 MSTORE POP SWAP3 SWAP6 POP PUSH2 0xD9D SWAP5 POP POP POP POP POP JUMP JUMPDEST STOP JUMPDEST CALLVALUE DUP1 ISZERO PUSH2 0x58D JUMPI PUSH1 0x0 DUP1 REVERT JUMPDEST POP PUSH2 0x5B4 PUSH1 0x4 DUP1 CALLDATASIZE SUB PUSH1 0x20 DUP2 LT ISZERO PUSH2 0x5A4 JUMPI PUSH1 0x0 DUP1 REVERT JUMPDEST POP CALLDATALOAD PUSH1 0x1 PUSH1 0x1 PUSH1 0xA0 SHL SUB AND PUSH2 0xF84 JUMP JUMPDEST PUSH1 0x40 DUP1 MLOAD PUSH1 0x1 PUSH1 0x1 PUSH1 0xD8 SHL SUB SWAP1 SWAP4 AND DUP4 MSTORE PUSH5 0xFFFFFFFFFF SWAP1 SWAP2 AND PUSH1 0x20 DUP4 ADD MSTORE DUP1 MLOAD SWAP2 DUP3 SWAP1 SUB ADD SWAP1 RETURN JUMPDEST CALLVALUE DUP1 ISZERO PUSH2 0x5E9 JUMPI PUSH1 0x0 DUP1 REVERT JUMPDEST POP PUSH2 0x5B4 PUSH1 0x4 DUP1 CALLDATASIZE SUB PUSH1 0x20 DUP2 LT ISZERO PUSH2 0x600 JUMPI PUSH1 0x0 DUP1 REVERT JUMPDEST POP CALLDATALOAD PUSH1 0x1 PUSH1 0x1 PUSH1 0xA0 SHL SUB AND PUSH2 0xFAF JUMP JUMPDEST CALLVALUE DUP1 ISZERO PUSH2 0x61C JUMPI PUSH1 0x0 DUP1 REVERT JUMPDEST POP PUSH2 0x316 PUSH1 0x4 DUP1 CALLDATASIZE SUB PUSH1 0x20 DUP2 LT ISZERO PUSH2 0x633 JUMPI PUSH1 0x0 DUP1 REVERT JUMPDEST POP CALLDATALOAD PUSH1 0x1 PUSH1 0x1 PUSH1 0xA0 SHL SUB AND PUSH2 0xFDA JUMP JUMPDEST CALLVALUE DUP1 ISZERO PUSH2 0x64F JUMPI PUSH1 0x0 DUP1 REVERT JUMPDEST POP PUSH2 0x57F PUSH2 0xFF9 JUMP JUMPDEST CALLVALUE DUP1 ISZERO PUSH2 0x664 JUMPI PUSH1 0x0 DUP1 REVERT JUMPDEST POP PUSH2 0x57F PUSH1 0x4 DUP1 CALLDATASIZE SUB PUSH1 0x40 DUP2 LT ISZERO PUSH2 0x67B JUMPI PUSH1 0x0 DUP1 REVERT JUMPDEST POP PUSH1 0x1 PUSH1 0x1 PUSH1 0xA0 SHL SUB DUP2 CALLDATALOAD AND SWAP1 PUSH1 0x20 ADD CALLDATALOAD PUSH2 0x10AD JUMP JUMPDEST CALLVALUE DUP1 ISZERO PUSH2 0x69D JUMPI PUSH1 0x0 DUP1 REVERT JUMPDEST POP PUSH2 0x316 PUSH1 0x4 DUP1 CALLDATASIZE SUB PUSH1 0x20 DUP2 LT ISZERO PUSH2 0x6B4 JUMPI PUSH1 0x0 DUP1 REVERT JUMPDEST POP CALLDATALOAD PUSH1 0x1 PUSH1 0x1 PUSH1 0xA0 SHL SUB AND PUSH2 0x1303 JUMP JUMPDEST CALLVALUE DUP1 ISZERO PUSH2 0x6D0 JUMPI PUSH1 0x0 DUP1 REVERT JUMPDEST POP PUSH2 0x4AE PUSH2 0x1315 JUMP JUMPDEST CALLVALUE DUP1 ISZERO PUSH2 0x6E5 JUMPI PUSH1 0x0 DUP1 REVERT JUMPDEST POP PUSH2 0x23F PUSH2 0x1324 JUMP JUMPDEST CALLVALUE DUP1 ISZERO PUSH2 0x6FA JUMPI PUSH1 0x0 DUP1 REVERT JUMPDEST POP PUSH2 0x57F PUSH1 0x4 DUP1 CALLDATASIZE SUB PUSH1 0x20 DUP2 LT ISZERO PUSH2 0x711 JUMPI PUSH1 0x0 DUP1 REVERT JUMPDEST DUP2 ADD SWAP1 PUSH1 0x20 DUP2 ADD DUP2 CALLDATALOAD PUSH1 0x1 PUSH1 0x20 SHL DUP2 GT ISZERO PUSH2 0x72B JUMPI PUSH1 0x0 DUP1 REVERT JUMPDEST DUP3 ADD DUP4 PUSH1 0x20 DUP3 ADD GT ISZERO PUSH2 0x73D JUMPI PUSH1 0x0 DUP1 REVERT JUMPDEST DUP1 CALLDATALOAD SWAP1 PUSH1 0x20 ADD SWAP2 DUP5 PUSH1 0x20 DUP4 MUL DUP5 ADD GT PUSH1 0x1 PUSH1 0x20 SHL DUP4 GT OR ISZERO PUSH2 0x75E JUMPI PUSH1 0x0 DUP1 REVERT JUMPDEST SWAP2 SWAP1 DUP1 DUP1 PUSH1 0x20 MUL PUSH1 0x20 ADD PUSH1 0x40 MLOAD SWAP1 DUP2 ADD PUSH1 0x40 MSTORE DUP1 SWAP4 SWAP3 SWAP2 SWAP1 DUP2 DUP2 MSTORE PUSH1 0x20 ADD DUP4 DUP4 PUSH1 0x20 MUL DUP1 DUP3 DUP5 CALLDATACOPY PUSH1 0x0 SWAP3 ADD SWAP2 SWAP1 SWAP2 MSTORE POP SWAP3 SWAP6 POP PUSH2 0x1385 SWAP5 POP POP POP POP POP JUMP JUMPDEST CALLVALUE DUP1 ISZERO PUSH2 0x7A8 JUMPI PUSH1 0x0 DUP1 REVERT JUMPDEST POP PUSH2 0x2ED PUSH1 0x4 DUP1 CALLDATASIZE SUB PUSH1 0x40 DUP2 LT ISZERO PUSH2 0x7BF JUMPI PUSH1 0x0 DUP1 REVERT JUMPDEST POP PUSH1 0x1 PUSH1 0x1 PUSH1 0xA0 SHL SUB DUP2 CALLDATALOAD AND SWAP1 PUSH1 0x20 ADD CALLDATALOAD PUSH2 0x14E6 JUMP JUMPDEST CALLVALUE DUP1 ISZERO PUSH2 0x7E1 JUMPI PUSH1 0x0 DUP1 REVERT JUMPDEST POP PUSH2 0x2ED PUSH1 0x4 DUP1 CALLDATASIZE SUB PUSH1 0x40 DUP2 LT ISZERO PUSH2 0x7F8 JUMPI PUSH1 0x0 DUP1 REVERT JUMPDEST POP PUSH1 0x1 PUSH1 0x1 PUSH1 0xA0 SHL SUB DUP2 CALLDATALOAD AND SWAP1 PUSH1 0x20 ADD CALLDATALOAD PUSH2 0x154E JUMP JUMPDEST CALLVALUE DUP1 ISZERO PUSH2 0x81A JUMPI PUSH1 0x0 DUP1 REVERT JUMPDEST POP PUSH2 0x823 PUSH2 0x1562 JUMP JUMPDEST PUSH1 0x40 DUP1 MLOAD PUSH1 0x20 DUP1 DUP3 MSTORE DUP4 MLOAD DUP2 DUP4 ADD MSTORE DUP4 MLOAD SWAP2 SWAP3 DUP4 SWAP3 SWAP1 DUP4 ADD SWAP2 DUP6 DUP2 ADD SWAP2 MUL DUP1 DUP4 DUP4 PUSH1 0x0 JUMPDEST DUP4 DUP2 LT ISZERO PUSH2 0x85F JUMPI DUP2 DUP2 ADD MLOAD DUP4 DUP3 ADD MSTORE PUSH1 0x20 ADD PUSH2 0x847 JUMP JUMPDEST POP POP POP POP SWAP1 POP ADD SWAP3 POP POP POP PUSH1 0x40 MLOAD DUP1 SWAP2 SUB SWAP1 RETURN JUMPDEST CALLVALUE DUP1 ISZERO PUSH2 0x87F JUMPI PUSH1 0x0 DUP1 REVERT JUMPDEST POP PUSH2 0x8A6 PUSH1 0x4 DUP1 CALLDATASIZE SUB PUSH1 0x20 DUP2 LT ISZERO PUSH2 0x896 JUMPI PUSH1 0x0 DUP1 REVERT JUMPDEST POP CALLDATALOAD PUSH1 0x1 PUSH1 0x1 PUSH1 0xA0 SHL SUB AND PUSH2 0x15C3 JUMP JUMPDEST PUSH1 0x40 MLOAD DUP1 DUP4 PUSH1 0x1 PUSH1 0x1 PUSH1 0x80 SHL SUB AND DUP2 MSTORE PUSH1 0x20 ADD DUP3 PUSH1 0x1 PUSH1 0x1 PUSH1 0x80 SHL SUB AND DUP2 MSTORE PUSH1 0x20 ADD SWAP3 POP POP POP PUSH1 0x40 MLOAD DUP1 SWAP2 SUB SWAP1 RETURN JUMPDEST CALLVALUE DUP1 ISZERO PUSH2 0x8E1 JUMPI PUSH1 0x0 DUP1 REVERT JUMPDEST POP PUSH2 0x316 PUSH2 0x15E9 JUMP JUMPDEST CALLVALUE DUP1 ISZERO PUSH2 0x8F6 JUMPI PUSH1 0x0 DUP1 REVERT JUMPDEST POP PUSH2 0x316 PUSH2 0x15EE JUMP JUMPDEST CALLVALUE DUP1 ISZERO PUSH2 0x90B JUMPI PUSH1 0x0 DUP1 REVERT JUMPDEST POP PUSH2 0x4AE PUSH2 0x15F4 JUMP JUMPDEST CALLVALUE DUP1 ISZERO PUSH2 0x920 JUMPI PUSH1 0x0 DUP1 REVERT JUMPDEST POP PUSH2 0x57F PUSH1 0x4 DUP1 CALLDATASIZE SUB PUSH1 0xE0 DUP2 LT ISZERO PUSH2 0x937 JUMPI PUSH1 0x0 DUP1 REVERT JUMPDEST POP PUSH1 0x1 PUSH1 0x1 PUSH1 0xA0 SHL SUB DUP2 CALLDATALOAD DUP2 AND SWAP2 PUSH1 0x20 DUP2 ADD CALLDATALOAD SWAP1 SWAP2 AND SWAP1 PUSH1 0x40 DUP2 ADD CALLDATALOAD SWAP1 PUSH1 0x60 DUP2 ADD CALLDATALOAD SWAP1 PUSH1 0xFF PUSH1 0x80 DUP3 ADD CALLDATALOAD AND SWAP1 PUSH1 0xA0 DUP2 ADD CALLDATALOAD SWAP1 PUSH1 0xC0 ADD CALLDATALOAD PUSH2 0x1603 JUMP JUMPDEST PUSH2 0x316 PUSH1 0x4 DUP1 CALLDATASIZE SUB PUSH1 0xA0 DUP2 LT ISZERO PUSH2 0x988 JUMPI PUSH1 0x0 DUP1 REVERT JUMPDEST POP PUSH1 0x1 PUSH1 0x1 PUSH1 0xA0 SHL SUB DUP2 CALLDATALOAD DUP2 AND SWAP2 PUSH1 0x20 DUP2 ADD CALLDATALOAD DUP3 AND SWAP2 PUSH1 0x40 DUP3 ADD CALLDATALOAD SWAP2 PUSH1 0x60 DUP2 ADD CALLDATALOAD SWAP2 PUSH1 0x80 SWAP1 SWAP2 ADD CALLDATALOAD AND PUSH2 0x17F4 JUMP JUMPDEST CALLVALUE DUP1 ISZERO PUSH2 0x9C2 JUMPI PUSH1 0x0 DUP1 REVERT JUMPDEST POP PUSH2 0x316 PUSH2 0x1CFD JUMP JUMPDEST CALLVALUE DUP1 ISZERO PUSH2 0x9D7 JUMPI PUSH1 0x0 DUP1 REVERT JUMPDEST POP PUSH2 0x316 PUSH1 0x4 DUP1 CALLDATASIZE SUB PUSH1 0x20 DUP2 LT ISZERO PUSH2 0x9EE JUMPI PUSH1 0x0 DUP1 REVERT JUMPDEST POP CALLDATALOAD PUSH1 0x1 PUSH1 0x1 PUSH1 0xA0 SHL SUB AND PUSH2 0x1D09 JUMP JUMPDEST CALLVALUE DUP1 ISZERO PUSH2 0xA0A JUMPI PUSH1 0x0 DUP1 REVERT JUMPDEST POP PUSH2 0x316 PUSH1 0x4 DUP1 CALLDATASIZE SUB PUSH1 0x40 DUP2 LT ISZERO PUSH2 0xA21 JUMPI PUSH1 0x0 DUP1 REVERT JUMPDEST POP PUSH1 0x1 PUSH1 0x1 PUSH1 0xA0 SHL SUB DUP2 CALLDATALOAD DUP2 AND SWAP2 PUSH1 0x20 ADD CALLDATALOAD AND PUSH2 0x1D80 JUMP JUMPDEST CALLVALUE DUP1 ISZERO PUSH2 0xA45 JUMPI PUSH1 0x0 DUP1 REVERT JUMPDEST POP PUSH2 0x316 PUSH2 0x1DAB JUMP JUMPDEST CALLVALUE DUP1 ISZERO PUSH2 0xA5A JUMPI PUSH1 0x0 DUP1 REVERT JUMPDEST POP PUSH2 0x316 PUSH1 0x4 DUP1 CALLDATASIZE SUB PUSH1 0x20 DUP2 LT ISZERO PUSH2 0xA71 JUMPI PUSH1 0x0 DUP1 REVERT JUMPDEST POP CALLDATALOAD PUSH1 0x1 PUSH1 0x1 PUSH1 0xA0 SHL SUB AND PUSH2 0x1E21 JUMP JUMPDEST PUSH2 0x316 PUSH1 0x4 DUP1 CALLDATASIZE SUB PUSH1 0x40 DUP2 LT ISZERO PUSH2 0xA97 JUMPI PUSH1 0x0 DUP1 REVERT JUMPDEST DUP2 ADD SWAP1 PUSH1 0x20 DUP2 ADD DUP2 CALLDATALOAD PUSH1 0x1 PUSH1 0x20 SHL DUP2 GT ISZERO PUSH2 0xAB1 JUMPI PUSH1 0x0 DUP1 REVERT JUMPDEST DUP3 ADD DUP4 PUSH1 0x20 DUP3 ADD GT ISZERO PUSH2 0xAC3 JUMPI PUSH1 0x0 DUP1 REVERT JUMPDEST DUP1 CALLDATALOAD SWAP1 PUSH1 0x20 ADD SWAP2 DUP5 PUSH1 0x20 DUP4 MUL DUP5 ADD GT PUSH1 0x1 PUSH1 0x20 SHL DUP4 GT OR ISZERO PUSH2 0xAE4 JUMPI PUSH1 0x0 DUP1 REVERT JUMPDEST SWAP2 SWAP4 SWAP1 SWAP3 SWAP1 SWAP2 PUSH1 0x20 DUP2 ADD SWAP1 CALLDATALOAD PUSH1 0x1 PUSH1 0x20 SHL DUP2 GT ISZERO PUSH2 0xB01 JUMPI PUSH1 0x0 DUP1 REVERT JUMPDEST DUP3 ADD DUP4 PUSH1 0x20 DUP3 ADD GT ISZERO PUSH2 0xB13 JUMPI PUSH1 0x0 DUP1 REVERT JUMPDEST DUP1 CALLDATALOAD SWAP1 PUSH1 0x20 ADD SWAP2 DUP5 PUSH1 0x20 DUP4 MUL DUP5 ADD GT PUSH1 0x1 PUSH1 0x20 SHL DUP4 GT OR ISZERO PUSH2 0xB34 JUMPI PUSH1 0x0 DUP1 REVERT JUMPDEST POP SWAP1 SWAP3 POP SWAP1 POP PUSH2 0x1E91 JUMP JUMPDEST CALLVALUE DUP1 ISZERO PUSH2 0xB4B JUMPI PUSH1 0x0 DUP1 REVERT JUMPDEST POP PUSH2 0x57F PUSH1 0x4 DUP1 CALLDATASIZE SUB PUSH1 0x20 DUP2 LT ISZERO PUSH2 0xB62 JUMPI PUSH1 0x0 DUP1 REVERT JUMPDEST POP CALLDATALOAD PUSH1 0x1 PUSH1 0x1 PUSH1 0xA0 SHL SUB AND PUSH2 0x251F JUMP JUMPDEST PUSH1 0x3 DUP1 SLOAD PUSH1 0x40 DUP1 MLOAD PUSH1 0x20 PUSH1 0x1F PUSH1 0x2 PUSH1 0x0 NOT PUSH2 0x100 PUSH1 0x1 DUP9 AND ISZERO MUL ADD SWAP1 SWAP6 AND SWAP5 SWAP1 SWAP5 DIV SWAP4 DUP5 ADD DUP2 SWAP1 DIV DUP2 MUL DUP3 ADD DUP2 ADD SWAP1 SWAP3 MSTORE DUP3 DUP2 MSTORE PUSH1 0x60 SWAP4 SWAP1 SWAP3 SWAP1 SWAP2 DUP4 ADD DUP3 DUP3 DUP1 ISZERO PUSH2 0xBFE JUMPI DUP1 PUSH1 0x1F LT PUSH2 0xBD3 JUMPI PUSH2 0x100 DUP1 DUP4 SLOAD DIV MUL DUP4 MSTORE SWAP2 PUSH1 0x20 ADD SWAP2 PUSH2 0xBFE JUMP JUMPDEST DUP3 ADD SWAP2 SWAP1 PUSH1 0x0 MSTORE PUSH1 0x20 PUSH1 0x0 KECCAK256 SWAP1 JUMPDEST DUP2 SLOAD DUP2 MSTORE SWAP1 PUSH1 0x1 ADD SWAP1 PUSH1 0x20 ADD DUP1 DUP4 GT PUSH2 0xBE1 JUMPI DUP3 SWAP1 SUB PUSH1 0x1F AND DUP3 ADD SWAP2 JUMPDEST POP POP POP POP POP SWAP1 POP SWAP1 JUMP JUMPDEST PUSH1 0x0 PUSH2 0xC1C PUSH2 0xC15 PUSH2 0x262A JUMP JUMPDEST DUP5 DUP5 PUSH2 0x262E JUMP JUMPDEST POP PUSH1 0x1 JUMPDEST SWAP3 SWAP2 POP POP JUMP JUMPDEST PUSH1 0x2 SLOAD SWAP1 JUMP JUMPDEST PUSH1 0xC PUSH1 0x20 MSTORE PUSH1 0x0 SWAP1 DUP2 MSTORE PUSH1 0x40 SWAP1 KECCAK256 SLOAD PUSH1 0xFF AND DUP2 JUMP JUMPDEST PUSH1 0x0 PUSH2 0xC60 DUP5 DUP5 DUP5 PUSH2 0xC52 DUP9 PUSH2 0x1D09 JUMP JUMPDEST PUSH2 0xC5B DUP9 PUSH2 0x1E21 JUMP JUMPDEST PUSH2 0x271A JUMP JUMPDEST SWAP5 SWAP4 POP POP POP POP JUMP JUMPDEST PUSH1 0x0 PUSH2 0xC75 DUP5 DUP5 DUP5 PUSH2 0x27D9 JUMP JUMPDEST PUSH2 0xCE5 DUP5 PUSH2 0xC81 PUSH2 0x262A JUMP JUMPDEST PUSH2 0xCE0 DUP6 PUSH1 0x40 MLOAD DUP1 PUSH1 0x60 ADD PUSH1 0x40 MSTORE DUP1 PUSH1 0x28 DUP2 MSTORE PUSH1 0x20 ADD PUSH2 0x356D PUSH1 0x28 SWAP2 CODECOPY PUSH1 0x1 PUSH1 0x1 PUSH1 0xA0 SHL SUB DUP11 AND PUSH1 0x0 SWAP1 DUP2 MSTORE PUSH1 0x1 PUSH1 0x20 MSTORE PUSH1 0x40 DUP2 KECCAK256 SWAP1 PUSH2 0xCBF PUSH2 0x262A JUMP JUMPDEST PUSH1 0x1 PUSH1 0x1 PUSH1 0xA0 SHL SUB AND DUP2 MSTORE PUSH1 0x20 DUP2 ADD SWAP2 SWAP1 SWAP2 MSTORE PUSH1 0x40 ADD PUSH1 0x0 KECCAK256 SLOAD SWAP2 SWAP1 PUSH2 0x2934 JUMP JUMPDEST PUSH2 0x262E JUMP JUMPDEST POP PUSH1 0x1 SWAP4 SWAP3 POP POP POP JUMP JUMPDEST PUSH32 0x6E71EDAE12B1B97F4D1F60370FEF10105FA2FAAE0126114A169C64845D6126C9 DUP2 JUMP JUMPDEST PUSH1 0x5 SLOAD PUSH1 0xFF AND SWAP1 JUMP JUMPDEST PUSH1 0x8 SLOAD DUP2 JUMP JUMPDEST PUSH1 0x0 PUSH2 0xC1C PUSH2 0xD2F PUSH2 0x262A JUMP JUMPDEST DUP5 PUSH2 0xCE0 DUP6 PUSH1 0x1 PUSH1 0x0 PUSH2 0xD40 PUSH2 0x262A JUMP JUMPDEST PUSH1 0x1 PUSH1 0x1 PUSH1 0xA0 SHL SUB SWAP1 DUP2 AND DUP3 MSTORE PUSH1 0x20 DUP1 DUP4 ADD SWAP4 SWAP1 SWAP4 MSTORE PUSH1 0x40 SWAP2 DUP3 ADD PUSH1 0x0 SWAP1 DUP2 KECCAK256 SWAP2 DUP13 AND DUP2 MSTORE SWAP3 MSTORE SWAP1 KECCAK256 SLOAD SWAP1 PUSH2 0x29CB JUMP JUMPDEST PUSH2 0x12C SWAP1 JUMP JUMPDEST PUSH1 0xA DUP2 DUP2 SLOAD DUP2 LT PUSH2 0xD83 JUMPI INVALID JUMPDEST PUSH1 0x0 SWAP2 DUP3 MSTORE PUSH1 0x20 SWAP1 SWAP2 KECCAK256 ADD SLOAD PUSH1 0x1 PUSH1 0x1 PUSH1 0xA0 SHL SUB AND SWAP1 POP DUP2 JUMP JUMPDEST PUSH1 0x2 PUSH1 0x6 SLOAD EQ ISZERO PUSH2 0xDE3 JUMPI PUSH1 0x40 DUP1 MLOAD PUSH3 0x461BCD PUSH1 0xE5 SHL DUP2 MSTORE PUSH1 0x20 PUSH1 0x4 DUP3 ADD MSTORE PUSH1 0x1F PUSH1 0x24 DUP3 ADD MSTORE PUSH1 0x0 DUP1 MLOAD PUSH1 0x20 PUSH2 0x349C DUP4 CODECOPY DUP2 MLOAD SWAP2 MSTORE PUSH1 0x44 DUP3 ADD MSTORE SWAP1 MLOAD SWAP1 DUP2 SWAP1 SUB PUSH1 0x64 ADD SWAP1 REVERT JUMPDEST PUSH1 0x2 PUSH1 0x6 SSTORE PUSH1 0x0 PUSH2 0xDF2 PUSH2 0xC26 JUMP JUMPDEST SWAP1 POP PUSH2 0xDFE CALLER DUP5 PUSH2 0x2A25 JUMP JUMPDEST PUSH1 0x0 JUMPDEST PUSH1 0xA SLOAD DUP2 LT ISZERO PUSH2 0xF43 JUMPI PUSH1 0x0 PUSH1 0xA DUP3 DUP2 SLOAD DUP2 LT PUSH2 0xE1A JUMPI INVALID JUMPDEST PUSH1 0x0 SWAP2 DUP3 MSTORE PUSH1 0x20 DUP3 KECCAK256 ADD SLOAD PUSH1 0x1 PUSH1 0x1 PUSH1 0xA0 SHL SUB AND SWAP2 POP PUSH2 0xE3A DUP3 ADDRESS PUSH2 0x2B21 JUMP JUMPDEST SWAP1 POP PUSH1 0x0 PUSH2 0xE52 DUP6 PUSH2 0xE4C DUP5 DUP11 PUSH2 0x2BC2 JUMP JUMPDEST SWAP1 PUSH2 0x2C1B JUMP JUMPDEST SWAP1 POP PUSH2 0xE68 PUSH1 0x1 PUSH1 0x1 PUSH1 0xA0 SHL SUB DUP5 AND CALLER DUP4 PUSH2 0x2C5D JUMP JUMPDEST DUP6 MLOAD DUP5 LT ISZERO DUP1 PUSH2 0xE8B JUMPI POP DUP6 DUP5 DUP2 MLOAD DUP2 LT PUSH2 0xE7F JUMPI INVALID JUMPDEST PUSH1 0x20 MUL PUSH1 0x20 ADD ADD MLOAD DUP2 LT ISZERO JUMPDEST PUSH2 0xEDC JUMPI PUSH1 0x40 DUP1 MLOAD PUSH3 0x461BCD PUSH1 0xE5 SHL DUP2 MSTORE PUSH1 0x20 PUSH1 0x4 DUP3 ADD MSTORE PUSH1 0x1F PUSH1 0x24 DUP3 ADD MSTORE PUSH32 0x4D6F6F6E69737761703A20726573756C74206973206E6F7420656E6F75676800 PUSH1 0x44 DUP3 ADD MSTORE SWAP1 MLOAD SWAP1 DUP2 SWAP1 SUB PUSH1 0x64 ADD SWAP1 REVERT JUMPDEST PUSH2 0xF0A DUP3 PUSH2 0xEEA DUP8 DUP11 PUSH2 0x2CC6 JUMP JUMPDEST PUSH1 0x1 PUSH1 0x1 PUSH1 0xA0 SHL SUB DUP7 AND PUSH1 0x0 SWAP1 DUP2 MSTORE PUSH1 0xE PUSH1 0x20 MSTORE PUSH1 0x40 SWAP1 KECCAK256 SWAP2 SWAP1 DUP9 PUSH2 0x2D08 JUMP JUMPDEST PUSH2 0xF38 DUP3 PUSH2 0xF18 DUP8 DUP11 PUSH2 0x2CC6 JUMP JUMPDEST PUSH1 0x1 PUSH1 0x1 PUSH1 0xA0 SHL SUB DUP7 AND PUSH1 0x0 SWAP1 DUP2 MSTORE PUSH1 0xF PUSH1 0x20 MSTORE PUSH1 0x40 SWAP1 KECCAK256 SWAP2 SWAP1 DUP9 PUSH2 0x2D08 JUMP JUMPDEST POP POP POP PUSH1 0x1 ADD PUSH2 0xE01 JUMP JUMPDEST POP PUSH1 0x40 DUP1 MLOAD DUP5 DUP2 MSTORE SWAP1 MLOAD CALLER SWAP2 PUSH32 0x7084F5476618D8E60B11EF0D7D3F06914655ADB8793E28FF7F018D4C76D505D5 SWAP2 SWAP1 DUP2 SWAP1 SUB PUSH1 0x20 ADD SWAP1 LOG2 POP POP PUSH1 0x1 PUSH1 0x6 SSTORE POP JUMP JUMPDEST PUSH1 0xF PUSH1 0x20 MSTORE PUSH1 0x0 SWAP1 DUP2 MSTORE PUSH1 0x40 SWAP1 KECCAK256 SLOAD PUSH1 0x1 PUSH1 0x1 PUSH1 0xD8 SHL SUB DUP2 AND SWAP1 PUSH1 0x1 PUSH1 0xD8 SHL SWAP1 DIV PUSH5 0xFFFFFFFFFF AND DUP3 JUMP JUMPDEST PUSH1 0xE PUSH1 0x20 MSTORE PUSH1 0x0 SWAP1 DUP2 MSTORE PUSH1 0x40 SWAP1 KECCAK256 SLOAD PUSH1 0x1 PUSH1 0x1 PUSH1 0xD8 SHL SUB DUP2 AND SWAP1 PUSH1 0x1 PUSH1 0xD8 SHL SWAP1 DIV PUSH5 0xFFFFFFFFFF AND DUP3 JUMP JUMPDEST PUSH1 0x1 PUSH1 0x1 PUSH1 0xA0 SHL SUB DUP2 AND PUSH1 0x0 SWAP1 DUP2 MSTORE PUSH1 0x20 DUP2 SWAP1 MSTORE PUSH1 0x40 SWAP1 KECCAK256 SLOAD JUMPDEST SWAP2 SWAP1 POP JUMP JUMPDEST PUSH2 0x1001 PUSH2 0x262A JUMP JUMPDEST PUSH1 0x7 SLOAD PUSH1 0x1 PUSH1 0x1 PUSH1 0xA0 SHL SUB SWAP1 DUP2 AND SWAP2 AND EQ PUSH2 0x1063 JUMPI PUSH1 0x40 DUP1 MLOAD PUSH3 0x461BCD PUSH1 0xE5 SHL DUP2 MSTORE PUSH1 0x20 PUSH1 0x4 DUP3 ADD DUP2 SWAP1 MSTORE PUSH1 0x24 DUP3 ADD MSTORE PUSH32 0x4F776E61626C653A2063616C6C6572206973206E6F7420746865206F776E6572 PUSH1 0x44 DUP3 ADD MSTORE SWAP1 MLOAD SWAP1 DUP2 SWAP1 SUB PUSH1 0x64 ADD SWAP1 REVERT JUMPDEST PUSH1 0x7 SLOAD PUSH1 0x40 MLOAD PUSH1 0x0 SWAP2 PUSH1 0x1 PUSH1 0x1 PUSH1 0xA0 SHL SUB AND SWAP1 PUSH32 0x8BE0079C531659141344CD1FD0A4F28419497F9722A3DAAFE3B4186F6B6457E0 SWAP1 DUP4 SWAP1 LOG3 PUSH1 0x7 DUP1 SLOAD PUSH1 0x1 PUSH1 0x1 PUSH1 0xA0 SHL SUB NOT AND SWAP1 SSTORE JUMP JUMPDEST PUSH1 0x2 PUSH1 0x6 SLOAD EQ ISZERO PUSH2 0x10F3 JUMPI PUSH1 0x40 DUP1 MLOAD PUSH3 0x461BCD PUSH1 0xE5 SHL DUP2 MSTORE PUSH1 0x20 PUSH1 0x4 DUP3 ADD MSTORE PUSH1 0x1F PUSH1 0x24 DUP3 ADD MSTORE PUSH1 0x0 DUP1 MLOAD PUSH1 0x20 PUSH2 0x349C DUP4 CODECOPY DUP2 MLOAD SWAP2 MSTORE PUSH1 0x44 DUP3 ADD MSTORE SWAP1 MLOAD SWAP1 DUP2 SWAP1 SUB PUSH1 0x64 ADD SWAP1 REVERT JUMPDEST PUSH1 0x2 PUSH1 0x6 SSTORE PUSH2 0x1100 PUSH2 0x262A JUMP JUMPDEST PUSH1 0x7 SLOAD PUSH1 0x1 PUSH1 0x1 PUSH1 0xA0 SHL SUB SWAP1 DUP2 AND SWAP2 AND EQ PUSH2 0x1162 JUMPI PUSH1 0x40 DUP1 MLOAD PUSH3 0x461BCD PUSH1 0xE5 SHL DUP2 MSTORE PUSH1 0x20 PUSH1 0x4 DUP3 ADD DUP2 SWAP1 MSTORE PUSH1 0x24 DUP3 ADD MSTORE PUSH32 0x4F776E61626C653A2063616C6C6572206973206E6F7420746865206F776E6572 PUSH1 0x44 DUP3 ADD MSTORE SWAP1 MLOAD SWAP1 DUP2 SWAP1 SUB PUSH1 0x64 ADD SWAP1 REVERT JUMPDEST PUSH1 0xA SLOAD PUSH1 0x60 SWAP1 PUSH8 0xFFFFFFFFFFFFFFFF DUP2 GT DUP1 ISZERO PUSH2 0x117E JUMPI PUSH1 0x0 DUP1 REVERT JUMPDEST POP PUSH1 0x40 MLOAD SWAP1 DUP1 DUP3 MSTORE DUP1 PUSH1 0x20 MUL PUSH1 0x20 ADD DUP3 ADD PUSH1 0x40 MSTORE DUP1 ISZERO PUSH2 0x11A8 JUMPI DUP2 PUSH1 0x20 ADD PUSH1 0x20 DUP3 MUL DUP1 CALLDATASIZE DUP4 CALLDATACOPY ADD SWAP1 POP JUMPDEST POP SWAP1 POP PUSH1 0x0 JUMPDEST DUP2 MLOAD DUP2 LT ISZERO PUSH2 0x1202 JUMPI PUSH2 0x11E3 ADDRESS PUSH1 0xA DUP4 DUP2 SLOAD DUP2 LT PUSH2 0x11C8 JUMPI INVALID JUMPDEST PUSH1 0x0 SWAP2 DUP3 MSTORE PUSH1 0x20 SWAP1 SWAP2 KECCAK256 ADD SLOAD PUSH1 0x1 PUSH1 0x1 PUSH1 0xA0 SHL SUB AND SWAP1 PUSH2 0x2B21 JUMP JUMPDEST DUP3 DUP3 DUP2 MLOAD DUP2 LT PUSH2 0x11EF JUMPI INVALID JUMPDEST PUSH1 0x20 SWAP1 DUP2 MUL SWAP2 SWAP1 SWAP2 ADD ADD MSTORE PUSH1 0x1 ADD PUSH2 0x11AE JUMP JUMPDEST POP PUSH2 0x1217 PUSH1 0x1 PUSH1 0x1 PUSH1 0xA0 SHL SUB DUP5 AND CALLER DUP5 PUSH2 0x2C5D JUMP JUMPDEST PUSH1 0x0 JUMPDEST DUP2 MLOAD DUP2 LT ISZERO PUSH2 0x129E JUMPI DUP2 DUP2 DUP2 MLOAD DUP2 LT PUSH2 0x122F JUMPI INVALID JUMPDEST PUSH1 0x20 MUL PUSH1 0x20 ADD ADD MLOAD PUSH2 0x1248 ADDRESS PUSH1 0xA DUP5 DUP2 SLOAD DUP2 LT PUSH2 0x11C8 JUMPI INVALID JUMPDEST LT ISZERO PUSH2 0x1296 JUMPI PUSH1 0x40 DUP1 MLOAD PUSH3 0x461BCD PUSH1 0xE5 SHL DUP2 MSTORE PUSH1 0x20 PUSH1 0x4 DUP3 ADD MSTORE PUSH1 0x18 PUSH1 0x24 DUP3 ADD MSTORE PUSH24 0x135BDBDB9A5CDDD85C0E881858D8D95CDCC819195B9A5959 PUSH1 0x42 SHL PUSH1 0x44 DUP3 ADD MSTORE SWAP1 MLOAD SWAP1 DUP2 SWAP1 SUB PUSH1 0x64 ADD SWAP1 REVERT JUMPDEST PUSH1 0x1 ADD PUSH2 0x121A JUMP JUMPDEST POP PUSH2 0x3E8 PUSH2 0x12AB ADDRESS PUSH2 0xFDA JUMP JUMPDEST LT ISZERO PUSH2 0x12F9 JUMPI PUSH1 0x40 DUP1 MLOAD PUSH3 0x461BCD PUSH1 0xE5 SHL DUP2 MSTORE PUSH1 0x20 PUSH1 0x4 DUP3 ADD MSTORE PUSH1 0x18 PUSH1 0x24 DUP3 ADD MSTORE PUSH24 0x135BDBDB9A5CDDD85C0E881858D8D95CDCC819195B9A5959 PUSH1 0x42 SHL PUSH1 0x44 DUP3 ADD MSTORE SWAP1 MLOAD SWAP1 DUP2 SWAP1 SUB PUSH1 0x64 ADD SWAP1 REVERT JUMPDEST POP POP PUSH1 0x1 PUSH1 0x6 SSTORE POP JUMP JUMPDEST PUSH1 0xB PUSH1 0x20 MSTORE PUSH1 0x0 SWAP1 DUP2 MSTORE PUSH1 0x40 SWAP1 KECCAK256 SLOAD DUP2 JUMP JUMPDEST PUSH1 0x7 SLOAD PUSH1 0x1 PUSH1 0x1 PUSH1 0xA0 SHL SUB AND SWAP1 JUMP JUMPDEST PUSH1 0x4 DUP1 SLOAD PUSH1 0x40 DUP1 MLOAD PUSH1 0x20 PUSH1 0x1F PUSH1 0x2 PUSH1 0x0 NOT PUSH2 0x100 PUSH1 0x1 DUP9 AND ISZERO MUL ADD SWAP1 SWAP6 AND SWAP5 SWAP1 SWAP5 DIV SWAP4 DUP5 ADD DUP2 SWAP1 DIV DUP2 MUL DUP3 ADD DUP2 ADD SWAP1 SWAP3 MSTORE DUP3 DUP2 MSTORE PUSH1 0x60 SWAP4 SWAP1 SWAP3 SWAP1 SWAP2 DUP4 ADD DUP3 DUP3 DUP1 ISZERO PUSH2 0xBFE JUMPI DUP1 PUSH1 0x1F LT PUSH2 0xBD3 JUMPI PUSH2 0x100 DUP1 DUP4 SLOAD DIV MUL DUP4 MSTORE SWAP2 PUSH1 0x20 ADD SWAP2 PUSH2 0xBFE JUMP JUMPDEST DUP1 MLOAD PUSH1 0x2 EQ PUSH2 0x13DB JUMPI PUSH1 0x40 DUP1 MLOAD PUSH3 0x461BCD PUSH1 0xE5 SHL DUP2 MSTORE PUSH1 0x20 PUSH1 0x4 DUP3 ADD DUP2 SWAP1 MSTORE PUSH1 0x24 DUP3 ADD MSTORE PUSH32 0x4D6F6F6E69737761703A206F6E6C79203220746F6B656E7320616C6C6F776564 PUSH1 0x44 DUP3 ADD MSTORE SWAP1 MLOAD SWAP1 DUP2 SWAP1 SUB PUSH1 0x64 ADD SWAP1 REVERT JUMPDEST PUSH1 0x9 DUP1 SLOAD PUSH1 0x1 PUSH1 0x1 PUSH1 0xA0 SHL SUB NOT AND CALLER OR SWAP1 SSTORE DUP1 MLOAD PUSH2 0x1400 SWAP1 PUSH1 0xA SWAP1 PUSH1 0x20 DUP5 ADD SWAP1 PUSH2 0x33DA JUMP JUMPDEST POP PUSH1 0x0 JUMPDEST DUP2 MLOAD DUP2 LT ISZERO PUSH2 0x14E2 JUMPI PUSH1 0xC PUSH1 0x0 DUP4 DUP4 DUP2 MLOAD DUP2 LT PUSH2 0x141D JUMPI INVALID JUMPDEST PUSH1 0x20 SWAP1 DUP2 MUL SWAP2 SWAP1 SWAP2 ADD DUP2 ADD MLOAD PUSH1 0x1 PUSH1 0x1 PUSH1 0xA0 SHL SUB AND DUP3 MSTORE DUP2 ADD SWAP2 SWAP1 SWAP2 MSTORE PUSH1 0x40 ADD PUSH1 0x0 KECCAK256 SLOAD PUSH1 0xFF AND ISZERO PUSH2 0x1496 JUMPI PUSH1 0x40 DUP1 MLOAD PUSH3 0x461BCD PUSH1 0xE5 SHL DUP2 MSTORE PUSH1 0x20 PUSH1 0x4 DUP3 ADD MSTORE PUSH1 0x1B PUSH1 0x24 DUP3 ADD MSTORE PUSH32 0x4D6F6F6E69737761703A206475706C696361746520746F6B656E730000000000 PUSH1 0x44 DUP3 ADD MSTORE SWAP1 MLOAD SWAP1 DUP2 SWAP1 SUB PUSH1 0x64 ADD SWAP1 REVERT JUMPDEST PUSH1 0x1 PUSH1 0xC PUSH1 0x0 DUP5 DUP5 DUP2 MLOAD DUP2 LT PUSH2 0x14A8 JUMPI INVALID JUMPDEST PUSH1 0x20 SWAP1 DUP2 MUL SWAP2 SWAP1 SWAP2 ADD DUP2 ADD MLOAD PUSH1 0x1 PUSH1 0x1 PUSH1 0xA0 SHL SUB AND DUP3 MSTORE DUP2 ADD SWAP2 SWAP1 SWAP2 MSTORE PUSH1 0x40 ADD PUSH1 0x0 KECCAK256 DUP1 SLOAD PUSH1 0xFF NOT AND SWAP2 ISZERO ISZERO SWAP2 SWAP1 SWAP2 OR SWAP1 SSTORE PUSH1 0x1 ADD PUSH2 0x1404 JUMP JUMPDEST POP POP JUMP JUMPDEST PUSH1 0x0 PUSH2 0xC1C PUSH2 0x14F3 PUSH2 0x262A JUMP JUMPDEST DUP5 PUSH2 0xCE0 DUP6 PUSH1 0x40 MLOAD DUP1 PUSH1 0x60 ADD PUSH1 0x40 MSTORE DUP1 PUSH1 0x25 DUP2 MSTORE PUSH1 0x20 ADD PUSH2 0x3629 PUSH1 0x25 SWAP2 CODECOPY PUSH1 0x1 PUSH1 0x0 PUSH2 0x151D PUSH2 0x262A JUMP JUMPDEST PUSH1 0x1 PUSH1 0x1 PUSH1 0xA0 SHL SUB SWAP1 DUP2 AND DUP3 MSTORE PUSH1 0x20 DUP1 DUP4 ADD SWAP4 SWAP1 SWAP4 MSTORE PUSH1 0x40 SWAP2 DUP3 ADD PUSH1 0x0 SWAP1 DUP2 KECCAK256 SWAP2 DUP14 AND DUP2 MSTORE SWAP3 MSTORE SWAP1 KECCAK256 SLOAD SWAP2 SWAP1 PUSH2 0x2934 JUMP JUMPDEST PUSH1 0x0 PUSH2 0xC1C PUSH2 0x155B PUSH2 0x262A JUMP JUMPDEST DUP5 DUP5 PUSH2 0x27D9 JUMP JUMPDEST PUSH1 0x60 PUSH1 0xA DUP1 SLOAD DUP1 PUSH1 0x20 MUL PUSH1 0x20 ADD PUSH1 0x40 MLOAD SWAP1 DUP2 ADD PUSH1 0x40 MSTORE DUP1 SWAP3 SWAP2 SWAP1 DUP2 DUP2 MSTORE PUSH1 0x20 ADD DUP3 DUP1 SLOAD DUP1 ISZERO PUSH2 0xBFE JUMPI PUSH1 0x20 MUL DUP3 ADD SWAP2 SWAP1 PUSH1 0x0 MSTORE PUSH1 0x20 PUSH1 0x0 KECCAK256 SWAP1 JUMPDEST DUP2 SLOAD PUSH1 0x1 PUSH1 0x1 PUSH1 0xA0 SHL SUB AND DUP2 MSTORE PUSH1 0x1 SWAP1 SWAP2 ADD SWAP1 PUSH1 0x20 ADD DUP1 DUP4 GT PUSH2 0x159C JUMPI POP POP POP POP POP SWAP1 POP SWAP1 JUMP JUMPDEST PUSH1 0xD PUSH1 0x20 MSTORE PUSH1 0x0 SWAP1 DUP2 MSTORE PUSH1 0x40 SWAP1 KECCAK256 SLOAD PUSH1 0x1 PUSH1 0x1 PUSH1 0x80 SHL SUB DUP1 DUP3 AND SWAP2 PUSH1 0x1 PUSH1 0x80 SHL SWAP1 DIV AND DUP3 JUMP JUMPDEST PUSH1 0x14 DUP2 JUMP JUMPDEST PUSH2 0x3E8 DUP2 JUMP JUMPDEST PUSH1 0x9 SLOAD PUSH1 0x1 PUSH1 0x1 PUSH1 0xA0 SHL SUB AND DUP2 JUMP JUMPDEST TIMESTAMP DUP5 LT ISZERO PUSH2 0x1642 JUMPI PUSH1 0x40 DUP1 MLOAD PUSH3 0x461BCD PUSH1 0xE5 SHL DUP2 MSTORE PUSH1 0x20 PUSH1 0x4 DUP3 ADD MSTORE PUSH1 0x7 PUSH1 0x24 DUP3 ADD MSTORE PUSH7 0x11561412549151 PUSH1 0xCA SHL PUSH1 0x44 DUP3 ADD MSTORE SWAP1 MLOAD SWAP1 DUP2 SWAP1 SUB PUSH1 0x64 ADD SWAP1 REVERT JUMPDEST PUSH1 0x1 PUSH1 0x1 PUSH1 0xA0 SHL SUB DUP1 DUP9 AND PUSH1 0x0 DUP2 DUP2 MSTORE PUSH1 0xB PUSH1 0x20 SWAP1 DUP2 MSTORE PUSH1 0x40 DUP1 DUP4 KECCAK256 DUP1 SLOAD PUSH1 0x1 DUP1 DUP3 ADD SWAP1 SWAP3 SSTORE PUSH1 0x8 SLOAD DUP4 MLOAD PUSH32 0x6E71EDAE12B1B97F4D1F60370FEF10105FA2FAAE0126114A169C64845D6126C9 DUP2 DUP8 ADD MSTORE DUP1 DUP6 ADD SWAP8 SWAP1 SWAP8 MSTORE SWAP7 DUP14 AND PUSH1 0x60 DUP8 ADD MSTORE PUSH1 0x80 DUP7 ADD DUP13 SWAP1 MSTORE PUSH1 0xA0 DUP7 ADD DUP2 SWAP1 MSTORE PUSH1 0xC0 DUP1 DUP8 ADD DUP13 SWAP1 MSTORE DUP4 MLOAD DUP1 DUP9 SUB SWAP1 SWAP2 ADD DUP2 MSTORE PUSH1 0xE0 DUP8 ADD DUP5 MSTORE DUP1 MLOAD SWAP1 DUP6 ADD KECCAK256 PUSH2 0x1901 PUSH1 0xF0 SHL PUSH2 0x100 DUP9 ADD MSTORE PUSH2 0x102 DUP8 ADD SWAP8 SWAP1 SWAP8 MSTORE PUSH2 0x122 DUP1 DUP8 ADD SWAP8 SWAP1 SWAP8 MSTORE DUP3 MLOAD DUP1 DUP8 SUB SWAP1 SWAP8 ADD DUP8 MSTORE PUSH2 0x142 DUP7 ADD DUP1 DUP5 MSTORE DUP8 MLOAD SWAP8 DUP6 ADD SWAP8 SWAP1 SWAP8 KECCAK256 SWAP7 DUP6 SWAP1 MSTORE PUSH2 0x162 DUP7 ADD DUP1 DUP5 MSTORE DUP8 SWAP1 MSTORE PUSH1 0xFF DUP11 AND PUSH2 0x182 DUP8 ADD MSTORE PUSH2 0x1A2 DUP7 ADD DUP10 SWAP1 MSTORE PUSH2 0x1C2 DUP7 ADD DUP9 SWAP1 MSTORE SWAP2 MLOAD SWAP2 SWAP6 SWAP5 SWAP1 SWAP3 PUSH2 0x1E2 DUP1 DUP4 ADD SWAP4 SWAP2 SWAP3 PUSH1 0x1F NOT DUP4 ADD SWAP3 SWAP1 DUP2 SWAP1 SUB SWAP1 SWAP2 ADD SWAP1 DUP6 GAS STATICCALL ISZERO DUP1 ISZERO PUSH2 0x1762 JUMPI RETURNDATASIZE PUSH1 0x0 DUP1 RETURNDATACOPY RETURNDATASIZE PUSH1 0x0 REVERT JUMPDEST POP POP PUSH1 0x40 MLOAD PUSH1 0x1F NOT ADD MLOAD SWAP2 POP POP PUSH1 0x1 PUSH1 0x1 PUSH1 0xA0 SHL SUB DUP2 AND ISZERO DUP1 ISZERO SWAP1 PUSH2 0x1798 JUMPI POP DUP10 PUSH1 0x1 PUSH1 0x1 PUSH1 0xA0 SHL SUB AND DUP2 PUSH1 0x1 PUSH1 0x1 PUSH1 0xA0 SHL SUB AND EQ JUMPDEST PUSH2 0x17DD JUMPI PUSH1 0x40 DUP1 MLOAD PUSH3 0x461BCD PUSH1 0xE5 SHL DUP2 MSTORE PUSH1 0x20 PUSH1 0x4 DUP3 ADD MSTORE PUSH1 0x11 PUSH1 0x24 DUP3 ADD MSTORE PUSH17 0x494E56414C49445F5349474E4154555245 PUSH1 0x78 SHL PUSH1 0x44 DUP3 ADD MSTORE SWAP1 MLOAD SWAP1 DUP2 SWAP1 SUB PUSH1 0x64 ADD SWAP1 REVERT JUMPDEST PUSH2 0x17E8 DUP11 DUP11 DUP11 PUSH2 0x262E JUMP JUMPDEST POP POP POP POP POP POP POP POP POP POP JUMP JUMPDEST PUSH1 0x0 PUSH1 0x2 PUSH1 0x6 SLOAD EQ ISZERO PUSH2 0x183C JUMPI PUSH1 0x40 DUP1 MLOAD PUSH3 0x461BCD PUSH1 0xE5 SHL DUP2 MSTORE PUSH1 0x20 PUSH1 0x4 DUP3 ADD MSTORE PUSH1 0x1F PUSH1 0x24 DUP3 ADD MSTORE PUSH1 0x0 DUP1 MLOAD PUSH1 0x20 PUSH2 0x349C DUP4 CODECOPY DUP2 MLOAD SWAP2 MSTORE PUSH1 0x44 DUP3 ADD MSTORE SWAP1 MLOAD SWAP1 DUP2 SWAP1 SUB PUSH1 0x64 ADD SWAP1 REVERT JUMPDEST PUSH1 0x2 PUSH1 0x6 SSTORE PUSH2 0x1853 PUSH1 0x1 PUSH1 0x1 PUSH1 0xA0 SHL SUB DUP8 AND PUSH2 0x2D64 JUMP JUMPDEST PUSH2 0x185E JUMPI PUSH1 0x0 PUSH2 0x1860 JUMP JUMPDEST DUP4 JUMPDEST CALLVALUE EQ PUSH2 0x18B3 JUMPI PUSH1 0x40 DUP1 MLOAD PUSH3 0x461BCD PUSH1 0xE5 SHL DUP2 MSTORE PUSH1 0x20 PUSH1 0x4 DUP3 ADD MSTORE PUSH1 0x1C PUSH1 0x24 DUP3 ADD MSTORE PUSH32 0x4D6F6F6E69737761703A2077726F6E672076616C756520757361676500000000 PUSH1 0x44 DUP3 ADD MSTORE SWAP1 MLOAD SWAP1 DUP2 SWAP1 SUB PUSH1 0x64 ADD SWAP1 REVERT JUMPDEST PUSH2 0x18BB PUSH2 0x343F JUMP JUMPDEST PUSH1 0x40 MLOAD DUP1 PUSH1 0x40 ADD PUSH1 0x40 MSTORE DUP1 PUSH2 0x1901 PUSH2 0x18DB DUP11 PUSH1 0x1 PUSH1 0x1 PUSH1 0xA0 SHL SUB AND PUSH2 0x2D64 JUMP JUMPDEST PUSH2 0x18E6 JUMPI PUSH1 0x0 PUSH2 0x18E8 JUMP JUMPDEST CALLVALUE JUMPDEST PUSH2 0x18FB PUSH1 0x1 PUSH1 0x1 PUSH1 0xA0 SHL SUB DUP13 AND ADDRESS PUSH2 0x2B21 JUMP JUMPDEST SWAP1 PUSH2 0x2CC6 JUMP JUMPDEST DUP2 MSTORE PUSH1 0x20 ADD PUSH2 0x1919 PUSH1 0x1 PUSH1 0x1 PUSH1 0xA0 SHL SUB DUP10 AND ADDRESS PUSH2 0x2B21 JUMP JUMPDEST SWAP1 MSTORE DUP1 MLOAD PUSH1 0x1 PUSH1 0x1 PUSH1 0xA0 SHL SUB DUP10 AND PUSH1 0x0 SWAP1 DUP2 MSTORE PUSH1 0xE PUSH1 0x20 SWAP1 DUP2 MSTORE PUSH1 0x40 DUP1 DUP4 KECCAK256 DUP2 MLOAD DUP1 DUP4 ADD SWAP1 SWAP3 MSTORE SLOAD PUSH1 0x1 PUSH1 0x1 PUSH1 0xD8 SHL SUB DUP2 AND DUP3 MSTORE PUSH1 0x1 PUSH1 0xD8 SHL SWAP1 DIV PUSH5 0xFFFFFFFFFF AND SWAP2 DUP2 ADD SWAP2 SWAP1 SWAP2 MSTORE SWAP3 SWAP4 POP SWAP2 PUSH2 0x197B SWAP2 PUSH2 0x1974 SWAP2 SWAP1 PUSH2 0x2D71 JUMP JUMPDEST DUP4 MLOAD PUSH2 0x2DD2 JUMP JUMPDEST PUSH1 0x20 DUP4 DUP2 ADD MLOAD PUSH1 0x1 PUSH1 0x1 PUSH1 0xA0 SHL SUB DUP11 AND PUSH1 0x0 SWAP1 DUP2 MSTORE PUSH1 0xF DUP4 MSTORE PUSH1 0x40 DUP1 DUP3 KECCAK256 DUP2 MLOAD DUP1 DUP4 ADD SWAP1 SWAP3 MSTORE SLOAD PUSH1 0x1 PUSH1 0x1 PUSH1 0xD8 SHL SUB DUP2 AND DUP3 MSTORE PUSH1 0x1 PUSH1 0xD8 SHL SWAP1 DIV PUSH5 0xFFFFFFFFFF AND SWAP4 DUP2 ADD SWAP4 SWAP1 SWAP4 MSTORE SWAP3 SWAP4 POP PUSH2 0x19DD SWAP2 PUSH2 0x19D3 SWAP2 PUSH2 0x2D71 JUMP JUMPDEST DUP5 PUSH1 0x20 ADD MLOAD PUSH2 0x2DE9 JUMP JUMPDEST SWAP1 POP PUSH2 0x19F2 PUSH1 0x1 PUSH1 0x1 PUSH1 0xA0 SHL SUB DUP11 AND DUP9 PUSH2 0x2DF8 JUMP JUMPDEST DUP3 MLOAD PUSH1 0x0 SWAP1 PUSH2 0x1A0E SWAP1 PUSH2 0x18FB PUSH1 0x1 PUSH1 0x1 PUSH1 0xA0 SHL SUB DUP14 AND ADDRESS PUSH2 0x2B21 JUMP JUMPDEST SWAP1 POP PUSH2 0x1A1D DUP11 DUP11 DUP4 DUP7 DUP7 PUSH2 0x271A JUMP JUMPDEST SWAP5 POP PUSH1 0x0 DUP6 GT DUP1 ISZERO PUSH2 0x1A2F JUMPI POP DUP7 DUP6 LT ISZERO JUMPDEST PUSH2 0x1A80 JUMPI PUSH1 0x40 DUP1 MLOAD PUSH3 0x461BCD PUSH1 0xE5 SHL DUP2 MSTORE PUSH1 0x20 PUSH1 0x4 DUP3 ADD MSTORE PUSH1 0x1F PUSH1 0x24 DUP3 ADD MSTORE PUSH32 0x4D6F6F6E69737761703A2072657475726E206973206E6F7420656E6F75676800 PUSH1 0x44 DUP3 ADD MSTORE SWAP1 MLOAD SWAP1 DUP2 SWAP1 SUB PUSH1 0x64 ADD SWAP1 REVERT JUMPDEST PUSH2 0x1A94 PUSH1 0x1 PUSH1 0x1 PUSH1 0xA0 SHL SUB DUP11 AND CALLER DUP8 PUSH2 0x2C5D JUMP JUMPDEST DUP4 MLOAD DUP4 EQ PUSH2 0x1AC7 JUMPI PUSH2 0x1AC7 PUSH2 0x1AA9 DUP5 DUP4 PUSH2 0x29CB JUMP JUMPDEST PUSH1 0x1 PUSH1 0x1 PUSH1 0xA0 SHL SUB DUP13 AND PUSH1 0x0 SWAP1 DUP2 MSTORE PUSH1 0xE PUSH1 0x20 MSTORE PUSH1 0x40 SWAP1 KECCAK256 SWAP1 PUSH2 0x2EBB JUMP JUMPDEST DUP4 PUSH1 0x20 ADD MLOAD DUP3 EQ PUSH2 0x1AFD JUMPI PUSH2 0x1AFD PUSH2 0x1ADF DUP4 DUP8 PUSH2 0x2CC6 JUMP JUMPDEST PUSH1 0x1 PUSH1 0x1 PUSH1 0xA0 SHL SUB DUP12 AND PUSH1 0x0 SWAP1 DUP2 MSTORE PUSH1 0xF PUSH1 0x20 MSTORE PUSH1 0x40 SWAP1 KECCAK256 SWAP1 PUSH2 0x2EBB JUMP JUMPDEST DUP4 MLOAD PUSH1 0x1 PUSH1 0x1 PUSH1 0xA0 SHL SUB DUP12 AND PUSH1 0x0 SWAP1 DUP2 MSTORE PUSH1 0xF PUSH1 0x20 MSTORE PUSH1 0x40 SWAP1 KECCAK256 PUSH2 0x1B20 SWAP2 PUSH2 0x2EE7 JUMP JUMPDEST PUSH1 0x20 DUP1 DUP6 ADD MLOAD PUSH1 0x1 PUSH1 0x1 PUSH1 0xA0 SHL SUB DUP12 AND PUSH1 0x0 SWAP1 DUP2 MSTORE PUSH1 0xE SWAP1 SWAP3 MSTORE PUSH1 0x40 SWAP1 SWAP2 KECCAK256 PUSH2 0x1B48 SWAP2 PUSH2 0x2EE7 JUMP JUMPDEST PUSH1 0x1 PUSH1 0x1 PUSH1 0xA0 SHL SUB DUP7 AND ISZERO PUSH2 0x1C03 JUMPI DUP4 MLOAD PUSH15 0xC097CE7BC90715B34B9F1000000000 SWAP1 PUSH2 0x1B82 SWAP1 PUSH2 0xE4C PUSH2 0x1B7B DUP3 DUP7 PUSH2 0x29CB JUMP JUMPDEST DUP5 SWAP1 PUSH2 0x2BC2 JUMP JUMPDEST PUSH1 0x20 DUP7 ADD MLOAD SWAP1 SWAP2 POP PUSH2 0x1B9B SWAP1 PUSH2 0xE4C PUSH2 0x1B7B DUP3 DUP11 PUSH2 0x2CC6 JUMP JUMPDEST SWAP1 POP PUSH15 0xC097CE7BC90715B34B9F1000000000 DUP2 GT ISZERO PUSH2 0x1C01 JUMPI PUSH1 0x0 PUSH2 0x1BED PUSH1 0x14 PUSH2 0xE4C PUSH8 0xDE0B6B3A7640000 PUSH2 0xE4C PUSH2 0x1BD2 PUSH2 0xC26 JUMP JUMPDEST PUSH2 0x1BE7 PUSH8 0xDE0B6B3A7640000 PUSH2 0x18FB DUP11 PUSH2 0x2F22 JUMP JUMPDEST SWAP1 PUSH2 0x2BC2 JUMP JUMPDEST SWAP1 POP DUP1 ISZERO PUSH2 0x1BFF JUMPI PUSH2 0x1BFF DUP9 DUP3 PUSH2 0x2F7C JUMP JUMPDEST POP JUMPDEST POP JUMPDEST DUP9 PUSH1 0x1 PUSH1 0x1 PUSH1 0xA0 SHL SUB AND DUP11 PUSH1 0x1 PUSH1 0x1 PUSH1 0xA0 SHL SUB AND CALLER PUSH1 0x1 PUSH1 0x1 PUSH1 0xA0 SHL SUB AND PUSH32 0x86C49B5D8577DA08444947F1427D23EF191CFABF2C0788F93324D79E926A9302 DUP5 DUP10 DUP10 PUSH1 0x0 ADD MLOAD DUP11 PUSH1 0x20 ADD MLOAD PUSH2 0x1C56 PUSH2 0xC26 JUMP JUMPDEST PUSH1 0x40 DUP1 MLOAD SWAP6 DUP7 MSTORE PUSH1 0x20 DUP7 ADD SWAP5 SWAP1 SWAP5 MSTORE DUP5 DUP5 ADD SWAP3 SWAP1 SWAP3 MSTORE PUSH1 0x60 DUP5 ADD MSTORE PUSH1 0x80 DUP4 ADD MSTORE PUSH1 0x1 PUSH1 0x1 PUSH1 0xA0 SHL SUB DUP13 AND PUSH1 0xA0 DUP4 ADD MSTORE MLOAD SWAP1 DUP2 SWAP1 SUB PUSH1 0xC0 ADD SWAP1 LOG4 PUSH1 0x1 PUSH1 0x1 PUSH1 0xA0 SHL SUB SWAP1 SWAP10 AND PUSH1 0x0 SWAP1 DUP2 MSTORE PUSH1 0xD PUSH1 0x20 MSTORE PUSH1 0x40 SWAP1 KECCAK256 DUP1 SLOAD PUSH1 0x1 PUSH1 0x80 SHL PUSH1 0x1 PUSH1 0x1 PUSH1 0x80 SHL SUB DUP1 DUP4 AND SWAP1 SWAP13 ADD DUP13 AND PUSH16 0xFFFFFFFFFFFFFFFFFFFFFFFFFFFFFFFF NOT SWAP1 SWAP3 AND SWAP2 SWAP1 SWAP2 OR DUP2 DUP2 DIV DUP13 AND DUP8 ADD DUP13 AND SWAP1 SWAP2 MUL SWAP11 AND SWAP10 SWAP1 SWAP10 OR SWAP1 SWAP9 SSTORE POP POP PUSH1 0x1 PUSH1 0x6 SSTORE SWAP6 SWAP5 POP POP POP POP POP JUMP JUMPDEST PUSH8 0xDE0B6B3A7640000 DUP2 JUMP JUMPDEST PUSH1 0x0 DUP1 PUSH2 0x1D1F PUSH1 0x1 PUSH1 0x1 PUSH1 0xA0 SHL SUB DUP5 AND ADDRESS PUSH2 0x2B21 JUMP JUMPDEST PUSH1 0x1 PUSH1 0x1 PUSH1 0xA0 SHL SUB DUP5 AND PUSH1 0x0 SWAP1 DUP2 MSTORE PUSH1 0xE PUSH1 0x20 SWAP1 DUP2 MSTORE PUSH1 0x40 SWAP2 DUP3 SWAP1 KECCAK256 DUP3 MLOAD DUP1 DUP5 ADD SWAP1 SWAP4 MSTORE SLOAD PUSH1 0x1 PUSH1 0x1 PUSH1 0xD8 SHL SUB DUP2 AND DUP4 MSTORE PUSH1 0x1 PUSH1 0xD8 SHL SWAP1 DIV PUSH5 0xFFFFFFFFFF AND SWAP1 DUP3 ADD MSTORE SWAP1 SWAP2 POP PUSH2 0x1D79 SWAP1 PUSH2 0x1D73 SWAP1 DUP4 PUSH2 0x2D71 JUMP JUMPDEST DUP3 PUSH2 0x2DD2 JUMP JUMPDEST SWAP4 SWAP3 POP POP POP JUMP JUMPDEST PUSH1 0x1 PUSH1 0x1 PUSH1 0xA0 SHL SUB SWAP2 DUP3 AND PUSH1 0x0 SWAP1 DUP2 MSTORE PUSH1 0x1 PUSH1 0x20 SWAP1 DUP2 MSTORE PUSH1 0x40 DUP1 DUP4 KECCAK256 SWAP4 SWAP1 SWAP5 AND DUP3 MSTORE SWAP2 SWAP1 SWAP2 MSTORE KECCAK256 SLOAD SWAP1 JUMP JUMPDEST PUSH1 0x9 SLOAD PUSH1 0x40 DUP1 MLOAD PUSH4 0xDDCA3F43 PUSH1 0xE0 SHL DUP2 MSTORE SWAP1 MLOAD PUSH1 0x0 SWAP3 PUSH1 0x1 PUSH1 0x1 PUSH1 0xA0 SHL SUB AND SWAP2 PUSH4 0xDDCA3F43 SWAP2 PUSH1 0x4 DUP1 DUP4 ADD SWAP3 PUSH1 0x20 SWAP3 SWAP2 SWAP1 DUP3 SWAP1 SUB ADD DUP2 DUP7 DUP1 EXTCODESIZE ISZERO DUP1 ISZERO PUSH2 0x1DF0 JUMPI PUSH1 0x0 DUP1 REVERT JUMPDEST POP GAS STATICCALL ISZERO DUP1 ISZERO PUSH2 0x1E04 JUMPI RETURNDATASIZE PUSH1 0x0 DUP1 RETURNDATACOPY RETURNDATASIZE PUSH1 0x0 REVERT JUMPDEST POP POP POP POP PUSH1 0x40 MLOAD RETURNDATASIZE PUSH1 0x20 DUP2 LT ISZERO PUSH2 0x1E1A JUMPI PUSH1 0x0 DUP1 REVERT JUMPDEST POP MLOAD SWAP1 POP SWAP1 JUMP JUMPDEST PUSH1 0x0 DUP1 PUSH2 0x1E37 PUSH1 0x1 PUSH1 0x1 PUSH1 0xA0 SHL SUB DUP5 AND ADDRESS PUSH2 0x2B21 JUMP JUMPDEST PUSH1 0x1 PUSH1 0x1 PUSH1 0xA0 SHL SUB DUP5 AND PUSH1 0x0 SWAP1 DUP2 MSTORE PUSH1 0xF PUSH1 0x20 SWAP1 DUP2 MSTORE PUSH1 0x40 SWAP2 DUP3 SWAP1 KECCAK256 DUP3 MLOAD DUP1 DUP5 ADD SWAP1 SWAP4 MSTORE SLOAD PUSH1 0x1 PUSH1 0x1 PUSH1 0xD8 SHL SUB DUP2 AND DUP4 MSTORE PUSH1 0x1 PUSH1 0xD8 SHL SWAP1 DIV PUSH5 0xFFFFFFFFFF AND SWAP1 DUP3 ADD MSTORE SWAP1 SWAP2 POP PUSH2 0x1D79 SWAP1 PUSH2 0x1E8B SWAP1 DUP4 PUSH2 0x2D71 JUMP JUMPDEST DUP3 PUSH2 0x2DE9 JUMP JUMPDEST PUSH1 0x0 PUSH1 0x2 PUSH1 0x6 SLOAD EQ ISZERO PUSH2 0x1ED9 JUMPI PUSH1 0x40 DUP1 MLOAD PUSH3 0x461BCD PUSH1 0xE5 SHL DUP2 MSTORE PUSH1 0x20 PUSH1 0x4 DUP3 ADD MSTORE PUSH1 0x1F PUSH1 0x24 DUP3 ADD MSTORE PUSH1 0x0 DUP1 MLOAD PUSH1 0x20 PUSH2 0x349C DUP4 CODECOPY DUP2 MLOAD SWAP2 MSTORE PUSH1 0x44 DUP3 ADD MSTORE SWAP1 MLOAD SWAP1 DUP2 SWAP1 SUB PUSH1 0x64 ADD SWAP1 REVERT JUMPDEST PUSH1 0x2 PUSH1 0x6 SSTORE PUSH1 0xA DUP1 SLOAD PUSH1 0x40 DUP1 MLOAD PUSH1 0x20 DUP1 DUP5 MUL DUP3 ADD DUP2 ADD SWAP1 SWAP3 MSTORE DUP3 DUP2 MSTORE PUSH1 0x60 SWAP4 SWAP1 SWAP3 SWAP1 SWAP2 DUP4 ADD DUP3 DUP3 DUP1 ISZERO PUSH2 0x1F35 JUMPI PUSH1 0x20 MUL DUP3 ADD SWAP2 SWAP1 PUSH1 0x0 MSTORE PUSH1 0x20 PUSH1 0x0 KECCAK256 SWAP1 JUMPDEST DUP2 SLOAD PUSH1 0x1 PUSH1 0x1 PUSH1 0xA0 SHL SUB AND DUP2 MSTORE PUSH1 0x1 SWAP1 SWAP2 ADD SWAP1 PUSH1 0x20 ADD DUP1 DUP4 GT PUSH2 0x1F17 JUMPI JUMPDEST POP POP POP POP POP SWAP1 POP DUP1 MLOAD DUP7 DUP7 SWAP1 POP EQ PUSH2 0x1F94 JUMPI PUSH1 0x40 DUP1 MLOAD PUSH3 0x461BCD PUSH1 0xE5 SHL DUP2 MSTORE PUSH1 0x20 PUSH1 0x4 DUP3 ADD MSTORE PUSH1 0x1F PUSH1 0x24 DUP3 ADD MSTORE PUSH32 0x4D6F6F6E69737761703A2077726F6E6720616D6F756E7473206C656E67746800 PUSH1 0x44 DUP3 ADD MSTORE SWAP1 MLOAD SWAP1 DUP2 SWAP1 SUB PUSH1 0x64 ADD SWAP1 REVERT JUMPDEST PUSH2 0x1FBA DUP2 PUSH1 0x0 DUP2 MLOAD DUP2 LT PUSH2 0x1FA4 JUMPI INVALID JUMPDEST PUSH1 0x20 MUL PUSH1 0x20 ADD ADD MLOAD PUSH1 0x1 PUSH1 0x1 PUSH1 0xA0 SHL SUB AND PUSH2 0x2D64 JUMP JUMPDEST PUSH2 0x1FF3 JUMPI PUSH2 0x1FCE DUP2 PUSH1 0x1 DUP2 MLOAD DUP2 LT PUSH2 0x1FA4 JUMPI INVALID JUMPDEST PUSH2 0x1FD9 JUMPI PUSH1 0x0 PUSH2 0x1FEE JUMP JUMPDEST DUP6 DUP6 PUSH1 0x1 DUP2 DUP2 LT PUSH2 0x1FE6 JUMPI INVALID JUMPDEST SWAP1 POP PUSH1 0x20 MUL ADD CALLDATALOAD JUMPDEST PUSH2 0x2008 JUMP JUMPDEST DUP6 DUP6 PUSH1 0x0 DUP2 DUP2 LT PUSH2 0x2000 JUMPI INVALID JUMPDEST SWAP1 POP PUSH1 0x20 MUL ADD CALLDATALOAD JUMPDEST CALLVALUE EQ PUSH2 0x205B JUMPI PUSH1 0x40 DUP1 MLOAD PUSH3 0x461BCD PUSH1 0xE5 SHL DUP2 MSTORE PUSH1 0x20 PUSH1 0x4 DUP3 ADD MSTORE PUSH1 0x1C PUSH1 0x24 DUP3 ADD MSTORE PUSH32 0x4D6F6F6E69737761703A2077726F6E672076616C756520757361676500000000 PUSH1 0x44 DUP3 ADD MSTORE SWAP1 MLOAD SWAP1 DUP2 SWAP1 SUB PUSH1 0x64 ADD SWAP1 REVERT JUMPDEST PUSH1 0x60 DUP6 PUSH8 0xFFFFFFFFFFFFFFFF DUP2 GT DUP1 ISZERO PUSH2 0x2074 JUMPI PUSH1 0x0 DUP1 REVERT JUMPDEST POP PUSH1 0x40 MLOAD SWAP1 DUP1 DUP3 MSTORE DUP1 PUSH1 0x20 MUL PUSH1 0x20 ADD DUP3 ADD PUSH1 0x40 MSTORE DUP1 ISZERO PUSH2 0x209E JUMPI DUP2 PUSH1 0x20 ADD PUSH1 0x20 DUP3 MUL DUP1 CALLDATASIZE DUP4 CALLDATACOPY ADD SWAP1 POP JUMPDEST POP SWAP1 POP PUSH1 0x0 JUMPDEST DUP2 MLOAD DUP2 LT ISZERO PUSH2 0x211A JUMPI PUSH2 0x20FB PUSH2 0x20BF DUP5 DUP4 DUP2 MLOAD DUP2 LT PUSH2 0x1FA4 JUMPI INVALID JUMPDEST PUSH2 0x20CA JUMPI PUSH1 0x0 PUSH2 0x20CC JUMP JUMPDEST CALLVALUE JUMPDEST PUSH2 0x18FB ADDRESS DUP7 DUP6 DUP2 MLOAD DUP2 LT PUSH2 0x20DC JUMPI INVALID JUMPDEST PUSH1 0x20 MUL PUSH1 0x20 ADD ADD MLOAD PUSH1 0x1 PUSH1 0x1 PUSH1 0xA0 SHL SUB AND PUSH2 0x2B21 SWAP1 SWAP2 SWAP1 PUSH4 0xFFFFFFFF AND JUMP JUMPDEST DUP3 DUP3 DUP2 MLOAD DUP2 LT PUSH2 0x2107 JUMPI INVALID JUMPDEST PUSH1 0x20 SWAP1 DUP2 MUL SWAP2 SWAP1 SWAP2 ADD ADD MSTORE PUSH1 0x1 ADD PUSH2 0x20A4 JUMP JUMPDEST POP PUSH1 0x0 PUSH2 0x2125 PUSH2 0xC26 JUMP JUMPDEST SWAP1 POP DUP1 PUSH2 0x217E JUMPI PUSH2 0x2139 PUSH2 0x3E8 PUSH1 0x63 PUSH2 0x2BC2 JUMP JUMPDEST SWAP4 POP PUSH2 0x2147 ADDRESS PUSH2 0x3E8 PUSH2 0x2F7C JUMP JUMPDEST PUSH1 0x0 JUMPDEST DUP8 DUP2 LT ISZERO PUSH2 0x2178 JUMPI PUSH2 0x216E DUP6 DUP11 DUP11 DUP5 DUP2 DUP2 LT PUSH2 0x2162 JUMPI INVALID JUMPDEST SWAP1 POP PUSH1 0x20 MUL ADD CALLDATALOAD PUSH2 0x2DD2 JUMP JUMPDEST SWAP5 POP PUSH1 0x1 ADD PUSH2 0x214A JUMP JUMPDEST POP PUSH2 0x21DF JUMP JUMPDEST PUSH1 0x0 NOT SWAP4 POP PUSH1 0x0 JUMPDEST DUP8 DUP2 LT ISZERO PUSH2 0x21DD JUMPI PUSH2 0x21D3 DUP6 PUSH2 0x21CE DUP6 DUP5 DUP2 MLOAD DUP2 LT PUSH2 0x21A1 JUMPI INVALID JUMPDEST PUSH1 0x20 MUL PUSH1 0x20 ADD ADD MLOAD PUSH2 0xE4C DUP14 DUP14 DUP8 DUP2 DUP2 LT PUSH2 0x21B8 JUMPI INVALID JUMPDEST SWAP1 POP PUSH1 0x20 MUL ADD CALLDATALOAD DUP8 PUSH2 0x2BC2 SWAP1 SWAP2 SWAP1 PUSH4 0xFFFFFFFF AND JUMP JUMPDEST PUSH2 0x2DE9 JUMP JUMPDEST SWAP5 POP PUSH1 0x1 ADD PUSH2 0x2186 JUMP JUMPDEST POP JUMPDEST DUP4 PUSH1 0x0 JUMPDEST DUP9 DUP2 LT ISZERO PUSH2 0x23AE JUMPI PUSH1 0x0 DUP11 DUP11 DUP4 DUP2 DUP2 LT PUSH2 0x21F9 JUMPI INVALID JUMPDEST SWAP1 POP PUSH1 0x20 MUL ADD CALLDATALOAD GT PUSH2 0x2252 JUMPI PUSH1 0x40 DUP1 MLOAD PUSH3 0x461BCD PUSH1 0xE5 SHL DUP2 MSTORE PUSH1 0x20 PUSH1 0x4 DUP3 ADD MSTORE PUSH1 0x19 PUSH1 0x24 DUP3 ADD MSTORE PUSH32 0x4D6F6F6E69737761703A20616D6F756E74206973207A65726F00000000000000 PUSH1 0x44 DUP3 ADD MSTORE SWAP1 MLOAD SWAP1 DUP2 SWAP1 SUB PUSH1 0x64 ADD SWAP1 REVERT JUMPDEST PUSH1 0x0 DUP4 ISZERO PUSH2 0x2296 JUMPI PUSH2 0x2291 DUP5 PUSH2 0xE4C PUSH1 0x1 DUP8 SUB PUSH2 0x228B DUP8 DUP11 DUP9 DUP2 MLOAD DUP2 LT PUSH2 0x2275 JUMPI INVALID JUMPDEST PUSH1 0x20 MUL PUSH1 0x20 ADD ADD MLOAD PUSH2 0x2BC2 SWAP1 SWAP2 SWAP1 PUSH4 0xFFFFFFFF AND JUMP JUMPDEST SWAP1 PUSH2 0x29CB JUMP JUMPDEST PUSH2 0x22AA JUMP JUMPDEST DUP11 DUP11 DUP4 DUP2 DUP2 LT PUSH2 0x22A2 JUMPI INVALID JUMPDEST SWAP1 POP PUSH1 0x20 MUL ADD CALLDATALOAD JUMPDEST SWAP1 POP DUP9 DUP9 DUP4 DUP2 DUP2 LT PUSH2 0x22B8 JUMPI INVALID JUMPDEST SWAP1 POP PUSH1 0x20 MUL ADD CALLDATALOAD DUP2 LT ISZERO PUSH2 0x2313 JUMPI PUSH1 0x40 DUP1 MLOAD PUSH3 0x461BCD PUSH1 0xE5 SHL DUP2 MSTORE PUSH1 0x20 PUSH1 0x4 DUP3 ADD DUP2 SWAP1 MSTORE PUSH1 0x24 DUP3 ADD MSTORE PUSH32 0x4D6F6F6E69737761703A206D696E416D6F756E74206E6F742072656163686564 PUSH1 0x44 DUP3 ADD MSTORE SWAP1 MLOAD SWAP1 DUP2 SWAP1 SUB PUSH1 0x64 ADD SWAP1 REVERT JUMPDEST PUSH2 0x2342 DUP2 DUP8 DUP5 DUP2 MLOAD DUP2 LT PUSH2 0x2323 JUMPI INVALID JUMPDEST PUSH1 0x20 MUL PUSH1 0x20 ADD ADD MLOAD PUSH1 0x1 PUSH1 0x1 PUSH1 0xA0 SHL SUB AND PUSH2 0x2DF8 SWAP1 SWAP2 SWAP1 PUSH4 0xFFFFFFFF AND JUMP JUMPDEST DUP4 ISZERO PUSH2 0x23A5 JUMPI PUSH1 0x0 PUSH2 0x2371 DUP7 DUP5 DUP2 MLOAD DUP2 LT PUSH2 0x2359 JUMPI INVALID JUMPDEST PUSH1 0x20 MUL PUSH1 0x20 ADD ADD MLOAD PUSH2 0x18FB ADDRESS DUP11 DUP8 DUP2 MLOAD DUP2 LT PUSH2 0x20DC JUMPI INVALID JUMPDEST SWAP1 POP PUSH2 0x23A1 DUP9 PUSH2 0x21CE DUP9 DUP7 DUP2 MLOAD DUP2 LT PUSH2 0x2386 JUMPI INVALID JUMPDEST PUSH1 0x20 MUL PUSH1 0x20 ADD ADD MLOAD PUSH2 0xE4C DUP6 DUP11 PUSH2 0x2BC2 SWAP1 SWAP2 SWAP1 PUSH4 0xFFFFFFFF AND JUMP JUMPDEST SWAP8 POP POP JUMPDEST POP PUSH1 0x1 ADD PUSH2 0x21E3 JUMP JUMPDEST POP DUP2 ISZERO PUSH2 0x2478 JUMPI PUSH1 0x0 JUMPDEST DUP9 DUP2 LT ISZERO PUSH2 0x2476 JUMPI PUSH2 0x2433 DUP5 DUP3 DUP2 MLOAD DUP2 LT PUSH2 0x23CF JUMPI INVALID JUMPDEST PUSH1 0x20 MUL PUSH1 0x20 ADD ADD MLOAD PUSH2 0x23EA DUP9 DUP7 PUSH2 0x29CB SWAP1 SWAP2 SWAP1 PUSH4 0xFFFFFFFF AND JUMP JUMPDEST DUP6 PUSH1 0xF PUSH1 0x0 DUP11 DUP8 DUP2 MLOAD DUP2 LT PUSH2 0x23FB JUMPI INVALID JUMPDEST PUSH1 0x20 MUL PUSH1 0x20 ADD ADD MLOAD PUSH1 0x1 PUSH1 0x1 PUSH1 0xA0 SHL SUB AND PUSH1 0x1 PUSH1 0x1 PUSH1 0xA0 SHL SUB AND DUP2 MSTORE PUSH1 0x20 ADD SWAP1 DUP2 MSTORE PUSH1 0x20 ADD PUSH1 0x0 KECCAK256 PUSH2 0x2D08 SWAP1 SWAP4 SWAP3 SWAP2 SWAP1 PUSH4 0xFFFFFFFF AND JUMP JUMPDEST PUSH2 0x246E DUP5 DUP3 DUP2 MLOAD DUP2 LT PUSH2 0x2442 JUMPI INVALID JUMPDEST PUSH1 0x20 MUL PUSH1 0x20 ADD ADD MLOAD PUSH2 0x245D DUP9 DUP7 PUSH2 0x29CB SWAP1 SWAP2 SWAP1 PUSH4 0xFFFFFFFF AND JUMP JUMPDEST DUP6 PUSH1 0xE PUSH1 0x0 DUP11 DUP8 DUP2 MLOAD DUP2 LT PUSH2 0x23FB JUMPI INVALID JUMPDEST PUSH1 0x1 ADD PUSH2 0x23B8 JUMP JUMPDEST POP JUMPDEST PUSH1 0x0 DUP6 GT PUSH2 0x24CD JUMPI PUSH1 0x40 DUP1 MLOAD PUSH3 0x461BCD PUSH1 0xE5 SHL DUP2 MSTORE PUSH1 0x20 PUSH1 0x4 DUP3 ADD MSTORE PUSH1 0x1F PUSH1 0x24 DUP3 ADD MSTORE PUSH32 0x4D6F6F6E69737761703A20726573756C74206973206E6F7420656E6F75676800 PUSH1 0x44 DUP3 ADD MSTORE SWAP1 MLOAD SWAP1 DUP2 SWAP1 SUB PUSH1 0x64 ADD SWAP1 REVERT JUMPDEST PUSH2 0x24D7 CALLER DUP7 PUSH2 0x2F7C JUMP JUMPDEST PUSH1 0x40 DUP1 MLOAD DUP7 DUP2 MSTORE SWAP1 MLOAD CALLER SWAP2 PUSH32 0x2DA466A7B24304F47E87FA2E1E5A81B9831CE54FEC19055CE277CA2F39BA42C4 SWAP2 SWAP1 DUP2 SWAP1 SUB PUSH1 0x20 ADD SWAP1 LOG2 POP POP PUSH1 0x1 PUSH1 0x6 SSTORE POP SWAP1 SWAP6 SWAP5 POP POP POP POP POP JUMP JUMPDEST PUSH2 0x2527 PUSH2 0x262A JUMP JUMPDEST PUSH1 0x7 SLOAD PUSH1 0x1 PUSH1 0x1 PUSH1 0xA0 SHL SUB SWAP1 DUP2 AND SWAP2 AND EQ PUSH2 0x2589 JUMPI PUSH1 0x40 DUP1 MLOAD PUSH3 0x461BCD PUSH1 0xE5 SHL DUP2 MSTORE PUSH1 0x20 PUSH1 0x4 DUP3 ADD DUP2 SWAP1 MSTORE PUSH1 0x24 DUP3 ADD MSTORE PUSH32 0x4F776E61626C653A2063616C6C6572206973206E6F7420746865206F776E6572 PUSH1 0x44 DUP3 ADD MSTORE SWAP1 MLOAD SWAP1 DUP2 SWAP1 SUB PUSH1 0x64 ADD SWAP1 REVERT JUMPDEST PUSH1 0x1 PUSH1 0x1 PUSH1 0xA0 SHL SUB DUP2 AND PUSH2 0x25CE JUMPI PUSH1 0x40 MLOAD PUSH3 0x461BCD PUSH1 0xE5 SHL DUP2 MSTORE PUSH1 0x4 ADD DUP1 DUP1 PUSH1 0x20 ADD DUP3 DUP2 SUB DUP3 MSTORE PUSH1 0x26 DUP2 MSTORE PUSH1 0x20 ADD DUP1 PUSH2 0x34DE PUSH1 0x26 SWAP2 CODECOPY PUSH1 0x40 ADD SWAP2 POP POP PUSH1 0x40 MLOAD DUP1 SWAP2 SUB SWAP1 REVERT JUMPDEST PUSH1 0x7 SLOAD PUSH1 0x40 MLOAD PUSH1 0x1 PUSH1 0x1 PUSH1 0xA0 SHL SUB DUP1 DUP5 AND SWAP3 AND SWAP1 PUSH32 0x8BE0079C531659141344CD1FD0A4F28419497F9722A3DAAFE3B4186F6B6457E0 SWAP1 PUSH1 0x0 SWAP1 LOG3 PUSH1 0x7 DUP1 SLOAD PUSH1 0x1 PUSH1 0x1 PUSH1 0xA0 SHL SUB NOT AND PUSH1 0x1 PUSH1 0x1 PUSH1 0xA0 SHL SUB SWAP3 SWAP1 SWAP3 AND SWAP2 SWAP1 SWAP2 OR SWAP1 SSTORE JUMP JUMPDEST CALLER SWAP1 JUMP JUMPDEST PUSH1 0x1 PUSH1 0x1 PUSH1 0xA0 SHL SUB DUP4 AND PUSH2 0x2673 JUMPI PUSH1 0x40 MLOAD PUSH3 0x461BCD PUSH1 0xE5 SHL DUP2 MSTORE PUSH1 0x4 ADD DUP1 DUP1 PUSH1 0x20 ADD DUP3 DUP2 SUB DUP3 MSTORE PUSH1 0x24 DUP2 MSTORE PUSH1 0x20 ADD DUP1 PUSH2 0x35DB PUSH1 0x24 SWAP2 CODECOPY PUSH1 0x40 ADD SWAP2 POP POP PUSH1 0x40 MLOAD DUP1 SWAP2 SUB SWAP1 REVERT JUMPDEST PUSH1 0x1 PUSH1 0x1 PUSH1 0xA0 SHL SUB DUP3 AND PUSH2 0x26B8 JUMPI PUSH1 0x40 MLOAD PUSH3 0x461BCD PUSH1 0xE5 SHL DUP2 MSTORE PUSH1 0x4 ADD DUP1 DUP1 PUSH1 0x20 ADD DUP3 DUP2 SUB DUP3 MSTORE PUSH1 0x22 DUP2 MSTORE PUSH1 0x20 ADD DUP1 PUSH2 0x3504 PUSH1 0x22 SWAP2 CODECOPY PUSH1 0x40 ADD SWAP2 POP POP PUSH1 0x40 MLOAD DUP1 SWAP2 SUB SWAP1 REVERT JUMPDEST PUSH1 0x1 PUSH1 0x1 PUSH1 0xA0 SHL SUB DUP1 DUP5 AND PUSH1 0x0 DUP2 DUP2 MSTORE PUSH1 0x1 PUSH1 0x20 SWAP1 DUP2 MSTORE PUSH1 0x40 DUP1 DUP4 KECCAK256 SWAP5 DUP8 AND DUP1 DUP5 MSTORE SWAP5 DUP3 MSTORE SWAP2 DUP3 SWAP1 KECCAK256 DUP6 SWAP1 SSTORE DUP2 MLOAD DUP6 DUP2 MSTORE SWAP2 MLOAD PUSH32 0x8C5BE1E5EBEC7D5BD14F71427D1E84F3DD0314C0F7B2291E5B200AC8C7C3B925 SWAP3 DUP2 SWAP1 SUB SWAP1 SWAP2 ADD SWAP1 LOG3 POP POP POP JUMP JUMPDEST PUSH1 0x1 PUSH1 0x1 PUSH1 0xA0 SHL SUB DUP6 AND PUSH1 0x0 SWAP1 DUP2 MSTORE PUSH1 0xC PUSH1 0x20 MSTORE PUSH1 0x40 DUP2 KECCAK256 SLOAD PUSH1 0xFF AND DUP1 ISZERO PUSH2 0x275A JUMPI POP PUSH1 0x1 PUSH1 0x1 PUSH1 0xA0 SHL SUB DUP6 AND PUSH1 0x0 SWAP1 DUP2 MSTORE PUSH1 0xC PUSH1 0x20 MSTORE PUSH1 0x40 SWAP1 KECCAK256 SLOAD PUSH1 0xFF AND JUMPDEST DUP1 ISZERO PUSH2 0x2778 JUMPI POP DUP5 PUSH1 0x1 PUSH1 0x1 PUSH1 0xA0 SHL SUB AND DUP7 PUSH1 0x1 PUSH1 0x1 PUSH1 0xA0 SHL SUB AND EQ ISZERO JUMPDEST DUP1 ISZERO PUSH2 0x2784 JUMPI POP PUSH1 0x0 DUP5 GT JUMPDEST ISZERO PUSH2 0x27D0 JUMPI PUSH1 0x0 PUSH2 0x27B3 PUSH2 0x27AC PUSH8 0xDE0B6B3A7640000 PUSH2 0xE4C PUSH2 0x27A5 PUSH2 0x1DAB JUMP JUMPDEST DUP10 SWAP1 PUSH2 0x2BC2 JUMP JUMPDEST DUP7 SWAP1 PUSH2 0x2CC6 JUMP JUMPDEST SWAP1 POP PUSH2 0x27CC PUSH2 0x27C2 DUP6 DUP4 PUSH2 0x29CB JUMP JUMPDEST PUSH2 0xE4C DUP4 DUP7 PUSH2 0x2BC2 JUMP JUMPDEST SWAP2 POP POP JUMPDEST SWAP6 SWAP5 POP POP POP POP POP JUMP JUMPDEST PUSH1 0x1 PUSH1 0x1 PUSH1 0xA0 SHL SUB DUP4 AND PUSH2 0x281E JUMPI PUSH1 0x40 MLOAD PUSH3 0x461BCD PUSH1 0xE5 SHL DUP2 MSTORE PUSH1 0x4 ADD DUP1 DUP1 PUSH1 0x20 ADD DUP3 DUP2 SUB DUP3 MSTORE PUSH1 0x25 DUP2 MSTORE PUSH1 0x20 ADD DUP1 PUSH2 0x35B6 PUSH1 0x25 SWAP2 CODECOPY PUSH1 0x40 ADD SWAP2 POP POP PUSH1 0x40 MLOAD DUP1 SWAP2 SUB SWAP1 REVERT JUMPDEST PUSH1 0x1 PUSH1 0x1 PUSH1 0xA0 SHL SUB DUP3 AND PUSH2 0x2863 JUMPI PUSH1 0x40 MLOAD PUSH3 0x461BCD PUSH1 0xE5 SHL DUP2 MSTORE PUSH1 0x4 ADD DUP1 DUP1 PUSH1 0x20 ADD DUP3 DUP2 SUB DUP3 MSTORE PUSH1 0x23 DUP2 MSTORE PUSH1 0x20 ADD DUP1 PUSH2 0x3479 PUSH1 0x23 SWAP2 CODECOPY PUSH1 0x40 ADD SWAP2 POP POP PUSH1 0x40 MLOAD DUP1 SWAP2 SUB SWAP1 REVERT JUMPDEST PUSH2 0x286E DUP4 DUP4 DUP4 PUSH2 0x2CC1 JUMP JUMPDEST PUSH2 0x28AB DUP2 PUSH1 0x40 MLOAD DUP1 PUSH1 0x60 ADD PUSH1 0x40 MSTORE DUP1 PUSH1 0x26 DUP2 MSTORE PUSH1 0x20 ADD PUSH2 0x3526 PUSH1 0x26 SWAP2 CODECOPY PUSH1 0x1 PUSH1 0x1 PUSH1 0xA0 SHL SUB DUP7 AND PUSH1 0x0 SWAP1 DUP2 MSTORE PUSH1 0x20 DUP2 SWAP1 MSTORE PUSH1 0x40 SWAP1 KECCAK256 SLOAD SWAP2 SWAP1 PUSH2 0x2934 JUMP JUMPDEST PUSH1 0x1 PUSH1 0x1 PUSH1 0xA0 SHL SUB DUP1 DUP6 AND PUSH1 0x0 SWAP1 DUP2 MSTORE PUSH1 0x20 DUP2 SWAP1 MSTORE PUSH1 0x40 DUP1 DUP3 KECCAK256 SWAP4 SWAP1 SWAP4 SSTORE SWAP1 DUP5 AND DUP2 MSTORE KECCAK256 SLOAD PUSH2 0x28DA SWAP1 DUP3 PUSH2 0x29CB JUMP JUMPDEST PUSH1 0x1 PUSH1 0x1 PUSH1 0xA0 SHL SUB DUP1 DUP5 AND PUSH1 0x0 DUP2 DUP2 MSTORE PUSH1 0x20 DUP2 DUP2 MSTORE PUSH1 0x40 SWAP2 DUP3 SWAP1 KECCAK256 SWAP5 SWAP1 SWAP5 SSTORE DUP1 MLOAD DUP6 DUP2 MSTORE SWAP1 MLOAD SWAP2 SWAP4 SWAP3 DUP8 AND SWAP3 PUSH32 0xDDF252AD1BE2C89B69C2B068FC378DAA952BA7F163C4A11628F55A4DF523B3EF SWAP3 SWAP2 DUP3 SWAP1 SUB ADD SWAP1 LOG3 POP POP POP JUMP JUMPDEST PUSH1 0x0 DUP2 DUP5 DUP5 GT ISZERO PUSH2 0x29C3 JUMPI PUSH1 0x40 MLOAD PUSH3 0x461BCD PUSH1 0xE5 SHL DUP2 MSTORE PUSH1 0x4 ADD DUP1 DUP1 PUSH1 0x20 ADD DUP3 DUP2 SUB DUP3 MSTORE DUP4 DUP2 DUP2 MLOAD DUP2 MSTORE PUSH1 0x20 ADD SWAP2 POP DUP1 MLOAD SWAP1 PUSH1 0x20 ADD SWAP1 DUP1 DUP4 DUP4 PUSH1 0x0 JUMPDEST DUP4 DUP2 LT ISZERO PUSH2 0x2988 JUMPI DUP2 DUP2 ADD MLOAD DUP4 DUP3 ADD MSTORE PUSH1 0x20 ADD PUSH2 0x2970 JUMP JUMPDEST POP POP POP POP SWAP1 POP SWAP1 DUP2 ADD SWAP1 PUSH1 0x1F AND DUP1 ISZERO PUSH2 0x29B5 JUMPI DUP1 DUP3 SUB DUP1 MLOAD PUSH1 0x1 DUP4 PUSH1 0x20 SUB PUSH2 0x100 EXP SUB NOT AND DUP2 MSTORE PUSH1 0x20 ADD SWAP2 POP JUMPDEST POP SWAP3 POP POP POP PUSH1 0x40 MLOAD DUP1 SWAP2 SUB SWAP1 REVERT JUMPDEST POP POP POP SWAP1 SUB SWAP1 JUMP JUMPDEST PUSH1 0x0 DUP3 DUP3 ADD DUP4 DUP2 LT ISZERO PUSH2 0x1D79 JUMPI PUSH1 0x40 DUP1 MLOAD PUSH3 0x461BCD PUSH1 0xE5 SHL DUP2 MSTORE PUSH1 0x20 PUSH1 0x4 DUP3 ADD MSTORE PUSH1 0x1B PUSH1 0x24 DUP3 ADD MSTORE PUSH32 0x536166654D6174683A206164646974696F6E206F766572666C6F770000000000 PUSH1 0x44 DUP3 ADD MSTORE SWAP1 MLOAD SWAP1 DUP2 SWAP1 SUB PUSH1 0x64 ADD SWAP1 REVERT JUMPDEST PUSH1 0x1 PUSH1 0x1 PUSH1 0xA0 SHL SUB DUP3 AND PUSH2 0x2A6A JUMPI PUSH1 0x40 MLOAD PUSH3 0x461BCD PUSH1 0xE5 SHL DUP2 MSTORE PUSH1 0x4 ADD DUP1 DUP1 PUSH1 0x20 ADD DUP3 DUP2 SUB DUP3 MSTORE PUSH1 0x21 DUP2 MSTORE PUSH1 0x20 ADD DUP1 PUSH2 0x3595 PUSH1 0x21 SWAP2 CODECOPY PUSH1 0x40 ADD SWAP2 POP POP PUSH1 0x40 MLOAD DUP1 SWAP2 SUB SWAP1 REVERT JUMPDEST PUSH2 0x2A76 DUP3 PUSH1 0x0 DUP4 PUSH2 0x2CC1 JUMP JUMPDEST PUSH2 0x2AB3 DUP2 PUSH1 0x40 MLOAD DUP1 PUSH1 0x60 ADD PUSH1 0x40 MSTORE DUP1 PUSH1 0x22 DUP2 MSTORE PUSH1 0x20 ADD PUSH2 0x34BC PUSH1 0x22 SWAP2 CODECOPY PUSH1 0x1 PUSH1 0x1 PUSH1 0xA0 SHL SUB DUP6 AND PUSH1 0x0 SWAP1 DUP2 MSTORE PUSH1 0x20 DUP2 SWAP1 MSTORE PUSH1 0x40 SWAP1 KECCAK256 SLOAD SWAP2 SWAP1 PUSH2 0x2934 JUMP JUMPDEST PUSH1 0x1 PUSH1 0x1 PUSH1 0xA0 SHL SUB DUP4 AND PUSH1 0x0 SWAP1 DUP2 MSTORE PUSH1 0x20 DUP2 SWAP1 MSTORE PUSH1 0x40 SWAP1 KECCAK256 SSTORE PUSH1 0x2 SLOAD PUSH2 0x2AD9 SWAP1 DUP3 PUSH2 0x2CC6 JUMP JUMPDEST PUSH1 0x2 SSTORE PUSH1 0x40 DUP1 MLOAD DUP3 DUP2 MSTORE SWAP1 MLOAD PUSH1 0x0 SWAP2 PUSH1 0x1 PUSH1 0x1 PUSH1 0xA0 SHL SUB DUP6 AND SWAP2 PUSH32 0xDDF252AD1BE2C89B69C2B068FC378DAA952BA7F163C4A11628F55A4DF523B3EF SWAP2 DUP2 SWAP1 SUB PUSH1 0x20 ADD SWAP1 LOG3 POP POP JUMP JUMPDEST PUSH1 0x0 PUSH2 0x2B2C DUP4 PUSH2 0x2D64 JUMP JUMPDEST ISZERO PUSH2 0x2B42 JUMPI POP PUSH1 0x1 PUSH1 0x1 PUSH1 0xA0 SHL SUB DUP2 AND BALANCE PUSH2 0xC20 JUMP JUMPDEST DUP3 PUSH1 0x1 PUSH1 0x1 PUSH1 0xA0 SHL SUB AND PUSH4 0x70A08231 DUP4 PUSH1 0x40 MLOAD DUP3 PUSH4 0xFFFFFFFF AND PUSH1 0xE0 SHL DUP2 MSTORE PUSH1 0x4 ADD DUP1 DUP3 PUSH1 0x1 PUSH1 0x1 PUSH1 0xA0 SHL SUB AND DUP2 MSTORE PUSH1 0x20 ADD SWAP2 POP POP PUSH1 0x20 PUSH1 0x40 MLOAD DUP1 DUP4 SUB DUP2 DUP7 DUP1 EXTCODESIZE ISZERO DUP1 ISZERO PUSH2 0x2B8F JUMPI PUSH1 0x0 DUP1 REVERT JUMPDEST POP GAS STATICCALL ISZERO DUP1 ISZERO PUSH2 0x2BA3 JUMPI RETURNDATASIZE PUSH1 0x0 DUP1 RETURNDATACOPY RETURNDATASIZE PUSH1 0x0 REVERT JUMPDEST POP POP POP POP PUSH1 0x40 MLOAD RETURNDATASIZE PUSH1 0x20 DUP2 LT ISZERO PUSH2 0x2BB9 JUMPI PUSH1 0x0 DUP1 REVERT JUMPDEST POP MLOAD SWAP1 POP PUSH2 0xC20 JUMP JUMPDEST PUSH1 0x0 DUP3 PUSH2 0x2BD1 JUMPI POP PUSH1 0x0 PUSH2 0xC20 JUMP JUMPDEST DUP3 DUP3 MUL DUP3 DUP5 DUP3 DUP2 PUSH2 0x2BDE JUMPI INVALID JUMPDEST DIV EQ PUSH2 0x1D79 JUMPI PUSH1 0x40 MLOAD PUSH3 0x461BCD PUSH1 0xE5 SHL DUP2 MSTORE PUSH1 0x4 ADD DUP1 DUP1 PUSH1 0x20 ADD DUP3 DUP2 SUB DUP3 MSTORE PUSH1 0x21 DUP2 MSTORE PUSH1 0x20 ADD DUP1 PUSH2 0x354C PUSH1 0x21 SWAP2 CODECOPY PUSH1 0x40 ADD SWAP2 POP POP PUSH1 0x40 MLOAD DUP1 SWAP2 SUB SWAP1 REVERT JUMPDEST PUSH1 0x0 PUSH2 0x1D79 DUP4 DUP4 PUSH1 0x40 MLOAD DUP1 PUSH1 0x40 ADD PUSH1 0x40 MSTORE DUP1 PUSH1 0x1A DUP2 MSTORE PUSH1 0x20 ADD PUSH32 0x536166654D6174683A206469766973696F6E206279207A65726F000000000000 DUP2 MSTORE POP PUSH2 0x306C JUMP JUMPDEST DUP1 ISZERO PUSH2 0x2CC1 JUMPI PUSH2 0x2C6C DUP4 PUSH2 0x2D64 JUMP JUMPDEST ISZERO PUSH2 0x2CAD JUMPI PUSH1 0x40 MLOAD PUSH1 0x1 PUSH1 0x1 PUSH1 0xA0 SHL SUB DUP4 AND SWAP1 DUP3 ISZERO PUSH2 0x8FC MUL SWAP1 DUP4 SWAP1 PUSH1 0x0 DUP2 DUP2 DUP2 DUP6 DUP9 DUP9 CALL SWAP4 POP POP POP POP ISZERO DUP1 ISZERO PUSH2 0x2CA7 JUMPI RETURNDATASIZE PUSH1 0x0 DUP1 RETURNDATACOPY RETURNDATASIZE PUSH1 0x0 REVERT JUMPDEST POP PUSH2 0x2CC1 JUMP JUMPDEST PUSH2 0x2CC1 PUSH1 0x1 PUSH1 0x1 PUSH1 0xA0 SHL SUB DUP5 AND DUP4 DUP4 PUSH2 0x30D1 JUMP JUMPDEST POP POP POP JUMP JUMPDEST PUSH1 0x0 PUSH2 0x1D79 DUP4 DUP4 PUSH1 0x40 MLOAD DUP1 PUSH1 0x40 ADD PUSH1 0x40 MSTORE DUP1 PUSH1 0x1E DUP2 MSTORE PUSH1 0x20 ADD PUSH32 0x536166654D6174683A207375627472616374696F6E206F766572666C6F770000 DUP2 MSTORE POP PUSH2 0x2934 JUMP JUMPDEST PUSH2 0x2D5E DUP5 PUSH2 0x2D59 DUP4 PUSH2 0xE4C PUSH2 0x2D1E DUP3 PUSH1 0x1 PUSH2 0x2CC6 JUMP JUMPDEST PUSH1 0x40 DUP1 MLOAD DUP1 DUP3 ADD SWAP1 SWAP2 MSTORE DUP11 SLOAD PUSH1 0x1 PUSH1 0x1 PUSH1 0xD8 SHL SUB DUP2 AND DUP3 MSTORE PUSH1 0x1 PUSH1 0xD8 SHL SWAP1 DIV PUSH5 0xFFFFFFFFFF AND PUSH1 0x20 DUP3 ADD MSTORE PUSH2 0x228B SWAP1 DUP10 SWAP1 PUSH2 0x1BE7 SWAP1 DUP13 PUSH2 0x2D71 JUMP JUMPDEST PUSH2 0x2EBB JUMP JUMPDEST POP POP POP POP JUMP JUMPDEST PUSH1 0x1 PUSH1 0x1 PUSH1 0xA0 SHL SUB AND ISZERO SWAP1 JUMP JUMPDEST PUSH1 0x0 DUP1 PUSH2 0x2D98 PUSH2 0x12C PUSH2 0x21CE DUP7 PUSH1 0x20 ADD MLOAD PUSH5 0xFFFFFFFFFF AND TIMESTAMP PUSH2 0x2CC6 SWAP1 SWAP2 SWAP1 PUSH4 0xFFFFFFFF AND JUMP JUMPDEST SWAP1 POP PUSH1 0x0 PUSH2 0x2DA8 PUSH2 0x12C DUP4 PUSH2 0x2CC6 JUMP JUMPDEST SWAP1 POP PUSH2 0x27D0 PUSH2 0x12C PUSH2 0xE4C PUSH2 0x2DBD DUP8 DUP7 PUSH2 0x2BC2 JUMP JUMPDEST DUP9 MLOAD PUSH2 0x228B SWAP1 PUSH1 0x1 PUSH1 0x1 PUSH1 0xD8 SHL SUB AND DUP7 PUSH2 0x2BC2 JUMP JUMPDEST PUSH1 0x0 DUP2 DUP4 LT ISZERO PUSH2 0x2DE2 JUMPI DUP2 PUSH2 0x1D79 JUMP JUMPDEST POP SWAP1 SWAP2 SWAP1 POP JUMP JUMPDEST PUSH1 0x0 DUP2 DUP4 LT PUSH2 0x2DE2 JUMPI DUP2 PUSH2 0x1D79 JUMP JUMPDEST DUP1 ISZERO PUSH2 0x14E2 JUMPI PUSH2 0x2E07 DUP3 PUSH2 0x2D64 JUMP JUMPDEST ISZERO PUSH2 0x2EA6 JUMPI DUP1 CALLVALUE LT ISZERO PUSH2 0x2E61 JUMPI PUSH1 0x40 DUP1 MLOAD PUSH3 0x461BCD PUSH1 0xE5 SHL DUP2 MSTORE PUSH1 0x20 PUSH1 0x4 DUP3 ADD MSTORE PUSH1 0x1A PUSH1 0x24 DUP3 ADD MSTORE PUSH32 0x556E6945524332303A206E6F7420656E6F7567682076616C7565000000000000 PUSH1 0x44 DUP3 ADD MSTORE SWAP1 MLOAD SWAP1 DUP2 SWAP1 SUB PUSH1 0x64 ADD SWAP1 REVERT JUMPDEST DUP1 CALLVALUE GT ISZERO PUSH2 0x2EA1 JUMPI CALLER PUSH2 0x8FC PUSH2 0x2E77 CALLVALUE DUP5 PUSH2 0x2CC6 JUMP JUMPDEST PUSH1 0x40 MLOAD DUP2 ISZERO SWAP1 SWAP3 MUL SWAP2 PUSH1 0x0 DUP2 DUP2 DUP2 DUP6 DUP9 DUP9 CALL SWAP4 POP POP POP POP ISZERO DUP1 ISZERO PUSH2 0x2E9F JUMPI RETURNDATASIZE PUSH1 0x0 DUP1 RETURNDATACOPY RETURNDATASIZE PUSH1 0x0 REVERT JUMPDEST POP JUMPDEST PUSH2 0x14E2 JUMP JUMPDEST PUSH2 0x14E2 PUSH1 0x1 PUSH1 0x1 PUSH1 0xA0 SHL SUB DUP4 AND CALLER ADDRESS DUP5 PUSH2 0x3123 JUMP JUMPDEST DUP2 SLOAD PUSH1 0x1 PUSH1 0x1 PUSH1 0xD8 SHL SUB NOT AND PUSH1 0x1 PUSH1 0x1 PUSH1 0xD8 SHL SUB SWAP2 DUP3 AND OR AND PUSH1 0x1 PUSH1 0xD8 SHL TIMESTAMP PUSH5 0xFFFFFFFFFF AND MUL OR SWAP1 SSTORE JUMP JUMPDEST PUSH1 0x40 DUP1 MLOAD DUP1 DUP3 ADD SWAP1 SWAP2 MSTORE DUP3 SLOAD PUSH1 0x1 PUSH1 0x1 PUSH1 0xD8 SHL SUB DUP2 AND DUP3 MSTORE PUSH1 0x1 PUSH1 0xD8 SHL SWAP1 DIV PUSH5 0xFFFFFFFFFF AND PUSH1 0x20 DUP3 ADD MSTORE PUSH2 0x14E2 SWAP1 DUP4 SWAP1 PUSH2 0x2D59 SWAP1 DUP5 PUSH2 0x2D71 JUMP JUMPDEST PUSH1 0x0 PUSH1 0x3 DUP3 GT ISZERO PUSH2 0x2F66 JUMPI DUP2 PUSH1 0x1 PUSH1 0x2 DUP3 DIV ADD JUMPDEST DUP2 DUP2 LT ISZERO PUSH2 0x2F5E JUMPI DUP1 SWAP2 POP PUSH1 0x2 DUP2 DUP3 DUP7 DUP2 PUSH2 0x2F4D JUMPI INVALID JUMPDEST DIV ADD DUP2 PUSH2 0x2F56 JUMPI INVALID JUMPDEST DIV SWAP1 POP PUSH2 0x2F36 JUMP JUMPDEST POP SWAP1 POP PUSH2 0xFF4 JUMP JUMPDEST DUP2 ISZERO PUSH2 0x2F74 JUMPI POP PUSH1 0x1 PUSH2 0xFF4 JUMP JUMPDEST POP PUSH1 0x0 PUSH2 0xFF4 JUMP JUMPDEST PUSH1 0x1 PUSH1 0x1 PUSH1 0xA0 SHL SUB DUP3 AND PUSH2 0x2FD7 JUMPI PUSH1 0x40 DUP1 MLOAD PUSH3 0x461BCD PUSH1 0xE5 SHL DUP2 MSTORE PUSH1 0x20 PUSH1 0x4 DUP3 ADD MSTORE PUSH1 0x1F PUSH1 0x24 DUP3 ADD MSTORE PUSH32 0x45524332303A206D696E7420746F20746865207A65726F206164647265737300 PUSH1 0x44 DUP3 ADD MSTORE SWAP1 MLOAD SWAP1 DUP2 SWAP1 SUB PUSH1 0x64 ADD SWAP1 REVERT JUMPDEST PUSH2 0x2FE3 PUSH1 0x0 DUP4 DUP4 PUSH2 0x2CC1 JUMP JUMPDEST PUSH1 0x2 SLOAD PUSH2 0x2FF0 SWAP1 DUP3 PUSH2 0x29CB JUMP JUMPDEST PUSH1 0x2 SSTORE PUSH1 0x1 PUSH1 0x1 PUSH1 0xA0 SHL SUB DUP3 AND PUSH1 0x0 SWAP1 DUP2 MSTORE PUSH1 0x20 DUP2 SWAP1 MSTORE PUSH1 0x40 SWAP1 KECCAK256 SLOAD PUSH2 0x3016 SWAP1 DUP3 PUSH2 0x29CB JUMP JUMPDEST PUSH1 0x1 PUSH1 0x1 PUSH1 0xA0 SHL SUB DUP4 AND PUSH1 0x0 DUP2 DUP2 MSTORE PUSH1 0x20 DUP2 DUP2 MSTORE PUSH1 0x40 DUP1 DUP4 KECCAK256 SWAP5 SWAP1 SWAP5 SSTORE DUP4 MLOAD DUP6 DUP2 MSTORE SWAP4 MLOAD SWAP3 SWAP4 SWAP2 SWAP3 PUSH32 0xDDF252AD1BE2C89B69C2B068FC378DAA952BA7F163C4A11628F55A4DF523B3EF SWAP3 DUP2 SWAP1 SUB SWAP1 SWAP2 ADD SWAP1 LOG3 POP POP JUMP JUMPDEST PUSH1 0x0 DUP2 DUP4 PUSH2 0x30BB JUMPI PUSH1 0x40 MLOAD PUSH3 0x461BCD PUSH1 0xE5 SHL DUP2 MSTORE PUSH1 0x20 PUSH1 0x4 DUP3 ADD DUP2 DUP2 MSTORE DUP4 MLOAD PUSH1 0x24 DUP5 ADD MSTORE DUP4 MLOAD SWAP1 SWAP3 DUP4 SWAP3 PUSH1 0x44 SWAP1 SWAP2 ADD SWAP2 SWAP1 DUP6 ADD SWAP1 DUP1 DUP4 DUP4 PUSH1 0x0 DUP4 ISZERO PUSH2 0x2988 JUMPI DUP2 DUP2 ADD MLOAD DUP4 DUP3 ADD MSTORE PUSH1 0x20 ADD PUSH2 0x2970 JUMP JUMPDEST POP PUSH1 0x0 DUP4 DUP6 DUP2 PUSH2 0x30C7 JUMPI INVALID JUMPDEST DIV SWAP6 SWAP5 POP POP POP POP POP JUMP JUMPDEST PUSH1 0x40 DUP1 MLOAD PUSH1 0x1 PUSH1 0x1 PUSH1 0xA0 SHL SUB DUP5 AND PUSH1 0x24 DUP3 ADD MSTORE PUSH1 0x44 DUP1 DUP3 ADD DUP5 SWAP1 MSTORE DUP3 MLOAD DUP1 DUP4 SUB SWAP1 SWAP2 ADD DUP2 MSTORE PUSH1 0x64 SWAP1 SWAP2 ADD SWAP1 SWAP2 MSTORE PUSH1 0x20 DUP2 ADD DUP1 MLOAD PUSH1 0x1 PUSH1 0x1 PUSH1 0xE0 SHL SUB AND PUSH4 0xA9059CBB PUSH1 0xE0 SHL OR SWAP1 MSTORE PUSH2 0x2CC1 SWAP1 DUP5 SWAP1 PUSH2 0x3179 JUMP JUMPDEST PUSH1 0x40 DUP1 MLOAD PUSH1 0x1 PUSH1 0x1 PUSH1 0xA0 SHL SUB DUP1 DUP7 AND PUSH1 0x24 DUP4 ADD MSTORE DUP5 AND PUSH1 0x44 DUP3 ADD MSTORE PUSH1 0x64 DUP1 DUP3 ADD DUP5 SWAP1 MSTORE DUP3 MLOAD DUP1 DUP4 SUB SWAP1 SWAP2 ADD DUP2 MSTORE PUSH1 0x84 SWAP1 SWAP2 ADD SWAP1 SWAP2 MSTORE PUSH1 0x20 DUP2 ADD DUP1 MLOAD PUSH1 0x1 PUSH1 0x1 PUSH1 0xE0 SHL SUB AND PUSH4 0x23B872DD PUSH1 0xE0 SHL OR SWAP1 MSTORE PUSH2 0x2D5E SWAP1 DUP6 SWAP1 JUMPDEST PUSH1 0x60 PUSH2 0x31CE DUP3 PUSH1 0x40 MLOAD DUP1 PUSH1 0x40 ADD PUSH1 0x40 MSTORE DUP1 PUSH1 0x20 DUP2 MSTORE PUSH1 0x20 ADD PUSH32 0x5361666545524332303A206C6F772D6C6576656C2063616C6C206661696C6564 DUP2 MSTORE POP DUP6 PUSH1 0x1 PUSH1 0x1 PUSH1 0xA0 SHL SUB AND PUSH2 0x322A SWAP1 SWAP3 SWAP2 SWAP1 PUSH4 0xFFFFFFFF AND JUMP JUMPDEST DUP1 MLOAD SWAP1 SWAP2 POP ISZERO PUSH2 0x2CC1 JUMPI DUP1 DUP1 PUSH1 0x20 ADD SWAP1 MLOAD PUSH1 0x20 DUP2 LT ISZERO PUSH2 0x31ED JUMPI PUSH1 0x0 DUP1 REVERT JUMPDEST POP MLOAD PUSH2 0x2CC1 JUMPI PUSH1 0x40 MLOAD PUSH3 0x461BCD PUSH1 0xE5 SHL DUP2 MSTORE PUSH1 0x4 ADD DUP1 DUP1 PUSH1 0x20 ADD DUP3 DUP2 SUB DUP3 MSTORE PUSH1 0x2A DUP2 MSTORE PUSH1 0x20 ADD DUP1 PUSH2 0x35FF PUSH1 0x2A SWAP2 CODECOPY PUSH1 0x40 ADD SWAP2 POP POP PUSH1 0x40 MLOAD DUP1 SWAP2 SUB SWAP1 REVERT JUMPDEST PUSH1 0x60 PUSH2 0xC60 DUP5 DUP5 PUSH1 0x0 DUP6 PUSH1 0x60 PUSH2 0x323F DUP6 PUSH2 0x33A1 JUMP JUMPDEST PUSH2 0x3290 JUMPI PUSH1 0x40 DUP1 MLOAD PUSH3 0x461BCD PUSH1 0xE5 SHL DUP2 MSTORE PUSH1 0x20 PUSH1 0x4 DUP3 ADD MSTORE PUSH1 0x1D PUSH1 0x24 DUP3 ADD MSTORE PUSH32 0x416464726573733A2063616C6C20746F206E6F6E2D636F6E7472616374000000 PUSH1 0x44 DUP3 ADD MSTORE SWAP1 MLOAD SWAP1 DUP2 SWAP1 SUB PUSH1 0x64 ADD SWAP1 REVERT JUMPDEST PUSH1 0x0 PUSH1 0x60 DUP7 PUSH1 0x1 PUSH1 0x1 PUSH1 0xA0 SHL SUB AND DUP6 DUP8 PUSH1 0x40 MLOAD DUP1 DUP3 DUP1 MLOAD SWAP1 PUSH1 0x20 ADD SWAP1 DUP1 DUP4 DUP4 JUMPDEST PUSH1 0x20 DUP4 LT PUSH2 0x32CF JUMPI DUP1 MLOAD DUP3 MSTORE PUSH1 0x1F NOT SWAP1 SWAP3 ADD SWAP2 PUSH1 0x20 SWAP2 DUP3 ADD SWAP2 ADD PUSH2 0x32B0 JUMP JUMPDEST PUSH1 0x1 DUP4 PUSH1 0x20 SUB PUSH2 0x100 EXP SUB DUP1 NOT DUP3 MLOAD AND DUP2 DUP5 MLOAD AND DUP1 DUP3 OR DUP6 MSTORE POP POP POP POP POP POP SWAP1 POP ADD SWAP2 POP POP PUSH1 0x0 PUSH1 0x40 MLOAD DUP1 DUP4 SUB DUP2 DUP6 DUP8 GAS CALL SWAP3 POP POP POP RETURNDATASIZE DUP1 PUSH1 0x0 DUP2 EQ PUSH2 0x3331 JUMPI PUSH1 0x40 MLOAD SWAP2 POP PUSH1 0x1F NOT PUSH1 0x3F RETURNDATASIZE ADD AND DUP3 ADD PUSH1 0x40 MSTORE RETURNDATASIZE DUP3 MSTORE RETURNDATASIZE PUSH1 0x0 PUSH1 0x20 DUP5 ADD RETURNDATACOPY PUSH2 0x3336 JUMP JUMPDEST PUSH1 0x60 SWAP2 POP JUMPDEST POP SWAP2 POP SWAP2 POP DUP2 ISZERO PUSH2 0x334A JUMPI SWAP2 POP PUSH2 0xC60 SWAP1 POP JUMP JUMPDEST DUP1 MLOAD ISZERO PUSH2 0x335A JUMPI DUP1 MLOAD DUP1 DUP3 PUSH1 0x20 ADD REVERT JUMPDEST PUSH1 0x40 MLOAD PUSH3 0x461BCD PUSH1 0xE5 SHL DUP2 MSTORE PUSH1 0x20 PUSH1 0x4 DUP3 ADD DUP2 DUP2 MSTORE DUP7 MLOAD PUSH1 0x24 DUP5 ADD MSTORE DUP7 MLOAD DUP8 SWAP4 SWAP2 SWAP3 DUP4 SWAP3 PUSH1 0x44 ADD SWAP2 SWAP1 DUP6 ADD SWAP1 DUP1 DUP4 DUP4 PUSH1 0x0 DUP4 ISZERO PUSH2 0x2988 JUMPI DUP2 DUP2 ADD MLOAD DUP4 DUP3 ADD MSTORE PUSH1 0x20 ADD PUSH2 0x2970 JUMP JUMPDEST PUSH1 0x0 DUP2 EXTCODEHASH PUSH32 0xC5D2460186F7233C927E7DB2DCC703C0E500B653CA82273B7BFAD8045D85A470 DUP2 DUP2 EQ DUP1 ISZERO SWAP1 PUSH2 0xC60 JUMPI POP POP ISZERO ISZERO SWAP3 SWAP2 POP POP JUMP JUMPDEST DUP3 DUP1 SLOAD DUP3 DUP3 SSTORE SWAP1 PUSH1 0x0 MSTORE PUSH1 0x20 PUSH1 0x0 KECCAK256 SWAP1 DUP2 ADD SWAP3 DUP3 ISZERO PUSH2 0x342F JUMPI SWAP2 PUSH1 0x20 MUL DUP3 ADD JUMPDEST DUP3 DUP2 GT ISZERO PUSH2 0x342F JUMPI DUP3 MLOAD DUP3 SLOAD PUSH1 0x1 PUSH1 0x1 PUSH1 0xA0 SHL SUB NOT AND PUSH1 0x1 PUSH1 0x1 PUSH1 0xA0 SHL SUB SWAP1 SWAP2 AND OR DUP3 SSTORE PUSH1 0x20 SWAP1 SWAP3 ADD SWAP2 PUSH1 0x1 SWAP1 SWAP2 ADD SWAP1 PUSH2 0x33FA JUMP JUMPDEST POP PUSH2 0x343B SWAP3 SWAP2 POP PUSH2 0x3459 JUMP JUMPDEST POP SWAP1 JUMP JUMPDEST PUSH1 0x40 MLOAD DUP1 PUSH1 0x40 ADD PUSH1 0x40 MSTORE DUP1 PUSH1 0x0 DUP2 MSTORE PUSH1 0x20 ADD PUSH1 0x0 DUP2 MSTORE POP SWAP1 JUMP JUMPDEST JUMPDEST DUP1 DUP3 GT ISZERO PUSH2 0x343B JUMPI DUP1 SLOAD PUSH1 0x1 PUSH1 0x1 PUSH1 0xA0 SHL SUB NOT AND DUP2 SSTORE PUSH1 0x1 ADD PUSH2 0x345A JUMP INVALID GASLIMIT MSTORE NUMBER ORIGIN ADDRESS GASPRICE KECCAK256 PUSH21 0x72616E7366657220746F20746865207A65726F2061 PUSH5 0x6472657373 MSTORE PUSH6 0x656E7472616E PUSH4 0x79477561 PUSH19 0x643A207265656E7472616E742063616C6C0045 MSTORE NUMBER ORIGIN ADDRESS GASPRICE KECCAK256 PUSH3 0x75726E KECCAK256 PUSH2 0x6D6F PUSH22 0x6E7420657863656564732062616C616E63654F776E61 PUSH3 0x6C653A KECCAK256 PUSH15 0x6577206F776E657220697320746865 KECCAK256 PUSH27 0x65726F206164647265737345524332303A20617070726F76652074 PUSH16 0x20746865207A65726F20616464726573 PUSH20 0x45524332303A207472616E7366657220616D6F75 PUSH15 0x7420657863656564732062616C616E PUSH4 0x65536166 PUSH6 0x4D6174683A20 PUSH14 0x756C7469706C69636174696F6E20 PUSH16 0x766572666C6F7745524332303A207472 PUSH2 0x6E73 PUSH7 0x657220616D6F75 PUSH15 0x74206578636565647320616C6C6F77 PUSH2 0x6E63 PUSH6 0x45524332303A KECCAK256 PUSH3 0x75726E KECCAK256 PUSH7 0x726F6D20746865 KECCAK256 PUSH27 0x65726F206164647265737345524332303A207472616E7366657220 PUSH7 0x726F6D20746865 KECCAK256 PUSH27 0x65726F206164647265737345524332303A20617070726F76652066 PUSH19 0x6F6D20746865207A65726F2061646472657373 MSTORE8 PUSH2 0x6665 GASLIMIT MSTORE NUMBER ORIGIN ADDRESS GASPRICE KECCAK256 GASLIMIT MSTORE NUMBER ORIGIN ADDRESS KECCAK256 PUSH16 0x7065726174696F6E20646964206E6F74 KECCAK256 PUSH20 0x75636365656445524332303A2064656372656173 PUSH6 0x6420616C6C6F PUSH24 0x616E63652062656C6F77207A65726FA26469706673582212 KECCAK256 0xC5 PUSH11 0x9D4F729C91522386BEA105 0xD1 MSTORE SWAP8 0xAE SELFBALANCE STATICCALL SMOD 0xB7 SELFBALANCE 0xC7 0xD TIMESTAMP CALLER 0xE3 SIGNEXTEND PUSH28 0xD1E7BE64736F6C634300060C00330000000000000000000000000000 "
				},
				"gasEstimates": {
					"creation": {
						"codeDepositCost": "2791000",
						"executionCost": "infinite",
						"totalCost": "infinite"
					},
					"external": {
						"BASE_SUPPLY()": "331",
						"DOMAIN_SEPARATOR()": "1132",
						"FEE_DENOMINATOR()": "309",
						"PERMIT_TYPEHASH()": "288",
						"REFERRAL_SHARE()": "309",
						"allowance(address,address)": "1294",
						"approve(address,uint256)": "infinite",
						"balanceOf(address)": "1221",
						"decayPeriod()": "266",
						"decimals()": "1125",
						"decreaseAllowance(address,uint256)": "infinite",
						"deposit(uint256[],uint256[])": "infinite",
						"factory()": "1082",
						"fee()": "infinite",
						"getBalanceForAddition(address)": "infinite",
						"getBalanceForRemoval(address)": "infinite",
						"getReturn(address,address,uint256)": "infinite",
						"getTokens()": "infinite",
						"increaseAllowance(address,uint256)": "infinite",
						"initialize(address[])": "infinite",
						"isToken(address)": "1249",
						"name()": "infinite",
						"nonces(address)": "1257",
						"owner()": "1083",
						"permit(address,address,uint256,uint256,uint8,bytes32,bytes32)": "infinite",
						"renounceOwnership()": "24290",
						"rescueFunds(address,uint256)": "infinite",
						"swap(address,address,uint256,uint256,address)": "infinite",
						"symbol()": "infinite",
						"tokens(uint256)": "2060",
						"totalSupply()": "1089",
						"transfer(address,uint256)": "infinite",
						"transferFrom(address,address,uint256)": "infinite",
						"transferOwnership(address)": "infinite",
						"virtualBalancesForAddition(address)": "1264",
						"virtualBalancesForRemoval(address)": "1353",
						"volumes(address)": "1323",
						"withdraw(uint256,uint256[])": "infinite"
					},
					"internal": {
						"_getReturn(contract IERC20,contract IERC20,uint256,uint256,uint256)": "infinite"
					}
				},
				"methodIdentifiers": {
					"BASE_SUPPLY()": "baf13a0a",
					"DOMAIN_SEPARATOR()": "3644e515",
					"FEE_DENOMINATOR()": "d73792a9",
					"PERMIT_TYPEHASH()": "30adf81f",
					"REFERRAL_SHARE()": "b21b5a21",
					"allowance(address,address)": "dd62ed3e",
					"approve(address,uint256)": "095ea7b3",
					"balanceOf(address)": "70a08231",
					"decayPeriod()": "48d67e1b",
					"decimals()": "313ce567",
					"decreaseAllowance(address,uint256)": "a457c2d7",
					"deposit(uint256[],uint256[])": "f223885a",
					"factory()": "c45a0155",
					"fee()": "ddca3f43",
					"getBalanceForAddition(address)": "d7d3aab5",
					"getBalanceForRemoval(address)": "e7ff42c9",
					"getReturn(address,address,uint256)": "1e1401f8",
					"getTokens()": "aa6ca808",
					"increaseAllowance(address,uint256)": "39509351",
					"initialize(address[])": "a224cee7",
					"isToken(address)": "19f37361",
					"name()": "06fdde03",
					"nonces(address)": "7ecebe00",
					"owner()": "8da5cb5b",
					"permit(address,address,uint256,uint256,uint8,bytes32,bytes32)": "d505accf",
					"renounceOwnership()": "715018a6",
					"rescueFunds(address,uint256)": "78e3214f",
					"swap(address,address,uint256,uint256,address)": "d5bcb9b5",
					"symbol()": "95d89b41",
					"tokens(uint256)": "4f64b2be",
					"totalSupply()": "18160ddd",
					"transfer(address,uint256)": "a9059cbb",
					"transferFrom(address,address,uint256)": "23b872dd",
					"transferOwnership(address)": "f2fde38b",
					"virtualBalancesForAddition(address)": "6edc2c09",
					"virtualBalancesForRemoval(address)": "5ed9156d",
					"volumes(address)": "b1ec4c40",
					"withdraw(uint256,uint256[])": "5915d806"
				}
			},
			"storageLayout": {
				"storage": [
					{
						"astId": 421,
						"contract": "contracts/Mooniswap.sol:Mooniswap",
						"label": "_balances",
						"offset": 0,
						"slot": "0",
						"type": "t_mapping(t_address,t_uint256)"
					},
					{
						"astId": 427,
						"contract": "contracts/Mooniswap.sol:Mooniswap",
						"label": "_allowances",
						"offset": 0,
						"slot": "1",
						"type": "t_mapping(t_address,t_mapping(t_address,t_uint256))"
					},
					{
						"astId": 429,
						"contract": "contracts/Mooniswap.sol:Mooniswap",
						"label": "_totalSupply",
						"offset": 0,
						"slot": "2",
						"type": "t_uint256"
					},
					{
						"astId": 431,
						"contract": "contracts/Mooniswap.sol:Mooniswap",
						"label": "_name",
						"offset": 0,
						"slot": "3",
						"type": "t_string_storage"
					},
					{
						"astId": 433,
						"contract": "contracts/Mooniswap.sol:Mooniswap",
						"label": "_symbol",
						"offset": 0,
						"slot": "4",
						"type": "t_string_storage"
					},
					{
						"astId": 435,
						"contract": "contracts/Mooniswap.sol:Mooniswap",
						"label": "_decimals",
						"offset": 0,
						"slot": "5",
						"type": "t_uint8"
					},
					{
						"astId": 1413,
						"contract": "contracts/Mooniswap.sol:Mooniswap",
						"label": "_status",
						"offset": 0,
						"slot": "6",
						"type": "t_uint256"
					},
					{
						"astId": 30,
						"contract": "contracts/Mooniswap.sol:Mooniswap",
						"label": "_owner",
						"offset": 0,
						"slot": "7",
						"type": "t_address"
					},
					{
						"astId": 1663,
						"contract": "contracts/Mooniswap.sol:Mooniswap",
						"label": "DOMAIN_SEPARATOR",
						"offset": 0,
						"slot": "8",
						"type": "t_bytes32"
					},
					{
						"astId": 1668,
						"contract": "contracts/Mooniswap.sol:Mooniswap",
						"label": "factory",
						"offset": 0,
						"slot": "9",
						"type": "t_contract(IFactory)1457"
					},
					{
						"astId": 1671,
						"contract": "contracts/Mooniswap.sol:Mooniswap",
						"label": "tokens",
						"offset": 0,
						"slot": "10",
						"type": "t_array(t_contract(IERC20)985)dyn_storage"
					},
					{
						"astId": 1675,
						"contract": "contracts/Mooniswap.sol:Mooniswap",
						"label": "nonces",
						"offset": 0,
						"slot": "11",
						"type": "t_mapping(t_address,t_uint256)"
					},
					{
						"astId": 1679,
						"contract": "contracts/Mooniswap.sol:Mooniswap",
						"label": "isToken",
						"offset": 0,
						"slot": "12",
						"type": "t_mapping(t_contract(IERC20)985,t_bool)"
					},
					{
						"astId": 1683,
						"contract": "contracts/Mooniswap.sol:Mooniswap",
						"label": "volumes",
						"offset": 0,
						"slot": "13",
						"type": "t_mapping(t_contract(IERC20)985,t_struct(SwapVolumes)1620_storage)"
					},
					{
						"astId": 1687,
						"contract": "contracts/Mooniswap.sol:Mooniswap",
						"label": "virtualBalancesForAddition",
						"offset": 0,
						"slot": "14",
						"type": "t_mapping(t_contract(IERC20)985,t_struct(Data)1465_storage)"
					},
					{
						"astId": 1691,
						"contract": "contracts/Mooniswap.sol:Mooniswap",
						"label": "virtualBalancesForRemoval",
						"offset": 0,
						"slot": "15",
						"type": "t_mapping(t_contract(IERC20)985,t_struct(Data)1465_storage)"
					}
				],
				"types": {
					"t_address": {
						"encoding": "inplace",
						"label": "address",
						"numberOfBytes": "20"
					},
					"t_array(t_contract(IERC20)985)dyn_storage": {
						"base": "t_contract(IERC20)985",
						"encoding": "dynamic_array",
						"label": "contract IERC20[]",
						"numberOfBytes": "32"
					},
					"t_bool": {
						"encoding": "inplace",
						"label": "bool",
						"numberOfBytes": "1"
					},
					"t_bytes32": {
						"encoding": "inplace",
						"label": "bytes32",
						"numberOfBytes": "32"
					},
					"t_contract(IERC20)985": {
						"encoding": "inplace",
						"label": "contract IERC20",
						"numberOfBytes": "20"
					},
					"t_contract(IFactory)1457": {
						"encoding": "inplace",
						"label": "contract IFactory",
						"numberOfBytes": "20"
					},
					"t_mapping(t_address,t_mapping(t_address,t_uint256))": {
						"encoding": "mapping",
						"key": "t_address",
						"label": "mapping(address => mapping(address => uint256))",
						"numberOfBytes": "32",
						"value": "t_mapping(t_address,t_uint256)"
					},
					"t_mapping(t_address,t_uint256)": {
						"encoding": "mapping",
						"key": "t_address",
						"label": "mapping(address => uint256)",
						"numberOfBytes": "32",
						"value": "t_uint256"
					},
					"t_mapping(t_contract(IERC20)985,t_bool)": {
						"encoding": "mapping",
						"key": "t_contract(IERC20)985",
						"label": "mapping(contract IERC20 => bool)",
						"numberOfBytes": "32",
						"value": "t_bool"
					},
					"t_mapping(t_contract(IERC20)985,t_struct(Data)1465_storage)": {
						"encoding": "mapping",
						"key": "t_contract(IERC20)985",
						"label": "mapping(contract IERC20 => struct VirtualBalance.Data)",
						"numberOfBytes": "32",
						"value": "t_struct(Data)1465_storage"
					},
					"t_mapping(t_contract(IERC20)985,t_struct(SwapVolumes)1620_storage)": {
						"encoding": "mapping",
						"key": "t_contract(IERC20)985",
						"label": "mapping(contract IERC20 => struct Mooniswap.SwapVolumes)",
						"numberOfBytes": "32",
						"value": "t_struct(SwapVolumes)1620_storage"
					},
					"t_string_storage": {
						"encoding": "bytes",
						"label": "string",
						"numberOfBytes": "32"
					},
					"t_struct(Data)1465_storage": {
						"encoding": "inplace",
						"label": "struct VirtualBalance.Data",
						"members": [
							{
								"astId": 1462,
								"contract": "contracts/Mooniswap.sol:Mooniswap",
								"label": "balance",
								"offset": 0,
								"slot": "0",
								"type": "t_uint216"
							},
							{
								"astId": 1464,
								"contract": "contracts/Mooniswap.sol:Mooniswap",
								"label": "time",
								"offset": 27,
								"slot": "0",
								"type": "t_uint40"
							}
						],
						"numberOfBytes": "32"
					},
					"t_struct(SwapVolumes)1620_storage": {
						"encoding": "inplace",
						"label": "struct Mooniswap.SwapVolumes",
						"members": [
							{
								"astId": 1617,
								"contract": "contracts/Mooniswap.sol:Mooniswap",
								"label": "confirmed",
								"offset": 0,
								"slot": "0",
								"type": "t_uint128"
							},
							{
								"astId": 1619,
								"contract": "contracts/Mooniswap.sol:Mooniswap",
								"label": "result",
								"offset": 16,
								"slot": "0",
								"type": "t_uint128"
							}
						],
						"numberOfBytes": "32"
					},
					"t_uint128": {
						"encoding": "inplace",
						"label": "uint128",
						"numberOfBytes": "16"
					},
					"t_uint216": {
						"encoding": "inplace",
						"label": "uint216",
						"numberOfBytes": "27"
					},
					"t_uint256": {
						"encoding": "inplace",
						"label": "uint256",
						"numberOfBytes": "32"
					},
					"t_uint40": {
						"encoding": "inplace",
						"label": "uint40",
						"numberOfBytes": "5"
					},
					"t_uint8": {
						"encoding": "inplace",
						"label": "uint8",
						"numberOfBytes": "1"
					}
				}
			},
			"userdoc": {
				"kind": "user",
				"methods": {},
				"version": 1
			}
		}
	}
}