{
	"contracts/Mooniswap.sol": {
		"VirtualBalance": {
			"abi": [
				{
					"inputs": [],
					"name": "DECAY_PERIOD",
					"outputs": [
						{
							"internalType": "uint256",
							"name": "",
							"type": "uint256"
						}
					],
					"stateMutability": "view",
					"type": "function"
				}
			],
			"devdoc": {
				"kind": "dev",
				"methods": {},
				"version": 1
			},
			"evm": {
				"assembly": "    /* \"contracts/Mooniswap.sol\":471:1558  library VirtualBalance {... */\n  dataSize(sub_0)\n  dataOffset(sub_0)\n  0x0b\n  dup3\n  dup3\n  dup3\n  codecopy\n  dup1\n  mload\n  0x00\n  byte\n  0x73\n  eq\n  tag_1\n  jumpi\n  invalid\ntag_1:\n  mstore(0x00, address)\n  0x73\n  dup2\n  mstore8\n  dup3\n  dup2\n  return\nstop\n\nsub_0: assembly {\n        /* \"contracts/Mooniswap.sol\":471:1558  library VirtualBalance {... */\n      eq(address, deployTimeAddress())\n      mstore(0x40, 0x80)\n      jumpi(tag_1, lt(calldatasize, 0x04))\n      shr(0xe0, calldataload(0x00))\n      dup1\n      0x1e9d4904\n      eq\n      tag_2\n      jumpi\n    tag_1:\n      0x00\n      dup1\n      revert\n        /* \"contracts/Mooniswap.sol\":604:652  uint256 public constant DECAY_PERIOD = 5 minutes */\n    tag_2:\n      tag_3\n      tag_4\n      jump\t// in\n    tag_3:\n      0x40\n      dup1\n      mload\n      swap2\n      dup3\n      mstore\n      mload\n      swap1\n      dup2\n      swap1\n      sub\n      0x20\n      add\n      swap1\n      return\n    tag_4:\n        /* \"contracts/Mooniswap.sol\":643:652  5 minutes */\n      0x012c\n        /* \"contracts/Mooniswap.sol\":604:652  uint256 public constant DECAY_PERIOD = 5 minutes */\n      dup2\n      jump\t// out\n\n    auxdata: 0xa26469706673582212200e498a611e0b463bcdcc2967589c64b9d6b317b90c2775ced29c4649dffafff264736f6c634300060c0033\n}\n",
				"bytecode": {
					"linkReferences": {},
					"object": "608c610024600b82828239805160001a607314601757fe5b30600052607381538281f3fe730000000000000000000000000000000000000000301460806040526004361060335760003560e01c80631e9d4904146038575b600080fd5b603e6050565b60408051918252519081900360200190f35b61012c8156fea26469706673582212200e498a611e0b463bcdcc2967589c64b9d6b317b90c2775ced29c4649dffafff264736f6c634300060c0033",
					"opcodes": "PUSH1 0x8C PUSH2 0x24 PUSH1 0xB DUP3 DUP3 DUP3 CODECOPY DUP1 MLOAD PUSH1 0x0 BYTE PUSH1 0x73 EQ PUSH1 0x17 JUMPI INVALID JUMPDEST ADDRESS PUSH1 0x0 MSTORE PUSH1 0x73 DUP2 MSTORE8 DUP3 DUP2 RETURN INVALID PUSH20 0x0 ADDRESS EQ PUSH1 0x80 PUSH1 0x40 MSTORE PUSH1 0x4 CALLDATASIZE LT PUSH1 0x33 JUMPI PUSH1 0x0 CALLDATALOAD PUSH1 0xE0 SHR DUP1 PUSH4 0x1E9D4904 EQ PUSH1 0x38 JUMPI JUMPDEST PUSH1 0x0 DUP1 REVERT JUMPDEST PUSH1 0x3E PUSH1 0x50 JUMP JUMPDEST PUSH1 0x40 DUP1 MLOAD SWAP2 DUP3 MSTORE MLOAD SWAP1 DUP2 SWAP1 SUB PUSH1 0x20 ADD SWAP1 RETURN JUMPDEST PUSH2 0x12C DUP2 JUMP INVALID LOG2 PUSH5 0x6970667358 0x22 SLT KECCAK256 0xE 0x49 DUP11 PUSH2 0x1E0B CHAINID EXTCODESIZE 0xCD 0xCC 0x29 PUSH8 0x589C64B9D6B317B9 0xC 0x27 PUSH22 0xCED29C4649DFFAFFF264736F6C634300060C00330000 "
				},
				"gasEstimates": {
					"creation": {
						"codeDepositCost": "28000",
						"executionCost": "106",
						"totalCost": "28106"
					},
					"external": {
						"DECAY_PERIOD()": "160"
					},
					"internal": {
						"current(struct VirtualBalance.Data memory,uint256)": "infinite",
						"scale(struct VirtualBalance.Data storage pointer,uint256,uint256,uint256)": "infinite",
						"set(struct VirtualBalance.Data storage pointer,uint256)": "infinite",
						"update(struct VirtualBalance.Data storage pointer,uint256)": "infinite"
					}
				},
				"methodIdentifiers": {
					"DECAY_PERIOD()": "1e9d4904"
				}
			},
			"storageLayout": {
				"storage": [],
				"types": null
			},
			"userdoc": {
				"kind": "user",
				"methods": {},
				"version": 1
			}
		}
	}
}