{
	"contracts/Mooniswap.sol": {
		"Mooniswap": {
			"abi": [
				{
					"inputs": [],
					"stateMutability": "nonpayable",
					"type": "constructor"
				},
				{
					"anonymous": false,
					"inputs": [
						{
							"indexed": true,
							"internalType": "address",
							"name": "owner",
							"type": "address"
						},
						{
							"indexed": true,
							"internalType": "address",
							"name": "spender",
							"type": "address"
						},
						{
							"indexed": false,
							"internalType": "uint256",
							"name": "value",
							"type": "uint256"
						}
					],
					"name": "Approval",
					"type": "event"
				},
				{
					"anonymous": false,
					"inputs": [
						{
							"indexed": true,
							"internalType": "address",
							"name": "account",
							"type": "address"
						},
						{
							"indexed": false,
							"internalType": "uint256",
							"name": "amount",
							"type": "uint256"
						}
					],
					"name": "Deposited",
					"type": "event"
				},
				{
					"anonymous": false,
					"inputs": [
						{
							"indexed": true,
							"internalType": "address",
							"name": "previousOwner",
							"type": "address"
						},
						{
							"indexed": true,
							"internalType": "address",
							"name": "newOwner",
							"type": "address"
						}
					],
					"name": "OwnershipTransferred",
					"type": "event"
				},
				{
					"anonymous": false,
					"inputs": [
						{
							"indexed": true,
							"internalType": "address",
							"name": "account",
							"type": "address"
						},
						{
							"indexed": true,
							"internalType": "address",
							"name": "src",
							"type": "address"
						},
						{
							"indexed": true,
							"internalType": "address",
							"name": "dst",
							"type": "address"
						},
						{
							"indexed": false,
							"internalType": "uint256",
							"name": "amount",
							"type": "uint256"
						},
						{
							"indexed": false,
							"internalType": "uint256",
							"name": "result",
							"type": "uint256"
						},
						{
							"indexed": false,
							"internalType": "uint256",
							"name": "srcBalance",
							"type": "uint256"
						},
						{
							"indexed": false,
							"internalType": "uint256",
							"name": "dstBalance",
							"type": "uint256"
						},
						{
							"indexed": false,
							"internalType": "uint256",
							"name": "totalSupply",
							"type": "uint256"
						},
						{
							"indexed": false,
							"internalType": "address",
							"name": "referral",
							"type": "address"
						}
					],
					"name": "Swapped",
					"type": "event"
				},
				{
					"anonymous": false,
					"inputs": [
						{
							"indexed": true,
							"internalType": "address",
							"name": "from",
							"type": "address"
						},
						{
							"indexed": true,
							"internalType": "address",
							"name": "to",
							"type": "address"
						},
						{
							"indexed": false,
							"internalType": "uint256",
							"name": "value",
							"type": "uint256"
						}
					],
					"name": "Transfer",
					"type": "event"
				},
				{
					"anonymous": false,
					"inputs": [
						{
							"indexed": true,
							"internalType": "address",
							"name": "account",
							"type": "address"
						},
						{
							"indexed": false,
							"internalType": "uint256",
							"name": "amount",
							"type": "uint256"
						}
					],
					"name": "Withdrawn",
					"type": "event"
				},
				{
					"inputs": [],
					"name": "BASE_SUPPLY",
					"outputs": [
						{
							"internalType": "uint256",
							"name": "",
							"type": "uint256"
						}
					],
					"stateMutability": "view",
					"type": "function"
				},
				{
					"inputs": [],
					"name": "FEE_DENOMINATOR",
					"outputs": [
						{
							"internalType": "uint256",
							"name": "",
							"type": "uint256"
						}
					],
					"stateMutability": "view",
					"type": "function"
				},
				{
					"inputs": [],
					"name": "REFERRAL_SHARE",
					"outputs": [
						{
							"internalType": "uint256",
							"name": "",
							"type": "uint256"
						}
					],
					"stateMutability": "view",
					"type": "function"
				},
				{
					"inputs": [
						{
							"internalType": "address",
							"name": "owner",
							"type": "address"
						},
						{
							"internalType": "address",
							"name": "spender",
							"type": "address"
						}
					],
					"name": "allowance",
					"outputs": [
						{
							"internalType": "uint256",
							"name": "",
							"type": "uint256"
						}
					],
					"stateMutability": "view",
					"type": "function"
				},
				{
					"inputs": [
						{
							"internalType": "address",
							"name": "spender",
							"type": "address"
						},
						{
							"internalType": "uint256",
							"name": "amount",
							"type": "uint256"
						}
					],
					"name": "approve",
					"outputs": [
						{
							"internalType": "bool",
							"name": "",
							"type": "bool"
						}
					],
					"stateMutability": "nonpayable",
					"type": "function"
				},
				{
					"inputs": [
						{
							"internalType": "address",
							"name": "account",
							"type": "address"
						}
					],
					"name": "balanceOf",
					"outputs": [
						{
							"internalType": "uint256",
							"name": "",
							"type": "uint256"
						}
					],
					"stateMutability": "view",
					"type": "function"
				},
				{
					"inputs": [],
					"name": "decayPeriod",
					"outputs": [
						{
							"internalType": "uint256",
							"name": "",
							"type": "uint256"
						}
					],
					"stateMutability": "pure",
					"type": "function"
				},
				{
					"inputs": [],
					"name": "decimals",
					"outputs": [
						{
							"internalType": "uint8",
							"name": "",
							"type": "uint8"
						}
					],
					"stateMutability": "view",
					"type": "function"
				},
				{
					"inputs": [
						{
							"internalType": "address",
							"name": "spender",
							"type": "address"
						},
						{
							"internalType": "uint256",
							"name": "subtractedValue",
							"type": "uint256"
						}
					],
					"name": "decreaseAllowance",
					"outputs": [
						{
							"internalType": "bool",
							"name": "",
							"type": "bool"
						}
					],
					"stateMutability": "nonpayable",
					"type": "function"
				},
				{
					"inputs": [
						{
							"internalType": "uint256[]",
							"name": "amounts",
							"type": "uint256[]"
						},
						{
							"internalType": "uint256[]",
							"name": "minAmounts",
							"type": "uint256[]"
						}
					],
					"name": "deposit",
					"outputs": [
						{
							"internalType": "uint256",
							"name": "fairSupply",
							"type": "uint256"
						}
					],
					"stateMutability": "payable",
					"type": "function"
				},
				{
					"inputs": [],
					"name": "factory",
					"outputs": [
						{
							"internalType": "contract IFactory",
							"name": "",
							"type": "address"
						}
					],
					"stateMutability": "view",
					"type": "function"
				},
				{
					"inputs": [],
					"name": "fee",
					"outputs": [
						{
							"internalType": "uint256",
							"name": "",
							"type": "uint256"
						}
					],
					"stateMutability": "view",
					"type": "function"
				},
				{
					"inputs": [
						{
							"internalType": "contract IERC20",
							"name": "token",
							"type": "address"
						}
					],
					"name": "getBalanceForAddition",
					"outputs": [
						{
							"internalType": "uint256",
							"name": "",
							"type": "uint256"
						}
					],
					"stateMutability": "view",
					"type": "function"
				},
				{
					"inputs": [
						{
							"internalType": "contract IERC20",
							"name": "token",
							"type": "address"
						}
					],
					"name": "getBalanceForRemoval",
					"outputs": [
						{
							"internalType": "uint256",
							"name": "",
							"type": "uint256"
						}
					],
					"stateMutability": "view",
					"type": "function"
				},
				{
					"inputs": [
						{
							"internalType": "contract IERC20",
							"name": "src",
							"type": "address"
						},
						{
							"internalType": "contract IERC20",
							"name": "dst",
							"type": "address"
						},
						{
							"internalType": "uint256",
							"name": "amount",
							"type": "uint256"
						}
					],
					"name": "getReturn",
					"outputs": [
						{
							"internalType": "uint256",
							"name": "",
							"type": "uint256"
						}
					],
					"stateMutability": "view",
					"type": "function"
				},
				{
					"inputs": [],
					"name": "getTokens",
					"outputs": [
						{
							"internalType": "contract IERC20[]",
							"name": "",
							"type": "address[]"
						}
					],
					"stateMutability": "view",
					"type": "function"
				},
				{
					"inputs": [
						{
							"internalType": "address",
							"name": "spender",
							"type": "address"
						},
						{
							"internalType": "uint256",
							"name": "addedValue",
							"type": "uint256"
						}
					],
					"name": "increaseAllowance",
					"outputs": [
						{
							"internalType": "bool",
							"name": "",
							"type": "bool"
						}
					],
					"stateMutability": "nonpayable",
					"type": "function"
				},
				{
					"inputs": [
						{
							"internalType": "contract IERC20[]",
							"name": "assets",
							"type": "address[]"
						}
					],
					"name": "initialize",
					"outputs": [],
					"stateMutability": "nonpayable",
					"type": "function"
				},
				{
					"inputs": [
						{
							"internalType": "contract IERC20",
							"name": "",
							"type": "address"
						}
					],
					"name": "isToken",
					"outputs": [
						{
							"internalType": "bool",
							"name": "",
							"type": "bool"
						}
					],
					"stateMutability": "view",
					"type": "function"
				},
				{
					"inputs": [],
					"name": "name",
					"outputs": [
						{
							"internalType": "string",
							"name": "",
							"type": "string"
						}
					],
					"stateMutability": "view",
					"type": "function"
				},
				{
					"inputs": [],
					"name": "owner",
					"outputs": [
						{
							"internalType": "address",
							"name": "",
							"type": "address"
						}
					],
					"stateMutability": "view",
					"type": "function"
				},
				{
					"inputs": [],
					"name": "renounceOwnership",
					"outputs": [],
					"stateMutability": "nonpayable",
					"type": "function"
				},
				{
					"inputs": [
						{
							"internalType": "contract IERC20",
							"name": "token",
							"type": "address"
						},
						{
							"internalType": "uint256",
							"name": "amount",
							"type": "uint256"
						}
					],
					"name": "rescueFunds",
					"outputs": [],
					"stateMutability": "nonpayable",
					"type": "function"
				},
				{
					"inputs": [
						{
							"internalType": "contract IERC20",
							"name": "src",
							"type": "address"
						},
						{
							"internalType": "contract IERC20",
							"name": "dst",
							"type": "address"
						},
						{
							"internalType": "uint256",
							"name": "amount",
							"type": "uint256"
						},
						{
							"internalType": "uint256",
							"name": "minReturn",
							"type": "uint256"
						},
						{
							"internalType": "address",
							"name": "referral",
							"type": "address"
						}
					],
					"name": "swap",
					"outputs": [
						{
							"internalType": "uint256",
							"name": "result",
							"type": "uint256"
						}
					],
					"stateMutability": "payable",
					"type": "function"
				},
				{
					"inputs": [],
					"name": "symbol",
					"outputs": [
						{
							"internalType": "string",
							"name": "",
							"type": "string"
						}
					],
					"stateMutability": "view",
					"type": "function"
				},
				{
					"inputs": [
						{
							"internalType": "uint256",
							"name": "",
							"type": "uint256"
						}
					],
					"name": "tokens",
					"outputs": [
						{
							"internalType": "contract IERC20",
							"name": "",
							"type": "address"
						}
					],
					"stateMutability": "view",
					"type": "function"
				},
				{
					"inputs": [],
					"name": "totalSupply",
					"outputs": [
						{
							"internalType": "uint256",
							"name": "",
							"type": "uint256"
						}
					],
					"stateMutability": "view",
					"type": "function"
				},
				{
					"inputs": [
						{
							"internalType": "address",
							"name": "recipient",
							"type": "address"
						},
						{
							"internalType": "uint256",
							"name": "amount",
							"type": "uint256"
						}
					],
					"name": "transfer",
					"outputs": [
						{
							"internalType": "bool",
							"name": "",
							"type": "bool"
						}
					],
					"stateMutability": "nonpayable",
					"type": "function"
				},
				{
					"inputs": [
						{
							"internalType": "address",
							"name": "sender",
							"type": "address"
						},
						{
							"internalType": "address",
							"name": "recipient",
							"type": "address"
						},
						{
							"internalType": "uint256",
							"name": "amount",
							"type": "uint256"
						}
					],
					"name": "transferFrom",
					"outputs": [
						{
							"internalType": "bool",
							"name": "",
							"type": "bool"
						}
					],
					"stateMutability": "nonpayable",
					"type": "function"
				},
				{
					"inputs": [
						{
							"internalType": "address",
							"name": "newOwner",
							"type": "address"
						}
					],
					"name": "transferOwnership",
					"outputs": [],
					"stateMutability": "nonpayable",
					"type": "function"
				},
				{
					"inputs": [
						{
							"internalType": "contract IERC20",
							"name": "",
							"type": "address"
						}
					],
					"name": "virtualBalancesForAddition",
					"outputs": [
						{
							"internalType": "uint216",
							"name": "balance",
							"type": "uint216"
						},
						{
							"internalType": "uint40",
							"name": "time",
							"type": "uint40"
						}
					],
					"stateMutability": "view",
					"type": "function"
				},
				{
					"inputs": [
						{
							"internalType": "contract IERC20",
							"name": "",
							"type": "address"
						}
					],
					"name": "virtualBalancesForRemoval",
					"outputs": [
						{
							"internalType": "uint216",
							"name": "balance",
							"type": "uint216"
						},
						{
							"internalType": "uint40",
							"name": "time",
							"type": "uint40"
						}
					],
					"stateMutability": "view",
					"type": "function"
				},
				{
					"inputs": [
						{
							"internalType": "contract IERC20",
							"name": "",
							"type": "address"
						}
					],
					"name": "volumes",
					"outputs": [
						{
							"internalType": "uint128",
							"name": "confirmed",
							"type": "uint128"
						},
						{
							"internalType": "uint128",
							"name": "result",
							"type": "uint128"
						}
					],
					"stateMutability": "view",
					"type": "function"
				},
				{
					"inputs": [
						{
							"internalType": "uint256",
							"name": "amount",
							"type": "uint256"
						},
						{
							"internalType": "uint256[]",
							"name": "minReturns",
							"type": "uint256[]"
						}
					],
					"name": "withdraw",
					"outputs": [],
					"stateMutability": "nonpayable",
					"type": "function"
				}
			],
			"devdoc": {
				"kind": "dev",
				"methods": {
					"allowance(address,address)": {
						"details": "See {IERC20-allowance}."
					},
					"approve(address,uint256)": {
						"details": "See {IERC20-approve}. Requirements: - `spender` cannot be the zero address."
					},
					"balanceOf(address)": {
						"details": "See {IERC20-balanceOf}."
					},
					"decimals()": {
						"details": "Returns the number of decimals used to get its user representation. For example, if `decimals` equals `2`, a balance of `505` tokens should be displayed to a user as `5,05` (`505 / 10 ** 2`). Tokens usually opt for a value of 18, imitating the relationship between Ether and Wei. This is the value {ERC20} uses, unless {_setupDecimals} is called. NOTE: This information is only used for _display_ purposes: it in no way affects any of the arithmetic of the contract, including {IERC20-balanceOf} and {IERC20-transfer}."
					},
					"decreaseAllowance(address,uint256)": {
						"details": "Atomically decreases the allowance granted to `spender` by the caller. This is an alternative to {approve} that can be used as a mitigation for problems described in {IERC20-approve}. Emits an {Approval} event indicating the updated allowance. Requirements: - `spender` cannot be the zero address. - `spender` must have allowance for the caller of at least `subtractedValue`."
					},
					"increaseAllowance(address,uint256)": {
						"details": "Atomically increases the allowance granted to `spender` by the caller. This is an alternative to {approve} that can be used as a mitigation for problems described in {IERC20-approve}. Emits an {Approval} event indicating the updated allowance. Requirements: - `spender` cannot be the zero address."
					},
					"name()": {
						"details": "Returns the name of the token."
					},
					"owner()": {
						"details": "Returns the address of the current owner."
					},
					"renounceOwnership()": {
						"details": "Leaves the contract without owner. It will not be possible to call `onlyOwner` functions anymore. Can only be called by the current owner. NOTE: Renouncing ownership will leave the contract without an owner, thereby removing any functionality that is only available to the owner."
					},
					"symbol()": {
						"details": "Returns the symbol of the token, usually a shorter version of the name."
					},
					"totalSupply()": {
						"details": "See {IERC20-totalSupply}."
					},
					"transfer(address,uint256)": {
						"details": "See {IERC20-transfer}. Requirements: - `recipient` cannot be the zero address. - the caller must have a balance of at least `amount`."
					},
					"transferFrom(address,address,uint256)": {
						"details": "See {IERC20-transferFrom}. Emits an {Approval} event indicating the updated allowance. This is not required by the EIP. See the note at the beginning of {ERC20}; Requirements: - `sender` and `recipient` cannot be the zero address. - `sender` must have a balance of at least `amount`. - the caller must have allowance for ``sender``'s tokens of at least `amount`."
					},
					"transferOwnership(address)": {
						"details": "Transfers ownership of the contract to a new account (`newOwner`). Can only be called by the current owner."
					}
				},
				"version": 1
			},
			"evm": {
				"assembly": "    /* \"contracts/Mooniswap.sol\":1561:11369  contract Mooniswap is ERC20, ReentrancyGuard, Ownable {... */\n  mstore(0x40, 0x80)\n    /* \"contracts/Mooniswap.sol\":2886:2985  constructor() public ERC20(\"LP-NAME\", \"SOMETHING\") {... */\n  callvalue\n  dup1\n  iszero\n  tag_1\n  jumpi\n  0x00\n  dup1\n  revert\ntag_1:\n  pop\n    /* \"@openzeppelin/contracts/token/ERC20/ERC20.sol\":2013:2154  constructor (string memory name, string memory symbol) public {... */\n  0x40\n  dup1\n  mload\n  dup1\n  dup3\n  add\n  dup3\n  mstore\n  0x07\n  dup2\n  mstore\n  shl(0xc8, 0x4c502d4e414d45)\n  0x20\n  dup1\n  dup4\n  add\n  swap2\n  dup3\n  mstore\n  dup4\n  mload\n  dup1\n  dup6\n  add\n  swap1\n  swap5\n  mstore\n  0x09\n  dup5\n  mstore\n  shl(0xb8, 0x534f4d455448494e47)\n  swap1\n  dup5\n  add\n  mstore\n    /* \"@openzeppelin/contracts/token/ERC20/ERC20.sol\":2085:2097  _name = name */\n  dup2\n  mload\n    /* \"@openzeppelin/contracts/token/ERC20/ERC20.sol\":2013:2154  constructor (string memory name, string memory symbol) public {... */\n  swap2\n  swap3\n  swap2\n    /* \"@openzeppelin/contracts/token/ERC20/ERC20.sol\":2085:2097  _name = name */\n  tag_7\n  swap2\n    /* \"@openzeppelin/contracts/token/ERC20/ERC20.sol\":2085:2090  _name */\n  0x03\n  swap2\n    /* \"@openzeppelin/contracts/token/ERC20/ERC20.sol\":2085:2097  _name = name */\n  tag_8\n  jump\t// in\ntag_7:\n  pop\n    /* \"@openzeppelin/contracts/token/ERC20/ERC20.sol\":2107:2123  _symbol = symbol */\n  dup1\n  mload\n  tag_9\n  swap1\n    /* \"@openzeppelin/contracts/token/ERC20/ERC20.sol\":2107:2114  _symbol */\n  0x04\n  swap1\n    /* \"@openzeppelin/contracts/token/ERC20/ERC20.sol\":2107:2123  _symbol = symbol */\n  0x20\n  dup5\n  add\n  swap1\n  tag_8\n  jump\t// in\ntag_9:\n  pop\n  pop\n    /* \"@openzeppelin/contracts/token/ERC20/ERC20.sol\":2133:2142  _decimals */\n  0x05\n    /* \"@openzeppelin/contracts/token/ERC20/ERC20.sol\":2133:2147  _decimals = 18 */\n  dup1\n  sload\n  not(0xff)\n  and\n    /* \"@openzeppelin/contracts/token/ERC20/ERC20.sol\":2145:2147  18 */\n  0x12\n    /* \"@openzeppelin/contracts/token/ERC20/ERC20.sol\":2133:2147  _decimals = 18 */\n  or\n  swap1\n  sstore\n  pop\n  0x01\n    /* \"@openzeppelin/contracts/utils/ReentrancyGuard.sol\":1743:1750  _status */\n  0x06\n    /* \"@openzeppelin/contracts/utils/ReentrancyGuard.sol\":1743:1765  _status = _NOT_ENTERED */\n  sstore\n    /* \"@openzeppelin/contracts/token/ERC20/ERC20.sol\":2133:2142  _decimals */\n  0x00\n    /* \"@openzeppelin/contracts/access/Ownable.sol\":885:897  _msgSender() */\n  tag_12\n    /* \"@openzeppelin/contracts/access/Ownable.sol\":885:895  _msgSender */\n  tag_13\n    /* \"@openzeppelin/contracts/access/Ownable.sol\":885:897  _msgSender() */\n  jump\t// in\ntag_12:\n    /* \"@openzeppelin/contracts/access/Ownable.sol\":907:913  _owner */\n  0x07\n    /* \"@openzeppelin/contracts/access/Ownable.sol\":907:925  _owner = msgSender */\n  dup1\n  sload\n  not(sub(shl(0xa0, 0x01), 0x01))\n  and\n  sub(shl(0xa0, 0x01), 0x01)\n  dup4\n  and\n  swap1\n  dup2\n  or\n  swap1\n  swap2\n  sstore\n    /* \"@openzeppelin/contracts/access/Ownable.sol\":940:983  OwnershipTransferred(address(0), msgSender) */\n  mload(0x40)\n    /* \"@openzeppelin/contracts/access/Ownable.sol\":907:925  _owner = msgSender */\n  swap2\n  swap3\n  pop\n  swap1\n  0x00\n  swap1\n    /* \"@openzeppelin/contracts/access/Ownable.sol\":940:983  OwnershipTransferred(address(0), msgSender) */\n  0x8be0079c531659141344cd1fd0a4f28419497f9722a3daafe3b4186f6b6457e0\n  swap1\n  dup3\n  swap1\n  log3\n  pop\n    /* \"contracts/Mooniswap.sol\":2947:2954  factory */\n  0x08\n    /* \"contracts/Mooniswap.sol\":2947:2977  factory = IFactory(msg.sender) */\n  dup1\n  sload\n  not(sub(shl(0xa0, 0x01), 0x01))\n  and\n    /* \"contracts/Mooniswap.sol\":2966:2976  msg.sender */\n  caller\n    /* \"contracts/Mooniswap.sol\":2947:2977  factory = IFactory(msg.sender) */\n  or\n  swap1\n  sstore\n    /* \"contracts/Mooniswap.sol\":1561:11369  contract Mooniswap is ERC20, ReentrancyGuard, Ownable {... */\n  jump(tag_15)\n    /* \"@openzeppelin/contracts/GSN/Context.sol\":590:694  function _msgSender() internal view virtual returns (address payable) {... */\ntag_13:\n    /* \"@openzeppelin/contracts/GSN/Context.sol\":677:687  msg.sender */\n  caller\n    /* \"@openzeppelin/contracts/GSN/Context.sol\":590:694  function _msgSender() internal view virtual returns (address payable) {... */\n  swap1\n  jump\t// out\n    /* \"contracts/Mooniswap.sol\":1561:11369  contract Mooniswap is ERC20, ReentrancyGuard, Ownable {... */\ntag_8:\n  dup3\n  dup1\n  sload\n  0x01\n  dup2\n  0x01\n  and\n  iszero\n  0x0100\n  mul\n  sub\n  and\n  0x02\n  swap1\n  div\n  swap1\n  0x00\n  mstore\n  keccak256(0x00, 0x20)\n  swap1\n  0x1f\n  add\n  0x20\n  swap1\n  div\n  dup2\n  add\n  swap3\n  dup3\n  0x1f\n  lt\n  tag_18\n  jumpi\n  dup1\n  mload\n  not(0xff)\n  and\n  dup4\n  dup1\n  add\n  or\n  dup6\n  sstore\n  jump(tag_20)\ntag_18:\n  dup3\n  dup1\n  add\n  0x01\n  add\n  dup6\n  sstore\n  dup3\n  iszero\n  tag_20\n  jumpi\n  swap2\n  dup3\n  add\ntag_19:\n  dup3\n  dup2\n  gt\n  iszero\n  tag_20\n  jumpi\n  dup3\n  mload\n  dup3\n  sstore\n  swap2\n  0x20\n  add\n  swap2\n  swap1\n  0x01\n  add\n  swap1\n  jump(tag_19)\ntag_20:\n  pop\n  tag_21\n  swap3\n  swap2\n  pop\n  tag_22\n  jump\t// in\ntag_21:\n  pop\n  swap1\n  jump\t// out\ntag_22:\ntag_23:\n  dup1\n  dup3\n  gt\n  iszero\n  tag_21\n  jumpi\n  0x00\n  dup2\n  sstore\n  0x01\n  add\n  jump(tag_23)\ntag_15:\n  dataSize(sub_0)\n  dup1\n  dataOffset(sub_0)\n  0x00\n  codecopy\n  0x00\n  return\nstop\n\nsub_0: assembly {\n        /* \"contracts/Mooniswap.sol\":1561:11369  contract Mooniswap is ERC20, ReentrancyGuard, Ownable {... */\n      mstore(0x40, 0x80)\n      jumpi(tag_1, lt(calldatasize, 0x04))\n      shr(0xe0, calldataload(0x00))\n      dup1\n      0x95d89b41\n      gt\n      tag_36\n      jumpi\n      dup1\n      0xc45a0155\n      gt\n      tag_37\n      jumpi\n      dup1\n      0xdd62ed3e\n      gt\n      tag_38\n      jumpi\n      dup1\n      0xdd62ed3e\n      eq\n      tag_31\n      jumpi\n      dup1\n      0xddca3f43\n      eq\n      tag_32\n      jumpi\n      dup1\n      0xe7ff42c9\n      eq\n      tag_33\n      jumpi\n      dup1\n      0xf223885a\n      eq\n      tag_34\n      jumpi\n      dup1\n      0xf2fde38b\n      eq\n      tag_35\n      jumpi\n      jump(tag_1)\n    tag_38:\n      dup1\n      0xc45a0155\n      eq\n      tag_27\n      jumpi\n      dup1\n      0xd5bcb9b5\n      eq\n      tag_28\n      jumpi\n      dup1\n      0xd73792a9\n      eq\n      tag_29\n      jumpi\n      dup1\n      0xd7d3aab5\n      eq\n      tag_30\n      jumpi\n      jump(tag_1)\n    tag_37:\n      dup1\n      0xaa6ca808\n      gt\n      tag_39\n      jumpi\n      dup1\n      0xaa6ca808\n      eq\n      tag_23\n      jumpi\n      dup1\n      0xb1ec4c40\n      eq\n      tag_24\n      jumpi\n      dup1\n      0xb21b5a21\n      eq\n      tag_25\n      jumpi\n      dup1\n      0xbaf13a0a\n      eq\n      tag_26\n      jumpi\n      jump(tag_1)\n    tag_39:\n      dup1\n      0x95d89b41\n      eq\n      tag_19\n      jumpi\n      dup1\n      0xa224cee7\n      eq\n      tag_20\n      jumpi\n      dup1\n      0xa457c2d7\n      eq\n      tag_21\n      jumpi\n      dup1\n      0xa9059cbb\n      eq\n      tag_22\n      jumpi\n      jump(tag_1)\n    tag_36:\n      dup1\n      0x48d67e1b\n      gt\n      tag_40\n      jumpi\n      dup1\n      0x6edc2c09\n      gt\n      tag_41\n      jumpi\n      dup1\n      0x6edc2c09\n      eq\n      tag_14\n      jumpi\n      dup1\n      0x70a08231\n      eq\n      tag_15\n      jumpi\n      dup1\n      0x715018a6\n      eq\n      tag_16\n      jumpi\n      dup1\n      0x78e3214f\n      eq\n      tag_17\n      jumpi\n      dup1\n      0x8da5cb5b\n      eq\n      tag_18\n      jumpi\n      jump(tag_1)\n    tag_41:\n      dup1\n      0x48d67e1b\n      eq\n      tag_10\n      jumpi\n      dup1\n      0x4f64b2be\n      eq\n      tag_11\n      jumpi\n      dup1\n      0x5915d806\n      eq\n      tag_12\n      jumpi\n      dup1\n      0x5ed9156d\n      eq\n      tag_13\n      jumpi\n      jump(tag_1)\n    tag_40:\n      dup1\n      0x1e1401f8\n      gt\n      tag_42\n      jumpi\n      dup1\n      0x1e1401f8\n      eq\n      tag_6\n      jumpi\n      dup1\n      0x23b872dd\n      eq\n      tag_7\n      jumpi\n      dup1\n      0x313ce567\n      eq\n      tag_8\n      jumpi\n      dup1\n      0x39509351\n      eq\n      tag_9\n      jumpi\n      jump(tag_1)\n    tag_42:\n      dup1\n      0x06fdde03\n      eq\n      tag_2\n      jumpi\n      dup1\n      0x095ea7b3\n      eq\n      tag_3\n      jumpi\n      dup1\n      0x18160ddd\n      eq\n      tag_4\n      jumpi\n      dup1\n      0x19f37361\n      eq\n      tag_5\n      jumpi\n    tag_1:\n      0x00\n      dup1\n      revert\n        /* \"@openzeppelin/contracts/token/ERC20/ERC20.sol\":2219:2300  function name() public view returns (string memory) {... */\n    tag_2:\n      callvalue\n      dup1\n      iszero\n      tag_43\n      jumpi\n      0x00\n      dup1\n      revert\n    tag_43:\n      pop\n      tag_44\n      tag_45\n      jump\t// in\n    tag_44:\n      0x40\n      dup1\n      mload\n      0x20\n      dup1\n      dup3\n      mstore\n      dup4\n      mload\n      dup2\n      dup4\n      add\n      mstore\n      dup4\n      mload\n      swap2\n      swap3\n      dup4\n      swap3\n      swap1\n      dup4\n      add\n      swap2\n      dup6\n      add\n      swap1\n      dup1\n      dup4\n      dup4\n      0x00\n    tag_46:\n      dup4\n      dup2\n      lt\n      iszero\n      tag_48\n      jumpi\n      dup2\n      dup2\n      add\n      mload\n      dup4\n      dup3\n      add\n      mstore\n      0x20\n      add\n      jump(tag_46)\n    tag_48:\n      pop\n      pop\n      pop\n      pop\n      swap1\n      pop\n      swap1\n      dup2\n      add\n      swap1\n      0x1f\n      and\n      dup1\n      iszero\n      tag_49\n      jumpi\n      dup1\n      dup3\n      sub\n      dup1\n      mload\n      0x01\n      dup4\n      0x20\n      sub\n      0x0100\n      exp\n      sub\n      not\n      and\n      dup2\n      mstore\n      0x20\n      add\n      swap2\n      pop\n    tag_49:\n      pop\n      swap3\n      pop\n      pop\n      pop\n      mload(0x40)\n      dup1\n      swap2\n      sub\n      swap1\n      return\n        /* \"@openzeppelin/contracts/token/ERC20/ERC20.sol\":4255:4421  function approve(address spender, uint256 amount) public virtual override returns (bool) {... */\n    tag_3:\n      callvalue\n      dup1\n      iszero\n      tag_50\n      jumpi\n      0x00\n      dup1\n      revert\n    tag_50:\n      pop\n      tag_51\n      0x04\n      dup1\n      calldatasize\n      sub\n      0x40\n      dup2\n      lt\n      iszero\n      tag_52\n      jumpi\n      0x00\n      dup1\n      revert\n    tag_52:\n      pop\n      sub(shl(0xa0, 0x01), 0x01)\n      dup2\n      calldataload\n      and\n      swap1\n      0x20\n      add\n      calldataload\n      tag_53\n      jump\t// in\n    tag_51:\n      0x40\n      dup1\n      mload\n      swap2\n      iszero\n      iszero\n      dup3\n      mstore\n      mload\n      swap1\n      dup2\n      swap1\n      sub\n      0x20\n      add\n      swap1\n      return\n        /* \"@openzeppelin/contracts/token/ERC20/ERC20.sol\":3262:3360  function totalSupply() public view override returns (uint256) {... */\n    tag_4:\n      callvalue\n      dup1\n      iszero\n      tag_54\n      jumpi\n      0x00\n      dup1\n      revert\n    tag_54:\n      pop\n      tag_55\n      tag_56\n      jump\t// in\n    tag_55:\n      0x40\n      dup1\n      mload\n      swap2\n      dup3\n      mstore\n      mload\n      swap1\n      dup2\n      swap1\n      sub\n      0x20\n      add\n      swap1\n      return\n        /* \"contracts/Mooniswap.sol\":2635:2673  mapping(IERC20 => bool) public isToken */\n    tag_5:\n      callvalue\n      dup1\n      iszero\n      tag_57\n      jumpi\n      0x00\n      dup1\n      revert\n    tag_57:\n      pop\n      tag_51\n      0x04\n      dup1\n      calldatasize\n      sub\n      0x20\n      dup2\n      lt\n      iszero\n      tag_59\n      jumpi\n      0x00\n      dup1\n      revert\n    tag_59:\n      pop\n      calldataload\n      sub(shl(0xa0, 0x01), 0x01)\n      and\n      tag_60\n      jump\t// in\n        /* \"contracts/Mooniswap.sol\":4189:4386  function getReturn(IERC20 src, IERC20 dst, uint256 amount) external view returns(uint256) {... */\n    tag_6:\n      callvalue\n      dup1\n      iszero\n      tag_61\n      jumpi\n      0x00\n      dup1\n      revert\n    tag_61:\n      pop\n      tag_55\n      0x04\n      dup1\n      calldatasize\n      sub\n      0x60\n      dup2\n      lt\n      iszero\n      tag_63\n      jumpi\n      0x00\n      dup1\n      revert\n    tag_63:\n      pop\n      sub(shl(0xa0, 0x01), 0x01)\n      dup2\n      calldataload\n      dup2\n      and\n      swap2\n      0x20\n      dup2\n      add\n      calldataload\n      swap1\n      swap2\n      and\n      swap1\n      0x40\n      add\n      calldataload\n      tag_64\n      jump\t// in\n        /* \"@openzeppelin/contracts/token/ERC20/ERC20.sol\":4881:5198  function transferFrom(address sender, address recipient, uint256 amount) public virtual override returns (bool) {... */\n    tag_7:\n      callvalue\n      dup1\n      iszero\n      tag_65\n      jumpi\n      0x00\n      dup1\n      revert\n    tag_65:\n      pop\n      tag_51\n      0x04\n      dup1\n      calldatasize\n      sub\n      0x60\n      dup2\n      lt\n      iszero\n      tag_67\n      jumpi\n      0x00\n      dup1\n      revert\n    tag_67:\n      pop\n      sub(shl(0xa0, 0x01), 0x01)\n      dup2\n      calldataload\n      dup2\n      and\n      swap2\n      0x20\n      dup2\n      add\n      calldataload\n      swap1\n      swap2\n      and\n      swap1\n      0x40\n      add\n      calldataload\n      tag_68\n      jump\t// in\n        /* \"@openzeppelin/contracts/token/ERC20/ERC20.sol\":3121:3202  function decimals() public view returns (uint8) {... */\n    tag_8:\n      callvalue\n      dup1\n      iszero\n      tag_69\n      jumpi\n      0x00\n      dup1\n      revert\n    tag_69:\n      pop\n      tag_70\n      tag_71\n      jump\t// in\n    tag_70:\n      0x40\n      dup1\n      mload\n      0xff\n      swap1\n      swap3\n      and\n      dup3\n      mstore\n      mload\n      swap1\n      dup2\n      swap1\n      sub\n      0x20\n      add\n      swap1\n      return\n        /* \"@openzeppelin/contracts/token/ERC20/ERC20.sol\":5593:5808  function increaseAllowance(address spender, uint256 addedValue) public virtual returns (bool) {... */\n    tag_9:\n      callvalue\n      dup1\n      iszero\n      tag_72\n      jumpi\n      0x00\n      dup1\n      revert\n    tag_72:\n      pop\n      tag_51\n      0x04\n      dup1\n      calldatasize\n      sub\n      0x40\n      dup2\n      lt\n      iszero\n      tag_74\n      jumpi\n      0x00\n      dup1\n      revert\n    tag_74:\n      pop\n      sub(shl(0xa0, 0x01), 0x01)\n      dup2\n      calldataload\n      and\n      swap1\n      0x20\n      add\n      calldataload\n      tag_75\n      jump\t// in\n        /* \"contracts/Mooniswap.sol\":3612:3717  function decayPeriod() external pure returns(uint256) {... */\n    tag_10:\n      callvalue\n      dup1\n      iszero\n      tag_76\n      jumpi\n      0x00\n      dup1\n      revert\n    tag_76:\n      pop\n      tag_55\n      tag_78\n      jump\t// in\n        /* \"contracts/Mooniswap.sol\":2607:2629  IERC20[] public tokens */\n    tag_11:\n      callvalue\n      dup1\n      iszero\n      tag_79\n      jumpi\n      0x00\n      dup1\n      revert\n    tag_79:\n      pop\n      tag_80\n      0x04\n      dup1\n      calldatasize\n      sub\n      0x20\n      dup2\n      lt\n      iszero\n      tag_81\n      jumpi\n      0x00\n      dup1\n      revert\n    tag_81:\n      pop\n      calldataload\n      tag_82\n      jump\t// in\n    tag_80:\n      0x40\n      dup1\n      mload\n      sub(shl(0xa0, 0x01), 0x01)\n      swap1\n      swap3\n      and\n      dup3\n      mstore\n      mload\n      swap1\n      dup2\n      swap1\n      sub\n      0x20\n      add\n      swap1\n      return\n        /* \"contracts/Mooniswap.sol\":6987:7804  function withdraw(uint256 amount, uint256[] memory minReturns) external nonReentrant {... */\n    tag_12:\n      callvalue\n      dup1\n      iszero\n      tag_83\n      jumpi\n      0x00\n      dup1\n      revert\n    tag_83:\n      pop\n      tag_84\n      0x04\n      dup1\n      calldatasize\n      sub\n      0x40\n      dup2\n      lt\n      iszero\n      tag_85\n      jumpi\n      0x00\n      dup1\n      revert\n    tag_85:\n      dup2\n      calldataload\n      swap2\n      swap1\n      dup2\n      add\n      swap1\n      0x40\n      dup2\n      add\n      0x20\n      dup3\n      add\n      calldataload\n      shl(0x20, 0x01)\n      dup2\n      gt\n      iszero\n      tag_86\n      jumpi\n      0x00\n      dup1\n      revert\n    tag_86:\n      dup3\n      add\n      dup4\n      0x20\n      dup3\n      add\n      gt\n      iszero\n      tag_87\n      jumpi\n      0x00\n      dup1\n      revert\n    tag_87:\n      dup1\n      calldataload\n      swap1\n      0x20\n      add\n      swap2\n      dup5\n      0x20\n      dup4\n      mul\n      dup5\n      add\n      gt\n      shl(0x20, 0x01)\n      dup4\n      gt\n      or\n      iszero\n      tag_88\n      jumpi\n      0x00\n      dup1\n      revert\n    tag_88:\n      swap2\n      swap1\n      dup1\n      dup1\n      0x20\n      mul\n      0x20\n      add\n      mload(0x40)\n      swap1\n      dup2\n      add\n      0x40\n      mstore\n      dup1\n      swap4\n      swap3\n      swap2\n      swap1\n      dup2\n      dup2\n      mstore\n      0x20\n      add\n      dup4\n      dup4\n      0x20\n      mul\n      dup1\n      dup3\n      dup5\n      calldatacopy\n      0x00\n      swap3\n      add\n      swap2\n      swap1\n      swap2\n      mstore\n      pop\n      swap3\n      swap6\n      pop\n      tag_89\n      swap5\n      pop\n      pop\n      pop\n      pop\n      pop\n      jump\t// in\n    tag_84:\n      stop\n        /* \"contracts/Mooniswap.sol\":2808:2879  mapping(IERC20 => VirtualBalance.Data) public virtualBalancesForRemoval */\n    tag_13:\n      callvalue\n      dup1\n      iszero\n      tag_90\n      jumpi\n      0x00\n      dup1\n      revert\n    tag_90:\n      pop\n      tag_91\n      0x04\n      dup1\n      calldatasize\n      sub\n      0x20\n      dup2\n      lt\n      iszero\n      tag_92\n      jumpi\n      0x00\n      dup1\n      revert\n    tag_92:\n      pop\n      calldataload\n      sub(shl(0xa0, 0x01), 0x01)\n      and\n      tag_93\n      jump\t// in\n    tag_91:\n      0x40\n      dup1\n      mload\n      sub(shl(0xd8, 0x01), 0x01)\n      swap1\n      swap4\n      and\n      dup4\n      mstore\n      0xffffffffff\n      swap1\n      swap2\n      and\n      0x20\n      dup4\n      add\n      mstore\n      dup1\n      mload\n      swap2\n      dup3\n      swap1\n      sub\n      add\n      swap1\n      return\n        /* \"contracts/Mooniswap.sol\":2730:2802  mapping(IERC20 => VirtualBalance.Data) public virtualBalancesForAddition */\n    tag_14:\n      callvalue\n      dup1\n      iszero\n      tag_94\n      jumpi\n      0x00\n      dup1\n      revert\n    tag_94:\n      pop\n      tag_91\n      0x04\n      dup1\n      calldatasize\n      sub\n      0x20\n      dup2\n      lt\n      iszero\n      tag_96\n      jumpi\n      0x00\n      dup1\n      revert\n    tag_96:\n      pop\n      calldataload\n      sub(shl(0xa0, 0x01), 0x01)\n      and\n      tag_97\n      jump\t// in\n        /* \"@openzeppelin/contracts/token/ERC20/ERC20.sol\":3418:3535  function balanceOf(address account) public view override returns (uint256) {... */\n    tag_15:\n      callvalue\n      dup1\n      iszero\n      tag_98\n      jumpi\n      0x00\n      dup1\n      revert\n    tag_98:\n      pop\n      tag_55\n      0x04\n      dup1\n      calldatasize\n      sub\n      0x20\n      dup2\n      lt\n      iszero\n      tag_100\n      jumpi\n      0x00\n      dup1\n      revert\n    tag_100:\n      pop\n      calldataload\n      sub(shl(0xa0, 0x01), 0x01)\n      and\n      tag_101\n      jump\t// in\n        /* \"@openzeppelin/contracts/access/Ownable.sol\":1689:1834  function renounceOwnership() public virtual onlyOwner {... */\n    tag_16:\n      callvalue\n      dup1\n      iszero\n      tag_102\n      jumpi\n      0x00\n      dup1\n      revert\n    tag_102:\n      pop\n      tag_84\n      tag_104\n      jump\t// in\n        /* \"contracts/Mooniswap.sol\":10389:10974  function rescueFunds(IERC20 token, uint256 amount) external nonReentrant onlyOwner {... */\n    tag_17:\n      callvalue\n      dup1\n      iszero\n      tag_105\n      jumpi\n      0x00\n      dup1\n      revert\n    tag_105:\n      pop\n      tag_84\n      0x04\n      dup1\n      calldatasize\n      sub\n      0x40\n      dup2\n      lt\n      iszero\n      tag_107\n      jumpi\n      0x00\n      dup1\n      revert\n    tag_107:\n      pop\n      sub(shl(0xa0, 0x01), 0x01)\n      dup2\n      calldataload\n      and\n      swap1\n      0x20\n      add\n      calldataload\n      tag_108\n      jump\t// in\n        /* \"@openzeppelin/contracts/access/Ownable.sol\":1066:1143  function owner() public view returns (address) {... */\n    tag_18:\n      callvalue\n      dup1\n      iszero\n      tag_109\n      jumpi\n      0x00\n      dup1\n      revert\n    tag_109:\n      pop\n      tag_80\n      tag_111\n      jump\t// in\n        /* \"@openzeppelin/contracts/token/ERC20/ERC20.sol\":2413:2498  function symbol() public view returns (string memory) {... */\n    tag_19:\n      callvalue\n      dup1\n      iszero\n      tag_112\n      jumpi\n      0x00\n      dup1\n      revert\n    tag_112:\n      pop\n      tag_44\n      tag_114\n      jump\t// in\n        /* \"contracts/Mooniswap.sol\":2991:3423  function initialize(IERC20[] memory assets) external {... */\n    tag_20:\n      callvalue\n      dup1\n      iszero\n      tag_119\n      jumpi\n      0x00\n      dup1\n      revert\n    tag_119:\n      pop\n      tag_84\n      0x04\n      dup1\n      calldatasize\n      sub\n      0x20\n      dup2\n      lt\n      iszero\n      tag_121\n      jumpi\n      0x00\n      dup1\n      revert\n    tag_121:\n      dup2\n      add\n      swap1\n      0x20\n      dup2\n      add\n      dup2\n      calldataload\n      shl(0x20, 0x01)\n      dup2\n      gt\n      iszero\n      tag_122\n      jumpi\n      0x00\n      dup1\n      revert\n    tag_122:\n      dup3\n      add\n      dup4\n      0x20\n      dup3\n      add\n      gt\n      iszero\n      tag_123\n      jumpi\n      0x00\n      dup1\n      revert\n    tag_123:\n      dup1\n      calldataload\n      swap1\n      0x20\n      add\n      swap2\n      dup5\n      0x20\n      dup4\n      mul\n      dup5\n      add\n      gt\n      shl(0x20, 0x01)\n      dup4\n      gt\n      or\n      iszero\n      tag_124\n      jumpi\n      0x00\n      dup1\n      revert\n    tag_124:\n      swap2\n      swap1\n      dup1\n      dup1\n      0x20\n      mul\n      0x20\n      add\n      mload(0x40)\n      swap1\n      dup2\n      add\n      0x40\n      mstore\n      dup1\n      swap4\n      swap3\n      swap2\n      swap1\n      dup2\n      dup2\n      mstore\n      0x20\n      add\n      dup4\n      dup4\n      0x20\n      mul\n      dup1\n      dup3\n      dup5\n      calldatacopy\n      0x00\n      swap3\n      add\n      swap2\n      swap1\n      swap2\n      mstore\n      pop\n      swap3\n      swap6\n      pop\n      tag_125\n      swap5\n      pop\n      pop\n      pop\n      pop\n      pop\n      jump\t// in\n        /* \"@openzeppelin/contracts/token/ERC20/ERC20.sol\":6295:6561  function decreaseAllowance(address spender, uint256 subtractedValue) public virtual returns (bool) {... */\n    tag_21:\n      callvalue\n      dup1\n      iszero\n      tag_126\n      jumpi\n      0x00\n      dup1\n      revert\n    tag_126:\n      pop\n      tag_51\n      0x04\n      dup1\n      calldatasize\n      sub\n      0x40\n      dup2\n      lt\n      iszero\n      tag_128\n      jumpi\n      0x00\n      dup1\n      revert\n    tag_128:\n      pop\n      sub(shl(0xa0, 0x01), 0x01)\n      dup2\n      calldataload\n      and\n      swap1\n      0x20\n      add\n      calldataload\n      tag_129\n      jump\t// in\n        /* \"@openzeppelin/contracts/token/ERC20/ERC20.sol\":3738:3910  function transfer(address recipient, uint256 amount) public virtual override returns (bool) {... */\n    tag_22:\n      callvalue\n      dup1\n      iszero\n      tag_130\n      jumpi\n      0x00\n      dup1\n      revert\n    tag_130:\n      pop\n      tag_51\n      0x04\n      dup1\n      calldatasize\n      sub\n      0x40\n      dup2\n      lt\n      iszero\n      tag_132\n      jumpi\n      0x00\n      dup1\n      revert\n    tag_132:\n      pop\n      sub(shl(0xa0, 0x01), 0x01)\n      dup2\n      calldataload\n      and\n      swap1\n      0x20\n      add\n      calldataload\n      tag_133\n      jump\t// in\n        /* \"contracts/Mooniswap.sol\":3516:3606  function getTokens() external view returns(IERC20[] memory) {... */\n    tag_23:\n      callvalue\n      dup1\n      iszero\n      tag_134\n      jumpi\n      0x00\n      dup1\n      revert\n    tag_134:\n      pop\n      tag_135\n      tag_136\n      jump\t// in\n    tag_135:\n      0x40\n      dup1\n      mload\n      0x20\n      dup1\n      dup3\n      mstore\n      dup4\n      mload\n      dup2\n      dup4\n      add\n      mstore\n      dup4\n      mload\n      swap2\n      swap3\n      dup4\n      swap3\n      swap1\n      dup4\n      add\n      swap2\n      dup6\n      dup2\n      add\n      swap2\n      mul\n      dup1\n      dup4\n      dup4\n      0x00\n    tag_137:\n      dup4\n      dup2\n      lt\n      iszero\n      tag_139\n      jumpi\n      dup2\n      dup2\n      add\n      mload\n      dup4\n      dup3\n      add\n      mstore\n      0x20\n      add\n      jump(tag_137)\n    tag_139:\n      pop\n      pop\n      pop\n      pop\n      swap1\n      pop\n      add\n      swap3\n      pop\n      pop\n      pop\n      mload(0x40)\n      dup1\n      swap2\n      sub\n      swap1\n      return\n        /* \"contracts/Mooniswap.sol\":2679:2724  mapping(IERC20 => SwapVolumes) public volumes */\n    tag_24:\n      callvalue\n      dup1\n      iszero\n      tag_140\n      jumpi\n      0x00\n      dup1\n      revert\n    tag_140:\n      pop\n      tag_141\n      0x04\n      dup1\n      calldatasize\n      sub\n      0x20\n      dup2\n      lt\n      iszero\n      tag_142\n      jumpi\n      0x00\n      dup1\n      revert\n    tag_142:\n      pop\n      calldataload\n      sub(shl(0xa0, 0x01), 0x01)\n      and\n      tag_143\n      jump\t// in\n    tag_141:\n      mload(0x40)\n      dup1\n      dup4\n      sub(shl(0x80, 0x01), 0x01)\n      and\n      dup2\n      mstore\n      0x20\n      add\n      dup3\n      sub(shl(0x80, 0x01), 0x01)\n      and\n      dup2\n      mstore\n      0x20\n      add\n      swap3\n      pop\n      pop\n      pop\n      mload(0x40)\n      dup1\n      swap2\n      sub\n      swap1\n      return\n        /* \"contracts/Mooniswap.sol\":2363:2406  uint256 public constant REFERRAL_SHARE = 20 */\n    tag_25:\n      callvalue\n      dup1\n      iszero\n      tag_144\n      jumpi\n      0x00\n      dup1\n      revert\n    tag_144:\n      pop\n      tag_55\n      tag_146\n      jump\t// in\n        /* \"contracts/Mooniswap.sol\":2443:2485  uint256 public constant BASE_SUPPLY = 1000 */\n    tag_26:\n      callvalue\n      dup1\n      iszero\n      tag_147\n      jumpi\n      0x00\n      dup1\n      revert\n    tag_147:\n      pop\n      tag_55\n      tag_149\n      jump\t// in\n        /* \"contracts/Mooniswap.sol\":2578:2601  IFactory public factory */\n    tag_27:\n      callvalue\n      dup1\n      iszero\n      tag_150\n      jumpi\n      0x00\n      dup1\n      revert\n    tag_150:\n      pop\n      tag_80\n      tag_152\n      jump\t// in\n        /* \"contracts/Mooniswap.sol\":7810:10383  function swap(IERC20 src, IERC20 dst, uint256 amount, uint256 minReturn, address referral) external payable nonReentrant returns(uint256 result) {... */\n    tag_28:\n      tag_55\n      0x04\n      dup1\n      calldatasize\n      sub\n      0xa0\n      dup2\n      lt\n      iszero\n      tag_154\n      jumpi\n      0x00\n      dup1\n      revert\n    tag_154:\n      pop\n      sub(shl(0xa0, 0x01), 0x01)\n      dup2\n      calldataload\n      dup2\n      and\n      swap2\n      0x20\n      dup2\n      add\n      calldataload\n      dup3\n      and\n      swap2\n      0x40\n      dup3\n      add\n      calldataload\n      swap2\n      0x60\n      dup2\n      add\n      calldataload\n      swap2\n      0x80\n      swap1\n      swap2\n      add\n      calldataload\n      and\n      tag_155\n      jump\t// in\n        /* \"contracts/Mooniswap.sol\":2525:2571  uint256 public constant FEE_DENOMINATOR = 1e18 */\n    tag_29:\n      callvalue\n      dup1\n      iszero\n      tag_156\n      jumpi\n      0x00\n      dup1\n      revert\n    tag_156:\n      pop\n      tag_55\n      tag_158\n      jump\t// in\n        /* \"contracts/Mooniswap.sol\":3723:3951  function getBalanceForAddition(IERC20 token) public view returns(uint256) {... */\n    tag_30:\n      callvalue\n      dup1\n      iszero\n      tag_159\n      jumpi\n      0x00\n      dup1\n      revert\n    tag_159:\n      pop\n      tag_55\n      0x04\n      dup1\n      calldatasize\n      sub\n      0x20\n      dup2\n      lt\n      iszero\n      tag_161\n      jumpi\n      0x00\n      dup1\n      revert\n    tag_161:\n      pop\n      calldataload\n      sub(shl(0xa0, 0x01), 0x01)\n      and\n      tag_162\n      jump\t// in\n        /* \"@openzeppelin/contracts/token/ERC20/ERC20.sol\":3968:4117  function allowance(address owner, address spender) public view virtual override returns (uint256) {... */\n    tag_31:\n      callvalue\n      dup1\n      iszero\n      tag_163\n      jumpi\n      0x00\n      dup1\n      revert\n    tag_163:\n      pop\n      tag_55\n      0x04\n      dup1\n      calldatasize\n      sub\n      0x40\n      dup2\n      lt\n      iszero\n      tag_165\n      jumpi\n      0x00\n      dup1\n      revert\n    tag_165:\n      pop\n      sub(shl(0xa0, 0x01), 0x01)\n      dup2\n      calldataload\n      dup2\n      and\n      swap2\n      0x20\n      add\n      calldataload\n      and\n      tag_166\n      jump\t// in\n        /* \"contracts/Mooniswap.sol\":3429:3510  function fee() public view returns(uint256) {... */\n    tag_32:\n      callvalue\n      dup1\n      iszero\n      tag_167\n      jumpi\n      0x00\n      dup1\n      revert\n    tag_167:\n      pop\n      tag_55\n      tag_169\n      jump\t// in\n        /* \"contracts/Mooniswap.sol\":3957:4183  function getBalanceForRemoval(IERC20 token) public view returns(uint256) {... */\n    tag_33:\n      callvalue\n      dup1\n      iszero\n      tag_170\n      jumpi\n      0x00\n      dup1\n      revert\n    tag_170:\n      pop\n      tag_55\n      0x04\n      dup1\n      calldatasize\n      sub\n      0x20\n      dup2\n      lt\n      iszero\n      tag_172\n      jumpi\n      0x00\n      dup1\n      revert\n    tag_172:\n      pop\n      calldataload\n      sub(shl(0xa0, 0x01), 0x01)\n      and\n      tag_173\n      jump\t// in\n        /* \"contracts/Mooniswap.sol\":4392:6981  function deposit(uint256[] calldata amounts, uint256[] calldata minAmounts) external payable nonReentrant returns(uint256 fairSupply) {... */\n    tag_34:\n      tag_55\n      0x04\n      dup1\n      calldatasize\n      sub\n      0x40\n      dup2\n      lt\n      iszero\n      tag_175\n      jumpi\n      0x00\n      dup1\n      revert\n    tag_175:\n      dup2\n      add\n      swap1\n      0x20\n      dup2\n      add\n      dup2\n      calldataload\n      shl(0x20, 0x01)\n      dup2\n      gt\n      iszero\n      tag_176\n      jumpi\n      0x00\n      dup1\n      revert\n    tag_176:\n      dup3\n      add\n      dup4\n      0x20\n      dup3\n      add\n      gt\n      iszero\n      tag_177\n      jumpi\n      0x00\n      dup1\n      revert\n    tag_177:\n      dup1\n      calldataload\n      swap1\n      0x20\n      add\n      swap2\n      dup5\n      0x20\n      dup4\n      mul\n      dup5\n      add\n      gt\n      shl(0x20, 0x01)\n      dup4\n      gt\n      or\n      iszero\n      tag_178\n      jumpi\n      0x00\n      dup1\n      revert\n    tag_178:\n      swap2\n      swap4\n      swap1\n      swap3\n      swap1\n      swap2\n      0x20\n      dup2\n      add\n      swap1\n      calldataload\n      shl(0x20, 0x01)\n      dup2\n      gt\n      iszero\n      tag_179\n      jumpi\n      0x00\n      dup1\n      revert\n    tag_179:\n      dup3\n      add\n      dup4\n      0x20\n      dup3\n      add\n      gt\n      iszero\n      tag_180\n      jumpi\n      0x00\n      dup1\n      revert\n    tag_180:\n      dup1\n      calldataload\n      swap1\n      0x20\n      add\n      swap2\n      dup5\n      0x20\n      dup4\n      mul\n      dup5\n      add\n      gt\n      shl(0x20, 0x01)\n      dup4\n      gt\n      or\n      iszero\n      tag_181\n      jumpi\n      0x00\n      dup1\n      revert\n    tag_181:\n      pop\n      swap1\n      swap3\n      pop\n      swap1\n      pop\n      tag_182\n      jump\t// in\n        /* \"@openzeppelin/contracts/access/Ownable.sol\":1983:2223  function transferOwnership(address newOwner) public virtual onlyOwner {... */\n    tag_35:\n      callvalue\n      dup1\n      iszero\n      tag_183\n      jumpi\n      0x00\n      dup1\n      revert\n    tag_183:\n      pop\n      tag_84\n      0x04\n      dup1\n      calldatasize\n      sub\n      0x20\n      dup2\n      lt\n      iszero\n      tag_185\n      jumpi\n      0x00\n      dup1\n      revert\n    tag_185:\n      pop\n      calldataload\n      sub(shl(0xa0, 0x01), 0x01)\n      and\n      tag_186\n      jump\t// in\n        /* \"@openzeppelin/contracts/token/ERC20/ERC20.sol\":2219:2300  function name() public view returns (string memory) {... */\n    tag_45:\n        /* \"@openzeppelin/contracts/token/ERC20/ERC20.sol\":2288:2293  _name */\n      0x03\n        /* \"@openzeppelin/contracts/token/ERC20/ERC20.sol\":2281:2293  return _name */\n      dup1\n      sload\n      0x40\n      dup1\n      mload\n      0x20\n      0x1f\n      0x02\n      not(0x00)\n      0x0100\n      0x01\n      dup9\n      and\n      iszero\n      mul\n      add\n      swap1\n      swap6\n      and\n      swap5\n      swap1\n      swap5\n      div\n      swap4\n      dup5\n      add\n      dup2\n      swap1\n      div\n      dup2\n      mul\n      dup3\n      add\n      dup2\n      add\n      swap1\n      swap3\n      mstore\n      dup3\n      dup2\n      mstore\n        /* \"@openzeppelin/contracts/token/ERC20/ERC20.sol\":2256:2269  string memory */\n      0x60\n      swap4\n        /* \"@openzeppelin/contracts/token/ERC20/ERC20.sol\":2281:2293  return _name */\n      swap1\n      swap3\n        /* \"@openzeppelin/contracts/token/ERC20/ERC20.sol\":2288:2293  _name */\n      swap1\n      swap2\n        /* \"@openzeppelin/contracts/token/ERC20/ERC20.sol\":2281:2293  return _name */\n      dup4\n      add\n        /* \"@openzeppelin/contracts/token/ERC20/ERC20.sol\":2288:2293  _name */\n      dup3\n        /* \"@openzeppelin/contracts/token/ERC20/ERC20.sol\":2281:2293  return _name */\n      dup3\n      dup1\n      iszero\n      tag_188\n      jumpi\n      dup1\n      0x1f\n      lt\n      tag_189\n      jumpi\n      0x0100\n      dup1\n      dup4\n      sload\n      div\n      mul\n      dup4\n      mstore\n      swap2\n      0x20\n      add\n      swap2\n      jump(tag_188)\n    tag_189:\n      dup3\n      add\n      swap2\n      swap1\n      0x00\n      mstore\n      keccak256(0x00, 0x20)\n      swap1\n    tag_190:\n      dup2\n      sload\n      dup2\n      mstore\n      swap1\n      0x01\n      add\n      swap1\n      0x20\n      add\n      dup1\n      dup4\n      gt\n      tag_190\n      jumpi\n      dup3\n      swap1\n      sub\n      0x1f\n      and\n      dup3\n      add\n      swap2\n    tag_188:\n      pop\n      pop\n      pop\n      pop\n      pop\n      swap1\n      pop\n        /* \"@openzeppelin/contracts/token/ERC20/ERC20.sol\":2219:2300  function name() public view returns (string memory) {... */\n      swap1\n      jump\t// out\n        /* \"@openzeppelin/contracts/token/ERC20/ERC20.sol\":4255:4421  function approve(address spender, uint256 amount) public virtual override returns (bool) {... */\n    tag_53:\n        /* \"@openzeppelin/contracts/token/ERC20/ERC20.sol\":4338:4342  bool */\n      0x00\n        /* \"@openzeppelin/contracts/token/ERC20/ERC20.sol\":4354:4393  _approve(_msgSender(), spender, amount) */\n      tag_192\n        /* \"@openzeppelin/contracts/token/ERC20/ERC20.sol\":4363:4375  _msgSender() */\n      tag_193\n        /* \"@openzeppelin/contracts/token/ERC20/ERC20.sol\":4363:4373  _msgSender */\n      tag_194\n        /* \"@openzeppelin/contracts/token/ERC20/ERC20.sol\":4363:4375  _msgSender() */\n      jump\t// in\n    tag_193:\n        /* \"@openzeppelin/contracts/token/ERC20/ERC20.sol\":4377:4384  spender */\n      dup5\n        /* \"@openzeppelin/contracts/token/ERC20/ERC20.sol\":4386:4392  amount */\n      dup5\n        /* \"@openzeppelin/contracts/token/ERC20/ERC20.sol\":4354:4362  _approve */\n      tag_195\n        /* \"@openzeppelin/contracts/token/ERC20/ERC20.sol\":4354:4393  _approve(_msgSender(), spender, amount) */\n      jump\t// in\n    tag_192:\n      pop\n        /* \"@openzeppelin/contracts/token/ERC20/ERC20.sol\":4410:4414  true */\n      0x01\n        /* \"@openzeppelin/contracts/token/ERC20/ERC20.sol\":4255:4421  function approve(address spender, uint256 amount) public virtual override returns (bool) {... */\n    tag_191:\n      swap3\n      swap2\n      pop\n      pop\n      jump\t// out\n        /* \"@openzeppelin/contracts/token/ERC20/ERC20.sol\":3262:3360  function totalSupply() public view override returns (uint256) {... */\n    tag_56:\n        /* \"@openzeppelin/contracts/token/ERC20/ERC20.sol\":3341:3353  _totalSupply */\n      sload(0x02)\n        /* \"@openzeppelin/contracts/token/ERC20/ERC20.sol\":3262:3360  function totalSupply() public view override returns (uint256) {... */\n      swap1\n      jump\t// out\n        /* \"contracts/Mooniswap.sol\":2635:2673  mapping(IERC20 => bool) public isToken */\n    tag_60:\n      mstore(0x20, 0x0a)\n      0x00\n      swap1\n      dup2\n      mstore\n      0x40\n      swap1\n      keccak256\n      sload\n      0xff\n      and\n      dup2\n      jump\t// out\n        /* \"contracts/Mooniswap.sol\":4189:4386  function getReturn(IERC20 src, IERC20 dst, uint256 amount) external view returns(uint256) {... */\n    tag_64:\n        /* \"contracts/Mooniswap.sol\":4270:4277  uint256 */\n      0x00\n        /* \"contracts/Mooniswap.sol\":4296:4379  _getReturn(src, dst, amount, getBalanceForAddition(src), getBalanceForRemoval(dst)) */\n      tag_198\n        /* \"contracts/Mooniswap.sol\":4307:4310  src */\n      dup5\n        /* \"contracts/Mooniswap.sol\":4312:4315  dst */\n      dup5\n        /* \"contracts/Mooniswap.sol\":4317:4323  amount */\n      dup5\n        /* \"contracts/Mooniswap.sol\":4325:4351  getBalanceForAddition(src) */\n      tag_199\n        /* \"contracts/Mooniswap.sol\":4347:4350  src */\n      dup9\n        /* \"contracts/Mooniswap.sol\":4325:4346  getBalanceForAddition */\n      tag_162\n        /* \"contracts/Mooniswap.sol\":4325:4351  getBalanceForAddition(src) */\n      jump\t// in\n    tag_199:\n        /* \"contracts/Mooniswap.sol\":4353:4378  getBalanceForRemoval(dst) */\n      tag_200\n        /* \"contracts/Mooniswap.sol\":4374:4377  dst */\n      dup9\n        /* \"contracts/Mooniswap.sol\":4353:4373  getBalanceForRemoval */\n      tag_173\n        /* \"contracts/Mooniswap.sol\":4353:4378  getBalanceForRemoval(dst) */\n      jump\t// in\n    tag_200:\n        /* \"contracts/Mooniswap.sol\":4296:4306  _getReturn */\n      tag_201\n        /* \"contracts/Mooniswap.sol\":4296:4379  _getReturn(src, dst, amount, getBalanceForAddition(src), getBalanceForRemoval(dst)) */\n      jump\t// in\n    tag_198:\n        /* \"contracts/Mooniswap.sol\":4289:4379  return _getReturn(src, dst, amount, getBalanceForAddition(src), getBalanceForRemoval(dst)) */\n      swap5\n        /* \"contracts/Mooniswap.sol\":4189:4386  function getReturn(IERC20 src, IERC20 dst, uint256 amount) external view returns(uint256) {... */\n      swap4\n      pop\n      pop\n      pop\n      pop\n      jump\t// out\n        /* \"@openzeppelin/contracts/token/ERC20/ERC20.sol\":4881:5198  function transferFrom(address sender, address recipient, uint256 amount) public virtual override returns (bool) {... */\n    tag_68:\n        /* \"@openzeppelin/contracts/token/ERC20/ERC20.sol\":4987:4991  bool */\n      0x00\n        /* \"@openzeppelin/contracts/token/ERC20/ERC20.sol\":5003:5039  _transfer(sender, recipient, amount) */\n      tag_203\n        /* \"@openzeppelin/contracts/token/ERC20/ERC20.sol\":5013:5019  sender */\n      dup5\n        /* \"@openzeppelin/contracts/token/ERC20/ERC20.sol\":5021:5030  recipient */\n      dup5\n        /* \"@openzeppelin/contracts/token/ERC20/ERC20.sol\":5032:5038  amount */\n      dup5\n        /* \"@openzeppelin/contracts/token/ERC20/ERC20.sol\":5003:5012  _transfer */\n      tag_204\n        /* \"@openzeppelin/contracts/token/ERC20/ERC20.sol\":5003:5039  _transfer(sender, recipient, amount) */\n      jump\t// in\n    tag_203:\n        /* \"@openzeppelin/contracts/token/ERC20/ERC20.sol\":5049:5170  _approve(sender, _msgSender(), _allowances[sender][_msgSender()].sub(amount, \"ERC20: transfer amount exceeds allowance\")) */\n      tag_205\n        /* \"@openzeppelin/contracts/token/ERC20/ERC20.sol\":5058:5064  sender */\n      dup5\n        /* \"@openzeppelin/contracts/token/ERC20/ERC20.sol\":5066:5078  _msgSender() */\n      tag_206\n        /* \"@openzeppelin/contracts/token/ERC20/ERC20.sol\":5066:5076  _msgSender */\n      tag_194\n        /* \"@openzeppelin/contracts/token/ERC20/ERC20.sol\":5066:5078  _msgSender() */\n      jump\t// in\n    tag_206:\n        /* \"@openzeppelin/contracts/token/ERC20/ERC20.sol\":5080:5169  _allowances[sender][_msgSender()].sub(amount, \"ERC20: transfer amount exceeds allowance\") */\n      tag_207\n        /* \"@openzeppelin/contracts/token/ERC20/ERC20.sol\":5118:5124  amount */\n      dup6\n        /* \"@openzeppelin/contracts/token/ERC20/ERC20.sol\":5080:5169  _allowances[sender][_msgSender()].sub(amount, \"ERC20: transfer amount exceeds allowance\") */\n      mload(0x40)\n      dup1\n      0x60\n      add\n      0x40\n      mstore\n      dup1\n      0x28\n      dup2\n      mstore\n      0x20\n      add\n      data_974d1b4421da69cc60b481194f0dad36a5bb4e23da810da7a7fb30cdba178330\n      0x28\n      swap2\n      codecopy\n      sub(shl(0xa0, 0x01), 0x01)\n        /* \"@openzeppelin/contracts/token/ERC20/ERC20.sol\":5080:5099  _allowances[sender] */\n      dup11\n      and\n      0x00\n      swap1\n      dup2\n      mstore\n        /* \"@openzeppelin/contracts/token/ERC20/ERC20.sol\":5080:5091  _allowances */\n      0x01\n        /* \"@openzeppelin/contracts/token/ERC20/ERC20.sol\":5080:5099  _allowances[sender] */\n      0x20\n      mstore\n      0x40\n      dup2\n      keccak256\n      swap1\n        /* \"@openzeppelin/contracts/token/ERC20/ERC20.sol\":5100:5112  _msgSender() */\n      tag_208\n        /* \"@openzeppelin/contracts/token/ERC20/ERC20.sol\":5100:5110  _msgSender */\n      tag_194\n        /* \"@openzeppelin/contracts/token/ERC20/ERC20.sol\":5100:5112  _msgSender() */\n      jump\t// in\n    tag_208:\n      sub(shl(0xa0, 0x01), 0x01)\n        /* \"@openzeppelin/contracts/token/ERC20/ERC20.sol\":5080:5113  _allowances[sender][_msgSender()] */\n      and\n      dup2\n      mstore\n      0x20\n      dup2\n      add\n      swap2\n      swap1\n      swap2\n      mstore\n      0x40\n      add\n      0x00\n      keccak256\n      sload\n      swap2\n        /* \"@openzeppelin/contracts/token/ERC20/ERC20.sol\":5080:5169  _allowances[sender][_msgSender()].sub(amount, \"ERC20: transfer amount exceeds allowance\") */\n      swap1\n        /* \"@openzeppelin/contracts/token/ERC20/ERC20.sol\":5080:5117  _allowances[sender][_msgSender()].sub */\n      tag_209\n        /* \"@openzeppelin/contracts/token/ERC20/ERC20.sol\":5080:5169  _allowances[sender][_msgSender()].sub(amount, \"ERC20: transfer amount exceeds allowance\") */\n      jump\t// in\n    tag_207:\n        /* \"@openzeppelin/contracts/token/ERC20/ERC20.sol\":5049:5057  _approve */\n      tag_195\n        /* \"@openzeppelin/contracts/token/ERC20/ERC20.sol\":5049:5170  _approve(sender, _msgSender(), _allowances[sender][_msgSender()].sub(amount, \"ERC20: transfer amount exceeds allowance\")) */\n      jump\t// in\n    tag_205:\n      pop\n        /* \"@openzeppelin/contracts/token/ERC20/ERC20.sol\":5187:5191  true */\n      0x01\n        /* \"@openzeppelin/contracts/token/ERC20/ERC20.sol\":4881:5198  function transferFrom(address sender, address recipient, uint256 amount) public virtual override returns (bool) {... */\n      swap4\n      swap3\n      pop\n      pop\n      pop\n      jump\t// out\n        /* \"@openzeppelin/contracts/token/ERC20/ERC20.sol\":3121:3202  function decimals() public view returns (uint8) {... */\n    tag_71:\n        /* \"@openzeppelin/contracts/token/ERC20/ERC20.sol\":3186:3195  _decimals */\n      and(0xff, sload(0x05))\n        /* \"@openzeppelin/contracts/token/ERC20/ERC20.sol\":3121:3202  function decimals() public view returns (uint8) {... */\n      swap1\n      jump\t// out\n        /* \"@openzeppelin/contracts/token/ERC20/ERC20.sol\":5593:5808  function increaseAllowance(address spender, uint256 addedValue) public virtual returns (bool) {... */\n    tag_75:\n        /* \"@openzeppelin/contracts/token/ERC20/ERC20.sol\":5681:5685  bool */\n      0x00\n        /* \"@openzeppelin/contracts/token/ERC20/ERC20.sol\":5697:5780  _approve(_msgSender(), spender, _allowances[_msgSender()][spender].add(addedValue)) */\n      tag_192\n        /* \"@openzeppelin/contracts/token/ERC20/ERC20.sol\":5706:5718  _msgSender() */\n      tag_213\n        /* \"@openzeppelin/contracts/token/ERC20/ERC20.sol\":5706:5716  _msgSender */\n      tag_194\n        /* \"@openzeppelin/contracts/token/ERC20/ERC20.sol\":5706:5718  _msgSender() */\n      jump\t// in\n    tag_213:\n        /* \"@openzeppelin/contracts/token/ERC20/ERC20.sol\":5720:5727  spender */\n      dup5\n        /* \"@openzeppelin/contracts/token/ERC20/ERC20.sol\":5729:5779  _allowances[_msgSender()][spender].add(addedValue) */\n      tag_207\n        /* \"@openzeppelin/contracts/token/ERC20/ERC20.sol\":5768:5778  addedValue */\n      dup6\n        /* \"@openzeppelin/contracts/token/ERC20/ERC20.sol\":5729:5740  _allowances */\n      0x01\n        /* \"@openzeppelin/contracts/token/ERC20/ERC20.sol\":5729:5754  _allowances[_msgSender()] */\n      0x00\n        /* \"@openzeppelin/contracts/token/ERC20/ERC20.sol\":5741:5753  _msgSender() */\n      tag_215\n        /* \"@openzeppelin/contracts/token/ERC20/ERC20.sol\":5741:5751  _msgSender */\n      tag_194\n        /* \"@openzeppelin/contracts/token/ERC20/ERC20.sol\":5741:5753  _msgSender() */\n      jump\t// in\n    tag_215:\n      sub(shl(0xa0, 0x01), 0x01)\n        /* \"@openzeppelin/contracts/token/ERC20/ERC20.sol\":5729:5754  _allowances[_msgSender()] */\n      swap1\n      dup2\n      and\n      dup3\n      mstore\n      0x20\n      dup1\n      dup4\n      add\n      swap4\n      swap1\n      swap4\n      mstore\n      0x40\n      swap2\n      dup3\n      add\n      0x00\n      swap1\n      dup2\n      keccak256\n        /* \"@openzeppelin/contracts/token/ERC20/ERC20.sol\":5729:5763  _allowances[_msgSender()][spender] */\n      swap2\n      dup13\n      and\n      dup2\n      mstore\n      swap3\n      mstore\n      swap1\n      keccak256\n      sload\n      swap1\n        /* \"@openzeppelin/contracts/token/ERC20/ERC20.sol\":5729:5767  _allowances[_msgSender()][spender].add */\n      tag_216\n        /* \"@openzeppelin/contracts/token/ERC20/ERC20.sol\":5729:5779  _allowances[_msgSender()][spender].add(addedValue) */\n      jump\t// in\n        /* \"contracts/Mooniswap.sol\":3612:3717  function decayPeriod() external pure returns(uint256) {... */\n    tag_78:\n        /* \"contracts/Mooniswap.sol\":643:652  5 minutes */\n      0x012c\n        /* \"contracts/Mooniswap.sol\":3612:3717  function decayPeriod() external pure returns(uint256) {... */\n      swap1\n      jump\t// out\n        /* \"contracts/Mooniswap.sol\":2607:2629  IERC20[] public tokens */\n    tag_82:\n      0x09\n      dup2\n      dup2\n      sload\n      dup2\n      lt\n      tag_218\n      jumpi\n      invalid\n    tag_218:\n      0x00\n      swap2\n      dup3\n      mstore\n      0x20\n      swap1\n      swap2\n      keccak256\n      add\n      sload\n      sub(shl(0xa0, 0x01), 0x01)\n      and\n      swap1\n      pop\n      dup2\n      jump\t// out\n        /* \"contracts/Mooniswap.sol\":6987:7804  function withdraw(uint256 amount, uint256[] memory minReturns) external nonReentrant {... */\n    tag_89:\n        /* \"@openzeppelin/contracts/utils/ReentrancyGuard.sol\":1671:1672  2 */\n      0x02\n        /* \"@openzeppelin/contracts/utils/ReentrancyGuard.sol\":2260:2267  _status */\n      sload(0x06)\n        /* \"@openzeppelin/contracts/utils/ReentrancyGuard.sol\":2260:2279  _status != _ENTERED */\n      eq\n      iszero\n        /* \"@openzeppelin/contracts/utils/ReentrancyGuard.sol\":2252:2315  require(_status != _ENTERED, \"ReentrancyGuard: reentrant call\") */\n      tag_221\n      jumpi\n      0x40\n      dup1\n      mload\n      shl(0xe5, 0x461bcd)\n      dup2\n      mstore\n      0x20\n      0x04\n      dup3\n      add\n      mstore\n      0x1f\n      0x24\n      dup3\n      add\n      mstore\n      0x00\n      dup1\n      mload\n      0x20\n      data_0d74825aecb0211bbe1f02ccfb998d9e49771bedb2c6414e20fd8978a2e0f54c\n      dup4\n      codecopy\n      dup2\n      mload\n      swap2\n      mstore\n      0x44\n      dup3\n      add\n      mstore\n      swap1\n      mload\n      swap1\n      dup2\n      swap1\n      sub\n      0x64\n      add\n      swap1\n      revert\n    tag_221:\n        /* \"@openzeppelin/contracts/utils/ReentrancyGuard.sol\":1671:1672  2 */\n      0x02\n        /* \"@openzeppelin/contracts/utils/ReentrancyGuard.sol\":2390:2397  _status */\n      0x06\n        /* \"@openzeppelin/contracts/utils/ReentrancyGuard.sol\":2390:2408  _status = _ENTERED */\n      sstore\n        /* \"contracts/Mooniswap.sol\":7082:7101  uint256 totalSupply */\n      0x00\n        /* \"contracts/Mooniswap.sol\":7104:7117  totalSupply() */\n      tag_223\n        /* \"contracts/Mooniswap.sol\":7104:7115  totalSupply */\n      tag_56\n        /* \"contracts/Mooniswap.sol\":7104:7117  totalSupply() */\n      jump\t// in\n    tag_223:\n        /* \"contracts/Mooniswap.sol\":7082:7117  uint256 totalSupply = totalSupply() */\n      swap1\n      pop\n        /* \"contracts/Mooniswap.sol\":7127:7152  _burn(msg.sender, amount) */\n      tag_224\n        /* \"contracts/Mooniswap.sol\":7133:7143  msg.sender */\n      caller\n        /* \"contracts/Mooniswap.sol\":7145:7151  amount */\n      dup5\n        /* \"contracts/Mooniswap.sol\":7127:7132  _burn */\n      tag_225\n        /* \"contracts/Mooniswap.sol\":7127:7152  _burn(msg.sender, amount) */\n      jump\t// in\n    tag_224:\n        /* \"contracts/Mooniswap.sol\":7168:7174  uint i */\n      0x00\n        /* \"contracts/Mooniswap.sol\":7163:7753  for (uint i = 0; i < tokens.length; i++) {... */\n    tag_226:\n        /* \"contracts/Mooniswap.sol\":7184:7190  tokens */\n      0x09\n        /* \"contracts/Mooniswap.sol\":7184:7197  tokens.length */\n      sload\n        /* \"contracts/Mooniswap.sol\":7180:7197  i < tokens.length */\n      dup2\n      lt\n        /* \"contracts/Mooniswap.sol\":7163:7753  for (uint i = 0; i < tokens.length; i++) {... */\n      iszero\n      tag_227\n      jumpi\n        /* \"contracts/Mooniswap.sol\":7218:7230  IERC20 token */\n      0x00\n        /* \"contracts/Mooniswap.sol\":7233:7239  tokens */\n      0x09\n        /* \"contracts/Mooniswap.sol\":7240:7241  i */\n      dup3\n        /* \"contracts/Mooniswap.sol\":7233:7242  tokens[i] */\n      dup2\n      sload\n      dup2\n      lt\n      tag_229\n      jumpi\n      invalid\n    tag_229:\n      0x00\n      swap2\n      dup3\n      mstore\n      0x20\n      dup3\n      keccak256\n      add\n      sload\n      sub(shl(0xa0, 0x01), 0x01)\n      and\n      swap2\n      pop\n        /* \"contracts/Mooniswap.sol\":7278:7311  token.uniBalanceOf(address(this)) */\n      tag_231\n        /* \"contracts/Mooniswap.sol\":7233:7242  tokens[i] */\n      dup3\n        /* \"contracts/Mooniswap.sol\":7305:7309  this */\n      address\n        /* \"contracts/Mooniswap.sol\":7278:7296  token.uniBalanceOf */\n      tag_232\n        /* \"contracts/Mooniswap.sol\":7278:7311  token.uniBalanceOf(address(this)) */\n      jump\t// in\n    tag_231:\n        /* \"contracts/Mooniswap.sol\":7257:7311  uint256 preBalance = token.uniBalanceOf(address(this)) */\n      swap1\n      pop\n        /* \"contracts/Mooniswap.sol\":7325:7338  uint256 value */\n      0x00\n        /* \"contracts/Mooniswap.sol\":7341:7380  preBalance.mul(amount).div(totalSupply) */\n      tag_233\n        /* \"contracts/Mooniswap.sol\":7368:7379  totalSupply */\n      dup6\n        /* \"contracts/Mooniswap.sol\":7341:7363  preBalance.mul(amount) */\n      tag_234\n        /* \"contracts/Mooniswap.sol\":7257:7311  uint256 preBalance = token.uniBalanceOf(address(this)) */\n      dup5\n        /* \"contracts/Mooniswap.sol\":7356:7362  amount */\n      dup11\n        /* \"contracts/Mooniswap.sol\":7341:7355  preBalance.mul */\n      tag_235\n        /* \"contracts/Mooniswap.sol\":7341:7363  preBalance.mul(amount) */\n      jump\t// in\n    tag_234:\n        /* \"contracts/Mooniswap.sol\":7341:7367  preBalance.mul(amount).div */\n      swap1\n      tag_236\n        /* \"contracts/Mooniswap.sol\":7341:7380  preBalance.mul(amount).div(totalSupply) */\n      jump\t// in\n    tag_233:\n        /* \"contracts/Mooniswap.sol\":7325:7380  uint256 value = preBalance.mul(amount).div(totalSupply) */\n      swap1\n      pop\n        /* \"contracts/Mooniswap.sol\":7394:7430  token.uniTransfer(msg.sender, value) */\n      tag_237\n      sub(shl(0xa0, 0x01), 0x01)\n        /* \"contracts/Mooniswap.sol\":7394:7411  token.uniTransfer */\n      dup5\n      and\n        /* \"contracts/Mooniswap.sol\":7412:7422  msg.sender */\n      caller\n        /* \"contracts/Mooniswap.sol\":7325:7380  uint256 value = preBalance.mul(amount).div(totalSupply) */\n      dup4\n        /* \"contracts/Mooniswap.sol\":7394:7411  token.uniTransfer */\n      tag_238\n        /* \"contracts/Mooniswap.sol\":7394:7430  token.uniTransfer(msg.sender, value) */\n      jump\t// in\n    tag_237:\n        /* \"contracts/Mooniswap.sol\":7457:7467  minReturns */\n      dup6\n        /* \"contracts/Mooniswap.sol\":7457:7474  minReturns.length */\n      mload\n        /* \"contracts/Mooniswap.sol\":7452:7453  i */\n      dup5\n        /* \"contracts/Mooniswap.sol\":7452:7474  i >= minReturns.length */\n      lt\n      iszero\n        /* \"contracts/Mooniswap.sol\":7452:7500  i >= minReturns.length || value >= minReturns[i] */\n      dup1\n      tag_239\n      jumpi\n      pop\n        /* \"contracts/Mooniswap.sol\":7487:7497  minReturns */\n      dup6\n        /* \"contracts/Mooniswap.sol\":7498:7499  i */\n      dup5\n        /* \"contracts/Mooniswap.sol\":7487:7500  minReturns[i] */\n      dup2\n      mload\n      dup2\n      lt\n      tag_240\n      jumpi\n      invalid\n    tag_240:\n      0x20\n      mul\n      0x20\n      add\n      add\n      mload\n        /* \"contracts/Mooniswap.sol\":7478:7483  value */\n      dup2\n        /* \"contracts/Mooniswap.sol\":7478:7500  value >= minReturns[i] */\n      lt\n      iszero\n        /* \"contracts/Mooniswap.sol\":7452:7500  i >= minReturns.length || value >= minReturns[i] */\n    tag_239:\n        /* \"contracts/Mooniswap.sol\":7444:7536  require(i >= minReturns.length || value >= minReturns[i], \"Mooniswap: result is not enough\") */\n      tag_241\n      jumpi\n      0x40\n      dup1\n      mload\n      shl(0xe5, 0x461bcd)\n      dup2\n      mstore\n      0x20\n      0x04\n      dup3\n      add\n      mstore\n      0x1f\n      0x24\n      dup3\n      add\n      mstore\n      0x4d6f6f6e69737761703a20726573756c74206973206e6f7420656e6f75676800\n      0x44\n      dup3\n      add\n      mstore\n      swap1\n      mload\n      swap1\n      dup2\n      swap1\n      sub\n      0x64\n      add\n      swap1\n      revert\n    tag_241:\n        /* \"contracts/Mooniswap.sol\":7551:7640  virtualBalancesForAddition[token].scale(preBalance, totalSupply.sub(amount), totalSupply) */\n      tag_242\n        /* \"contracts/Mooniswap.sol\":7591:7601  preBalance */\n      dup3\n        /* \"contracts/Mooniswap.sol\":7603:7626  totalSupply.sub(amount) */\n      tag_243\n        /* \"contracts/Mooniswap.sol\":7603:7614  totalSupply */\n      dup8\n        /* \"contracts/Mooniswap.sol\":7619:7625  amount */\n      dup11\n        /* \"contracts/Mooniswap.sol\":7603:7618  totalSupply.sub */\n      tag_244\n        /* \"contracts/Mooniswap.sol\":7603:7626  totalSupply.sub(amount) */\n      jump\t// in\n    tag_243:\n      sub(shl(0xa0, 0x01), 0x01)\n        /* \"contracts/Mooniswap.sol\":7551:7584  virtualBalancesForAddition[token] */\n      dup7\n      and\n      0x00\n      swap1\n      dup2\n      mstore\n        /* \"contracts/Mooniswap.sol\":7551:7577  virtualBalancesForAddition */\n      0x0c\n        /* \"contracts/Mooniswap.sol\":7551:7584  virtualBalancesForAddition[token] */\n      0x20\n      mstore\n      0x40\n      swap1\n      keccak256\n      swap2\n        /* \"contracts/Mooniswap.sol\":7551:7640  virtualBalancesForAddition[token].scale(preBalance, totalSupply.sub(amount), totalSupply) */\n      swap1\n        /* \"contracts/Mooniswap.sol\":7628:7639  totalSupply */\n      dup9\n        /* \"contracts/Mooniswap.sol\":7551:7590  virtualBalancesForAddition[token].scale */\n      tag_245\n        /* \"contracts/Mooniswap.sol\":7551:7640  virtualBalancesForAddition[token].scale(preBalance, totalSupply.sub(amount), totalSupply) */\n      jump\t// in\n    tag_242:\n        /* \"contracts/Mooniswap.sol\":7654:7742  virtualBalancesForRemoval[token].scale(preBalance, totalSupply.sub(amount), totalSupply) */\n      tag_246\n        /* \"contracts/Mooniswap.sol\":7693:7703  preBalance */\n      dup3\n        /* \"contracts/Mooniswap.sol\":7705:7728  totalSupply.sub(amount) */\n      tag_247\n        /* \"contracts/Mooniswap.sol\":7705:7716  totalSupply */\n      dup8\n        /* \"contracts/Mooniswap.sol\":7721:7727  amount */\n      dup11\n        /* \"contracts/Mooniswap.sol\":7705:7720  totalSupply.sub */\n      tag_244\n        /* \"contracts/Mooniswap.sol\":7705:7728  totalSupply.sub(amount) */\n      jump\t// in\n    tag_247:\n      sub(shl(0xa0, 0x01), 0x01)\n        /* \"contracts/Mooniswap.sol\":7654:7686  virtualBalancesForRemoval[token] */\n      dup7\n      and\n      0x00\n      swap1\n      dup2\n      mstore\n        /* \"contracts/Mooniswap.sol\":7654:7679  virtualBalancesForRemoval */\n      0x0d\n        /* \"contracts/Mooniswap.sol\":7654:7686  virtualBalancesForRemoval[token] */\n      0x20\n      mstore\n      0x40\n      swap1\n      keccak256\n      swap2\n        /* \"contracts/Mooniswap.sol\":7654:7742  virtualBalancesForRemoval[token].scale(preBalance, totalSupply.sub(amount), totalSupply) */\n      swap1\n        /* \"contracts/Mooniswap.sol\":7730:7741  totalSupply */\n      dup9\n        /* \"contracts/Mooniswap.sol\":7654:7692  virtualBalancesForRemoval[token].scale */\n      tag_245\n        /* \"contracts/Mooniswap.sol\":7654:7742  virtualBalancesForRemoval[token].scale(preBalance, totalSupply.sub(amount), totalSupply) */\n      jump\t// in\n    tag_246:\n      pop\n      pop\n      pop\n        /* \"contracts/Mooniswap.sol\":7199:7202  i++ */\n      0x01\n      add\n        /* \"contracts/Mooniswap.sol\":7163:7753  for (uint i = 0; i < tokens.length; i++) {... */\n      jump(tag_226)\n    tag_227:\n      pop\n        /* \"contracts/Mooniswap.sol\":7768:7797  Withdrawn(msg.sender, amount) */\n      0x40\n      dup1\n      mload\n      dup5\n      dup2\n      mstore\n      swap1\n      mload\n        /* \"contracts/Mooniswap.sol\":7778:7788  msg.sender */\n      caller\n      swap2\n        /* \"contracts/Mooniswap.sol\":7768:7797  Withdrawn(msg.sender, amount) */\n      0x7084f5476618d8e60b11ef0d7d3f06914655adb8793e28ff7f018d4c76d505d5\n      swap2\n      swap1\n      dup2\n      swap1\n      sub\n      0x20\n      add\n      swap1\n      log2\n      pop\n      pop\n        /* \"@openzeppelin/contracts/utils/ReentrancyGuard.sol\":1628:1629  1 */\n      0x01\n        /* \"@openzeppelin/contracts/utils/ReentrancyGuard.sol\":2563:2570  _status */\n      0x06\n        /* \"@openzeppelin/contracts/utils/ReentrancyGuard.sol\":2563:2585  _status = _NOT_ENTERED */\n      sstore\n      pop\n        /* \"contracts/Mooniswap.sol\":6987:7804  function withdraw(uint256 amount, uint256[] memory minReturns) external nonReentrant {... */\n      jump\t// out\n        /* \"contracts/Mooniswap.sol\":2808:2879  mapping(IERC20 => VirtualBalance.Data) public virtualBalancesForRemoval */\n    tag_93:\n      mstore(0x20, 0x0d)\n      0x00\n      swap1\n      dup2\n      mstore\n      0x40\n      swap1\n      keccak256\n      sload\n      sub(shl(0xd8, 0x01), 0x01)\n      dup2\n      and\n      swap1\n      shl(0xd8, 0x01)\n      swap1\n      div\n      0xffffffffff\n      and\n      dup3\n      jump\t// out\n        /* \"contracts/Mooniswap.sol\":2730:2802  mapping(IERC20 => VirtualBalance.Data) public virtualBalancesForAddition */\n    tag_97:\n      mstore(0x20, 0x0c)\n      0x00\n      swap1\n      dup2\n      mstore\n      0x40\n      swap1\n      keccak256\n      sload\n      sub(shl(0xd8, 0x01), 0x01)\n      dup2\n      and\n      swap1\n      shl(0xd8, 0x01)\n      swap1\n      div\n      0xffffffffff\n      and\n      dup3\n      jump\t// out\n        /* \"@openzeppelin/contracts/token/ERC20/ERC20.sol\":3418:3535  function balanceOf(address account) public view override returns (uint256) {... */\n    tag_101:\n      sub(shl(0xa0, 0x01), 0x01)\n        /* \"@openzeppelin/contracts/token/ERC20/ERC20.sol\":3510:3528  _balances[account] */\n      dup2\n      and\n        /* \"@openzeppelin/contracts/token/ERC20/ERC20.sol\":3484:3491  uint256 */\n      0x00\n        /* \"@openzeppelin/contracts/token/ERC20/ERC20.sol\":3510:3528  _balances[account] */\n      swap1\n      dup2\n      mstore\n      0x20\n      dup2\n      swap1\n      mstore\n      0x40\n      swap1\n      keccak256\n      sload\n        /* \"@openzeppelin/contracts/token/ERC20/ERC20.sol\":3418:3535  function balanceOf(address account) public view override returns (uint256) {... */\n    tag_248:\n      swap2\n      swap1\n      pop\n      jump\t// out\n        /* \"@openzeppelin/contracts/access/Ownable.sol\":1689:1834  function renounceOwnership() public virtual onlyOwner {... */\n    tag_104:\n        /* \"@openzeppelin/contracts/access/Ownable.sol\":1280:1292  _msgSender() */\n      tag_250\n        /* \"@openzeppelin/contracts/access/Ownable.sol\":1280:1290  _msgSender */\n      tag_194\n        /* \"@openzeppelin/contracts/access/Ownable.sol\":1280:1292  _msgSender() */\n      jump\t// in\n    tag_250:\n        /* \"@openzeppelin/contracts/access/Ownable.sol\":1270:1276  _owner */\n      sload(0x07)\n      sub(shl(0xa0, 0x01), 0x01)\n      swap1\n      dup2\n      and\n        /* \"@openzeppelin/contracts/access/Ownable.sol\":1270:1292  _owner == _msgSender() */\n      swap2\n      and\n      eq\n        /* \"@openzeppelin/contracts/access/Ownable.sol\":1262:1329  require(_owner == _msgSender(), \"Ownable: caller is not the owner\") */\n      tag_251\n      jumpi\n      0x40\n      dup1\n      mload\n      shl(0xe5, 0x461bcd)\n      dup2\n      mstore\n      0x20\n      0x04\n      dup3\n      add\n      dup2\n      swap1\n      mstore\n      0x24\n      dup3\n      add\n      mstore\n      0x4f776e61626c653a2063616c6c6572206973206e6f7420746865206f776e6572\n      0x44\n      dup3\n      add\n      mstore\n      swap1\n      mload\n      swap1\n      dup2\n      swap1\n      sub\n      0x64\n      add\n      swap1\n      revert\n    tag_251:\n        /* \"@openzeppelin/contracts/access/Ownable.sol\":1779:1785  _owner */\n      sload(0x07)\n        /* \"@openzeppelin/contracts/access/Ownable.sol\":1758:1798  OwnershipTransferred(_owner, address(0)) */\n      mload(0x40)\n        /* \"@openzeppelin/contracts/access/Ownable.sol\":1795:1796  0 */\n      0x00\n      swap2\n      sub(shl(0xa0, 0x01), 0x01)\n        /* \"@openzeppelin/contracts/access/Ownable.sol\":1779:1785  _owner */\n      and\n      swap1\n        /* \"@openzeppelin/contracts/access/Ownable.sol\":1758:1798  OwnershipTransferred(_owner, address(0)) */\n      0x8be0079c531659141344cd1fd0a4f28419497f9722a3daafe3b4186f6b6457e0\n      swap1\n        /* \"@openzeppelin/contracts/access/Ownable.sol\":1795:1796  0 */\n      dup4\n      swap1\n        /* \"@openzeppelin/contracts/access/Ownable.sol\":1758:1798  OwnershipTransferred(_owner, address(0)) */\n      log3\n        /* \"@openzeppelin/contracts/access/Ownable.sol\":1808:1814  _owner */\n      0x07\n        /* \"@openzeppelin/contracts/access/Ownable.sol\":1808:1827  _owner = address(0) */\n      dup1\n      sload\n      not(sub(shl(0xa0, 0x01), 0x01))\n      and\n      swap1\n      sstore\n        /* \"@openzeppelin/contracts/access/Ownable.sol\":1689:1834  function renounceOwnership() public virtual onlyOwner {... */\n      jump\t// out\n        /* \"contracts/Mooniswap.sol\":10389:10974  function rescueFunds(IERC20 token, uint256 amount) external nonReentrant onlyOwner {... */\n    tag_108:\n        /* \"@openzeppelin/contracts/utils/ReentrancyGuard.sol\":1671:1672  2 */\n      0x02\n        /* \"@openzeppelin/contracts/utils/ReentrancyGuard.sol\":2260:2267  _status */\n      sload(0x06)\n        /* \"@openzeppelin/contracts/utils/ReentrancyGuard.sol\":2260:2279  _status != _ENTERED */\n      eq\n      iszero\n        /* \"@openzeppelin/contracts/utils/ReentrancyGuard.sol\":2252:2315  require(_status != _ENTERED, \"ReentrancyGuard: reentrant call\") */\n      tag_254\n      jumpi\n      0x40\n      dup1\n      mload\n      shl(0xe5, 0x461bcd)\n      dup2\n      mstore\n      0x20\n      0x04\n      dup3\n      add\n      mstore\n      0x1f\n      0x24\n      dup3\n      add\n      mstore\n      0x00\n      dup1\n      mload\n      0x20\n      data_0d74825aecb0211bbe1f02ccfb998d9e49771bedb2c6414e20fd8978a2e0f54c\n      dup4\n      codecopy\n      dup2\n      mload\n      swap2\n      mstore\n      0x44\n      dup3\n      add\n      mstore\n      swap1\n      mload\n      swap1\n      dup2\n      swap1\n      sub\n      0x64\n      add\n      swap1\n      revert\n    tag_254:\n        /* \"@openzeppelin/contracts/utils/ReentrancyGuard.sol\":1671:1672  2 */\n      0x02\n        /* \"@openzeppelin/contracts/utils/ReentrancyGuard.sol\":2390:2397  _status */\n      0x06\n        /* \"@openzeppelin/contracts/utils/ReentrancyGuard.sol\":2390:2408  _status = _ENTERED */\n      sstore\n        /* \"@openzeppelin/contracts/access/Ownable.sol\":1280:1292  _msgSender() */\n      tag_256\n        /* \"@openzeppelin/contracts/access/Ownable.sol\":1280:1290  _msgSender */\n      tag_194\n        /* \"@openzeppelin/contracts/access/Ownable.sol\":1280:1292  _msgSender() */\n      jump\t// in\n    tag_256:\n        /* \"@openzeppelin/contracts/access/Ownable.sol\":1270:1276  _owner */\n      sload(0x07)\n      sub(shl(0xa0, 0x01), 0x01)\n      swap1\n      dup2\n      and\n        /* \"@openzeppelin/contracts/access/Ownable.sol\":1270:1292  _owner == _msgSender() */\n      swap2\n      and\n      eq\n        /* \"@openzeppelin/contracts/access/Ownable.sol\":1262:1329  require(_owner == _msgSender(), \"Ownable: caller is not the owner\") */\n      tag_257\n      jumpi\n      0x40\n      dup1\n      mload\n      shl(0xe5, 0x461bcd)\n      dup2\n      mstore\n      0x20\n      0x04\n      dup3\n      add\n      dup2\n      swap1\n      mstore\n      0x24\n      dup3\n      add\n      mstore\n      0x4f776e61626c653a2063616c6c6572206973206e6f7420746865206f776e6572\n      0x44\n      dup3\n      add\n      mstore\n      swap1\n      mload\n      swap1\n      dup2\n      swap1\n      sub\n      0x64\n      add\n      swap1\n      revert\n    tag_257:\n        /* \"contracts/Mooniswap.sol\":10524:10530  tokens */\n      0x09\n        /* \"contracts/Mooniswap.sol\":10524:10537  tokens.length */\n      sload\n        /* \"contracts/Mooniswap.sol\":10482:10507  uint256[] memory balances */\n      0x60\n      swap1\n        /* \"contracts/Mooniswap.sol\":10510:10538  new uint256[](tokens.length) */\n      0xffffffffffffffff\n      dup2\n      gt\n      dup1\n      iszero\n      tag_259\n      jumpi\n      0x00\n      dup1\n      revert\n    tag_259:\n      pop\n      mload(0x40)\n      swap1\n      dup1\n      dup3\n      mstore\n      dup1\n      0x20\n      mul\n      0x20\n      add\n      dup3\n      add\n      0x40\n      mstore\n      dup1\n      iszero\n      tag_260\n      jumpi\n      dup2\n      0x20\n      add\n      0x20\n      dup3\n      mul\n      dup1\n      calldatasize\n      dup4\n      calldatacopy\n      add\n      swap1\n      pop\n    tag_260:\n      pop\n        /* \"contracts/Mooniswap.sol\":10482:10538  uint256[] memory balances = new uint256[](tokens.length) */\n      swap1\n      pop\n        /* \"contracts/Mooniswap.sol\":10553:10559  uint i */\n      0x00\n        /* \"contracts/Mooniswap.sol\":10548:10667  for (uint i = 0; i < balances.length; i++) {... */\n    tag_261:\n        /* \"contracts/Mooniswap.sol\":10569:10577  balances */\n      dup2\n        /* \"contracts/Mooniswap.sol\":10569:10584  balances.length */\n      mload\n        /* \"contracts/Mooniswap.sol\":10565:10566  i */\n      dup2\n        /* \"contracts/Mooniswap.sol\":10565:10584  i < balances.length */\n      lt\n        /* \"contracts/Mooniswap.sol\":10548:10667  for (uint i = 0; i < balances.length; i++) {... */\n      iszero\n      tag_262\n      jumpi\n        /* \"contracts/Mooniswap.sol\":10619:10656  tokens[i].uniBalanceOf(address(this)) */\n      tag_264\n        /* \"contracts/Mooniswap.sol\":10650:10654  this */\n      address\n        /* \"contracts/Mooniswap.sol\":10619:10625  tokens */\n      0x09\n        /* \"contracts/Mooniswap.sol\":10626:10627  i */\n      dup4\n        /* \"contracts/Mooniswap.sol\":10619:10628  tokens[i] */\n      dup2\n      sload\n      dup2\n      lt\n      tag_265\n      jumpi\n      invalid\n    tag_265:\n      0x00\n      swap2\n      dup3\n      mstore\n      0x20\n      swap1\n      swap2\n      keccak256\n      add\n      sload\n      sub(shl(0xa0, 0x01), 0x01)\n      and\n      swap1\n        /* \"contracts/Mooniswap.sol\":10619:10641  tokens[i].uniBalanceOf */\n      tag_232\n        /* \"contracts/Mooniswap.sol\":10619:10656  tokens[i].uniBalanceOf(address(this)) */\n      jump\t// in\n    tag_264:\n        /* \"contracts/Mooniswap.sol\":10605:10613  balances */\n      dup3\n        /* \"contracts/Mooniswap.sol\":10614:10615  i */\n      dup3\n        /* \"contracts/Mooniswap.sol\":10605:10616  balances[i] */\n      dup2\n      mload\n      dup2\n      lt\n      tag_267\n      jumpi\n      invalid\n    tag_267:\n      0x20\n      swap1\n      dup2\n      mul\n      swap2\n      swap1\n      swap2\n      add\n      add\n        /* \"contracts/Mooniswap.sol\":10605:10656  balances[i] = tokens[i].uniBalanceOf(address(this)) */\n      mstore\n        /* \"contracts/Mooniswap.sol\":10586:10589  i++ */\n      0x01\n      add\n        /* \"contracts/Mooniswap.sol\":10548:10667  for (uint i = 0; i < balances.length; i++) {... */\n      jump(tag_261)\n    tag_262:\n      pop\n        /* \"contracts/Mooniswap.sol\":10677:10714  token.uniTransfer(msg.sender, amount) */\n      tag_268\n      sub(shl(0xa0, 0x01), 0x01)\n        /* \"contracts/Mooniswap.sol\":10677:10694  token.uniTransfer */\n      dup5\n      and\n        /* \"contracts/Mooniswap.sol\":10695:10705  msg.sender */\n      caller\n        /* \"contracts/Mooniswap.sol\":10707:10713  amount */\n      dup5\n        /* \"contracts/Mooniswap.sol\":10677:10694  token.uniTransfer */\n      tag_238\n        /* \"contracts/Mooniswap.sol\":10677:10714  token.uniTransfer(msg.sender, amount) */\n      jump\t// in\n    tag_268:\n        /* \"contracts/Mooniswap.sol\":10730:10736  uint i */\n      0x00\n        /* \"contracts/Mooniswap.sol\":10725:10882  for (uint i = 0; i < balances.length; i++) {... */\n    tag_269:\n        /* \"contracts/Mooniswap.sol\":10746:10754  balances */\n      dup2\n        /* \"contracts/Mooniswap.sol\":10746:10761  balances.length */\n      mload\n        /* \"contracts/Mooniswap.sol\":10742:10743  i */\n      dup2\n        /* \"contracts/Mooniswap.sol\":10742:10761  i < balances.length */\n      lt\n        /* \"contracts/Mooniswap.sol\":10725:10882  for (uint i = 0; i < balances.length; i++) {... */\n      iszero\n      tag_270\n      jumpi\n        /* \"contracts/Mooniswap.sol\":10831:10839  balances */\n      dup2\n        /* \"contracts/Mooniswap.sol\":10840:10841  i */\n      dup2\n        /* \"contracts/Mooniswap.sol\":10831:10842  balances[i] */\n      dup2\n      mload\n      dup2\n      lt\n      tag_272\n      jumpi\n      invalid\n    tag_272:\n      0x20\n      mul\n      0x20\n      add\n      add\n      mload\n        /* \"contracts/Mooniswap.sol\":10790:10827  tokens[i].uniBalanceOf(address(this)) */\n      tag_273\n        /* \"contracts/Mooniswap.sol\":10821:10825  this */\n      address\n        /* \"contracts/Mooniswap.sol\":10790:10796  tokens */\n      0x09\n        /* \"contracts/Mooniswap.sol\":10797:10798  i */\n      dup5\n        /* \"contracts/Mooniswap.sol\":10790:10799  tokens[i] */\n      dup2\n      sload\n      dup2\n      lt\n      tag_265\n      jumpi\n      invalid\n        /* \"contracts/Mooniswap.sol\":10790:10827  tokens[i].uniBalanceOf(address(this)) */\n    tag_273:\n        /* \"contracts/Mooniswap.sol\":10790:10842  tokens[i].uniBalanceOf(address(this)) >= balances[i] */\n      lt\n      iszero\n        /* \"contracts/Mooniswap.sol\":10782:10871  require(tokens[i].uniBalanceOf(address(this)) >= balances[i], \"Mooniswap: access denied\") */\n      tag_276\n      jumpi\n      0x40\n      dup1\n      mload\n      shl(0xe5, 0x461bcd)\n      dup2\n      mstore\n      0x20\n      0x04\n      dup3\n      add\n      mstore\n      0x18\n      0x24\n      dup3\n      add\n      mstore\n      shl(0x42, 0x135bdbdb9a5cddd85c0e881858d8d95cdcc819195b9a5959)\n      0x44\n      dup3\n      add\n      mstore\n      swap1\n      mload\n      swap1\n      dup2\n      swap1\n      sub\n      0x64\n      add\n      swap1\n      revert\n    tag_276:\n        /* \"contracts/Mooniswap.sol\":10763:10766  i++ */\n      0x01\n      add\n        /* \"contracts/Mooniswap.sol\":10725:10882  for (uint i = 0; i < balances.length; i++) {... */\n      jump(tag_269)\n    tag_270:\n      pop\n        /* \"contracts/Mooniswap.sol\":2481:2485  1000 */\n      0x03e8\n        /* \"contracts/Mooniswap.sol\":10899:10923  balanceOf(address(this)) */\n      tag_277\n        /* \"contracts/Mooniswap.sol\":10917:10921  this */\n      address\n        /* \"contracts/Mooniswap.sol\":10899:10908  balanceOf */\n      tag_101\n        /* \"contracts/Mooniswap.sol\":10899:10923  balanceOf(address(this)) */\n      jump\t// in\n    tag_277:\n        /* \"contracts/Mooniswap.sol\":10899:10938  balanceOf(address(this)) >= BASE_SUPPLY */\n      lt\n      iszero\n        /* \"contracts/Mooniswap.sol\":10891:10967  require(balanceOf(address(this)) >= BASE_SUPPLY, \"Mooniswap: access denied\") */\n      tag_278\n      jumpi\n      0x40\n      dup1\n      mload\n      shl(0xe5, 0x461bcd)\n      dup2\n      mstore\n      0x20\n      0x04\n      dup3\n      add\n      mstore\n      0x18\n      0x24\n      dup3\n      add\n      mstore\n      shl(0x42, 0x135bdbdb9a5cddd85c0e881858d8d95cdcc819195b9a5959)\n      0x44\n      dup3\n      add\n      mstore\n      swap1\n      mload\n      swap1\n      dup2\n      swap1\n      sub\n      0x64\n      add\n      swap1\n      revert\n    tag_278:\n      pop\n      pop\n        /* \"@openzeppelin/contracts/utils/ReentrancyGuard.sol\":1628:1629  1 */\n      0x01\n        /* \"@openzeppelin/contracts/utils/ReentrancyGuard.sol\":2563:2570  _status */\n      0x06\n        /* \"@openzeppelin/contracts/utils/ReentrancyGuard.sol\":2563:2585  _status = _NOT_ENTERED */\n      sstore\n      pop\n        /* \"contracts/Mooniswap.sol\":10389:10974  function rescueFunds(IERC20 token, uint256 amount) external nonReentrant onlyOwner {... */\n      jump\t// out\n        /* \"@openzeppelin/contracts/access/Ownable.sol\":1066:1143  function owner() public view returns (address) {... */\n    tag_111:\n        /* \"@openzeppelin/contracts/access/Ownable.sol\":1130:1136  _owner */\n      and(sub(shl(0xa0, 0x01), 0x01), sload(0x07))\n        /* \"@openzeppelin/contracts/access/Ownable.sol\":1066:1143  function owner() public view returns (address) {... */\n      swap1\n      jump\t// out\n        /* \"@openzeppelin/contracts/token/ERC20/ERC20.sol\":2413:2498  function symbol() public view returns (string memory) {... */\n    tag_114:\n        /* \"@openzeppelin/contracts/token/ERC20/ERC20.sol\":2484:2491  _symbol */\n      0x04\n        /* \"@openzeppelin/contracts/token/ERC20/ERC20.sol\":2477:2491  return _symbol */\n      dup1\n      sload\n      0x40\n      dup1\n      mload\n      0x20\n      0x1f\n      0x02\n      not(0x00)\n      0x0100\n      0x01\n      dup9\n      and\n      iszero\n      mul\n      add\n      swap1\n      swap6\n      and\n      swap5\n      swap1\n      swap5\n      div\n      swap4\n      dup5\n      add\n      dup2\n      swap1\n      div\n      dup2\n      mul\n      dup3\n      add\n      dup2\n      add\n      swap1\n      swap3\n      mstore\n      dup3\n      dup2\n      mstore\n        /* \"@openzeppelin/contracts/token/ERC20/ERC20.sol\":2452:2465  string memory */\n      0x60\n      swap4\n        /* \"@openzeppelin/contracts/token/ERC20/ERC20.sol\":2477:2491  return _symbol */\n      swap1\n      swap3\n        /* \"@openzeppelin/contracts/token/ERC20/ERC20.sol\":2484:2491  _symbol */\n      swap1\n      swap2\n        /* \"@openzeppelin/contracts/token/ERC20/ERC20.sol\":2477:2491  return _symbol */\n      dup4\n      add\n        /* \"@openzeppelin/contracts/token/ERC20/ERC20.sol\":2484:2491  _symbol */\n      dup3\n        /* \"@openzeppelin/contracts/token/ERC20/ERC20.sol\":2477:2491  return _symbol */\n      dup3\n      dup1\n      iszero\n      tag_188\n      jumpi\n      dup1\n      0x1f\n      lt\n      tag_189\n      jumpi\n      0x0100\n      dup1\n      dup4\n      sload\n      div\n      mul\n      dup4\n      mstore\n      swap2\n      0x20\n      add\n      swap2\n      jump(tag_188)\n        /* \"contracts/Mooniswap.sol\":2991:3423  function initialize(IERC20[] memory assets) external {... */\n    tag_125:\n        /* \"contracts/Mooniswap.sol\":3068:3074  assets */\n      dup1\n        /* \"contracts/Mooniswap.sol\":3068:3081  assets.length */\n      mload\n        /* \"contracts/Mooniswap.sol\":3085:3086  2 */\n      0x02\n        /* \"contracts/Mooniswap.sol\":3068:3086  assets.length == 2 */\n      eq\n        /* \"contracts/Mooniswap.sol\":3060:3123  require(assets.length == 2, \"Mooniswap: only 2 tokens allowed\") */\n      tag_285\n      jumpi\n      0x40\n      dup1\n      mload\n      shl(0xe5, 0x461bcd)\n      dup2\n      mstore\n      0x20\n      0x04\n      dup3\n      add\n      dup2\n      swap1\n      mstore\n      0x24\n      dup3\n      add\n      mstore\n      0x4d6f6f6e69737761703a206f6e6c79203220746f6b656e7320616c6c6f776564\n      0x44\n      dup3\n      add\n      mstore\n      swap1\n      mload\n      swap1\n      dup2\n      swap1\n      sub\n      0x64\n      add\n      swap1\n      revert\n    tag_285:\n        /* \"contracts/Mooniswap.sol\":3188:3195  factory */\n      0x08\n        /* \"contracts/Mooniswap.sol\":3188:3218  factory = IFactory(msg.sender) */\n      dup1\n      sload\n      not(sub(shl(0xa0, 0x01), 0x01))\n      and\n        /* \"contracts/Mooniswap.sol\":3207:3217  msg.sender */\n      caller\n        /* \"contracts/Mooniswap.sol\":3188:3218  factory = IFactory(msg.sender) */\n      or\n      swap1\n      sstore\n        /* \"contracts/Mooniswap.sol\":3228:3243  tokens = assets */\n      dup1\n      mload\n      tag_286\n      swap1\n        /* \"contracts/Mooniswap.sol\":3228:3234  tokens */\n      0x09\n      swap1\n        /* \"contracts/Mooniswap.sol\":3228:3243  tokens = assets */\n      0x20\n      dup5\n      add\n      swap1\n      tag_287\n      jump\t// in\n    tag_286:\n      pop\n        /* \"contracts/Mooniswap.sol\":3258:3264  uint i */\n      0x00\n        /* \"contracts/Mooniswap.sol\":3253:3417  for (uint i = 0; i < assets.length; i++) {... */\n    tag_288:\n        /* \"contracts/Mooniswap.sol\":3274:3280  assets */\n      dup2\n        /* \"contracts/Mooniswap.sol\":3274:3287  assets.length */\n      mload\n        /* \"contracts/Mooniswap.sol\":3270:3271  i */\n      dup2\n        /* \"contracts/Mooniswap.sol\":3270:3287  i < assets.length */\n      lt\n        /* \"contracts/Mooniswap.sol\":3253:3417  for (uint i = 0; i < assets.length; i++) {... */\n      iszero\n      tag_289\n      jumpi\n        /* \"contracts/Mooniswap.sol\":3317:3324  isToken */\n      0x0a\n        /* \"contracts/Mooniswap.sol\":3317:3335  isToken[assets[i]] */\n      0x00\n        /* \"contracts/Mooniswap.sol\":3325:3331  assets */\n      dup4\n        /* \"contracts/Mooniswap.sol\":3332:3333  i */\n      dup4\n        /* \"contracts/Mooniswap.sol\":3325:3334  assets[i] */\n      dup2\n      mload\n      dup2\n      lt\n      tag_291\n      jumpi\n      invalid\n    tag_291:\n      0x20\n      swap1\n      dup2\n      mul\n      swap2\n      swap1\n      swap2\n      add\n      dup2\n      add\n      mload\n      sub(shl(0xa0, 0x01), 0x01)\n        /* \"contracts/Mooniswap.sol\":3317:3335  isToken[assets[i]] */\n      and\n      dup3\n      mstore\n      dup2\n      add\n      swap2\n      swap1\n      swap2\n      mstore\n      0x40\n      add\n      0x00\n      keccak256\n      sload\n      0xff\n      and\n        /* \"contracts/Mooniswap.sol\":3316:3335  !isToken[assets[i]] */\n      iszero\n        /* \"contracts/Mooniswap.sol\":3308:3367  require(!isToken[assets[i]], \"Mooniswap: duplicate tokens\") */\n      tag_292\n      jumpi\n      0x40\n      dup1\n      mload\n      shl(0xe5, 0x461bcd)\n      dup2\n      mstore\n      0x20\n      0x04\n      dup3\n      add\n      mstore\n      0x1b\n      0x24\n      dup3\n      add\n      mstore\n      0x4d6f6f6e69737761703a206475706c696361746520746f6b656e730000000000\n      0x44\n      dup3\n      add\n      mstore\n      swap1\n      mload\n      swap1\n      dup2\n      swap1\n      sub\n      0x64\n      add\n      swap1\n      revert\n    tag_292:\n        /* \"contracts/Mooniswap.sol\":3402:3406  true */\n      0x01\n        /* \"contracts/Mooniswap.sol\":3381:3388  isToken */\n      0x0a\n        /* \"contracts/Mooniswap.sol\":3381:3399  isToken[assets[i]] */\n      0x00\n        /* \"contracts/Mooniswap.sol\":3389:3395  assets */\n      dup5\n        /* \"contracts/Mooniswap.sol\":3396:3397  i */\n      dup5\n        /* \"contracts/Mooniswap.sol\":3389:3398  assets[i] */\n      dup2\n      mload\n      dup2\n      lt\n      tag_293\n      jumpi\n      invalid\n    tag_293:\n      0x20\n      swap1\n      dup2\n      mul\n      swap2\n      swap1\n      swap2\n      add\n      dup2\n      add\n      mload\n      sub(shl(0xa0, 0x01), 0x01)\n        /* \"contracts/Mooniswap.sol\":3381:3399  isToken[assets[i]] */\n      and\n      dup3\n      mstore\n      dup2\n      add\n      swap2\n      swap1\n      swap2\n      mstore\n      0x40\n      add\n      0x00\n      keccak256\n        /* \"contracts/Mooniswap.sol\":3381:3406  isToken[assets[i]] = true */\n      dup1\n      sload\n      not(0xff)\n      and\n      swap2\n      iszero\n      iszero\n      swap2\n      swap1\n      swap2\n      or\n      swap1\n      sstore\n      0x01\n        /* \"contracts/Mooniswap.sol\":3289:3292  i++ */\n      add\n        /* \"contracts/Mooniswap.sol\":3253:3417  for (uint i = 0; i < assets.length; i++) {... */\n      jump(tag_288)\n    tag_289:\n      pop\n        /* \"contracts/Mooniswap.sol\":2991:3423  function initialize(IERC20[] memory assets) external {... */\n      pop\n      jump\t// out\n        /* \"@openzeppelin/contracts/token/ERC20/ERC20.sol\":6295:6561  function decreaseAllowance(address spender, uint256 subtractedValue) public virtual returns (bool) {... */\n    tag_129:\n        /* \"@openzeppelin/contracts/token/ERC20/ERC20.sol\":6388:6392  bool */\n      0x00\n        /* \"@openzeppelin/contracts/token/ERC20/ERC20.sol\":6404:6533  _approve(_msgSender(), spender, _allowances[_msgSender()][spender].sub(subtractedValue, \"ERC20: decreased allowance below zero\")) */\n      tag_192\n        /* \"@openzeppelin/contracts/token/ERC20/ERC20.sol\":6413:6425  _msgSender() */\n      tag_296\n        /* \"@openzeppelin/contracts/token/ERC20/ERC20.sol\":6413:6423  _msgSender */\n      tag_194\n        /* \"@openzeppelin/contracts/token/ERC20/ERC20.sol\":6413:6425  _msgSender() */\n      jump\t// in\n    tag_296:\n        /* \"@openzeppelin/contracts/token/ERC20/ERC20.sol\":6427:6434  spender */\n      dup5\n        /* \"@openzeppelin/contracts/token/ERC20/ERC20.sol\":6436:6532  _allowances[_msgSender()][spender].sub(subtractedValue, \"ERC20: decreased allowance below zero\") */\n      tag_207\n        /* \"@openzeppelin/contracts/token/ERC20/ERC20.sol\":6475:6490  subtractedValue */\n      dup6\n        /* \"@openzeppelin/contracts/token/ERC20/ERC20.sol\":6436:6532  _allowances[_msgSender()][spender].sub(subtractedValue, \"ERC20: decreased allowance below zero\") */\n      mload(0x40)\n      dup1\n      0x60\n      add\n      0x40\n      mstore\n      dup1\n      0x25\n      dup2\n      mstore\n      0x20\n      add\n      data_f8b476f7d28209d77d4a4ac1fe36b9f8259aa1bb6bddfa6e89de7e51615cf8a8\n      0x25\n      swap2\n      codecopy\n        /* \"@openzeppelin/contracts/token/ERC20/ERC20.sol\":6436:6447  _allowances */\n      0x01\n        /* \"@openzeppelin/contracts/token/ERC20/ERC20.sol\":6436:6461  _allowances[_msgSender()] */\n      0x00\n        /* \"@openzeppelin/contracts/token/ERC20/ERC20.sol\":6448:6460  _msgSender() */\n      tag_298\n        /* \"@openzeppelin/contracts/token/ERC20/ERC20.sol\":6448:6458  _msgSender */\n      tag_194\n        /* \"@openzeppelin/contracts/token/ERC20/ERC20.sol\":6448:6460  _msgSender() */\n      jump\t// in\n    tag_298:\n      sub(shl(0xa0, 0x01), 0x01)\n        /* \"@openzeppelin/contracts/token/ERC20/ERC20.sol\":6436:6461  _allowances[_msgSender()] */\n      swap1\n      dup2\n      and\n      dup3\n      mstore\n      0x20\n      dup1\n      dup4\n      add\n      swap4\n      swap1\n      swap4\n      mstore\n      0x40\n      swap2\n      dup3\n      add\n      0x00\n      swap1\n      dup2\n      keccak256\n        /* \"@openzeppelin/contracts/token/ERC20/ERC20.sol\":6436:6470  _allowances[_msgSender()][spender] */\n      swap2\n      dup14\n      and\n      dup2\n      mstore\n      swap3\n      mstore\n      swap1\n      keccak256\n      sload\n      swap2\n        /* \"@openzeppelin/contracts/token/ERC20/ERC20.sol\":6436:6532  _allowances[_msgSender()][spender].sub(subtractedValue, \"ERC20: decreased allowance below zero\") */\n      swap1\n        /* \"@openzeppelin/contracts/token/ERC20/ERC20.sol\":6436:6474  _allowances[_msgSender()][spender].sub */\n      tag_209\n        /* \"@openzeppelin/contracts/token/ERC20/ERC20.sol\":6436:6532  _allowances[_msgSender()][spender].sub(subtractedValue, \"ERC20: decreased allowance below zero\") */\n      jump\t// in\n        /* \"@openzeppelin/contracts/token/ERC20/ERC20.sol\":3738:3910  function transfer(address recipient, uint256 amount) public virtual override returns (bool) {... */\n    tag_133:\n        /* \"@openzeppelin/contracts/token/ERC20/ERC20.sol\":3824:3828  bool */\n      0x00\n        /* \"@openzeppelin/contracts/token/ERC20/ERC20.sol\":3840:3882  _transfer(_msgSender(), recipient, amount) */\n      tag_192\n        /* \"@openzeppelin/contracts/token/ERC20/ERC20.sol\":3850:3862  _msgSender() */\n      tag_301\n        /* \"@openzeppelin/contracts/token/ERC20/ERC20.sol\":3850:3860  _msgSender */\n      tag_194\n        /* \"@openzeppelin/contracts/token/ERC20/ERC20.sol\":3850:3862  _msgSender() */\n      jump\t// in\n    tag_301:\n        /* \"@openzeppelin/contracts/token/ERC20/ERC20.sol\":3864:3873  recipient */\n      dup5\n        /* \"@openzeppelin/contracts/token/ERC20/ERC20.sol\":3875:3881  amount */\n      dup5\n        /* \"@openzeppelin/contracts/token/ERC20/ERC20.sol\":3840:3849  _transfer */\n      tag_204\n        /* \"@openzeppelin/contracts/token/ERC20/ERC20.sol\":3840:3882  _transfer(_msgSender(), recipient, amount) */\n      jump\t// in\n        /* \"contracts/Mooniswap.sol\":3516:3606  function getTokens() external view returns(IERC20[] memory) {... */\n    tag_136:\n        /* \"contracts/Mooniswap.sol\":3559:3574  IERC20[] memory */\n      0x60\n        /* \"contracts/Mooniswap.sol\":3593:3599  tokens */\n      0x09\n        /* \"contracts/Mooniswap.sol\":3586:3599  return tokens */\n      dup1\n      sload\n      dup1\n      0x20\n      mul\n      0x20\n      add\n      mload(0x40)\n      swap1\n      dup2\n      add\n      0x40\n      mstore\n      dup1\n      swap3\n      swap2\n      swap1\n      dup2\n      dup2\n      mstore\n      0x20\n      add\n      dup3\n      dup1\n      sload\n      dup1\n      iszero\n      tag_188\n      jumpi\n      0x20\n      mul\n      dup3\n      add\n      swap2\n      swap1\n      0x00\n      mstore\n      keccak256(0x00, 0x20)\n      swap1\n    tag_304:\n      dup2\n      sload\n      sub(shl(0xa0, 0x01), 0x01)\n      and\n      dup2\n      mstore\n      0x01\n      swap1\n      swap2\n      add\n      swap1\n      0x20\n      add\n      dup1\n      dup4\n      gt\n      tag_304\n      jumpi\n      pop\n      pop\n      pop\n      pop\n      pop\n      swap1\n      pop\n        /* \"contracts/Mooniswap.sol\":3516:3606  function getTokens() external view returns(IERC20[] memory) {... */\n      swap1\n      jump\t// out\n        /* \"contracts/Mooniswap.sol\":2679:2724  mapping(IERC20 => SwapVolumes) public volumes */\n    tag_143:\n      mstore(0x20, 0x0b)\n      0x00\n      swap1\n      dup2\n      mstore\n      0x40\n      swap1\n      keccak256\n      sload\n      sub(shl(0x80, 0x01), 0x01)\n      dup1\n      dup3\n      and\n      swap2\n      shl(0x80, 0x01)\n      swap1\n      div\n      and\n      dup3\n      jump\t// out\n        /* \"contracts/Mooniswap.sol\":2363:2406  uint256 public constant REFERRAL_SHARE = 20 */\n    tag_146:\n        /* \"contracts/Mooniswap.sol\":2404:2406  20 */\n      0x14\n        /* \"contracts/Mooniswap.sol\":2363:2406  uint256 public constant REFERRAL_SHARE = 20 */\n      dup2\n      jump\t// out\n        /* \"contracts/Mooniswap.sol\":2443:2485  uint256 public constant BASE_SUPPLY = 1000 */\n    tag_149:\n        /* \"contracts/Mooniswap.sol\":2481:2485  1000 */\n      0x03e8\n        /* \"contracts/Mooniswap.sol\":2443:2485  uint256 public constant BASE_SUPPLY = 1000 */\n      dup2\n      jump\t// out\n        /* \"contracts/Mooniswap.sol\":2578:2601  IFactory public factory */\n    tag_152:\n      and(sub(shl(0xa0, 0x01), 0x01), sload(0x08))\n      dup2\n      jump\t// out\n        /* \"contracts/Mooniswap.sol\":7810:10383  function swap(IERC20 src, IERC20 dst, uint256 amount, uint256 minReturn, address referral) external payable nonReentrant returns(uint256 result) {... */\n    tag_155:\n        /* \"contracts/Mooniswap.sol\":7939:7953  uint256 result */\n      0x00\n        /* \"@openzeppelin/contracts/utils/ReentrancyGuard.sol\":1671:1672  2 */\n      0x02\n        /* \"@openzeppelin/contracts/utils/ReentrancyGuard.sol\":2260:2267  _status */\n      sload(0x06)\n        /* \"@openzeppelin/contracts/utils/ReentrancyGuard.sol\":2260:2279  _status != _ENTERED */\n      eq\n      iszero\n        /* \"@openzeppelin/contracts/utils/ReentrancyGuard.sol\":2252:2315  require(_status != _ENTERED, \"ReentrancyGuard: reentrant call\") */\n      tag_306\n      jumpi\n      0x40\n      dup1\n      mload\n      shl(0xe5, 0x461bcd)\n      dup2\n      mstore\n      0x20\n      0x04\n      dup3\n      add\n      mstore\n      0x1f\n      0x24\n      dup3\n      add\n      mstore\n      0x00\n      dup1\n      mload\n      0x20\n      data_0d74825aecb0211bbe1f02ccfb998d9e49771bedb2c6414e20fd8978a2e0f54c\n      dup4\n      codecopy\n      dup2\n      mload\n      swap2\n      mstore\n      0x44\n      dup3\n      add\n      mstore\n      swap1\n      mload\n      swap1\n      dup2\n      swap1\n      sub\n      0x64\n      add\n      swap1\n      revert\n    tag_306:\n        /* \"@openzeppelin/contracts/utils/ReentrancyGuard.sol\":1671:1672  2 */\n      0x02\n        /* \"@openzeppelin/contracts/utils/ReentrancyGuard.sol\":2390:2397  _status */\n      0x06\n        /* \"@openzeppelin/contracts/utils/ReentrancyGuard.sol\":2390:2408  _status = _ENTERED */\n      sstore\n        /* \"contracts/Mooniswap.sol\":7987:7998  src.isETH() */\n      tag_308\n      sub(shl(0xa0, 0x01), 0x01)\n        /* \"contracts/Mooniswap.sol\":7987:7996  src.isETH */\n      dup8\n      and\n      tag_309\n        /* \"contracts/Mooniswap.sol\":7987:7998  src.isETH() */\n      jump\t// in\n    tag_308:\n        /* \"contracts/Mooniswap.sol\":7987:8011  src.isETH() ? amount : 0 */\n      tag_310\n      jumpi\n        /* \"contracts/Mooniswap.sol\":8010:8011  0 */\n      0x00\n        /* \"contracts/Mooniswap.sol\":7987:8011  src.isETH() ? amount : 0 */\n      jump(tag_311)\n    tag_310:\n        /* \"contracts/Mooniswap.sol\":8001:8007  amount */\n      dup4\n        /* \"contracts/Mooniswap.sol\":7987:8011  src.isETH() ? amount : 0 */\n    tag_311:\n        /* \"contracts/Mooniswap.sol\":7973:7982  msg.value */\n      callvalue\n        /* \"contracts/Mooniswap.sol\":7973:8012  msg.value == (src.isETH() ? amount : 0) */\n      eq\n        /* \"contracts/Mooniswap.sol\":7965:8045  require(msg.value == (src.isETH() ? amount : 0), \"Mooniswap: wrong value usage\") */\n      tag_312\n      jumpi\n      0x40\n      dup1\n      mload\n      shl(0xe5, 0x461bcd)\n      dup2\n      mstore\n      0x20\n      0x04\n      dup3\n      add\n      mstore\n      0x1c\n      0x24\n      dup3\n      add\n      mstore\n      0x4d6f6f6e69737761703a2077726f6e672076616c756520757361676500000000\n      0x44\n      dup3\n      add\n      mstore\n      swap1\n      mload\n      swap1\n      dup2\n      swap1\n      sub\n      0x64\n      add\n      swap1\n      revert\n    tag_312:\n        /* \"contracts/Mooniswap.sol\":8056:8080  Balances memory balances */\n      tag_313\n      tag_314\n      jump\t// in\n    tag_313:\n        /* \"contracts/Mooniswap.sol\":8083:8236  Balances({... */\n      mload(0x40)\n      dup1\n      0x40\n      add\n      0x40\n      mstore\n      dup1\n        /* \"contracts/Mooniswap.sol\":8111:8175  src.uniBalanceOf(address(this)).sub(src.isETH() ? msg.value : 0) */\n      tag_315\n        /* \"contracts/Mooniswap.sol\":8147:8158  src.isETH() */\n      tag_316\n        /* \"contracts/Mooniswap.sol\":8147:8150  src */\n      dup11\n      sub(shl(0xa0, 0x01), 0x01)\n        /* \"contracts/Mooniswap.sol\":8147:8156  src.isETH */\n      and\n      tag_309\n        /* \"contracts/Mooniswap.sol\":8147:8158  src.isETH() */\n      jump\t// in\n    tag_316:\n        /* \"contracts/Mooniswap.sol\":8147:8174  src.isETH() ? msg.value : 0 */\n      tag_317\n      jumpi\n        /* \"contracts/Mooniswap.sol\":8173:8174  0 */\n      0x00\n        /* \"contracts/Mooniswap.sol\":8147:8174  src.isETH() ? msg.value : 0 */\n      jump(tag_318)\n    tag_317:\n        /* \"contracts/Mooniswap.sol\":8161:8170  msg.value */\n      callvalue\n        /* \"contracts/Mooniswap.sol\":8147:8174  src.isETH() ? msg.value : 0 */\n    tag_318:\n        /* \"contracts/Mooniswap.sol\":8111:8142  src.uniBalanceOf(address(this)) */\n      tag_319\n      sub(shl(0xa0, 0x01), 0x01)\n        /* \"contracts/Mooniswap.sol\":8111:8127  src.uniBalanceOf */\n      dup13\n      and\n        /* \"contracts/Mooniswap.sol\":8136:8140  this */\n      address\n        /* \"contracts/Mooniswap.sol\":8111:8127  src.uniBalanceOf */\n      tag_232\n        /* \"contracts/Mooniswap.sol\":8111:8142  src.uniBalanceOf(address(this)) */\n      jump\t// in\n    tag_319:\n        /* \"contracts/Mooniswap.sol\":8111:8146  src.uniBalanceOf(address(this)).sub */\n      swap1\n      tag_244\n        /* \"contracts/Mooniswap.sol\":8111:8175  src.uniBalanceOf(address(this)).sub(src.isETH() ? msg.value : 0) */\n      jump\t// in\n    tag_315:\n        /* \"contracts/Mooniswap.sol\":8083:8236  Balances({... */\n      dup2\n      mstore\n      0x20\n      add\n        /* \"contracts/Mooniswap.sol\":8194:8225  dst.uniBalanceOf(address(this)) */\n      tag_320\n      sub(shl(0xa0, 0x01), 0x01)\n        /* \"contracts/Mooniswap.sol\":8194:8210  dst.uniBalanceOf */\n      dup10\n      and\n        /* \"contracts/Mooniswap.sol\":8219:8223  this */\n      address\n        /* \"contracts/Mooniswap.sol\":8194:8210  dst.uniBalanceOf */\n      tag_232\n        /* \"contracts/Mooniswap.sol\":8194:8225  dst.uniBalanceOf(address(this)) */\n      jump\t// in\n    tag_320:\n        /* \"contracts/Mooniswap.sol\":8083:8236  Balances({... */\n      swap1\n      mstore\n        /* \"contracts/Mooniswap.sol\":8413:8425  balances.src */\n      dup1\n      mload\n      sub(shl(0xa0, 0x01), 0x01)\n        /* \"contracts/Mooniswap.sol\":8373:8404  virtualBalancesForAddition[src] */\n      dup10\n      and\n        /* \"contracts/Mooniswap.sol\":8335:8361  uint256 srcAdditionBalance */\n      0x00\n        /* \"contracts/Mooniswap.sol\":8373:8404  virtualBalancesForAddition[src] */\n      swap1\n      dup2\n      mstore\n        /* \"contracts/Mooniswap.sol\":8373:8399  virtualBalancesForAddition */\n      0x0c\n        /* \"contracts/Mooniswap.sol\":8373:8404  virtualBalancesForAddition[src] */\n      0x20\n      swap1\n      dup2\n      mstore\n      0x40\n      dup1\n      dup4\n      keccak256\n        /* \"contracts/Mooniswap.sol\":8373:8412  virtualBalancesForAddition[src].current */\n      dup2\n      mload\n      dup1\n      dup4\n      add\n      swap1\n      swap3\n      mstore\n      sload\n      sub(shl(0xd8, 0x01), 0x01)\n      dup2\n      and\n      dup3\n      mstore\n      shl(0xd8, 0x01)\n      swap1\n      div\n      0xffffffffff\n      and\n      swap2\n      dup2\n      add\n      swap2\n      swap1\n      swap2\n      mstore\n        /* \"contracts/Mooniswap.sol\":8413:8425  balances.src */\n      swap3\n      swap4\n      pop\n        /* \"contracts/Mooniswap.sol\":8335:8361  uint256 srcAdditionBalance */\n      swap2\n        /* \"contracts/Mooniswap.sol\":8364:8441  Math.max(virtualBalancesForAddition[src].current(balances.src), balances.src) */\n      tag_321\n      swap2\n        /* \"contracts/Mooniswap.sol\":8373:8426  virtualBalancesForAddition[src].current(balances.src) */\n      tag_322\n      swap2\n        /* \"contracts/Mooniswap.sol\":8373:8412  virtualBalancesForAddition[src].current */\n      swap1\n      tag_323\n        /* \"contracts/Mooniswap.sol\":8373:8426  virtualBalancesForAddition[src].current(balances.src) */\n      jump\t// in\n    tag_322:\n        /* \"contracts/Mooniswap.sol\":8428:8440  balances.src */\n      dup4\n      mload\n        /* \"contracts/Mooniswap.sol\":8364:8372  Math.max */\n      tag_324\n        /* \"contracts/Mooniswap.sol\":8364:8441  Math.max(virtualBalancesForAddition[src].current(balances.src), balances.src) */\n      jump\t// in\n    tag_321:\n        /* \"contracts/Mooniswap.sol\":8527:8539  balances.dst */\n      0x20\n      dup4\n      dup2\n      add\n      mload\n      sub(shl(0xa0, 0x01), 0x01)\n        /* \"contracts/Mooniswap.sol\":8488:8518  virtualBalancesForRemoval[dst] */\n      dup11\n      and\n        /* \"contracts/Mooniswap.sol\":8451:8476  uint256 dstRemovalBalance */\n      0x00\n        /* \"contracts/Mooniswap.sol\":8488:8518  virtualBalancesForRemoval[dst] */\n      swap1\n      dup2\n      mstore\n        /* \"contracts/Mooniswap.sol\":8488:8513  virtualBalancesForRemoval */\n      0x0d\n        /* \"contracts/Mooniswap.sol\":8488:8518  virtualBalancesForRemoval[dst] */\n      dup4\n      mstore\n      0x40\n      dup1\n      dup3\n      keccak256\n        /* \"contracts/Mooniswap.sol\":8488:8526  virtualBalancesForRemoval[dst].current */\n      dup2\n      mload\n      dup1\n      dup4\n      add\n      swap1\n      swap3\n      mstore\n      sload\n      sub(shl(0xd8, 0x01), 0x01)\n      dup2\n      and\n      dup3\n      mstore\n      shl(0xd8, 0x01)\n      swap1\n      div\n      0xffffffffff\n      and\n      swap4\n      dup2\n      add\n      swap4\n      swap1\n      swap4\n      mstore\n        /* \"contracts/Mooniswap.sol\":8335:8441  uint256 srcAdditionBalance = Math.max(virtualBalancesForAddition[src].current(balances.src), balances.src) */\n      swap3\n      swap4\n      pop\n        /* \"contracts/Mooniswap.sol\":8479:8555  Math.min(virtualBalancesForRemoval[dst].current(balances.dst), balances.dst) */\n      tag_325\n      swap2\n        /* \"contracts/Mooniswap.sol\":8488:8540  virtualBalancesForRemoval[dst].current(balances.dst) */\n      tag_326\n      swap2\n        /* \"contracts/Mooniswap.sol\":8488:8526  virtualBalancesForRemoval[dst].current */\n      tag_323\n        /* \"contracts/Mooniswap.sol\":8488:8540  virtualBalancesForRemoval[dst].current(balances.dst) */\n      jump\t// in\n    tag_326:\n        /* \"contracts/Mooniswap.sol\":8542:8550  balances */\n      dup5\n        /* \"contracts/Mooniswap.sol\":8542:8554  balances.dst */\n      0x20\n      add\n      mload\n        /* \"contracts/Mooniswap.sol\":8479:8487  Math.min */\n      tag_327\n        /* \"contracts/Mooniswap.sol\":8479:8555  Math.min(virtualBalancesForRemoval[dst].current(balances.dst), balances.dst) */\n      jump\t// in\n    tag_325:\n        /* \"contracts/Mooniswap.sol\":8451:8555  uint256 dstRemovalBalance = Math.min(virtualBalancesForRemoval[dst].current(balances.dst), balances.dst) */\n      swap1\n      pop\n        /* \"contracts/Mooniswap.sol\":8566:8605  src.uniTransferFromSenderToThis(amount) */\n      tag_328\n      sub(shl(0xa0, 0x01), 0x01)\n        /* \"contracts/Mooniswap.sol\":8566:8597  src.uniTransferFromSenderToThis */\n      dup11\n      and\n        /* \"contracts/Mooniswap.sol\":8598:8604  amount */\n      dup9\n        /* \"contracts/Mooniswap.sol\":8566:8597  src.uniTransferFromSenderToThis */\n      tag_329\n        /* \"contracts/Mooniswap.sol\":8566:8605  src.uniTransferFromSenderToThis(amount) */\n      jump\t// in\n    tag_328:\n        /* \"contracts/Mooniswap.sol\":8671:8683  balances.src */\n      dup3\n      mload\n        /* \"contracts/Mooniswap.sol\":8615:8632  uint256 confirmed */\n      0x00\n      swap1\n        /* \"contracts/Mooniswap.sol\":8635:8684  src.uniBalanceOf(address(this)).sub(balances.src) */\n      tag_330\n      swap1\n        /* \"contracts/Mooniswap.sol\":8635:8666  src.uniBalanceOf(address(this)) */\n      tag_319\n      sub(shl(0xa0, 0x01), 0x01)\n        /* \"contracts/Mooniswap.sol\":8635:8651  src.uniBalanceOf */\n      dup14\n      and\n        /* \"contracts/Mooniswap.sol\":8660:8664  this */\n      address\n        /* \"contracts/Mooniswap.sol\":8635:8651  src.uniBalanceOf */\n      tag_232\n        /* \"contracts/Mooniswap.sol\":8635:8666  src.uniBalanceOf(address(this)) */\n      jump\t// in\n        /* \"contracts/Mooniswap.sol\":8635:8684  src.uniBalanceOf(address(this)).sub(balances.src) */\n    tag_330:\n        /* \"contracts/Mooniswap.sol\":8615:8684  uint256 confirmed = src.uniBalanceOf(address(this)).sub(balances.src) */\n      swap1\n      pop\n        /* \"contracts/Mooniswap.sol\":8703:8773  _getReturn(src, dst, confirmed, srcAdditionBalance, dstRemovalBalance) */\n      tag_332\n        /* \"contracts/Mooniswap.sol\":8714:8717  src */\n      dup11\n        /* \"contracts/Mooniswap.sol\":8719:8722  dst */\n      dup11\n        /* \"contracts/Mooniswap.sol\":8724:8733  confirmed */\n      dup4\n        /* \"contracts/Mooniswap.sol\":8735:8753  srcAdditionBalance */\n      dup7\n        /* \"contracts/Mooniswap.sol\":8755:8772  dstRemovalBalance */\n      dup7\n        /* \"contracts/Mooniswap.sol\":8703:8713  _getReturn */\n      tag_201\n        /* \"contracts/Mooniswap.sol\":8703:8773  _getReturn(src, dst, confirmed, srcAdditionBalance, dstRemovalBalance) */\n      jump\t// in\n    tag_332:\n        /* \"contracts/Mooniswap.sol\":8694:8773  result = _getReturn(src, dst, confirmed, srcAdditionBalance, dstRemovalBalance) */\n      swap5\n      pop\n        /* \"contracts/Mooniswap.sol\":8800:8801  0 */\n      0x00\n        /* \"contracts/Mooniswap.sol\":8791:8797  result */\n      dup6\n        /* \"contracts/Mooniswap.sol\":8791:8801  result > 0 */\n      gt\n        /* \"contracts/Mooniswap.sol\":8791:8824  result > 0 && result >= minReturn */\n      dup1\n      iszero\n      tag_333\n      jumpi\n      pop\n        /* \"contracts/Mooniswap.sol\":8815:8824  minReturn */\n      dup7\n        /* \"contracts/Mooniswap.sol\":8805:8811  result */\n      dup6\n        /* \"contracts/Mooniswap.sol\":8805:8824  result >= minReturn */\n      lt\n      iszero\n        /* \"contracts/Mooniswap.sol\":8791:8824  result > 0 && result >= minReturn */\n    tag_333:\n        /* \"contracts/Mooniswap.sol\":8783:8860  require(result > 0 && result >= minReturn, \"Mooniswap: return is not enough\") */\n      tag_334\n      jumpi\n      0x40\n      dup1\n      mload\n      shl(0xe5, 0x461bcd)\n      dup2\n      mstore\n      0x20\n      0x04\n      dup3\n      add\n      mstore\n      0x1f\n      0x24\n      dup3\n      add\n      mstore\n      0x4d6f6f6e69737761703a2072657475726e206973206e6f7420656e6f75676800\n      0x44\n      dup3\n      add\n      mstore\n      swap1\n      mload\n      swap1\n      dup2\n      swap1\n      sub\n      0x64\n      add\n      swap1\n      revert\n    tag_334:\n        /* \"contracts/Mooniswap.sol\":8870:8905  dst.uniTransfer(msg.sender, result) */\n      tag_335\n      sub(shl(0xa0, 0x01), 0x01)\n        /* \"contracts/Mooniswap.sol\":8870:8885  dst.uniTransfer */\n      dup11\n      and\n        /* \"contracts/Mooniswap.sol\":8886:8896  msg.sender */\n      caller\n        /* \"contracts/Mooniswap.sol\":8898:8904  result */\n      dup8\n        /* \"contracts/Mooniswap.sol\":8870:8885  dst.uniTransfer */\n      tag_238\n        /* \"contracts/Mooniswap.sol\":8870:8905  dst.uniTransfer(msg.sender, result) */\n      jump\t// in\n    tag_335:\n        /* \"contracts/Mooniswap.sol\":9024:9036  balances.src */\n      dup4\n      mload\n        /* \"contracts/Mooniswap.sol\":9002:9036  srcAdditionBalance != balances.src */\n      dup4\n      eq\n        /* \"contracts/Mooniswap.sol\":8998:9133  if (srcAdditionBalance != balances.src) {... */\n      tag_337\n      jumpi\n        /* \"contracts/Mooniswap.sol\":9052:9122  virtualBalancesForAddition[src].set(srcAdditionBalance.add(confirmed)) */\n      tag_337\n        /* \"contracts/Mooniswap.sol\":9088:9121  srcAdditionBalance.add(confirmed) */\n      tag_338\n        /* \"contracts/Mooniswap.sol\":9088:9106  srcAdditionBalance */\n      dup5\n        /* \"contracts/Mooniswap.sol\":9111:9120  confirmed */\n      dup4\n        /* \"contracts/Mooniswap.sol\":9088:9110  srcAdditionBalance.add */\n      tag_216\n        /* \"contracts/Mooniswap.sol\":9088:9121  srcAdditionBalance.add(confirmed) */\n      jump\t// in\n    tag_338:\n      sub(shl(0xa0, 0x01), 0x01)\n        /* \"contracts/Mooniswap.sol\":9052:9083  virtualBalancesForAddition[src] */\n      dup13\n      and\n      0x00\n      swap1\n      dup2\n      mstore\n        /* \"contracts/Mooniswap.sol\":9052:9078  virtualBalancesForAddition */\n      0x0c\n        /* \"contracts/Mooniswap.sol\":9052:9083  virtualBalancesForAddition[src] */\n      0x20\n      mstore\n      0x40\n      swap1\n      keccak256\n      swap1\n        /* \"contracts/Mooniswap.sol\":9052:9087  virtualBalancesForAddition[src].set */\n      tag_339\n        /* \"contracts/Mooniswap.sol\":9052:9122  virtualBalancesForAddition[src].set(srcAdditionBalance.add(confirmed)) */\n      jump\t// in\n    tag_337:\n        /* \"contracts/Mooniswap.sol\":9167:9175  balances */\n      dup4\n        /* \"contracts/Mooniswap.sol\":9167:9179  balances.dst */\n      0x20\n      add\n      mload\n        /* \"contracts/Mooniswap.sol\":9146:9163  dstRemovalBalance */\n      dup3\n        /* \"contracts/Mooniswap.sol\":9146:9179  dstRemovalBalance != balances.dst */\n      eq\n        /* \"contracts/Mooniswap.sol\":9142:9271  if (dstRemovalBalance != balances.dst) {... */\n      tag_341\n      jumpi\n        /* \"contracts/Mooniswap.sol\":9195:9260  virtualBalancesForRemoval[dst].set(dstRemovalBalance.sub(result)) */\n      tag_341\n        /* \"contracts/Mooniswap.sol\":9230:9259  dstRemovalBalance.sub(result) */\n      tag_342\n        /* \"contracts/Mooniswap.sol\":9230:9247  dstRemovalBalance */\n      dup4\n        /* \"contracts/Mooniswap.sol\":9252:9258  result */\n      dup8\n        /* \"contracts/Mooniswap.sol\":9230:9251  dstRemovalBalance.sub */\n      tag_244\n        /* \"contracts/Mooniswap.sol\":9230:9259  dstRemovalBalance.sub(result) */\n      jump\t// in\n    tag_342:\n      sub(shl(0xa0, 0x01), 0x01)\n        /* \"contracts/Mooniswap.sol\":9195:9225  virtualBalancesForRemoval[dst] */\n      dup12\n      and\n      0x00\n      swap1\n      dup2\n      mstore\n        /* \"contracts/Mooniswap.sol\":9195:9220  virtualBalancesForRemoval */\n      0x0d\n        /* \"contracts/Mooniswap.sol\":9195:9225  virtualBalancesForRemoval[dst] */\n      0x20\n      mstore\n      0x40\n      swap1\n      keccak256\n      swap1\n        /* \"contracts/Mooniswap.sol\":9195:9229  virtualBalancesForRemoval[dst].set */\n      tag_339\n        /* \"contracts/Mooniswap.sol\":9195:9260  virtualBalancesForRemoval[dst].set(dstRemovalBalance.sub(result)) */\n      jump\t// in\n    tag_341:\n        /* \"contracts/Mooniswap.sol\":9380:9392  balances.src */\n      dup4\n      mload\n      sub(shl(0xa0, 0x01), 0x01)\n        /* \"contracts/Mooniswap.sol\":9342:9372  virtualBalancesForRemoval[src] */\n      dup12\n      and\n        /* \"contracts/Mooniswap.sol\":9380:9392  balances.src */\n      0x00\n        /* \"contracts/Mooniswap.sol\":9342:9372  virtualBalancesForRemoval[src] */\n      swap1\n      dup2\n      mstore\n        /* \"contracts/Mooniswap.sol\":9342:9367  virtualBalancesForRemoval */\n      0x0d\n        /* \"contracts/Mooniswap.sol\":9342:9372  virtualBalancesForRemoval[src] */\n      0x20\n      mstore\n      0x40\n      swap1\n      keccak256\n        /* \"contracts/Mooniswap.sol\":9342:9393  virtualBalancesForRemoval[src].update(balances.src) */\n      tag_343\n      swap2\n        /* \"contracts/Mooniswap.sol\":9342:9379  virtualBalancesForRemoval[src].update */\n      tag_344\n        /* \"contracts/Mooniswap.sol\":9342:9393  virtualBalancesForRemoval[src].update(balances.src) */\n      jump\t// in\n    tag_343:\n        /* \"contracts/Mooniswap.sol\":9442:9454  balances.dst */\n      0x20\n      dup1\n      dup6\n      add\n      mload\n      sub(shl(0xa0, 0x01), 0x01)\n        /* \"contracts/Mooniswap.sol\":9403:9434  virtualBalancesForAddition[dst] */\n      dup12\n      and\n      0x00\n      swap1\n      dup2\n      mstore\n        /* \"contracts/Mooniswap.sol\":9403:9429  virtualBalancesForAddition */\n      0x0c\n        /* \"contracts/Mooniswap.sol\":9403:9434  virtualBalancesForAddition[dst] */\n      swap1\n      swap3\n      mstore\n      0x40\n      swap1\n      swap2\n      keccak256\n        /* \"contracts/Mooniswap.sol\":9403:9455  virtualBalancesForAddition[dst].update(balances.dst) */\n      tag_345\n      swap2\n        /* \"contracts/Mooniswap.sol\":9403:9441  virtualBalancesForAddition[dst].update */\n      tag_344\n        /* \"contracts/Mooniswap.sol\":9403:9455  virtualBalancesForAddition[dst].update(balances.dst) */\n      jump\t// in\n    tag_345:\n      sub(shl(0xa0, 0x01), 0x01)\n        /* \"contracts/Mooniswap.sol\":9470:9492  referral != address(0) */\n      dup7\n      and\n      iszero\n        /* \"contracts/Mooniswap.sol\":9466:10097  if (referral != address(0)) {... */\n      tag_346\n      jumpi\n        /* \"contracts/Mooniswap.sol\":9629:9641  balances.src */\n      dup4\n      mload\n        /* \"contracts/Mooniswap.sol\":9541:9545  1e36 */\n      0xc097ce7bc90715b34b9f1000000000\n      swap1\n        /* \"contracts/Mooniswap.sol\":9577:9642  invariantRatio.mul(balances.src.add(confirmed)).div(balances.src) */\n      tag_347\n      swap1\n        /* \"contracts/Mooniswap.sol\":9577:9624  invariantRatio.mul(balances.src.add(confirmed)) */\n      tag_234\n        /* \"contracts/Mooniswap.sol\":9596:9623  balances.src.add(confirmed) */\n      tag_349\n        /* \"contracts/Mooniswap.sol\":9629:9641  balances.src */\n      dup3\n        /* \"contracts/Mooniswap.sol\":9613:9622  confirmed */\n      dup7\n        /* \"contracts/Mooniswap.sol\":9596:9612  balances.src.add */\n      tag_216\n        /* \"contracts/Mooniswap.sol\":9596:9623  balances.src.add(confirmed) */\n      jump\t// in\n    tag_349:\n        /* \"contracts/Mooniswap.sol\":9577:9591  invariantRatio */\n      dup5\n      swap1\n        /* \"contracts/Mooniswap.sol\":9577:9595  invariantRatio.mul */\n      tag_235\n        /* \"contracts/Mooniswap.sol\":9577:9624  invariantRatio.mul(balances.src.add(confirmed)) */\n      jump\t// in\n        /* \"contracts/Mooniswap.sol\":9577:9642  invariantRatio.mul(balances.src.add(confirmed)).div(balances.src) */\n    tag_347:\n        /* \"contracts/Mooniswap.sol\":9722:9734  balances.dst */\n      0x20\n      dup7\n      add\n      mload\n        /* \"contracts/Mooniswap.sol\":9560:9642  invariantRatio = invariantRatio.mul(balances.src.add(confirmed)).div(balances.src) */\n      swap1\n      swap2\n      pop\n        /* \"contracts/Mooniswap.sol\":9673:9735  invariantRatio.mul(balances.dst.sub(result)).div(balances.dst) */\n      tag_350\n      swap1\n        /* \"contracts/Mooniswap.sol\":9673:9717  invariantRatio.mul(balances.dst.sub(result)) */\n      tag_234\n        /* \"contracts/Mooniswap.sol\":9692:9716  balances.dst.sub(result) */\n      tag_349\n        /* \"contracts/Mooniswap.sol\":9722:9734  balances.dst */\n      dup3\n        /* \"contracts/Mooniswap.sol\":9709:9715  result */\n      dup11\n        /* \"contracts/Mooniswap.sol\":9692:9708  balances.dst.sub */\n      tag_244\n        /* \"contracts/Mooniswap.sol\":9692:9716  balances.dst.sub(result) */\n      jump\t// in\n        /* \"contracts/Mooniswap.sol\":9673:9735  invariantRatio.mul(balances.dst.sub(result)).div(balances.dst) */\n    tag_350:\n        /* \"contracts/Mooniswap.sol\":9656:9735  invariantRatio = invariantRatio.mul(balances.dst.sub(result)).div(balances.dst) */\n      swap1\n      pop\n        /* \"contracts/Mooniswap.sol\":9770:9774  1e36 */\n      0xc097ce7bc90715b34b9f1000000000\n        /* \"contracts/Mooniswap.sol\":9753:9767  invariantRatio */\n      dup2\n        /* \"contracts/Mooniswap.sol\":9753:9774  invariantRatio > 1e36 */\n      gt\n        /* \"contracts/Mooniswap.sol\":9749:10087  if (invariantRatio > 1e36) {... */\n      iszero\n      tag_353\n      jumpi\n        /* \"contracts/Mooniswap.sol\":9857:9878  uint256 referralShare */\n      0x00\n        /* \"contracts/Mooniswap.sol\":9881:9961  invariantRatio.sqrt().sub(1e18).mul(totalSupply()).div(1e18).div(REFERRAL_SHARE) */\n      tag_354\n        /* \"contracts/Mooniswap.sol\":2404:2406  20 */\n      0x14\n        /* \"contracts/Mooniswap.sol\":9881:9941  invariantRatio.sqrt().sub(1e18).mul(totalSupply()).div(1e18) */\n      tag_234\n        /* \"contracts/Mooniswap.sol\":9936:9940  1e18 */\n      0x0de0b6b3a7640000\n        /* \"contracts/Mooniswap.sol\":9881:9931  invariantRatio.sqrt().sub(1e18).mul(totalSupply()) */\n      tag_234\n        /* \"contracts/Mooniswap.sol\":9917:9930  totalSupply() */\n      tag_357\n        /* \"contracts/Mooniswap.sol\":9917:9928  totalSupply */\n      tag_56\n        /* \"contracts/Mooniswap.sol\":9917:9930  totalSupply() */\n      jump\t// in\n    tag_357:\n        /* \"contracts/Mooniswap.sol\":9881:9912  invariantRatio.sqrt().sub(1e18) */\n      tag_358\n        /* \"contracts/Mooniswap.sol\":9907:9911  1e18 */\n      0x0de0b6b3a7640000\n        /* \"contracts/Mooniswap.sol\":9881:9902  invariantRatio.sqrt() */\n      tag_319\n        /* \"contracts/Mooniswap.sol\":9881:9895  invariantRatio */\n      dup11\n        /* \"contracts/Mooniswap.sol\":9881:9900  invariantRatio.sqrt */\n      tag_360\n        /* \"contracts/Mooniswap.sol\":9881:9902  invariantRatio.sqrt() */\n      jump\t// in\n        /* \"contracts/Mooniswap.sol\":9881:9912  invariantRatio.sqrt().sub(1e18) */\n    tag_358:\n        /* \"contracts/Mooniswap.sol\":9881:9916  invariantRatio.sqrt().sub(1e18).mul */\n      swap1\n      tag_235\n        /* \"contracts/Mooniswap.sol\":9881:9931  invariantRatio.sqrt().sub(1e18).mul(totalSupply()) */\n      jump\t// in\n        /* \"contracts/Mooniswap.sol\":9881:9961  invariantRatio.sqrt().sub(1e18).mul(totalSupply()).div(1e18).div(REFERRAL_SHARE) */\n    tag_354:\n        /* \"contracts/Mooniswap.sol\":9857:9961  uint256 referralShare = invariantRatio.sqrt().sub(1e18).mul(totalSupply()).div(1e18).div(REFERRAL_SHARE) */\n      swap1\n      pop\n        /* \"contracts/Mooniswap.sol\":9983:10000  referralShare > 0 */\n      dup1\n      iszero\n        /* \"contracts/Mooniswap.sol\":9979:10073  if (referralShare > 0) {... */\n      tag_362\n      jumpi\n        /* \"contracts/Mooniswap.sol\":10024:10054  _mint(referral, referralShare) */\n      tag_362\n        /* \"contracts/Mooniswap.sol\":10030:10038  referral */\n      dup9\n        /* \"contracts/Mooniswap.sol\":10040:10053  referralShare */\n      dup3\n        /* \"contracts/Mooniswap.sol\":10024:10029  _mint */\n      tag_363\n        /* \"contracts/Mooniswap.sol\":10024:10054  _mint(referral, referralShare) */\n      jump\t// in\n    tag_362:\n        /* \"contracts/Mooniswap.sol\":9749:10087  if (invariantRatio > 1e36) {... */\n      pop\n    tag_353:\n        /* \"contracts/Mooniswap.sol\":9466:10097  if (referral != address(0)) {... */\n      pop\n    tag_346:\n        /* \"contracts/Mooniswap.sol\":10154:10157  dst */\n      dup9\n      sub(shl(0xa0, 0x01), 0x01)\n        /* \"contracts/Mooniswap.sol\":10112:10231  Swapped(msg.sender, address(src), address(dst), confirmed, result, balances.src, balances.dst, totalSupply(), referral) */\n      and\n        /* \"contracts/Mooniswap.sol\":10140:10143  src */\n      dup11\n      sub(shl(0xa0, 0x01), 0x01)\n        /* \"contracts/Mooniswap.sol\":10112:10231  Swapped(msg.sender, address(src), address(dst), confirmed, result, balances.src, balances.dst, totalSupply(), referral) */\n      and\n        /* \"contracts/Mooniswap.sol\":10120:10130  msg.sender */\n      caller\n      sub(shl(0xa0, 0x01), 0x01)\n        /* \"contracts/Mooniswap.sol\":10112:10231  Swapped(msg.sender, address(src), address(dst), confirmed, result, balances.src, balances.dst, totalSupply(), referral) */\n      and\n      0x86c49b5d8577da08444947f1427d23ef191cfabf2c0788f93324d79e926a9302\n        /* \"contracts/Mooniswap.sol\":10160:10169  confirmed */\n      dup5\n        /* \"contracts/Mooniswap.sol\":10171:10177  result */\n      dup10\n        /* \"contracts/Mooniswap.sol\":10179:10187  balances */\n      dup10\n        /* \"contracts/Mooniswap.sol\":10179:10191  balances.src */\n      0x00\n      add\n      mload\n        /* \"contracts/Mooniswap.sol\":10193:10201  balances */\n      dup11\n        /* \"contracts/Mooniswap.sol\":10193:10205  balances.dst */\n      0x20\n      add\n      mload\n        /* \"contracts/Mooniswap.sol\":10207:10220  totalSupply() */\n      tag_364\n        /* \"contracts/Mooniswap.sol\":10207:10218  totalSupply */\n      tag_56\n        /* \"contracts/Mooniswap.sol\":10207:10220  totalSupply() */\n      jump\t// in\n    tag_364:\n        /* \"contracts/Mooniswap.sol\":10112:10231  Swapped(msg.sender, address(src), address(dst), confirmed, result, balances.src, balances.dst, totalSupply(), referral) */\n      0x40\n      dup1\n      mload\n      swap6\n      dup7\n      mstore\n      0x20\n      dup7\n      add\n      swap5\n      swap1\n      swap5\n      mstore\n      dup5\n      dup5\n      add\n      swap3\n      swap1\n      swap3\n      mstore\n      0x60\n      dup5\n      add\n      mstore\n      0x80\n      dup4\n      add\n      mstore\n      sub(shl(0xa0, 0x01), 0x01)\n      dup13\n      and\n      0xa0\n      dup4\n      add\n      mstore\n      mload\n      swap1\n      dup2\n      swap1\n      sub\n      0xc0\n      add\n      swap1\n      log4\n      sub(shl(0xa0, 0x01), 0x01)\n        /* \"contracts/Mooniswap.sol\":10284:10296  volumes[src] */\n      swap1\n      swap10\n      and\n      0x00\n      swap1\n      dup2\n      mstore\n        /* \"contracts/Mooniswap.sol\":10284:10291  volumes */\n      0x0b\n        /* \"contracts/Mooniswap.sol\":10284:10296  volumes[src] */\n      0x20\n      mstore\n      0x40\n      swap1\n      keccak256\n        /* \"contracts/Mooniswap.sol\":10284:10328  volumes[src].confirmed += uint128(confirmed) */\n      dup1\n      sload\n      shl(0x80, 0x01)\n      sub(shl(0x80, 0x01), 0x01)\n      dup1\n      dup4\n      and\n      swap1\n      swap13\n      add\n      dup13\n      and\n      not(0xffffffffffffffffffffffffffffffff)\n      swap1\n      swap3\n      and\n      swap2\n      swap1\n      swap2\n      or\n        /* \"contracts/Mooniswap.sol\":10338:10376  volumes[src].result += uint128(result) */\n      dup2\n      dup2\n      div\n      dup13\n      and\n      dup8\n      add\n      dup13\n      and\n      swap1\n      swap2\n      mul\n      swap11\n      and\n      swap10\n      swap1\n      swap10\n      or\n      swap1\n      swap9\n      sstore\n      pop\n      pop\n        /* \"contracts/Mooniswap.sol\":10284:10328  volumes[src].confirmed += uint128(confirmed) */\n      0x01\n        /* \"@openzeppelin/contracts/utils/ReentrancyGuard.sol\":2563:2570  _status */\n      0x06\n        /* \"@openzeppelin/contracts/utils/ReentrancyGuard.sol\":2563:2585  _status = _NOT_ENTERED */\n      sstore\n        /* \"contracts/Mooniswap.sol\":10369:10375  result */\n      swap6\n        /* \"contracts/Mooniswap.sol\":7810:10383  function swap(IERC20 src, IERC20 dst, uint256 amount, uint256 minReturn, address referral) external payable nonReentrant returns(uint256 result) {... */\n      swap5\n      pop\n      pop\n      pop\n      pop\n      pop\n      jump\t// out\n        /* \"contracts/Mooniswap.sol\":2525:2571  uint256 public constant FEE_DENOMINATOR = 1e18 */\n    tag_158:\n        /* \"contracts/Mooniswap.sol\":2567:2571  1e18 */\n      0x0de0b6b3a7640000\n        /* \"contracts/Mooniswap.sol\":2525:2571  uint256 public constant FEE_DENOMINATOR = 1e18 */\n      dup2\n      jump\t// out\n        /* \"contracts/Mooniswap.sol\":3723:3951  function getBalanceForAddition(IERC20 token) public view returns(uint256) {... */\n    tag_162:\n        /* \"contracts/Mooniswap.sol\":3788:3795  uint256 */\n      0x00\n      dup1\n        /* \"contracts/Mooniswap.sol\":3825:3858  token.uniBalanceOf(address(this)) */\n      tag_366\n      sub(shl(0xa0, 0x01), 0x01)\n        /* \"contracts/Mooniswap.sol\":3825:3843  token.uniBalanceOf */\n      dup5\n      and\n        /* \"contracts/Mooniswap.sol\":3852:3856  this */\n      address\n        /* \"contracts/Mooniswap.sol\":3825:3843  token.uniBalanceOf */\n      tag_232\n        /* \"contracts/Mooniswap.sol\":3825:3858  token.uniBalanceOf(address(this)) */\n      jump\t// in\n    tag_366:\n      sub(shl(0xa0, 0x01), 0x01)\n        /* \"contracts/Mooniswap.sol\":3884:3917  virtualBalancesForAddition[token] */\n      dup5\n      and\n      0x00\n      swap1\n      dup2\n      mstore\n        /* \"contracts/Mooniswap.sol\":3884:3910  virtualBalancesForAddition */\n      0x0c\n        /* \"contracts/Mooniswap.sol\":3884:3917  virtualBalancesForAddition[token] */\n      0x20\n      swap1\n      dup2\n      mstore\n      0x40\n      swap2\n      dup3\n      swap1\n      keccak256\n        /* \"contracts/Mooniswap.sol\":3884:3925  virtualBalancesForAddition[token].current */\n      dup3\n      mload\n      dup1\n      dup5\n      add\n      swap1\n      swap4\n      mstore\n      sload\n      sub(shl(0xd8, 0x01), 0x01)\n      dup2\n      and\n      dup4\n      mstore\n      shl(0xd8, 0x01)\n      swap1\n      div\n      0xffffffffff\n      and\n      swap1\n      dup3\n      add\n      mstore\n        /* \"contracts/Mooniswap.sol\":3807:3858  uint256 balance = token.uniBalanceOf(address(this)) */\n      swap1\n      swap2\n      pop\n        /* \"contracts/Mooniswap.sol\":3875:3944  Math.max(virtualBalancesForAddition[token].current(balance), balance) */\n      tag_367\n      swap1\n        /* \"contracts/Mooniswap.sol\":3884:3934  virtualBalancesForAddition[token].current(balance) */\n      tag_368\n      swap1\n        /* \"contracts/Mooniswap.sol\":3807:3858  uint256 balance = token.uniBalanceOf(address(this)) */\n      dup4\n        /* \"contracts/Mooniswap.sol\":3884:3925  virtualBalancesForAddition[token].current */\n      tag_323\n        /* \"contracts/Mooniswap.sol\":3884:3934  virtualBalancesForAddition[token].current(balance) */\n      jump\t// in\n    tag_368:\n        /* \"contracts/Mooniswap.sol\":3936:3943  balance */\n      dup3\n        /* \"contracts/Mooniswap.sol\":3875:3883  Math.max */\n      tag_324\n        /* \"contracts/Mooniswap.sol\":3875:3944  Math.max(virtualBalancesForAddition[token].current(balance), balance) */\n      jump\t// in\n    tag_367:\n        /* \"contracts/Mooniswap.sol\":3868:3944  return Math.max(virtualBalancesForAddition[token].current(balance), balance) */\n      swap4\n        /* \"contracts/Mooniswap.sol\":3723:3951  function getBalanceForAddition(IERC20 token) public view returns(uint256) {... */\n      swap3\n      pop\n      pop\n      pop\n      jump\t// out\n        /* \"@openzeppelin/contracts/token/ERC20/ERC20.sol\":3968:4117  function allowance(address owner, address spender) public view virtual override returns (uint256) {... */\n    tag_166:\n      sub(shl(0xa0, 0x01), 0x01)\n        /* \"@openzeppelin/contracts/token/ERC20/ERC20.sol\":4083:4101  _allowances[owner] */\n      swap2\n      dup3\n      and\n        /* \"@openzeppelin/contracts/token/ERC20/ERC20.sol\":4057:4064  uint256 */\n      0x00\n        /* \"@openzeppelin/contracts/token/ERC20/ERC20.sol\":4083:4101  _allowances[owner] */\n      swap1\n      dup2\n      mstore\n        /* \"@openzeppelin/contracts/token/ERC20/ERC20.sol\":4083:4094  _allowances */\n      0x01\n        /* \"@openzeppelin/contracts/token/ERC20/ERC20.sol\":4083:4101  _allowances[owner] */\n      0x20\n      swap1\n      dup2\n      mstore\n      0x40\n      dup1\n      dup4\n      keccak256\n        /* \"@openzeppelin/contracts/token/ERC20/ERC20.sol\":4083:4110  _allowances[owner][spender] */\n      swap4\n      swap1\n      swap5\n      and\n      dup3\n      mstore\n      swap2\n      swap1\n      swap2\n      mstore\n      keccak256\n      sload\n      swap1\n        /* \"@openzeppelin/contracts/token/ERC20/ERC20.sol\":3968:4117  function allowance(address owner, address spender) public view virtual override returns (uint256) {... */\n      jump\t// out\n        /* \"contracts/Mooniswap.sol\":3429:3510  function fee() public view returns(uint256) {... */\n    tag_169:\n        /* \"contracts/Mooniswap.sol\":3490:3497  factory */\n      sload(0x08)\n        /* \"contracts/Mooniswap.sol\":3490:3503  factory.fee() */\n      0x40\n      dup1\n      mload\n      shl(0xe0, 0xddca3f43)\n      dup2\n      mstore\n      swap1\n      mload\n        /* \"contracts/Mooniswap.sol\":3464:3471  uint256 */\n      0x00\n      swap3\n      sub(shl(0xa0, 0x01), 0x01)\n        /* \"contracts/Mooniswap.sol\":3490:3497  factory */\n      and\n      swap2\n        /* \"contracts/Mooniswap.sol\":3490:3501  factory.fee */\n      0xddca3f43\n      swap2\n        /* \"contracts/Mooniswap.sol\":3490:3503  factory.fee() */\n      0x04\n      dup1\n      dup4\n      add\n      swap3\n      0x20\n      swap3\n      swap2\n      swap1\n      dup3\n      swap1\n      sub\n      add\n      dup2\n        /* \"contracts/Mooniswap.sol\":3490:3497  factory */\n      dup7\n        /* \"contracts/Mooniswap.sol\":3490:3503  factory.fee() */\n      dup1\n      extcodesize\n      iszero\n      dup1\n      iszero\n      tag_371\n      jumpi\n      0x00\n      dup1\n      revert\n    tag_371:\n      pop\n      gas\n      staticcall\n      iszero\n      dup1\n      iszero\n      tag_373\n      jumpi\n      returndatasize\n      0x00\n      dup1\n      returndatacopy\n      revert(0x00, returndatasize)\n    tag_373:\n      pop\n      pop\n      pop\n      pop\n      mload(0x40)\n      returndatasize\n      0x20\n      dup2\n      lt\n      iszero\n      tag_374\n      jumpi\n      0x00\n      dup1\n      revert\n    tag_374:\n      pop\n      mload\n      swap1\n      pop\n        /* \"contracts/Mooniswap.sol\":3429:3510  function fee() public view returns(uint256) {... */\n      swap1\n      jump\t// out\n        /* \"contracts/Mooniswap.sol\":3957:4183  function getBalanceForRemoval(IERC20 token) public view returns(uint256) {... */\n    tag_173:\n        /* \"contracts/Mooniswap.sol\":4021:4028  uint256 */\n      0x00\n      dup1\n        /* \"contracts/Mooniswap.sol\":4058:4091  token.uniBalanceOf(address(this)) */\n      tag_376\n      sub(shl(0xa0, 0x01), 0x01)\n        /* \"contracts/Mooniswap.sol\":4058:4076  token.uniBalanceOf */\n      dup5\n      and\n        /* \"contracts/Mooniswap.sol\":4085:4089  this */\n      address\n        /* \"contracts/Mooniswap.sol\":4058:4076  token.uniBalanceOf */\n      tag_232\n        /* \"contracts/Mooniswap.sol\":4058:4091  token.uniBalanceOf(address(this)) */\n      jump\t// in\n    tag_376:\n      sub(shl(0xa0, 0x01), 0x01)\n        /* \"contracts/Mooniswap.sol\":4117:4149  virtualBalancesForRemoval[token] */\n      dup5\n      and\n      0x00\n      swap1\n      dup2\n      mstore\n        /* \"contracts/Mooniswap.sol\":4117:4142  virtualBalancesForRemoval */\n      0x0d\n        /* \"contracts/Mooniswap.sol\":4117:4149  virtualBalancesForRemoval[token] */\n      0x20\n      swap1\n      dup2\n      mstore\n      0x40\n      swap2\n      dup3\n      swap1\n      keccak256\n        /* \"contracts/Mooniswap.sol\":4117:4157  virtualBalancesForRemoval[token].current */\n      dup3\n      mload\n      dup1\n      dup5\n      add\n      swap1\n      swap4\n      mstore\n      sload\n      sub(shl(0xd8, 0x01), 0x01)\n      dup2\n      and\n      dup4\n      mstore\n      shl(0xd8, 0x01)\n      swap1\n      div\n      0xffffffffff\n      and\n      swap1\n      dup3\n      add\n      mstore\n        /* \"contracts/Mooniswap.sol\":4040:4091  uint256 balance = token.uniBalanceOf(address(this)) */\n      swap1\n      swap2\n      pop\n        /* \"contracts/Mooniswap.sol\":4108:4176  Math.min(virtualBalancesForRemoval[token].current(balance), balance) */\n      tag_367\n      swap1\n        /* \"contracts/Mooniswap.sol\":4117:4166  virtualBalancesForRemoval[token].current(balance) */\n      tag_378\n      swap1\n        /* \"contracts/Mooniswap.sol\":4040:4091  uint256 balance = token.uniBalanceOf(address(this)) */\n      dup4\n        /* \"contracts/Mooniswap.sol\":4117:4157  virtualBalancesForRemoval[token].current */\n      tag_323\n        /* \"contracts/Mooniswap.sol\":4117:4166  virtualBalancesForRemoval[token].current(balance) */\n      jump\t// in\n    tag_378:\n        /* \"contracts/Mooniswap.sol\":4168:4175  balance */\n      dup3\n        /* \"contracts/Mooniswap.sol\":4108:4116  Math.min */\n      tag_327\n        /* \"contracts/Mooniswap.sol\":4108:4176  Math.min(virtualBalancesForRemoval[token].current(balance), balance) */\n      jump\t// in\n        /* \"contracts/Mooniswap.sol\":4392:6981  function deposit(uint256[] calldata amounts, uint256[] calldata minAmounts) external payable nonReentrant returns(uint256 fairSupply) {... */\n    tag_182:\n        /* \"contracts/Mooniswap.sol\":4506:4524  uint256 fairSupply */\n      0x00\n        /* \"@openzeppelin/contracts/utils/ReentrancyGuard.sol\":1671:1672  2 */\n      0x02\n        /* \"@openzeppelin/contracts/utils/ReentrancyGuard.sol\":2260:2267  _status */\n      sload(0x06)\n        /* \"@openzeppelin/contracts/utils/ReentrancyGuard.sol\":2260:2279  _status != _ENTERED */\n      eq\n      iszero\n        /* \"@openzeppelin/contracts/utils/ReentrancyGuard.sol\":2252:2315  require(_status != _ENTERED, \"ReentrancyGuard: reentrant call\") */\n      tag_380\n      jumpi\n      0x40\n      dup1\n      mload\n      shl(0xe5, 0x461bcd)\n      dup2\n      mstore\n      0x20\n      0x04\n      dup3\n      add\n      mstore\n      0x1f\n      0x24\n      dup3\n      add\n      mstore\n      0x00\n      dup1\n      mload\n      0x20\n      data_0d74825aecb0211bbe1f02ccfb998d9e49771bedb2c6414e20fd8978a2e0f54c\n      dup4\n      codecopy\n      dup2\n      mload\n      swap2\n      mstore\n      0x44\n      dup3\n      add\n      mstore\n      swap1\n      mload\n      swap1\n      dup2\n      swap1\n      sub\n      0x64\n      add\n      swap1\n      revert\n    tag_380:\n        /* \"@openzeppelin/contracts/utils/ReentrancyGuard.sol\":1671:1672  2 */\n      0x02\n        /* \"@openzeppelin/contracts/utils/ReentrancyGuard.sol\":2390:2397  _status */\n      0x06\n        /* \"@openzeppelin/contracts/utils/ReentrancyGuard.sol\":2390:2408  _status = _ENTERED */\n      sstore\n        /* \"contracts/Mooniswap.sol\":4562:4568  tokens */\n      0x09\n        /* \"contracts/Mooniswap.sol\":4536:4568  IERC20[] memory _tokens = tokens */\n      dup1\n      sload\n      0x40\n      dup1\n      mload\n      0x20\n      dup1\n      dup5\n      mul\n      dup3\n      add\n      dup2\n      add\n      swap1\n      swap3\n      mstore\n      dup3\n      dup2\n      mstore\n        /* \"contracts/Mooniswap.sol\":4536:4559  IERC20[] memory _tokens */\n      0x60\n      swap4\n        /* \"contracts/Mooniswap.sol\":4536:4568  IERC20[] memory _tokens = tokens */\n      swap1\n      swap3\n        /* \"contracts/Mooniswap.sol\":4562:4568  tokens */\n      swap1\n      swap2\n        /* \"contracts/Mooniswap.sol\":4536:4568  IERC20[] memory _tokens = tokens */\n      dup4\n      add\n        /* \"contracts/Mooniswap.sol\":4562:4568  tokens */\n      dup3\n        /* \"contracts/Mooniswap.sol\":4536:4568  IERC20[] memory _tokens = tokens */\n      dup3\n      dup1\n      iszero\n      tag_382\n      jumpi\n      0x20\n      mul\n      dup3\n      add\n      swap2\n      swap1\n      0x00\n      mstore\n      keccak256(0x00, 0x20)\n      swap1\n    tag_383:\n      dup2\n      sload\n      sub(shl(0xa0, 0x01), 0x01)\n      and\n      dup2\n      mstore\n      0x01\n      swap1\n      swap2\n      add\n      swap1\n      0x20\n      add\n      dup1\n      dup4\n      gt\n      tag_383\n      jumpi\n    tag_382:\n      pop\n      pop\n      pop\n      pop\n      pop\n      swap1\n      pop\n        /* \"contracts/Mooniswap.sol\":4604:4611  _tokens */\n      dup1\n        /* \"contracts/Mooniswap.sol\":4604:4618  _tokens.length */\n      mload\n        /* \"contracts/Mooniswap.sol\":4586:4593  amounts */\n      dup7\n      dup7\n        /* \"contracts/Mooniswap.sol\":4586:4600  amounts.length */\n      swap1\n      pop\n        /* \"contracts/Mooniswap.sol\":4586:4618  amounts.length == _tokens.length */\n      eq\n        /* \"contracts/Mooniswap.sol\":4578:4654  require(amounts.length == _tokens.length, \"Mooniswap: wrong amounts length\") */\n      tag_384\n      jumpi\n      0x40\n      dup1\n      mload\n      shl(0xe5, 0x461bcd)\n      dup2\n      mstore\n      0x20\n      0x04\n      dup3\n      add\n      mstore\n      0x1f\n      0x24\n      dup3\n      add\n      mstore\n      0x4d6f6f6e69737761703a2077726f6e6720616d6f756e7473206c656e67746800\n      0x44\n      dup3\n      add\n      mstore\n      swap1\n      mload\n      swap1\n      dup2\n      swap1\n      sub\n      0x64\n      add\n      swap1\n      revert\n    tag_384:\n        /* \"contracts/Mooniswap.sol\":4686:4704  _tokens[0].isETH() */\n      tag_385\n        /* \"contracts/Mooniswap.sol\":4686:4693  _tokens */\n      dup2\n        /* \"contracts/Mooniswap.sol\":4694:4695  0 */\n      0x00\n        /* \"contracts/Mooniswap.sol\":4686:4696  _tokens[0] */\n      dup2\n      mload\n      dup2\n      lt\n      tag_386\n      jumpi\n      invalid\n    tag_386:\n      0x20\n      mul\n      0x20\n      add\n      add\n      mload\n      sub(shl(0xa0, 0x01), 0x01)\n        /* \"contracts/Mooniswap.sol\":4686:4702  _tokens[0].isETH */\n      and\n      tag_309\n        /* \"contracts/Mooniswap.sol\":4686:4704  _tokens[0].isETH() */\n      jump\t// in\n    tag_385:\n        /* \"contracts/Mooniswap.sol\":4686:4757  _tokens[0].isETH() ? amounts[0] : (_tokens[1].isETH() ? amounts[1] : 0) */\n      tag_387\n      jumpi\n        /* \"contracts/Mooniswap.sol\":4721:4739  _tokens[1].isETH() */\n      tag_388\n        /* \"contracts/Mooniswap.sol\":4721:4728  _tokens */\n      dup2\n        /* \"contracts/Mooniswap.sol\":4729:4730  1 */\n      0x01\n        /* \"contracts/Mooniswap.sol\":4721:4731  _tokens[1] */\n      dup2\n      mload\n      dup2\n      lt\n      tag_386\n      jumpi\n      invalid\n        /* \"contracts/Mooniswap.sol\":4721:4739  _tokens[1].isETH() */\n    tag_388:\n        /* \"contracts/Mooniswap.sol\":4721:4756  _tokens[1].isETH() ? amounts[1] : 0 */\n      tag_390\n      jumpi\n        /* \"contracts/Mooniswap.sol\":4755:4756  0 */\n      0x00\n        /* \"contracts/Mooniswap.sol\":4721:4756  _tokens[1].isETH() ? amounts[1] : 0 */\n      jump(tag_391)\n    tag_390:\n        /* \"contracts/Mooniswap.sol\":4742:4749  amounts */\n      dup6\n      dup6\n        /* \"contracts/Mooniswap.sol\":4750:4751  1 */\n      0x01\n        /* \"contracts/Mooniswap.sol\":4742:4752  amounts[1] */\n      dup2\n      dup2\n      lt\n      tag_392\n      jumpi\n      invalid\n    tag_392:\n      swap1\n      pop\n      0x20\n      mul\n      add\n      calldataload\n        /* \"contracts/Mooniswap.sol\":4721:4756  _tokens[1].isETH() ? amounts[1] : 0 */\n    tag_391:\n        /* \"contracts/Mooniswap.sol\":4686:4757  _tokens[0].isETH() ? amounts[0] : (_tokens[1].isETH() ? amounts[1] : 0) */\n      jump(tag_393)\n    tag_387:\n        /* \"contracts/Mooniswap.sol\":4707:4714  amounts */\n      dup6\n      dup6\n        /* \"contracts/Mooniswap.sol\":4715:4716  0 */\n      0x00\n        /* \"contracts/Mooniswap.sol\":4707:4717  amounts[0] */\n      dup2\n      dup2\n      lt\n      tag_394\n      jumpi\n      invalid\n    tag_394:\n      swap1\n      pop\n      0x20\n      mul\n      add\n      calldataload\n        /* \"contracts/Mooniswap.sol\":4686:4757  _tokens[0].isETH() ? amounts[0] : (_tokens[1].isETH() ? amounts[1] : 0) */\n    tag_393:\n        /* \"contracts/Mooniswap.sol\":4672:4681  msg.value */\n      callvalue\n        /* \"contracts/Mooniswap.sol\":4672:4758  msg.value == (_tokens[0].isETH() ? amounts[0] : (_tokens[1].isETH() ? amounts[1] : 0)) */\n      eq\n        /* \"contracts/Mooniswap.sol\":4664:4791  require(msg.value == (_tokens[0].isETH() ? amounts[0] : (_tokens[1].isETH() ? amounts[1] : 0)), \"Mooniswap: wrong value usage\") */\n      tag_395\n      jumpi\n      0x40\n      dup1\n      mload\n      shl(0xe5, 0x461bcd)\n      dup2\n      mstore\n      0x20\n      0x04\n      dup3\n      add\n      mstore\n      0x1c\n      0x24\n      dup3\n      add\n      mstore\n      0x4d6f6f6e69737761703a2077726f6e672076616c756520757361676500000000\n      0x44\n      dup3\n      add\n      mstore\n      swap1\n      mload\n      swap1\n      dup2\n      swap1\n      sub\n      0x64\n      add\n      swap1\n      revert\n    tag_395:\n        /* \"contracts/Mooniswap.sol\":4802:4831  uint256[] memory realBalances */\n      0x60\n        /* \"contracts/Mooniswap.sol\":4848:4855  amounts */\n      dup6\n        /* \"contracts/Mooniswap.sol\":4834:4863  new uint256[](amounts.length) */\n      0xffffffffffffffff\n      dup2\n      gt\n      dup1\n      iszero\n      tag_396\n      jumpi\n      0x00\n      dup1\n      revert\n    tag_396:\n      pop\n      mload(0x40)\n      swap1\n      dup1\n      dup3\n      mstore\n      dup1\n      0x20\n      mul\n      0x20\n      add\n      dup3\n      add\n      0x40\n      mstore\n      dup1\n      iszero\n      tag_397\n      jumpi\n      dup2\n      0x20\n      add\n      0x20\n      dup3\n      mul\n      dup1\n      calldatasize\n      dup4\n      calldatacopy\n      add\n      swap1\n      pop\n    tag_397:\n      pop\n        /* \"contracts/Mooniswap.sol\":4802:4863  uint256[] memory realBalances = new uint256[](amounts.length) */\n      swap1\n      pop\n        /* \"contracts/Mooniswap.sol\":4878:4884  uint i */\n      0x00\n        /* \"contracts/Mooniswap.sol\":4873:5041  for (uint i = 0; i < realBalances.length; i++) {... */\n    tag_398:\n        /* \"contracts/Mooniswap.sol\":4894:4906  realBalances */\n      dup2\n        /* \"contracts/Mooniswap.sol\":4894:4913  realBalances.length */\n      mload\n        /* \"contracts/Mooniswap.sol\":4890:4891  i */\n      dup2\n        /* \"contracts/Mooniswap.sol\":4890:4913  i < realBalances.length */\n      lt\n        /* \"contracts/Mooniswap.sol\":4873:5041  for (uint i = 0; i < realBalances.length; i++) {... */\n      iszero\n      tag_399\n      jumpi\n        /* \"contracts/Mooniswap.sol\":4952:5030  _tokens[i].uniBalanceOf(address(this)).sub(_tokens[i].isETH() ? msg.value : 0) */\n      tag_401\n        /* \"contracts/Mooniswap.sol\":4995:5013  _tokens[i].isETH() */\n      tag_402\n        /* \"contracts/Mooniswap.sol\":4995:5002  _tokens */\n      dup5\n        /* \"contracts/Mooniswap.sol\":5003:5004  i */\n      dup4\n        /* \"contracts/Mooniswap.sol\":4995:5005  _tokens[i] */\n      dup2\n      mload\n      dup2\n      lt\n      tag_386\n      jumpi\n      invalid\n        /* \"contracts/Mooniswap.sol\":4995:5013  _tokens[i].isETH() */\n    tag_402:\n        /* \"contracts/Mooniswap.sol\":4995:5029  _tokens[i].isETH() ? msg.value : 0 */\n      tag_404\n      jumpi\n        /* \"contracts/Mooniswap.sol\":5028:5029  0 */\n      0x00\n        /* \"contracts/Mooniswap.sol\":4995:5029  _tokens[i].isETH() ? msg.value : 0 */\n      jump(tag_405)\n    tag_404:\n        /* \"contracts/Mooniswap.sol\":5016:5025  msg.value */\n      callvalue\n        /* \"contracts/Mooniswap.sol\":4995:5029  _tokens[i].isETH() ? msg.value : 0 */\n    tag_405:\n        /* \"contracts/Mooniswap.sol\":4952:4990  _tokens[i].uniBalanceOf(address(this)) */\n      tag_319\n        /* \"contracts/Mooniswap.sol\":4984:4988  this */\n      address\n        /* \"contracts/Mooniswap.sol\":4952:4959  _tokens */\n      dup7\n        /* \"contracts/Mooniswap.sol\":4960:4961  i */\n      dup6\n        /* \"contracts/Mooniswap.sol\":4952:4962  _tokens[i] */\n      dup2\n      mload\n      dup2\n      lt\n      tag_407\n      jumpi\n      invalid\n    tag_407:\n      0x20\n      mul\n      0x20\n      add\n      add\n      mload\n      sub(shl(0xa0, 0x01), 0x01)\n        /* \"contracts/Mooniswap.sol\":4952:4975  _tokens[i].uniBalanceOf */\n      and\n      tag_232\n      swap1\n        /* \"contracts/Mooniswap.sol\":4952:4990  _tokens[i].uniBalanceOf(address(this)) */\n      swap2\n      swap1\n      0xffffffff\n      and\n      jump\t// in\n        /* \"contracts/Mooniswap.sol\":4952:5030  _tokens[i].uniBalanceOf(address(this)).sub(_tokens[i].isETH() ? msg.value : 0) */\n    tag_401:\n        /* \"contracts/Mooniswap.sol\":4934:4946  realBalances */\n      dup3\n        /* \"contracts/Mooniswap.sol\":4947:4948  i */\n      dup3\n        /* \"contracts/Mooniswap.sol\":4934:4949  realBalances[i] */\n      dup2\n      mload\n      dup2\n      lt\n      tag_408\n      jumpi\n      invalid\n    tag_408:\n      0x20\n      swap1\n      dup2\n      mul\n      swap2\n      swap1\n      swap2\n      add\n      add\n        /* \"contracts/Mooniswap.sol\":4934:5030  realBalances[i] = _tokens[i].uniBalanceOf(address(this)).sub(_tokens[i].isETH() ? msg.value : 0) */\n      mstore\n        /* \"contracts/Mooniswap.sol\":4915:4918  i++ */\n      0x01\n      add\n        /* \"contracts/Mooniswap.sol\":4873:5041  for (uint i = 0; i < realBalances.length; i++) {... */\n      jump(tag_398)\n    tag_399:\n      pop\n        /* \"contracts/Mooniswap.sol\":5051:5070  uint256 totalSupply */\n      0x00\n        /* \"contracts/Mooniswap.sol\":5073:5086  totalSupply() */\n      tag_409\n        /* \"contracts/Mooniswap.sol\":5073:5084  totalSupply */\n      tag_56\n        /* \"contracts/Mooniswap.sol\":5073:5086  totalSupply() */\n      jump\t// in\n    tag_409:\n        /* \"contracts/Mooniswap.sol\":5051:5086  uint256 totalSupply = totalSupply() */\n      swap1\n      pop\n        /* \"contracts/Mooniswap.sol\":5100:5116  totalSupply == 0 */\n      dup1\n        /* \"contracts/Mooniswap.sol\":5096:5744  if (totalSupply == 0) {... */\n      tag_410\n      jumpi\n        /* \"contracts/Mooniswap.sol\":5145:5164  BASE_SUPPLY.mul(99) */\n      tag_411\n        /* \"contracts/Mooniswap.sol\":2481:2485  1000 */\n      0x03e8\n        /* \"contracts/Mooniswap.sol\":5161:5163  99 */\n      0x63\n        /* \"contracts/Mooniswap.sol\":5145:5160  BASE_SUPPLY.mul */\n      tag_235\n        /* \"contracts/Mooniswap.sol\":5145:5164  BASE_SUPPLY.mul(99) */\n      jump\t// in\n    tag_411:\n        /* \"contracts/Mooniswap.sol\":5132:5164  fairSupply = BASE_SUPPLY.mul(99) */\n      swap4\n      pop\n        /* \"contracts/Mooniswap.sol\":5178:5211  _mint(address(this), BASE_SUPPLY) */\n      tag_412\n        /* \"contracts/Mooniswap.sol\":5192:5196  this */\n      address\n        /* \"contracts/Mooniswap.sol\":2481:2485  1000 */\n      0x03e8\n        /* \"contracts/Mooniswap.sol\":5178:5183  _mint */\n      tag_363\n        /* \"contracts/Mooniswap.sol\":5178:5211  _mint(address(this), BASE_SUPPLY) */\n      jump\t// in\n    tag_412:\n        /* \"contracts/Mooniswap.sol\":5340:5346  uint i */\n      0x00\n        /* \"contracts/Mooniswap.sol\":5335:5455  for (uint i = 0; i < amounts.length; i++) {... */\n    tag_413:\n        /* \"contracts/Mooniswap.sol\":5352:5370  i < amounts.length */\n      dup8\n      dup2\n      lt\n        /* \"contracts/Mooniswap.sol\":5335:5455  for (uint i = 0; i < amounts.length; i++) {... */\n      iszero\n      tag_414\n      jumpi\n        /* \"contracts/Mooniswap.sol\":5408:5440  Math.max(fairSupply, amounts[i]) */\n      tag_416\n        /* \"contracts/Mooniswap.sol\":5417:5427  fairSupply */\n      dup6\n        /* \"contracts/Mooniswap.sol\":5429:5436  amounts */\n      dup11\n      dup11\n        /* \"contracts/Mooniswap.sol\":5437:5438  i */\n      dup5\n        /* \"contracts/Mooniswap.sol\":5429:5439  amounts[i] */\n      dup2\n      dup2\n      lt\n      tag_417\n      jumpi\n      invalid\n    tag_417:\n      swap1\n      pop\n      0x20\n      mul\n      add\n      calldataload\n        /* \"contracts/Mooniswap.sol\":5408:5416  Math.max */\n      tag_324\n        /* \"contracts/Mooniswap.sol\":5408:5440  Math.max(fairSupply, amounts[i]) */\n      jump\t// in\n    tag_416:\n        /* \"contracts/Mooniswap.sol\":5395:5440  fairSupply = Math.max(fairSupply, amounts[i]) */\n      swap5\n      pop\n        /* \"contracts/Mooniswap.sol\":5372:5375  i++ */\n      0x01\n      add\n        /* \"contracts/Mooniswap.sol\":5335:5455  for (uint i = 0; i < amounts.length; i++) {... */\n      jump(tag_413)\n    tag_414:\n      pop\n        /* \"contracts/Mooniswap.sol\":5096:5744  if (totalSupply == 0) {... */\n      jump(tag_418)\n    tag_410:\n      not(0x00)\n        /* \"contracts/Mooniswap.sol\":5532:5562  fairSupply = type(uint256).max */\n      swap4\n      pop\n        /* \"contracts/Mooniswap.sol\":5581:5587  uint i */\n      0x00\n        /* \"contracts/Mooniswap.sol\":5576:5734  for (uint i = 0; i < amounts.length; i++) {... */\n    tag_419:\n        /* \"contracts/Mooniswap.sol\":5593:5611  i < amounts.length */\n      dup8\n      dup2\n      lt\n        /* \"contracts/Mooniswap.sol\":5576:5734  for (uint i = 0; i < amounts.length; i++) {... */\n      iszero\n      tag_420\n      jumpi\n        /* \"contracts/Mooniswap.sol\":5649:5719  Math.min(fairSupply, totalSupply.mul(amounts[i]).div(realBalances[i])) */\n      tag_422\n        /* \"contracts/Mooniswap.sol\":5658:5668  fairSupply */\n      dup6\n        /* \"contracts/Mooniswap.sol\":5670:5718  totalSupply.mul(amounts[i]).div(realBalances[i]) */\n      tag_423\n        /* \"contracts/Mooniswap.sol\":5702:5714  realBalances */\n      dup6\n        /* \"contracts/Mooniswap.sol\":5715:5716  i */\n      dup5\n        /* \"contracts/Mooniswap.sol\":5702:5717  realBalances[i] */\n      dup2\n      mload\n      dup2\n      lt\n      tag_424\n      jumpi\n      invalid\n    tag_424:\n      0x20\n      mul\n      0x20\n      add\n      add\n      mload\n        /* \"contracts/Mooniswap.sol\":5670:5697  totalSupply.mul(amounts[i]) */\n      tag_234\n        /* \"contracts/Mooniswap.sol\":5686:5693  amounts */\n      dup14\n      dup14\n        /* \"contracts/Mooniswap.sol\":5694:5695  i */\n      dup8\n        /* \"contracts/Mooniswap.sol\":5686:5696  amounts[i] */\n      dup2\n      dup2\n      lt\n      tag_426\n      jumpi\n      invalid\n    tag_426:\n      swap1\n      pop\n      0x20\n      mul\n      add\n      calldataload\n        /* \"contracts/Mooniswap.sol\":5670:5681  totalSupply */\n      dup8\n        /* \"contracts/Mooniswap.sol\":5670:5685  totalSupply.mul */\n      tag_235\n      swap1\n        /* \"contracts/Mooniswap.sol\":5670:5697  totalSupply.mul(amounts[i]) */\n      swap2\n      swap1\n      0xffffffff\n      and\n      jump\t// in\n        /* \"contracts/Mooniswap.sol\":5670:5718  totalSupply.mul(amounts[i]).div(realBalances[i]) */\n    tag_423:\n        /* \"contracts/Mooniswap.sol\":5649:5657  Math.min */\n      tag_327\n        /* \"contracts/Mooniswap.sol\":5649:5719  Math.min(fairSupply, totalSupply.mul(amounts[i]).div(realBalances[i])) */\n      jump\t// in\n    tag_422:\n        /* \"contracts/Mooniswap.sol\":5636:5719  fairSupply = Math.min(fairSupply, totalSupply.mul(amounts[i]).div(realBalances[i])) */\n      swap5\n      pop\n        /* \"contracts/Mooniswap.sol\":5613:5616  i++ */\n      0x01\n      add\n        /* \"contracts/Mooniswap.sol\":5576:5734  for (uint i = 0; i < amounts.length; i++) {... */\n      jump(tag_419)\n    tag_420:\n      pop\n        /* \"contracts/Mooniswap.sol\":5096:5744  if (totalSupply == 0) {... */\n    tag_418:\n        /* \"contracts/Mooniswap.sol\":5781:5791  fairSupply */\n      dup4\n        /* \"contracts/Mooniswap.sol\":5754:5778  uint256 fairSupplyCached */\n      0x00\n        /* \"contracts/Mooniswap.sol\":5801:6465  for (uint i = 0; i < amounts.length; i++) {... */\n    tag_427:\n        /* \"contracts/Mooniswap.sol\":5818:5836  i < amounts.length */\n      dup9\n      dup2\n      lt\n        /* \"contracts/Mooniswap.sol\":5801:6465  for (uint i = 0; i < amounts.length; i++) {... */\n      iszero\n      tag_428\n      jumpi\n        /* \"contracts/Mooniswap.sol\":5878:5879  0 */\n      0x00\n        /* \"contracts/Mooniswap.sol\":5865:5872  amounts */\n      dup11\n      dup11\n        /* \"contracts/Mooniswap.sol\":5873:5874  i */\n      dup4\n        /* \"contracts/Mooniswap.sol\":5865:5875  amounts[i] */\n      dup2\n      dup2\n      lt\n      tag_430\n      jumpi\n      invalid\n    tag_430:\n      swap1\n      pop\n      0x20\n      mul\n      add\n      calldataload\n        /* \"contracts/Mooniswap.sol\":5865:5879  amounts[i] > 0 */\n      gt\n        /* \"contracts/Mooniswap.sol\":5857:5909  require(amounts[i] > 0, \"Mooniswap: amount is zero\") */\n      tag_431\n      jumpi\n      0x40\n      dup1\n      mload\n      shl(0xe5, 0x461bcd)\n      dup2\n      mstore\n      0x20\n      0x04\n      dup3\n      add\n      mstore\n      0x19\n      0x24\n      dup3\n      add\n      mstore\n      0x4d6f6f6e69737761703a20616d6f756e74206973207a65726f00000000000000\n      0x44\n      dup3\n      add\n      mstore\n      swap1\n      mload\n      swap1\n      dup2\n      swap1\n      sub\n      0x64\n      add\n      swap1\n      revert\n    tag_431:\n        /* \"contracts/Mooniswap.sol\":5923:5937  uint256 amount */\n      0x00\n        /* \"contracts/Mooniswap.sol\":5941:5957  totalSupply == 0 */\n      dup4\n      iszero\n        /* \"contracts/Mooniswap.sol\":5940:6065  (totalSupply == 0) ? amounts[i] :... */\n      tag_432\n      jumpi\n        /* \"contracts/Mooniswap.sol\":5990:6065  realBalances[i].mul(fairSupplyCached).add(totalSupply - 1).div(totalSupply) */\n      tag_433\n        /* \"contracts/Mooniswap.sol\":6053:6064  totalSupply */\n      dup5\n        /* \"contracts/Mooniswap.sol\":5990:6048  realBalances[i].mul(fairSupplyCached).add(totalSupply - 1) */\n      tag_234\n        /* \"contracts/Mooniswap.sol\":6046:6047  1 */\n      0x01\n        /* \"contracts/Mooniswap.sol\":6032:6043  totalSupply */\n      dup8\n        /* \"contracts/Mooniswap.sol\":6032:6047  totalSupply - 1 */\n      sub\n        /* \"contracts/Mooniswap.sol\":5990:6027  realBalances[i].mul(fairSupplyCached) */\n      tag_435\n        /* \"contracts/Mooniswap.sol\":6010:6026  fairSupplyCached */\n      dup8\n        /* \"contracts/Mooniswap.sol\":5990:6002  realBalances */\n      dup11\n        /* \"contracts/Mooniswap.sol\":6003:6004  i */\n      dup9\n        /* \"contracts/Mooniswap.sol\":5990:6005  realBalances[i] */\n      dup2\n      mload\n      dup2\n      lt\n      tag_436\n      jumpi\n      invalid\n    tag_436:\n      0x20\n      mul\n      0x20\n      add\n      add\n      mload\n        /* \"contracts/Mooniswap.sol\":5990:6009  realBalances[i].mul */\n      tag_235\n      swap1\n        /* \"contracts/Mooniswap.sol\":5990:6027  realBalances[i].mul(fairSupplyCached) */\n      swap2\n      swap1\n      0xffffffff\n      and\n      jump\t// in\n    tag_435:\n        /* \"contracts/Mooniswap.sol\":5990:6031  realBalances[i].mul(fairSupplyCached).add */\n      swap1\n      tag_216\n        /* \"contracts/Mooniswap.sol\":5990:6048  realBalances[i].mul(fairSupplyCached).add(totalSupply - 1) */\n      jump\t// in\n        /* \"contracts/Mooniswap.sol\":5990:6065  realBalances[i].mul(fairSupplyCached).add(totalSupply - 1).div(totalSupply) */\n    tag_433:\n        /* \"contracts/Mooniswap.sol\":5940:6065  (totalSupply == 0) ? amounts[i] :... */\n      jump(tag_437)\n    tag_432:\n        /* \"contracts/Mooniswap.sol\":5961:5968  amounts */\n      dup11\n      dup11\n        /* \"contracts/Mooniswap.sol\":5969:5970  i */\n      dup4\n        /* \"contracts/Mooniswap.sol\":5961:5971  amounts[i] */\n      dup2\n      dup2\n      lt\n      tag_438\n      jumpi\n      invalid\n    tag_438:\n      swap1\n      pop\n      0x20\n      mul\n      add\n      calldataload\n        /* \"contracts/Mooniswap.sol\":5940:6065  (totalSupply == 0) ? amounts[i] :... */\n    tag_437:\n        /* \"contracts/Mooniswap.sol\":5923:6065  uint256 amount = (totalSupply == 0) ? amounts[i] :... */\n      swap1\n      pop\n        /* \"contracts/Mooniswap.sol\":6097:6107  minAmounts */\n      dup9\n      dup9\n        /* \"contracts/Mooniswap.sol\":6108:6109  i */\n      dup4\n        /* \"contracts/Mooniswap.sol\":6097:6110  minAmounts[i] */\n      dup2\n      dup2\n      lt\n      tag_439\n      jumpi\n      invalid\n    tag_439:\n      swap1\n      pop\n      0x20\n      mul\n      add\n      calldataload\n        /* \"contracts/Mooniswap.sol\":6087:6093  amount */\n      dup2\n        /* \"contracts/Mooniswap.sol\":6087:6110  amount >= minAmounts[i] */\n      lt\n      iszero\n        /* \"contracts/Mooniswap.sol\":6079:6147  require(amount >= minAmounts[i], \"Mooniswap: minAmount not reached\") */\n      tag_440\n      jumpi\n      0x40\n      dup1\n      mload\n      shl(0xe5, 0x461bcd)\n      dup2\n      mstore\n      0x20\n      0x04\n      dup3\n      add\n      dup2\n      swap1\n      mstore\n      0x24\n      dup3\n      add\n      mstore\n      0x4d6f6f6e69737761703a206d696e416d6f756e74206e6f742072656163686564\n      0x44\n      dup3\n      add\n      mstore\n      swap1\n      mload\n      swap1\n      dup2\n      swap1\n      sub\n      0x64\n      add\n      swap1\n      revert\n    tag_440:\n        /* \"contracts/Mooniswap.sol\":6162:6208  _tokens[i].uniTransferFromSenderToThis(amount) */\n      tag_441\n        /* \"contracts/Mooniswap.sol\":6201:6207  amount */\n      dup2\n        /* \"contracts/Mooniswap.sol\":6162:6169  _tokens */\n      dup8\n        /* \"contracts/Mooniswap.sol\":6170:6171  i */\n      dup5\n        /* \"contracts/Mooniswap.sol\":6162:6172  _tokens[i] */\n      dup2\n      mload\n      dup2\n      lt\n      tag_442\n      jumpi\n      invalid\n    tag_442:\n      0x20\n      mul\n      0x20\n      add\n      add\n      mload\n      sub(shl(0xa0, 0x01), 0x01)\n        /* \"contracts/Mooniswap.sol\":6162:6200  _tokens[i].uniTransferFromSenderToThis */\n      and\n      tag_329\n      swap1\n        /* \"contracts/Mooniswap.sol\":6162:6208  _tokens[i].uniTransferFromSenderToThis(amount) */\n      swap2\n      swap1\n      0xffffffff\n      and\n      jump\t// in\n    tag_441:\n        /* \"contracts/Mooniswap.sol\":6226:6241  totalSupply > 0 */\n      dup4\n      iszero\n        /* \"contracts/Mooniswap.sol\":6222:6455  if (totalSupply > 0) {... */\n      tag_443\n      jumpi\n        /* \"contracts/Mooniswap.sol\":6261:6278  uint256 confirmed */\n      0x00\n        /* \"contracts/Mooniswap.sol\":6281:6340  _tokens[i].uniBalanceOf(address(this)).sub(realBalances[i]) */\n      tag_444\n        /* \"contracts/Mooniswap.sol\":6324:6336  realBalances */\n      dup7\n        /* \"contracts/Mooniswap.sol\":6337:6338  i */\n      dup5\n        /* \"contracts/Mooniswap.sol\":6324:6339  realBalances[i] */\n      dup2\n      mload\n      dup2\n      lt\n      tag_445\n      jumpi\n      invalid\n    tag_445:\n      0x20\n      mul\n      0x20\n      add\n      add\n      mload\n        /* \"contracts/Mooniswap.sol\":6281:6319  _tokens[i].uniBalanceOf(address(this)) */\n      tag_319\n        /* \"contracts/Mooniswap.sol\":6313:6317  this */\n      address\n        /* \"contracts/Mooniswap.sol\":6281:6288  _tokens */\n      dup11\n        /* \"contracts/Mooniswap.sol\":6289:6290  i */\n      dup8\n        /* \"contracts/Mooniswap.sol\":6281:6291  _tokens[i] */\n      dup2\n      mload\n      dup2\n      lt\n      tag_407\n      jumpi\n      invalid\n        /* \"contracts/Mooniswap.sol\":6281:6340  _tokens[i].uniBalanceOf(address(this)).sub(realBalances[i]) */\n    tag_444:\n        /* \"contracts/Mooniswap.sol\":6261:6340  uint256 confirmed = _tokens[i].uniBalanceOf(address(this)).sub(realBalances[i]) */\n      swap1\n      pop\n        /* \"contracts/Mooniswap.sol\":6371:6440  Math.min(fairSupply, totalSupply.mul(confirmed).div(realBalances[i])) */\n      tag_448\n        /* \"contracts/Mooniswap.sol\":6380:6390  fairSupply */\n      dup9\n        /* \"contracts/Mooniswap.sol\":6392:6439  totalSupply.mul(confirmed).div(realBalances[i]) */\n      tag_423\n        /* \"contracts/Mooniswap.sol\":6423:6435  realBalances */\n      dup9\n        /* \"contracts/Mooniswap.sol\":6436:6437  i */\n      dup7\n        /* \"contracts/Mooniswap.sol\":6423:6438  realBalances[i] */\n      dup2\n      mload\n      dup2\n      lt\n      tag_450\n      jumpi\n      invalid\n    tag_450:\n      0x20\n      mul\n      0x20\n      add\n      add\n      mload\n        /* \"contracts/Mooniswap.sol\":6392:6418  totalSupply.mul(confirmed) */\n      tag_234\n        /* \"contracts/Mooniswap.sol\":6408:6417  confirmed */\n      dup6\n        /* \"contracts/Mooniswap.sol\":6392:6403  totalSupply */\n      dup11\n        /* \"contracts/Mooniswap.sol\":6392:6407  totalSupply.mul */\n      tag_235\n      swap1\n        /* \"contracts/Mooniswap.sol\":6392:6418  totalSupply.mul(confirmed) */\n      swap2\n      swap1\n      0xffffffff\n      and\n      jump\t// in\n        /* \"contracts/Mooniswap.sol\":6371:6440  Math.min(fairSupply, totalSupply.mul(confirmed).div(realBalances[i])) */\n    tag_448:\n        /* \"contracts/Mooniswap.sol\":6358:6440  fairSupply = Math.min(fairSupply, totalSupply.mul(confirmed).div(realBalances[i])) */\n      swap8\n      pop\n        /* \"contracts/Mooniswap.sol\":6222:6455  if (totalSupply > 0) {... */\n      pop\n    tag_443:\n      pop\n        /* \"contracts/Mooniswap.sol\":5838:5841  i++ */\n      0x01\n      add\n        /* \"contracts/Mooniswap.sol\":5801:6465  for (uint i = 0; i < amounts.length; i++) {... */\n      jump(tag_427)\n    tag_428:\n      pop\n        /* \"contracts/Mooniswap.sol\":6479:6494  totalSupply > 0 */\n      dup2\n      iszero\n        /* \"contracts/Mooniswap.sol\":6475:6818  if (totalSupply > 0) {... */\n      tag_452\n      jumpi\n        /* \"contracts/Mooniswap.sol\":6515:6521  uint i */\n      0x00\n        /* \"contracts/Mooniswap.sol\":6510:6808  for (uint i = 0; i < amounts.length; i++) {... */\n    tag_453:\n        /* \"contracts/Mooniswap.sol\":6527:6545  i < amounts.length */\n      dup9\n      dup2\n      lt\n        /* \"contracts/Mooniswap.sol\":6510:6808  for (uint i = 0; i < amounts.length; i++) {... */\n      iszero\n      tag_454\n      jumpi\n        /* \"contracts/Mooniswap.sol\":6570:6672  virtualBalancesForRemoval[_tokens[i]].scale(realBalances[i], totalSupply.add(fairSupply), totalSupply) */\n      tag_456\n        /* \"contracts/Mooniswap.sol\":6614:6626  realBalances */\n      dup5\n        /* \"contracts/Mooniswap.sol\":6627:6628  i */\n      dup3\n        /* \"contracts/Mooniswap.sol\":6614:6629  realBalances[i] */\n      dup2\n      mload\n      dup2\n      lt\n      tag_457\n      jumpi\n      invalid\n    tag_457:\n      0x20\n      mul\n      0x20\n      add\n      add\n      mload\n        /* \"contracts/Mooniswap.sol\":6631:6658  totalSupply.add(fairSupply) */\n      tag_458\n        /* \"contracts/Mooniswap.sol\":6647:6657  fairSupply */\n      dup9\n        /* \"contracts/Mooniswap.sol\":6631:6642  totalSupply */\n      dup7\n        /* \"contracts/Mooniswap.sol\":6631:6646  totalSupply.add */\n      tag_216\n      swap1\n        /* \"contracts/Mooniswap.sol\":6631:6658  totalSupply.add(fairSupply) */\n      swap2\n      swap1\n      0xffffffff\n      and\n      jump\t// in\n    tag_458:\n        /* \"contracts/Mooniswap.sol\":6660:6671  totalSupply */\n      dup6\n        /* \"contracts/Mooniswap.sol\":6570:6595  virtualBalancesForRemoval */\n      0x0d\n        /* \"contracts/Mooniswap.sol\":6570:6607  virtualBalancesForRemoval[_tokens[i]] */\n      0x00\n        /* \"contracts/Mooniswap.sol\":6596:6603  _tokens */\n      dup11\n        /* \"contracts/Mooniswap.sol\":6604:6605  i */\n      dup8\n        /* \"contracts/Mooniswap.sol\":6596:6606  _tokens[i] */\n      dup2\n      mload\n      dup2\n      lt\n      tag_459\n      jumpi\n      invalid\n    tag_459:\n      0x20\n      mul\n      0x20\n      add\n      add\n      mload\n      sub(shl(0xa0, 0x01), 0x01)\n        /* \"contracts/Mooniswap.sol\":6570:6607  virtualBalancesForRemoval[_tokens[i]] */\n      and\n      sub(shl(0xa0, 0x01), 0x01)\n      and\n      dup2\n      mstore\n      0x20\n      add\n      swap1\n      dup2\n      mstore\n      0x20\n      add\n      0x00\n      keccak256\n        /* \"contracts/Mooniswap.sol\":6570:6613  virtualBalancesForRemoval[_tokens[i]].scale */\n      tag_245\n      swap1\n        /* \"contracts/Mooniswap.sol\":6570:6672  virtualBalancesForRemoval[_tokens[i]].scale(realBalances[i], totalSupply.add(fairSupply), totalSupply) */\n      swap4\n      swap3\n      swap2\n      swap1\n      0xffffffff\n      and\n      jump\t// in\n    tag_456:\n        /* \"contracts/Mooniswap.sol\":6690:6793  virtualBalancesForAddition[_tokens[i]].scale(realBalances[i], totalSupply.add(fairSupply), totalSupply) */\n      tag_460\n        /* \"contracts/Mooniswap.sol\":6735:6747  realBalances */\n      dup5\n        /* \"contracts/Mooniswap.sol\":6748:6749  i */\n      dup3\n        /* \"contracts/Mooniswap.sol\":6735:6750  realBalances[i] */\n      dup2\n      mload\n      dup2\n      lt\n      tag_461\n      jumpi\n      invalid\n    tag_461:\n      0x20\n      mul\n      0x20\n      add\n      add\n      mload\n        /* \"contracts/Mooniswap.sol\":6752:6779  totalSupply.add(fairSupply) */\n      tag_462\n        /* \"contracts/Mooniswap.sol\":6768:6778  fairSupply */\n      dup9\n        /* \"contracts/Mooniswap.sol\":6752:6763  totalSupply */\n      dup7\n        /* \"contracts/Mooniswap.sol\":6752:6767  totalSupply.add */\n      tag_216\n      swap1\n        /* \"contracts/Mooniswap.sol\":6752:6779  totalSupply.add(fairSupply) */\n      swap2\n      swap1\n      0xffffffff\n      and\n      jump\t// in\n    tag_462:\n        /* \"contracts/Mooniswap.sol\":6781:6792  totalSupply */\n      dup6\n        /* \"contracts/Mooniswap.sol\":6690:6716  virtualBalancesForAddition */\n      0x0c\n        /* \"contracts/Mooniswap.sol\":6690:6728  virtualBalancesForAddition[_tokens[i]] */\n      0x00\n        /* \"contracts/Mooniswap.sol\":6717:6724  _tokens */\n      dup11\n        /* \"contracts/Mooniswap.sol\":6725:6726  i */\n      dup8\n        /* \"contracts/Mooniswap.sol\":6717:6727  _tokens[i] */\n      dup2\n      mload\n      dup2\n      lt\n      tag_459\n      jumpi\n      invalid\n        /* \"contracts/Mooniswap.sol\":6690:6793  virtualBalancesForAddition[_tokens[i]].scale(realBalances[i], totalSupply.add(fairSupply), totalSupply) */\n    tag_460:\n        /* \"contracts/Mooniswap.sol\":6547:6550  i++ */\n      0x01\n      add\n        /* \"contracts/Mooniswap.sol\":6510:6808  for (uint i = 0; i < amounts.length; i++) {... */\n      jump(tag_453)\n    tag_454:\n      pop\n        /* \"contracts/Mooniswap.sol\":6475:6818  if (totalSupply > 0) {... */\n    tag_452:\n        /* \"contracts/Mooniswap.sol\":6849:6850  0 */\n      0x00\n        /* \"contracts/Mooniswap.sol\":6836:6846  fairSupply */\n      dup6\n        /* \"contracts/Mooniswap.sol\":6836:6850  fairSupply > 0 */\n      gt\n        /* \"contracts/Mooniswap.sol\":6828:6886  require(fairSupply > 0, \"Mooniswap: result is not enough\") */\n      tag_464\n      jumpi\n      0x40\n      dup1\n      mload\n      shl(0xe5, 0x461bcd)\n      dup2\n      mstore\n      0x20\n      0x04\n      dup3\n      add\n      mstore\n      0x1f\n      0x24\n      dup3\n      add\n      mstore\n      0x4d6f6f6e69737761703a20726573756c74206973206e6f7420656e6f75676800\n      0x44\n      dup3\n      add\n      mstore\n      swap1\n      mload\n      swap1\n      dup2\n      swap1\n      sub\n      0x64\n      add\n      swap1\n      revert\n    tag_464:\n        /* \"contracts/Mooniswap.sol\":6896:6925  _mint(msg.sender, fairSupply) */\n      tag_465\n        /* \"contracts/Mooniswap.sol\":6902:6912  msg.sender */\n      caller\n        /* \"contracts/Mooniswap.sol\":6914:6924  fairSupply */\n      dup7\n        /* \"contracts/Mooniswap.sol\":6896:6901  _mint */\n      tag_363\n        /* \"contracts/Mooniswap.sol\":6896:6925  _mint(msg.sender, fairSupply) */\n      jump\t// in\n    tag_465:\n        /* \"contracts/Mooniswap.sol\":6941:6974  Deposited(msg.sender, fairSupply) */\n      0x40\n      dup1\n      mload\n      dup7\n      dup2\n      mstore\n      swap1\n      mload\n        /* \"contracts/Mooniswap.sol\":6951:6961  msg.sender */\n      caller\n      swap2\n        /* \"contracts/Mooniswap.sol\":6941:6974  Deposited(msg.sender, fairSupply) */\n      0x2da466a7b24304f47e87fa2e1e5a81b9831ce54fec19055ce277ca2f39ba42c4\n      swap2\n      swap1\n      dup2\n      swap1\n      sub\n      0x20\n      add\n      swap1\n      log2\n      pop\n      pop\n        /* \"@openzeppelin/contracts/utils/ReentrancyGuard.sol\":1628:1629  1 */\n      0x01\n        /* \"@openzeppelin/contracts/utils/ReentrancyGuard.sol\":2563:2570  _status */\n      0x06\n        /* \"@openzeppelin/contracts/utils/ReentrancyGuard.sol\":2563:2585  _status = _NOT_ENTERED */\n      sstore\n      pop\n        /* \"contracts/Mooniswap.sol\":4392:6981  function deposit(uint256[] calldata amounts, uint256[] calldata minAmounts) external payable nonReentrant returns(uint256 fairSupply) {... */\n      swap1\n      swap6\n      swap5\n      pop\n      pop\n      pop\n      pop\n      pop\n      jump\t// out\n        /* \"@openzeppelin/contracts/access/Ownable.sol\":1983:2223  function transferOwnership(address newOwner) public virtual onlyOwner {... */\n    tag_186:\n        /* \"@openzeppelin/contracts/access/Ownable.sol\":1280:1292  _msgSender() */\n      tag_467\n        /* \"@openzeppelin/contracts/access/Ownable.sol\":1280:1290  _msgSender */\n      tag_194\n        /* \"@openzeppelin/contracts/access/Ownable.sol\":1280:1292  _msgSender() */\n      jump\t// in\n    tag_467:\n        /* \"@openzeppelin/contracts/access/Ownable.sol\":1270:1276  _owner */\n      sload(0x07)\n      sub(shl(0xa0, 0x01), 0x01)\n      swap1\n      dup2\n      and\n        /* \"@openzeppelin/contracts/access/Ownable.sol\":1270:1292  _owner == _msgSender() */\n      swap2\n      and\n      eq\n        /* \"@openzeppelin/contracts/access/Ownable.sol\":1262:1329  require(_owner == _msgSender(), \"Ownable: caller is not the owner\") */\n      tag_468\n      jumpi\n      0x40\n      dup1\n      mload\n      shl(0xe5, 0x461bcd)\n      dup2\n      mstore\n      0x20\n      0x04\n      dup3\n      add\n      dup2\n      swap1\n      mstore\n      0x24\n      dup3\n      add\n      mstore\n      0x4f776e61626c653a2063616c6c6572206973206e6f7420746865206f776e6572\n      0x44\n      dup3\n      add\n      mstore\n      swap1\n      mload\n      swap1\n      dup2\n      swap1\n      sub\n      0x64\n      add\n      swap1\n      revert\n    tag_468:\n      sub(shl(0xa0, 0x01), 0x01)\n        /* \"@openzeppelin/contracts/access/Ownable.sol\":2071:2093  newOwner != address(0) */\n      dup2\n      and\n        /* \"@openzeppelin/contracts/access/Ownable.sol\":2063:2136  require(newOwner != address(0), \"Ownable: new owner is the zero address\") */\n      tag_470\n      jumpi\n      mload(0x40)\n      shl(0xe5, 0x461bcd)\n      dup2\n      mstore\n      0x04\n      add\n      dup1\n      dup1\n      0x20\n      add\n      dup3\n      dup2\n      sub\n      dup3\n      mstore\n      0x26\n      dup2\n      mstore\n      0x20\n      add\n      dup1\n      data_245f15ff17f551913a7a18385165551503906a406f905ac1c2437281a7cd0cfe\n      0x26\n      swap2\n      codecopy\n      0x40\n      add\n      swap2\n      pop\n      pop\n      mload(0x40)\n      dup1\n      swap2\n      sub\n      swap1\n      revert\n    tag_470:\n        /* \"@openzeppelin/contracts/access/Ownable.sol\":2172:2178  _owner */\n      sload(0x07)\n        /* \"@openzeppelin/contracts/access/Ownable.sol\":2151:2189  OwnershipTransferred(_owner, newOwner) */\n      mload(0x40)\n      sub(shl(0xa0, 0x01), 0x01)\n      dup1\n      dup5\n      and\n      swap3\n        /* \"@openzeppelin/contracts/access/Ownable.sol\":2172:2178  _owner */\n      and\n      swap1\n        /* \"@openzeppelin/contracts/access/Ownable.sol\":2151:2189  OwnershipTransferred(_owner, newOwner) */\n      0x8be0079c531659141344cd1fd0a4f28419497f9722a3daafe3b4186f6b6457e0\n      swap1\n        /* \"@openzeppelin/contracts/access/Ownable.sol\":2172:2178  _owner */\n      0x00\n      swap1\n        /* \"@openzeppelin/contracts/access/Ownable.sol\":2151:2189  OwnershipTransferred(_owner, newOwner) */\n      log3\n        /* \"@openzeppelin/contracts/access/Ownable.sol\":2199:2205  _owner */\n      0x07\n        /* \"@openzeppelin/contracts/access/Ownable.sol\":2199:2216  _owner = newOwner */\n      dup1\n      sload\n      not(sub(shl(0xa0, 0x01), 0x01))\n      and\n      sub(shl(0xa0, 0x01), 0x01)\n      swap3\n      swap1\n      swap3\n      and\n      swap2\n      swap1\n      swap2\n      or\n      swap1\n      sstore\n        /* \"@openzeppelin/contracts/access/Ownable.sol\":1983:2223  function transferOwnership(address newOwner) public virtual onlyOwner {... */\n      jump\t// out\n        /* \"@openzeppelin/contracts/GSN/Context.sol\":590:694  function _msgSender() internal view virtual returns (address payable) {... */\n    tag_194:\n        /* \"@openzeppelin/contracts/GSN/Context.sol\":677:687  msg.sender */\n      caller\n        /* \"@openzeppelin/contracts/GSN/Context.sol\":590:694  function _msgSender() internal view virtual returns (address payable) {... */\n      swap1\n      jump\t// out\n        /* \"@openzeppelin/contracts/token/ERC20/ERC20.sol\":9359:9699  function _approve(address owner, address spender, uint256 amount) internal virtual {... */\n    tag_195:\n      sub(shl(0xa0, 0x01), 0x01)\n        /* \"@openzeppelin/contracts/token/ERC20/ERC20.sol\":9460:9479  owner != address(0) */\n      dup4\n      and\n        /* \"@openzeppelin/contracts/token/ERC20/ERC20.sol\":9452:9520  require(owner != address(0), \"ERC20: approve from the zero address\") */\n      tag_473\n      jumpi\n      mload(0x40)\n      shl(0xe5, 0x461bcd)\n      dup2\n      mstore\n      0x04\n      add\n      dup1\n      dup1\n      0x20\n      add\n      dup3\n      dup2\n      sub\n      dup3\n      mstore\n      0x24\n      dup2\n      mstore\n      0x20\n      add\n      dup1\n      data_c953f4879035ed60e766b34720f656aab5c697b141d924c283124ecedb91c208\n      0x24\n      swap2\n      codecopy\n      0x40\n      add\n      swap2\n      pop\n      pop\n      mload(0x40)\n      dup1\n      swap2\n      sub\n      swap1\n      revert\n    tag_473:\n      sub(shl(0xa0, 0x01), 0x01)\n        /* \"@openzeppelin/contracts/token/ERC20/ERC20.sol\":9538:9559  spender != address(0) */\n      dup3\n      and\n        /* \"@openzeppelin/contracts/token/ERC20/ERC20.sol\":9530:9598  require(spender != address(0), \"ERC20: approve to the zero address\") */\n      tag_474\n      jumpi\n      mload(0x40)\n      shl(0xe5, 0x461bcd)\n      dup2\n      mstore\n      0x04\n      add\n      dup1\n      dup1\n      0x20\n      add\n      dup3\n      dup2\n      sub\n      dup3\n      mstore\n      0x22\n      dup2\n      mstore\n      0x20\n      add\n      dup1\n      data_24883cc5fe64ace9d0df1893501ecb93c77180f0ff69cca79affb3c316dc8029\n      0x22\n      swap2\n      codecopy\n      0x40\n      add\n      swap2\n      pop\n      pop\n      mload(0x40)\n      dup1\n      swap2\n      sub\n      swap1\n      revert\n    tag_474:\n      sub(shl(0xa0, 0x01), 0x01)\n        /* \"@openzeppelin/contracts/token/ERC20/ERC20.sol\":9609:9627  _allowances[owner] */\n      dup1\n      dup5\n      and\n      0x00\n      dup2\n      dup2\n      mstore\n        /* \"@openzeppelin/contracts/token/ERC20/ERC20.sol\":9609:9620  _allowances */\n      0x01\n        /* \"@openzeppelin/contracts/token/ERC20/ERC20.sol\":9609:9627  _allowances[owner] */\n      0x20\n      swap1\n      dup2\n      mstore\n      0x40\n      dup1\n      dup4\n      keccak256\n        /* \"@openzeppelin/contracts/token/ERC20/ERC20.sol\":9609:9636  _allowances[owner][spender] */\n      swap5\n      dup8\n      and\n      dup1\n      dup5\n      mstore\n      swap5\n      dup3\n      mstore\n      swap2\n      dup3\n      swap1\n      keccak256\n        /* \"@openzeppelin/contracts/token/ERC20/ERC20.sol\":9609:9645  _allowances[owner][spender] = amount */\n      dup6\n      swap1\n      sstore\n        /* \"@openzeppelin/contracts/token/ERC20/ERC20.sol\":9660:9692  Approval(owner, spender, amount) */\n      dup2\n      mload\n      dup6\n      dup2\n      mstore\n      swap2\n      mload\n      0x8c5be1e5ebec7d5bd14f71427d1e84f3dd0314c0f7b2291e5b200ac8c7c3b925\n      swap3\n      dup2\n      swap1\n      sub\n      swap1\n      swap2\n      add\n      swap1\n      log3\n        /* \"@openzeppelin/contracts/token/ERC20/ERC20.sol\":9359:9699  function _approve(address owner, address spender, uint256 amount) internal virtual {... */\n      pop\n      pop\n      pop\n      jump\t// out\n        /* \"contracts/Mooniswap.sol\":10980:11367  function _getReturn(IERC20 src, IERC20 dst, uint256 amount, uint256 srcBalance, uint256 dstBalance) internal view returns(uint256) {... */\n    tag_201:\n      sub(shl(0xa0, 0x01), 0x01)\n        /* \"contracts/Mooniswap.sol\":11125:11137  isToken[src] */\n      dup6\n      and\n        /* \"contracts/Mooniswap.sol\":11102:11109  uint256 */\n      0x00\n        /* \"contracts/Mooniswap.sol\":11125:11137  isToken[src] */\n      swap1\n      dup2\n      mstore\n        /* \"contracts/Mooniswap.sol\":11125:11132  isToken */\n      0x0a\n        /* \"contracts/Mooniswap.sol\":11125:11137  isToken[src] */\n      0x20\n      mstore\n      0x40\n      dup2\n      keccak256\n      sload\n      0xff\n      and\n        /* \"contracts/Mooniswap.sol\":11125:11153  isToken[src] && isToken[dst] */\n      dup1\n      iszero\n      tag_476\n      jumpi\n      pop\n      sub(shl(0xa0, 0x01), 0x01)\n        /* \"contracts/Mooniswap.sol\":11141:11153  isToken[dst] */\n      dup6\n      and\n      0x00\n      swap1\n      dup2\n      mstore\n        /* \"contracts/Mooniswap.sol\":11141:11148  isToken */\n      0x0a\n        /* \"contracts/Mooniswap.sol\":11141:11153  isToken[dst] */\n      0x20\n      mstore\n      0x40\n      swap1\n      keccak256\n      sload\n      0xff\n      and\n        /* \"contracts/Mooniswap.sol\":11125:11153  isToken[src] && isToken[dst] */\n    tag_476:\n        /* \"contracts/Mooniswap.sol\":11125:11167  isToken[src] && isToken[dst] && src != dst */\n      dup1\n      iszero\n      tag_477\n      jumpi\n      pop\n        /* \"contracts/Mooniswap.sol\":11164:11167  dst */\n      dup5\n      sub(shl(0xa0, 0x01), 0x01)\n        /* \"contracts/Mooniswap.sol\":11157:11167  src != dst */\n      and\n        /* \"contracts/Mooniswap.sol\":11157:11160  src */\n      dup7\n      sub(shl(0xa0, 0x01), 0x01)\n        /* \"contracts/Mooniswap.sol\":11157:11167  src != dst */\n      and\n      eq\n      iszero\n        /* \"contracts/Mooniswap.sol\":11125:11167  isToken[src] && isToken[dst] && src != dst */\n    tag_477:\n        /* \"contracts/Mooniswap.sol\":11125:11181  isToken[src] && isToken[dst] && src != dst && amount > 0 */\n      dup1\n      iszero\n      tag_478\n      jumpi\n      pop\n        /* \"contracts/Mooniswap.sol\":11180:11181  0 */\n      0x00\n        /* \"contracts/Mooniswap.sol\":11171:11177  amount */\n      dup5\n        /* \"contracts/Mooniswap.sol\":11171:11181  amount > 0 */\n      gt\n        /* \"contracts/Mooniswap.sol\":11125:11181  isToken[src] && isToken[dst] && src != dst && amount > 0 */\n    tag_478:\n        /* \"contracts/Mooniswap.sol\":11121:11361  if (isToken[src] && isToken[dst] && src != dst && amount > 0) {... */\n      iszero\n      tag_479\n      jumpi\n        /* \"contracts/Mooniswap.sol\":11197:11216  uint256 taxedAmount */\n      0x00\n        /* \"contracts/Mooniswap.sol\":11219:11269  amount.sub(amount.mul(fee()).div(FEE_DENOMINATOR)) */\n      tag_480\n        /* \"contracts/Mooniswap.sol\":11230:11268  amount.mul(fee()).div(FEE_DENOMINATOR) */\n      tag_481\n        /* \"contracts/Mooniswap.sol\":2567:2571  1e18 */\n      0x0de0b6b3a7640000\n        /* \"contracts/Mooniswap.sol\":11230:11247  amount.mul(fee()) */\n      tag_234\n        /* \"contracts/Mooniswap.sol\":11241:11246  fee() */\n      tag_483\n        /* \"contracts/Mooniswap.sol\":11241:11244  fee */\n      tag_169\n        /* \"contracts/Mooniswap.sol\":11241:11246  fee() */\n      jump\t// in\n    tag_483:\n        /* \"contracts/Mooniswap.sol\":11230:11236  amount */\n      dup10\n      swap1\n        /* \"contracts/Mooniswap.sol\":11230:11240  amount.mul */\n      tag_235\n        /* \"contracts/Mooniswap.sol\":11230:11247  amount.mul(fee()) */\n      jump\t// in\n        /* \"contracts/Mooniswap.sol\":11230:11268  amount.mul(fee()).div(FEE_DENOMINATOR) */\n    tag_481:\n        /* \"contracts/Mooniswap.sol\":11219:11225  amount */\n      dup7\n      swap1\n        /* \"contracts/Mooniswap.sol\":11219:11229  amount.sub */\n      tag_244\n        /* \"contracts/Mooniswap.sol\":11219:11269  amount.sub(amount.mul(fee()).div(FEE_DENOMINATOR)) */\n      jump\t// in\n    tag_480:\n        /* \"contracts/Mooniswap.sol\":11197:11269  uint256 taxedAmount = amount.sub(amount.mul(fee()).div(FEE_DENOMINATOR)) */\n      swap1\n      pop\n        /* \"contracts/Mooniswap.sol\":11290:11350  taxedAmount.mul(dstBalance).div(srcBalance.add(taxedAmount)) */\n      tag_484\n        /* \"contracts/Mooniswap.sol\":11322:11349  srcBalance.add(taxedAmount) */\n      tag_485\n        /* \"contracts/Mooniswap.sol\":11322:11332  srcBalance */\n      dup6\n        /* \"contracts/Mooniswap.sol\":11197:11269  uint256 taxedAmount = amount.sub(amount.mul(fee()).div(FEE_DENOMINATOR)) */\n      dup4\n        /* \"contracts/Mooniswap.sol\":11322:11336  srcBalance.add */\n      tag_216\n        /* \"contracts/Mooniswap.sol\":11322:11349  srcBalance.add(taxedAmount) */\n      jump\t// in\n    tag_485:\n        /* \"contracts/Mooniswap.sol\":11290:11317  taxedAmount.mul(dstBalance) */\n      tag_234\n        /* \"contracts/Mooniswap.sol\":11290:11301  taxedAmount */\n      dup4\n        /* \"contracts/Mooniswap.sol\":11306:11316  dstBalance */\n      dup7\n        /* \"contracts/Mooniswap.sol\":11290:11305  taxedAmount.mul */\n      tag_235\n        /* \"contracts/Mooniswap.sol\":11290:11317  taxedAmount.mul(dstBalance) */\n      jump\t// in\n        /* \"contracts/Mooniswap.sol\":11290:11350  taxedAmount.mul(dstBalance).div(srcBalance.add(taxedAmount)) */\n    tag_484:\n        /* \"contracts/Mooniswap.sol\":11283:11350  return taxedAmount.mul(dstBalance).div(srcBalance.add(taxedAmount)) */\n      swap2\n      pop\n      pop\n        /* \"contracts/Mooniswap.sol\":11121:11361  if (isToken[src] && isToken[dst] && src != dst && amount > 0) {... */\n    tag_479:\n        /* \"contracts/Mooniswap.sol\":10980:11367  function _getReturn(IERC20 src, IERC20 dst, uint256 amount, uint256 srcBalance, uint256 dstBalance) internal view returns(uint256) {... */\n      swap6\n      swap5\n      pop\n      pop\n      pop\n      pop\n      pop\n      jump\t// out\n        /* \"@openzeppelin/contracts/token/ERC20/ERC20.sol\":7035:7565  function _transfer(address sender, address recipient, uint256 amount) internal virtual {... */\n    tag_204:\n      sub(shl(0xa0, 0x01), 0x01)\n        /* \"@openzeppelin/contracts/token/ERC20/ERC20.sol\":7140:7160  sender != address(0) */\n      dup4\n      and\n        /* \"@openzeppelin/contracts/token/ERC20/ERC20.sol\":7132:7202  require(sender != address(0), \"ERC20: transfer from the zero address\") */\n      tag_488\n      jumpi\n      mload(0x40)\n      shl(0xe5, 0x461bcd)\n      dup2\n      mstore\n      0x04\n      add\n      dup1\n      dup1\n      0x20\n      add\n      dup3\n      dup2\n      sub\n      dup3\n      mstore\n      0x25\n      dup2\n      mstore\n      0x20\n      add\n      dup1\n      data_baecc556b46f4ed0f2b4cb599d60785ac8563dd2dc0a5bf12edea1c39e5e1fea\n      0x25\n      swap2\n      codecopy\n      0x40\n      add\n      swap2\n      pop\n      pop\n      mload(0x40)\n      dup1\n      swap2\n      sub\n      swap1\n      revert\n    tag_488:\n      sub(shl(0xa0, 0x01), 0x01)\n        /* \"@openzeppelin/contracts/token/ERC20/ERC20.sol\":7220:7243  recipient != address(0) */\n      dup3\n      and\n        /* \"@openzeppelin/contracts/token/ERC20/ERC20.sol\":7212:7283  require(recipient != address(0), \"ERC20: transfer to the zero address\") */\n      tag_489\n      jumpi\n      mload(0x40)\n      shl(0xe5, 0x461bcd)\n      dup2\n      mstore\n      0x04\n      add\n      dup1\n      dup1\n      0x20\n      add\n      dup3\n      dup2\n      sub\n      dup3\n      mstore\n      0x23\n      dup2\n      mstore\n      0x20\n      add\n      dup1\n      data_0557e210f7a69a685100a7e4e3d0a7024c546085cee28910fd17d0b081d9516f\n      0x23\n      swap2\n      codecopy\n      0x40\n      add\n      swap2\n      pop\n      pop\n      mload(0x40)\n      dup1\n      swap2\n      sub\n      swap1\n      revert\n    tag_489:\n        /* \"@openzeppelin/contracts/token/ERC20/ERC20.sol\":7294:7341  _beforeTokenTransfer(sender, recipient, amount) */\n      tag_490\n        /* \"@openzeppelin/contracts/token/ERC20/ERC20.sol\":7315:7321  sender */\n      dup4\n        /* \"@openzeppelin/contracts/token/ERC20/ERC20.sol\":7323:7332  recipient */\n      dup4\n        /* \"@openzeppelin/contracts/token/ERC20/ERC20.sol\":7334:7340  amount */\n      dup4\n        /* \"@openzeppelin/contracts/token/ERC20/ERC20.sol\":7294:7314  _beforeTokenTransfer */\n      tag_529\n        /* \"@openzeppelin/contracts/token/ERC20/ERC20.sol\":7294:7341  _beforeTokenTransfer(sender, recipient, amount) */\n      jump\t// in\n    tag_490:\n        /* \"@openzeppelin/contracts/token/ERC20/ERC20.sol\":7372:7443  _balances[sender].sub(amount, \"ERC20: transfer amount exceeds balance\") */\n      tag_492\n        /* \"@openzeppelin/contracts/token/ERC20/ERC20.sol\":7394:7400  amount */\n      dup2\n        /* \"@openzeppelin/contracts/token/ERC20/ERC20.sol\":7372:7443  _balances[sender].sub(amount, \"ERC20: transfer amount exceeds balance\") */\n      mload(0x40)\n      dup1\n      0x60\n      add\n      0x40\n      mstore\n      dup1\n      0x26\n      dup2\n      mstore\n      0x20\n      add\n      data_4107e8a8b9e94bf8ff83080ddec1c0bffe897ebc2241b89d44f66b3d274088b6\n      0x26\n      swap2\n      codecopy\n      sub(shl(0xa0, 0x01), 0x01)\n        /* \"@openzeppelin/contracts/token/ERC20/ERC20.sol\":7372:7389  _balances[sender] */\n      dup7\n      and\n        /* \"@openzeppelin/contracts/token/ERC20/ERC20.sol\":7372:7381  _balances */\n      0x00\n        /* \"@openzeppelin/contracts/token/ERC20/ERC20.sol\":7372:7389  _balances[sender] */\n      swap1\n      dup2\n      mstore\n      0x20\n      dup2\n      swap1\n      mstore\n      0x40\n      swap1\n      keccak256\n      sload\n      swap2\n        /* \"@openzeppelin/contracts/token/ERC20/ERC20.sol\":7372:7443  _balances[sender].sub(amount, \"ERC20: transfer amount exceeds balance\") */\n      swap1\n        /* \"@openzeppelin/contracts/token/ERC20/ERC20.sol\":7372:7393  _balances[sender].sub */\n      tag_209\n        /* \"@openzeppelin/contracts/token/ERC20/ERC20.sol\":7372:7443  _balances[sender].sub(amount, \"ERC20: transfer amount exceeds balance\") */\n      jump\t// in\n    tag_492:\n      sub(shl(0xa0, 0x01), 0x01)\n        /* \"@openzeppelin/contracts/token/ERC20/ERC20.sol\":7352:7369  _balances[sender] */\n      dup1\n      dup6\n      and\n        /* \"@openzeppelin/contracts/token/ERC20/ERC20.sol\":7352:7361  _balances */\n      0x00\n        /* \"@openzeppelin/contracts/token/ERC20/ERC20.sol\":7352:7369  _balances[sender] */\n      swap1\n      dup2\n      mstore\n      0x20\n      dup2\n      swap1\n      mstore\n      0x40\n      dup1\n      dup3\n      keccak256\n        /* \"@openzeppelin/contracts/token/ERC20/ERC20.sol\":7352:7443  _balances[sender] = _balances[sender].sub(amount, \"ERC20: transfer amount exceeds balance\") */\n      swap4\n      swap1\n      swap4\n      sstore\n        /* \"@openzeppelin/contracts/token/ERC20/ERC20.sol\":7476:7496  _balances[recipient] */\n      swap1\n      dup5\n      and\n      dup2\n      mstore\n      keccak256\n      sload\n        /* \"@openzeppelin/contracts/token/ERC20/ERC20.sol\":7476:7508  _balances[recipient].add(amount) */\n      tag_493\n      swap1\n        /* \"@openzeppelin/contracts/token/ERC20/ERC20.sol\":7501:7507  amount */\n      dup3\n        /* \"@openzeppelin/contracts/token/ERC20/ERC20.sol\":7476:7500  _balances[recipient].add */\n      tag_216\n        /* \"@openzeppelin/contracts/token/ERC20/ERC20.sol\":7476:7508  _balances[recipient].add(amount) */\n      jump\t// in\n    tag_493:\n      sub(shl(0xa0, 0x01), 0x01)\n        /* \"@openzeppelin/contracts/token/ERC20/ERC20.sol\":7453:7473  _balances[recipient] */\n      dup1\n      dup5\n      and\n        /* \"@openzeppelin/contracts/token/ERC20/ERC20.sol\":7453:7462  _balances */\n      0x00\n        /* \"@openzeppelin/contracts/token/ERC20/ERC20.sol\":7453:7473  _balances[recipient] */\n      dup2\n      dup2\n      mstore\n      0x20\n      dup2\n      dup2\n      mstore\n      0x40\n      swap2\n      dup3\n      swap1\n      keccak256\n        /* \"@openzeppelin/contracts/token/ERC20/ERC20.sol\":7453:7508  _balances[recipient] = _balances[recipient].add(amount) */\n      swap5\n      swap1\n      swap5\n      sstore\n        /* \"@openzeppelin/contracts/token/ERC20/ERC20.sol\":7523:7558  Transfer(sender, recipient, amount) */\n      dup1\n      mload\n      dup6\n      dup2\n      mstore\n      swap1\n      mload\n        /* \"@openzeppelin/contracts/token/ERC20/ERC20.sol\":7453:7473  _balances[recipient] */\n      swap2\n      swap4\n        /* \"@openzeppelin/contracts/token/ERC20/ERC20.sol\":7523:7558  Transfer(sender, recipient, amount) */\n      swap3\n      dup8\n      and\n      swap3\n      0xddf252ad1be2c89b69c2b068fc378daa952ba7f163c4a11628f55a4df523b3ef\n      swap3\n      swap2\n      dup3\n      swap1\n      sub\n      add\n      swap1\n      log3\n        /* \"@openzeppelin/contracts/token/ERC20/ERC20.sol\":7035:7565  function _transfer(address sender, address recipient, uint256 amount) internal virtual {... */\n      pop\n      pop\n      pop\n      jump\t// out\n        /* \"@openzeppelin/contracts/math/SafeMath.sol\":1746:1933  function sub(uint256 a, uint256 b, string memory errorMessage) internal pure returns (uint256) {... */\n    tag_209:\n        /* \"@openzeppelin/contracts/math/SafeMath.sol\":1832:1839  uint256 */\n      0x00\n        /* \"@openzeppelin/contracts/math/SafeMath.sol\":1867:1879  errorMessage */\n      dup2\n        /* \"@openzeppelin/contracts/math/SafeMath.sol\":1859:1865  b <= a */\n      dup5\n      dup5\n      gt\n      iszero\n        /* \"@openzeppelin/contracts/math/SafeMath.sol\":1851:1880  require(b <= a, errorMessage) */\n      tag_495\n      jumpi\n      mload(0x40)\n      shl(0xe5, 0x461bcd)\n      dup2\n      mstore\n      0x04\n      add\n      dup1\n      dup1\n      0x20\n      add\n      dup3\n      dup2\n      sub\n      dup3\n      mstore\n      dup4\n      dup2\n      dup2\n      mload\n      dup2\n      mstore\n      0x20\n      add\n      swap2\n      pop\n      dup1\n      mload\n      swap1\n      0x20\n      add\n      swap1\n      dup1\n      dup4\n      dup4\n      0x00\n    tag_496:\n      dup4\n      dup2\n      lt\n      iszero\n      tag_498\n      jumpi\n      dup2\n      dup2\n      add\n      mload\n      dup4\n      dup3\n      add\n      mstore\n      0x20\n      add\n      jump(tag_496)\n    tag_498:\n      pop\n      pop\n      pop\n      pop\n      swap1\n      pop\n      swap1\n      dup2\n      add\n      swap1\n      0x1f\n      and\n      dup1\n      iszero\n      tag_499\n      jumpi\n      dup1\n      dup3\n      sub\n      dup1\n      mload\n      0x01\n      dup4\n      0x20\n      sub\n      0x0100\n      exp\n      sub\n      not\n      and\n      dup2\n      mstore\n      0x20\n      add\n      swap2\n      pop\n    tag_499:\n      pop\n      swap3\n      pop\n      pop\n      pop\n      mload(0x40)\n      dup1\n      swap2\n      sub\n      swap1\n      revert\n    tag_495:\n      pop\n      pop\n      pop\n        /* \"@openzeppelin/contracts/math/SafeMath.sol\":1902:1907  a - b */\n      swap1\n      sub\n      swap1\n        /* \"@openzeppelin/contracts/math/SafeMath.sol\":1746:1933  function sub(uint256 a, uint256 b, string memory errorMessage) internal pure returns (uint256) {... */\n      jump\t// out\n        /* \"@openzeppelin/contracts/math/SafeMath.sol\":874:1050  function add(uint256 a, uint256 b) internal pure returns (uint256) {... */\n    tag_216:\n        /* \"@openzeppelin/contracts/math/SafeMath.sol\":932:939  uint256 */\n      0x00\n        /* \"@openzeppelin/contracts/math/SafeMath.sol\":963:968  a + b */\n      dup3\n      dup3\n      add\n        /* \"@openzeppelin/contracts/math/SafeMath.sol\":986:992  c >= a */\n      dup4\n      dup2\n      lt\n      iszero\n        /* \"@openzeppelin/contracts/math/SafeMath.sol\":978:1024  require(c >= a, \"SafeMath: addition overflow\") */\n      tag_367\n      jumpi\n      0x40\n      dup1\n      mload\n      shl(0xe5, 0x461bcd)\n      dup2\n      mstore\n      0x20\n      0x04\n      dup3\n      add\n      mstore\n      0x1b\n      0x24\n      dup3\n      add\n      mstore\n      0x536166654d6174683a206164646974696f6e206f766572666c6f770000000000\n      0x44\n      dup3\n      add\n      mstore\n      swap1\n      mload\n      swap1\n      dup2\n      swap1\n      sub\n      0x64\n      add\n      swap1\n      revert\n        /* \"@openzeppelin/contracts/token/ERC20/ERC20.sol\":8524:8934  function _burn(address account, uint256 amount) internal virtual {... */\n    tag_225:\n      sub(shl(0xa0, 0x01), 0x01)\n        /* \"@openzeppelin/contracts/token/ERC20/ERC20.sol\":8607:8628  account != address(0) */\n      dup3\n      and\n        /* \"@openzeppelin/contracts/token/ERC20/ERC20.sol\":8599:8666  require(account != address(0), \"ERC20: burn from the zero address\") */\n      tag_503\n      jumpi\n      mload(0x40)\n      shl(0xe5, 0x461bcd)\n      dup2\n      mstore\n      0x04\n      add\n      dup1\n      dup1\n      0x20\n      add\n      dup3\n      dup2\n      sub\n      dup3\n      mstore\n      0x21\n      dup2\n      mstore\n      0x20\n      add\n      dup1\n      data_b16788493b576042bb52c50ed56189e0b250db113c7bfb1c3897d25cf9632d7f\n      0x21\n      swap2\n      codecopy\n      0x40\n      add\n      swap2\n      pop\n      pop\n      mload(0x40)\n      dup1\n      swap2\n      sub\n      swap1\n      revert\n    tag_503:\n        /* \"@openzeppelin/contracts/token/ERC20/ERC20.sol\":8677:8726  _beforeTokenTransfer(account, address(0), amount) */\n      tag_504\n        /* \"@openzeppelin/contracts/token/ERC20/ERC20.sol\":8698:8705  account */\n      dup3\n        /* \"@openzeppelin/contracts/token/ERC20/ERC20.sol\":8715:8716  0 */\n      0x00\n        /* \"@openzeppelin/contracts/token/ERC20/ERC20.sol\":8719:8725  amount */\n      dup4\n        /* \"@openzeppelin/contracts/token/ERC20/ERC20.sol\":8677:8697  _beforeTokenTransfer */\n      tag_529\n        /* \"@openzeppelin/contracts/token/ERC20/ERC20.sol\":8677:8726  _beforeTokenTransfer(account, address(0), amount) */\n      jump\t// in\n    tag_504:\n        /* \"@openzeppelin/contracts/token/ERC20/ERC20.sol\":8758:8826  _balances[account].sub(amount, \"ERC20: burn amount exceeds balance\") */\n      tag_505\n        /* \"@openzeppelin/contracts/token/ERC20/ERC20.sol\":8781:8787  amount */\n      dup2\n        /* \"@openzeppelin/contracts/token/ERC20/ERC20.sol\":8758:8826  _balances[account].sub(amount, \"ERC20: burn amount exceeds balance\") */\n      mload(0x40)\n      dup1\n      0x60\n      add\n      0x40\n      mstore\n      dup1\n      0x22\n      dup2\n      mstore\n      0x20\n      add\n      data_149b126e7125232b4200af45303d04fba8b74653b1a295a6a561a528c33fefdd\n      0x22\n      swap2\n      codecopy\n      sub(shl(0xa0, 0x01), 0x01)\n        /* \"@openzeppelin/contracts/token/ERC20/ERC20.sol\":8758:8776  _balances[account] */\n      dup6\n      and\n        /* \"@openzeppelin/contracts/token/ERC20/ERC20.sol\":8758:8767  _balances */\n      0x00\n        /* \"@openzeppelin/contracts/token/ERC20/ERC20.sol\":8758:8776  _balances[account] */\n      swap1\n      dup2\n      mstore\n      0x20\n      dup2\n      swap1\n      mstore\n      0x40\n      swap1\n      keccak256\n      sload\n      swap2\n        /* \"@openzeppelin/contracts/token/ERC20/ERC20.sol\":8758:8826  _balances[account].sub(amount, \"ERC20: burn amount exceeds balance\") */\n      swap1\n        /* \"@openzeppelin/contracts/token/ERC20/ERC20.sol\":8758:8780  _balances[account].sub */\n      tag_209\n        /* \"@openzeppelin/contracts/token/ERC20/ERC20.sol\":8758:8826  _balances[account].sub(amount, \"ERC20: burn amount exceeds balance\") */\n      jump\t// in\n    tag_505:\n      sub(shl(0xa0, 0x01), 0x01)\n        /* \"@openzeppelin/contracts/token/ERC20/ERC20.sol\":8737:8755  _balances[account] */\n      dup4\n      and\n        /* \"@openzeppelin/contracts/token/ERC20/ERC20.sol\":8737:8746  _balances */\n      0x00\n        /* \"@openzeppelin/contracts/token/ERC20/ERC20.sol\":8737:8755  _balances[account] */\n      swap1\n      dup2\n      mstore\n      0x20\n      dup2\n      swap1\n      mstore\n      0x40\n      swap1\n      keccak256\n        /* \"@openzeppelin/contracts/token/ERC20/ERC20.sol\":8737:8826  _balances[account] = _balances[account].sub(amount, \"ERC20: burn amount exceeds balance\") */\n      sstore\n        /* \"@openzeppelin/contracts/token/ERC20/ERC20.sol\":8851:8863  _totalSupply */\n      sload(0x02)\n        /* \"@openzeppelin/contracts/token/ERC20/ERC20.sol\":8851:8875  _totalSupply.sub(amount) */\n      tag_506\n      swap1\n        /* \"@openzeppelin/contracts/token/ERC20/ERC20.sol\":8868:8874  amount */\n      dup3\n        /* \"@openzeppelin/contracts/token/ERC20/ERC20.sol\":8851:8867  _totalSupply.sub */\n      tag_244\n        /* \"@openzeppelin/contracts/token/ERC20/ERC20.sol\":8851:8875  _totalSupply.sub(amount) */\n      jump\t// in\n    tag_506:\n        /* \"@openzeppelin/contracts/token/ERC20/ERC20.sol\":8836:8848  _totalSupply */\n      0x02\n        /* \"@openzeppelin/contracts/token/ERC20/ERC20.sol\":8836:8875  _totalSupply = _totalSupply.sub(amount) */\n      sstore\n        /* \"@openzeppelin/contracts/token/ERC20/ERC20.sol\":8890:8927  Transfer(account, address(0), amount) */\n      0x40\n      dup1\n      mload\n      dup3\n      dup2\n      mstore\n      swap1\n      mload\n        /* \"@openzeppelin/contracts/token/ERC20/ERC20.sol\":8916:8917  0 */\n      0x00\n      swap2\n      sub(shl(0xa0, 0x01), 0x01)\n        /* \"@openzeppelin/contracts/token/ERC20/ERC20.sol\":8890:8927  Transfer(account, address(0), amount) */\n      dup6\n      and\n      swap2\n      0xddf252ad1be2c89b69c2b068fc378daa952ba7f163c4a11628f55a4df523b3ef\n      swap2\n      dup2\n      swap1\n      sub\n      0x20\n      add\n      swap1\n      log3\n        /* \"@openzeppelin/contracts/token/ERC20/ERC20.sol\":8524:8934  function _burn(address account, uint256 amount) internal virtual {... */\n      pop\n      pop\n      jump\t// out\n        /* \"contracts/libraries/UniERC20.sol\":434:662  function uniBalanceOf(IERC20 token, address account) internal view returns (uint256) {... */\n    tag_232:\n        /* \"contracts/libraries/UniERC20.sol\":510:517  uint256 */\n      0x00\n        /* \"contracts/libraries/UniERC20.sol\":533:545  isETH(token) */\n      tag_508\n        /* \"contracts/libraries/UniERC20.sol\":539:544  token */\n      dup4\n        /* \"contracts/libraries/UniERC20.sol\":533:538  isETH */\n      tag_309\n        /* \"contracts/libraries/UniERC20.sol\":533:545  isETH(token) */\n      jump\t// in\n    tag_508:\n        /* \"contracts/libraries/UniERC20.sol\":529:656  if (isETH(token)) {... */\n      iszero\n      tag_509\n      jumpi\n      pop\n      sub(shl(0xa0, 0x01), 0x01)\n        /* \"contracts/libraries/UniERC20.sol\":568:583  account.balance */\n      dup2\n      and\n      balance\n        /* \"contracts/libraries/UniERC20.sol\":561:583  return account.balance */\n      jump(tag_191)\n        /* \"contracts/libraries/UniERC20.sol\":529:656  if (isETH(token)) {... */\n    tag_509:\n        /* \"contracts/libraries/UniERC20.sol\":621:626  token */\n      dup3\n      sub(shl(0xa0, 0x01), 0x01)\n        /* \"contracts/libraries/UniERC20.sol\":621:636  token.balanceOf */\n      and\n      0x70a08231\n        /* \"contracts/libraries/UniERC20.sol\":637:644  account */\n      dup4\n        /* \"contracts/libraries/UniERC20.sol\":621:645  token.balanceOf(account) */\n      mload(0x40)\n      dup3\n      0xffffffff\n      and\n      0xe0\n      shl\n      dup2\n      mstore\n      0x04\n      add\n      dup1\n      dup3\n      sub(shl(0xa0, 0x01), 0x01)\n      and\n      dup2\n      mstore\n      0x20\n      add\n      swap2\n      pop\n      pop\n      0x20\n      mload(0x40)\n      dup1\n      dup4\n      sub\n      dup2\n      dup7\n      dup1\n      extcodesize\n      iszero\n      dup1\n      iszero\n      tag_511\n      jumpi\n      0x00\n      dup1\n      revert\n    tag_511:\n      pop\n      gas\n      staticcall\n      iszero\n      dup1\n      iszero\n      tag_513\n      jumpi\n      returndatasize\n      0x00\n      dup1\n      returndatacopy\n      revert(0x00, returndatasize)\n    tag_513:\n      pop\n      pop\n      pop\n      pop\n      mload(0x40)\n      returndatasize\n      0x20\n      dup2\n      lt\n      iszero\n      tag_514\n      jumpi\n      0x00\n      dup1\n      revert\n    tag_514:\n      pop\n      mload\n      swap1\n      pop\n        /* \"contracts/libraries/UniERC20.sol\":614:645  return token.balanceOf(account) */\n      jump(tag_191)\n        /* \"@openzeppelin/contracts/math/SafeMath.sol\":2180:2639  function mul(uint256 a, uint256 b) internal pure returns (uint256) {... */\n    tag_235:\n        /* \"@openzeppelin/contracts/math/SafeMath.sol\":2238:2245  uint256 */\n      0x00\n        /* \"@openzeppelin/contracts/math/SafeMath.sol\":2479:2485  a == 0 */\n      dup3\n        /* \"@openzeppelin/contracts/math/SafeMath.sol\":2475:2520  if (a == 0) {... */\n      tag_516\n      jumpi\n      pop\n        /* \"@openzeppelin/contracts/math/SafeMath.sol\":2508:2509  0 */\n      0x00\n        /* \"@openzeppelin/contracts/math/SafeMath.sol\":2501:2509  return 0 */\n      jump(tag_191)\n        /* \"@openzeppelin/contracts/math/SafeMath.sol\":2475:2520  if (a == 0) {... */\n    tag_516:\n        /* \"@openzeppelin/contracts/math/SafeMath.sol\":2542:2547  a * b */\n      dup3\n      dup3\n      mul\n        /* \"@openzeppelin/contracts/math/SafeMath.sol\":2546:2547  b */\n      dup3\n        /* \"@openzeppelin/contracts/math/SafeMath.sol\":2542:2543  a */\n      dup5\n        /* \"@openzeppelin/contracts/math/SafeMath.sol\":2542:2547  a * b */\n      dup3\n        /* \"@openzeppelin/contracts/math/SafeMath.sol\":2542:2543  a */\n      dup2\n        /* \"@openzeppelin/contracts/math/SafeMath.sol\":2565:2570  c / a */\n      tag_517\n      jumpi\n      invalid\n    tag_517:\n      div\n        /* \"@openzeppelin/contracts/math/SafeMath.sol\":2565:2575  c / a == b */\n      eq\n        /* \"@openzeppelin/contracts/math/SafeMath.sol\":2557:2613  require(c / a == b, \"SafeMath: multiplication overflow\") */\n      tag_367\n      jumpi\n      mload(0x40)\n      shl(0xe5, 0x461bcd)\n      dup2\n      mstore\n      0x04\n      add\n      dup1\n      dup1\n      0x20\n      add\n      dup3\n      dup2\n      sub\n      dup3\n      mstore\n      0x21\n      dup2\n      mstore\n      0x20\n      add\n      dup1\n      data_9113bb53c2876a3805b2c9242029423fc540a728243ce887ab24c82cf119fba3\n      0x21\n      swap2\n      codecopy\n      0x40\n      add\n      swap2\n      pop\n      pop\n      mload(0x40)\n      dup1\n      swap2\n      sub\n      swap1\n      revert\n        /* \"@openzeppelin/contracts/math/SafeMath.sol\":3101:3231  function div(uint256 a, uint256 b) internal pure returns (uint256) {... */\n    tag_236:\n        /* \"@openzeppelin/contracts/math/SafeMath.sol\":3159:3166  uint256 */\n      0x00\n        /* \"@openzeppelin/contracts/math/SafeMath.sol\":3185:3224  div(a, b, \"SafeMath: division by zero\") */\n      tag_367\n        /* \"@openzeppelin/contracts/math/SafeMath.sol\":3189:3190  a */\n      dup4\n        /* \"@openzeppelin/contracts/math/SafeMath.sol\":3192:3193  b */\n      dup4\n        /* \"@openzeppelin/contracts/math/SafeMath.sol\":3185:3224  div(a, b, \"SafeMath: division by zero\") */\n      mload(0x40)\n      dup1\n      0x40\n      add\n      0x40\n      mstore\n      dup1\n      0x1a\n      dup2\n      mstore\n      0x20\n      add\n      0x536166654d6174683a206469766973696f6e206279207a65726f000000000000\n      dup2\n      mstore\n      pop\n        /* \"@openzeppelin/contracts/math/SafeMath.sol\":3185:3188  div */\n      tag_521\n        /* \"@openzeppelin/contracts/math/SafeMath.sol\":3185:3224  div(a, b, \"SafeMath: division by zero\") */\n      jump\t// in\n        /* \"contracts/libraries/UniERC20.sol\":668:943  function uniTransfer(IERC20 token, address payable to, uint256 amount) internal {... */\n    tag_238:\n        /* \"contracts/libraries/UniERC20.sol\":762:772  amount > 0 */\n      dup1\n      iszero\n        /* \"contracts/libraries/UniERC20.sol\":758:937  if (amount > 0) {... */\n      tag_529\n      jumpi\n        /* \"contracts/libraries/UniERC20.sol\":792:804  isETH(token) */\n      tag_524\n        /* \"contracts/libraries/UniERC20.sol\":798:803  token */\n      dup4\n        /* \"contracts/libraries/UniERC20.sol\":792:797  isETH */\n      tag_309\n        /* \"contracts/libraries/UniERC20.sol\":792:804  isETH(token) */\n      jump\t// in\n    tag_524:\n        /* \"contracts/libraries/UniERC20.sol\":788:927  if (isETH(token)) {... */\n      iszero\n      tag_525\n      jumpi\n        /* \"contracts/libraries/UniERC20.sol\":824:843  to.transfer(amount) */\n      mload(0x40)\n      sub(shl(0xa0, 0x01), 0x01)\n        /* \"contracts/libraries/UniERC20.sol\":824:835  to.transfer */\n      dup4\n      and\n      swap1\n        /* \"contracts/libraries/UniERC20.sol\":824:843  to.transfer(amount) */\n      dup3\n      iszero\n      0x08fc\n      mul\n      swap1\n        /* \"contracts/libraries/UniERC20.sol\":836:842  amount */\n      dup4\n      swap1\n        /* \"contracts/libraries/UniERC20.sol\":824:843  to.transfer(amount) */\n      0x00\n      dup2\n      dup2\n      dup2\n        /* \"contracts/libraries/UniERC20.sol\":836:842  amount */\n      dup6\n        /* \"contracts/libraries/UniERC20.sol\":824:835  to.transfer */\n      dup9\n        /* \"contracts/libraries/UniERC20.sol\":824:843  to.transfer(amount) */\n      dup9\n      call\n      swap4\n      pop\n      pop\n      pop\n      pop\n      iszero\n      dup1\n      iszero\n      tag_527\n      jumpi\n      returndatasize\n      0x00\n      dup1\n      returndatacopy\n      revert(0x00, returndatasize)\n    tag_527:\n      pop\n        /* \"contracts/libraries/UniERC20.sol\":788:927  if (isETH(token)) {... */\n      jump(tag_529)\n    tag_525:\n        /* \"contracts/libraries/UniERC20.sol\":882:912  token.safeTransfer(to, amount) */\n      tag_529\n      sub(shl(0xa0, 0x01), 0x01)\n        /* \"contracts/libraries/UniERC20.sol\":882:900  token.safeTransfer */\n      dup5\n      and\n        /* \"contracts/libraries/UniERC20.sol\":901:903  to */\n      dup4\n        /* \"contracts/libraries/UniERC20.sol\":905:911  amount */\n      dup4\n        /* \"contracts/libraries/UniERC20.sol\":882:900  token.safeTransfer */\n      tag_530\n        /* \"contracts/libraries/UniERC20.sol\":882:912  token.safeTransfer(to, amount) */\n      jump\t// in\n    tag_529:\n        /* \"contracts/libraries/UniERC20.sol\":668:943  function uniTransfer(IERC20 token, address payable to, uint256 amount) internal {... */\n      pop\n      pop\n      pop\n      jump\t// out\n        /* \"@openzeppelin/contracts/math/SafeMath.sol\":1321:1455  function sub(uint256 a, uint256 b) internal pure returns (uint256) {... */\n    tag_244:\n        /* \"@openzeppelin/contracts/math/SafeMath.sol\":1379:1386  uint256 */\n      0x00\n        /* \"@openzeppelin/contracts/math/SafeMath.sol\":1405:1448  sub(a, b, \"SafeMath: subtraction overflow\") */\n      tag_367\n        /* \"@openzeppelin/contracts/math/SafeMath.sol\":1409:1410  a */\n      dup4\n        /* \"@openzeppelin/contracts/math/SafeMath.sol\":1412:1413  b */\n      dup4\n        /* \"@openzeppelin/contracts/math/SafeMath.sol\":1405:1448  sub(a, b, \"SafeMath: subtraction overflow\") */\n      mload(0x40)\n      dup1\n      0x40\n      add\n      0x40\n      mstore\n      dup1\n      0x1e\n      dup2\n      mstore\n      0x20\n      add\n      0x536166654d6174683a207375627472616374696f6e206f766572666c6f770000\n      dup2\n      mstore\n      pop\n        /* \"@openzeppelin/contracts/math/SafeMath.sol\":1405:1408  sub */\n      tag_209\n        /* \"@openzeppelin/contracts/math/SafeMath.sol\":1405:1448  sub(a, b, \"SafeMath: subtraction overflow\") */\n      jump\t// in\n        /* \"contracts/Mooniswap.sol\":971:1170  function scale(VirtualBalance.Data storage self, uint256 realBalance, uint256 num, uint256 denom) internal {... */\n    tag_245:\n        /* \"contracts/Mooniswap.sol\":1088:1163  set(self, current(self, realBalance).mul(num).add(denom.sub(1)).div(denom)) */\n      tag_534\n        /* \"contracts/Mooniswap.sol\":1092:1096  self */\n      dup5\n        /* \"contracts/Mooniswap.sol\":1098:1162  current(self, realBalance).mul(num).add(denom.sub(1)).div(denom) */\n      tag_535\n        /* \"contracts/Mooniswap.sol\":1156:1161  denom */\n      dup4\n        /* \"contracts/Mooniswap.sol\":1098:1151  current(self, realBalance).mul(num).add(denom.sub(1)) */\n      tag_234\n        /* \"contracts/Mooniswap.sol\":1138:1150  denom.sub(1) */\n      tag_537\n        /* \"contracts/Mooniswap.sol\":1156:1161  denom */\n      dup3\n        /* \"contracts/Mooniswap.sol\":1148:1149  1 */\n      0x01\n        /* \"contracts/Mooniswap.sol\":1138:1147  denom.sub */\n      tag_244\n        /* \"contracts/Mooniswap.sol\":1138:1150  denom.sub(1) */\n      jump\t// in\n    tag_537:\n        /* \"contracts/Mooniswap.sol\":1098:1124  current(self, realBalance) */\n      0x40\n      dup1\n      mload\n      dup1\n      dup3\n      add\n      swap1\n      swap2\n      mstore\n      dup11\n      sload\n      sub(shl(0xd8, 0x01), 0x01)\n      dup2\n      and\n      dup3\n      mstore\n      shl(0xd8, 0x01)\n      swap1\n      div\n      0xffffffffff\n      and\n      0x20\n      dup3\n      add\n      mstore\n        /* \"contracts/Mooniswap.sol\":1098:1133  current(self, realBalance).mul(num) */\n      tag_435\n      swap1\n        /* \"contracts/Mooniswap.sol\":1129:1132  num */\n      dup10\n      swap1\n        /* \"contracts/Mooniswap.sol\":1098:1124  current(self, realBalance) */\n      tag_358\n      swap1\n        /* \"contracts/Mooniswap.sol\":1112:1123  realBalance */\n      dup13\n        /* \"contracts/Mooniswap.sol\":1098:1105  current */\n      tag_323\n        /* \"contracts/Mooniswap.sol\":1098:1124  current(self, realBalance) */\n      jump\t// in\n        /* \"contracts/Mooniswap.sol\":1098:1162  current(self, realBalance).mul(num).add(denom.sub(1)).div(denom) */\n    tag_535:\n        /* \"contracts/Mooniswap.sol\":1088:1091  set */\n      tag_339\n        /* \"contracts/Mooniswap.sol\":1088:1163  set(self, current(self, realBalance).mul(num).add(denom.sub(1)).div(denom)) */\n      jump\t// in\n    tag_534:\n        /* \"contracts/Mooniswap.sol\":971:1170  function scale(VirtualBalance.Data storage self, uint256 realBalance, uint256 num, uint256 denom) internal {... */\n      pop\n      pop\n      pop\n      pop\n      jump\t// out\n        /* \"contracts/libraries/UniERC20.sol\":317:428  function isETH(IERC20 token) internal pure returns(bool) {... */\n    tag_309:\n      sub(shl(0xa0, 0x01), 0x01)\n        /* \"contracts/libraries/UniERC20.sol\":392:420  address(token) == address(0) */\n      and\n      iszero\n      swap1\n        /* \"contracts/libraries/UniERC20.sol\":317:428  function isETH(IERC20 token) internal pure returns(bool) {... */\n      jump\t// out\n        /* \"contracts/Mooniswap.sol\":1176:1556  function current(VirtualBalance.Data memory self, uint256 realBalance) internal view returns(uint256) {... */\n    tag_323:\n        /* \"contracts/Mooniswap.sol\":1269:1276  uint256 */\n      0x00\n        /* \"contracts/Mooniswap.sol\":1288:1306  uint256 timePassed */\n      dup1\n        /* \"contracts/Mooniswap.sol\":1309:1363  Math.min(DECAY_PERIOD, block.timestamp.sub(self.time)) */\n      tag_542\n        /* \"contracts/Mooniswap.sol\":643:652  5 minutes */\n      0x012c\n        /* \"contracts/Mooniswap.sol\":1332:1362  block.timestamp.sub(self.time) */\n      tag_423\n        /* \"contracts/Mooniswap.sol\":1352:1356  self */\n      dup7\n        /* \"contracts/Mooniswap.sol\":1352:1361  self.time */\n      0x20\n      add\n      mload\n        /* \"contracts/Mooniswap.sol\":1332:1362  block.timestamp.sub(self.time) */\n      0xffffffffff\n      and\n        /* \"contracts/Mooniswap.sol\":1332:1347  block.timestamp */\n      timestamp\n        /* \"contracts/Mooniswap.sol\":1332:1351  block.timestamp.sub */\n      tag_244\n      swap1\n        /* \"contracts/Mooniswap.sol\":1332:1362  block.timestamp.sub(self.time) */\n      swap2\n      swap1\n      0xffffffff\n      and\n      jump\t// in\n        /* \"contracts/Mooniswap.sol\":1309:1363  Math.min(DECAY_PERIOD, block.timestamp.sub(self.time)) */\n    tag_542:\n        /* \"contracts/Mooniswap.sol\":1288:1363  uint256 timePassed = Math.min(DECAY_PERIOD, block.timestamp.sub(self.time)) */\n      swap1\n      pop\n        /* \"contracts/Mooniswap.sol\":1373:1391  uint256 timeRemain */\n      0x00\n        /* \"contracts/Mooniswap.sol\":1394:1422  DECAY_PERIOD.sub(timePassed) */\n      tag_544\n        /* \"contracts/Mooniswap.sol\":643:652  5 minutes */\n      0x012c\n        /* \"contracts/Mooniswap.sol\":1288:1363  uint256 timePassed = Math.min(DECAY_PERIOD, block.timestamp.sub(self.time)) */\n      dup4\n        /* \"contracts/Mooniswap.sol\":1394:1410  DECAY_PERIOD.sub */\n      tag_244\n        /* \"contracts/Mooniswap.sol\":1394:1422  DECAY_PERIOD.sub(timePassed) */\n      jump\t// in\n    tag_544:\n        /* \"contracts/Mooniswap.sol\":1373:1422  uint256 timeRemain = DECAY_PERIOD.sub(timePassed) */\n      swap1\n      pop\n        /* \"contracts/Mooniswap.sol\":1439:1549  uint256(self.balance).mul(timeRemain).add(... */\n      tag_479\n        /* \"contracts/Mooniswap.sol\":643:652  5 minutes */\n      0x012c\n        /* \"contracts/Mooniswap.sol\":1439:1531  uint256(self.balance).mul(timeRemain).add(... */\n      tag_234\n        /* \"contracts/Mooniswap.sol\":1494:1521  realBalance.mul(timePassed) */\n      tag_547\n        /* \"contracts/Mooniswap.sol\":1494:1505  realBalance */\n      dup8\n        /* \"contracts/Mooniswap.sol\":1510:1520  timePassed */\n      dup7\n        /* \"contracts/Mooniswap.sol\":1494:1509  realBalance.mul */\n      tag_235\n        /* \"contracts/Mooniswap.sol\":1494:1521  realBalance.mul(timePassed) */\n      jump\t// in\n    tag_547:\n        /* \"contracts/Mooniswap.sol\":1447:1459  self.balance */\n      dup9\n      mload\n        /* \"contracts/Mooniswap.sol\":1439:1476  uint256(self.balance).mul(timeRemain) */\n      tag_435\n      swap1\n      sub(shl(0xd8, 0x01), 0x01)\n        /* \"contracts/Mooniswap.sol\":1439:1460  uint256(self.balance) */\n      and\n        /* \"contracts/Mooniswap.sol\":1465:1475  timeRemain */\n      dup7\n        /* \"contracts/Mooniswap.sol\":1439:1464  uint256(self.balance).mul */\n      tag_235\n        /* \"contracts/Mooniswap.sol\":1439:1476  uint256(self.balance).mul(timeRemain) */\n      jump\t// in\n        /* \"@openzeppelin/contracts/math/Math.sol\":215:320  function max(uint256 a, uint256 b) internal pure returns (uint256) {... */\n    tag_324:\n        /* \"@openzeppelin/contracts/math/Math.sol\":273:280  uint256 */\n      0x00\n        /* \"@openzeppelin/contracts/math/Math.sol\":304:305  b */\n      dup2\n        /* \"@openzeppelin/contracts/math/Math.sol\":299:300  a */\n      dup4\n        /* \"@openzeppelin/contracts/math/Math.sol\":299:305  a >= b */\n      lt\n      iszero\n        /* \"@openzeppelin/contracts/math/Math.sol\":299:313  a >= b ? a : b */\n      tag_550\n      jumpi\n        /* \"@openzeppelin/contracts/math/Math.sol\":312:313  b */\n      dup2\n        /* \"@openzeppelin/contracts/math/Math.sol\":299:313  a >= b ? a : b */\n      jump(tag_367)\n    tag_550:\n      pop\n        /* \"@openzeppelin/contracts/math/Math.sol\":308:309  a */\n      swap1\n      swap2\n        /* \"@openzeppelin/contracts/math/Math.sol\":215:320  function max(uint256 a, uint256 b) internal pure returns (uint256) {... */\n      swap1\n      pop\n      jump\t// out\n        /* \"@openzeppelin/contracts/math/Math.sol\":391:495  function min(uint256 a, uint256 b) internal pure returns (uint256) {... */\n    tag_327:\n        /* \"@openzeppelin/contracts/math/Math.sol\":449:456  uint256 */\n      0x00\n        /* \"@openzeppelin/contracts/math/Math.sol\":479:480  b */\n      dup2\n        /* \"@openzeppelin/contracts/math/Math.sol\":475:476  a */\n      dup4\n        /* \"@openzeppelin/contracts/math/Math.sol\":475:480  a < b */\n      lt\n        /* \"@openzeppelin/contracts/math/Math.sol\":475:488  a < b ? a : b */\n      tag_550\n      jumpi\n        /* \"@openzeppelin/contracts/math/Math.sol\":487:488  b */\n      dup2\n        /* \"@openzeppelin/contracts/math/Math.sol\":475:488  a < b ? a : b */\n      jump(tag_367)\n        /* \"contracts/libraries/UniERC20.sol\":949:1459  function uniTransferFromSenderToThis(IERC20 token, uint256 amount) internal {... */\n    tag_329:\n        /* \"contracts/libraries/UniERC20.sol\":1039:1049  amount > 0 */\n      dup1\n      iszero\n        /* \"contracts/libraries/UniERC20.sol\":1035:1453  if (amount > 0) {... */\n      tag_289\n      jumpi\n        /* \"contracts/libraries/UniERC20.sol\":1069:1081  isETH(token) */\n      tag_557\n        /* \"contracts/libraries/UniERC20.sol\":1075:1080  token */\n      dup3\n        /* \"contracts/libraries/UniERC20.sol\":1069:1074  isETH */\n      tag_309\n        /* \"contracts/libraries/UniERC20.sol\":1069:1081  isETH(token) */\n      jump\t// in\n    tag_557:\n        /* \"contracts/libraries/UniERC20.sol\":1065:1443  if (isETH(token)) {... */\n      iszero\n      tag_558\n      jumpi\n        /* \"contracts/libraries/UniERC20.sol\":1122:1128  amount */\n      dup1\n        /* \"contracts/libraries/UniERC20.sol\":1109:1118  msg.value */\n      callvalue\n        /* \"contracts/libraries/UniERC20.sol\":1109:1128  msg.value >= amount */\n      lt\n      iszero\n        /* \"contracts/libraries/UniERC20.sol\":1101:1159  require(msg.value >= amount, \"UniERC20: not enough value\") */\n      tag_559\n      jumpi\n      0x40\n      dup1\n      mload\n      shl(0xe5, 0x461bcd)\n      dup2\n      mstore\n      0x20\n      0x04\n      dup3\n      add\n      mstore\n      0x1a\n      0x24\n      dup3\n      add\n      mstore\n      0x556e6945524332303a206e6f7420656e6f7567682076616c7565000000000000\n      0x44\n      dup3\n      add\n      mstore\n      swap1\n      mload\n      swap1\n      dup2\n      swap1\n      sub\n      0x64\n      add\n      swap1\n      revert\n    tag_559:\n        /* \"contracts/libraries/UniERC20.sol\":1193:1199  amount */\n      dup1\n        /* \"contracts/libraries/UniERC20.sol\":1181:1190  msg.value */\n      callvalue\n        /* \"contracts/libraries/UniERC20.sol\":1181:1199  msg.value > amount */\n      gt\n        /* \"contracts/libraries/UniERC20.sol\":1177:1333  if (msg.value > amount) {... */\n      iszero\n      tag_560\n      jumpi\n        /* \"contracts/libraries/UniERC20.sol\":1272:1282  msg.sender */\n      caller\n        /* \"contracts/libraries/UniERC20.sol\":1272:1314  msg.sender.transfer(msg.value.sub(amount)) */\n      0x08fc\n        /* \"contracts/libraries/UniERC20.sol\":1292:1313  msg.value.sub(amount) */\n      tag_561\n        /* \"contracts/libraries/UniERC20.sol\":1292:1301  msg.value */\n      callvalue\n        /* \"contracts/libraries/UniERC20.sol\":1306:1312  amount */\n      dup5\n        /* \"contracts/libraries/UniERC20.sol\":1292:1305  msg.value.sub */\n      tag_244\n        /* \"contracts/libraries/UniERC20.sol\":1292:1313  msg.value.sub(amount) */\n      jump\t// in\n    tag_561:\n        /* \"contracts/libraries/UniERC20.sol\":1272:1314  msg.sender.transfer(msg.value.sub(amount)) */\n      mload(0x40)\n      dup2\n      iszero\n      swap1\n      swap3\n      mul\n      swap2\n      0x00\n      dup2\n      dup2\n      dup2\n      dup6\n      dup9\n      dup9\n      call\n      swap4\n      pop\n      pop\n      pop\n      pop\n      iszero\n      dup1\n      iszero\n      tag_563\n      jumpi\n      returndatasize\n      0x00\n      dup1\n      returndatacopy\n      revert(0x00, returndatasize)\n    tag_563:\n      pop\n        /* \"contracts/libraries/UniERC20.sol\":1177:1333  if (msg.value > amount) {... */\n    tag_560:\n        /* \"contracts/libraries/UniERC20.sol\":1065:1443  if (isETH(token)) {... */\n      jump(tag_289)\n    tag_558:\n        /* \"contracts/libraries/UniERC20.sol\":1371:1428  token.safeTransferFrom(msg.sender, address(this), amount) */\n      tag_289\n      sub(shl(0xa0, 0x01), 0x01)\n        /* \"contracts/libraries/UniERC20.sol\":1371:1393  token.safeTransferFrom */\n      dup4\n      and\n        /* \"contracts/libraries/UniERC20.sol\":1394:1404  msg.sender */\n      caller\n        /* \"contracts/libraries/UniERC20.sol\":1414:1418  this */\n      address\n        /* \"contracts/libraries/UniERC20.sol\":1421:1427  amount */\n      dup5\n        /* \"contracts/libraries/UniERC20.sol\":1371:1393  token.safeTransferFrom */\n      tag_566\n        /* \"contracts/libraries/UniERC20.sol\":1371:1428  token.safeTransferFrom(msg.sender, address(this), amount) */\n      jump\t// in\n        /* \"contracts/Mooniswap.sol\":659:825  function set(VirtualBalance.Data storage self, uint256 balance) internal {... */\n    tag_339:\n        /* \"contracts/Mooniswap.sol\":742:773  self.balance = uint216(balance) */\n      dup2\n      sload\n      not(sub(shl(0xd8, 0x01), 0x01))\n      and\n      sub(shl(0xd8, 0x01), 0x01)\n      swap2\n      dup3\n      and\n      or\n        /* \"contracts/Mooniswap.sol\":783:818  self.time = uint40(block.timestamp) */\n      and\n      shl(0xd8, 0x01)\n        /* \"contracts/Mooniswap.sol\":802:817  block.timestamp */\n      timestamp\n        /* \"contracts/Mooniswap.sol\":783:818  self.time = uint40(block.timestamp) */\n      0xffffffffff\n      and\n      mul\n      or\n      swap1\n      sstore\n        /* \"contracts/Mooniswap.sol\":659:825  function set(VirtualBalance.Data storage self, uint256 balance) internal {... */\n      jump\t// out\n        /* \"contracts/Mooniswap.sol\":831:965  function update(VirtualBalance.Data storage self, uint256 realBalance) internal {... */\n    tag_344:\n        /* \"contracts/Mooniswap.sol\":931:957  current(self, realBalance) */\n      0x40\n      dup1\n      mload\n      dup1\n      dup3\n      add\n      swap1\n      swap2\n      mstore\n      dup3\n      sload\n      sub(shl(0xd8, 0x01), 0x01)\n      dup2\n      and\n      dup3\n      mstore\n      shl(0xd8, 0x01)\n      swap1\n      div\n      0xffffffffff\n      and\n      0x20\n      dup3\n      add\n      mstore\n        /* \"contracts/Mooniswap.sol\":921:958  set(self, current(self, realBalance)) */\n      tag_289\n      swap1\n        /* \"contracts/Mooniswap.sol\":931:957  current(self, realBalance) */\n      dup4\n      swap1\n      tag_535\n      swap1\n        /* \"contracts/Mooniswap.sol\":945:956  realBalance */\n      dup5\n        /* \"contracts/Mooniswap.sol\":931:938  current */\n      tag_323\n        /* \"contracts/Mooniswap.sol\":931:957  current(self, realBalance) */\n      jump\t// in\n        /* \"contracts/libraries/Sqrt.sol\":187:558  function sqrt(uint256 y) internal pure returns (uint256) {... */\n    tag_360:\n        /* \"contracts/libraries/Sqrt.sol\":235:242  uint256 */\n      0x00\n        /* \"contracts/libraries/Sqrt.sol\":262:263  3 */\n      0x03\n        /* \"contracts/libraries/Sqrt.sol\":258:259  y */\n      dup3\n        /* \"contracts/libraries/Sqrt.sol\":258:263  y > 3 */\n      gt\n        /* \"contracts/libraries/Sqrt.sol\":254:552  if (y > 3) {... */\n      iszero\n      tag_572\n      jumpi\n        /* \"contracts/libraries/Sqrt.sol\":291:292  y */\n      dup2\n        /* \"contracts/libraries/Sqrt.sol\":326:327  1 */\n      0x01\n        /* \"contracts/libraries/Sqrt.sol\":322:323  2 */\n      0x02\n        /* \"contracts/libraries/Sqrt.sol\":318:323  y / 2 */\n      dup3\n      div\n        /* \"contracts/libraries/Sqrt.sol\":318:327  y / 2 + 1 */\n      add\n        /* \"contracts/libraries/Sqrt.sol\":341:430  while (x < z) {... */\n    tag_574:\n        /* \"contracts/libraries/Sqrt.sol\":352:353  z */\n      dup2\n        /* \"contracts/libraries/Sqrt.sol\":348:349  x */\n      dup2\n        /* \"contracts/libraries/Sqrt.sol\":348:353  x < z */\n      lt\n        /* \"contracts/libraries/Sqrt.sol\":341:430  while (x < z) {... */\n      iszero\n      tag_575\n      jumpi\n        /* \"contracts/libraries/Sqrt.sol\":377:378  x */\n      dup1\n        /* \"contracts/libraries/Sqrt.sol\":373:378  z = x */\n      swap2\n      pop\n        /* \"contracts/libraries/Sqrt.sol\":414:415  2 */\n      0x02\n        /* \"contracts/libraries/Sqrt.sol\":409:410  x */\n      dup2\n        /* \"contracts/libraries/Sqrt.sol\":405:406  x */\n      dup3\n        /* \"contracts/libraries/Sqrt.sol\":401:402  y */\n      dup7\n        /* \"contracts/libraries/Sqrt.sol\":401:406  y / x */\n      dup2\n      tag_576\n      jumpi\n      invalid\n    tag_576:\n      div\n        /* \"contracts/libraries/Sqrt.sol\":401:410  y / x + x */\n      add\n        /* \"contracts/libraries/Sqrt.sol\":400:415  (y / x + x) / 2 */\n      dup2\n      tag_577\n      jumpi\n      invalid\n    tag_577:\n      div\n        /* \"contracts/libraries/Sqrt.sol\":396:415  x = (y / x + x) / 2 */\n      swap1\n      pop\n        /* \"contracts/libraries/Sqrt.sol\":341:430  while (x < z) {... */\n      jump(tag_574)\n    tag_575:\n      pop\n        /* \"contracts/libraries/Sqrt.sol\":450:451  z */\n      swap1\n      pop\n        /* \"contracts/libraries/Sqrt.sol\":443:451  return z */\n      jump(tag_248)\n        /* \"contracts/libraries/Sqrt.sol\":254:552  if (y > 3) {... */\n    tag_572:\n        /* \"contracts/libraries/Sqrt.sol\":472:478  y != 0 */\n      dup2\n      iszero\n        /* \"contracts/libraries/Sqrt.sol\":468:552  if (y != 0) {... */\n      tag_579\n      jumpi\n      pop\n        /* \"contracts/libraries/Sqrt.sol\":501:502  1 */\n      0x01\n        /* \"contracts/libraries/Sqrt.sol\":494:502  return 1 */\n      jump(tag_248)\n        /* \"contracts/libraries/Sqrt.sol\":468:552  if (y != 0) {... */\n    tag_579:\n      pop\n        /* \"contracts/libraries/Sqrt.sol\":540:541  0 */\n      0x00\n        /* \"contracts/libraries/Sqrt.sol\":533:541  return 0 */\n      jump(tag_248)\n        /* \"@openzeppelin/contracts/token/ERC20/ERC20.sol\":7835:8205  function _mint(address account, uint256 amount) internal virtual {... */\n    tag_363:\n      sub(shl(0xa0, 0x01), 0x01)\n        /* \"@openzeppelin/contracts/token/ERC20/ERC20.sol\":7918:7939  account != address(0) */\n      dup3\n      and\n        /* \"@openzeppelin/contracts/token/ERC20/ERC20.sol\":7910:7975  require(account != address(0), \"ERC20: mint to the zero address\") */\n      tag_582\n      jumpi\n      0x40\n      dup1\n      mload\n      shl(0xe5, 0x461bcd)\n      dup2\n      mstore\n      0x20\n      0x04\n      dup3\n      add\n      mstore\n      0x1f\n      0x24\n      dup3\n      add\n      mstore\n      0x45524332303a206d696e7420746f20746865207a65726f206164647265737300\n      0x44\n      dup3\n      add\n      mstore\n      swap1\n      mload\n      swap1\n      dup2\n      swap1\n      sub\n      0x64\n      add\n      swap1\n      revert\n    tag_582:\n        /* \"@openzeppelin/contracts/token/ERC20/ERC20.sol\":7986:8035  _beforeTokenTransfer(address(0), account, amount) */\n      tag_583\n        /* \"@openzeppelin/contracts/token/ERC20/ERC20.sol\":8015:8016  0 */\n      0x00\n        /* \"@openzeppelin/contracts/token/ERC20/ERC20.sol\":8019:8026  account */\n      dup4\n        /* \"@openzeppelin/contracts/token/ERC20/ERC20.sol\":8028:8034  amount */\n      dup4\n        /* \"@openzeppelin/contracts/token/ERC20/ERC20.sol\":7986:8006  _beforeTokenTransfer */\n      tag_529\n        /* \"@openzeppelin/contracts/token/ERC20/ERC20.sol\":7986:8035  _beforeTokenTransfer(address(0), account, amount) */\n      jump\t// in\n    tag_583:\n        /* \"@openzeppelin/contracts/token/ERC20/ERC20.sol\":8061:8073  _totalSupply */\n      sload(0x02)\n        /* \"@openzeppelin/contracts/token/ERC20/ERC20.sol\":8061:8085  _totalSupply.add(amount) */\n      tag_584\n      swap1\n        /* \"@openzeppelin/contracts/token/ERC20/ERC20.sol\":8078:8084  amount */\n      dup3\n        /* \"@openzeppelin/contracts/token/ERC20/ERC20.sol\":8061:8077  _totalSupply.add */\n      tag_216\n        /* \"@openzeppelin/contracts/token/ERC20/ERC20.sol\":8061:8085  _totalSupply.add(amount) */\n      jump\t// in\n    tag_584:\n        /* \"@openzeppelin/contracts/token/ERC20/ERC20.sol\":8046:8058  _totalSupply */\n      0x02\n        /* \"@openzeppelin/contracts/token/ERC20/ERC20.sol\":8046:8085  _totalSupply = _totalSupply.add(amount) */\n      sstore\n      sub(shl(0xa0, 0x01), 0x01)\n        /* \"@openzeppelin/contracts/token/ERC20/ERC20.sol\":8116:8134  _balances[account] */\n      dup3\n      and\n        /* \"@openzeppelin/contracts/token/ERC20/ERC20.sol\":8116:8125  _balances */\n      0x00\n        /* \"@openzeppelin/contracts/token/ERC20/ERC20.sol\":8116:8134  _balances[account] */\n      swap1\n      dup2\n      mstore\n      0x20\n      dup2\n      swap1\n      mstore\n      0x40\n      swap1\n      keccak256\n      sload\n        /* \"@openzeppelin/contracts/token/ERC20/ERC20.sol\":8116:8146  _balances[account].add(amount) */\n      tag_585\n      swap1\n        /* \"@openzeppelin/contracts/token/ERC20/ERC20.sol\":8139:8145  amount */\n      dup3\n        /* \"@openzeppelin/contracts/token/ERC20/ERC20.sol\":8116:8138  _balances[account].add */\n      tag_216\n        /* \"@openzeppelin/contracts/token/ERC20/ERC20.sol\":8116:8146  _balances[account].add(amount) */\n      jump\t// in\n    tag_585:\n      sub(shl(0xa0, 0x01), 0x01)\n        /* \"@openzeppelin/contracts/token/ERC20/ERC20.sol\":8095:8113  _balances[account] */\n      dup4\n      and\n        /* \"@openzeppelin/contracts/token/ERC20/ERC20.sol\":8095:8104  _balances */\n      0x00\n        /* \"@openzeppelin/contracts/token/ERC20/ERC20.sol\":8095:8113  _balances[account] */\n      dup2\n      dup2\n      mstore\n      0x20\n      dup2\n      dup2\n      mstore\n      0x40\n      dup1\n      dup4\n      keccak256\n        /* \"@openzeppelin/contracts/token/ERC20/ERC20.sol\":8095:8146  _balances[account] = _balances[account].add(amount) */\n      swap5\n      swap1\n      swap5\n      sstore\n        /* \"@openzeppelin/contracts/token/ERC20/ERC20.sol\":8161:8198  Transfer(address(0), account, amount) */\n      dup4\n      mload\n      dup6\n      dup2\n      mstore\n      swap4\n      mload\n        /* \"@openzeppelin/contracts/token/ERC20/ERC20.sol\":8095:8113  _balances[account] */\n      swap3\n      swap4\n        /* \"@openzeppelin/contracts/token/ERC20/ERC20.sol\":8095:8104  _balances */\n      swap2\n      swap3\n        /* \"@openzeppelin/contracts/token/ERC20/ERC20.sol\":8161:8198  Transfer(address(0), account, amount) */\n      0xddf252ad1be2c89b69c2b068fc378daa952ba7f163c4a11628f55a4df523b3ef\n      swap3\n      dup2\n      swap1\n      sub\n      swap1\n      swap2\n      add\n      swap1\n      log3\n        /* \"@openzeppelin/contracts/token/ERC20/ERC20.sol\":7835:8205  function _mint(address account, uint256 amount) internal virtual {... */\n      pop\n      pop\n      jump\t// out\n        /* \"@openzeppelin/contracts/math/SafeMath.sol\":3713:3985  function div(uint256 a, uint256 b, string memory errorMessage) internal pure returns (uint256) {... */\n    tag_521:\n        /* \"@openzeppelin/contracts/math/SafeMath.sol\":3799:3806  uint256 */\n      0x00\n        /* \"@openzeppelin/contracts/math/SafeMath.sol\":3833:3845  errorMessage */\n      dup2\n        /* \"@openzeppelin/contracts/math/SafeMath.sol\":3826:3831  b > 0 */\n      dup4\n        /* \"@openzeppelin/contracts/math/SafeMath.sol\":3818:3846  require(b > 0, errorMessage) */\n      tag_588\n      jumpi\n      mload(0x40)\n      shl(0xe5, 0x461bcd)\n      dup2\n      mstore\n      0x20\n      0x04\n      dup3\n      add\n      dup2\n      dup2\n      mstore\n      dup4\n      mload\n      0x24\n      dup5\n      add\n      mstore\n      dup4\n      mload\n      swap1\n      swap3\n      dup4\n      swap3\n      0x44\n      swap1\n      swap2\n      add\n      swap2\n      swap1\n      dup6\n      add\n      swap1\n      dup1\n      dup4\n      dup4\n      0x00\n      dup4\n      iszero\n      tag_498\n      jumpi\n      dup2\n      dup2\n      add\n      mload\n      dup4\n      dup3\n      add\n      mstore\n      0x20\n      add\n      jump(tag_496)\n    tag_588:\n      pop\n        /* \"@openzeppelin/contracts/math/SafeMath.sol\":3856:3865  uint256 c */\n      0x00\n        /* \"@openzeppelin/contracts/math/SafeMath.sol\":3872:3873  b */\n      dup4\n        /* \"@openzeppelin/contracts/math/SafeMath.sol\":3868:3869  a */\n      dup6\n        /* \"@openzeppelin/contracts/math/SafeMath.sol\":3868:3873  a / b */\n      dup2\n      tag_593\n      jumpi\n      invalid\n    tag_593:\n      div\n      swap6\n        /* \"@openzeppelin/contracts/math/SafeMath.sol\":3713:3985  function div(uint256 a, uint256 b, string memory errorMessage) internal pure returns (uint256) {... */\n      swap5\n      pop\n      pop\n      pop\n      pop\n      pop\n      jump\t// out\n        /* \"@openzeppelin/contracts/token/ERC20/SafeERC20.sol\":696:871  function safeTransfer(IERC20 token, address to, uint256 value) internal {... */\n    tag_530:\n        /* \"@openzeppelin/contracts/token/ERC20/SafeERC20.sol\":805:863  abi.encodeWithSelector(token.transfer.selector, to, value) */\n      0x40\n      dup1\n      mload\n      sub(shl(0xa0, 0x01), 0x01)\n      dup5\n      and\n      0x24\n      dup3\n      add\n      mstore\n      0x44\n      dup1\n      dup3\n      add\n      dup5\n      swap1\n      mstore\n      dup3\n      mload\n      dup1\n      dup4\n      sub\n      swap1\n      swap2\n      add\n      dup2\n      mstore\n      0x64\n      swap1\n      swap2\n      add\n      swap1\n      swap2\n      mstore\n      0x20\n      dup2\n      add\n      dup1\n      mload\n      sub(shl(0xe0, 0x01), 0x01)\n      and\n      shl(0xe0, 0xa9059cbb)\n      or\n      swap1\n      mstore\n        /* \"@openzeppelin/contracts/token/ERC20/SafeERC20.sol\":778:864  _callOptionalReturn(token, abi.encodeWithSelector(token.transfer.selector, to, value)) */\n      tag_529\n      swap1\n        /* \"@openzeppelin/contracts/token/ERC20/SafeERC20.sol\":798:803  token */\n      dup5\n      swap1\n        /* \"@openzeppelin/contracts/token/ERC20/SafeERC20.sol\":778:797  _callOptionalReturn */\n      tag_596\n        /* \"@openzeppelin/contracts/token/ERC20/SafeERC20.sol\":778:864  _callOptionalReturn(token, abi.encodeWithSelector(token.transfer.selector, to, value)) */\n      jump\t// in\n        /* \"@openzeppelin/contracts/token/ERC20/SafeERC20.sol\":877:1080  function safeTransferFrom(IERC20 token, address from, address to, uint256 value) internal {... */\n    tag_566:\n        /* \"@openzeppelin/contracts/token/ERC20/SafeERC20.sol\":1004:1072  abi.encodeWithSelector(token.transferFrom.selector, from, to, value) */\n      0x40\n      dup1\n      mload\n      sub(shl(0xa0, 0x01), 0x01)\n      dup1\n      dup7\n      and\n      0x24\n      dup4\n      add\n      mstore\n      dup5\n      and\n      0x44\n      dup3\n      add\n      mstore\n      0x64\n      dup1\n      dup3\n      add\n      dup5\n      swap1\n      mstore\n      dup3\n      mload\n      dup1\n      dup4\n      sub\n      swap1\n      swap2\n      add\n      dup2\n      mstore\n      0x84\n      swap1\n      swap2\n      add\n      swap1\n      swap2\n      mstore\n      0x20\n      dup2\n      add\n      dup1\n      mload\n      sub(shl(0xe0, 0x01), 0x01)\n      and\n      shl(0xe0, 0x23b872dd)\n      or\n      swap1\n      mstore\n        /* \"@openzeppelin/contracts/token/ERC20/SafeERC20.sol\":977:1073  _callOptionalReturn(token, abi.encodeWithSelector(token.transferFrom.selector, from, to, value)) */\n      tag_534\n      swap1\n        /* \"@openzeppelin/contracts/token/ERC20/SafeERC20.sol\":997:1002  token */\n      dup6\n      swap1\n        /* \"@openzeppelin/contracts/token/ERC20/SafeERC20.sol\":2959:3710  function _callOptionalReturn(IERC20 token, bytes memory data) private {... */\n    tag_596:\n        /* \"@openzeppelin/contracts/token/ERC20/SafeERC20.sol\":3378:3401  bytes memory returndata */\n      0x60\n        /* \"@openzeppelin/contracts/token/ERC20/SafeERC20.sol\":3404:3473  address(token).functionCall(data, \"SafeERC20: low-level call failed\") */\n      tag_600\n        /* \"@openzeppelin/contracts/token/ERC20/SafeERC20.sol\":3432:3436  data */\n      dup3\n        /* \"@openzeppelin/contracts/token/ERC20/SafeERC20.sol\":3404:3473  address(token).functionCall(data, \"SafeERC20: low-level call failed\") */\n      mload(0x40)\n      dup1\n      0x40\n      add\n      0x40\n      mstore\n      dup1\n      0x20\n      dup2\n      mstore\n      0x20\n      add\n      0x5361666545524332303a206c6f772d6c6576656c2063616c6c206661696c6564\n      dup2\n      mstore\n      pop\n        /* \"@openzeppelin/contracts/token/ERC20/SafeERC20.sol\":3412:3417  token */\n      dup6\n      sub(shl(0xa0, 0x01), 0x01)\n        /* \"@openzeppelin/contracts/token/ERC20/SafeERC20.sol\":3404:3431  address(token).functionCall */\n      and\n      tag_601\n      swap1\n        /* \"@openzeppelin/contracts/token/ERC20/SafeERC20.sol\":3404:3473  address(token).functionCall(data, \"SafeERC20: low-level call failed\") */\n      swap3\n      swap2\n      swap1\n      0xffffffff\n      and\n      jump\t// in\n    tag_600:\n        /* \"@openzeppelin/contracts/token/ERC20/SafeERC20.sol\":3487:3504  returndata.length */\n      dup1\n      mload\n        /* \"@openzeppelin/contracts/token/ERC20/SafeERC20.sol\":3378:3473  bytes memory returndata = address(token).functionCall(data, \"SafeERC20: low-level call failed\") */\n      swap1\n      swap2\n      pop\n        /* \"@openzeppelin/contracts/token/ERC20/SafeERC20.sol\":3487:3508  returndata.length > 0 */\n      iszero\n        /* \"@openzeppelin/contracts/token/ERC20/SafeERC20.sol\":3483:3704  if (returndata.length > 0) { // Return data is optional... */\n      tag_529\n      jumpi\n        /* \"@openzeppelin/contracts/token/ERC20/SafeERC20.sol\":3627:3637  returndata */\n      dup1\n        /* \"@openzeppelin/contracts/token/ERC20/SafeERC20.sol\":3616:3646  abi.decode(returndata, (bool)) */\n      dup1\n      0x20\n      add\n      swap1\n      mload\n      0x20\n      dup2\n      lt\n      iszero\n      tag_603\n      jumpi\n      0x00\n      dup1\n      revert\n    tag_603:\n      pop\n      mload\n        /* \"@openzeppelin/contracts/token/ERC20/SafeERC20.sol\":3608:3693  require(abi.decode(returndata, (bool)), \"SafeERC20: ERC20 operation did not succeed\") */\n      tag_529\n      jumpi\n      mload(0x40)\n      shl(0xe5, 0x461bcd)\n      dup2\n      mstore\n      0x04\n      add\n      dup1\n      dup1\n      0x20\n      add\n      dup3\n      dup2\n      sub\n      dup3\n      mstore\n      0x2a\n      dup2\n      mstore\n      0x20\n      add\n      dup1\n      data_e11ad79d1e4a7f2e5f376964cb99e8e8f7904e3fc16a109f7a7ecb9aa7956dcd\n      0x2a\n      swap2\n      codecopy\n      0x40\n      add\n      swap2\n      pop\n      pop\n      mload(0x40)\n      dup1\n      swap2\n      sub\n      swap1\n      revert\n        /* \"@openzeppelin/contracts/utils/Address.sol\":3770:3964  function functionCall(address target, bytes memory data, string memory errorMessage) internal returns (bytes memory) {... */\n    tag_601:\n        /* \"@openzeppelin/contracts/utils/Address.sol\":3873:3885  bytes memory */\n      0x60\n        /* \"@openzeppelin/contracts/utils/Address.sol\":3904:3957  _functionCallWithValue(target, data, 0, errorMessage) */\n      tag_198\n        /* \"@openzeppelin/contracts/utils/Address.sol\":3927:3933  target */\n      dup5\n        /* \"@openzeppelin/contracts/utils/Address.sol\":3935:3939  data */\n      dup5\n        /* \"@openzeppelin/contracts/utils/Address.sol\":3941:3942  0 */\n      0x00\n        /* \"@openzeppelin/contracts/utils/Address.sol\":3944:3956  errorMessage */\n      dup6\n        /* \"@openzeppelin/contracts/utils/Address.sol\":5247:5259  bytes memory */\n      0x60\n        /* \"@openzeppelin/contracts/utils/Address.sol\":5279:5297  isContract(target) */\n      tag_609\n        /* \"@openzeppelin/contracts/utils/Address.sol\":5290:5296  target */\n      dup6\n        /* \"@openzeppelin/contracts/utils/Address.sol\":5279:5289  isContract */\n      tag_610\n        /* \"@openzeppelin/contracts/utils/Address.sol\":5279:5297  isContract(target) */\n      jump\t// in\n    tag_609:\n        /* \"@openzeppelin/contracts/utils/Address.sol\":5271:5331  require(isContract(target), \"Address: call to non-contract\") */\n      tag_611\n      jumpi\n      0x40\n      dup1\n      mload\n      shl(0xe5, 0x461bcd)\n      dup2\n      mstore\n      0x20\n      0x04\n      dup3\n      add\n      mstore\n      0x1d\n      0x24\n      dup3\n      add\n      mstore\n      0x416464726573733a2063616c6c20746f206e6f6e2d636f6e7472616374000000\n      0x44\n      dup3\n      add\n      mstore\n      swap1\n      mload\n      swap1\n      dup2\n      swap1\n      sub\n      0x64\n      add\n      swap1\n      revert\n    tag_611:\n        /* \"@openzeppelin/contracts/utils/Address.sol\":5402:5414  bool success */\n      0x00\n        /* \"@openzeppelin/contracts/utils/Address.sol\":5416:5439  bytes memory returndata */\n      0x60\n        /* \"@openzeppelin/contracts/utils/Address.sol\":5443:5449  target */\n      dup7\n      sub(shl(0xa0, 0x01), 0x01)\n        /* \"@openzeppelin/contracts/utils/Address.sol\":5443:5454  target.call */\n      and\n        /* \"@openzeppelin/contracts/utils/Address.sol\":5463:5471  weiValue */\n      dup6\n        /* \"@openzeppelin/contracts/utils/Address.sol\":5474:5478  data */\n      dup8\n        /* \"@openzeppelin/contracts/utils/Address.sol\":5443:5479  target.call{ value: weiValue }(data) */\n      mload(0x40)\n      dup1\n      dup3\n      dup1\n      mload\n      swap1\n      0x20\n      add\n      swap1\n      dup1\n      dup4\n      dup4\n    tag_612:\n      0x20\n      dup4\n      lt\n      tag_614\n      jumpi\n      dup1\n      mload\n      dup3\n      mstore\n      not(0x1f)\n      swap1\n      swap3\n      add\n      swap2\n      0x20\n      swap2\n      dup3\n      add\n      swap2\n      add\n      jump(tag_612)\n    tag_614:\n      0x01\n      dup4\n      0x20\n      sub\n      0x0100\n      exp\n      sub\n      dup1\n      not\n      dup3\n      mload\n      and\n      dup2\n      dup5\n      mload\n      and\n      dup1\n      dup3\n      or\n      dup6\n      mstore\n      pop\n      pop\n      pop\n      pop\n      pop\n      pop\n      swap1\n      pop\n      add\n      swap2\n      pop\n      pop\n      0x00\n      mload(0x40)\n      dup1\n      dup4\n      sub\n      dup2\n      dup6\n      dup8\n      gas\n      call\n      swap3\n      pop\n      pop\n      pop\n      returndatasize\n      dup1\n      0x00\n      dup2\n      eq\n      tag_617\n      jumpi\n      mload(0x40)\n      swap2\n      pop\n      and(add(returndatasize, 0x3f), not(0x1f))\n      dup3\n      add\n      0x40\n      mstore\n      returndatasize\n      dup3\n      mstore\n      returndatasize\n      0x00\n      0x20\n      dup5\n      add\n      returndatacopy\n      jump(tag_616)\n    tag_617:\n      0x60\n      swap2\n      pop\n    tag_616:\n      pop\n        /* \"@openzeppelin/contracts/utils/Address.sol\":5401:5479  (bool success, bytes memory returndata) = target.call{ value: weiValue }(data) */\n      swap2\n      pop\n      swap2\n      pop\n        /* \"@openzeppelin/contracts/utils/Address.sol\":5493:5500  success */\n      dup2\n        /* \"@openzeppelin/contracts/utils/Address.sol\":5489:6069  if (success) {... */\n      iszero\n      tag_618\n      jumpi\n        /* \"@openzeppelin/contracts/utils/Address.sol\":5523:5533  returndata */\n      swap2\n      pop\n        /* \"@openzeppelin/contracts/utils/Address.sol\":5516:5533  return returndata */\n      tag_198\n      swap1\n      pop\n      jump\n        /* \"@openzeppelin/contracts/utils/Address.sol\":5489:6069  if (success) {... */\n    tag_618:\n        /* \"@openzeppelin/contracts/utils/Address.sol\":5634:5651  returndata.length */\n      dup1\n      mload\n        /* \"@openzeppelin/contracts/utils/Address.sol\":5634:5655  returndata.length > 0 */\n      iszero\n        /* \"@openzeppelin/contracts/utils/Address.sol\":5630:6059  if (returndata.length > 0) {... */\n      tag_620\n      jumpi\n        /* \"@openzeppelin/contracts/utils/Address.sol\":5892:5902  returndata */\n      dup1\n        /* \"@openzeppelin/contracts/utils/Address.sol\":5886:5903  mload(returndata) */\n      mload\n        /* \"@openzeppelin/contracts/utils/Address.sol\":5952:5967  returndata_size */\n      dup1\n        /* \"@openzeppelin/contracts/utils/Address.sol\":5939:5949  returndata */\n      dup3\n        /* \"@openzeppelin/contracts/utils/Address.sol\":5935:5937  32 */\n      0x20\n        /* \"@openzeppelin/contracts/utils/Address.sol\":5931:5950  add(32, returndata) */\n      add\n        /* \"@openzeppelin/contracts/utils/Address.sol\":5924:5968  revert(add(32, returndata), returndata_size) */\n      revert\n        /* \"@openzeppelin/contracts/utils/Address.sol\":5841:5986  {... */\n    tag_620:\n        /* \"@openzeppelin/contracts/utils/Address.sol\":6024:6044  revert(errorMessage) */\n      mload(0x40)\n      shl(0xe5, 0x461bcd)\n      dup2\n      mstore\n      0x20\n      0x04\n      dup3\n      add\n      dup2\n      dup2\n      mstore\n      dup7\n      mload\n      0x24\n      dup5\n      add\n      mstore\n      dup7\n      mload\n        /* \"@openzeppelin/contracts/utils/Address.sol\":6031:6043  errorMessage */\n      dup8\n      swap4\n        /* \"@openzeppelin/contracts/utils/Address.sol\":6024:6044  revert(errorMessage) */\n      swap2\n      swap3\n      dup4\n      swap3\n      0x44\n      add\n      swap2\n      swap1\n      dup6\n      add\n      swap1\n      dup1\n      dup4\n      dup4\n      0x00\n      dup4\n      iszero\n      tag_498\n      jumpi\n      dup2\n      dup2\n      add\n      mload\n      dup4\n      dup3\n      add\n      mstore\n      0x20\n      add\n      jump(tag_496)\n        /* \"@openzeppelin/contracts/utils/Address.sol\":718:1328  function isContract(address account) internal view returns (bool) {... */\n    tag_610:\n        /* \"@openzeppelin/contracts/utils/Address.sol\":778:782  bool */\n      0x00\n        /* \"@openzeppelin/contracts/utils/Address.sol\":1239:1259  extcodehash(account) */\n      dup2\n      extcodehash\n        /* \"@openzeppelin/contracts/utils/Address.sol\":1084:1150  0xc5d2460186f7233c927e7db2dcc703c0e500b653ca82273b7bfad8045d85a470 */\n      0xc5d2460186f7233c927e7db2dcc703c0e500b653ca82273b7bfad8045d85a470\n        /* \"@openzeppelin/contracts/utils/Address.sol\":1278:1301  codehash != accountHash */\n      dup2\n      dup2\n      eq\n      dup1\n      iszero\n      swap1\n        /* \"@openzeppelin/contracts/utils/Address.sol\":1278:1320  codehash != accountHash && codehash != 0x0 */\n      tag_198\n      jumpi\n      pop\n      pop\n        /* \"@openzeppelin/contracts/utils/Address.sol\":1305:1320  codehash != 0x0 */\n      iszero\n      iszero\n      swap3\n        /* \"@openzeppelin/contracts/utils/Address.sol\":1270:1321  return (codehash != accountHash && codehash != 0x0) */\n      swap2\n      pop\n      pop\n        /* \"@openzeppelin/contracts/utils/Address.sol\":718:1328  function isContract(address account) internal view returns (bool) {... */\n      jump\t// out\n    tag_287:\n      dup3\n      dup1\n      sload\n      dup3\n      dup3\n      sstore\n      swap1\n      0x00\n      mstore\n      keccak256(0x00, 0x20)\n      swap1\n      dup2\n      add\n      swap3\n      dup3\n      iszero\n      tag_630\n      jumpi\n      swap2\n      0x20\n      mul\n      dup3\n      add\n    tag_629:\n      dup3\n      dup2\n      gt\n      iszero\n      tag_630\n      jumpi\n      dup3\n      mload\n      dup3\n      sload\n      not(sub(shl(0xa0, 0x01), 0x01))\n      and\n      sub(shl(0xa0, 0x01), 0x01)\n      swap1\n      swap2\n      and\n      or\n      dup3\n      sstore\n      0x20\n      swap1\n      swap3\n      add\n      swap2\n      0x01\n      swap1\n      swap2\n      add\n      swap1\n      jump(tag_629)\n    tag_630:\n      pop\n      tag_631\n      swap3\n      swap2\n      pop\n      tag_632\n      jump\t// in\n    tag_631:\n      pop\n      swap1\n      jump\t// out\n    tag_314:\n      mload(0x40)\n      dup1\n      0x40\n      add\n      0x40\n      mstore\n      dup1\n      0x00\n      dup2\n      mstore\n      0x20\n      add\n      0x00\n      dup2\n      mstore\n      pop\n      swap1\n      jump\t// out\n    tag_632:\n    tag_633:\n      dup1\n      dup3\n      gt\n      iszero\n      tag_631\n      jumpi\n      dup1\n      sload\n      not(sub(shl(0xa0, 0x01), 0x01))\n      and\n      dup2\n      sstore\n      0x01\n      add\n      jump(tag_633)\n    stop\n    data_0557e210f7a69a685100a7e4e3d0a7024c546085cee28910fd17d0b081d9516f 45524332303a207472616e7366657220746f20746865207a65726f2061646472657373\n    data_0d74825aecb0211bbe1f02ccfb998d9e49771bedb2c6414e20fd8978a2e0f54c 5265656e7472616e637947756172643a207265656e7472616e742063616c6c00\n    data_149b126e7125232b4200af45303d04fba8b74653b1a295a6a561a528c33fefdd 45524332303a206275726e20616d6f756e7420657863656564732062616c616e6365\n    data_245f15ff17f551913a7a18385165551503906a406f905ac1c2437281a7cd0cfe 4f776e61626c653a206e6577206f776e657220697320746865207a65726f2061646472657373\n    data_24883cc5fe64ace9d0df1893501ecb93c77180f0ff69cca79affb3c316dc8029 45524332303a20617070726f766520746f20746865207a65726f2061646472657373\n    data_4107e8a8b9e94bf8ff83080ddec1c0bffe897ebc2241b89d44f66b3d274088b6 45524332303a207472616e7366657220616d6f756e7420657863656564732062616c616e6365\n    data_9113bb53c2876a3805b2c9242029423fc540a728243ce887ab24c82cf119fba3 536166654d6174683a206d756c7469706c69636174696f6e206f766572666c6f77\n    data_974d1b4421da69cc60b481194f0dad36a5bb4e23da810da7a7fb30cdba178330 45524332303a207472616e7366657220616d6f756e74206578636565647320616c6c6f77616e6365\n    data_b16788493b576042bb52c50ed56189e0b250db113c7bfb1c3897d25cf9632d7f 45524332303a206275726e2066726f6d20746865207a65726f2061646472657373\n    data_baecc556b46f4ed0f2b4cb599d60785ac8563dd2dc0a5bf12edea1c39e5e1fea 45524332303a207472616e736665722066726f6d20746865207a65726f2061646472657373\n    data_c953f4879035ed60e766b34720f656aab5c697b141d924c283124ecedb91c208 45524332303a20617070726f76652066726f6d20746865207a65726f2061646472657373\n    data_e11ad79d1e4a7f2e5f376964cb99e8e8f7904e3fc16a109f7a7ecb9aa7956dcd 5361666545524332303a204552433230206f7065726174696f6e20646964206e6f742073756363656564\n    data_f8b476f7d28209d77d4a4ac1fe36b9f8259aa1bb6bddfa6e89de7e51615cf8a8 45524332303a2064656372656173656420616c6c6f77616e63652062656c6f77207a65726f\n\n    auxdata: 0xa2646970667358221220a769da29bc38f2609327a22cd56ddd579885cb906f69d9cf0714dd87db153bec64736f6c634300060c0033\n}\n",
				"bytecode": {
					"linkReferences": {},
					"object": "60806040523480156200001157600080fd5b5060408051808201825260078152664c502d4e414d4560c81b602080830191825283518085019094526009845268534f4d455448494e4760b81b908401528151919291620000629160039162000103565b5080516200007890600490602084019062000103565b50506005805460ff19166012179055506001600655600062000099620000ff565b600780546001600160a01b0319166001600160a01b038316908117909155604051919250906000907f8be0079c531659141344cd1fd0a4f28419497f9722a3daafe3b4186f6b6457e0908290a350600880546001600160a01b031916331790556200019f565b3390565b828054600181600116156101000203166002900490600052602060002090601f016020900481019282601f106200014657805160ff191683800117855562000176565b8280016001018555821562000176579182015b828111156200017657825182559160200191906001019062000159565b506200018492915062000188565b5090565b5b8082111562000184576000815560010162000189565b61336f80620001af6000396000f3fe6080604052600436106101f95760003560e01c806395d89b411161010d578063c45a0155116100a0578063dd62ed3e1161006f578063dd62ed3e14610917578063ddca3f4314610952578063e7ff42c914610967578063f223885a1461099a578063f2fde38b14610a58576101f9565b8063c45a015514610876578063d5bcb9b51461088b578063d73792a9146108cf578063d7d3aab5146108e4576101f9565b8063aa6ca808116100dc578063aa6ca80814610785578063b1ec4c40146107ea578063b21b5a211461084c578063baf13a0a14610861576101f9565b806395d89b4114610650578063a224cee714610665578063a457c2d714610713578063a9059cbb1461074c576101f9565b806348d67e1b116101905780636edc2c091161015f5780636edc2c091461058757806370a08231146105ba578063715018a6146105ed57806378e3214f146106025780638da5cb5b1461063b576101f9565b806348d67e1b146104195780634f64b2be1461042e5780635915d806146104745780635ed9156d1461052b576101f9565b80631e1401f8116101cc5780631e1401f81461032f57806323b872dd14610372578063313ce567146103b557806339509351146103e0576101f9565b806306fdde03146101fe578063095ea7b31461028857806318160ddd146102d557806319f37361146102fc575b600080fd5b34801561020a57600080fd5b50610213610a8b565b6040805160208082528351818301528351919283929083019185019080838360005b8381101561024d578181015183820152602001610235565b50505050905090810190601f16801561027a5780820380516001836020036101000a031916815260200191505b509250505060405180910390f35b34801561029457600080fd5b506102c1600480360360408110156102ab57600080fd5b506001600160a01b038135169060200135610b21565b604080519115158252519081900360200190f35b3480156102e157600080fd5b506102ea610b3f565b60408051918252519081900360200190f35b34801561030857600080fd5b506102c16004803603602081101561031f57600080fd5b50356001600160a01b0316610b45565b34801561033b57600080fd5b506102ea6004803603606081101561035257600080fd5b506001600160a01b03813581169160208101359091169060400135610b5a565b34801561037e57600080fd5b506102c16004803603606081101561039557600080fd5b506001600160a01b03813581169160208101359091169060400135610b81565b3480156103c157600080fd5b506103ca610c08565b6040805160ff9092168252519081900360200190f35b3480156103ec57600080fd5b506102c16004803603604081101561040357600080fd5b506001600160a01b038135169060200135610c11565b34801561042557600080fd5b506102ea610c5f565b34801561043a57600080fd5b506104586004803603602081101561045157600080fd5b5035610c65565b604080516001600160a01b039092168252519081900360200190f35b34801561048057600080fd5b506105296004803603604081101561049757600080fd5b81359190810190604081016020820135600160201b8111156104b857600080fd5b8201836020820111156104ca57600080fd5b803590602001918460208302840111600160201b831117156104eb57600080fd5b919080806020026020016040519081016040528093929190818152602001838360200280828437600092019190915250929550610c8c945050505050565b005b34801561053757600080fd5b5061055e6004803603602081101561054e57600080fd5b50356001600160a01b0316610e73565b604080516001600160d81b03909316835264ffffffffff90911660208301528051918290030190f35b34801561059357600080fd5b5061055e600480360360208110156105aa57600080fd5b50356001600160a01b0316610e9e565b3480156105c657600080fd5b506102ea600480360360208110156105dd57600080fd5b50356001600160a01b0316610ec9565b3480156105f957600080fd5b50610529610ee8565b34801561060e57600080fd5b506105296004803603604081101561062557600080fd5b506001600160a01b038135169060200135610f9c565b34801561064757600080fd5b506104586111f2565b34801561065c57600080fd5b50610213611201565b34801561067157600080fd5b506105296004803603602081101561068857600080fd5b810190602081018135600160201b8111156106a257600080fd5b8201836020820111156106b457600080fd5b803590602001918460208302840111600160201b831117156106d557600080fd5b919080806020026020016040519081016040528093929190818152602001838360200280828437600092019190915250929550611262945050505050565b34801561071f57600080fd5b506102c16004803603604081101561073657600080fd5b506001600160a01b0381351690602001356113c3565b34801561075857600080fd5b506102c16004803603604081101561076f57600080fd5b506001600160a01b03813516906020013561142b565b34801561079157600080fd5b5061079a61143f565b60408051602080825283518183015283519192839290830191858101910280838360005b838110156107d65781810151838201526020016107be565b505050509050019250505060405180910390f35b3480156107f657600080fd5b5061081d6004803603602081101561080d57600080fd5b50356001600160a01b03166114a0565b60405180836001600160801b03168152602001826001600160801b031681526020019250505060405180910390f35b34801561085857600080fd5b506102ea6114c6565b34801561086d57600080fd5b506102ea6114cb565b34801561088257600080fd5b506104586114d1565b6102ea600480360360a08110156108a157600080fd5b506001600160a01b0381358116916020810135821691604082013591606081013591608090910135166114e0565b3480156108db57600080fd5b506102ea6119e9565b3480156108f057600080fd5b506102ea6004803603602081101561090757600080fd5b50356001600160a01b03166119f5565b34801561092357600080fd5b506102ea6004803603604081101561093a57600080fd5b506001600160a01b0381358116916020013516611a6c565b34801561095e57600080fd5b506102ea611a97565b34801561097357600080fd5b506102ea6004803603602081101561098a57600080fd5b50356001600160a01b0316611b0d565b6102ea600480360360408110156109b057600080fd5b810190602081018135600160201b8111156109ca57600080fd5b8201836020820111156109dc57600080fd5b803590602001918460208302840111600160201b831117156109fd57600080fd5b919390929091602081019035600160201b811115610a1a57600080fd5b820183602082011115610a2c57600080fd5b803590602001918460208302840111600160201b83111715610a4d57600080fd5b509092509050611b7d565b348015610a6457600080fd5b5061052960048036036020811015610a7b57600080fd5b50356001600160a01b031661220b565b60038054604080516020601f6002600019610100600188161502019095169490940493840181900481028201810190925282815260609390929091830182828015610b175780601f10610aec57610100808354040283529160200191610b17565b820191906000526020600020905b815481529060010190602001808311610afa57829003601f168201915b5050505050905090565b6000610b35610b2e612316565b848461231a565b5060015b92915050565b60025490565b600a6020526000908152604090205460ff1681565b6000610b79848484610b6b886119f5565b610b7488611b0d565b612406565b949350505050565b6000610b8e8484846124c5565b610bfe84610b9a612316565b610bf985604051806060016040528060288152602001613259602891396001600160a01b038a16600090815260016020526040812090610bd8612316565b6001600160a01b031681526020810191909152604001600020549190612620565b61231a565b5060019392505050565b60055460ff1690565b6000610b35610c1e612316565b84610bf98560016000610c2f612316565b6001600160a01b03908116825260208083019390935260409182016000908120918c1681529252902054906126b7565b61012c90565b60098181548110610c7257fe5b6000918252602090912001546001600160a01b0316905081565b60026006541415610cd2576040805162461bcd60e51b815260206004820152601f6024820152600080516020613188833981519152604482015290519081900360640190fd5b60026006556000610ce1610b3f565b9050610ced3384612711565b60005b600954811015610e3257600060098281548110610d0957fe5b60009182526020822001546001600160a01b03169150610d29823061280d565b90506000610d4185610d3b848a6128ae565b90612907565b9050610d576001600160a01b0384163383612949565b855184101580610d7a5750858481518110610d6e57fe5b60200260200101518110155b610dcb576040805162461bcd60e51b815260206004820152601f60248201527f4d6f6f6e69737761703a20726573756c74206973206e6f7420656e6f75676800604482015290519081900360640190fd5b610df982610dd9878a6129b2565b6001600160a01b0386166000908152600c602052604090209190886129f4565b610e2782610e07878a6129b2565b6001600160a01b0386166000908152600d602052604090209190886129f4565b505050600101610cf0565b5060408051848152905133917f7084f5476618d8e60b11ef0d7d3f06914655adb8793e28ff7f018d4c76d505d5919081900360200190a25050600160065550565b600d602052600090815260409020546001600160d81b03811690600160d81b900464ffffffffff1682565b600c602052600090815260409020546001600160d81b03811690600160d81b900464ffffffffff1682565b6001600160a01b0381166000908152602081905260409020545b919050565b610ef0612316565b6007546001600160a01b03908116911614610f52576040805162461bcd60e51b815260206004820181905260248201527f4f776e61626c653a2063616c6c6572206973206e6f7420746865206f776e6572604482015290519081900360640190fd5b6007546040516000916001600160a01b0316907f8be0079c531659141344cd1fd0a4f28419497f9722a3daafe3b4186f6b6457e0908390a3600780546001600160a01b0319169055565b60026006541415610fe2576040805162461bcd60e51b815260206004820152601f6024820152600080516020613188833981519152604482015290519081900360640190fd5b6002600655610fef612316565b6007546001600160a01b03908116911614611051576040805162461bcd60e51b815260206004820181905260248201527f4f776e61626c653a2063616c6c6572206973206e6f7420746865206f776e6572604482015290519081900360640190fd5b60095460609067ffffffffffffffff8111801561106d57600080fd5b50604051908082528060200260200182016040528015611097578160200160208202803683370190505b50905060005b81518110156110f1576110d230600983815481106110b757fe5b6000918252602090912001546001600160a01b03169061280d565b8282815181106110de57fe5b602090810291909101015260010161109d565b506111066001600160a01b0384163384612949565b60005b815181101561118d5781818151811061111e57fe5b602002602001015161113730600984815481106110b757fe5b1015611185576040805162461bcd60e51b8152602060048201526018602482015277135bdbdb9a5cddd85c0e881858d8d95cdcc819195b9a595960421b604482015290519081900360640190fd5b600101611109565b506103e861119a30610ec9565b10156111e8576040805162461bcd60e51b8152602060048201526018602482015277135bdbdb9a5cddd85c0e881858d8d95cdcc819195b9a595960421b604482015290519081900360640190fd5b5050600160065550565b6007546001600160a01b031690565b60048054604080516020601f6002600019610100600188161502019095169490940493840181900481028201810190925282815260609390929091830182828015610b175780601f10610aec57610100808354040283529160200191610b17565b80516002146112b8576040805162461bcd60e51b815260206004820181905260248201527f4d6f6f6e69737761703a206f6e6c79203220746f6b656e7320616c6c6f776564604482015290519081900360640190fd5b600880546001600160a01b0319163317905580516112dd9060099060208401906130c6565b5060005b81518110156113bf57600a60008383815181106112fa57fe5b6020908102919091018101516001600160a01b031682528101919091526040016000205460ff1615611373576040805162461bcd60e51b815260206004820152601b60248201527f4d6f6f6e69737761703a206475706c696361746520746f6b656e730000000000604482015290519081900360640190fd5b6001600a600084848151811061138557fe5b6020908102919091018101516001600160a01b03168252810191909152604001600020805460ff19169115159190911790556001016112e1565b5050565b6000610b356113d0612316565b84610bf98560405180606001604052806025815260200161331560259139600160006113fa612316565b6001600160a01b03908116825260208083019390935260409182016000908120918d16815292529020549190612620565b6000610b35611438612316565b84846124c5565b60606009805480602002602001604051908101604052809291908181526020018280548015610b1757602002820191906000526020600020905b81546001600160a01b03168152600190910190602001808311611479575050505050905090565b600b602052600090815260409020546001600160801b0380821691600160801b90041682565b601481565b6103e881565b6008546001600160a01b031681565b600060026006541415611528576040805162461bcd60e51b815260206004820152601f6024820152600080516020613188833981519152604482015290519081900360640190fd5b600260065561153f6001600160a01b038716612a50565b61154a57600061154c565b835b341461159f576040805162461bcd60e51b815260206004820152601c60248201527f4d6f6f6e69737761703a2077726f6e672076616c756520757361676500000000604482015290519081900360640190fd5b6115a761312b565b60405180604001604052806115ed6115c78a6001600160a01b0316612a50565b6115d25760006115d4565b345b6115e76001600160a01b038c163061280d565b906129b2565b81526020016116056001600160a01b0389163061280d565b905280516001600160a01b0389166000908152600c602090815260408083208151808301909252546001600160d81b0381168252600160d81b900464ffffffffff169181019190915292935091611667916116609190612a5d565b8351612abe565b6020838101516001600160a01b038a166000908152600d835260408082208151808301909252546001600160d81b0381168252600160d81b900464ffffffffff16938101939093529293506116c9916116bf91612a5d565b8460200151612ad5565b90506116de6001600160a01b038a1688612ae4565b82516000906116fa906115e76001600160a01b038d163061280d565b90506117098a8a838686612406565b945060008511801561171b5750868510155b61176c576040805162461bcd60e51b815260206004820152601f60248201527f4d6f6f6e69737761703a2072657475726e206973206e6f7420656e6f75676800604482015290519081900360640190fd5b6117806001600160a01b038a163387612949565b835183146117b3576117b361179584836126b7565b6001600160a01b038c166000908152600c6020526040902090612ba7565b836020015182146117e9576117e96117cb83876129b2565b6001600160a01b038b166000908152600d6020526040902090612ba7565b83516001600160a01b038b166000908152600d6020526040902061180c91612bd3565b6020808501516001600160a01b038b166000908152600c909252604090912061183491612bd3565b6001600160a01b038616156118ef5783516ec097ce7bc90715b34b9f10000000009061186e90610d3b61186782866126b7565b84906128ae565b602086015190915061188790610d3b611867828a6129b2565b90506ec097ce7bc90715b34b9f10000000008111156118ed5760006118d96014610d3b670de0b6b3a7640000610d3b6118be610b3f565b6118d3670de0b6b3a76400006115e78a612c0e565b906128ae565b905080156118eb576118eb8882612c68565b505b505b886001600160a01b03168a6001600160a01b0316336001600160a01b03167f86c49b5d8577da08444947f1427d23ef191cfabf2c0788f93324d79e926a9302848989600001518a60200151611942610b3f565b60408051958652602086019490945284840192909252606084015260808301526001600160a01b038c1660a0830152519081900360c00190a46001600160a01b039099166000908152600b602052604090208054600160801b6001600160801b03808316909c018c166fffffffffffffffffffffffffffffffff19909216919091178181048c1687018c169091029a16999099179098555050600160065595945050505050565b670de0b6b3a764000081565b600080611a0b6001600160a01b0384163061280d565b6001600160a01b0384166000908152600c60209081526040918290208251808401909352546001600160d81b0381168352600160d81b900464ffffffffff1690820152909150611a6590611a5f9083612a5d565b82612abe565b9392505050565b6001600160a01b03918216600090815260016020908152604080832093909416825291909152205490565b6008546040805163ddca3f4360e01b815290516000926001600160a01b03169163ddca3f43916004808301926020929190829003018186803b158015611adc57600080fd5b505afa158015611af0573d6000803e3d6000fd5b505050506040513d6020811015611b0657600080fd5b5051905090565b600080611b236001600160a01b0384163061280d565b6001600160a01b0384166000908152600d60209081526040918290208251808401909352546001600160d81b0381168352600160d81b900464ffffffffff1690820152909150611a6590611b779083612a5d565b82612ad5565b600060026006541415611bc5576040805162461bcd60e51b815260206004820152601f6024820152600080516020613188833981519152604482015290519081900360640190fd5b6002600655600980546040805160208084028201810190925282815260609390929091830182828015611c2157602002820191906000526020600020905b81546001600160a01b03168152600190910190602001808311611c03575b5050505050905080518686905014611c80576040805162461bcd60e51b815260206004820152601f60248201527f4d6f6f6e69737761703a2077726f6e6720616d6f756e7473206c656e67746800604482015290519081900360640190fd5b611ca681600081518110611c9057fe5b60200260200101516001600160a01b0316612a50565b611cdf57611cba81600181518110611c9057fe5b611cc5576000611cda565b85856001818110611cd257fe5b905060200201355b611cf4565b85856000818110611cec57fe5b905060200201355b3414611d47576040805162461bcd60e51b815260206004820152601c60248201527f4d6f6f6e69737761703a2077726f6e672076616c756520757361676500000000604482015290519081900360640190fd5b60608567ffffffffffffffff81118015611d6057600080fd5b50604051908082528060200260200182016040528015611d8a578160200160208202803683370190505b50905060005b8151811015611e0657611de7611dab848381518110611c9057fe5b611db6576000611db8565b345b6115e730868581518110611dc857fe5b60200260200101516001600160a01b031661280d90919063ffffffff16565b828281518110611df357fe5b6020908102919091010152600101611d90565b506000611e11610b3f565b905080611e6a57611e256103e860636128ae565b9350611e33306103e8612c68565b60005b87811015611e6457611e5a858a8a84818110611e4e57fe5b90506020020135612abe565b9450600101611e36565b50611ecb565b600019935060005b87811015611ec957611ebf85611eba858481518110611e8d57fe5b6020026020010151610d3b8d8d87818110611ea457fe5b90506020020135876128ae90919063ffffffff16565b612ad5565b9450600101611e72565b505b8360005b8881101561209a5760008a8a83818110611ee557fe5b9050602002013511611f3e576040805162461bcd60e51b815260206004820152601960248201527f4d6f6f6e69737761703a20616d6f756e74206973207a65726f00000000000000604482015290519081900360640190fd5b60008315611f8257611f7d84610d3b60018703611f77878a8881518110611f6157fe5b60200260200101516128ae90919063ffffffff16565b906126b7565b611f96565b8a8a83818110611f8e57fe5b905060200201355b9050888883818110611fa457fe5b90506020020135811015611fff576040805162461bcd60e51b815260206004820181905260248201527f4d6f6f6e69737761703a206d696e416d6f756e74206e6f742072656163686564604482015290519081900360640190fd5b61202e8187848151811061200f57fe5b60200260200101516001600160a01b0316612ae490919063ffffffff16565b831561209157600061205d86848151811061204557fe5b60200260200101516115e7308a8781518110611dc857fe5b905061208d88611eba88868151811061207257fe5b6020026020010151610d3b858a6128ae90919063ffffffff16565b9750505b50600101611ecf565b5081156121645760005b888110156121625761211f8482815181106120bb57fe5b60200260200101516120d688866126b790919063ffffffff16565b85600d60008a87815181106120e757fe5b60200260200101516001600160a01b03166001600160a01b031681526020019081526020016000206129f4909392919063ffffffff16565b61215a84828151811061212e57fe5b602002602001015161214988866126b790919063ffffffff16565b85600c60008a87815181106120e757fe5b6001016120a4565b505b600085116121b9576040805162461bcd60e51b815260206004820152601f60248201527f4d6f6f6e69737761703a20726573756c74206973206e6f7420656e6f75676800604482015290519081900360640190fd5b6121c33386612c68565b60408051868152905133917f2da466a7b24304f47e87fa2e1e5a81b9831ce54fec19055ce277ca2f39ba42c4919081900360200190a250506001600655509095945050505050565b612213612316565b6007546001600160a01b03908116911614612275576040805162461bcd60e51b815260206004820181905260248201527f4f776e61626c653a2063616c6c6572206973206e6f7420746865206f776e6572604482015290519081900360640190fd5b6001600160a01b0381166122ba5760405162461bcd60e51b81526004018080602001828103825260268152602001806131ca6026913960400191505060405180910390fd5b6007546040516001600160a01b038084169216907f8be0079c531659141344cd1fd0a4f28419497f9722a3daafe3b4186f6b6457e090600090a3600780546001600160a01b0319166001600160a01b0392909216919091179055565b3390565b6001600160a01b03831661235f5760405162461bcd60e51b81526004018080602001828103825260248152602001806132c76024913960400191505060405180910390fd5b6001600160a01b0382166123a45760405162461bcd60e51b81526004018080602001828103825260228152602001806131f06022913960400191505060405180910390fd5b6001600160a01b03808416600081815260016020908152604080832094871680845294825291829020859055815185815291517f8c5be1e5ebec7d5bd14f71427d1e84f3dd0314c0f7b2291e5b200ac8c7c3b9259281900390910190a3505050565b6001600160a01b0385166000908152600a602052604081205460ff16801561244657506001600160a01b0385166000908152600a602052604090205460ff165b80156124645750846001600160a01b0316866001600160a01b031614155b80156124705750600084115b156124bc57600061249f612498670de0b6b3a7640000610d3b612491611a97565b89906128ae565b86906129b2565b90506124b86124ae85836126b7565b610d3b83866128ae565b9150505b95945050505050565b6001600160a01b03831661250a5760405162461bcd60e51b81526004018080602001828103825260258152602001806132a26025913960400191505060405180910390fd5b6001600160a01b03821661254f5760405162461bcd60e51b81526004018080602001828103825260238152602001806131656023913960400191505060405180910390fd5b61255a8383836129ad565b61259781604051806060016040528060268152602001613212602691396001600160a01b0386166000908152602081905260409020549190612620565b6001600160a01b0380851660009081526020819052604080822093909355908416815220546125c690826126b7565b6001600160a01b038084166000818152602081815260409182902094909455805185815290519193928716927fddf252ad1be2c89b69c2b068fc378daa952ba7f163c4a11628f55a4df523b3ef92918290030190a3505050565b600081848411156126af5760405162461bcd60e51b81526004018080602001828103825283818151815260200191508051906020019080838360005b8381101561267457818101518382015260200161265c565b50505050905090810190601f1680156126a15780820380516001836020036101000a031916815260200191505b509250505060405180910390fd5b505050900390565b600082820183811015611a65576040805162461bcd60e51b815260206004820152601b60248201527f536166654d6174683a206164646974696f6e206f766572666c6f770000000000604482015290519081900360640190fd5b6001600160a01b0382166127565760405162461bcd60e51b81526004018080602001828103825260218152602001806132816021913960400191505060405180910390fd5b612762826000836129ad565b61279f816040518060600160405280602281526020016131a8602291396001600160a01b0385166000908152602081905260409020549190612620565b6001600160a01b0383166000908152602081905260409020556002546127c590826129b2565b6002556040805182815290516000916001600160a01b038516917fddf252ad1be2c89b69c2b068fc378daa952ba7f163c4a11628f55a4df523b3ef9181900360200190a35050565b600061281883612a50565b1561282e57506001600160a01b03811631610b39565b826001600160a01b03166370a08231836040518263ffffffff1660e01b815260040180826001600160a01b0316815260200191505060206040518083038186803b15801561287b57600080fd5b505afa15801561288f573d6000803e3d6000fd5b505050506040513d60208110156128a557600080fd5b50519050610b39565b6000826128bd57506000610b39565b828202828482816128ca57fe5b0414611a655760405162461bcd60e51b81526004018080602001828103825260218152602001806132386021913960400191505060405180910390fd5b6000611a6583836040518060400160405280601a81526020017f536166654d6174683a206469766973696f6e206279207a65726f000000000000815250612d58565b80156129ad5761295883612a50565b15612999576040516001600160a01b0383169082156108fc029083906000818181858888f19350505050158015612993573d6000803e3d6000fd5b506129ad565b6129ad6001600160a01b0384168383612dbd565b505050565b6000611a6583836040518060400160405280601e81526020017f536166654d6174683a207375627472616374696f6e206f766572666c6f770000815250612620565b612a4a84612a4583610d3b612a0a8260016129b2565b604080518082019091528a546001600160d81b0381168252600160d81b900464ffffffffff166020820152611f779089906118d3908c612a5d565b612ba7565b50505050565b6001600160a01b03161590565b600080612a8461012c611eba866020015164ffffffffff16426129b290919063ffffffff16565b90506000612a9461012c836129b2565b90506124bc61012c610d3b612aa987866128ae565b8851611f77906001600160d81b0316866128ae565b600081831015612ace5781611a65565b5090919050565b6000818310612ace5781611a65565b80156113bf57612af382612a50565b15612b925780341015612b4d576040805162461bcd60e51b815260206004820152601a60248201527f556e6945524332303a206e6f7420656e6f7567682076616c7565000000000000604482015290519081900360640190fd5b80341115612b8d57336108fc612b6334846129b2565b6040518115909202916000818181858888f19350505050158015612b8b573d6000803e3d6000fd5b505b6113bf565b6113bf6001600160a01b038316333084612e0f565b81546001600160d81b0319166001600160d81b039182161716600160d81b4264ffffffffff1602179055565b6040805180820190915282546001600160d81b0381168252600160d81b900464ffffffffff1660208201526113bf908390612a459084612a5d565b60006003821115612c525781600160028204015b81811015612c4a57809150600281828681612c3957fe5b040181612c4257fe5b049050612c22565b509050610ee3565b8115612c6057506001610ee3565b506000610ee3565b6001600160a01b038216612cc3576040805162461bcd60e51b815260206004820152601f60248201527f45524332303a206d696e7420746f20746865207a65726f206164647265737300604482015290519081900360640190fd5b612ccf600083836129ad565b600254612cdc90826126b7565b6002556001600160a01b038216600090815260208190526040902054612d0290826126b7565b6001600160a01b0383166000818152602081815260408083209490945583518581529351929391927fddf252ad1be2c89b69c2b068fc378daa952ba7f163c4a11628f55a4df523b3ef9281900390910190a35050565b60008183612da75760405162461bcd60e51b815260206004820181815283516024840152835190928392604490910191908501908083836000831561267457818101518382015260200161265c565b506000838581612db357fe5b0495945050505050565b604080516001600160a01b038416602482015260448082018490528251808303909101815260649091019091526020810180516001600160e01b031663a9059cbb60e01b1790526129ad908490612e65565b604080516001600160a01b0380861660248301528416604482015260648082018490528251808303909101815260849091019091526020810180516001600160e01b03166323b872dd60e01b179052612a4a9085905b6060612eba826040518060400160405280602081526020017f5361666545524332303a206c6f772d6c6576656c2063616c6c206661696c6564815250856001600160a01b0316612f169092919063ffffffff16565b8051909150156129ad57808060200190516020811015612ed957600080fd5b50516129ad5760405162461bcd60e51b815260040180806020018281038252602a8152602001806132eb602a913960400191505060405180910390fd5b6060610b7984846000856060612f2b8561308d565b612f7c576040805162461bcd60e51b815260206004820152601d60248201527f416464726573733a2063616c6c20746f206e6f6e2d636f6e7472616374000000604482015290519081900360640190fd5b60006060866001600160a01b031685876040518082805190602001908083835b60208310612fbb5780518252601f199092019160209182019101612f9c565b6001836020036101000a03801982511681845116808217855250505050505090500191505060006040518083038185875af1925050503d806000811461301d576040519150601f19603f3d011682016040523d82523d6000602084013e613022565b606091505b50915091508115613036579150610b799050565b8051156130465780518082602001fd5b60405162461bcd60e51b815260206004820181815286516024840152865187939192839260440191908501908083836000831561267457818101518382015260200161265c565b6000813f7fc5d2460186f7233c927e7db2dcc703c0e500b653ca82273b7bfad8045d85a470818114801590610b79575050151592915050565b82805482825590600052602060002090810192821561311b579160200282015b8281111561311b57825182546001600160a01b0319166001600160a01b039091161782556020909201916001909101906130e6565b50613127929150613145565b5090565b604051806040016040528060008152602001600081525090565b5b808211156131275780546001600160a01b031916815560010161314656fe45524332303a207472616e7366657220746f20746865207a65726f20616464726573735265656e7472616e637947756172643a207265656e7472616e742063616c6c0045524332303a206275726e20616d6f756e7420657863656564732062616c616e63654f776e61626c653a206e6577206f776e657220697320746865207a65726f206164647265737345524332303a20617070726f766520746f20746865207a65726f206164647265737345524332303a207472616e7366657220616d6f756e7420657863656564732062616c616e6365536166654d6174683a206d756c7469706c69636174696f6e206f766572666c6f7745524332303a207472616e7366657220616d6f756e74206578636565647320616c6c6f77616e636545524332303a206275726e2066726f6d20746865207a65726f206164647265737345524332303a207472616e736665722066726f6d20746865207a65726f206164647265737345524332303a20617070726f76652066726f6d20746865207a65726f20616464726573735361666545524332303a204552433230206f7065726174696f6e20646964206e6f74207375636365656445524332303a2064656372656173656420616c6c6f77616e63652062656c6f77207a65726fa2646970667358221220a769da29bc38f2609327a22cd56ddd579885cb906f69d9cf0714dd87db153bec64736f6c634300060c0033",
					"opcodes": "PUSH1 0x80 PUSH1 0x40 MSTORE CALLVALUE DUP1 ISZERO PUSH3 0x11 JUMPI PUSH1 0x0 DUP1 REVERT JUMPDEST POP PUSH1 0x40 DUP1 MLOAD DUP1 DUP3 ADD DUP3 MSTORE PUSH1 0x7 DUP2 MSTORE PUSH7 0x4C502D4E414D45 PUSH1 0xC8 SHL PUSH1 0x20 DUP1 DUP4 ADD SWAP2 DUP3 MSTORE DUP4 MLOAD DUP1 DUP6 ADD SWAP1 SWAP5 MSTORE PUSH1 0x9 DUP5 MSTORE PUSH9 0x534F4D455448494E47 PUSH1 0xB8 SHL SWAP1 DUP5 ADD MSTORE DUP2 MLOAD SWAP2 SWAP3 SWAP2 PUSH3 0x62 SWAP2 PUSH1 0x3 SWAP2 PUSH3 0x103 JUMP JUMPDEST POP DUP1 MLOAD PUSH3 0x78 SWAP1 PUSH1 0x4 SWAP1 PUSH1 0x20 DUP5 ADD SWAP1 PUSH3 0x103 JUMP JUMPDEST POP POP PUSH1 0x5 DUP1 SLOAD PUSH1 0xFF NOT AND PUSH1 0x12 OR SWAP1 SSTORE POP PUSH1 0x1 PUSH1 0x6 SSTORE PUSH1 0x0 PUSH3 0x99 PUSH3 0xFF JUMP JUMPDEST PUSH1 0x7 DUP1 SLOAD PUSH1 0x1 PUSH1 0x1 PUSH1 0xA0 SHL SUB NOT AND PUSH1 0x1 PUSH1 0x1 PUSH1 0xA0 SHL SUB DUP4 AND SWAP1 DUP2 OR SWAP1 SWAP2 SSTORE PUSH1 0x40 MLOAD SWAP2 SWAP3 POP SWAP1 PUSH1 0x0 SWAP1 PUSH32 0x8BE0079C531659141344CD1FD0A4F28419497F9722A3DAAFE3B4186F6B6457E0 SWAP1 DUP3 SWAP1 LOG3 POP PUSH1 0x8 DUP1 SLOAD PUSH1 0x1 PUSH1 0x1 PUSH1 0xA0 SHL SUB NOT AND CALLER OR SWAP1 SSTORE PUSH3 0x19F JUMP JUMPDEST CALLER SWAP1 JUMP JUMPDEST DUP3 DUP1 SLOAD PUSH1 0x1 DUP2 PUSH1 0x1 AND ISZERO PUSH2 0x100 MUL SUB AND PUSH1 0x2 SWAP1 DIV SWAP1 PUSH1 0x0 MSTORE PUSH1 0x20 PUSH1 0x0 KECCAK256 SWAP1 PUSH1 0x1F ADD PUSH1 0x20 SWAP1 DIV DUP2 ADD SWAP3 DUP3 PUSH1 0x1F LT PUSH3 0x146 JUMPI DUP1 MLOAD PUSH1 0xFF NOT AND DUP4 DUP1 ADD OR DUP6 SSTORE PUSH3 0x176 JUMP JUMPDEST DUP3 DUP1 ADD PUSH1 0x1 ADD DUP6 SSTORE DUP3 ISZERO PUSH3 0x176 JUMPI SWAP2 DUP3 ADD JUMPDEST DUP3 DUP2 GT ISZERO PUSH3 0x176 JUMPI DUP3 MLOAD DUP3 SSTORE SWAP2 PUSH1 0x20 ADD SWAP2 SWAP1 PUSH1 0x1 ADD SWAP1 PUSH3 0x159 JUMP JUMPDEST POP PUSH3 0x184 SWAP3 SWAP2 POP PUSH3 0x188 JUMP JUMPDEST POP SWAP1 JUMP JUMPDEST JUMPDEST DUP1 DUP3 GT ISZERO PUSH3 0x184 JUMPI PUSH1 0x0 DUP2 SSTORE PUSH1 0x1 ADD PUSH3 0x189 JUMP JUMPDEST PUSH2 0x336F DUP1 PUSH3 0x1AF PUSH1 0x0 CODECOPY PUSH1 0x0 RETURN INVALID PUSH1 0x80 PUSH1 0x40 MSTORE PUSH1 0x4 CALLDATASIZE LT PUSH2 0x1F9 JUMPI PUSH1 0x0 CALLDATALOAD PUSH1 0xE0 SHR DUP1 PUSH4 0x95D89B41 GT PUSH2 0x10D JUMPI DUP1 PUSH4 0xC45A0155 GT PUSH2 0xA0 JUMPI DUP1 PUSH4 0xDD62ED3E GT PUSH2 0x6F JUMPI DUP1 PUSH4 0xDD62ED3E EQ PUSH2 0x917 JUMPI DUP1 PUSH4 0xDDCA3F43 EQ PUSH2 0x952 JUMPI DUP1 PUSH4 0xE7FF42C9 EQ PUSH2 0x967 JUMPI DUP1 PUSH4 0xF223885A EQ PUSH2 0x99A JUMPI DUP1 PUSH4 0xF2FDE38B EQ PUSH2 0xA58 JUMPI PUSH2 0x1F9 JUMP JUMPDEST DUP1 PUSH4 0xC45A0155 EQ PUSH2 0x876 JUMPI DUP1 PUSH4 0xD5BCB9B5 EQ PUSH2 0x88B JUMPI DUP1 PUSH4 0xD73792A9 EQ PUSH2 0x8CF JUMPI DUP1 PUSH4 0xD7D3AAB5 EQ PUSH2 0x8E4 JUMPI PUSH2 0x1F9 JUMP JUMPDEST DUP1 PUSH4 0xAA6CA808 GT PUSH2 0xDC JUMPI DUP1 PUSH4 0xAA6CA808 EQ PUSH2 0x785 JUMPI DUP1 PUSH4 0xB1EC4C40 EQ PUSH2 0x7EA JUMPI DUP1 PUSH4 0xB21B5A21 EQ PUSH2 0x84C JUMPI DUP1 PUSH4 0xBAF13A0A EQ PUSH2 0x861 JUMPI PUSH2 0x1F9 JUMP JUMPDEST DUP1 PUSH4 0x95D89B41 EQ PUSH2 0x650 JUMPI DUP1 PUSH4 0xA224CEE7 EQ PUSH2 0x665 JUMPI DUP1 PUSH4 0xA457C2D7 EQ PUSH2 0x713 JUMPI DUP1 PUSH4 0xA9059CBB EQ PUSH2 0x74C JUMPI PUSH2 0x1F9 JUMP JUMPDEST DUP1 PUSH4 0x48D67E1B GT PUSH2 0x190 JUMPI DUP1 PUSH4 0x6EDC2C09 GT PUSH2 0x15F JUMPI DUP1 PUSH4 0x6EDC2C09 EQ PUSH2 0x587 JUMPI DUP1 PUSH4 0x70A08231 EQ PUSH2 0x5BA JUMPI DUP1 PUSH4 0x715018A6 EQ PUSH2 0x5ED JUMPI DUP1 PUSH4 0x78E3214F EQ PUSH2 0x602 JUMPI DUP1 PUSH4 0x8DA5CB5B EQ PUSH2 0x63B JUMPI PUSH2 0x1F9 JUMP JUMPDEST DUP1 PUSH4 0x48D67E1B EQ PUSH2 0x419 JUMPI DUP1 PUSH4 0x4F64B2BE EQ PUSH2 0x42E JUMPI DUP1 PUSH4 0x5915D806 EQ PUSH2 0x474 JUMPI DUP1 PUSH4 0x5ED9156D EQ PUSH2 0x52B JUMPI PUSH2 0x1F9 JUMP JUMPDEST DUP1 PUSH4 0x1E1401F8 GT PUSH2 0x1CC JUMPI DUP1 PUSH4 0x1E1401F8 EQ PUSH2 0x32F JUMPI DUP1 PUSH4 0x23B872DD EQ PUSH2 0x372 JUMPI DUP1 PUSH4 0x313CE567 EQ PUSH2 0x3B5 JUMPI DUP1 PUSH4 0x39509351 EQ PUSH2 0x3E0 JUMPI PUSH2 0x1F9 JUMP JUMPDEST DUP1 PUSH4 0x6FDDE03 EQ PUSH2 0x1FE JUMPI DUP1 PUSH4 0x95EA7B3 EQ PUSH2 0x288 JUMPI DUP1 PUSH4 0x18160DDD EQ PUSH2 0x2D5 JUMPI DUP1 PUSH4 0x19F37361 EQ PUSH2 0x2FC JUMPI JUMPDEST PUSH1 0x0 DUP1 REVERT JUMPDEST CALLVALUE DUP1 ISZERO PUSH2 0x20A JUMPI PUSH1 0x0 DUP1 REVERT JUMPDEST POP PUSH2 0x213 PUSH2 0xA8B JUMP JUMPDEST PUSH1 0x40 DUP1 MLOAD PUSH1 0x20 DUP1 DUP3 MSTORE DUP4 MLOAD DUP2 DUP4 ADD MSTORE DUP4 MLOAD SWAP2 SWAP3 DUP4 SWAP3 SWAP1 DUP4 ADD SWAP2 DUP6 ADD SWAP1 DUP1 DUP4 DUP4 PUSH1 0x0 JUMPDEST DUP4 DUP2 LT ISZERO PUSH2 0x24D JUMPI DUP2 DUP2 ADD MLOAD DUP4 DUP3 ADD MSTORE PUSH1 0x20 ADD PUSH2 0x235 JUMP JUMPDEST POP POP POP POP SWAP1 POP SWAP1 DUP2 ADD SWAP1 PUSH1 0x1F AND DUP1 ISZERO PUSH2 0x27A JUMPI DUP1 DUP3 SUB DUP1 MLOAD PUSH1 0x1 DUP4 PUSH1 0x20 SUB PUSH2 0x100 EXP SUB NOT AND DUP2 MSTORE PUSH1 0x20 ADD SWAP2 POP JUMPDEST POP SWAP3 POP POP POP PUSH1 0x40 MLOAD DUP1 SWAP2 SUB SWAP1 RETURN JUMPDEST CALLVALUE DUP1 ISZERO PUSH2 0x294 JUMPI PUSH1 0x0 DUP1 REVERT JUMPDEST POP PUSH2 0x2C1 PUSH1 0x4 DUP1 CALLDATASIZE SUB PUSH1 0x40 DUP2 LT ISZERO PUSH2 0x2AB JUMPI PUSH1 0x0 DUP1 REVERT JUMPDEST POP PUSH1 0x1 PUSH1 0x1 PUSH1 0xA0 SHL SUB DUP2 CALLDATALOAD AND SWAP1 PUSH1 0x20 ADD CALLDATALOAD PUSH2 0xB21 JUMP JUMPDEST PUSH1 0x40 DUP1 MLOAD SWAP2 ISZERO ISZERO DUP3 MSTORE MLOAD SWAP1 DUP2 SWAP1 SUB PUSH1 0x20 ADD SWAP1 RETURN JUMPDEST CALLVALUE DUP1 ISZERO PUSH2 0x2E1 JUMPI PUSH1 0x0 DUP1 REVERT JUMPDEST POP PUSH2 0x2EA PUSH2 0xB3F JUMP JUMPDEST PUSH1 0x40 DUP1 MLOAD SWAP2 DUP3 MSTORE MLOAD SWAP1 DUP2 SWAP1 SUB PUSH1 0x20 ADD SWAP1 RETURN JUMPDEST CALLVALUE DUP1 ISZERO PUSH2 0x308 JUMPI PUSH1 0x0 DUP1 REVERT JUMPDEST POP PUSH2 0x2C1 PUSH1 0x4 DUP1 CALLDATASIZE SUB PUSH1 0x20 DUP2 LT ISZERO PUSH2 0x31F JUMPI PUSH1 0x0 DUP1 REVERT JUMPDEST POP CALLDATALOAD PUSH1 0x1 PUSH1 0x1 PUSH1 0xA0 SHL SUB AND PUSH2 0xB45 JUMP JUMPDEST CALLVALUE DUP1 ISZERO PUSH2 0x33B JUMPI PUSH1 0x0 DUP1 REVERT JUMPDEST POP PUSH2 0x2EA PUSH1 0x4 DUP1 CALLDATASIZE SUB PUSH1 0x60 DUP2 LT ISZERO PUSH2 0x352 JUMPI PUSH1 0x0 DUP1 REVERT JUMPDEST POP PUSH1 0x1 PUSH1 0x1 PUSH1 0xA0 SHL SUB DUP2 CALLDATALOAD DUP2 AND SWAP2 PUSH1 0x20 DUP2 ADD CALLDATALOAD SWAP1 SWAP2 AND SWAP1 PUSH1 0x40 ADD CALLDATALOAD PUSH2 0xB5A JUMP JUMPDEST CALLVALUE DUP1 ISZERO PUSH2 0x37E JUMPI PUSH1 0x0 DUP1 REVERT JUMPDEST POP PUSH2 0x2C1 PUSH1 0x4 DUP1 CALLDATASIZE SUB PUSH1 0x60 DUP2 LT ISZERO PUSH2 0x395 JUMPI PUSH1 0x0 DUP1 REVERT JUMPDEST POP PUSH1 0x1 PUSH1 0x1 PUSH1 0xA0 SHL SUB DUP2 CALLDATALOAD DUP2 AND SWAP2 PUSH1 0x20 DUP2 ADD CALLDATALOAD SWAP1 SWAP2 AND SWAP1 PUSH1 0x40 ADD CALLDATALOAD PUSH2 0xB81 JUMP JUMPDEST CALLVALUE DUP1 ISZERO PUSH2 0x3C1 JUMPI PUSH1 0x0 DUP1 REVERT JUMPDEST POP PUSH2 0x3CA PUSH2 0xC08 JUMP JUMPDEST PUSH1 0x40 DUP1 MLOAD PUSH1 0xFF SWAP1 SWAP3 AND DUP3 MSTORE MLOAD SWAP1 DUP2 SWAP1 SUB PUSH1 0x20 ADD SWAP1 RETURN JUMPDEST CALLVALUE DUP1 ISZERO PUSH2 0x3EC JUMPI PUSH1 0x0 DUP1 REVERT JUMPDEST POP PUSH2 0x2C1 PUSH1 0x4 DUP1 CALLDATASIZE SUB PUSH1 0x40 DUP2 LT ISZERO PUSH2 0x403 JUMPI PUSH1 0x0 DUP1 REVERT JUMPDEST POP PUSH1 0x1 PUSH1 0x1 PUSH1 0xA0 SHL SUB DUP2 CALLDATALOAD AND SWAP1 PUSH1 0x20 ADD CALLDATALOAD PUSH2 0xC11 JUMP JUMPDEST CALLVALUE DUP1 ISZERO PUSH2 0x425 JUMPI PUSH1 0x0 DUP1 REVERT JUMPDEST POP PUSH2 0x2EA PUSH2 0xC5F JUMP JUMPDEST CALLVALUE DUP1 ISZERO PUSH2 0x43A JUMPI PUSH1 0x0 DUP1 REVERT JUMPDEST POP PUSH2 0x458 PUSH1 0x4 DUP1 CALLDATASIZE SUB PUSH1 0x20 DUP2 LT ISZERO PUSH2 0x451 JUMPI PUSH1 0x0 DUP1 REVERT JUMPDEST POP CALLDATALOAD PUSH2 0xC65 JUMP JUMPDEST PUSH1 0x40 DUP1 MLOAD PUSH1 0x1 PUSH1 0x1 PUSH1 0xA0 SHL SUB SWAP1 SWAP3 AND DUP3 MSTORE MLOAD SWAP1 DUP2 SWAP1 SUB PUSH1 0x20 ADD SWAP1 RETURN JUMPDEST CALLVALUE DUP1 ISZERO PUSH2 0x480 JUMPI PUSH1 0x0 DUP1 REVERT JUMPDEST POP PUSH2 0x529 PUSH1 0x4 DUP1 CALLDATASIZE SUB PUSH1 0x40 DUP2 LT ISZERO PUSH2 0x497 JUMPI PUSH1 0x0 DUP1 REVERT JUMPDEST DUP2 CALLDATALOAD SWAP2 SWAP1 DUP2 ADD SWAP1 PUSH1 0x40 DUP2 ADD PUSH1 0x20 DUP3 ADD CALLDATALOAD PUSH1 0x1 PUSH1 0x20 SHL DUP2 GT ISZERO PUSH2 0x4B8 JUMPI PUSH1 0x0 DUP1 REVERT JUMPDEST DUP3 ADD DUP4 PUSH1 0x20 DUP3 ADD GT ISZERO PUSH2 0x4CA JUMPI PUSH1 0x0 DUP1 REVERT JUMPDEST DUP1 CALLDATALOAD SWAP1 PUSH1 0x20 ADD SWAP2 DUP5 PUSH1 0x20 DUP4 MUL DUP5 ADD GT PUSH1 0x1 PUSH1 0x20 SHL DUP4 GT OR ISZERO PUSH2 0x4EB JUMPI PUSH1 0x0 DUP1 REVERT JUMPDEST SWAP2 SWAP1 DUP1 DUP1 PUSH1 0x20 MUL PUSH1 0x20 ADD PUSH1 0x40 MLOAD SWAP1 DUP2 ADD PUSH1 0x40 MSTORE DUP1 SWAP4 SWAP3 SWAP2 SWAP1 DUP2 DUP2 MSTORE PUSH1 0x20 ADD DUP4 DUP4 PUSH1 0x20 MUL DUP1 DUP3 DUP5 CALLDATACOPY PUSH1 0x0 SWAP3 ADD SWAP2 SWAP1 SWAP2 MSTORE POP SWAP3 SWAP6 POP PUSH2 0xC8C SWAP5 POP POP POP POP POP JUMP JUMPDEST STOP JUMPDEST CALLVALUE DUP1 ISZERO PUSH2 0x537 JUMPI PUSH1 0x0 DUP1 REVERT JUMPDEST POP PUSH2 0x55E PUSH1 0x4 DUP1 CALLDATASIZE SUB PUSH1 0x20 DUP2 LT ISZERO PUSH2 0x54E JUMPI PUSH1 0x0 DUP1 REVERT JUMPDEST POP CALLDATALOAD PUSH1 0x1 PUSH1 0x1 PUSH1 0xA0 SHL SUB AND PUSH2 0xE73 JUMP JUMPDEST PUSH1 0x40 DUP1 MLOAD PUSH1 0x1 PUSH1 0x1 PUSH1 0xD8 SHL SUB SWAP1 SWAP4 AND DUP4 MSTORE PUSH5 0xFFFFFFFFFF SWAP1 SWAP2 AND PUSH1 0x20 DUP4 ADD MSTORE DUP1 MLOAD SWAP2 DUP3 SWAP1 SUB ADD SWAP1 RETURN JUMPDEST CALLVALUE DUP1 ISZERO PUSH2 0x593 JUMPI PUSH1 0x0 DUP1 REVERT JUMPDEST POP PUSH2 0x55E PUSH1 0x4 DUP1 CALLDATASIZE SUB PUSH1 0x20 DUP2 LT ISZERO PUSH2 0x5AA JUMPI PUSH1 0x0 DUP1 REVERT JUMPDEST POP CALLDATALOAD PUSH1 0x1 PUSH1 0x1 PUSH1 0xA0 SHL SUB AND PUSH2 0xE9E JUMP JUMPDEST CALLVALUE DUP1 ISZERO PUSH2 0x5C6 JUMPI PUSH1 0x0 DUP1 REVERT JUMPDEST POP PUSH2 0x2EA PUSH1 0x4 DUP1 CALLDATASIZE SUB PUSH1 0x20 DUP2 LT ISZERO PUSH2 0x5DD JUMPI PUSH1 0x0 DUP1 REVERT JUMPDEST POP CALLDATALOAD PUSH1 0x1 PUSH1 0x1 PUSH1 0xA0 SHL SUB AND PUSH2 0xEC9 JUMP JUMPDEST CALLVALUE DUP1 ISZERO PUSH2 0x5F9 JUMPI PUSH1 0x0 DUP1 REVERT JUMPDEST POP PUSH2 0x529 PUSH2 0xEE8 JUMP JUMPDEST CALLVALUE DUP1 ISZERO PUSH2 0x60E JUMPI PUSH1 0x0 DUP1 REVERT JUMPDEST POP PUSH2 0x529 PUSH1 0x4 DUP1 CALLDATASIZE SUB PUSH1 0x40 DUP2 LT ISZERO PUSH2 0x625 JUMPI PUSH1 0x0 DUP1 REVERT JUMPDEST POP PUSH1 0x1 PUSH1 0x1 PUSH1 0xA0 SHL SUB DUP2 CALLDATALOAD AND SWAP1 PUSH1 0x20 ADD CALLDATALOAD PUSH2 0xF9C JUMP JUMPDEST CALLVALUE DUP1 ISZERO PUSH2 0x647 JUMPI PUSH1 0x0 DUP1 REVERT JUMPDEST POP PUSH2 0x458 PUSH2 0x11F2 JUMP JUMPDEST CALLVALUE DUP1 ISZERO PUSH2 0x65C JUMPI PUSH1 0x0 DUP1 REVERT JUMPDEST POP PUSH2 0x213 PUSH2 0x1201 JUMP JUMPDEST CALLVALUE DUP1 ISZERO PUSH2 0x671 JUMPI PUSH1 0x0 DUP1 REVERT JUMPDEST POP PUSH2 0x529 PUSH1 0x4 DUP1 CALLDATASIZE SUB PUSH1 0x20 DUP2 LT ISZERO PUSH2 0x688 JUMPI PUSH1 0x0 DUP1 REVERT JUMPDEST DUP2 ADD SWAP1 PUSH1 0x20 DUP2 ADD DUP2 CALLDATALOAD PUSH1 0x1 PUSH1 0x20 SHL DUP2 GT ISZERO PUSH2 0x6A2 JUMPI PUSH1 0x0 DUP1 REVERT JUMPDEST DUP3 ADD DUP4 PUSH1 0x20 DUP3 ADD GT ISZERO PUSH2 0x6B4 JUMPI PUSH1 0x0 DUP1 REVERT JUMPDEST DUP1 CALLDATALOAD SWAP1 PUSH1 0x20 ADD SWAP2 DUP5 PUSH1 0x20 DUP4 MUL DUP5 ADD GT PUSH1 0x1 PUSH1 0x20 SHL DUP4 GT OR ISZERO PUSH2 0x6D5 JUMPI PUSH1 0x0 DUP1 REVERT JUMPDEST SWAP2 SWAP1 DUP1 DUP1 PUSH1 0x20 MUL PUSH1 0x20 ADD PUSH1 0x40 MLOAD SWAP1 DUP2 ADD PUSH1 0x40 MSTORE DUP1 SWAP4 SWAP3 SWAP2 SWAP1 DUP2 DUP2 MSTORE PUSH1 0x20 ADD DUP4 DUP4 PUSH1 0x20 MUL DUP1 DUP3 DUP5 CALLDATACOPY PUSH1 0x0 SWAP3 ADD SWAP2 SWAP1 SWAP2 MSTORE POP SWAP3 SWAP6 POP PUSH2 0x1262 SWAP5 POP POP POP POP POP JUMP JUMPDEST CALLVALUE DUP1 ISZERO PUSH2 0x71F JUMPI PUSH1 0x0 DUP1 REVERT JUMPDEST POP PUSH2 0x2C1 PUSH1 0x4 DUP1 CALLDATASIZE SUB PUSH1 0x40 DUP2 LT ISZERO PUSH2 0x736 JUMPI PUSH1 0x0 DUP1 REVERT JUMPDEST POP PUSH1 0x1 PUSH1 0x1 PUSH1 0xA0 SHL SUB DUP2 CALLDATALOAD AND SWAP1 PUSH1 0x20 ADD CALLDATALOAD PUSH2 0x13C3 JUMP JUMPDEST CALLVALUE DUP1 ISZERO PUSH2 0x758 JUMPI PUSH1 0x0 DUP1 REVERT JUMPDEST POP PUSH2 0x2C1 PUSH1 0x4 DUP1 CALLDATASIZE SUB PUSH1 0x40 DUP2 LT ISZERO PUSH2 0x76F JUMPI PUSH1 0x0 DUP1 REVERT JUMPDEST POP PUSH1 0x1 PUSH1 0x1 PUSH1 0xA0 SHL SUB DUP2 CALLDATALOAD AND SWAP1 PUSH1 0x20 ADD CALLDATALOAD PUSH2 0x142B JUMP JUMPDEST CALLVALUE DUP1 ISZERO PUSH2 0x791 JUMPI PUSH1 0x0 DUP1 REVERT JUMPDEST POP PUSH2 0x79A PUSH2 0x143F JUMP JUMPDEST PUSH1 0x40 DUP1 MLOAD PUSH1 0x20 DUP1 DUP3 MSTORE DUP4 MLOAD DUP2 DUP4 ADD MSTORE DUP4 MLOAD SWAP2 SWAP3 DUP4 SWAP3 SWAP1 DUP4 ADD SWAP2 DUP6 DUP2 ADD SWAP2 MUL DUP1 DUP4 DUP4 PUSH1 0x0 JUMPDEST DUP4 DUP2 LT ISZERO PUSH2 0x7D6 JUMPI DUP2 DUP2 ADD MLOAD DUP4 DUP3 ADD MSTORE PUSH1 0x20 ADD PUSH2 0x7BE JUMP JUMPDEST POP POP POP POP SWAP1 POP ADD SWAP3 POP POP POP PUSH1 0x40 MLOAD DUP1 SWAP2 SUB SWAP1 RETURN JUMPDEST CALLVALUE DUP1 ISZERO PUSH2 0x7F6 JUMPI PUSH1 0x0 DUP1 REVERT JUMPDEST POP PUSH2 0x81D PUSH1 0x4 DUP1 CALLDATASIZE SUB PUSH1 0x20 DUP2 LT ISZERO PUSH2 0x80D JUMPI PUSH1 0x0 DUP1 REVERT JUMPDEST POP CALLDATALOAD PUSH1 0x1 PUSH1 0x1 PUSH1 0xA0 SHL SUB AND PUSH2 0x14A0 JUMP JUMPDEST PUSH1 0x40 MLOAD DUP1 DUP4 PUSH1 0x1 PUSH1 0x1 PUSH1 0x80 SHL SUB AND DUP2 MSTORE PUSH1 0x20 ADD DUP3 PUSH1 0x1 PUSH1 0x1 PUSH1 0x80 SHL SUB AND DUP2 MSTORE PUSH1 0x20 ADD SWAP3 POP POP POP PUSH1 0x40 MLOAD DUP1 SWAP2 SUB SWAP1 RETURN JUMPDEST CALLVALUE DUP1 ISZERO PUSH2 0x858 JUMPI PUSH1 0x0 DUP1 REVERT JUMPDEST POP PUSH2 0x2EA PUSH2 0x14C6 JUMP JUMPDEST CALLVALUE DUP1 ISZERO PUSH2 0x86D JUMPI PUSH1 0x0 DUP1 REVERT JUMPDEST POP PUSH2 0x2EA PUSH2 0x14CB JUMP JUMPDEST CALLVALUE DUP1 ISZERO PUSH2 0x882 JUMPI PUSH1 0x0 DUP1 REVERT JUMPDEST POP PUSH2 0x458 PUSH2 0x14D1 JUMP JUMPDEST PUSH2 0x2EA PUSH1 0x4 DUP1 CALLDATASIZE SUB PUSH1 0xA0 DUP2 LT ISZERO PUSH2 0x8A1 JUMPI PUSH1 0x0 DUP1 REVERT JUMPDEST POP PUSH1 0x1 PUSH1 0x1 PUSH1 0xA0 SHL SUB DUP2 CALLDATALOAD DUP2 AND SWAP2 PUSH1 0x20 DUP2 ADD CALLDATALOAD DUP3 AND SWAP2 PUSH1 0x40 DUP3 ADD CALLDATALOAD SWAP2 PUSH1 0x60 DUP2 ADD CALLDATALOAD SWAP2 PUSH1 0x80 SWAP1 SWAP2 ADD CALLDATALOAD AND PUSH2 0x14E0 JUMP JUMPDEST CALLVALUE DUP1 ISZERO PUSH2 0x8DB JUMPI PUSH1 0x0 DUP1 REVERT JUMPDEST POP PUSH2 0x2EA PUSH2 0x19E9 JUMP JUMPDEST CALLVALUE DUP1 ISZERO PUSH2 0x8F0 JUMPI PUSH1 0x0 DUP1 REVERT JUMPDEST POP PUSH2 0x2EA PUSH1 0x4 DUP1 CALLDATASIZE SUB PUSH1 0x20 DUP2 LT ISZERO PUSH2 0x907 JUMPI PUSH1 0x0 DUP1 REVERT JUMPDEST POP CALLDATALOAD PUSH1 0x1 PUSH1 0x1 PUSH1 0xA0 SHL SUB AND PUSH2 0x19F5 JUMP JUMPDEST CALLVALUE DUP1 ISZERO PUSH2 0x923 JUMPI PUSH1 0x0 DUP1 REVERT JUMPDEST POP PUSH2 0x2EA PUSH1 0x4 DUP1 CALLDATASIZE SUB PUSH1 0x40 DUP2 LT ISZERO PUSH2 0x93A JUMPI PUSH1 0x0 DUP1 REVERT JUMPDEST POP PUSH1 0x1 PUSH1 0x1 PUSH1 0xA0 SHL SUB DUP2 CALLDATALOAD DUP2 AND SWAP2 PUSH1 0x20 ADD CALLDATALOAD AND PUSH2 0x1A6C JUMP JUMPDEST CALLVALUE DUP1 ISZERO PUSH2 0x95E JUMPI PUSH1 0x0 DUP1 REVERT JUMPDEST POP PUSH2 0x2EA PUSH2 0x1A97 JUMP JUMPDEST CALLVALUE DUP1 ISZERO PUSH2 0x973 JUMPI PUSH1 0x0 DUP1 REVERT JUMPDEST POP PUSH2 0x2EA PUSH1 0x4 DUP1 CALLDATASIZE SUB PUSH1 0x20 DUP2 LT ISZERO PUSH2 0x98A JUMPI PUSH1 0x0 DUP1 REVERT JUMPDEST POP CALLDATALOAD PUSH1 0x1 PUSH1 0x1 PUSH1 0xA0 SHL SUB AND PUSH2 0x1B0D JUMP JUMPDEST PUSH2 0x2EA PUSH1 0x4 DUP1 CALLDATASIZE SUB PUSH1 0x40 DUP2 LT ISZERO PUSH2 0x9B0 JUMPI PUSH1 0x0 DUP1 REVERT JUMPDEST DUP2 ADD SWAP1 PUSH1 0x20 DUP2 ADD DUP2 CALLDATALOAD PUSH1 0x1 PUSH1 0x20 SHL DUP2 GT ISZERO PUSH2 0x9CA JUMPI PUSH1 0x0 DUP1 REVERT JUMPDEST DUP3 ADD DUP4 PUSH1 0x20 DUP3 ADD GT ISZERO PUSH2 0x9DC JUMPI PUSH1 0x0 DUP1 REVERT JUMPDEST DUP1 CALLDATALOAD SWAP1 PUSH1 0x20 ADD SWAP2 DUP5 PUSH1 0x20 DUP4 MUL DUP5 ADD GT PUSH1 0x1 PUSH1 0x20 SHL DUP4 GT OR ISZERO PUSH2 0x9FD JUMPI PUSH1 0x0 DUP1 REVERT JUMPDEST SWAP2 SWAP4 SWAP1 SWAP3 SWAP1 SWAP2 PUSH1 0x20 DUP2 ADD SWAP1 CALLDATALOAD PUSH1 0x1 PUSH1 0x20 SHL DUP2 GT ISZERO PUSH2 0xA1A JUMPI PUSH1 0x0 DUP1 REVERT JUMPDEST DUP3 ADD DUP4 PUSH1 0x20 DUP3 ADD GT ISZERO PUSH2 0xA2C JUMPI PUSH1 0x0 DUP1 REVERT JUMPDEST DUP1 CALLDATALOAD SWAP1 PUSH1 0x20 ADD SWAP2 DUP5 PUSH1 0x20 DUP4 MUL DUP5 ADD GT PUSH1 0x1 PUSH1 0x20 SHL DUP4 GT OR ISZERO PUSH2 0xA4D JUMPI PUSH1 0x0 DUP1 REVERT JUMPDEST POP SWAP1 SWAP3 POP SWAP1 POP PUSH2 0x1B7D JUMP JUMPDEST CALLVALUE DUP1 ISZERO PUSH2 0xA64 JUMPI PUSH1 0x0 DUP1 REVERT JUMPDEST POP PUSH2 0x529 PUSH1 0x4 DUP1 CALLDATASIZE SUB PUSH1 0x20 DUP2 LT ISZERO PUSH2 0xA7B JUMPI PUSH1 0x0 DUP1 REVERT JUMPDEST POP CALLDATALOAD PUSH1 0x1 PUSH1 0x1 PUSH1 0xA0 SHL SUB AND PUSH2 0x220B JUMP JUMPDEST PUSH1 0x3 DUP1 SLOAD PUSH1 0x40 DUP1 MLOAD PUSH1 0x20 PUSH1 0x1F PUSH1 0x2 PUSH1 0x0 NOT PUSH2 0x100 PUSH1 0x1 DUP9 AND ISZERO MUL ADD SWAP1 SWAP6 AND SWAP5 SWAP1 SWAP5 DIV SWAP4 DUP5 ADD DUP2 SWAP1 DIV DUP2 MUL DUP3 ADD DUP2 ADD SWAP1 SWAP3 MSTORE DUP3 DUP2 MSTORE PUSH1 0x60 SWAP4 SWAP1 SWAP3 SWAP1 SWAP2 DUP4 ADD DUP3 DUP3 DUP1 ISZERO PUSH2 0xB17 JUMPI DUP1 PUSH1 0x1F LT PUSH2 0xAEC JUMPI PUSH2 0x100 DUP1 DUP4 SLOAD DIV MUL DUP4 MSTORE SWAP2 PUSH1 0x20 ADD SWAP2 PUSH2 0xB17 JUMP JUMPDEST DUP3 ADD SWAP2 SWAP1 PUSH1 0x0 MSTORE PUSH1 0x20 PUSH1 0x0 KECCAK256 SWAP1 JUMPDEST DUP2 SLOAD DUP2 MSTORE SWAP1 PUSH1 0x1 ADD SWAP1 PUSH1 0x20 ADD DUP1 DUP4 GT PUSH2 0xAFA JUMPI DUP3 SWAP1 SUB PUSH1 0x1F AND DUP3 ADD SWAP2 JUMPDEST POP POP POP POP POP SWAP1 POP SWAP1 JUMP JUMPDEST PUSH1 0x0 PUSH2 0xB35 PUSH2 0xB2E PUSH2 0x2316 JUMP JUMPDEST DUP5 DUP5 PUSH2 0x231A JUMP JUMPDEST POP PUSH1 0x1 JUMPDEST SWAP3 SWAP2 POP POP JUMP JUMPDEST PUSH1 0x2 SLOAD SWAP1 JUMP JUMPDEST PUSH1 0xA PUSH1 0x20 MSTORE PUSH1 0x0 SWAP1 DUP2 MSTORE PUSH1 0x40 SWAP1 KECCAK256 SLOAD PUSH1 0xFF AND DUP2 JUMP JUMPDEST PUSH1 0x0 PUSH2 0xB79 DUP5 DUP5 DUP5 PUSH2 0xB6B DUP9 PUSH2 0x19F5 JUMP JUMPDEST PUSH2 0xB74 DUP9 PUSH2 0x1B0D JUMP JUMPDEST PUSH2 0x2406 JUMP JUMPDEST SWAP5 SWAP4 POP POP POP POP JUMP JUMPDEST PUSH1 0x0 PUSH2 0xB8E DUP5 DUP5 DUP5 PUSH2 0x24C5 JUMP JUMPDEST PUSH2 0xBFE DUP5 PUSH2 0xB9A PUSH2 0x2316 JUMP JUMPDEST PUSH2 0xBF9 DUP6 PUSH1 0x40 MLOAD DUP1 PUSH1 0x60 ADD PUSH1 0x40 MSTORE DUP1 PUSH1 0x28 DUP2 MSTORE PUSH1 0x20 ADD PUSH2 0x3259 PUSH1 0x28 SWAP2 CODECOPY PUSH1 0x1 PUSH1 0x1 PUSH1 0xA0 SHL SUB DUP11 AND PUSH1 0x0 SWAP1 DUP2 MSTORE PUSH1 0x1 PUSH1 0x20 MSTORE PUSH1 0x40 DUP2 KECCAK256 SWAP1 PUSH2 0xBD8 PUSH2 0x2316 JUMP JUMPDEST PUSH1 0x1 PUSH1 0x1 PUSH1 0xA0 SHL SUB AND DUP2 MSTORE PUSH1 0x20 DUP2 ADD SWAP2 SWAP1 SWAP2 MSTORE PUSH1 0x40 ADD PUSH1 0x0 KECCAK256 SLOAD SWAP2 SWAP1 PUSH2 0x2620 JUMP JUMPDEST PUSH2 0x231A JUMP JUMPDEST POP PUSH1 0x1 SWAP4 SWAP3 POP POP POP JUMP JUMPDEST PUSH1 0x5 SLOAD PUSH1 0xFF AND SWAP1 JUMP JUMPDEST PUSH1 0x0 PUSH2 0xB35 PUSH2 0xC1E PUSH2 0x2316 JUMP JUMPDEST DUP5 PUSH2 0xBF9 DUP6 PUSH1 0x1 PUSH1 0x0 PUSH2 0xC2F PUSH2 0x2316 JUMP JUMPDEST PUSH1 0x1 PUSH1 0x1 PUSH1 0xA0 SHL SUB SWAP1 DUP2 AND DUP3 MSTORE PUSH1 0x20 DUP1 DUP4 ADD SWAP4 SWAP1 SWAP4 MSTORE PUSH1 0x40 SWAP2 DUP3 ADD PUSH1 0x0 SWAP1 DUP2 KECCAK256 SWAP2 DUP13 AND DUP2 MSTORE SWAP3 MSTORE SWAP1 KECCAK256 SLOAD SWAP1 PUSH2 0x26B7 JUMP JUMPDEST PUSH2 0x12C SWAP1 JUMP JUMPDEST PUSH1 0x9 DUP2 DUP2 SLOAD DUP2 LT PUSH2 0xC72 JUMPI INVALID JUMPDEST PUSH1 0x0 SWAP2 DUP3 MSTORE PUSH1 0x20 SWAP1 SWAP2 KECCAK256 ADD SLOAD PUSH1 0x1 PUSH1 0x1 PUSH1 0xA0 SHL SUB AND SWAP1 POP DUP2 JUMP JUMPDEST PUSH1 0x2 PUSH1 0x6 SLOAD EQ ISZERO PUSH2 0xCD2 JUMPI PUSH1 0x40 DUP1 MLOAD PUSH3 0x461BCD PUSH1 0xE5 SHL DUP2 MSTORE PUSH1 0x20 PUSH1 0x4 DUP3 ADD MSTORE PUSH1 0x1F PUSH1 0x24 DUP3 ADD MSTORE PUSH1 0x0 DUP1 MLOAD PUSH1 0x20 PUSH2 0x3188 DUP4 CODECOPY DUP2 MLOAD SWAP2 MSTORE PUSH1 0x44 DUP3 ADD MSTORE SWAP1 MLOAD SWAP1 DUP2 SWAP1 SUB PUSH1 0x64 ADD SWAP1 REVERT JUMPDEST PUSH1 0x2 PUSH1 0x6 SSTORE PUSH1 0x0 PUSH2 0xCE1 PUSH2 0xB3F JUMP JUMPDEST SWAP1 POP PUSH2 0xCED CALLER DUP5 PUSH2 0x2711 JUMP JUMPDEST PUSH1 0x0 JUMPDEST PUSH1 0x9 SLOAD DUP2 LT ISZERO PUSH2 0xE32 JUMPI PUSH1 0x0 PUSH1 0x9 DUP3 DUP2 SLOAD DUP2 LT PUSH2 0xD09 JUMPI INVALID JUMPDEST PUSH1 0x0 SWAP2 DUP3 MSTORE PUSH1 0x20 DUP3 KECCAK256 ADD SLOAD PUSH1 0x1 PUSH1 0x1 PUSH1 0xA0 SHL SUB AND SWAP2 POP PUSH2 0xD29 DUP3 ADDRESS PUSH2 0x280D JUMP JUMPDEST SWAP1 POP PUSH1 0x0 PUSH2 0xD41 DUP6 PUSH2 0xD3B DUP5 DUP11 PUSH2 0x28AE JUMP JUMPDEST SWAP1 PUSH2 0x2907 JUMP JUMPDEST SWAP1 POP PUSH2 0xD57 PUSH1 0x1 PUSH1 0x1 PUSH1 0xA0 SHL SUB DUP5 AND CALLER DUP4 PUSH2 0x2949 JUMP JUMPDEST DUP6 MLOAD DUP5 LT ISZERO DUP1 PUSH2 0xD7A JUMPI POP DUP6 DUP5 DUP2 MLOAD DUP2 LT PUSH2 0xD6E JUMPI INVALID JUMPDEST PUSH1 0x20 MUL PUSH1 0x20 ADD ADD MLOAD DUP2 LT ISZERO JUMPDEST PUSH2 0xDCB JUMPI PUSH1 0x40 DUP1 MLOAD PUSH3 0x461BCD PUSH1 0xE5 SHL DUP2 MSTORE PUSH1 0x20 PUSH1 0x4 DUP3 ADD MSTORE PUSH1 0x1F PUSH1 0x24 DUP3 ADD MSTORE PUSH32 0x4D6F6F6E69737761703A20726573756C74206973206E6F7420656E6F75676800 PUSH1 0x44 DUP3 ADD MSTORE SWAP1 MLOAD SWAP1 DUP2 SWAP1 SUB PUSH1 0x64 ADD SWAP1 REVERT JUMPDEST PUSH2 0xDF9 DUP3 PUSH2 0xDD9 DUP8 DUP11 PUSH2 0x29B2 JUMP JUMPDEST PUSH1 0x1 PUSH1 0x1 PUSH1 0xA0 SHL SUB DUP7 AND PUSH1 0x0 SWAP1 DUP2 MSTORE PUSH1 0xC PUSH1 0x20 MSTORE PUSH1 0x40 SWAP1 KECCAK256 SWAP2 SWAP1 DUP9 PUSH2 0x29F4 JUMP JUMPDEST PUSH2 0xE27 DUP3 PUSH2 0xE07 DUP8 DUP11 PUSH2 0x29B2 JUMP JUMPDEST PUSH1 0x1 PUSH1 0x1 PUSH1 0xA0 SHL SUB DUP7 AND PUSH1 0x0 SWAP1 DUP2 MSTORE PUSH1 0xD PUSH1 0x20 MSTORE PUSH1 0x40 SWAP1 KECCAK256 SWAP2 SWAP1 DUP9 PUSH2 0x29F4 JUMP JUMPDEST POP POP POP PUSH1 0x1 ADD PUSH2 0xCF0 JUMP JUMPDEST POP PUSH1 0x40 DUP1 MLOAD DUP5 DUP2 MSTORE SWAP1 MLOAD CALLER SWAP2 PUSH32 0x7084F5476618D8E60B11EF0D7D3F06914655ADB8793E28FF7F018D4C76D505D5 SWAP2 SWAP1 DUP2 SWAP1 SUB PUSH1 0x20 ADD SWAP1 LOG2 POP POP PUSH1 0x1 PUSH1 0x6 SSTORE POP JUMP JUMPDEST PUSH1 0xD PUSH1 0x20 MSTORE PUSH1 0x0 SWAP1 DUP2 MSTORE PUSH1 0x40 SWAP1 KECCAK256 SLOAD PUSH1 0x1 PUSH1 0x1 PUSH1 0xD8 SHL SUB DUP2 AND SWAP1 PUSH1 0x1 PUSH1 0xD8 SHL SWAP1 DIV PUSH5 0xFFFFFFFFFF AND DUP3 JUMP JUMPDEST PUSH1 0xC PUSH1 0x20 MSTORE PUSH1 0x0 SWAP1 DUP2 MSTORE PUSH1 0x40 SWAP1 KECCAK256 SLOAD PUSH1 0x1 PUSH1 0x1 PUSH1 0xD8 SHL SUB DUP2 AND SWAP1 PUSH1 0x1 PUSH1 0xD8 SHL SWAP1 DIV PUSH5 0xFFFFFFFFFF AND DUP3 JUMP JUMPDEST PUSH1 0x1 PUSH1 0x1 PUSH1 0xA0 SHL SUB DUP2 AND PUSH1 0x0 SWAP1 DUP2 MSTORE PUSH1 0x20 DUP2 SWAP1 MSTORE PUSH1 0x40 SWAP1 KECCAK256 SLOAD JUMPDEST SWAP2 SWAP1 POP JUMP JUMPDEST PUSH2 0xEF0 PUSH2 0x2316 JUMP JUMPDEST PUSH1 0x7 SLOAD PUSH1 0x1 PUSH1 0x1 PUSH1 0xA0 SHL SUB SWAP1 DUP2 AND SWAP2 AND EQ PUSH2 0xF52 JUMPI PUSH1 0x40 DUP1 MLOAD PUSH3 0x461BCD PUSH1 0xE5 SHL DUP2 MSTORE PUSH1 0x20 PUSH1 0x4 DUP3 ADD DUP2 SWAP1 MSTORE PUSH1 0x24 DUP3 ADD MSTORE PUSH32 0x4F776E61626C653A2063616C6C6572206973206E6F7420746865206F776E6572 PUSH1 0x44 DUP3 ADD MSTORE SWAP1 MLOAD SWAP1 DUP2 SWAP1 SUB PUSH1 0x64 ADD SWAP1 REVERT JUMPDEST PUSH1 0x7 SLOAD PUSH1 0x40 MLOAD PUSH1 0x0 SWAP2 PUSH1 0x1 PUSH1 0x1 PUSH1 0xA0 SHL SUB AND SWAP1 PUSH32 0x8BE0079C531659141344CD1FD0A4F28419497F9722A3DAAFE3B4186F6B6457E0 SWAP1 DUP4 SWAP1 LOG3 PUSH1 0x7 DUP1 SLOAD PUSH1 0x1 PUSH1 0x1 PUSH1 0xA0 SHL SUB NOT AND SWAP1 SSTORE JUMP JUMPDEST PUSH1 0x2 PUSH1 0x6 SLOAD EQ ISZERO PUSH2 0xFE2 JUMPI PUSH1 0x40 DUP1 MLOAD PUSH3 0x461BCD PUSH1 0xE5 SHL DUP2 MSTORE PUSH1 0x20 PUSH1 0x4 DUP3 ADD MSTORE PUSH1 0x1F PUSH1 0x24 DUP3 ADD MSTORE PUSH1 0x0 DUP1 MLOAD PUSH1 0x20 PUSH2 0x3188 DUP4 CODECOPY DUP2 MLOAD SWAP2 MSTORE PUSH1 0x44 DUP3 ADD MSTORE SWAP1 MLOAD SWAP1 DUP2 SWAP1 SUB PUSH1 0x64 ADD SWAP1 REVERT JUMPDEST PUSH1 0x2 PUSH1 0x6 SSTORE PUSH2 0xFEF PUSH2 0x2316 JUMP JUMPDEST PUSH1 0x7 SLOAD PUSH1 0x1 PUSH1 0x1 PUSH1 0xA0 SHL SUB SWAP1 DUP2 AND SWAP2 AND EQ PUSH2 0x1051 JUMPI PUSH1 0x40 DUP1 MLOAD PUSH3 0x461BCD PUSH1 0xE5 SHL DUP2 MSTORE PUSH1 0x20 PUSH1 0x4 DUP3 ADD DUP2 SWAP1 MSTORE PUSH1 0x24 DUP3 ADD MSTORE PUSH32 0x4F776E61626C653A2063616C6C6572206973206E6F7420746865206F776E6572 PUSH1 0x44 DUP3 ADD MSTORE SWAP1 MLOAD SWAP1 DUP2 SWAP1 SUB PUSH1 0x64 ADD SWAP1 REVERT JUMPDEST PUSH1 0x9 SLOAD PUSH1 0x60 SWAP1 PUSH8 0xFFFFFFFFFFFFFFFF DUP2 GT DUP1 ISZERO PUSH2 0x106D JUMPI PUSH1 0x0 DUP1 REVERT JUMPDEST POP PUSH1 0x40 MLOAD SWAP1 DUP1 DUP3 MSTORE DUP1 PUSH1 0x20 MUL PUSH1 0x20 ADD DUP3 ADD PUSH1 0x40 MSTORE DUP1 ISZERO PUSH2 0x1097 JUMPI DUP2 PUSH1 0x20 ADD PUSH1 0x20 DUP3 MUL DUP1 CALLDATASIZE DUP4 CALLDATACOPY ADD SWAP1 POP JUMPDEST POP SWAP1 POP PUSH1 0x0 JUMPDEST DUP2 MLOAD DUP2 LT ISZERO PUSH2 0x10F1 JUMPI PUSH2 0x10D2 ADDRESS PUSH1 0x9 DUP4 DUP2 SLOAD DUP2 LT PUSH2 0x10B7 JUMPI INVALID JUMPDEST PUSH1 0x0 SWAP2 DUP3 MSTORE PUSH1 0x20 SWAP1 SWAP2 KECCAK256 ADD SLOAD PUSH1 0x1 PUSH1 0x1 PUSH1 0xA0 SHL SUB AND SWAP1 PUSH2 0x280D JUMP JUMPDEST DUP3 DUP3 DUP2 MLOAD DUP2 LT PUSH2 0x10DE JUMPI INVALID JUMPDEST PUSH1 0x20 SWAP1 DUP2 MUL SWAP2 SWAP1 SWAP2 ADD ADD MSTORE PUSH1 0x1 ADD PUSH2 0x109D JUMP JUMPDEST POP PUSH2 0x1106 PUSH1 0x1 PUSH1 0x1 PUSH1 0xA0 SHL SUB DUP5 AND CALLER DUP5 PUSH2 0x2949 JUMP JUMPDEST PUSH1 0x0 JUMPDEST DUP2 MLOAD DUP2 LT ISZERO PUSH2 0x118D JUMPI DUP2 DUP2 DUP2 MLOAD DUP2 LT PUSH2 0x111E JUMPI INVALID JUMPDEST PUSH1 0x20 MUL PUSH1 0x20 ADD ADD MLOAD PUSH2 0x1137 ADDRESS PUSH1 0x9 DUP5 DUP2 SLOAD DUP2 LT PUSH2 0x10B7 JUMPI INVALID JUMPDEST LT ISZERO PUSH2 0x1185 JUMPI PUSH1 0x40 DUP1 MLOAD PUSH3 0x461BCD PUSH1 0xE5 SHL DUP2 MSTORE PUSH1 0x20 PUSH1 0x4 DUP3 ADD MSTORE PUSH1 0x18 PUSH1 0x24 DUP3 ADD MSTORE PUSH24 0x135BDBDB9A5CDDD85C0E881858D8D95CDCC819195B9A5959 PUSH1 0x42 SHL PUSH1 0x44 DUP3 ADD MSTORE SWAP1 MLOAD SWAP1 DUP2 SWAP1 SUB PUSH1 0x64 ADD SWAP1 REVERT JUMPDEST PUSH1 0x1 ADD PUSH2 0x1109 JUMP JUMPDEST POP PUSH2 0x3E8 PUSH2 0x119A ADDRESS PUSH2 0xEC9 JUMP JUMPDEST LT ISZERO PUSH2 0x11E8 JUMPI PUSH1 0x40 DUP1 MLOAD PUSH3 0x461BCD PUSH1 0xE5 SHL DUP2 MSTORE PUSH1 0x20 PUSH1 0x4 DUP3 ADD MSTORE PUSH1 0x18 PUSH1 0x24 DUP3 ADD MSTORE PUSH24 0x135BDBDB9A5CDDD85C0E881858D8D95CDCC819195B9A5959 PUSH1 0x42 SHL PUSH1 0x44 DUP3 ADD MSTORE SWAP1 MLOAD SWAP1 DUP2 SWAP1 SUB PUSH1 0x64 ADD SWAP1 REVERT JUMPDEST POP POP PUSH1 0x1 PUSH1 0x6 SSTORE POP JUMP JUMPDEST PUSH1 0x7 SLOAD PUSH1 0x1 PUSH1 0x1 PUSH1 0xA0 SHL SUB AND SWAP1 JUMP JUMPDEST PUSH1 0x4 DUP1 SLOAD PUSH1 0x40 DUP1 MLOAD PUSH1 0x20 PUSH1 0x1F PUSH1 0x2 PUSH1 0x0 NOT PUSH2 0x100 PUSH1 0x1 DUP9 AND ISZERO MUL ADD SWAP1 SWAP6 AND SWAP5 SWAP1 SWAP5 DIV SWAP4 DUP5 ADD DUP2 SWAP1 DIV DUP2 MUL DUP3 ADD DUP2 ADD SWAP1 SWAP3 MSTORE DUP3 DUP2 MSTORE PUSH1 0x60 SWAP4 SWAP1 SWAP3 SWAP1 SWAP2 DUP4 ADD DUP3 DUP3 DUP1 ISZERO PUSH2 0xB17 JUMPI DUP1 PUSH1 0x1F LT PUSH2 0xAEC JUMPI PUSH2 0x100 DUP1 DUP4 SLOAD DIV MUL DUP4 MSTORE SWAP2 PUSH1 0x20 ADD SWAP2 PUSH2 0xB17 JUMP JUMPDEST DUP1 MLOAD PUSH1 0x2 EQ PUSH2 0x12B8 JUMPI PUSH1 0x40 DUP1 MLOAD PUSH3 0x461BCD PUSH1 0xE5 SHL DUP2 MSTORE PUSH1 0x20 PUSH1 0x4 DUP3 ADD DUP2 SWAP1 MSTORE PUSH1 0x24 DUP3 ADD MSTORE PUSH32 0x4D6F6F6E69737761703A206F6E6C79203220746F6B656E7320616C6C6F776564 PUSH1 0x44 DUP3 ADD MSTORE SWAP1 MLOAD SWAP1 DUP2 SWAP1 SUB PUSH1 0x64 ADD SWAP1 REVERT JUMPDEST PUSH1 0x8 DUP1 SLOAD PUSH1 0x1 PUSH1 0x1 PUSH1 0xA0 SHL SUB NOT AND CALLER OR SWAP1 SSTORE DUP1 MLOAD PUSH2 0x12DD SWAP1 PUSH1 0x9 SWAP1 PUSH1 0x20 DUP5 ADD SWAP1 PUSH2 0x30C6 JUMP JUMPDEST POP PUSH1 0x0 JUMPDEST DUP2 MLOAD DUP2 LT ISZERO PUSH2 0x13BF JUMPI PUSH1 0xA PUSH1 0x0 DUP4 DUP4 DUP2 MLOAD DUP2 LT PUSH2 0x12FA JUMPI INVALID JUMPDEST PUSH1 0x20 SWAP1 DUP2 MUL SWAP2 SWAP1 SWAP2 ADD DUP2 ADD MLOAD PUSH1 0x1 PUSH1 0x1 PUSH1 0xA0 SHL SUB AND DUP3 MSTORE DUP2 ADD SWAP2 SWAP1 SWAP2 MSTORE PUSH1 0x40 ADD PUSH1 0x0 KECCAK256 SLOAD PUSH1 0xFF AND ISZERO PUSH2 0x1373 JUMPI PUSH1 0x40 DUP1 MLOAD PUSH3 0x461BCD PUSH1 0xE5 SHL DUP2 MSTORE PUSH1 0x20 PUSH1 0x4 DUP3 ADD MSTORE PUSH1 0x1B PUSH1 0x24 DUP3 ADD MSTORE PUSH32 0x4D6F6F6E69737761703A206475706C696361746520746F6B656E730000000000 PUSH1 0x44 DUP3 ADD MSTORE SWAP1 MLOAD SWAP1 DUP2 SWAP1 SUB PUSH1 0x64 ADD SWAP1 REVERT JUMPDEST PUSH1 0x1 PUSH1 0xA PUSH1 0x0 DUP5 DUP5 DUP2 MLOAD DUP2 LT PUSH2 0x1385 JUMPI INVALID JUMPDEST PUSH1 0x20 SWAP1 DUP2 MUL SWAP2 SWAP1 SWAP2 ADD DUP2 ADD MLOAD PUSH1 0x1 PUSH1 0x1 PUSH1 0xA0 SHL SUB AND DUP3 MSTORE DUP2 ADD SWAP2 SWAP1 SWAP2 MSTORE PUSH1 0x40 ADD PUSH1 0x0 KECCAK256 DUP1 SLOAD PUSH1 0xFF NOT AND SWAP2 ISZERO ISZERO SWAP2 SWAP1 SWAP2 OR SWAP1 SSTORE PUSH1 0x1 ADD PUSH2 0x12E1 JUMP JUMPDEST POP POP JUMP JUMPDEST PUSH1 0x0 PUSH2 0xB35 PUSH2 0x13D0 PUSH2 0x2316 JUMP JUMPDEST DUP5 PUSH2 0xBF9 DUP6 PUSH1 0x40 MLOAD DUP1 PUSH1 0x60 ADD PUSH1 0x40 MSTORE DUP1 PUSH1 0x25 DUP2 MSTORE PUSH1 0x20 ADD PUSH2 0x3315 PUSH1 0x25 SWAP2 CODECOPY PUSH1 0x1 PUSH1 0x0 PUSH2 0x13FA PUSH2 0x2316 JUMP JUMPDEST PUSH1 0x1 PUSH1 0x1 PUSH1 0xA0 SHL SUB SWAP1 DUP2 AND DUP3 MSTORE PUSH1 0x20 DUP1 DUP4 ADD SWAP4 SWAP1 SWAP4 MSTORE PUSH1 0x40 SWAP2 DUP3 ADD PUSH1 0x0 SWAP1 DUP2 KECCAK256 SWAP2 DUP14 AND DUP2 MSTORE SWAP3 MSTORE SWAP1 KECCAK256 SLOAD SWAP2 SWAP1 PUSH2 0x2620 JUMP JUMPDEST PUSH1 0x0 PUSH2 0xB35 PUSH2 0x1438 PUSH2 0x2316 JUMP JUMPDEST DUP5 DUP5 PUSH2 0x24C5 JUMP JUMPDEST PUSH1 0x60 PUSH1 0x9 DUP1 SLOAD DUP1 PUSH1 0x20 MUL PUSH1 0x20 ADD PUSH1 0x40 MLOAD SWAP1 DUP2 ADD PUSH1 0x40 MSTORE DUP1 SWAP3 SWAP2 SWAP1 DUP2 DUP2 MSTORE PUSH1 0x20 ADD DUP3 DUP1 SLOAD DUP1 ISZERO PUSH2 0xB17 JUMPI PUSH1 0x20 MUL DUP3 ADD SWAP2 SWAP1 PUSH1 0x0 MSTORE PUSH1 0x20 PUSH1 0x0 KECCAK256 SWAP1 JUMPDEST DUP2 SLOAD PUSH1 0x1 PUSH1 0x1 PUSH1 0xA0 SHL SUB AND DUP2 MSTORE PUSH1 0x1 SWAP1 SWAP2 ADD SWAP1 PUSH1 0x20 ADD DUP1 DUP4 GT PUSH2 0x1479 JUMPI POP POP POP POP POP SWAP1 POP SWAP1 JUMP JUMPDEST PUSH1 0xB PUSH1 0x20 MSTORE PUSH1 0x0 SWAP1 DUP2 MSTORE PUSH1 0x40 SWAP1 KECCAK256 SLOAD PUSH1 0x1 PUSH1 0x1 PUSH1 0x80 SHL SUB DUP1 DUP3 AND SWAP2 PUSH1 0x1 PUSH1 0x80 SHL SWAP1 DIV AND DUP3 JUMP JUMPDEST PUSH1 0x14 DUP2 JUMP JUMPDEST PUSH2 0x3E8 DUP2 JUMP JUMPDEST PUSH1 0x8 SLOAD PUSH1 0x1 PUSH1 0x1 PUSH1 0xA0 SHL SUB AND DUP2 JUMP JUMPDEST PUSH1 0x0 PUSH1 0x2 PUSH1 0x6 SLOAD EQ ISZERO PUSH2 0x1528 JUMPI PUSH1 0x40 DUP1 MLOAD PUSH3 0x461BCD PUSH1 0xE5 SHL DUP2 MSTORE PUSH1 0x20 PUSH1 0x4 DUP3 ADD MSTORE PUSH1 0x1F PUSH1 0x24 DUP3 ADD MSTORE PUSH1 0x0 DUP1 MLOAD PUSH1 0x20 PUSH2 0x3188 DUP4 CODECOPY DUP2 MLOAD SWAP2 MSTORE PUSH1 0x44 DUP3 ADD MSTORE SWAP1 MLOAD SWAP1 DUP2 SWAP1 SUB PUSH1 0x64 ADD SWAP1 REVERT JUMPDEST PUSH1 0x2 PUSH1 0x6 SSTORE PUSH2 0x153F PUSH1 0x1 PUSH1 0x1 PUSH1 0xA0 SHL SUB DUP8 AND PUSH2 0x2A50 JUMP JUMPDEST PUSH2 0x154A JUMPI PUSH1 0x0 PUSH2 0x154C JUMP JUMPDEST DUP4 JUMPDEST CALLVALUE EQ PUSH2 0x159F JUMPI PUSH1 0x40 DUP1 MLOAD PUSH3 0x461BCD PUSH1 0xE5 SHL DUP2 MSTORE PUSH1 0x20 PUSH1 0x4 DUP3 ADD MSTORE PUSH1 0x1C PUSH1 0x24 DUP3 ADD MSTORE PUSH32 0x4D6F6F6E69737761703A2077726F6E672076616C756520757361676500000000 PUSH1 0x44 DUP3 ADD MSTORE SWAP1 MLOAD SWAP1 DUP2 SWAP1 SUB PUSH1 0x64 ADD SWAP1 REVERT JUMPDEST PUSH2 0x15A7 PUSH2 0x312B JUMP JUMPDEST PUSH1 0x40 MLOAD DUP1 PUSH1 0x40 ADD PUSH1 0x40 MSTORE DUP1 PUSH2 0x15ED PUSH2 0x15C7 DUP11 PUSH1 0x1 PUSH1 0x1 PUSH1 0xA0 SHL SUB AND PUSH2 0x2A50 JUMP JUMPDEST PUSH2 0x15D2 JUMPI PUSH1 0x0 PUSH2 0x15D4 JUMP JUMPDEST CALLVALUE JUMPDEST PUSH2 0x15E7 PUSH1 0x1 PUSH1 0x1 PUSH1 0xA0 SHL SUB DUP13 AND ADDRESS PUSH2 0x280D JUMP JUMPDEST SWAP1 PUSH2 0x29B2 JUMP JUMPDEST DUP2 MSTORE PUSH1 0x20 ADD PUSH2 0x1605 PUSH1 0x1 PUSH1 0x1 PUSH1 0xA0 SHL SUB DUP10 AND ADDRESS PUSH2 0x280D JUMP JUMPDEST SWAP1 MSTORE DUP1 MLOAD PUSH1 0x1 PUSH1 0x1 PUSH1 0xA0 SHL SUB DUP10 AND PUSH1 0x0 SWAP1 DUP2 MSTORE PUSH1 0xC PUSH1 0x20 SWAP1 DUP2 MSTORE PUSH1 0x40 DUP1 DUP4 KECCAK256 DUP2 MLOAD DUP1 DUP4 ADD SWAP1 SWAP3 MSTORE SLOAD PUSH1 0x1 PUSH1 0x1 PUSH1 0xD8 SHL SUB DUP2 AND DUP3 MSTORE PUSH1 0x1 PUSH1 0xD8 SHL SWAP1 DIV PUSH5 0xFFFFFFFFFF AND SWAP2 DUP2 ADD SWAP2 SWAP1 SWAP2 MSTORE SWAP3 SWAP4 POP SWAP2 PUSH2 0x1667 SWAP2 PUSH2 0x1660 SWAP2 SWAP1 PUSH2 0x2A5D JUMP JUMPDEST DUP4 MLOAD PUSH2 0x2ABE JUMP JUMPDEST PUSH1 0x20 DUP4 DUP2 ADD MLOAD PUSH1 0x1 PUSH1 0x1 PUSH1 0xA0 SHL SUB DUP11 AND PUSH1 0x0 SWAP1 DUP2 MSTORE PUSH1 0xD DUP4 MSTORE PUSH1 0x40 DUP1 DUP3 KECCAK256 DUP2 MLOAD DUP1 DUP4 ADD SWAP1 SWAP3 MSTORE SLOAD PUSH1 0x1 PUSH1 0x1 PUSH1 0xD8 SHL SUB DUP2 AND DUP3 MSTORE PUSH1 0x1 PUSH1 0xD8 SHL SWAP1 DIV PUSH5 0xFFFFFFFFFF AND SWAP4 DUP2 ADD SWAP4 SWAP1 SWAP4 MSTORE SWAP3 SWAP4 POP PUSH2 0x16C9 SWAP2 PUSH2 0x16BF SWAP2 PUSH2 0x2A5D JUMP JUMPDEST DUP5 PUSH1 0x20 ADD MLOAD PUSH2 0x2AD5 JUMP JUMPDEST SWAP1 POP PUSH2 0x16DE PUSH1 0x1 PUSH1 0x1 PUSH1 0xA0 SHL SUB DUP11 AND DUP9 PUSH2 0x2AE4 JUMP JUMPDEST DUP3 MLOAD PUSH1 0x0 SWAP1 PUSH2 0x16FA SWAP1 PUSH2 0x15E7 PUSH1 0x1 PUSH1 0x1 PUSH1 0xA0 SHL SUB DUP14 AND ADDRESS PUSH2 0x280D JUMP JUMPDEST SWAP1 POP PUSH2 0x1709 DUP11 DUP11 DUP4 DUP7 DUP7 PUSH2 0x2406 JUMP JUMPDEST SWAP5 POP PUSH1 0x0 DUP6 GT DUP1 ISZERO PUSH2 0x171B JUMPI POP DUP7 DUP6 LT ISZERO JUMPDEST PUSH2 0x176C JUMPI PUSH1 0x40 DUP1 MLOAD PUSH3 0x461BCD PUSH1 0xE5 SHL DUP2 MSTORE PUSH1 0x20 PUSH1 0x4 DUP3 ADD MSTORE PUSH1 0x1F PUSH1 0x24 DUP3 ADD MSTORE PUSH32 0x4D6F6F6E69737761703A2072657475726E206973206E6F7420656E6F75676800 PUSH1 0x44 DUP3 ADD MSTORE SWAP1 MLOAD SWAP1 DUP2 SWAP1 SUB PUSH1 0x64 ADD SWAP1 REVERT JUMPDEST PUSH2 0x1780 PUSH1 0x1 PUSH1 0x1 PUSH1 0xA0 SHL SUB DUP11 AND CALLER DUP8 PUSH2 0x2949 JUMP JUMPDEST DUP4 MLOAD DUP4 EQ PUSH2 0x17B3 JUMPI PUSH2 0x17B3 PUSH2 0x1795 DUP5 DUP4 PUSH2 0x26B7 JUMP JUMPDEST PUSH1 0x1 PUSH1 0x1 PUSH1 0xA0 SHL SUB DUP13 AND PUSH1 0x0 SWAP1 DUP2 MSTORE PUSH1 0xC PUSH1 0x20 MSTORE PUSH1 0x40 SWAP1 KECCAK256 SWAP1 PUSH2 0x2BA7 JUMP JUMPDEST DUP4 PUSH1 0x20 ADD MLOAD DUP3 EQ PUSH2 0x17E9 JUMPI PUSH2 0x17E9 PUSH2 0x17CB DUP4 DUP8 PUSH2 0x29B2 JUMP JUMPDEST PUSH1 0x1 PUSH1 0x1 PUSH1 0xA0 SHL SUB DUP12 AND PUSH1 0x0 SWAP1 DUP2 MSTORE PUSH1 0xD PUSH1 0x20 MSTORE PUSH1 0x40 SWAP1 KECCAK256 SWAP1 PUSH2 0x2BA7 JUMP JUMPDEST DUP4 MLOAD PUSH1 0x1 PUSH1 0x1 PUSH1 0xA0 SHL SUB DUP12 AND PUSH1 0x0 SWAP1 DUP2 MSTORE PUSH1 0xD PUSH1 0x20 MSTORE PUSH1 0x40 SWAP1 KECCAK256 PUSH2 0x180C SWAP2 PUSH2 0x2BD3 JUMP JUMPDEST PUSH1 0x20 DUP1 DUP6 ADD MLOAD PUSH1 0x1 PUSH1 0x1 PUSH1 0xA0 SHL SUB DUP12 AND PUSH1 0x0 SWAP1 DUP2 MSTORE PUSH1 0xC SWAP1 SWAP3 MSTORE PUSH1 0x40 SWAP1 SWAP2 KECCAK256 PUSH2 0x1834 SWAP2 PUSH2 0x2BD3 JUMP JUMPDEST PUSH1 0x1 PUSH1 0x1 PUSH1 0xA0 SHL SUB DUP7 AND ISZERO PUSH2 0x18EF JUMPI DUP4 MLOAD PUSH15 0xC097CE7BC90715B34B9F1000000000 SWAP1 PUSH2 0x186E SWAP1 PUSH2 0xD3B PUSH2 0x1867 DUP3 DUP7 PUSH2 0x26B7 JUMP JUMPDEST DUP5 SWAP1 PUSH2 0x28AE JUMP JUMPDEST PUSH1 0x20 DUP7 ADD MLOAD SWAP1 SWAP2 POP PUSH2 0x1887 SWAP1 PUSH2 0xD3B PUSH2 0x1867 DUP3 DUP11 PUSH2 0x29B2 JUMP JUMPDEST SWAP1 POP PUSH15 0xC097CE7BC90715B34B9F1000000000 DUP2 GT ISZERO PUSH2 0x18ED JUMPI PUSH1 0x0 PUSH2 0x18D9 PUSH1 0x14 PUSH2 0xD3B PUSH8 0xDE0B6B3A7640000 PUSH2 0xD3B PUSH2 0x18BE PUSH2 0xB3F JUMP JUMPDEST PUSH2 0x18D3 PUSH8 0xDE0B6B3A7640000 PUSH2 0x15E7 DUP11 PUSH2 0x2C0E JUMP JUMPDEST SWAP1 PUSH2 0x28AE JUMP JUMPDEST SWAP1 POP DUP1 ISZERO PUSH2 0x18EB JUMPI PUSH2 0x18EB DUP9 DUP3 PUSH2 0x2C68 JUMP JUMPDEST POP JUMPDEST POP JUMPDEST DUP9 PUSH1 0x1 PUSH1 0x1 PUSH1 0xA0 SHL SUB AND DUP11 PUSH1 0x1 PUSH1 0x1 PUSH1 0xA0 SHL SUB AND CALLER PUSH1 0x1 PUSH1 0x1 PUSH1 0xA0 SHL SUB AND PUSH32 0x86C49B5D8577DA08444947F1427D23EF191CFABF2C0788F93324D79E926A9302 DUP5 DUP10 DUP10 PUSH1 0x0 ADD MLOAD DUP11 PUSH1 0x20 ADD MLOAD PUSH2 0x1942 PUSH2 0xB3F JUMP JUMPDEST PUSH1 0x40 DUP1 MLOAD SWAP6 DUP7 MSTORE PUSH1 0x20 DUP7 ADD SWAP5 SWAP1 SWAP5 MSTORE DUP5 DUP5 ADD SWAP3 SWAP1 SWAP3 MSTORE PUSH1 0x60 DUP5 ADD MSTORE PUSH1 0x80 DUP4 ADD MSTORE PUSH1 0x1 PUSH1 0x1 PUSH1 0xA0 SHL SUB DUP13 AND PUSH1 0xA0 DUP4 ADD MSTORE MLOAD SWAP1 DUP2 SWAP1 SUB PUSH1 0xC0 ADD SWAP1 LOG4 PUSH1 0x1 PUSH1 0x1 PUSH1 0xA0 SHL SUB SWAP1 SWAP10 AND PUSH1 0x0 SWAP1 DUP2 MSTORE PUSH1 0xB PUSH1 0x20 MSTORE PUSH1 0x40 SWAP1 KECCAK256 DUP1 SLOAD PUSH1 0x1 PUSH1 0x80 SHL PUSH1 0x1 PUSH1 0x1 PUSH1 0x80 SHL SUB DUP1 DUP4 AND SWAP1 SWAP13 ADD DUP13 AND PUSH16 0xFFFFFFFFFFFFFFFFFFFFFFFFFFFFFFFF NOT SWAP1 SWAP3 AND SWAP2 SWAP1 SWAP2 OR DUP2 DUP2 DIV DUP13 AND DUP8 ADD DUP13 AND SWAP1 SWAP2 MUL SWAP11 AND SWAP10 SWAP1 SWAP10 OR SWAP1 SWAP9 SSTORE POP POP PUSH1 0x1 PUSH1 0x6 SSTORE SWAP6 SWAP5 POP POP POP POP POP JUMP JUMPDEST PUSH8 0xDE0B6B3A7640000 DUP2 JUMP JUMPDEST PUSH1 0x0 DUP1 PUSH2 0x1A0B PUSH1 0x1 PUSH1 0x1 PUSH1 0xA0 SHL SUB DUP5 AND ADDRESS PUSH2 0x280D JUMP JUMPDEST PUSH1 0x1 PUSH1 0x1 PUSH1 0xA0 SHL SUB DUP5 AND PUSH1 0x0 SWAP1 DUP2 MSTORE PUSH1 0xC PUSH1 0x20 SWAP1 DUP2 MSTORE PUSH1 0x40 SWAP2 DUP3 SWAP1 KECCAK256 DUP3 MLOAD DUP1 DUP5 ADD SWAP1 SWAP4 MSTORE SLOAD PUSH1 0x1 PUSH1 0x1 PUSH1 0xD8 SHL SUB DUP2 AND DUP4 MSTORE PUSH1 0x1 PUSH1 0xD8 SHL SWAP1 DIV PUSH5 0xFFFFFFFFFF AND SWAP1 DUP3 ADD MSTORE SWAP1 SWAP2 POP PUSH2 0x1A65 SWAP1 PUSH2 0x1A5F SWAP1 DUP4 PUSH2 0x2A5D JUMP JUMPDEST DUP3 PUSH2 0x2ABE JUMP JUMPDEST SWAP4 SWAP3 POP POP POP JUMP JUMPDEST PUSH1 0x1 PUSH1 0x1 PUSH1 0xA0 SHL SUB SWAP2 DUP3 AND PUSH1 0x0 SWAP1 DUP2 MSTORE PUSH1 0x1 PUSH1 0x20 SWAP1 DUP2 MSTORE PUSH1 0x40 DUP1 DUP4 KECCAK256 SWAP4 SWAP1 SWAP5 AND DUP3 MSTORE SWAP2 SWAP1 SWAP2 MSTORE KECCAK256 SLOAD SWAP1 JUMP JUMPDEST PUSH1 0x8 SLOAD PUSH1 0x40 DUP1 MLOAD PUSH4 0xDDCA3F43 PUSH1 0xE0 SHL DUP2 MSTORE SWAP1 MLOAD PUSH1 0x0 SWAP3 PUSH1 0x1 PUSH1 0x1 PUSH1 0xA0 SHL SUB AND SWAP2 PUSH4 0xDDCA3F43 SWAP2 PUSH1 0x4 DUP1 DUP4 ADD SWAP3 PUSH1 0x20 SWAP3 SWAP2 SWAP1 DUP3 SWAP1 SUB ADD DUP2 DUP7 DUP1 EXTCODESIZE ISZERO DUP1 ISZERO PUSH2 0x1ADC JUMPI PUSH1 0x0 DUP1 REVERT JUMPDEST POP GAS STATICCALL ISZERO DUP1 ISZERO PUSH2 0x1AF0 JUMPI RETURNDATASIZE PUSH1 0x0 DUP1 RETURNDATACOPY RETURNDATASIZE PUSH1 0x0 REVERT JUMPDEST POP POP POP POP PUSH1 0x40 MLOAD RETURNDATASIZE PUSH1 0x20 DUP2 LT ISZERO PUSH2 0x1B06 JUMPI PUSH1 0x0 DUP1 REVERT JUMPDEST POP MLOAD SWAP1 POP SWAP1 JUMP JUMPDEST PUSH1 0x0 DUP1 PUSH2 0x1B23 PUSH1 0x1 PUSH1 0x1 PUSH1 0xA0 SHL SUB DUP5 AND ADDRESS PUSH2 0x280D JUMP JUMPDEST PUSH1 0x1 PUSH1 0x1 PUSH1 0xA0 SHL SUB DUP5 AND PUSH1 0x0 SWAP1 DUP2 MSTORE PUSH1 0xD PUSH1 0x20 SWAP1 DUP2 MSTORE PUSH1 0x40 SWAP2 DUP3 SWAP1 KECCAK256 DUP3 MLOAD DUP1 DUP5 ADD SWAP1 SWAP4 MSTORE SLOAD PUSH1 0x1 PUSH1 0x1 PUSH1 0xD8 SHL SUB DUP2 AND DUP4 MSTORE PUSH1 0x1 PUSH1 0xD8 SHL SWAP1 DIV PUSH5 0xFFFFFFFFFF AND SWAP1 DUP3 ADD MSTORE SWAP1 SWAP2 POP PUSH2 0x1A65 SWAP1 PUSH2 0x1B77 SWAP1 DUP4 PUSH2 0x2A5D JUMP JUMPDEST DUP3 PUSH2 0x2AD5 JUMP JUMPDEST PUSH1 0x0 PUSH1 0x2 PUSH1 0x6 SLOAD EQ ISZERO PUSH2 0x1BC5 JUMPI PUSH1 0x40 DUP1 MLOAD PUSH3 0x461BCD PUSH1 0xE5 SHL DUP2 MSTORE PUSH1 0x20 PUSH1 0x4 DUP3 ADD MSTORE PUSH1 0x1F PUSH1 0x24 DUP3 ADD MSTORE PUSH1 0x0 DUP1 MLOAD PUSH1 0x20 PUSH2 0x3188 DUP4 CODECOPY DUP2 MLOAD SWAP2 MSTORE PUSH1 0x44 DUP3 ADD MSTORE SWAP1 MLOAD SWAP1 DUP2 SWAP1 SUB PUSH1 0x64 ADD SWAP1 REVERT JUMPDEST PUSH1 0x2 PUSH1 0x6 SSTORE PUSH1 0x9 DUP1 SLOAD PUSH1 0x40 DUP1 MLOAD PUSH1 0x20 DUP1 DUP5 MUL DUP3 ADD DUP2 ADD SWAP1 SWAP3 MSTORE DUP3 DUP2 MSTORE PUSH1 0x60 SWAP4 SWAP1 SWAP3 SWAP1 SWAP2 DUP4 ADD DUP3 DUP3 DUP1 ISZERO PUSH2 0x1C21 JUMPI PUSH1 0x20 MUL DUP3 ADD SWAP2 SWAP1 PUSH1 0x0 MSTORE PUSH1 0x20 PUSH1 0x0 KECCAK256 SWAP1 JUMPDEST DUP2 SLOAD PUSH1 0x1 PUSH1 0x1 PUSH1 0xA0 SHL SUB AND DUP2 MSTORE PUSH1 0x1 SWAP1 SWAP2 ADD SWAP1 PUSH1 0x20 ADD DUP1 DUP4 GT PUSH2 0x1C03 JUMPI JUMPDEST POP POP POP POP POP SWAP1 POP DUP1 MLOAD DUP7 DUP7 SWAP1 POP EQ PUSH2 0x1C80 JUMPI PUSH1 0x40 DUP1 MLOAD PUSH3 0x461BCD PUSH1 0xE5 SHL DUP2 MSTORE PUSH1 0x20 PUSH1 0x4 DUP3 ADD MSTORE PUSH1 0x1F PUSH1 0x24 DUP3 ADD MSTORE PUSH32 0x4D6F6F6E69737761703A2077726F6E6720616D6F756E7473206C656E67746800 PUSH1 0x44 DUP3 ADD MSTORE SWAP1 MLOAD SWAP1 DUP2 SWAP1 SUB PUSH1 0x64 ADD SWAP1 REVERT JUMPDEST PUSH2 0x1CA6 DUP2 PUSH1 0x0 DUP2 MLOAD DUP2 LT PUSH2 0x1C90 JUMPI INVALID JUMPDEST PUSH1 0x20 MUL PUSH1 0x20 ADD ADD MLOAD PUSH1 0x1 PUSH1 0x1 PUSH1 0xA0 SHL SUB AND PUSH2 0x2A50 JUMP JUMPDEST PUSH2 0x1CDF JUMPI PUSH2 0x1CBA DUP2 PUSH1 0x1 DUP2 MLOAD DUP2 LT PUSH2 0x1C90 JUMPI INVALID JUMPDEST PUSH2 0x1CC5 JUMPI PUSH1 0x0 PUSH2 0x1CDA JUMP JUMPDEST DUP6 DUP6 PUSH1 0x1 DUP2 DUP2 LT PUSH2 0x1CD2 JUMPI INVALID JUMPDEST SWAP1 POP PUSH1 0x20 MUL ADD CALLDATALOAD JUMPDEST PUSH2 0x1CF4 JUMP JUMPDEST DUP6 DUP6 PUSH1 0x0 DUP2 DUP2 LT PUSH2 0x1CEC JUMPI INVALID JUMPDEST SWAP1 POP PUSH1 0x20 MUL ADD CALLDATALOAD JUMPDEST CALLVALUE EQ PUSH2 0x1D47 JUMPI PUSH1 0x40 DUP1 MLOAD PUSH3 0x461BCD PUSH1 0xE5 SHL DUP2 MSTORE PUSH1 0x20 PUSH1 0x4 DUP3 ADD MSTORE PUSH1 0x1C PUSH1 0x24 DUP3 ADD MSTORE PUSH32 0x4D6F6F6E69737761703A2077726F6E672076616C756520757361676500000000 PUSH1 0x44 DUP3 ADD MSTORE SWAP1 MLOAD SWAP1 DUP2 SWAP1 SUB PUSH1 0x64 ADD SWAP1 REVERT JUMPDEST PUSH1 0x60 DUP6 PUSH8 0xFFFFFFFFFFFFFFFF DUP2 GT DUP1 ISZERO PUSH2 0x1D60 JUMPI PUSH1 0x0 DUP1 REVERT JUMPDEST POP PUSH1 0x40 MLOAD SWAP1 DUP1 DUP3 MSTORE DUP1 PUSH1 0x20 MUL PUSH1 0x20 ADD DUP3 ADD PUSH1 0x40 MSTORE DUP1 ISZERO PUSH2 0x1D8A JUMPI DUP2 PUSH1 0x20 ADD PUSH1 0x20 DUP3 MUL DUP1 CALLDATASIZE DUP4 CALLDATACOPY ADD SWAP1 POP JUMPDEST POP SWAP1 POP PUSH1 0x0 JUMPDEST DUP2 MLOAD DUP2 LT ISZERO PUSH2 0x1E06 JUMPI PUSH2 0x1DE7 PUSH2 0x1DAB DUP5 DUP4 DUP2 MLOAD DUP2 LT PUSH2 0x1C90 JUMPI INVALID JUMPDEST PUSH2 0x1DB6 JUMPI PUSH1 0x0 PUSH2 0x1DB8 JUMP JUMPDEST CALLVALUE JUMPDEST PUSH2 0x15E7 ADDRESS DUP7 DUP6 DUP2 MLOAD DUP2 LT PUSH2 0x1DC8 JUMPI INVALID JUMPDEST PUSH1 0x20 MUL PUSH1 0x20 ADD ADD MLOAD PUSH1 0x1 PUSH1 0x1 PUSH1 0xA0 SHL SUB AND PUSH2 0x280D SWAP1 SWAP2 SWAP1 PUSH4 0xFFFFFFFF AND JUMP JUMPDEST DUP3 DUP3 DUP2 MLOAD DUP2 LT PUSH2 0x1DF3 JUMPI INVALID JUMPDEST PUSH1 0x20 SWAP1 DUP2 MUL SWAP2 SWAP1 SWAP2 ADD ADD MSTORE PUSH1 0x1 ADD PUSH2 0x1D90 JUMP JUMPDEST POP PUSH1 0x0 PUSH2 0x1E11 PUSH2 0xB3F JUMP JUMPDEST SWAP1 POP DUP1 PUSH2 0x1E6A JUMPI PUSH2 0x1E25 PUSH2 0x3E8 PUSH1 0x63 PUSH2 0x28AE JUMP JUMPDEST SWAP4 POP PUSH2 0x1E33 ADDRESS PUSH2 0x3E8 PUSH2 0x2C68 JUMP JUMPDEST PUSH1 0x0 JUMPDEST DUP8 DUP2 LT ISZERO PUSH2 0x1E64 JUMPI PUSH2 0x1E5A DUP6 DUP11 DUP11 DUP5 DUP2 DUP2 LT PUSH2 0x1E4E JUMPI INVALID JUMPDEST SWAP1 POP PUSH1 0x20 MUL ADD CALLDATALOAD PUSH2 0x2ABE JUMP JUMPDEST SWAP5 POP PUSH1 0x1 ADD PUSH2 0x1E36 JUMP JUMPDEST POP PUSH2 0x1ECB JUMP JUMPDEST PUSH1 0x0 NOT SWAP4 POP PUSH1 0x0 JUMPDEST DUP8 DUP2 LT ISZERO PUSH2 0x1EC9 JUMPI PUSH2 0x1EBF DUP6 PUSH2 0x1EBA DUP6 DUP5 DUP2 MLOAD DUP2 LT PUSH2 0x1E8D JUMPI INVALID JUMPDEST PUSH1 0x20 MUL PUSH1 0x20 ADD ADD MLOAD PUSH2 0xD3B DUP14 DUP14 DUP8 DUP2 DUP2 LT PUSH2 0x1EA4 JUMPI INVALID JUMPDEST SWAP1 POP PUSH1 0x20 MUL ADD CALLDATALOAD DUP8 PUSH2 0x28AE SWAP1 SWAP2 SWAP1 PUSH4 0xFFFFFFFF AND JUMP JUMPDEST PUSH2 0x2AD5 JUMP JUMPDEST SWAP5 POP PUSH1 0x1 ADD PUSH2 0x1E72 JUMP JUMPDEST POP JUMPDEST DUP4 PUSH1 0x0 JUMPDEST DUP9 DUP2 LT ISZERO PUSH2 0x209A JUMPI PUSH1 0x0 DUP11 DUP11 DUP4 DUP2 DUP2 LT PUSH2 0x1EE5 JUMPI INVALID JUMPDEST SWAP1 POP PUSH1 0x20 MUL ADD CALLDATALOAD GT PUSH2 0x1F3E JUMPI PUSH1 0x40 DUP1 MLOAD PUSH3 0x461BCD PUSH1 0xE5 SHL DUP2 MSTORE PUSH1 0x20 PUSH1 0x4 DUP3 ADD MSTORE PUSH1 0x19 PUSH1 0x24 DUP3 ADD MSTORE PUSH32 0x4D6F6F6E69737761703A20616D6F756E74206973207A65726F00000000000000 PUSH1 0x44 DUP3 ADD MSTORE SWAP1 MLOAD SWAP1 DUP2 SWAP1 SUB PUSH1 0x64 ADD SWAP1 REVERT JUMPDEST PUSH1 0x0 DUP4 ISZERO PUSH2 0x1F82 JUMPI PUSH2 0x1F7D DUP5 PUSH2 0xD3B PUSH1 0x1 DUP8 SUB PUSH2 0x1F77 DUP8 DUP11 DUP9 DUP2 MLOAD DUP2 LT PUSH2 0x1F61 JUMPI INVALID JUMPDEST PUSH1 0x20 MUL PUSH1 0x20 ADD ADD MLOAD PUSH2 0x28AE SWAP1 SWAP2 SWAP1 PUSH4 0xFFFFFFFF AND JUMP JUMPDEST SWAP1 PUSH2 0x26B7 JUMP JUMPDEST PUSH2 0x1F96 JUMP JUMPDEST DUP11 DUP11 DUP4 DUP2 DUP2 LT PUSH2 0x1F8E JUMPI INVALID JUMPDEST SWAP1 POP PUSH1 0x20 MUL ADD CALLDATALOAD JUMPDEST SWAP1 POP DUP9 DUP9 DUP4 DUP2 DUP2 LT PUSH2 0x1FA4 JUMPI INVALID JUMPDEST SWAP1 POP PUSH1 0x20 MUL ADD CALLDATALOAD DUP2 LT ISZERO PUSH2 0x1FFF JUMPI PUSH1 0x40 DUP1 MLOAD PUSH3 0x461BCD PUSH1 0xE5 SHL DUP2 MSTORE PUSH1 0x20 PUSH1 0x4 DUP3 ADD DUP2 SWAP1 MSTORE PUSH1 0x24 DUP3 ADD MSTORE PUSH32 0x4D6F6F6E69737761703A206D696E416D6F756E74206E6F742072656163686564 PUSH1 0x44 DUP3 ADD MSTORE SWAP1 MLOAD SWAP1 DUP2 SWAP1 SUB PUSH1 0x64 ADD SWAP1 REVERT JUMPDEST PUSH2 0x202E DUP2 DUP8 DUP5 DUP2 MLOAD DUP2 LT PUSH2 0x200F JUMPI INVALID JUMPDEST PUSH1 0x20 MUL PUSH1 0x20 ADD ADD MLOAD PUSH1 0x1 PUSH1 0x1 PUSH1 0xA0 SHL SUB AND PUSH2 0x2AE4 SWAP1 SWAP2 SWAP1 PUSH4 0xFFFFFFFF AND JUMP JUMPDEST DUP4 ISZERO PUSH2 0x2091 JUMPI PUSH1 0x0 PUSH2 0x205D DUP7 DUP5 DUP2 MLOAD DUP2 LT PUSH2 0x2045 JUMPI INVALID JUMPDEST PUSH1 0x20 MUL PUSH1 0x20 ADD ADD MLOAD PUSH2 0x15E7 ADDRESS DUP11 DUP8 DUP2 MLOAD DUP2 LT PUSH2 0x1DC8 JUMPI INVALID JUMPDEST SWAP1 POP PUSH2 0x208D DUP9 PUSH2 0x1EBA DUP9 DUP7 DUP2 MLOAD DUP2 LT PUSH2 0x2072 JUMPI INVALID JUMPDEST PUSH1 0x20 MUL PUSH1 0x20 ADD ADD MLOAD PUSH2 0xD3B DUP6 DUP11 PUSH2 0x28AE SWAP1 SWAP2 SWAP1 PUSH4 0xFFFFFFFF AND JUMP JUMPDEST SWAP8 POP POP JUMPDEST POP PUSH1 0x1 ADD PUSH2 0x1ECF JUMP JUMPDEST POP DUP2 ISZERO PUSH2 0x2164 JUMPI PUSH1 0x0 JUMPDEST DUP9 DUP2 LT ISZERO PUSH2 0x2162 JUMPI PUSH2 0x211F DUP5 DUP3 DUP2 MLOAD DUP2 LT PUSH2 0x20BB JUMPI INVALID JUMPDEST PUSH1 0x20 MUL PUSH1 0x20 ADD ADD MLOAD PUSH2 0x20D6 DUP9 DUP7 PUSH2 0x26B7 SWAP1 SWAP2 SWAP1 PUSH4 0xFFFFFFFF AND JUMP JUMPDEST DUP6 PUSH1 0xD PUSH1 0x0 DUP11 DUP8 DUP2 MLOAD DUP2 LT PUSH2 0x20E7 JUMPI INVALID JUMPDEST PUSH1 0x20 MUL PUSH1 0x20 ADD ADD MLOAD PUSH1 0x1 PUSH1 0x1 PUSH1 0xA0 SHL SUB AND PUSH1 0x1 PUSH1 0x1 PUSH1 0xA0 SHL SUB AND DUP2 MSTORE PUSH1 0x20 ADD SWAP1 DUP2 MSTORE PUSH1 0x20 ADD PUSH1 0x0 KECCAK256 PUSH2 0x29F4 SWAP1 SWAP4 SWAP3 SWAP2 SWAP1 PUSH4 0xFFFFFFFF AND JUMP JUMPDEST PUSH2 0x215A DUP5 DUP3 DUP2 MLOAD DUP2 LT PUSH2 0x212E JUMPI INVALID JUMPDEST PUSH1 0x20 MUL PUSH1 0x20 ADD ADD MLOAD PUSH2 0x2149 DUP9 DUP7 PUSH2 0x26B7 SWAP1 SWAP2 SWAP1 PUSH4 0xFFFFFFFF AND JUMP JUMPDEST DUP6 PUSH1 0xC PUSH1 0x0 DUP11 DUP8 DUP2 MLOAD DUP2 LT PUSH2 0x20E7 JUMPI INVALID JUMPDEST PUSH1 0x1 ADD PUSH2 0x20A4 JUMP JUMPDEST POP JUMPDEST PUSH1 0x0 DUP6 GT PUSH2 0x21B9 JUMPI PUSH1 0x40 DUP1 MLOAD PUSH3 0x461BCD PUSH1 0xE5 SHL DUP2 MSTORE PUSH1 0x20 PUSH1 0x4 DUP3 ADD MSTORE PUSH1 0x1F PUSH1 0x24 DUP3 ADD MSTORE PUSH32 0x4D6F6F6E69737761703A20726573756C74206973206E6F7420656E6F75676800 PUSH1 0x44 DUP3 ADD MSTORE SWAP1 MLOAD SWAP1 DUP2 SWAP1 SUB PUSH1 0x64 ADD SWAP1 REVERT JUMPDEST PUSH2 0x21C3 CALLER DUP7 PUSH2 0x2C68 JUMP JUMPDEST PUSH1 0x40 DUP1 MLOAD DUP7 DUP2 MSTORE SWAP1 MLOAD CALLER SWAP2 PUSH32 0x2DA466A7B24304F47E87FA2E1E5A81B9831CE54FEC19055CE277CA2F39BA42C4 SWAP2 SWAP1 DUP2 SWAP1 SUB PUSH1 0x20 ADD SWAP1 LOG2 POP POP PUSH1 0x1 PUSH1 0x6 SSTORE POP SWAP1 SWAP6 SWAP5 POP POP POP POP POP JUMP JUMPDEST PUSH2 0x2213 PUSH2 0x2316 JUMP JUMPDEST PUSH1 0x7 SLOAD PUSH1 0x1 PUSH1 0x1 PUSH1 0xA0 SHL SUB SWAP1 DUP2 AND SWAP2 AND EQ PUSH2 0x2275 JUMPI PUSH1 0x40 DUP1 MLOAD PUSH3 0x461BCD PUSH1 0xE5 SHL DUP2 MSTORE PUSH1 0x20 PUSH1 0x4 DUP3 ADD DUP2 SWAP1 MSTORE PUSH1 0x24 DUP3 ADD MSTORE PUSH32 0x4F776E61626C653A2063616C6C6572206973206E6F7420746865206F776E6572 PUSH1 0x44 DUP3 ADD MSTORE SWAP1 MLOAD SWAP1 DUP2 SWAP1 SUB PUSH1 0x64 ADD SWAP1 REVERT JUMPDEST PUSH1 0x1 PUSH1 0x1 PUSH1 0xA0 SHL SUB DUP2 AND PUSH2 0x22BA JUMPI PUSH1 0x40 MLOAD PUSH3 0x461BCD PUSH1 0xE5 SHL DUP2 MSTORE PUSH1 0x4 ADD DUP1 DUP1 PUSH1 0x20 ADD DUP3 DUP2 SUB DUP3 MSTORE PUSH1 0x26 DUP2 MSTORE PUSH1 0x20 ADD DUP1 PUSH2 0x31CA PUSH1 0x26 SWAP2 CODECOPY PUSH1 0x40 ADD SWAP2 POP POP PUSH1 0x40 MLOAD DUP1 SWAP2 SUB SWAP1 REVERT JUMPDEST PUSH1 0x7 SLOAD PUSH1 0x40 MLOAD PUSH1 0x1 PUSH1 0x1 PUSH1 0xA0 SHL SUB DUP1 DUP5 AND SWAP3 AND SWAP1 PUSH32 0x8BE0079C531659141344CD1FD0A4F28419497F9722A3DAAFE3B4186F6B6457E0 SWAP1 PUSH1 0x0 SWAP1 LOG3 PUSH1 0x7 DUP1 SLOAD PUSH1 0x1 PUSH1 0x1 PUSH1 0xA0 SHL SUB NOT AND PUSH1 0x1 PUSH1 0x1 PUSH1 0xA0 SHL SUB SWAP3 SWAP1 SWAP3 AND SWAP2 SWAP1 SWAP2 OR SWAP1 SSTORE JUMP JUMPDEST CALLER SWAP1 JUMP JUMPDEST PUSH1 0x1 PUSH1 0x1 PUSH1 0xA0 SHL SUB DUP4 AND PUSH2 0x235F JUMPI PUSH1 0x40 MLOAD PUSH3 0x461BCD PUSH1 0xE5 SHL DUP2 MSTORE PUSH1 0x4 ADD DUP1 DUP1 PUSH1 0x20 ADD DUP3 DUP2 SUB DUP3 MSTORE PUSH1 0x24 DUP2 MSTORE PUSH1 0x20 ADD DUP1 PUSH2 0x32C7 PUSH1 0x24 SWAP2 CODECOPY PUSH1 0x40 ADD SWAP2 POP POP PUSH1 0x40 MLOAD DUP1 SWAP2 SUB SWAP1 REVERT JUMPDEST PUSH1 0x1 PUSH1 0x1 PUSH1 0xA0 SHL SUB DUP3 AND PUSH2 0x23A4 JUMPI PUSH1 0x40 MLOAD PUSH3 0x461BCD PUSH1 0xE5 SHL DUP2 MSTORE PUSH1 0x4 ADD DUP1 DUP1 PUSH1 0x20 ADD DUP3 DUP2 SUB DUP3 MSTORE PUSH1 0x22 DUP2 MSTORE PUSH1 0x20 ADD DUP1 PUSH2 0x31F0 PUSH1 0x22 SWAP2 CODECOPY PUSH1 0x40 ADD SWAP2 POP POP PUSH1 0x40 MLOAD DUP1 SWAP2 SUB SWAP1 REVERT JUMPDEST PUSH1 0x1 PUSH1 0x1 PUSH1 0xA0 SHL SUB DUP1 DUP5 AND PUSH1 0x0 DUP2 DUP2 MSTORE PUSH1 0x1 PUSH1 0x20 SWAP1 DUP2 MSTORE PUSH1 0x40 DUP1 DUP4 KECCAK256 SWAP5 DUP8 AND DUP1 DUP5 MSTORE SWAP5 DUP3 MSTORE SWAP2 DUP3 SWAP1 KECCAK256 DUP6 SWAP1 SSTORE DUP2 MLOAD DUP6 DUP2 MSTORE SWAP2 MLOAD PUSH32 0x8C5BE1E5EBEC7D5BD14F71427D1E84F3DD0314C0F7B2291E5B200AC8C7C3B925 SWAP3 DUP2 SWAP1 SUB SWAP1 SWAP2 ADD SWAP1 LOG3 POP POP POP JUMP JUMPDEST PUSH1 0x1 PUSH1 0x1 PUSH1 0xA0 SHL SUB DUP6 AND PUSH1 0x0 SWAP1 DUP2 MSTORE PUSH1 0xA PUSH1 0x20 MSTORE PUSH1 0x40 DUP2 KECCAK256 SLOAD PUSH1 0xFF AND DUP1 ISZERO PUSH2 0x2446 JUMPI POP PUSH1 0x1 PUSH1 0x1 PUSH1 0xA0 SHL SUB DUP6 AND PUSH1 0x0 SWAP1 DUP2 MSTORE PUSH1 0xA PUSH1 0x20 MSTORE PUSH1 0x40 SWAP1 KECCAK256 SLOAD PUSH1 0xFF AND JUMPDEST DUP1 ISZERO PUSH2 0x2464 JUMPI POP DUP5 PUSH1 0x1 PUSH1 0x1 PUSH1 0xA0 SHL SUB AND DUP7 PUSH1 0x1 PUSH1 0x1 PUSH1 0xA0 SHL SUB AND EQ ISZERO JUMPDEST DUP1 ISZERO PUSH2 0x2470 JUMPI POP PUSH1 0x0 DUP5 GT JUMPDEST ISZERO PUSH2 0x24BC JUMPI PUSH1 0x0 PUSH2 0x249F PUSH2 0x2498 PUSH8 0xDE0B6B3A7640000 PUSH2 0xD3B PUSH2 0x2491 PUSH2 0x1A97 JUMP JUMPDEST DUP10 SWAP1 PUSH2 0x28AE JUMP JUMPDEST DUP7 SWAP1 PUSH2 0x29B2 JUMP JUMPDEST SWAP1 POP PUSH2 0x24B8 PUSH2 0x24AE DUP6 DUP4 PUSH2 0x26B7 JUMP JUMPDEST PUSH2 0xD3B DUP4 DUP7 PUSH2 0x28AE JUMP JUMPDEST SWAP2 POP POP JUMPDEST SWAP6 SWAP5 POP POP POP POP POP JUMP JUMPDEST PUSH1 0x1 PUSH1 0x1 PUSH1 0xA0 SHL SUB DUP4 AND PUSH2 0x250A JUMPI PUSH1 0x40 MLOAD PUSH3 0x461BCD PUSH1 0xE5 SHL DUP2 MSTORE PUSH1 0x4 ADD DUP1 DUP1 PUSH1 0x20 ADD DUP3 DUP2 SUB DUP3 MSTORE PUSH1 0x25 DUP2 MSTORE PUSH1 0x20 ADD DUP1 PUSH2 0x32A2 PUSH1 0x25 SWAP2 CODECOPY PUSH1 0x40 ADD SWAP2 POP POP PUSH1 0x40 MLOAD DUP1 SWAP2 SUB SWAP1 REVERT JUMPDEST PUSH1 0x1 PUSH1 0x1 PUSH1 0xA0 SHL SUB DUP3 AND PUSH2 0x254F JUMPI PUSH1 0x40 MLOAD PUSH3 0x461BCD PUSH1 0xE5 SHL DUP2 MSTORE PUSH1 0x4 ADD DUP1 DUP1 PUSH1 0x20 ADD DUP3 DUP2 SUB DUP3 MSTORE PUSH1 0x23 DUP2 MSTORE PUSH1 0x20 ADD DUP1 PUSH2 0x3165 PUSH1 0x23 SWAP2 CODECOPY PUSH1 0x40 ADD SWAP2 POP POP PUSH1 0x40 MLOAD DUP1 SWAP2 SUB SWAP1 REVERT JUMPDEST PUSH2 0x255A DUP4 DUP4 DUP4 PUSH2 0x29AD JUMP JUMPDEST PUSH2 0x2597 DUP2 PUSH1 0x40 MLOAD DUP1 PUSH1 0x60 ADD PUSH1 0x40 MSTORE DUP1 PUSH1 0x26 DUP2 MSTORE PUSH1 0x20 ADD PUSH2 0x3212 PUSH1 0x26 SWAP2 CODECOPY PUSH1 0x1 PUSH1 0x1 PUSH1 0xA0 SHL SUB DUP7 AND PUSH1 0x0 SWAP1 DUP2 MSTORE PUSH1 0x20 DUP2 SWAP1 MSTORE PUSH1 0x40 SWAP1 KECCAK256 SLOAD SWAP2 SWAP1 PUSH2 0x2620 JUMP JUMPDEST PUSH1 0x1 PUSH1 0x1 PUSH1 0xA0 SHL SUB DUP1 DUP6 AND PUSH1 0x0 SWAP1 DUP2 MSTORE PUSH1 0x20 DUP2 SWAP1 MSTORE PUSH1 0x40 DUP1 DUP3 KECCAK256 SWAP4 SWAP1 SWAP4 SSTORE SWAP1 DUP5 AND DUP2 MSTORE KECCAK256 SLOAD PUSH2 0x25C6 SWAP1 DUP3 PUSH2 0x26B7 JUMP JUMPDEST PUSH1 0x1 PUSH1 0x1 PUSH1 0xA0 SHL SUB DUP1 DUP5 AND PUSH1 0x0 DUP2 DUP2 MSTORE PUSH1 0x20 DUP2 DUP2 MSTORE PUSH1 0x40 SWAP2 DUP3 SWAP1 KECCAK256 SWAP5 SWAP1 SWAP5 SSTORE DUP1 MLOAD DUP6 DUP2 MSTORE SWAP1 MLOAD SWAP2 SWAP4 SWAP3 DUP8 AND SWAP3 PUSH32 0xDDF252AD1BE2C89B69C2B068FC378DAA952BA7F163C4A11628F55A4DF523B3EF SWAP3 SWAP2 DUP3 SWAP1 SUB ADD SWAP1 LOG3 POP POP POP JUMP JUMPDEST PUSH1 0x0 DUP2 DUP5 DUP5 GT ISZERO PUSH2 0x26AF JUMPI PUSH1 0x40 MLOAD PUSH3 0x461BCD PUSH1 0xE5 SHL DUP2 MSTORE PUSH1 0x4 ADD DUP1 DUP1 PUSH1 0x20 ADD DUP3 DUP2 SUB DUP3 MSTORE DUP4 DUP2 DUP2 MLOAD DUP2 MSTORE PUSH1 0x20 ADD SWAP2 POP DUP1 MLOAD SWAP1 PUSH1 0x20 ADD SWAP1 DUP1 DUP4 DUP4 PUSH1 0x0 JUMPDEST DUP4 DUP2 LT ISZERO PUSH2 0x2674 JUMPI DUP2 DUP2 ADD MLOAD DUP4 DUP3 ADD MSTORE PUSH1 0x20 ADD PUSH2 0x265C JUMP JUMPDEST POP POP POP POP SWAP1 POP SWAP1 DUP2 ADD SWAP1 PUSH1 0x1F AND DUP1 ISZERO PUSH2 0x26A1 JUMPI DUP1 DUP3 SUB DUP1 MLOAD PUSH1 0x1 DUP4 PUSH1 0x20 SUB PUSH2 0x100 EXP SUB NOT AND DUP2 MSTORE PUSH1 0x20 ADD SWAP2 POP JUMPDEST POP SWAP3 POP POP POP PUSH1 0x40 MLOAD DUP1 SWAP2 SUB SWAP1 REVERT JUMPDEST POP POP POP SWAP1 SUB SWAP1 JUMP JUMPDEST PUSH1 0x0 DUP3 DUP3 ADD DUP4 DUP2 LT ISZERO PUSH2 0x1A65 JUMPI PUSH1 0x40 DUP1 MLOAD PUSH3 0x461BCD PUSH1 0xE5 SHL DUP2 MSTORE PUSH1 0x20 PUSH1 0x4 DUP3 ADD MSTORE PUSH1 0x1B PUSH1 0x24 DUP3 ADD MSTORE PUSH32 0x536166654D6174683A206164646974696F6E206F766572666C6F770000000000 PUSH1 0x44 DUP3 ADD MSTORE SWAP1 MLOAD SWAP1 DUP2 SWAP1 SUB PUSH1 0x64 ADD SWAP1 REVERT JUMPDEST PUSH1 0x1 PUSH1 0x1 PUSH1 0xA0 SHL SUB DUP3 AND PUSH2 0x2756 JUMPI PUSH1 0x40 MLOAD PUSH3 0x461BCD PUSH1 0xE5 SHL DUP2 MSTORE PUSH1 0x4 ADD DUP1 DUP1 PUSH1 0x20 ADD DUP3 DUP2 SUB DUP3 MSTORE PUSH1 0x21 DUP2 MSTORE PUSH1 0x20 ADD DUP1 PUSH2 0x3281 PUSH1 0x21 SWAP2 CODECOPY PUSH1 0x40 ADD SWAP2 POP POP PUSH1 0x40 MLOAD DUP1 SWAP2 SUB SWAP1 REVERT JUMPDEST PUSH2 0x2762 DUP3 PUSH1 0x0 DUP4 PUSH2 0x29AD JUMP JUMPDEST PUSH2 0x279F DUP2 PUSH1 0x40 MLOAD DUP1 PUSH1 0x60 ADD PUSH1 0x40 MSTORE DUP1 PUSH1 0x22 DUP2 MSTORE PUSH1 0x20 ADD PUSH2 0x31A8 PUSH1 0x22 SWAP2 CODECOPY PUSH1 0x1 PUSH1 0x1 PUSH1 0xA0 SHL SUB DUP6 AND PUSH1 0x0 SWAP1 DUP2 MSTORE PUSH1 0x20 DUP2 SWAP1 MSTORE PUSH1 0x40 SWAP1 KECCAK256 SLOAD SWAP2 SWAP1 PUSH2 0x2620 JUMP JUMPDEST PUSH1 0x1 PUSH1 0x1 PUSH1 0xA0 SHL SUB DUP4 AND PUSH1 0x0 SWAP1 DUP2 MSTORE PUSH1 0x20 DUP2 SWAP1 MSTORE PUSH1 0x40 SWAP1 KECCAK256 SSTORE PUSH1 0x2 SLOAD PUSH2 0x27C5 SWAP1 DUP3 PUSH2 0x29B2 JUMP JUMPDEST PUSH1 0x2 SSTORE PUSH1 0x40 DUP1 MLOAD DUP3 DUP2 MSTORE SWAP1 MLOAD PUSH1 0x0 SWAP2 PUSH1 0x1 PUSH1 0x1 PUSH1 0xA0 SHL SUB DUP6 AND SWAP2 PUSH32 0xDDF252AD1BE2C89B69C2B068FC378DAA952BA7F163C4A11628F55A4DF523B3EF SWAP2 DUP2 SWAP1 SUB PUSH1 0x20 ADD SWAP1 LOG3 POP POP JUMP JUMPDEST PUSH1 0x0 PUSH2 0x2818 DUP4 PUSH2 0x2A50 JUMP JUMPDEST ISZERO PUSH2 0x282E JUMPI POP PUSH1 0x1 PUSH1 0x1 PUSH1 0xA0 SHL SUB DUP2 AND BALANCE PUSH2 0xB39 JUMP JUMPDEST DUP3 PUSH1 0x1 PUSH1 0x1 PUSH1 0xA0 SHL SUB AND PUSH4 0x70A08231 DUP4 PUSH1 0x40 MLOAD DUP3 PUSH4 0xFFFFFFFF AND PUSH1 0xE0 SHL DUP2 MSTORE PUSH1 0x4 ADD DUP1 DUP3 PUSH1 0x1 PUSH1 0x1 PUSH1 0xA0 SHL SUB AND DUP2 MSTORE PUSH1 0x20 ADD SWAP2 POP POP PUSH1 0x20 PUSH1 0x40 MLOAD DUP1 DUP4 SUB DUP2 DUP7 DUP1 EXTCODESIZE ISZERO DUP1 ISZERO PUSH2 0x287B JUMPI PUSH1 0x0 DUP1 REVERT JUMPDEST POP GAS STATICCALL ISZERO DUP1 ISZERO PUSH2 0x288F JUMPI RETURNDATASIZE PUSH1 0x0 DUP1 RETURNDATACOPY RETURNDATASIZE PUSH1 0x0 REVERT JUMPDEST POP POP POP POP PUSH1 0x40 MLOAD RETURNDATASIZE PUSH1 0x20 DUP2 LT ISZERO PUSH2 0x28A5 JUMPI PUSH1 0x0 DUP1 REVERT JUMPDEST POP MLOAD SWAP1 POP PUSH2 0xB39 JUMP JUMPDEST PUSH1 0x0 DUP3 PUSH2 0x28BD JUMPI POP PUSH1 0x0 PUSH2 0xB39 JUMP JUMPDEST DUP3 DUP3 MUL DUP3 DUP5 DUP3 DUP2 PUSH2 0x28CA JUMPI INVALID JUMPDEST DIV EQ PUSH2 0x1A65 JUMPI PUSH1 0x40 MLOAD PUSH3 0x461BCD PUSH1 0xE5 SHL DUP2 MSTORE PUSH1 0x4 ADD DUP1 DUP1 PUSH1 0x20 ADD DUP3 DUP2 SUB DUP3 MSTORE PUSH1 0x21 DUP2 MSTORE PUSH1 0x20 ADD DUP1 PUSH2 0x3238 PUSH1 0x21 SWAP2 CODECOPY PUSH1 0x40 ADD SWAP2 POP POP PUSH1 0x40 MLOAD DUP1 SWAP2 SUB SWAP1 REVERT JUMPDEST PUSH1 0x0 PUSH2 0x1A65 DUP4 DUP4 PUSH1 0x40 MLOAD DUP1 PUSH1 0x40 ADD PUSH1 0x40 MSTORE DUP1 PUSH1 0x1A DUP2 MSTORE PUSH1 0x20 ADD PUSH32 0x536166654D6174683A206469766973696F6E206279207A65726F000000000000 DUP2 MSTORE POP PUSH2 0x2D58 JUMP JUMPDEST DUP1 ISZERO PUSH2 0x29AD JUMPI PUSH2 0x2958 DUP4 PUSH2 0x2A50 JUMP JUMPDEST ISZERO PUSH2 0x2999 JUMPI PUSH1 0x40 MLOAD PUSH1 0x1 PUSH1 0x1 PUSH1 0xA0 SHL SUB DUP4 AND SWAP1 DUP3 ISZERO PUSH2 0x8FC MUL SWAP1 DUP4 SWAP1 PUSH1 0x0 DUP2 DUP2 DUP2 DUP6 DUP9 DUP9 CALL SWAP4 POP POP POP POP ISZERO DUP1 ISZERO PUSH2 0x2993 JUMPI RETURNDATASIZE PUSH1 0x0 DUP1 RETURNDATACOPY RETURNDATASIZE PUSH1 0x0 REVERT JUMPDEST POP PUSH2 0x29AD JUMP JUMPDEST PUSH2 0x29AD PUSH1 0x1 PUSH1 0x1 PUSH1 0xA0 SHL SUB DUP5 AND DUP4 DUP4 PUSH2 0x2DBD JUMP JUMPDEST POP POP POP JUMP JUMPDEST PUSH1 0x0 PUSH2 0x1A65 DUP4 DUP4 PUSH1 0x40 MLOAD DUP1 PUSH1 0x40 ADD PUSH1 0x40 MSTORE DUP1 PUSH1 0x1E DUP2 MSTORE PUSH1 0x20 ADD PUSH32 0x536166654D6174683A207375627472616374696F6E206F766572666C6F770000 DUP2 MSTORE POP PUSH2 0x2620 JUMP JUMPDEST PUSH2 0x2A4A DUP5 PUSH2 0x2A45 DUP4 PUSH2 0xD3B PUSH2 0x2A0A DUP3 PUSH1 0x1 PUSH2 0x29B2 JUMP JUMPDEST PUSH1 0x40 DUP1 MLOAD DUP1 DUP3 ADD SWAP1 SWAP2 MSTORE DUP11 SLOAD PUSH1 0x1 PUSH1 0x1 PUSH1 0xD8 SHL SUB DUP2 AND DUP3 MSTORE PUSH1 0x1 PUSH1 0xD8 SHL SWAP1 DIV PUSH5 0xFFFFFFFFFF AND PUSH1 0x20 DUP3 ADD MSTORE PUSH2 0x1F77 SWAP1 DUP10 SWAP1 PUSH2 0x18D3 SWAP1 DUP13 PUSH2 0x2A5D JUMP JUMPDEST PUSH2 0x2BA7 JUMP JUMPDEST POP POP POP POP JUMP JUMPDEST PUSH1 0x1 PUSH1 0x1 PUSH1 0xA0 SHL SUB AND ISZERO SWAP1 JUMP JUMPDEST PUSH1 0x0 DUP1 PUSH2 0x2A84 PUSH2 0x12C PUSH2 0x1EBA DUP7 PUSH1 0x20 ADD MLOAD PUSH5 0xFFFFFFFFFF AND TIMESTAMP PUSH2 0x29B2 SWAP1 SWAP2 SWAP1 PUSH4 0xFFFFFFFF AND JUMP JUMPDEST SWAP1 POP PUSH1 0x0 PUSH2 0x2A94 PUSH2 0x12C DUP4 PUSH2 0x29B2 JUMP JUMPDEST SWAP1 POP PUSH2 0x24BC PUSH2 0x12C PUSH2 0xD3B PUSH2 0x2AA9 DUP8 DUP7 PUSH2 0x28AE JUMP JUMPDEST DUP9 MLOAD PUSH2 0x1F77 SWAP1 PUSH1 0x1 PUSH1 0x1 PUSH1 0xD8 SHL SUB AND DUP7 PUSH2 0x28AE JUMP JUMPDEST PUSH1 0x0 DUP2 DUP4 LT ISZERO PUSH2 0x2ACE JUMPI DUP2 PUSH2 0x1A65 JUMP JUMPDEST POP SWAP1 SWAP2 SWAP1 POP JUMP JUMPDEST PUSH1 0x0 DUP2 DUP4 LT PUSH2 0x2ACE JUMPI DUP2 PUSH2 0x1A65 JUMP JUMPDEST DUP1 ISZERO PUSH2 0x13BF JUMPI PUSH2 0x2AF3 DUP3 PUSH2 0x2A50 JUMP JUMPDEST ISZERO PUSH2 0x2B92 JUMPI DUP1 CALLVALUE LT ISZERO PUSH2 0x2B4D JUMPI PUSH1 0x40 DUP1 MLOAD PUSH3 0x461BCD PUSH1 0xE5 SHL DUP2 MSTORE PUSH1 0x20 PUSH1 0x4 DUP3 ADD MSTORE PUSH1 0x1A PUSH1 0x24 DUP3 ADD MSTORE PUSH32 0x556E6945524332303A206E6F7420656E6F7567682076616C7565000000000000 PUSH1 0x44 DUP3 ADD MSTORE SWAP1 MLOAD SWAP1 DUP2 SWAP1 SUB PUSH1 0x64 ADD SWAP1 REVERT JUMPDEST DUP1 CALLVALUE GT ISZERO PUSH2 0x2B8D JUMPI CALLER PUSH2 0x8FC PUSH2 0x2B63 CALLVALUE DUP5 PUSH2 0x29B2 JUMP JUMPDEST PUSH1 0x40 MLOAD DUP2 ISZERO SWAP1 SWAP3 MUL SWAP2 PUSH1 0x0 DUP2 DUP2 DUP2 DUP6 DUP9 DUP9 CALL SWAP4 POP POP POP POP ISZERO DUP1 ISZERO PUSH2 0x2B8B JUMPI RETURNDATASIZE PUSH1 0x0 DUP1 RETURNDATACOPY RETURNDATASIZE PUSH1 0x0 REVERT JUMPDEST POP JUMPDEST PUSH2 0x13BF JUMP JUMPDEST PUSH2 0x13BF PUSH1 0x1 PUSH1 0x1 PUSH1 0xA0 SHL SUB DUP4 AND CALLER ADDRESS DUP5 PUSH2 0x2E0F JUMP JUMPDEST DUP2 SLOAD PUSH1 0x1 PUSH1 0x1 PUSH1 0xD8 SHL SUB NOT AND PUSH1 0x1 PUSH1 0x1 PUSH1 0xD8 SHL SUB SWAP2 DUP3 AND OR AND PUSH1 0x1 PUSH1 0xD8 SHL TIMESTAMP PUSH5 0xFFFFFFFFFF AND MUL OR SWAP1 SSTORE JUMP JUMPDEST PUSH1 0x40 DUP1 MLOAD DUP1 DUP3 ADD SWAP1 SWAP2 MSTORE DUP3 SLOAD PUSH1 0x1 PUSH1 0x1 PUSH1 0xD8 SHL SUB DUP2 AND DUP3 MSTORE PUSH1 0x1 PUSH1 0xD8 SHL SWAP1 DIV PUSH5 0xFFFFFFFFFF AND PUSH1 0x20 DUP3 ADD MSTORE PUSH2 0x13BF SWAP1 DUP4 SWAP1 PUSH2 0x2A45 SWAP1 DUP5 PUSH2 0x2A5D JUMP JUMPDEST PUSH1 0x0 PUSH1 0x3 DUP3 GT ISZERO PUSH2 0x2C52 JUMPI DUP2 PUSH1 0x1 PUSH1 0x2 DUP3 DIV ADD JUMPDEST DUP2 DUP2 LT ISZERO PUSH2 0x2C4A JUMPI DUP1 SWAP2 POP PUSH1 0x2 DUP2 DUP3 DUP7 DUP2 PUSH2 0x2C39 JUMPI INVALID JUMPDEST DIV ADD DUP2 PUSH2 0x2C42 JUMPI INVALID JUMPDEST DIV SWAP1 POP PUSH2 0x2C22 JUMP JUMPDEST POP SWAP1 POP PUSH2 0xEE3 JUMP JUMPDEST DUP2 ISZERO PUSH2 0x2C60 JUMPI POP PUSH1 0x1 PUSH2 0xEE3 JUMP JUMPDEST POP PUSH1 0x0 PUSH2 0xEE3 JUMP JUMPDEST PUSH1 0x1 PUSH1 0x1 PUSH1 0xA0 SHL SUB DUP3 AND PUSH2 0x2CC3 JUMPI PUSH1 0x40 DUP1 MLOAD PUSH3 0x461BCD PUSH1 0xE5 SHL DUP2 MSTORE PUSH1 0x20 PUSH1 0x4 DUP3 ADD MSTORE PUSH1 0x1F PUSH1 0x24 DUP3 ADD MSTORE PUSH32 0x45524332303A206D696E7420746F20746865207A65726F206164647265737300 PUSH1 0x44 DUP3 ADD MSTORE SWAP1 MLOAD SWAP1 DUP2 SWAP1 SUB PUSH1 0x64 ADD SWAP1 REVERT JUMPDEST PUSH2 0x2CCF PUSH1 0x0 DUP4 DUP4 PUSH2 0x29AD JUMP JUMPDEST PUSH1 0x2 SLOAD PUSH2 0x2CDC SWAP1 DUP3 PUSH2 0x26B7 JUMP JUMPDEST PUSH1 0x2 SSTORE PUSH1 0x1 PUSH1 0x1 PUSH1 0xA0 SHL SUB DUP3 AND PUSH1 0x0 SWAP1 DUP2 MSTORE PUSH1 0x20 DUP2 SWAP1 MSTORE PUSH1 0x40 SWAP1 KECCAK256 SLOAD PUSH2 0x2D02 SWAP1 DUP3 PUSH2 0x26B7 JUMP JUMPDEST PUSH1 0x1 PUSH1 0x1 PUSH1 0xA0 SHL SUB DUP4 AND PUSH1 0x0 DUP2 DUP2 MSTORE PUSH1 0x20 DUP2 DUP2 MSTORE PUSH1 0x40 DUP1 DUP4 KECCAK256 SWAP5 SWAP1 SWAP5 SSTORE DUP4 MLOAD DUP6 DUP2 MSTORE SWAP4 MLOAD SWAP3 SWAP4 SWAP2 SWAP3 PUSH32 0xDDF252AD1BE2C89B69C2B068FC378DAA952BA7F163C4A11628F55A4DF523B3EF SWAP3 DUP2 SWAP1 SUB SWAP1 SWAP2 ADD SWAP1 LOG3 POP POP JUMP JUMPDEST PUSH1 0x0 DUP2 DUP4 PUSH2 0x2DA7 JUMPI PUSH1 0x40 MLOAD PUSH3 0x461BCD PUSH1 0xE5 SHL DUP2 MSTORE PUSH1 0x20 PUSH1 0x4 DUP3 ADD DUP2 DUP2 MSTORE DUP4 MLOAD PUSH1 0x24 DUP5 ADD MSTORE DUP4 MLOAD SWAP1 SWAP3 DUP4 SWAP3 PUSH1 0x44 SWAP1 SWAP2 ADD SWAP2 SWAP1 DUP6 ADD SWAP1 DUP1 DUP4 DUP4 PUSH1 0x0 DUP4 ISZERO PUSH2 0x2674 JUMPI DUP2 DUP2 ADD MLOAD DUP4 DUP3 ADD MSTORE PUSH1 0x20 ADD PUSH2 0x265C JUMP JUMPDEST POP PUSH1 0x0 DUP4 DUP6 DUP2 PUSH2 0x2DB3 JUMPI INVALID JUMPDEST DIV SWAP6 SWAP5 POP POP POP POP POP JUMP JUMPDEST PUSH1 0x40 DUP1 MLOAD PUSH1 0x1 PUSH1 0x1 PUSH1 0xA0 SHL SUB DUP5 AND PUSH1 0x24 DUP3 ADD MSTORE PUSH1 0x44 DUP1 DUP3 ADD DUP5 SWAP1 MSTORE DUP3 MLOAD DUP1 DUP4 SUB SWAP1 SWAP2 ADD DUP2 MSTORE PUSH1 0x64 SWAP1 SWAP2 ADD SWAP1 SWAP2 MSTORE PUSH1 0x20 DUP2 ADD DUP1 MLOAD PUSH1 0x1 PUSH1 0x1 PUSH1 0xE0 SHL SUB AND PUSH4 0xA9059CBB PUSH1 0xE0 SHL OR SWAP1 MSTORE PUSH2 0x29AD SWAP1 DUP5 SWAP1 PUSH2 0x2E65 JUMP JUMPDEST PUSH1 0x40 DUP1 MLOAD PUSH1 0x1 PUSH1 0x1 PUSH1 0xA0 SHL SUB DUP1 DUP7 AND PUSH1 0x24 DUP4 ADD MSTORE DUP5 AND PUSH1 0x44 DUP3 ADD MSTORE PUSH1 0x64 DUP1 DUP3 ADD DUP5 SWAP1 MSTORE DUP3 MLOAD DUP1 DUP4 SUB SWAP1 SWAP2 ADD DUP2 MSTORE PUSH1 0x84 SWAP1 SWAP2 ADD SWAP1 SWAP2 MSTORE PUSH1 0x20 DUP2 ADD DUP1 MLOAD PUSH1 0x1 PUSH1 0x1 PUSH1 0xE0 SHL SUB AND PUSH4 0x23B872DD PUSH1 0xE0 SHL OR SWAP1 MSTORE PUSH2 0x2A4A SWAP1 DUP6 SWAP1 JUMPDEST PUSH1 0x60 PUSH2 0x2EBA DUP3 PUSH1 0x40 MLOAD DUP1 PUSH1 0x40 ADD PUSH1 0x40 MSTORE DUP1 PUSH1 0x20 DUP2 MSTORE PUSH1 0x20 ADD PUSH32 0x5361666545524332303A206C6F772D6C6576656C2063616C6C206661696C6564 DUP2 MSTORE POP DUP6 PUSH1 0x1 PUSH1 0x1 PUSH1 0xA0 SHL SUB AND PUSH2 0x2F16 SWAP1 SWAP3 SWAP2 SWAP1 PUSH4 0xFFFFFFFF AND JUMP JUMPDEST DUP1 MLOAD SWAP1 SWAP2 POP ISZERO PUSH2 0x29AD JUMPI DUP1 DUP1 PUSH1 0x20 ADD SWAP1 MLOAD PUSH1 0x20 DUP2 LT ISZERO PUSH2 0x2ED9 JUMPI PUSH1 0x0 DUP1 REVERT JUMPDEST POP MLOAD PUSH2 0x29AD JUMPI PUSH1 0x40 MLOAD PUSH3 0x461BCD PUSH1 0xE5 SHL DUP2 MSTORE PUSH1 0x4 ADD DUP1 DUP1 PUSH1 0x20 ADD DUP3 DUP2 SUB DUP3 MSTORE PUSH1 0x2A DUP2 MSTORE PUSH1 0x20 ADD DUP1 PUSH2 0x32EB PUSH1 0x2A SWAP2 CODECOPY PUSH1 0x40 ADD SWAP2 POP POP PUSH1 0x40 MLOAD DUP1 SWAP2 SUB SWAP1 REVERT JUMPDEST PUSH1 0x60 PUSH2 0xB79 DUP5 DUP5 PUSH1 0x0 DUP6 PUSH1 0x60 PUSH2 0x2F2B DUP6 PUSH2 0x308D JUMP JUMPDEST PUSH2 0x2F7C JUMPI PUSH1 0x40 DUP1 MLOAD PUSH3 0x461BCD PUSH1 0xE5 SHL DUP2 MSTORE PUSH1 0x20 PUSH1 0x4 DUP3 ADD MSTORE PUSH1 0x1D PUSH1 0x24 DUP3 ADD MSTORE PUSH32 0x416464726573733A2063616C6C20746F206E6F6E2D636F6E7472616374000000 PUSH1 0x44 DUP3 ADD MSTORE SWAP1 MLOAD SWAP1 DUP2 SWAP1 SUB PUSH1 0x64 ADD SWAP1 REVERT JUMPDEST PUSH1 0x0 PUSH1 0x60 DUP7 PUSH1 0x1 PUSH1 0x1 PUSH1 0xA0 SHL SUB AND DUP6 DUP8 PUSH1 0x40 MLOAD DUP1 DUP3 DUP1 MLOAD SWAP1 PUSH1 0x20 ADD SWAP1 DUP1 DUP4 DUP4 JUMPDEST PUSH1 0x20 DUP4 LT PUSH2 0x2FBB JUMPI DUP1 MLOAD DUP3 MSTORE PUSH1 0x1F NOT SWAP1 SWAP3 ADD SWAP2 PUSH1 0x20 SWAP2 DUP3 ADD SWAP2 ADD PUSH2 0x2F9C JUMP JUMPDEST PUSH1 0x1 DUP4 PUSH1 0x20 SUB PUSH2 0x100 EXP SUB DUP1 NOT DUP3 MLOAD AND DUP2 DUP5 MLOAD AND DUP1 DUP3 OR DUP6 MSTORE POP POP POP POP POP POP SWAP1 POP ADD SWAP2 POP POP PUSH1 0x0 PUSH1 0x40 MLOAD DUP1 DUP4 SUB DUP2 DUP6 DUP8 GAS CALL SWAP3 POP POP POP RETURNDATASIZE DUP1 PUSH1 0x0 DUP2 EQ PUSH2 0x301D JUMPI PUSH1 0x40 MLOAD SWAP2 POP PUSH1 0x1F NOT PUSH1 0x3F RETURNDATASIZE ADD AND DUP3 ADD PUSH1 0x40 MSTORE RETURNDATASIZE DUP3 MSTORE RETURNDATASIZE PUSH1 0x0 PUSH1 0x20 DUP5 ADD RETURNDATACOPY PUSH2 0x3022 JUMP JUMPDEST PUSH1 0x60 SWAP2 POP JUMPDEST POP SWAP2 POP SWAP2 POP DUP2 ISZERO PUSH2 0x3036 JUMPI SWAP2 POP PUSH2 0xB79 SWAP1 POP JUMP JUMPDEST DUP1 MLOAD ISZERO PUSH2 0x3046 JUMPI DUP1 MLOAD DUP1 DUP3 PUSH1 0x20 ADD REVERT JUMPDEST PUSH1 0x40 MLOAD PUSH3 0x461BCD PUSH1 0xE5 SHL DUP2 MSTORE PUSH1 0x20 PUSH1 0x4 DUP3 ADD DUP2 DUP2 MSTORE DUP7 MLOAD PUSH1 0x24 DUP5 ADD MSTORE DUP7 MLOAD DUP8 SWAP4 SWAP2 SWAP3 DUP4 SWAP3 PUSH1 0x44 ADD SWAP2 SWAP1 DUP6 ADD SWAP1 DUP1 DUP4 DUP4 PUSH1 0x0 DUP4 ISZERO PUSH2 0x2674 JUMPI DUP2 DUP2 ADD MLOAD DUP4 DUP3 ADD MSTORE PUSH1 0x20 ADD PUSH2 0x265C JUMP JUMPDEST PUSH1 0x0 DUP2 EXTCODEHASH PUSH32 0xC5D2460186F7233C927E7DB2DCC703C0E500B653CA82273B7BFAD8045D85A470 DUP2 DUP2 EQ DUP1 ISZERO SWAP1 PUSH2 0xB79 JUMPI POP POP ISZERO ISZERO SWAP3 SWAP2 POP POP JUMP JUMPDEST DUP3 DUP1 SLOAD DUP3 DUP3 SSTORE SWAP1 PUSH1 0x0 MSTORE PUSH1 0x20 PUSH1 0x0 KECCAK256 SWAP1 DUP2 ADD SWAP3 DUP3 ISZERO PUSH2 0x311B JUMPI SWAP2 PUSH1 0x20 MUL DUP3 ADD JUMPDEST DUP3 DUP2 GT ISZERO PUSH2 0x311B JUMPI DUP3 MLOAD DUP3 SLOAD PUSH1 0x1 PUSH1 0x1 PUSH1 0xA0 SHL SUB NOT AND PUSH1 0x1 PUSH1 0x1 PUSH1 0xA0 SHL SUB SWAP1 SWAP2 AND OR DUP3 SSTORE PUSH1 0x20 SWAP1 SWAP3 ADD SWAP2 PUSH1 0x1 SWAP1 SWAP2 ADD SWAP1 PUSH2 0x30E6 JUMP JUMPDEST POP PUSH2 0x3127 SWAP3 SWAP2 POP PUSH2 0x3145 JUMP JUMPDEST POP SWAP1 JUMP JUMPDEST PUSH1 0x40 MLOAD DUP1 PUSH1 0x40 ADD PUSH1 0x40 MSTORE DUP1 PUSH1 0x0 DUP2 MSTORE PUSH1 0x20 ADD PUSH1 0x0 DUP2 MSTORE POP SWAP1 JUMP JUMPDEST JUMPDEST DUP1 DUP3 GT ISZERO PUSH2 0x3127 JUMPI DUP1 SLOAD PUSH1 0x1 PUSH1 0x1 PUSH1 0xA0 SHL SUB NOT AND DUP2 SSTORE PUSH1 0x1 ADD PUSH2 0x3146 JUMP INVALID GASLIMIT MSTORE NUMBER ORIGIN ADDRESS GASPRICE KECCAK256 PUSH21 0x72616E7366657220746F20746865207A65726F2061 PUSH5 0x6472657373 MSTORE PUSH6 0x656E7472616E PUSH4 0x79477561 PUSH19 0x643A207265656E7472616E742063616C6C0045 MSTORE NUMBER ORIGIN ADDRESS GASPRICE KECCAK256 PUSH3 0x75726E KECCAK256 PUSH2 0x6D6F PUSH22 0x6E7420657863656564732062616C616E63654F776E61 PUSH3 0x6C653A KECCAK256 PUSH15 0x6577206F776E657220697320746865 KECCAK256 PUSH27 0x65726F206164647265737345524332303A20617070726F76652074 PUSH16 0x20746865207A65726F20616464726573 PUSH20 0x45524332303A207472616E7366657220616D6F75 PUSH15 0x7420657863656564732062616C616E PUSH4 0x65536166 PUSH6 0x4D6174683A20 PUSH14 0x756C7469706C69636174696F6E20 PUSH16 0x766572666C6F7745524332303A207472 PUSH2 0x6E73 PUSH7 0x657220616D6F75 PUSH15 0x74206578636565647320616C6C6F77 PUSH2 0x6E63 PUSH6 0x45524332303A KECCAK256 PUSH3 0x75726E KECCAK256 PUSH7 0x726F6D20746865 KECCAK256 PUSH27 0x65726F206164647265737345524332303A207472616E7366657220 PUSH7 0x726F6D20746865 KECCAK256 PUSH27 0x65726F206164647265737345524332303A20617070726F76652066 PUSH19 0x6F6D20746865207A65726F2061646472657373 MSTORE8 PUSH2 0x6665 GASLIMIT MSTORE NUMBER ORIGIN ADDRESS GASPRICE KECCAK256 GASLIMIT MSTORE NUMBER ORIGIN ADDRESS KECCAK256 PUSH16 0x7065726174696F6E20646964206E6F74 KECCAK256 PUSH20 0x75636365656445524332303A2064656372656173 PUSH6 0x6420616C6C6F PUSH24 0x616E63652062656C6F77207A65726FA26469706673582212 KECCAK256 0xA7 PUSH10 0xDA29BC38F2609327A22C 0xD5 PUSH14 0xDD579885CB906F69D9CF0714DD87 0xDB ISZERO EXTCODESIZE 0xEC PUSH5 0x736F6C6343 STOP MOD 0xC STOP CALLER "
				},
				"gasEstimates": {
					"creation": {
						"codeDepositCost": "2633400",
						"executionCost": "infinite",
						"totalCost": "infinite"
					},
					"external": {
						"BASE_SUPPLY()": "309",
						"FEE_DENOMINATOR()": "287",
						"REFERRAL_SHARE()": "287",
						"allowance(address,address)": "1294",
						"approve(address,uint256)": "infinite",
						"balanceOf(address)": "1221",
						"decayPeriod()": "244",
						"decimals()": "1103",
						"decreaseAllowance(address,uint256)": "infinite",
						"deposit(uint256[],uint256[])": "infinite",
						"factory()": "1082",
						"fee()": "infinite",
						"getBalanceForAddition(address)": "infinite",
						"getBalanceForRemoval(address)": "infinite",
						"getReturn(address,address,uint256)": "infinite",
						"getTokens()": "infinite",
						"increaseAllowance(address,uint256)": "infinite",
						"initialize(address[])": "infinite",
						"isToken(address)": "1249",
						"name()": "infinite",
						"owner()": "1170",
						"renounceOwnership()": "24290",
						"rescueFunds(address,uint256)": "infinite",
						"swap(address,address,uint256,uint256,address)": "infinite",
						"symbol()": "infinite",
						"tokens(uint256)": "2038",
						"totalSupply()": "1089",
						"transfer(address,uint256)": "infinite",
						"transferFrom(address,address,uint256)": "infinite",
						"transferOwnership(address)": "infinite",
						"virtualBalancesForAddition(address)": "1264",
						"virtualBalancesForRemoval(address)": "1331",
						"volumes(address)": "1301",
						"withdraw(uint256,uint256[])": "infinite"
					},
					"internal": {
						"_getReturn(contract IERC20,contract IERC20,uint256,uint256,uint256)": "infinite"
					}
				},
				"methodIdentifiers": {
					"BASE_SUPPLY()": "baf13a0a",
					"FEE_DENOMINATOR()": "d73792a9",
					"REFERRAL_SHARE()": "b21b5a21",
					"allowance(address,address)": "dd62ed3e",
					"approve(address,uint256)": "095ea7b3",
					"balanceOf(address)": "70a08231",
					"decayPeriod()": "48d67e1b",
					"decimals()": "313ce567",
					"decreaseAllowance(address,uint256)": "a457c2d7",
					"deposit(uint256[],uint256[])": "f223885a",
					"factory()": "c45a0155",
					"fee()": "ddca3f43",
					"getBalanceForAddition(address)": "d7d3aab5",
					"getBalanceForRemoval(address)": "e7ff42c9",
					"getReturn(address,address,uint256)": "1e1401f8",
					"getTokens()": "aa6ca808",
					"increaseAllowance(address,uint256)": "39509351",
					"initialize(address[])": "a224cee7",
					"isToken(address)": "19f37361",
					"name()": "06fdde03",
					"owner()": "8da5cb5b",
					"renounceOwnership()": "715018a6",
					"rescueFunds(address,uint256)": "78e3214f",
					"swap(address,address,uint256,uint256,address)": "d5bcb9b5",
					"symbol()": "95d89b41",
					"tokens(uint256)": "4f64b2be",
					"totalSupply()": "18160ddd",
					"transfer(address,uint256)": "a9059cbb",
					"transferFrom(address,address,uint256)": "23b872dd",
					"transferOwnership(address)": "f2fde38b",
					"virtualBalancesForAddition(address)": "6edc2c09",
					"virtualBalancesForRemoval(address)": "5ed9156d",
					"volumes(address)": "b1ec4c40",
					"withdraw(uint256,uint256[])": "5915d806"
				}
			},
			"storageLayout": {
				"storage": [
					{
						"astId": 421,
						"contract": "contracts/Mooniswap.sol:Mooniswap",
						"label": "_balances",
						"offset": 0,
						"slot": "0",
						"type": "t_mapping(t_address,t_uint256)"
					},
					{
						"astId": 427,
						"contract": "contracts/Mooniswap.sol:Mooniswap",
						"label": "_allowances",
						"offset": 0,
						"slot": "1",
						"type": "t_mapping(t_address,t_mapping(t_address,t_uint256))"
					},
					{
						"astId": 429,
						"contract": "contracts/Mooniswap.sol:Mooniswap",
						"label": "_totalSupply",
						"offset": 0,
						"slot": "2",
						"type": "t_uint256"
					},
					{
						"astId": 431,
						"contract": "contracts/Mooniswap.sol:Mooniswap",
						"label": "_name",
						"offset": 0,
						"slot": "3",
						"type": "t_string_storage"
					},
					{
						"astId": 433,
						"contract": "contracts/Mooniswap.sol:Mooniswap",
						"label": "_symbol",
						"offset": 0,
						"slot": "4",
						"type": "t_string_storage"
					},
					{
						"astId": 435,
						"contract": "contracts/Mooniswap.sol:Mooniswap",
						"label": "_decimals",
						"offset": 0,
						"slot": "5",
						"type": "t_uint8"
					},
					{
						"astId": 1413,
						"contract": "contracts/Mooniswap.sol:Mooniswap",
						"label": "_status",
						"offset": 0,
						"slot": "6",
						"type": "t_uint256"
					},
					{
						"astId": 30,
						"contract": "contracts/Mooniswap.sol:Mooniswap",
						"label": "_owner",
						"offset": 0,
						"slot": "7",
						"type": "t_address"
					},
					{
						"astId": 1663,
						"contract": "contracts/Mooniswap.sol:Mooniswap",
						"label": "factory",
						"offset": 0,
						"slot": "8",
						"type": "t_contract(IFactory)1457"
					},
					{
						"astId": 1666,
						"contract": "contracts/Mooniswap.sol:Mooniswap",
						"label": "tokens",
						"offset": 0,
						"slot": "9",
						"type": "t_array(t_contract(IERC20)985)dyn_storage"
					},
					{
						"astId": 1670,
						"contract": "contracts/Mooniswap.sol:Mooniswap",
						"label": "isToken",
						"offset": 0,
						"slot": "10",
						"type": "t_mapping(t_contract(IERC20)985,t_bool)"
					},
					{
						"astId": 1674,
						"contract": "contracts/Mooniswap.sol:Mooniswap",
						"label": "volumes",
						"offset": 0,
						"slot": "11",
						"type": "t_mapping(t_contract(IERC20)985,t_struct(SwapVolumes)1620_storage)"
					},
					{
						"astId": 1678,
						"contract": "contracts/Mooniswap.sol:Mooniswap",
						"label": "virtualBalancesForAddition",
						"offset": 0,
						"slot": "12",
						"type": "t_mapping(t_contract(IERC20)985,t_struct(Data)1465_storage)"
					},
					{
						"astId": 1682,
						"contract": "contracts/Mooniswap.sol:Mooniswap",
						"label": "virtualBalancesForRemoval",
						"offset": 0,
						"slot": "13",
						"type": "t_mapping(t_contract(IERC20)985,t_struct(Data)1465_storage)"
					}
				],
				"types": {
					"t_address": {
						"encoding": "inplace",
						"label": "address",
						"numberOfBytes": "20"
					},
					"t_array(t_contract(IERC20)985)dyn_storage": {
						"base": "t_contract(IERC20)985",
						"encoding": "dynamic_array",
						"label": "contract IERC20[]",
						"numberOfBytes": "32"
					},
					"t_bool": {
						"encoding": "inplace",
						"label": "bool",
						"numberOfBytes": "1"
					},
					"t_contract(IERC20)985": {
						"encoding": "inplace",
						"label": "contract IERC20",
						"numberOfBytes": "20"
					},
					"t_contract(IFactory)1457": {
						"encoding": "inplace",
						"label": "contract IFactory",
						"numberOfBytes": "20"
					},
					"t_mapping(t_address,t_mapping(t_address,t_uint256))": {
						"encoding": "mapping",
						"key": "t_address",
						"label": "mapping(address => mapping(address => uint256))",
						"numberOfBytes": "32",
						"value": "t_mapping(t_address,t_uint256)"
					},
					"t_mapping(t_address,t_uint256)": {
						"encoding": "mapping",
						"key": "t_address",
						"label": "mapping(address => uint256)",
						"numberOfBytes": "32",
						"value": "t_uint256"
					},
					"t_mapping(t_contract(IERC20)985,t_bool)": {
						"encoding": "mapping",
						"key": "t_contract(IERC20)985",
						"label": "mapping(contract IERC20 => bool)",
						"numberOfBytes": "32",
						"value": "t_bool"
					},
					"t_mapping(t_contract(IERC20)985,t_struct(Data)1465_storage)": {
						"encoding": "mapping",
						"key": "t_contract(IERC20)985",
						"label": "mapping(contract IERC20 => struct VirtualBalance.Data)",
						"numberOfBytes": "32",
						"value": "t_struct(Data)1465_storage"
					},
					"t_mapping(t_contract(IERC20)985,t_struct(SwapVolumes)1620_storage)": {
						"encoding": "mapping",
						"key": "t_contract(IERC20)985",
						"label": "mapping(contract IERC20 => struct Mooniswap.SwapVolumes)",
						"numberOfBytes": "32",
						"value": "t_struct(SwapVolumes)1620_storage"
					},
					"t_string_storage": {
						"encoding": "bytes",
						"label": "string",
						"numberOfBytes": "32"
					},
					"t_struct(Data)1465_storage": {
						"encoding": "inplace",
						"label": "struct VirtualBalance.Data",
						"members": [
							{
								"astId": 1462,
								"contract": "contracts/Mooniswap.sol:Mooniswap",
								"label": "balance",
								"offset": 0,
								"slot": "0",
								"type": "t_uint216"
							},
							{
								"astId": 1464,
								"contract": "contracts/Mooniswap.sol:Mooniswap",
								"label": "time",
								"offset": 27,
								"slot": "0",
								"type": "t_uint40"
							}
						],
						"numberOfBytes": "32"
					},
					"t_struct(SwapVolumes)1620_storage": {
						"encoding": "inplace",
						"label": "struct Mooniswap.SwapVolumes",
						"members": [
							{
								"astId": 1617,
								"contract": "contracts/Mooniswap.sol:Mooniswap",
								"label": "confirmed",
								"offset": 0,
								"slot": "0",
								"type": "t_uint128"
							},
							{
								"astId": 1619,
								"contract": "contracts/Mooniswap.sol:Mooniswap",
								"label": "result",
								"offset": 16,
								"slot": "0",
								"type": "t_uint128"
							}
						],
						"numberOfBytes": "32"
					},
					"t_uint128": {
						"encoding": "inplace",
						"label": "uint128",
						"numberOfBytes": "16"
					},
					"t_uint216": {
						"encoding": "inplace",
						"label": "uint216",
						"numberOfBytes": "27"
					},
					"t_uint256": {
						"encoding": "inplace",
						"label": "uint256",
						"numberOfBytes": "32"
					},
					"t_uint40": {
						"encoding": "inplace",
						"label": "uint40",
						"numberOfBytes": "5"
					},
					"t_uint8": {
						"encoding": "inplace",
						"label": "uint8",
						"numberOfBytes": "1"
					}
				}
			},
			"userdoc": {
				"kind": "user",
				"methods": {},
				"version": 1
			}
		}
	}
}