{
	"data": {
		"bytecode": {
			"linkReferences": {},
			"object": "6090610024600b82828239805160001a607314601757fe5b30600052607381538281f3fe730000000000000000000000000000000000000000301460806040526004361060335760003560e01c80631e9d4904146038575b600080fd5b603e6054565b6040518082815260200191505060405180910390f35b61012c8156fea2646970667358221220ec565edc266b4daff5c6cd08d4102d52a0f9206a13bcbde265c8ed88a2b1d2ba64736f6c634300060c0033",
			"opcodes": "PUSH1 0x90 PUSH2 0x24 PUSH1 0xB DUP3 DUP3 DUP3 CODECOPY DUP1 MLOAD PUSH1 0x0 BYTE PUSH1 0x73 EQ PUSH1 0x17 JUMPI INVALID JUMPDEST ADDRESS PUSH1 0x0 MSTORE PUSH1 0x73 DUP2 MSTORE8 DUP3 DUP2 RETURN INVALID PUSH20 0x0 ADDRESS EQ PUSH1 0x80 PUSH1 0x40 MSTORE PUSH1 0x4 CALLDATASIZE LT PUSH1 0x33 JUMPI PUSH1 0x0 CALLDATALOAD PUSH1 0xE0 SHR DUP1 PUSH4 0x1E9D4904 EQ PUSH1 0x38 JUMPI JUMPDEST PUSH1 0x0 DUP1 REVERT JUMPDEST PUSH1 0x3E PUSH1 0x54 JUMP JUMPDEST PUSH1 0x40 MLOAD DUP1 DUP3 DUP2 MSTORE PUSH1 0x20 ADD SWAP2 POP POP PUSH1 0x40 MLOAD DUP1 SWAP2 SUB SWAP1 RETURN JUMPDEST PUSH2 0x12C DUP2 JUMP INVALID LOG2 PUSH5 0x6970667358 0x22 SLT KECCAK256 0xEC JUMP 0x5E 0xDC 0x26 PUSH12 0x4DAFF5C6CD08D4102D52A0F9 KECCAK256 PUSH11 0x13BCBDE265C8ED88A2B1D2 0xBA PUSH5 0x736F6C6343 STOP MOD 0xC STOP CALLER "
		},
		"gasEstimates": {
			"creation": {
				"codeDepositCost": "28800",
				"executionCost": "106",
				"totalCost": "28906"
			},
			"external": {
				"DECAY_PERIOD()": "167"
			},
			"internal": {
				"current(struct VirtualBalance.Data memory,uint256)": "infinite",
				"scale(struct VirtualBalance.Data storage pointer,uint256,uint256,uint256)": "infinite",
				"set(struct VirtualBalance.Data storage pointer,uint256)": "infinite",
				"update(struct VirtualBalance.Data storage pointer,uint256)": "infinite"
			}
		},
		"methodIdentifiers": {
			"DECAY_PERIOD()": "1e9d4904"
		}
	},
	"abi": [
		{
			"inputs": [],
			"name": "DECAY_PERIOD",
			"outputs": [
				{
					"internalType": "uint256",
					"name": "",
					"type": "uint256"
				}
			],
			"stateMutability": "view",
			"type": "function"
		}
	]
}